{
  "_format": "hh-sol-artifact-1",
  "contractName": "LP_REVV_ETH_Unipool",
  "sourceName": "contracts/staking/LP_REVV_ETH_Unipool.sol",
  "abi": [
    {
      "inputs": [
        {
          "internalType": "contract IERC20",
          "name": "uni_",
          "type": "address"
        },
        {
          "internalType": "uint256",
          "name": "duration",
          "type": "uint256"
        },
        {
          "internalType": "uint256",
          "name": "lockPeriod",
          "type": "uint256"
        }
      ],
      "stateMutability": "nonpayable",
      "type": "constructor"
    },
    {
      "anonymous": false,
      "inputs": [
        {
          "indexed": true,
          "internalType": "address",
          "name": "previousOwner",
          "type": "address"
        },
        {
          "indexed": true,
          "internalType": "address",
          "name": "newOwner",
          "type": "address"
        }
      ],
      "name": "OwnershipTransferred",
      "type": "event"
    },
    {
      "anonymous": false,
      "inputs": [
        {
          "indexed": false,
          "internalType": "uint256",
          "name": "reward",
          "type": "uint256"
        }
      ],
      "name": "RewardAdded",
      "type": "event"
    },
    {
      "anonymous": false,
      "inputs": [
        {
          "indexed": true,
          "internalType": "address",
          "name": "user",
          "type": "address"
        },
        {
          "indexed": false,
          "internalType": "uint256",
          "name": "reward",
          "type": "uint256"
        }
      ],
      "name": "RewardPaid",
      "type": "event"
    },
    {
      "anonymous": false,
      "inputs": [
        {
          "indexed": true,
          "internalType": "address",
          "name": "user",
          "type": "address"
        },
        {
          "indexed": false,
          "internalType": "uint256",
          "name": "amount",
          "type": "uint256"
        }
      ],
      "name": "Staked",
      "type": "event"
    },
    {
      "anonymous": false,
      "inputs": [
        {
          "indexed": true,
          "internalType": "address",
          "name": "user",
          "type": "address"
        },
        {
          "indexed": false,
          "internalType": "uint256",
          "name": "amount",
          "type": "uint256"
        }
      ],
      "name": "Withdrawn",
      "type": "event"
    },
    {
      "inputs": [],
      "name": "DURATION",
      "outputs": [
        {
          "internalType": "uint256",
          "name": "",
          "type": "uint256"
        }
      ],
      "stateMutability": "view",
      "type": "function"
    },
    {
      "inputs": [
        {
          "internalType": "address",
          "name": "account",
          "type": "address"
        }
      ],
      "name": "balanceOf",
      "outputs": [
        {
          "internalType": "uint256",
          "name": "",
          "type": "uint256"
        }
      ],
      "stateMutability": "view",
      "type": "function"
    },
    {
      "inputs": [
        {
          "internalType": "address",
          "name": "account",
          "type": "address"
        }
      ],
      "name": "earned",
      "outputs": [
        {
          "internalType": "uint256",
          "name": "",
          "type": "uint256"
        }
      ],
      "stateMutability": "view",
      "type": "function"
    },
    {
      "inputs": [],
      "name": "exit",
      "outputs": [],
      "stateMutability": "nonpayable",
      "type": "function"
    },
    {
      "inputs": [],
      "name": "lastTimeRewardApplicable",
      "outputs": [
        {
          "internalType": "uint256",
          "name": "",
          "type": "uint256"
        }
      ],
      "stateMutability": "view",
      "type": "function"
    },
    {
      "inputs": [],
      "name": "lastUpdateTime",
      "outputs": [
        {
          "internalType": "uint256",
          "name": "",
          "type": "uint256"
        }
      ],
      "stateMutability": "view",
      "type": "function"
    },
    {
      "inputs": [],
      "name": "lockFinish",
      "outputs": [
        {
          "internalType": "uint256",
          "name": "",
          "type": "uint256"
        }
      ],
      "stateMutability": "view",
      "type": "function"
    },
    {
      "inputs": [
        {
          "internalType": "uint256",
          "name": "reward",
          "type": "uint256"
        }
      ],
      "name": "notifyRewardAmount",
      "outputs": [],
      "stateMutability": "nonpayable",
      "type": "function"
    },
    {
      "inputs": [],
      "name": "owner",
      "outputs": [
        {
          "internalType": "address",
          "name": "",
          "type": "address"
        }
      ],
      "stateMutability": "view",
      "type": "function"
    },
    {
      "inputs": [],
      "name": "periodFinish",
      "outputs": [
        {
          "internalType": "uint256",
          "name": "",
          "type": "uint256"
        }
      ],
      "stateMutability": "view",
      "type": "function"
    },
    {
      "inputs": [],
      "name": "renounceOwnership",
      "outputs": [],
      "stateMutability": "nonpayable",
      "type": "function"
    },
    {
      "inputs": [],
      "name": "rewardDistribution",
      "outputs": [
        {
          "internalType": "address",
          "name": "",
          "type": "address"
        }
      ],
      "stateMutability": "view",
      "type": "function"
    },
    {
      "inputs": [],
      "name": "rewardPerToken",
      "outputs": [
        {
          "internalType": "uint256",
          "name": "",
          "type": "uint256"
        }
      ],
      "stateMutability": "view",
      "type": "function"
    },
    {
      "inputs": [],
      "name": "rewardPerTokenStored",
      "outputs": [
        {
          "internalType": "uint256",
          "name": "",
          "type": "uint256"
        }
      ],
      "stateMutability": "view",
      "type": "function"
    },
    {
      "inputs": [],
      "name": "rewardRate",
      "outputs": [
        {
          "internalType": "uint256",
          "name": "",
          "type": "uint256"
        }
      ],
      "stateMutability": "view",
      "type": "function"
    },
    {
      "inputs": [
        {
          "internalType": "address",
          "name": "",
          "type": "address"
        }
      ],
      "name": "rewards",
      "outputs": [
        {
          "internalType": "uint256",
          "name": "",
          "type": "uint256"
        }
      ],
      "stateMutability": "view",
      "type": "function"
    },
    {
      "inputs": [
        {
          "internalType": "address",
          "name": "_rewardDistribution",
          "type": "address"
        }
      ],
      "name": "setRewardDistribution",
      "outputs": [],
      "stateMutability": "nonpayable",
      "type": "function"
    },
    {
      "inputs": [
        {
          "internalType": "uint256",
          "name": "amount",
          "type": "uint256"
        }
      ],
      "name": "stake",
      "outputs": [],
      "stateMutability": "nonpayable",
      "type": "function"
    },
    {
      "inputs": [],
      "name": "totalSupply",
      "outputs": [
        {
          "internalType": "uint256",
          "name": "",
          "type": "uint256"
        }
      ],
      "stateMutability": "view",
      "type": "function"
    },
    {
      "inputs": [
        {
          "internalType": "address",
          "name": "newOwner",
          "type": "address"
        }
      ],
      "name": "transferOwnership",
      "outputs": [],
      "stateMutability": "nonpayable",
      "type": "function"
    },
    {
      "inputs": [],
      "name": "uni",
      "outputs": [
        {
          "internalType": "contract IERC20",
          "name": "",
          "type": "address"
        }
      ],
      "stateMutability": "view",
      "type": "function"
    },
    {
      "inputs": [
        {
          "internalType": "address",
          "name": "",
          "type": "address"
        }
      ],
      "name": "userRewardPerTokenPaid",
      "outputs": [
        {
          "internalType": "uint256",
          "name": "",
          "type": "uint256"
        }
      ],
      "stateMutability": "view",
      "type": "function"
    },
    {
      "inputs": [
        {
          "internalType": "uint256",
          "name": "amount",
          "type": "uint256"
        }
      ],
      "name": "withdraw",
      "outputs": [],
      "stateMutability": "nonpayable",
      "type": "function"
    }
  ],
  "bytecode": "0x60c060405260006004556000600555600060065534801561001f57600080fd5b506040516114dc3803806114dc8339818101604052606081101561004257600080fd5b50805160208201516040909201516001600160601b0319606083901b1660805290919060006100786001600160e01b036100d716565b600280546001600160a01b0319166001600160a01b038316908117909155604051919250906000907f8be0079c531659141344cd1fd0a4f28419497f9722a3daafe3b4186f6b6457e0908290a35060a0919091524201600555506100db565b3390565b60805160601c60a0516113c261011a600039806104b552806106e4528061074c528061078d525080610a7b5280610d455280610de152506113c26000f3fe608060405234801561001057600080fd5b506004361061018c5760003560e01c806380faa57d116100e3578063df136d651161008c578063ebe2b12b11610066578063ebe2b12b14610336578063edc9af951461033e578063f2fde38b146103465761018c565b8063df136d651461031e578063e6ff7ba014610326578063e9fad8ee1461032e5761018c565b8063a694fc3a116100bd578063a694fc3a146102f1578063c8f33c911461030e578063cd3daf9d146103165761018c565b806380faa57d146102bb5780638b876347146102c35780638da5cb5b146102e95761018c565b80631be052891161014557806370a082311161011f57806370a0823114610285578063715018a6146102ab5780637b0a47ee146102b35761018c565b80631be05289146102435780632e1a7d4d1461024b5780633c6b16ab146102685761018c565b80630d68b761116101765780630d68b761146101ef578063101114cf1461021757806318160ddd1461023b5761018c565b80628cc262146101915780630700037d146101c9575b600080fd5b6101b7600480360360208110156101a757600080fd5b50356001600160a01b031661036c565b60408051918252519081900360200190f35b6101b7600480360360208110156101df57600080fd5b50356001600160a01b03166103f2565b6102156004803603602081101561020557600080fd5b50356001600160a01b0316610404565b005b61021f61049d565b604080516001600160a01b039092168252519081900360200190f35b6101b76104ac565b6101b76104b3565b6102156004803603602081101561026157600080fd5b50356104d7565b6102156004803603602081101561027e57600080fd5b5035610620565b6101b76004803603602081101561029b57600080fd5b50356001600160a01b03166107f1565b61021561080c565b6101b76108cd565b6101b76108d3565b6101b7600480360360208110156102d957600080fd5b50356001600160a01b03166108e6565b61021f6108f8565b6102156004803603602081101561030757600080fd5b5035610907565b6101b76109fa565b6101b7610a00565b6101b7610a54565b6101b7610a5a565b610215610a60565b6101b7610a73565b61021f610a79565b6102156004803603602081101561035c57600080fd5b50356001600160a01b0316610a9d565b6001600160a01b0381166000908152600a602090815260408083205460099092528220546103ec91906103e090670de0b6b3a7640000906103d4906103bf906103b3610a00565b9063ffffffff610bb516565b6103c8886107f1565b9063ffffffff610bfe16565b9063ffffffff610c5716565b9063ffffffff610c9916565b92915050565b600a6020526000908152604090205481565b61040c610cf3565b6002546001600160a01b0390811691161461046e576040805162461bcd60e51b815260206004820181905260248201527f4f776e61626c653a2063616c6c6572206973206e6f7420746865206f776e6572604482015290519081900360640190fd5b6003805473ffffffffffffffffffffffffffffffffffffffff19166001600160a01b0392909216919091179055565b6003546001600160a01b031681565b6000545b90565b7f000000000000000000000000000000000000000000000000000000000000000081565b336104e0610a00565b6008556104eb6108d3565b6007556001600160a01b03811615610532576105068161036c565b6001600160a01b0382166000908152600a60209081526040808320939093556008546009909152919020555b6005544211610588576040805162461bcd60e51b815260206004820152600660248201527f4c6f636b65640000000000000000000000000000000000000000000000000000604482015290519081900360640190fd5b600082116105dd576040805162461bcd60e51b815260206004820152601160248201527f43616e6e6f742077697468647261772030000000000000000000000000000000604482015290519081900360640190fd5b6105e682610cf7565b60408051838152905133917f7084f5476618d8e60b11ef0d7d3f06914655adb8793e28ff7f018d4c76d505d5919081900360200190a25050565b6003546001600160a01b0316610634610cf3565b6001600160a01b0316146106795760405162461bcd60e51b81526004018080602001828103825260218152602001806113426021913960400191505060405180910390fd5b6000610683610a00565b60085561068e6108d3565b6007556001600160a01b038116156106d5576106a98161036c565b6001600160a01b0382166000908152600a60209081526040808320939093556008546009909152919020555b60045442106107165761070e827f000000000000000000000000000000000000000000000000000000000000000063ffffffff610c5716565b600655610781565b60045460009061072c904263ffffffff610bb516565b9050600061074560065483610bfe90919063ffffffff16565b905061077b7f00000000000000000000000000000000000000000000000000000000000000006103d4868463ffffffff610c9916565b60065550505b4260078190556107b7907f000000000000000000000000000000000000000000000000000000000000000063ffffffff610c9916565b6004556040805183815290517fde88a922e0d3b88b24e9623efeb464919c6bf9f66857a65e2bfcf2ce87a9433d9181900360200190a15050565b6001600160a01b031660009081526001602052604090205490565b610814610cf3565b6002546001600160a01b03908116911614610876576040805162461bcd60e51b815260206004820181905260248201527f4f776e61626c653a2063616c6c6572206973206e6f7420746865206f776e6572604482015290519081900360640190fd5b6002546040516000916001600160a01b0316907f8be0079c531659141344cd1fd0a4f28419497f9722a3daafe3b4186f6b6457e0908390a36002805473ffffffffffffffffffffffffffffffffffffffff19169055565b60065481565b60006108e142600454610d7d565b905090565b60096020526000908152604090205481565b6002546001600160a01b031690565b33610910610a00565b60085561091b6108d3565b6007556001600160a01b03811615610962576109368161036c565b6001600160a01b0382166000908152600a60209081526040808320939093556008546009909152919020555b600082116109b7576040805162461bcd60e51b815260206004820152600e60248201527f43616e6e6f74207374616b652030000000000000000000000000000000000000604482015290519081900360640190fd5b6109c082610d93565b60408051838152905133917f9e71bc8eea02a63969f509818f2dafb9254532904319f9dbda79b67bd34a5f3d919081900360200190a25050565b60075481565b6000610a0a6104ac565b610a1757506008546104b0565b6108e1610a45610a256104ac565b6103d4670de0b6b3a76400006103c86006546103c86007546103b36108d3565b6008549063ffffffff610c9916565b60085481565b60055481565b610a71610a6c336107f1565b6104d7565b565b60045481565b7f000000000000000000000000000000000000000000000000000000000000000081565b610aa5610cf3565b6002546001600160a01b03908116911614610b07576040805162461bcd60e51b815260206004820181905260248201527f4f776e61626c653a2063616c6c6572206973206e6f7420746865206f776e6572604482015290519081900360640190fd5b6001600160a01b038116610b4c5760405162461bcd60e51b81526004018080602001828103825260268152602001806112d56026913960400191505060405180910390fd5b6002546040516001600160a01b038084169216907f8be0079c531659141344cd1fd0a4f28419497f9722a3daafe3b4186f6b6457e090600090a36002805473ffffffffffffffffffffffffffffffffffffffff19166001600160a01b0392909216919091179055565b6000610bf783836040518060400160405280601e81526020017f536166654d6174683a207375627472616374696f6e206f766572666c6f770000815250610e17565b9392505050565b600082610c0d575060006103ec565b82820282848281610c1a57fe5b0414610bf75760405162461bcd60e51b81526004018080602001828103825260218152602001806113216021913960400191505060405180910390fd5b6000610bf783836040518060400160405280601a81526020017f536166654d6174683a206469766973696f6e206279207a65726f000000000000815250610eae565b600082820183811015610bf7576040805162461bcd60e51b815260206004820152601b60248201527f536166654d6174683a206164646974696f6e206f766572666c6f770000000000604482015290519081900360640190fd5b3390565b600054610d0a908263ffffffff610bb516565b600090815533815260016020526040902054610d2c908263ffffffff610bb516565b33600081815260016020526040902091909155610d7a907f00000000000000000000000000000000000000000000000000000000000000006001600160a01b0316908363ffffffff610f1316565b50565b6000818310610d8c5781610bf7565b5090919050565b600054610da6908263ffffffff610c9916565b600090815533815260016020526040902054610dc8908263ffffffff610c9916565b33600081815260016020526040902091909155610d7a907f00000000000000000000000000000000000000000000000000000000000000006001600160a01b031690308463ffffffff610f9816565b60008184841115610ea65760405162461bcd60e51b81526004018080602001828103825283818151815260200191508051906020019080838360005b83811015610e6b578181015183820152602001610e53565b50505050905090810190601f168015610e985780820380516001836020036101000a031916815260200191505b509250505060405180910390fd5b505050900390565b60008183610efd5760405162461bcd60e51b8152602060048201818152835160248401528351909283926044909101919085019080838360008315610e6b578181015183820152602001610e53565b506000838581610f0957fe5b0495945050505050565b604080516001600160a01b038416602482015260448082018490528251808303909101815260649091019091526020810180517bffffffffffffffffffffffffffffffffffffffffffffffffffffffff167fa9059cbb00000000000000000000000000000000000000000000000000000000179052610f93908490611026565b505050565b604080516001600160a01b0380861660248301528416604482015260648082018490528251808303909101815260849091019091526020810180517bffffffffffffffffffffffffffffffffffffffffffffffffffffffff167f23b872dd00000000000000000000000000000000000000000000000000000000179052611020908590611026565b50505050565b606061107b826040518060400160405280602081526020017f5361666545524332303a206c6f772d6c6576656c2063616c6c206661696c6564815250856001600160a01b03166110d79092919063ffffffff16565b805190915015610f935780806020019051602081101561109a57600080fd5b5051610f935760405162461bcd60e51b815260040180806020018281038252602a815260200180611363602a913960400191505060405180910390fd5b60606110e684846000856110ee565b949350505050565b60608247101561112f5760405162461bcd60e51b81526004018080602001828103825260268152602001806112fb6026913960400191505060405180910390fd5b61113885611268565b611189576040805162461bcd60e51b815260206004820152601d60248201527f416464726573733a2063616c6c20746f206e6f6e2d636f6e7472616374000000604482015290519081900360640190fd5b60006060866001600160a01b031685876040518082805190602001908083835b602083106111e657805182527fffffffffffffffffffffffffffffffffffffffffffffffffffffffffffffffe090920191602091820191016111a9565b6001836020036101000a03801982511681845116808217855250505050505090500191505060006040518083038185875af1925050503d8060008114611248576040519150601f19603f3d011682016040523d82523d6000602084013e61124d565b606091505b509150915061125d82828661126e565b979650505050505050565b3b151590565b6060831561127d575081610bf7565b82511561128d5782518084602001fd5b60405162461bcd60e51b8152602060048201818152845160248401528451859391928392604401919085019080838360008315610e6b578181015183820152602001610e5356fe4f776e61626c653a206e6577206f776e657220697320746865207a65726f2061646472657373416464726573733a20696e73756666696369656e742062616c616e636520666f722063616c6c536166654d6174683a206d756c7469706c69636174696f6e206f766572666c6f7743616c6c6572206973206e6f742072657761726420646973747269627574696f6e5361666545524332303a204552433230206f7065726174696f6e20646964206e6f742073756363656564a2646970667358221220319dfbabbe68902c0d4c4e774f2b7cf2e0113c1fb93edd6dc8cb5b57e07e48e064736f6c63430006080033",
  "linkReferences": {},
  "deployedLinkReferences": {}
}