{
  "_format": "hh-sol-artifact-1",
  "contractName": "LPTokenWrapper",
  "sourceName": "contracts/staking/LP_REVV_ETH_Unipool.sol",
  "abi": [
    {
      "inputs": [
        {
          "internalType": "contract IERC20",
          "name": "uni_",
          "type": "address"
        }
      ],
      "stateMutability": "nonpayable",
      "type": "constructor"
    },
    {
      "inputs": [
        {
          "internalType": "address",
          "name": "account",
          "type": "address"
        }
      ],
      "name": "balanceOf",
      "outputs": [
        {
          "internalType": "uint256",
          "name": "",
          "type": "uint256"
        }
      ],
      "stateMutability": "view",
      "type": "function"
    },
    {
      "inputs": [
        {
          "internalType": "uint256",
          "name": "amount",
          "type": "uint256"
        }
      ],
      "name": "stake",
      "outputs": [],
      "stateMutability": "nonpayable",
      "type": "function"
    },
    {
      "inputs": [],
      "name": "totalSupply",
      "outputs": [
        {
          "internalType": "uint256",
          "name": "",
          "type": "uint256"
        }
      ],
      "stateMutability": "view",
      "type": "function"
    },
    {
      "inputs": [],
      "name": "uni",
      "outputs": [
        {
          "internalType": "contract IERC20",
          "name": "",
          "type": "address"
        }
      ],
      "stateMutability": "view",
      "type": "function"
    },
    {
      "inputs": [
        {
          "internalType": "uint256",
          "name": "amount",
          "type": "uint256"
        }
      ],
      "name": "withdraw",
      "outputs": [],
      "stateMutability": "nonpayable",
      "type": "function"
    }
  ],
  "bytecode": "0x60a060405234801561001057600080fd5b506040516108c23803806108c28339818101604052602081101561003357600080fd5b5051606081901b6001600160601b0319166080526001600160a01b03166108516100716000398061017a5280610235528061027a52506108516000f3fe608060405234801561001057600080fd5b50600436106100675760003560e01c806370a082311161005057806370a08231146100a5578063a694fc3a146100d8578063edc9af95146100f557610067565b806318160ddd1461006c5780632e1a7d4d14610086575b600080fd5b610074610126565b60408051918252519081900360200190f35b6100a36004803603602081101561009c57600080fd5b503561012c565b005b610074600480360360208110156100bb57600080fd5b503573ffffffffffffffffffffffffffffffffffffffff166101bf565b6100a3600480360360208110156100ee57600080fd5b50356101e7565b6100fd610278565b6040805173ffffffffffffffffffffffffffffffffffffffff9092168252519081900360200190f35b60005490565b60005461013f908263ffffffff61029c16565b600090815533815260016020526040902054610161908263ffffffff61029c16565b336000818152600160205260409020919091556101bc907f000000000000000000000000000000000000000000000000000000000000000073ffffffffffffffffffffffffffffffffffffffff16908363ffffffff6102e516565b50565b73ffffffffffffffffffffffffffffffffffffffff1660009081526001602052604090205490565b6000546101fa908263ffffffff61037716565b60009081553381526001602052604090205461021c908263ffffffff61037716565b336000818152600160205260409020919091556101bc907f000000000000000000000000000000000000000000000000000000000000000073ffffffffffffffffffffffffffffffffffffffff1690308463ffffffff6103d116565b7f000000000000000000000000000000000000000000000000000000000000000081565b60006102de83836040518060400160405280601e81526020017f536166654d6174683a207375627472616374696f6e206f766572666c6f77000081525061046c565b9392505050565b6040805173ffffffffffffffffffffffffffffffffffffffff8416602482015260448082018490528251808303909101815260649091019091526020810180517bffffffffffffffffffffffffffffffffffffffffffffffffffffffff167fa9059cbb00000000000000000000000000000000000000000000000000000000179052610372908490610503565b505050565b6000828201838110156102de576040805162461bcd60e51b815260206004820152601b60248201527f536166654d6174683a206164646974696f6e206f766572666c6f770000000000604482015290519081900360640190fd5b6040805173ffffffffffffffffffffffffffffffffffffffff80861660248301528416604482015260648082018490528251808303909101815260849091019091526020810180517bffffffffffffffffffffffffffffffffffffffffffffffffffffffff167f23b872dd00000000000000000000000000000000000000000000000000000000179052610466908590610503565b50505050565b600081848411156104fb5760405162461bcd60e51b81526004018080602001828103825283818151815260200191508051906020019080838360005b838110156104c05781810151838201526020016104a8565b50505050905090810190601f1680156104ed5780820380516001836020036101000a031916815260200191505b509250505060405180910390fd5b505050900390565b6060610565826040518060400160405280602081526020017f5361666545524332303a206c6f772d6c6576656c2063616c6c206661696c65648152508573ffffffffffffffffffffffffffffffffffffffff166105c19092919063ffffffff16565b8051909150156103725780806020019051602081101561058457600080fd5b50516103725760405162461bcd60e51b815260040180806020018281038252602a8152602001806107f2602a913960400191505060405180910390fd5b60606105d084846000856105d8565b949350505050565b6060824710156106195760405162461bcd60e51b81526004018080602001828103825260268152602001806107cc6026913960400191505060405180910390fd5b6106228561075f565b610673576040805162461bcd60e51b815260206004820152601d60248201527f416464726573733a2063616c6c20746f206e6f6e2d636f6e7472616374000000604482015290519081900360640190fd5b600060608673ffffffffffffffffffffffffffffffffffffffff1685876040518082805190602001908083835b602083106106dd57805182527fffffffffffffffffffffffffffffffffffffffffffffffffffffffffffffffe090920191602091820191016106a0565b6001836020036101000a03801982511681845116808217855250505050505090500191505060006040518083038185875af1925050503d806000811461073f576040519150601f19603f3d011682016040523d82523d6000602084013e610744565b606091505b5091509150610754828286610765565b979650505050505050565b3b151590565b606083156107745750816102de565b8251156107845782518084602001fd5b60405162461bcd60e51b81526020600482018181528451602484015284518593919283926044019190850190808383600083156104c05781810151838201526020016104a856fe416464726573733a20696e73756666696369656e742062616c616e636520666f722063616c6c5361666545524332303a204552433230206f7065726174696f6e20646964206e6f742073756363656564a264697066735822122090af130289d38303490ff1c04b1eef77621d91abb58f26551f27de9fb2e100a464736f6c63430006080033",
  "linkReferences": {},
  "deployedLinkReferences": {}
}