{
  "_format": "hh-sol-artifact-1",
  "contractName": "REVVRacingCatalystBuilder",
  "sourceName": "contracts/token/utils/REVVRacingCatalystBuilder.sol",
  "abi": [
    {
      "inputs": [
        {
          "internalType": "contract IERC20Burnable",
          "name": "shards_",
          "type": "address"
        },
        {
          "internalType": "contract IERC20Mintable",
          "name": "catalysts_",
          "type": "address"
        }
      ],
      "stateMutability": "nonpayable",
      "type": "constructor"
    },
    {
      "anonymous": false,
      "inputs": [
        {
          "indexed": false,
          "internalType": "uint256",
          "name": "conversionRate",
          "type": "uint256"
        }
      ],
      "name": "ConversionRateUpdated",
      "type": "event"
    },
    {
      "anonymous": false,
      "inputs": [
        {
          "indexed": true,
          "internalType": "address",
          "name": "previousOwner",
          "type": "address"
        },
        {
          "indexed": true,
          "internalType": "address",
          "name": "newOwner",
          "type": "address"
        }
      ],
      "name": "OwnershipTransferred",
      "type": "event"
    },
    {
      "anonymous": false,
      "inputs": [
        {
          "indexed": false,
          "internalType": "bytes32",
          "name": "role",
          "type": "bytes32"
        },
        {
          "indexed": false,
          "internalType": "address",
          "name": "account",
          "type": "address"
        },
        {
          "indexed": false,
          "internalType": "address",
          "name": "operator",
          "type": "address"
        }
      ],
      "name": "RoleGranted",
      "type": "event"
    },
    {
      "anonymous": false,
      "inputs": [
        {
          "indexed": false,
          "internalType": "bytes32",
          "name": "role",
          "type": "bytes32"
        },
        {
          "indexed": false,
          "internalType": "address",
          "name": "account",
          "type": "address"
        },
        {
          "indexed": false,
          "internalType": "address",
          "name": "operator",
          "type": "address"
        }
      ],
      "name": "RoleRevoked",
      "type": "event"
    },
    {
      "inputs": [],
      "name": "RATE_MANAGER_ROLE",
      "outputs": [
        {
          "internalType": "bytes32",
          "name": "",
          "type": "bytes32"
        }
      ],
      "stateMutability": "view",
      "type": "function"
    },
    {
      "inputs": [],
      "name": "catalysts",
      "outputs": [
        {
          "internalType": "contract IERC20Mintable",
          "name": "",
          "type": "address"
        }
      ],
      "stateMutability": "view",
      "type": "function"
    },
    {
      "inputs": [],
      "name": "conversionRate",
      "outputs": [
        {
          "internalType": "uint256",
          "name": "",
          "type": "uint256"
        }
      ],
      "stateMutability": "view",
      "type": "function"
    },
    {
      "inputs": [
        {
          "internalType": "bytes32",
          "name": "role",
          "type": "bytes32"
        },
        {
          "internalType": "address",
          "name": "account",
          "type": "address"
        }
      ],
      "name": "grantRole",
      "outputs": [],
      "stateMutability": "nonpayable",
      "type": "function"
    },
    {
      "inputs": [
        {
          "internalType": "bytes32",
          "name": "role",
          "type": "bytes32"
        },
        {
          "internalType": "address",
          "name": "account",
          "type": "address"
        }
      ],
      "name": "hasRole",
      "outputs": [
        {
          "internalType": "bool",
          "name": "",
          "type": "bool"
        }
      ],
      "stateMutability": "view",
      "type": "function"
    },
    {
      "inputs": [
        {
          "internalType": "address",
          "name": "",
          "type": "address"
        },
        {
          "internalType": "address",
          "name": "from",
          "type": "address"
        },
        {
          "internalType": "uint256",
          "name": "value",
          "type": "uint256"
        },
        {
          "internalType": "bytes",
          "name": "",
          "type": "bytes"
        }
      ],
      "name": "onERC20Received",
      "outputs": [
        {
          "internalType": "bytes4",
          "name": "",
          "type": "bytes4"
        }
      ],
      "stateMutability": "nonpayable",
      "type": "function"
    },
    {
      "inputs": [],
      "name": "owner",
      "outputs": [
        {
          "internalType": "address",
          "name": "",
          "type": "address"
        }
      ],
      "stateMutability": "view",
      "type": "function"
    },
    {
      "inputs": [
        {
          "internalType": "address[]",
          "name": "accounts",
          "type": "address[]"
        },
        {
          "internalType": "contract IERC20[]",
          "name": "tokens",
          "type": "address[]"
        },
        {
          "internalType": "uint256[]",
          "name": "amounts",
          "type": "uint256[]"
        }
      ],
      "name": "recoverERC20s",
      "outputs": [],
      "stateMutability": "nonpayable",
      "type": "function"
    },
    {
      "inputs": [
        {
          "internalType": "address[]",
          "name": "accounts",
          "type": "address[]"
        },
        {
          "internalType": "contract IERC721[]",
          "name": "contracts",
          "type": "address[]"
        },
        {
          "internalType": "uint256[]",
          "name": "tokenIds",
          "type": "uint256[]"
        }
      ],
      "name": "recoverERC721s",
      "outputs": [],
      "stateMutability": "nonpayable",
      "type": "function"
    },
    {
      "inputs": [
        {
          "internalType": "address payable[]",
          "name": "accounts",
          "type": "address[]"
        },
        {
          "internalType": "uint256[]",
          "name": "amounts",
          "type": "uint256[]"
        }
      ],
      "name": "recoverETH",
      "outputs": [],
      "stateMutability": "nonpayable",
      "type": "function"
    },
    {
      "inputs": [
        {
          "internalType": "bytes32",
          "name": "role",
          "type": "bytes32"
        }
      ],
      "name": "renounceRole",
      "outputs": [],
      "stateMutability": "nonpayable",
      "type": "function"
    },
    {
      "inputs": [
        {
          "internalType": "bytes32",
          "name": "role",
          "type": "bytes32"
        },
        {
          "internalType": "address",
          "name": "account",
          "type": "address"
        }
      ],
      "name": "revokeRole",
      "outputs": [],
      "stateMutability": "nonpayable",
      "type": "function"
    },
    {
      "inputs": [
        {
          "internalType": "uint256",
          "name": "conversionRate_",
          "type": "uint256"
        }
      ],
      "name": "setConversionRate",
      "outputs": [],
      "stateMutability": "nonpayable",
      "type": "function"
    },
    {
      "inputs": [],
      "name": "shards",
      "outputs": [
        {
          "internalType": "contract IERC20Burnable",
          "name": "",
          "type": "address"
        }
      ],
      "stateMutability": "view",
      "type": "function"
    },
    {
      "inputs": [
        {
          "internalType": "bytes4",
          "name": "interfaceId",
          "type": "bytes4"
        }
      ],
      "name": "supportsInterface",
      "outputs": [
        {
          "internalType": "bool",
          "name": "",
          "type": "bool"
        }
      ],
      "stateMutability": "view",
      "type": "function"
    },
    {
      "inputs": [
        {
          "internalType": "address",
          "name": "newOwner",
          "type": "address"
        }
      ],
      "name": "transferOwnership",
      "outputs": [],
      "stateMutability": "nonpayable",
      "type": "function"
    }
  ],
  "bytecode": "0x60c06040523480156200001157600080fd5b5060405162001edb38038062001edb83398101604081905262000034916200023c565b3362000055634fc3585960e01b60016200004d620000ba565b9190620000f0565b6200006b816200006462000180565b90620001b0565b506001600160a01b03828116608052811660a052604051600081527eb22dee8d85ff5215d4c68cdb3f5864f9e51f23b5c76363187afaacab3906e79060200160405180910390a150506200029d565b600080620000ea60017fca9d3e17f264b0f3984e2634e94adb37fa3e6a8103f06aeae6fa59e21c769f5e6200027b565b92915050565b600160e01b6001600160e01b0319831601620001525760405162461bcd60e51b815260206004820152601f60248201527f496e74657266616365446574656374696f6e3a2077726f6e672076616c756500604482015260640160405180910390fd5b6001600160e01b03199190911660009081526020929092526040909120805460ff1916911515919091179055565b600080620000ea60017fc9ed16f33ab3a66c84bfd83099ccb2a8845871e2e1c1928f63797152f0fd54cd6200027b565b6001600160a01b03811615620002075781546001600160a01b0319166001600160a01b03821690811783556040516000907f8be0079c531659141344cd1fd0a4f28419497f9722a3daafe3b4186f6b6457e0908290a35b6200021f6307f5828d60e41b60016200004d620000ba565b5050565b6001600160a01b03811681146200023957600080fd5b50565b600080604083850312156200025057600080fd5b82516200025d8162000223565b6020840151909250620002708162000223565b809150509250929050565b81810381811115620000ea57634e487b7160e01b600052601160045260246000fd5b60805160a051611c03620002d86000396000818161026901526104fc01526000818161018b0152818161033901526104620152611c036000f3fe608060405234801561001057600080fd5b50600436106101005760003560e01c806391d1485411610097578063d2e8049411610066578063d2e804941461028b578063d547741f1461029e578063f2fde38b146102b1578063f7ba94bd146102c457600080fd5b806391d1485414610217578063c3666c361461022a578063cb327b8b1461023d578063d0e546721461026457600080fd5b806373c8a958116100d357806373c8a958146101d25780637ffdf53e146101e55780638bb9c5bf146101fc5780638da5cb5b1461020f57600080fd5b806301ffc9a7146101055780632f2ff15d1461012d5780634fc35859146101425780636d53ae1e14610186575b600080fd5b6101186101133660046116c1565b6102d7565b60405190151581526020015b60405180910390f35b61014061013b366004611725565b6102f1565b005b610155610150366004611784565b61031f565b6040517fffffffff000000000000000000000000000000000000000000000000000000009091168152602001610124565b6101ad7f000000000000000000000000000000000000000000000000000000000000000081565b60405173ffffffffffffffffffffffffffffffffffffffff9091168152602001610124565b6101406101e03660046118ce565b6105dc565b6101ee60005481565b604051908152602001610124565b61014061020a366004611968565b610701565b6101ad610718565b610118610225366004611725565b610744565b6101406102383660046118ce565b61078f565b6101ee7f524154455f4d414e41474552000000000000000000000000000000000000000081565b6101ad7f000000000000000000000000000000000000000000000000000000000000000081565b610140610299366004611968565b610932565b6101406102ac366004611725565b6109a0565b6101406102bf366004611981565b6109c3565b6101406102d236600461199e565b6109d7565b60006102eb826102e5610ac3565b90610af1565b92915050565b33610304816102fe610bcb565b90610bf9565b61031a838383610312610c80565b929190610cae565b505050565b60003373ffffffffffffffffffffffffffffffffffffffff7f000000000000000000000000000000000000000000000000000000000000000016146103c5576040517f08c379a000000000000000000000000000000000000000000000000000000000815260206004820152601d60248201527f436174616c7973744275696c6465723a2077726f6e672073656e64657200000060448201526064015b60405180910390fd5b6000805490819003610433576040517f08c379a000000000000000000000000000000000000000000000000000000000815260206004820152601d60248201527f436174616c7973744275696c6465723a2072617465206e6f742073657400000060448201526064016103bc565b6040517f42966c68000000000000000000000000000000000000000000000000000000008152600481018590527f000000000000000000000000000000000000000000000000000000000000000073ffffffffffffffffffffffffffffffffffffffff16906342966c68906024016020604051808303816000875af11580156104c0573d6000803e3d6000fd5b505050506040513d601f19601f820116820180604052508101906104e49190611a0a565b5073ffffffffffffffffffffffffffffffffffffffff7f0000000000000000000000000000000000000000000000000000000000000000166340c10f198661052c8488611a2c565b6040517fffffffff0000000000000000000000000000000000000000000000000000000060e085901b16815273ffffffffffffffffffffffffffffffffffffffff90921660048301526024820152604401600060405180830381600087803b15801561059757600080fd5b505af11580156105ab573d6000803e3d6000fd5b507f4fc35859000000000000000000000000000000000000000000000000000000009450505050505b949350505050565b6105e9335b6102fe610bcb565b8483811480156105f857508082145b61065e576040517f08c379a000000000000000000000000000000000000000000000000000000000815260206004820152601d60248201527f5265636f766572793a20696e636f6e73697374656e742061727261797300000060448201526064016103bc565b60005b8181146106f7576106ef88888381811061067d5761067d611a67565b90506020020160208101906106929190611981565b8585848181106106a4576106a4611a67565b905060200201358888858181106106bd576106bd611a67565b90506020020160208101906106d29190611981565b73ffffffffffffffffffffffffffffffffffffffff169190610d85565b600101610661565b5050505050505050565b610715338261070e610c80565b9190610e12565b50565b600061073f610725610bcb565b5473ffffffffffffffffffffffffffffffffffffffff1690565b905090565b60006107888383610753610c80565b60009283526020908152604080842073ffffffffffffffffffffffffffffffffffffffff909316845291905290205460ff1690565b9392505050565b610798336105e1565b8483811480156107a757508082145b61080d576040517f08c379a000000000000000000000000000000000000000000000000000000000815260206004820152601d60248201527f5265636f766572793a20696e636f6e73697374656e742061727261797300000060448201526064016103bc565b60005b8181146106f75785858281811061082957610829611a67565b905060200201602081019061083e9190611981565b73ffffffffffffffffffffffffffffffffffffffff166323b872dd308a8a8581811061086c5761086c611a67565b90506020020160208101906108819190611981565b87878681811061089357610893611a67565b6040517fffffffff0000000000000000000000000000000000000000000000000000000060e088901b16815273ffffffffffffffffffffffffffffffffffffffff958616600482015294909316602485015250602090910201356044820152606401600060405180830381600087803b15801561090f57600080fd5b505af1158015610923573d6000803e3d6000fd5b50505050806001019050610810565b6109667f524154455f4d414e4147455200000000000000000000000000000000000000003361095f610c80565b9190610eb6565b60008190556040518181527eb22dee8d85ff5215d4c68cdb3f5864f9e51f23b5c76363187afaacab3906e79060200160405180910390a150565b336109ad816102fe610bcb565b61031a8383836109bb610c80565b929190610f62565b61071533826109d0610bcb565b919061102c565b6109e0336105e1565b82818114610a4a576040517f08c379a000000000000000000000000000000000000000000000000000000000815260206004820152601d60248201527f5265636f766572793a20696e636f6e73697374656e742061727261797300000060448201526064016103bc565b60005b818114610abb57610ab3848483818110610a6957610a69611a67565b90506020020135878784818110610a8257610a82611a67565b9050602002016020810190610a979190611981565b73ffffffffffffffffffffffffffffffffffffffff1690611158565b600101610a4d565b505050505050565b6000806102eb60017fca9d3e17f264b0f3984e2634e94adb37fa3e6a8103f06aeae6fa59e21c769f5e611a96565b60007c01000000000000000000000000000000000000000000000000000000007fffffffff00000000000000000000000000000000000000000000000000000000831601610b41575060006102eb565b7ffe003659000000000000000000000000000000000000000000000000000000007fffffffff00000000000000000000000000000000000000000000000000000000831601610b92575060016102eb565b507fffffffff00000000000000000000000000000000000000000000000000000000166000908152602091909152604090205460ff1690565b6000806102eb60017fc9ed16f33ab3a66c84bfd83099ccb2a8845871e2e1c1928f63797152f0fd54cd611a96565b815473ffffffffffffffffffffffffffffffffffffffff828116911614610c7c576040517f08c379a000000000000000000000000000000000000000000000000000000000815260206004820152601860248201527f4f776e6572736869703a206e6f7420746865206f776e6572000000000000000060448201526064016103bc565b5050565b6000806102eb60017fc8827d3282af6f37b64c3e9e6f3ac9df286ab0bb0fccd6f8661bf19adb368b23611a96565b60008381526020858152604080832073ffffffffffffffffffffffffffffffffffffffff8616845290915290205460ff16610d7f5760008381526020858152604080832073ffffffffffffffffffffffffffffffffffffffff8681168086529184529382902080547fffffffffffffffffffffffffffffffffffffffffffffffffffffffffffffff00166001179055815187815292830152918316918101919091527f2f8788117e7eff1d82e926ec794901d17c78024a50270940304540a733656f0d906060015b60405180910390a15b50505050565b6040805173ffffffffffffffffffffffffffffffffffffffff8416602482015260448082018490528251808303909101815260649091019091526020810180517bffffffffffffffffffffffffffffffffffffffffffffffffffffffff167fa9059cbb0000000000000000000000000000000000000000000000000000000017905261031a9084906112b2565b610e1d838284610eb6565b60008181526020848152604080832073ffffffffffffffffffffffffffffffffffffffff86168085529083529281902080547fffffffffffffffffffffffffffffffffffffffffffffffffffffffffffffff0016905580518481529182018390528101919091527ff6391f5c32d9c69d2a47ea670b442974b53935d1edc7fd64eb21e047a839171b9060600160405180910390a1505050565b60008281526020848152604080832073ffffffffffffffffffffffffffffffffffffffff8516845290915290205460ff1661031a57610ef4826113be565b604051602001610f049190611af4565b604080517fffffffffffffffffffffffffffffffffffffffffffffffffffffffffffffffe0818403018152908290527f08c379a00000000000000000000000000000000000000000000000000000000082526103bc91600401611b60565b60008381526020858152604080832073ffffffffffffffffffffffffffffffffffffffff8616845290915290205460ff1615610d7f5760008381526020858152604080832073ffffffffffffffffffffffffffffffffffffffff8681168086529184529382902080547fffffffffffffffffffffffffffffffffffffffffffffffffffffffffffffff00169055815187815292830152918316918101919091527ff6391f5c32d9c69d2a47ea670b442974b53935d1edc7fd64eb21e047a839171b90606001610d76565b825473ffffffffffffffffffffffffffffffffffffffff90811690831681146110b1576040517f08c379a000000000000000000000000000000000000000000000000000000000815260206004820152601860248201527f4f776e6572736869703a206e6f7420746865206f776e6572000000000000000060448201526064016103bc565b8173ffffffffffffffffffffffffffffffffffffffff168173ffffffffffffffffffffffffffffffffffffffff1614610d7f5783547fffffffffffffffffffffffff00000000000000000000000000000000000000001673ffffffffffffffffffffffffffffffffffffffff8381169182178655604051908316907f8be0079c531659141344cd1fd0a4f28419497f9722a3daafe3b4186f6b6457e090600090a350505050565b804710156111c2576040517f08c379a000000000000000000000000000000000000000000000000000000000815260206004820152601d60248201527f416464726573733a20696e73756666696369656e742062616c616e636500000060448201526064016103bc565b60008273ffffffffffffffffffffffffffffffffffffffff168260405160006040518083038185875af1925050503d806000811461121c576040519150601f19603f3d011682016040523d82523d6000602084013e611221565b606091505b505090508061031a576040517f08c379a000000000000000000000000000000000000000000000000000000000815260206004820152603a60248201527f416464726573733a20756e61626c6520746f2073656e642076616c75652c207260448201527f6563697069656e74206d6179206861766520726576657274656400000000000060648201526084016103bc565b6000611314826040518060400160405280602081526020017f5361666545524332303a206c6f772d6c6576656c2063616c6c206661696c65648152508573ffffffffffffffffffffffffffffffffffffffff166115509092919063ffffffff16565b80519091501561031a57808060200190518101906113329190611a0a565b61031a576040517f08c379a000000000000000000000000000000000000000000000000000000000815260206004820152602a60248201527f5361666545524332303a204552433230206f7065726174696f6e20646964206e60448201527f6f7420737563636565640000000000000000000000000000000000000000000060648201526084016103bc565b606060008290036113dd57505060408051602081019091526000815290565b6000826040516020016113f291815260200190565b604080517fffffffffffffffffffffffffffffffffffffffffffffffffffffffffffffffe08184030181529190529050601f5b81818151811061143757611437611a67565b01602001517fff000000000000000000000000000000000000000000000000000000000000001660000361148c577fffffffffffffffffffffffffffffffffffffffffffffffffffffffffffffffff01611425565b60008160010167ffffffffffffffff8111156114aa576114aa611755565b6040519080825280601f01601f1916602001820160405280156114d4576020820181803683370190505b50905060005b828111611547578381815181106114f3576114f3611a67565b602001015160f81c60f81b82828151811061151057611510611a67565b60200101907effffffffffffffffffffffffffffffffffffffffffffffffffffffffffffff1916908160001a9053506001016114da565b50949350505050565b60606105d48484600085856000808673ffffffffffffffffffffffffffffffffffffffff1685876040516115849190611bb1565b60006040518083038185875af1925050503d80600081146115c1576040519150601f19603f3d011682016040523d82523d6000602084013e6115c6565b606091505b50915091506115d7878383876115e2565b979650505050505050565b606083156116785782516000036116715773ffffffffffffffffffffffffffffffffffffffff85163b611671576040517f08c379a000000000000000000000000000000000000000000000000000000000815260206004820152601d60248201527f416464726573733a2063616c6c20746f206e6f6e2d636f6e747261637400000060448201526064016103bc565b50816105d4565b6105d4838381511561168d5781518083602001fd5b806040517f08c379a00000000000000000000000000000000000000000000000000000000081526004016103bc9190611b60565b6000602082840312156116d357600080fd5b81357fffffffff000000000000000000000000000000000000000000000000000000008116811461078857600080fd5b73ffffffffffffffffffffffffffffffffffffffff8116811461071557600080fd5b6000806040838503121561173857600080fd5b82359150602083013561174a81611703565b809150509250929050565b7f4e487b7100000000000000000000000000000000000000000000000000000000600052604160045260246000fd5b6000806000806080858703121561179a57600080fd5b84356117a581611703565b935060208501356117b581611703565b925060408501359150606085013567ffffffffffffffff808211156117d957600080fd5b818701915087601f8301126117ed57600080fd5b8135818111156117ff576117ff611755565b604051601f82017fffffffffffffffffffffffffffffffffffffffffffffffffffffffffffffffe0908116603f0116810190838211818310171561184557611845611755565b816040528281528a602084870101111561185e57600080fd5b82602086016020830137600060208483010152809550505050505092959194509250565b60008083601f84011261189457600080fd5b50813567ffffffffffffffff8111156118ac57600080fd5b6020830191508360208260051b85010111156118c757600080fd5b9250929050565b600080600080600080606087890312156118e757600080fd5b863567ffffffffffffffff808211156118ff57600080fd5b61190b8a838b01611882565b9098509650602089013591508082111561192457600080fd5b6119308a838b01611882565b9096509450604089013591508082111561194957600080fd5b5061195689828a01611882565b979a9699509497509295939492505050565b60006020828403121561197a57600080fd5b5035919050565b60006020828403121561199357600080fd5b813561078881611703565b600080600080604085870312156119b457600080fd5b843567ffffffffffffffff808211156119cc57600080fd5b6119d888838901611882565b909650945060208701359150808211156119f157600080fd5b506119fe87828801611882565b95989497509550505050565b600060208284031215611a1c57600080fd5b8151801515811461078857600080fd5b600082611a62577f4e487b7100000000000000000000000000000000000000000000000000000000600052601260045260246000fd5b500490565b7f4e487b7100000000000000000000000000000000000000000000000000000000600052603260045260246000fd5b818103818111156102eb577f4e487b7100000000000000000000000000000000000000000000000000000000600052601160045260246000fd5b60005b83811015611aeb578181015183820152602001611ad3565b50506000910152565b7f416363657373436f6e74726f6c3a206d697373696e6720270000000000000000815260008251611b2c816018850160208701611ad0565b7f2720726f6c6500000000000000000000000000000000000000000000000000006018939091019283015250601e01919050565b6020815260008251806020840152611b7f816040850160208701611ad0565b601f017fffffffffffffffffffffffffffffffffffffffffffffffffffffffffffffffe0169190910160400192915050565b60008251611bc3818460208701611ad0565b919091019291505056fea26469706673582212209501ccf63842ed613c91c3b90d59575491af9d361c53f806f84ae2c07fdf144164736f6c63430008130033",
  "linkReferences": {},
  "deployedLinkReferences": {}
}