{
  "_format": "hh-sol-artifact-1",
  "contractName": "REVVMotorsportShardMock",
  "sourceName": "contracts/mocks/token/ERC20/REVVMotorsportShardMock.sol",
  "abi": [
    {
      "inputs": [
        {
          "internalType": "contract IForwarderRegistry",
          "name": "forwarderRegistry",
          "type": "address"
        }
      ],
      "stateMutability": "nonpayable",
      "type": "constructor"
    },
    {
      "anonymous": false,
      "inputs": [
        {
          "indexed": true,
          "internalType": "address",
          "name": "owner",
          "type": "address"
        },
        {
          "indexed": true,
          "internalType": "address",
          "name": "spender",
          "type": "address"
        },
        {
          "indexed": false,
          "internalType": "uint256",
          "name": "value",
          "type": "uint256"
        }
      ],
      "name": "Approval",
      "type": "event"
    },
    {
      "anonymous": false,
      "inputs": [
        {
          "indexed": true,
          "internalType": "address",
          "name": "previousOwner",
          "type": "address"
        },
        {
          "indexed": true,
          "internalType": "address",
          "name": "newOwner",
          "type": "address"
        }
      ],
      "name": "OwnershipTransferred",
      "type": "event"
    },
    {
      "anonymous": false,
      "inputs": [
        {
          "indexed": false,
          "internalType": "bytes32",
          "name": "role",
          "type": "bytes32"
        },
        {
          "indexed": false,
          "internalType": "address",
          "name": "account",
          "type": "address"
        },
        {
          "indexed": false,
          "internalType": "address",
          "name": "operator",
          "type": "address"
        }
      ],
      "name": "RoleGranted",
      "type": "event"
    },
    {
      "anonymous": false,
      "inputs": [
        {
          "indexed": false,
          "internalType": "bytes32",
          "name": "role",
          "type": "bytes32"
        },
        {
          "indexed": false,
          "internalType": "address",
          "name": "account",
          "type": "address"
        },
        {
          "indexed": false,
          "internalType": "address",
          "name": "operator",
          "type": "address"
        }
      ],
      "name": "RoleRevoked",
      "type": "event"
    },
    {
      "anonymous": false,
      "inputs": [
        {
          "indexed": true,
          "internalType": "address",
          "name": "from",
          "type": "address"
        },
        {
          "indexed": true,
          "internalType": "address",
          "name": "to",
          "type": "address"
        },
        {
          "indexed": false,
          "internalType": "uint256",
          "name": "value",
          "type": "uint256"
        }
      ],
      "name": "Transfer",
      "type": "event"
    },
    {
      "inputs": [],
      "name": "DOMAIN_SEPARATOR",
      "outputs": [
        {
          "internalType": "bytes32",
          "name": "",
          "type": "bytes32"
        }
      ],
      "stateMutability": "view",
      "type": "function"
    },
    {
      "inputs": [],
      "name": "MINTER_ROLE",
      "outputs": [
        {
          "internalType": "bytes32",
          "name": "",
          "type": "bytes32"
        }
      ],
      "stateMutability": "view",
      "type": "function"
    },
    {
      "inputs": [],
      "name": "__msgData",
      "outputs": [
        {
          "internalType": "bytes",
          "name": "",
          "type": "bytes"
        }
      ],
      "stateMutability": "view",
      "type": "function"
    },
    {
      "inputs": [
        {
          "internalType": "address",
          "name": "owner",
          "type": "address"
        },
        {
          "internalType": "address",
          "name": "spender",
          "type": "address"
        }
      ],
      "name": "allowance",
      "outputs": [
        {
          "internalType": "uint256",
          "name": "value",
          "type": "uint256"
        }
      ],
      "stateMutability": "view",
      "type": "function"
    },
    {
      "inputs": [
        {
          "internalType": "address",
          "name": "spender",
          "type": "address"
        },
        {
          "internalType": "uint256",
          "name": "value",
          "type": "uint256"
        }
      ],
      "name": "approve",
      "outputs": [
        {
          "internalType": "bool",
          "name": "result",
          "type": "bool"
        }
      ],
      "stateMutability": "nonpayable",
      "type": "function"
    },
    {
      "inputs": [
        {
          "internalType": "address",
          "name": "owner",
          "type": "address"
        }
      ],
      "name": "balanceOf",
      "outputs": [
        {
          "internalType": "uint256",
          "name": "balance",
          "type": "uint256"
        }
      ],
      "stateMutability": "view",
      "type": "function"
    },
    {
      "inputs": [
        {
          "internalType": "address[]",
          "name": "owners",
          "type": "address[]"
        },
        {
          "internalType": "uint256[]",
          "name": "values",
          "type": "uint256[]"
        }
      ],
      "name": "batchBurnFrom",
      "outputs": [
        {
          "internalType": "bool",
          "name": "",
          "type": "bool"
        }
      ],
      "stateMutability": "nonpayable",
      "type": "function"
    },
    {
      "inputs": [
        {
          "internalType": "address[]",
          "name": "recipients",
          "type": "address[]"
        },
        {
          "internalType": "uint256[]",
          "name": "values",
          "type": "uint256[]"
        }
      ],
      "name": "batchMint",
      "outputs": [],
      "stateMutability": "nonpayable",
      "type": "function"
    },
    {
      "inputs": [
        {
          "internalType": "address[]",
          "name": "recipients",
          "type": "address[]"
        },
        {
          "internalType": "uint256[]",
          "name": "values",
          "type": "uint256[]"
        }
      ],
      "name": "batchTransfer",
      "outputs": [
        {
          "internalType": "bool",
          "name": "",
          "type": "bool"
        }
      ],
      "stateMutability": "nonpayable",
      "type": "function"
    },
    {
      "inputs": [
        {
          "internalType": "address",
          "name": "from",
          "type": "address"
        },
        {
          "internalType": "address[]",
          "name": "recipients",
          "type": "address[]"
        },
        {
          "internalType": "uint256[]",
          "name": "values",
          "type": "uint256[]"
        }
      ],
      "name": "batchTransferFrom",
      "outputs": [
        {
          "internalType": "bool",
          "name": "",
          "type": "bool"
        }
      ],
      "stateMutability": "nonpayable",
      "type": "function"
    },
    {
      "inputs": [
        {
          "internalType": "uint256",
          "name": "value",
          "type": "uint256"
        }
      ],
      "name": "burn",
      "outputs": [
        {
          "internalType": "bool",
          "name": "",
          "type": "bool"
        }
      ],
      "stateMutability": "nonpayable",
      "type": "function"
    },
    {
      "inputs": [
        {
          "internalType": "address",
          "name": "from",
          "type": "address"
        },
        {
          "internalType": "uint256",
          "name": "value",
          "type": "uint256"
        }
      ],
      "name": "burnFrom",
      "outputs": [
        {
          "internalType": "bool",
          "name": "",
          "type": "bool"
        }
      ],
      "stateMutability": "nonpayable",
      "type": "function"
    },
    {
      "inputs": [],
      "name": "decimals",
      "outputs": [
        {
          "internalType": "uint8",
          "name": "",
          "type": "uint8"
        }
      ],
      "stateMutability": "view",
      "type": "function"
    },
    {
      "inputs": [
        {
          "internalType": "address",
          "name": "spender",
          "type": "address"
        },
        {
          "internalType": "uint256",
          "name": "subtractedValue",
          "type": "uint256"
        }
      ],
      "name": "decreaseAllowance",
      "outputs": [
        {
          "internalType": "bool",
          "name": "result",
          "type": "bool"
        }
      ],
      "stateMutability": "nonpayable",
      "type": "function"
    },
    {
      "inputs": [],
      "name": "forwarderRegistry",
      "outputs": [
        {
          "internalType": "contract IForwarderRegistry",
          "name": "",
          "type": "address"
        }
      ],
      "stateMutability": "view",
      "type": "function"
    },
    {
      "inputs": [
        {
          "internalType": "bytes32",
          "name": "role",
          "type": "bytes32"
        },
        {
          "internalType": "address",
          "name": "account",
          "type": "address"
        }
      ],
      "name": "grantRole",
      "outputs": [],
      "stateMutability": "nonpayable",
      "type": "function"
    },
    {
      "inputs": [
        {
          "internalType": "bytes32",
          "name": "role",
          "type": "bytes32"
        },
        {
          "internalType": "address",
          "name": "account",
          "type": "address"
        }
      ],
      "name": "hasRole",
      "outputs": [
        {
          "internalType": "bool",
          "name": "",
          "type": "bool"
        }
      ],
      "stateMutability": "view",
      "type": "function"
    },
    {
      "inputs": [
        {
          "internalType": "address",
          "name": "spender",
          "type": "address"
        },
        {
          "internalType": "uint256",
          "name": "addedValue",
          "type": "uint256"
        }
      ],
      "name": "increaseAllowance",
      "outputs": [
        {
          "internalType": "bool",
          "name": "result",
          "type": "bool"
        }
      ],
      "stateMutability": "nonpayable",
      "type": "function"
    },
    {
      "inputs": [
        {
          "internalType": "address",
          "name": "forwarder",
          "type": "address"
        }
      ],
      "name": "isTrustedForwarder",
      "outputs": [
        {
          "internalType": "bool",
          "name": "",
          "type": "bool"
        }
      ],
      "stateMutability": "view",
      "type": "function"
    },
    {
      "inputs": [
        {
          "internalType": "address",
          "name": "to",
          "type": "address"
        },
        {
          "internalType": "uint256",
          "name": "value",
          "type": "uint256"
        }
      ],
      "name": "mint",
      "outputs": [],
      "stateMutability": "nonpayable",
      "type": "function"
    },
    {
      "inputs": [],
      "name": "name",
      "outputs": [
        {
          "internalType": "string",
          "name": "",
          "type": "string"
        }
      ],
      "stateMutability": "view",
      "type": "function"
    },
    {
      "inputs": [
        {
          "internalType": "address",
          "name": "owner",
          "type": "address"
        }
      ],
      "name": "nonces",
      "outputs": [
        {
          "internalType": "uint256",
          "name": "",
          "type": "uint256"
        }
      ],
      "stateMutability": "view",
      "type": "function"
    },
    {
      "inputs": [],
      "name": "owner",
      "outputs": [
        {
          "internalType": "address",
          "name": "",
          "type": "address"
        }
      ],
      "stateMutability": "view",
      "type": "function"
    },
    {
      "inputs": [
        {
          "internalType": "address",
          "name": "owner",
          "type": "address"
        },
        {
          "internalType": "address",
          "name": "spender",
          "type": "address"
        },
        {
          "internalType": "uint256",
          "name": "value",
          "type": "uint256"
        },
        {
          "internalType": "uint256",
          "name": "deadline",
          "type": "uint256"
        },
        {
          "internalType": "uint8",
          "name": "v",
          "type": "uint8"
        },
        {
          "internalType": "bytes32",
          "name": "r",
          "type": "bytes32"
        },
        {
          "internalType": "bytes32",
          "name": "s",
          "type": "bytes32"
        }
      ],
      "name": "permit",
      "outputs": [],
      "stateMutability": "nonpayable",
      "type": "function"
    },
    {
      "inputs": [
        {
          "internalType": "address[]",
          "name": "accounts",
          "type": "address[]"
        },
        {
          "internalType": "contract IERC20[]",
          "name": "tokens",
          "type": "address[]"
        },
        {
          "internalType": "uint256[]",
          "name": "amounts",
          "type": "uint256[]"
        }
      ],
      "name": "recoverERC20s",
      "outputs": [],
      "stateMutability": "nonpayable",
      "type": "function"
    },
    {
      "inputs": [
        {
          "internalType": "address[]",
          "name": "accounts",
          "type": "address[]"
        },
        {
          "internalType": "contract IERC721[]",
          "name": "contracts",
          "type": "address[]"
        },
        {
          "internalType": "uint256[]",
          "name": "tokenIds",
          "type": "uint256[]"
        }
      ],
      "name": "recoverERC721s",
      "outputs": [],
      "stateMutability": "nonpayable",
      "type": "function"
    },
    {
      "inputs": [
        {
          "internalType": "address payable[]",
          "name": "accounts",
          "type": "address[]"
        },
        {
          "internalType": "uint256[]",
          "name": "amounts",
          "type": "uint256[]"
        }
      ],
      "name": "recoverETH",
      "outputs": [],
      "stateMutability": "nonpayable",
      "type": "function"
    },
    {
      "inputs": [
        {
          "internalType": "bytes32",
          "name": "role",
          "type": "bytes32"
        }
      ],
      "name": "renounceRole",
      "outputs": [],
      "stateMutability": "nonpayable",
      "type": "function"
    },
    {
      "inputs": [
        {
          "internalType": "bytes32",
          "name": "role",
          "type": "bytes32"
        },
        {
          "internalType": "address",
          "name": "account",
          "type": "address"
        }
      ],
      "name": "revokeRole",
      "outputs": [],
      "stateMutability": "nonpayable",
      "type": "function"
    },
    {
      "inputs": [
        {
          "internalType": "address",
          "name": "to",
          "type": "address"
        },
        {
          "internalType": "uint256",
          "name": "value",
          "type": "uint256"
        },
        {
          "internalType": "bytes",
          "name": "data",
          "type": "bytes"
        }
      ],
      "name": "safeTransfer",
      "outputs": [
        {
          "internalType": "bool",
          "name": "",
          "type": "bool"
        }
      ],
      "stateMutability": "nonpayable",
      "type": "function"
    },
    {
      "inputs": [
        {
          "internalType": "address",
          "name": "from",
          "type": "address"
        },
        {
          "internalType": "address",
          "name": "to",
          "type": "address"
        },
        {
          "internalType": "uint256",
          "name": "value",
          "type": "uint256"
        },
        {
          "internalType": "bytes",
          "name": "data",
          "type": "bytes"
        }
      ],
      "name": "safeTransferFrom",
      "outputs": [
        {
          "internalType": "bool",
          "name": "",
          "type": "bool"
        }
      ],
      "stateMutability": "nonpayable",
      "type": "function"
    },
    {
      "inputs": [
        {
          "internalType": "string",
          "name": "uri",
          "type": "string"
        }
      ],
      "name": "setTokenURI",
      "outputs": [],
      "stateMutability": "nonpayable",
      "type": "function"
    },
    {
      "inputs": [
        {
          "internalType": "bytes4",
          "name": "interfaceId",
          "type": "bytes4"
        }
      ],
      "name": "supportsInterface",
      "outputs": [
        {
          "internalType": "bool",
          "name": "",
          "type": "bool"
        }
      ],
      "stateMutability": "view",
      "type": "function"
    },
    {
      "inputs": [],
      "name": "symbol",
      "outputs": [
        {
          "internalType": "string",
          "name": "",
          "type": "string"
        }
      ],
      "stateMutability": "view",
      "type": "function"
    },
    {
      "inputs": [],
      "name": "tokenURI",
      "outputs": [
        {
          "internalType": "string",
          "name": "",
          "type": "string"
        }
      ],
      "stateMutability": "view",
      "type": "function"
    },
    {
      "inputs": [],
      "name": "totalSupply",
      "outputs": [
        {
          "internalType": "uint256",
          "name": "supply",
          "type": "uint256"
        }
      ],
      "stateMutability": "view",
      "type": "function"
    },
    {
      "inputs": [
        {
          "internalType": "address",
          "name": "to",
          "type": "address"
        },
        {
          "internalType": "uint256",
          "name": "value",
          "type": "uint256"
        }
      ],
      "name": "transfer",
      "outputs": [
        {
          "internalType": "bool",
          "name": "result",
          "type": "bool"
        }
      ],
      "stateMutability": "nonpayable",
      "type": "function"
    },
    {
      "inputs": [
        {
          "internalType": "address",
          "name": "from",
          "type": "address"
        },
        {
          "internalType": "address",
          "name": "to",
          "type": "address"
        },
        {
          "internalType": "uint256",
          "name": "value",
          "type": "uint256"
        }
      ],
      "name": "transferFrom",
      "outputs": [
        {
          "internalType": "bool",
          "name": "result",
          "type": "bool"
        }
      ],
      "stateMutability": "nonpayable",
      "type": "function"
    },
    {
      "inputs": [
        {
          "internalType": "address",
          "name": "newOwner",
          "type": "address"
        }
      ],
      "name": "transferOwnership",
      "outputs": [],
      "stateMutability": "nonpayable",
      "type": "function"
    }
  ],
  "bytecode": "0x60a06040523480156200001157600080fd5b50604051620054c4380380620054c4833981016040819052620000349162000865565b806040518060400160405280601581526020017f52455656204d6f746f7273706f727420536861726400000000000000000000008152506040518060400160405280600481526020016314d2149160e21b815250601260405180602001604052806000815250848080833388888860006001600160401b03811115620000be57620000be62000897565b604051908082528060200260200182016040528015620000e8578160200160208202803683370190505b506040805160008082526020820190925290506200012b8282620001166200024460201b62000f0c1760201c565b6200027a60201b62000f3a179092919060201c565b50506200015f83838362000149620002fd60201b62000fa91760201c565b6200032d60201b62000fd717909392919060201c565b50505062000190816200017c6200039660201b620010561760201c565b620003c660201b620010841790919060201c565b50620001bf81620001ab6200044460201b6200113a1760201c565b6200047460201b620011681790919060201c565b50620001d5620004a560201b620011a21760201c565b620001ea620004ca60201b620011d21760201c565b620001ff620004ed60201b620012001760201c565b620002146200051060201b6200122e1760201c565b620002296200053360201b6200125c1760201c565b6001600160a01b03166080525062000a409650505050505050565b6000806200027460017f1da92899d3da68bf9787824388a37ea2bfa79780bcef91b9716c390eec8ecbef620008ad565b92915050565b620002968282856200055660201b6200128a179092919060201c565b6000620002ad620007a860201b620015611760201c565b9050620002d36336372b0760e01b600183620007d860201b6200158f179092919060201c565b620002f7634e83a8c360e11b600183620007d860201b6200158f179092919060201c565b50505050565b6000806200027460017f335df4119bbb04f056b33eba33b826d3529129e458faf6daa9924b5a8f3b6a82620008ad565b836200033a84826200095e565b50600184016200034b83826200095e565b5060028401805460ff191660ff8316179055620002f763a219a02560e01b600162000381620007a8602090811b6200156117901c565b620007d860201b6200158f179092919060201c565b6000806200027460017fc9ed16f33ab3a66c84bfd83099ccb2a8845871e2e1c1928f63797152f0fd54cd620008ad565b6001600160a01b038116156200041d5781546001600160a01b0319166001600160a01b03821690811783556040516000907f8be0079c531659141344cd1fd0a4f28419497f9722a3daafe3b4186f6b6457e0908290a35b620004406307f5828d60e41b600162000381620007a860201b620015611760201c565b5050565b6000806200027460017ff41bf6a5db26bffdfab174dcf66b31fbba8fdb7e3db040721ce1e62d61839ceb620008ad565b816200048182826200095e565b50620004406303c130d960e41b600162000381620007a860201b620015611760201c565b620004c8634ec7fbed60e11b600162000381620007a860201b620015611760201c565b565b620004c86353f41a9760e01b600162000381620007a860201b620015611760201c565b620004c863602993f360e11b600162000381620007a860201b620015611760201c565b620004c863144b1f0f60e11b600162000381620007a860201b620015611760201c565b620004c86320c07ed160e01b600162000381620007a860201b620015611760201c565b815181518114620005ae5760405162461bcd60e51b815260206004820152601a60248201527f45524332303a20696e636f6e73697374656e742061727261797300000000000060448201526064015b60405180910390fd5b80600003620005bd5750505050565b6000805b82811462000739576000858281518110620005e057620005e062000a2a565b6020026020010151905060006001600160a01b0316816001600160a01b0316036200064e5760405162461bcd60e51b815260206004820152601960248201527f45524332303a206d696e7420746f2061646472657373283029000000000000006044820152606401620005a5565b600085838151811062000665576200066562000a2a565b6020026020010151905080600014620006ed57838101848111620006cc5760405162461bcd60e51b815260206004820152601660248201527f45524332303a2076616c756573206f766572666c6f77000000000000000000006044820152606401620005a5565b6001600160a01b038316600090815260208a90526040902080548301905593505b6040518181526001600160a01b038316906000907fddf252ad1be2c89b69c2b068fc378daa952ba7f163c4a11628f55a4df523b3ef9060200160405180910390a35050600101620005c1565b508015620007a15760028501548181018181116200079a5760405162461bcd60e51b815260206004820152601660248201527f45524332303a20737570706c79206f766572666c6f77000000000000000000006044820152606401620005a5565b6002870155505b5050505050565b6000806200027460017fca9d3e17f264b0f3984e2634e94adb37fa3e6a8103f06aeae6fa59e21c769f5e620008ad565b600160e01b6001600160e01b0319831601620008375760405162461bcd60e51b815260206004820152601f60248201527f496e74657266616365446574656374696f6e3a2077726f6e672076616c7565006044820152606401620005a5565b6001600160e01b03199190911660009081526020929092526040909120805460ff1916911515919091179055565b6000602082840312156200087857600080fd5b81516001600160a01b03811681146200089057600080fd5b9392505050565b634e487b7160e01b600052604160045260246000fd5b818103818111156200027457634e487b7160e01b600052601160045260246000fd5b600181811c90821680620008e457607f821691505b6020821081036200090557634e487b7160e01b600052602260045260246000fd5b50919050565b601f8211156200095957600081815260208120601f850160051c81016020861015620009345750805b601f850160051c820191505b81811015620009555782815560010162000940565b5050505b505050565b81516001600160401b038111156200097a576200097a62000897565b62000992816200098b8454620008cf565b846200090b565b602080601f831160018114620009ca5760008415620009b15750858301515b600019600386901b1c1916600185901b17855562000955565b600085815260208120601f198616915b82811015620009fb57888601518255948401946001909101908401620009da565b508582101562000a1a5787850151600019600388901b60f8161c191681555b5050505050600190811b01905550565b634e487b7160e01b600052603260045260246000fd5b608051614a4562000a7f60003960008181610340015281816104360152818161374f015281816137d70152818161388a01526138c80152614a456000f3fe608060405234801561001057600080fd5b50600436106102ad5760003560e01c806373c8a9581161017b578063b88d4fde116100d8578063dd62ed3e1161008c578063eb79554911610071578063eb795549146105da578063f2fde38b146105ed578063f7ba94bd1461060057600080fd5b8063dd62ed3e146105b4578063e0df5b6f146105c757600080fd5b8063d505accf116100bd578063d505accf14610567578063d53913931461057a578063d547741f146105a157600080fd5b8063b88d4fde14610541578063c3666c361461055457600080fd5b80638da5cb5b1161012f57806395d89b411161011457806395d89b4114610513578063a457c2d71461051b578063a9059cbb1461052e57600080fd5b80638da5cb5b146104f857806391d148541461050057600080fd5b80637ecebe00116101605780637ecebe00146104bf57806388d695b2146104d25780638bb9c5bf146104e557600080fd5b806373c8a9581461049957806379cc6790146104ac57600080fd5b806331e66e1e1161022957806342966c68116101dd578063572b6c05116101c2578063572b6c0514610426578063685731071461047357806370a082311461048657600080fd5b806342966c68146104005780634885b2541461041357600080fd5b8063395093511161020e57806339509351146103d25780633c130d90146103e557806340c10f19146103ed57600080fd5b806331e66e1e146103b45780633644e515146103ca57600080fd5b80631b9a7529116102805780632b4c9f16116102655780632b4c9f161461033e5780632f2ff15d14610385578063313ce5671461039a57600080fd5b80631b9a75291461031857806323b872dd1461032b57600080fd5b806301ffc9a7146102b257806306fdde03146102da578063095ea7b3146102ef57806318160ddd14610302575b600080fd5b6102c56102c0366004613fe0565b610613565b60405190151581526020015b60405180910390f35b6102e261062d565b6040516102d1919061406b565b6102c56102fd3660046140a0565b610644565b61030a61066c565b6040519081526020016102d1565b6102c5610326366004614118565b610680565b6102c5610339366004614184565b6106ae565b7f00000000000000000000000000000000000000000000000000000000000000005b60405173ffffffffffffffffffffffffffffffffffffffff90911681526020016102d1565b6103986103933660046141c5565b6106da565b005b6103a2610713565b60405160ff90911681526020016102d1565b6103bc61072a565b6040516102d19291906141f5565b61030a61073d565b6102c56103e03660046140a0565b610747565b6102e2610766565b6103986103fb3660046140a0565b610773565b6102c561040e366004614242565b6107c6565b6102c561042136600461425b565b6107eb565b6102c56104343660046142de565b7f000000000000000000000000000000000000000000000000000000000000000073ffffffffffffffffffffffffffffffffffffffff90811691161490565b610398610481366004614118565b61081c565b61030a6104943660046142de565b6108c6565b6103986104a73660046142fb565b6108fe565b6102c56104ba3660046140a0565b610a2e565b61030a6104cd3660046142de565b610a4d565b6102c56104e0366004614118565b610a5b565b6103986104f3366004614242565b610a7e565b610360610a9c565b6102c561050e3660046141c5565b610ac3565b6102e2610b07565b6102c56105293660046140a0565b610b19565b6102c561053c3660046140a0565b610b38565b6102c561054f3660046143d7565b610b57565b6103986105623660046142fb565b610b7c565b610398610575366004614439565b610d21565b61030a7f6d696e746572000000000000000000000000000000000000000000000000000081565b6103986105af3660046141c5565b610d48565b61030a6105c23660046144b0565b610d76565b6103986105d53660046144de565b610dc1565b6102c56105e8366004614520565b610de0565b6103986105fb3660046142de565b610e03565b61039861060e366004614118565b610e1e565b600061062782610621611561565b9061169b565b92915050565b606061063f61063a610fa9565b611775565b905090565b600061066361065161180b565b848461065b610f0c565b929190611815565b50600192915050565b600061063f610679610f0c565b6002015490565b60006106a361068d61180b565b86868686610699610f0c565b9493929190611904565b506001949350505050565b60006106cf6106bb61180b565b8585856106c6610f0c565b93929190611b46565b5060015b9392505050565b60006106e461180b565b90506106f8816106f2611056565b90611b91565b61070e838383610706611c14565b929190611c42565b505050565b600061063f610720610fa9565b6002015460ff1690565b366000610735611d18565b915091509091565b600061063f611d23565b600061066361075461180b565b848461075e610f0c565b929190611dbe565b606061063f61063a61113a565b6107ae7f6d696e746572000000000000000000000000000000000000000000000000000061079f61180b565b6107a7611c14565b9190611f8a565b6107c282826107bb610f0c565b9190612036565b5050565b60006107e36107d361180b565b836107dc610f0c565b91906121b0565b506001919050565b60006108106107f861180b565b8787878787610805610f0c565b9594939291906122c6565b50600195945050505050565b6108487f6d696e746572000000000000000000000000000000000000000000000000000061079f61180b565b6108c0848480806020026020016040519081016040528093929190818152602001838360200280828437600092019190915250506040805160208088028281018201909352878252909350879250869182918501908490808284376000920191909152506108b99250610f0c915050565b919061128a565b50505050565b6000610627826108d4610f0c565b9073ffffffffffffffffffffffffffffffffffffffff166000908152602091909152604090205490565b61091161090961180b565b6106f2611056565b84838114801561092057508082145b61098b576040517f08c379a000000000000000000000000000000000000000000000000000000000815260206004820152601d60248201527f5265636f766572793a20696e636f6e73697374656e742061727261797300000060448201526064015b60405180910390fd5b60005b818114610a2457610a1c8888838181106109aa576109aa614570565b90506020020160208101906109bf91906142de565b8585848181106109d1576109d1614570565b905060200201358888858181106109ea576109ea614570565b90506020020160208101906109ff91906142de565b73ffffffffffffffffffffffffffffffffffffffff16919061270c565b60010161098e565b5050505050505050565b6000610663610a3b61180b565b8484610a45610f0c565b929190612799565b6000610627826108d46127e3565b60006106a3610a6861180b565b86868686610a74610f0c565b9493929190612811565b610a99610a8961180b565b82610a92611c14565b9190612bf3565b50565b600061063f610aa9611056565b5473ffffffffffffffffffffffffffffffffffffffff1690565b60006106d38383610ad2611c14565b60009283526020908152604080842073ffffffffffffffffffffffffffffffffffffffff909316845291905290205460ff1690565b606061063f610b14610fa9565b612c97565b6000610663610b2661180b565b8484610b30610f0c565b929190612ca8565b6000610663610b4561180b565b8484610b4f610f0c565b929190612dfa565b6000610810610b6461180b565b8787878787610b71610f0c565b959493929190612fdb565b610b8761090961180b565b848381148015610b9657508082145b610bfc576040517f08c379a000000000000000000000000000000000000000000000000000000000815260206004820152601d60248201527f5265636f766572793a20696e636f6e73697374656e74206172726179730000006044820152606401610982565b60005b818114610a2457858582818110610c1857610c18614570565b9050602002016020810190610c2d91906142de565b73ffffffffffffffffffffffffffffffffffffffff166323b872dd308a8a85818110610c5b57610c5b614570565b9050602002016020810190610c7091906142de565b878786818110610c8257610c82614570565b6040517fffffffff0000000000000000000000000000000000000000000000000000000060e088901b16815273ffffffffffffffffffffffffffffffffffffffff958616600482015294909316602485015250602090910201356044820152606401600060405180830381600087803b158015610cfe57600080fd5b505af1158015610d12573d6000803e3d6000fd5b50505050806001019050610bff565b610d3f87878787878787610d336127e3565b96959493929190613048565b50505050505050565b6000610d5261180b565b9050610d60816106f2611056565b61070e838383610d6e611c14565b929190613344565b60006106d38383610d85610f0c565b919073ffffffffffffffffffffffffffffffffffffffff9182166000908152600193909301602090815260408085209290931684525290205490565b610dcc61090961180b565b6107c28282610dd961113a565b919061340e565b60006106a3610ded61180b565b86868686610df9610f0c565b949392919061341a565b610a99610e0e61180b565b82610e17611056565b9190613486565b610e2961090961180b565b82818114610e93576040517f08c379a000000000000000000000000000000000000000000000000000000000815260206004820152601d60248201527f5265636f766572793a20696e636f6e73697374656e74206172726179730000006044820152606401610982565b60005b818114610f0457610efc848483818110610eb257610eb2614570565b90506020020135878784818110610ecb57610ecb614570565b9050602002016020810190610ee091906142de565b73ffffffffffffffffffffffffffffffffffffffff16906135b2565b600101610e96565b505050505050565b60008061062760017f1da92899d3da68bf9787824388a37ea2bfa79780bcef91b9716c390eec8ecbef61459f565b610f4583838361128a565b6000610f4f611561565b9050610f7d817f36372b0700000000000000000000000000000000000000000000000000000000600161158f565b6108c0817f9d07518600000000000000000000000000000000000000000000000000000000600161158f565b60008061062760017f335df4119bbb04f056b33eba33b826d3529129e458faf6daa9924b5a8f3b6a8261459f565b83610fe284826146a1565b5060018401610ff183826146a1565b506002840180547fffffffffffffffffffffffffffffffffffffffffffffffffffffffffffffff001660ff83161790556108c07fa219a02500000000000000000000000000000000000000000000000000000000600161104f611561565b919061158f565b60008061062760017fc9ed16f33ab3a66c84bfd83099ccb2a8845871e2e1c1928f63797152f0fd54cd61459f565b73ffffffffffffffffffffffffffffffffffffffff81161561110c5781547fffffffffffffffffffffffff00000000000000000000000000000000000000001673ffffffffffffffffffffffffffffffffffffffff821690811783556040516000907f8be0079c531659141344cd1fd0a4f28419497f9722a3daafe3b4186f6b6457e0908290a35b6107c27f7f5828d000000000000000000000000000000000000000000000000000000000600161104f611561565b60008061062760017ff41bf6a5db26bffdfab174dcf66b31fbba8fdb7e3db040721ce1e62d61839ceb61459f565b8161117382826146a1565b506107c27f3c130d9000000000000000000000000000000000000000000000000000000000600161104f611561565b6111d07f9d8ff7da00000000000000000000000000000000000000000000000000000000600161104f611561565b565b6111d07f53f41a9700000000000000000000000000000000000000000000000000000000600161104f611561565b6111d07fc05327e600000000000000000000000000000000000000000000000000000000600161104f611561565b6111d07f28963e1e00000000000000000000000000000000000000000000000000000000600161104f611561565b6111d07f20c07ed100000000000000000000000000000000000000000000000000000000600161104f611561565b8151815181146112f6576040517f08c379a000000000000000000000000000000000000000000000000000000000815260206004820152601a60248201527f45524332303a20696e636f6e73697374656e74206172726179730000000000006044820152606401610982565b806000036113045750505050565b6000805b8281146114db57600085828151811061132357611323614570565b60200260200101519050600073ffffffffffffffffffffffffffffffffffffffff168173ffffffffffffffffffffffffffffffffffffffff16036113c3576040517f08c379a000000000000000000000000000000000000000000000000000000000815260206004820152601960248201527f45524332303a206d696e7420746f2061646472657373283029000000000000006044820152606401610982565b60008583815181106113d7576113d7614570565b602002602001015190508060001461148357838101848111611455576040517f08c379a000000000000000000000000000000000000000000000000000000000815260206004820152601660248201527f45524332303a2076616c756573206f766572666c6f77000000000000000000006044820152606401610982565b73ffffffffffffffffffffffffffffffffffffffff8316600090815260208a90526040902080548301905593505b60405181815273ffffffffffffffffffffffffffffffffffffffff8316906000907fddf252ad1be2c89b69c2b068fc378daa952ba7f163c4a11628f55a4df523b3ef9060200160405180910390a35050600101611308565b50801561155a576002850154818101818111611553576040517f08c379a000000000000000000000000000000000000000000000000000000000815260206004820152601660248201527f45524332303a20737570706c79206f766572666c6f77000000000000000000006044820152606401610982565b6002870155505b5050505050565b60008061062760017fca9d3e17f264b0f3984e2634e94adb37fa3e6a8103f06aeae6fa59e21c769f5e61459f565b7c01000000000000000000000000000000000000000000000000000000007fffffffff00000000000000000000000000000000000000000000000000000000831601611637576040517f08c379a000000000000000000000000000000000000000000000000000000000815260206004820152601f60248201527f496e74657266616365446574656374696f6e3a2077726f6e672076616c7565006044820152606401610982565b7fffffffff00000000000000000000000000000000000000000000000000000000919091166000908152602092909252604090912080547fffffffffffffffffffffffffffffffffffffffffffffffffffffffffffffff0016911515919091179055565b60007c01000000000000000000000000000000000000000000000000000000007fffffffff000000000000000000000000000000000000000000000000000000008316016116eb57506000610627565b7ffe003659000000000000000000000000000000000000000000000000000000007fffffffff0000000000000000000000000000000000000000000000000000000083160161173c57506001610627565b507fffffffff00000000000000000000000000000000000000000000000000000000166000908152602091909152604090205460ff1690565b606081600001805461178690614608565b80601f01602080910402602001604051908101604052809291908181526020018280546117b290614608565b80156117ff5780601f106117d4576101008083540402835291602001916117ff565b820191906000526020600020905b8154815290600101906020018083116117e257829003601f168201915b50505050509050919050565b600061063f61370c565b73ffffffffffffffffffffffffffffffffffffffff8216611892576040517f08c379a000000000000000000000000000000000000000000000000000000000815260206004820152601d60248201527f45524332303a20617070726f76616c20746f20616464726573732830290000006044820152606401610982565b73ffffffffffffffffffffffffffffffffffffffff838116600081815260018701602090815260408083209487168084529482529182902085905590518481527f8c5be1e5ebec7d5bd14f71427d1e84f3dd0314c0f7b2291e5b200ac8c7c3b92591015b60405180910390a350505050565b8281811461196e576040517f08c379a000000000000000000000000000000000000000000000000000000000815260206004820152601a60248201527f45524332303a20696e636f6e73697374656e74206172726179730000000000006044820152606401610982565b8060000361197c5750610f04565b6000805b828114611b2a57600087878381811061199b5761199b614570565b90506020020160208101906119b091906142de565b905060008686848181106119c6576119c6614570565b9050602002013590508973ffffffffffffffffffffffffffffffffffffffff168273ffffffffffffffffffffffffffffffffffffffff1614611a0e57611a0e8b838c84612ca8565b8015611ad25773ffffffffffffffffffffffffffffffffffffffff8216600090815260208c90526040902054818103818110611aa6576040517f08c379a000000000000000000000000000000000000000000000000000000000815260206004820152601b60248201527f45524332303a20696e73756666696369656e742062616c616e636500000000006044820152606401610982565b73ffffffffffffffffffffffffffffffffffffffff8416600090815260208e9052604090205550928301925b60405181815260009073ffffffffffffffffffffffffffffffffffffffff8416907fddf252ad1be2c89b69c2b068fc378daa952ba7f163c4a11628f55a4df523b3ef9060200160405180910390a35050600101611980565b508015610a245760028801805482900390555050505050505050565b8373ffffffffffffffffffffffffffffffffffffffff168373ffffffffffffffffffffffffffffffffffffffff1614611b8557611b8585848684612ca8565b61155a85848484612dfa565b815473ffffffffffffffffffffffffffffffffffffffff8281169116146107c2576040517f08c379a000000000000000000000000000000000000000000000000000000000815260206004820152601860248201527f4f776e6572736869703a206e6f7420746865206f776e657200000000000000006044820152606401610982565b60008061062760017fc8827d3282af6f37b64c3e9e6f3ac9df286ab0bb0fccd6f8661bf19adb368b2361459f565b60008381526020858152604080832073ffffffffffffffffffffffffffffffffffffffff8616845290915290205460ff166108c05760008381526020858152604080832073ffffffffffffffffffffffffffffffffffffffff8681168086529184529382902080547fffffffffffffffffffffffffffffffffffffffffffffffffffffffffffffff00166001179055815187815292830152918316918101919091527f2f8788117e7eff1d82e926ec794901d17c78024a50270940304540a733656f0d906060015b60405180910390a150505050565b366000610735613853565b6000467f8b73c3c69bb8fe3d512ecc4cf759cc79239f7b179b0ffacaa9a75d522b39400f611d5261063a610fa9565b80516020918201206040805192830193909352918101919091527fc89efdaa54c0f20c7adf612882df0950f5a951637e0307cdcb4c672f298b8bc66060820152608081018290523060a082015260c0016040516020818303038152906040528051906020012091505090565b73ffffffffffffffffffffffffffffffffffffffff8216611e3b576040517f08c379a000000000000000000000000000000000000000000000000000000000815260206004820152601d60248201527f45524332303a20617070726f76616c20746f20616464726573732830290000006044820152606401610982565b73ffffffffffffffffffffffffffffffffffffffff80841660009081526001860160209081526040808320938616835292905220548115611f1c57808201818111611ee2576040517f08c379a000000000000000000000000000000000000000000000000000000000815260206004820152601960248201527f45524332303a20616c6c6f77616e6365206f766572666c6f77000000000000006044820152606401610982565b73ffffffffffffffffffffffffffffffffffffffff8086166000908152600188016020908152604080832093881683529290522081905590505b8273ffffffffffffffffffffffffffffffffffffffff168473ffffffffffffffffffffffffffffffffffffffff167f8c5be1e5ebec7d5bd14f71427d1e84f3dd0314c0f7b2291e5b200ac8c7c3b92583604051611f7b91815260200190565b60405180910390a35050505050565b60008281526020848152604080832073ffffffffffffffffffffffffffffffffffffffff8516845290915290205460ff1661070e57611fc8826139bd565b604051602001611fd891906147bb565b604080517fffffffffffffffffffffffffffffffffffffffffffffffffffffffffffffffe0818403018152908290527f08c379a00000000000000000000000000000000000000000000000000000000082526109829160040161406b565b73ffffffffffffffffffffffffffffffffffffffff82166120b3576040517f08c379a000000000000000000000000000000000000000000000000000000000815260206004820152601960248201527f45524332303a206d696e7420746f2061646472657373283029000000000000006044820152606401610982565b801561215c57600283015481810181811161212a576040517f08c379a000000000000000000000000000000000000000000000000000000000815260206004820152601660248201527f45524332303a20737570706c79206f766572666c6f77000000000000000000006044820152606401610982565b60028501555073ffffffffffffffffffffffffffffffffffffffff821660009081526020849052604090208054820190555b60405181815273ffffffffffffffffffffffffffffffffffffffff8316906000907fddf252ad1be2c89b69c2b068fc378daa952ba7f163c4a11628f55a4df523b3ef906020015b60405180910390a3505050565b801561227b5773ffffffffffffffffffffffffffffffffffffffff8216600090815260208490526040902054818103818110612248576040517f08c379a000000000000000000000000000000000000000000000000000000000815260206004820152601b60248201527f45524332303a20696e73756666696369656e742062616c616e636500000000006044820152606401610982565b73ffffffffffffffffffffffffffffffffffffffff84166000908152602086905260409020555060028301805482900390555b60405181815260009073ffffffffffffffffffffffffffffffffffffffff8416907fddf252ad1be2c89b69c2b068fc378daa952ba7f163c4a11628f55a4df523b3ef906020016121a3565b82818114612330576040517f08c379a000000000000000000000000000000000000000000000000000000000815260206004820152601a60248201527f45524332303a20696e636f6e73697374656e74206172726179730000000000006044820152606401610982565b8060000361233e5750610d3f565b73ffffffffffffffffffffffffffffffffffffffff86166000908152602089905260408120549080805b84811461261457600089898381811061238357612383614570565b905060200201602081019061239891906142de565b905073ffffffffffffffffffffffffffffffffffffffff8116612417576040517f08c379a000000000000000000000000000000000000000000000000000000000815260206004820152601d60248201527f45524332303a207472616e7366657220746f20616464726573732830290000006044820152606401610982565b600088888481811061242b5761242b614570565b905060200201359050806000146125a3578481018581116124a8576040517f08c379a000000000000000000000000000000000000000000000000000000000815260206004820152601660248201527f45524332303a2076616c756573206f766572666c6f77000000000000000000006044820152606401610982565b8095508273ffffffffffffffffffffffffffffffffffffffff168d73ffffffffffffffffffffffffffffffffffffffff161461253257818f60000160008573ffffffffffffffffffffffffffffffffffffffff1673ffffffffffffffffffffffffffffffffffffffff168152602001908152602001600020600082825401925050819055506125a1565b8682111561259c576040517f08c379a000000000000000000000000000000000000000000000000000000000815260206004820152601b60248201527f45524332303a20696e73756666696369656e742062616c616e636500000000006044820152606401610982565b938101935b505b8173ffffffffffffffffffffffffffffffffffffffff168c73ffffffffffffffffffffffffffffffffffffffff167fddf252ad1be2c89b69c2b068fc378daa952ba7f163c4a11628f55a4df523b3ef8360405161260291815260200190565b60405180910390a35050600101612368565b5081158015906126245750808214155b156126c057818303838110612695576040517f08c379a000000000000000000000000000000000000000000000000000000000815260206004820152601b60248201527f45524332303a20696e73756666696369656e742062616c616e636500000000006044820152606401610982565b73ffffffffffffffffffffffffffffffffffffffff8a16600090815260208d90526040902090820190555b8973ffffffffffffffffffffffffffffffffffffffff168973ffffffffffffffffffffffffffffffffffffffff16146126ff576126ff8b8a8c85612ca8565b5050505050505050505050565b6040805173ffffffffffffffffffffffffffffffffffffffff8416602482015260448082018490528251808303909101815260649091019091526020810180517bffffffffffffffffffffffffffffffffffffffffffffffffffffffff167fa9059cbb0000000000000000000000000000000000000000000000000000000017905261070e908490613b4f565b8273ffffffffffffffffffffffffffffffffffffffff168273ffffffffffffffffffffffffffffffffffffffff16146127d8576127d884838584612ca8565b6108c08483836121b0565b60008061062760017f93fe0ff7226b064a4a8f0b09910762afb4bc2441835792c021ffd78cd513011e61459f565b8281811461287b576040517f08c379a000000000000000000000000000000000000000000000000000000000815260206004820152601a60248201527f45524332303a20696e636f6e73697374656e74206172726179730000000000006044820152606401610982565b806000036128895750610f04565b73ffffffffffffffffffffffffffffffffffffffff86166000908152602088905260408120549080805b848114612b3b5760008989838181106128ce576128ce614570565b90506020020160208101906128e391906142de565b905073ffffffffffffffffffffffffffffffffffffffff8116612962576040517f08c379a000000000000000000000000000000000000000000000000000000000815260206004820152601d60248201527f45524332303a207472616e7366657220746f20616464726573732830290000006044820152606401610982565b600088888481811061297657612976614570565b90506020020135905080600014612aca578481018581116129f3576040517f08c379a000000000000000000000000000000000000000000000000000000000815260206004820152601660248201527f45524332303a2076616c756573206f766572666c6f77000000000000000000006044820152606401610982565b8095508273ffffffffffffffffffffffffffffffffffffffff168d73ffffffffffffffffffffffffffffffffffffffff1614612a595773ffffffffffffffffffffffffffffffffffffffff8316600090815260208f905260409020805483019055612ac8565b86821115612ac3576040517f08c379a000000000000000000000000000000000000000000000000000000000815260206004820152601b60248201527f45524332303a20696e73756666696369656e742062616c616e636500000000006044820152606401610982565b938101935b505b8173ffffffffffffffffffffffffffffffffffffffff168c73ffffffffffffffffffffffffffffffffffffffff167fddf252ad1be2c89b69c2b068fc378daa952ba7f163c4a11628f55a4df523b3ef83604051612b2991815260200190565b60405180910390a350506001016128b3565b508115801590612b4b5750808214155b15612be757818303838110612bbc576040517f08c379a000000000000000000000000000000000000000000000000000000000815260206004820152601b60248201527f45524332303a20696e73756666696369656e742062616c616e636500000000006044820152606401610982565b73ffffffffffffffffffffffffffffffffffffffff8a16600090815260208c90526040902090820190555b50505050505050505050565b612bfe838284611f8a565b60008181526020848152604080832073ffffffffffffffffffffffffffffffffffffffff86168085529083529281902080547fffffffffffffffffffffffffffffffffffffffffffffffffffffffffffffff0016905580518481529182018390528101919091527ff6391f5c32d9c69d2a47ea670b442974b53935d1edc7fd64eb21e047a839171b9060600160405180910390a1505050565b606081600101805461178690614608565b73ffffffffffffffffffffffffffffffffffffffff8216612d25576040517f08c379a000000000000000000000000000000000000000000000000000000000815260206004820152601d60248201527f45524332303a20617070726f76616c20746f20616464726573732830290000006044820152606401610982565b73ffffffffffffffffffffffffffffffffffffffff80841660009081526001860160209081526040808320938616835292905220547fffffffffffffffffffffffffffffffffffffffffffffffffffffffffffffffff8114801590612d8957508115155b15611f1c57818103818110611ee2576040517f08c379a000000000000000000000000000000000000000000000000000000000815260206004820152601d60248201527f45524332303a20696e73756666696369656e7420616c6c6f77616e63650000006044820152606401610982565b73ffffffffffffffffffffffffffffffffffffffff8216612e77576040517f08c379a000000000000000000000000000000000000000000000000000000000815260206004820152601d60248201527f45524332303a207472616e7366657220746f20616464726573732830290000006044820152606401610982565b8015612f7c5773ffffffffffffffffffffffffffffffffffffffff8316600090815260208590526040902054818103818110612f0f576040517f08c379a000000000000000000000000000000000000000000000000000000000815260206004820152601b60248201527f45524332303a20696e73756666696369656e742062616c616e636500000000006044820152606401610982565b8373ffffffffffffffffffffffffffffffffffffffff168573ffffffffffffffffffffffffffffffffffffffff1614612f795773ffffffffffffffffffffffffffffffffffffffff8086166000908152602088905260408082208490559186168152208054840190555b50505b8173ffffffffffffffffffffffffffffffffffffffff168373ffffffffffffffffffffffffffffffffffffffff167fddf252ad1be2c89b69c2b068fc378daa952ba7f163c4a11628f55a4df523b3ef836040516118f691815260200190565b612fe88787878787611b46565b73ffffffffffffffffffffffffffffffffffffffff84163b15610d3f57610d3f8686868686868080601f016020809104026020016040519081016040528093929190818152602001838380828437600092019190915250613c5b92505050565b73ffffffffffffffffffffffffffffffffffffffff87166130c5576040517f08c379a000000000000000000000000000000000000000000000000000000000815260206004820152601d60248201527f45524332303a207065726d69742066726f6d20616464726573732830290000006044820152606401610982565b8342111561312f576040517f08c379a000000000000000000000000000000000000000000000000000000000815260206004820152601560248201527f45524332303a2065787069726564207065726d697400000000000000000000006044820152606401610982565b73ffffffffffffffffffffffffffffffffffffffff878116600081815260208b8152604080832080546001810190915581517f6e71edae12b1b97f4d1f60370fef10105fa2faae0126114a169c64845d6126c98185015280830195909552948b166060850152608084018a905260a084019490945260c08084018990528451808503909101815260e090930190935281519190920120906131ce611d23565b6040517f19010000000000000000000000000000000000000000000000000000000000006020820152602281019190915260428101839052606201604080517fffffffffffffffffffffffffffffffffffffffffffffffffffffffffffffffe08184030181528282528051602091820120600080855291840180845281905260ff89169284019290925260608301879052608083018690529092509060019060a0016020604051602081039080840390855afa158015613292573d6000803e3d6000fd5b5050506020604051035190508973ffffffffffffffffffffffffffffffffffffffff168173ffffffffffffffffffffffffffffffffffffffff1614613333576040517f08c379a000000000000000000000000000000000000000000000000000000000815260206004820152601560248201527f45524332303a20696e76616c6964207065726d697400000000000000000000006044820152606401610982565b505050610a2487878761065b610f0c565b60008381526020858152604080832073ffffffffffffffffffffffffffffffffffffffff8616845290915290205460ff16156108c05760008381526020858152604080832073ffffffffffffffffffffffffffffffffffffffff8681168086529184529382902080547fffffffffffffffffffffffffffffffffffffffffffffffffffffffffffffff00169055815187815292830152918316918101919091527ff6391f5c32d9c69d2a47ea670b442974b53935d1edc7fd64eb21e047a839171b90606001611d0a565b826108c0828483614827565b61342686868686612dfa565b73ffffffffffffffffffffffffffffffffffffffff84163b15610f0457610f048586868686868080601f016020809104026020016040519081016040528093929190818152602001838380828437600092019190915250613c5b92505050565b825473ffffffffffffffffffffffffffffffffffffffff908116908316811461350b576040517f08c379a000000000000000000000000000000000000000000000000000000000815260206004820152601860248201527f4f776e6572736869703a206e6f7420746865206f776e657200000000000000006044820152606401610982565b8173ffffffffffffffffffffffffffffffffffffffff168173ffffffffffffffffffffffffffffffffffffffff16146108c05783547fffffffffffffffffffffffff00000000000000000000000000000000000000001673ffffffffffffffffffffffffffffffffffffffff8381169182178655604051908316907f8be0079c531659141344cd1fd0a4f28419497f9722a3daafe3b4186f6b6457e090600090a350505050565b8047101561361c576040517f08c379a000000000000000000000000000000000000000000000000000000000815260206004820152601d60248201527f416464726573733a20696e73756666696369656e742062616c616e63650000006044820152606401610982565b60008273ffffffffffffffffffffffffffffffffffffffff168260405160006040518083038185875af1925050503d8060008114613676576040519150601f19603f3d011682016040523d82523d6000602084013e61367b565b606091505b505090508061070e576040517f08c379a000000000000000000000000000000000000000000000000000000000815260206004820152603a60248201527f416464726573733a20756e61626c6520746f2073656e642076616c75652c207260448201527f6563697069656e74206d617920686176652072657665727465640000000000006064820152608401610982565b60003332148061371c5750601836105b1561372657503390565b7fffffffffffffffffffffffffffffffffffffffffffffffffffffffffffffffec36013560601c7f000000000000000000000000000000000000000000000000000000000000000073ffffffffffffffffffffffffffffffffffffffff1633148061384257506040517f8929a8ca00000000000000000000000000000000000000000000000000000000815273ffffffffffffffffffffffffffffffffffffffff82811660048301523360248301527f00000000000000000000000000000000000000000000000000000000000000001690638929a8ca90604401602060405180830381865afa15801561381e573d6000803e3d6000fd5b505050506040513d601f19601f820116820180604052508101906138429190614941565b1561384c57919050565b3391505090565b366000333214806138645750601836105b156138725750600091369150565b3373ffffffffffffffffffffffffffffffffffffffff7f00000000000000000000000000000000000000000000000000000000000000001614806139a7575073ffffffffffffffffffffffffffffffffffffffff7f000000000000000000000000000000000000000000000000000000000000000016638929a8ca367fffffffffffffffffffffffffffffffffffffffffffffffffffffffffffffffec013560601c6040517fffffffff0000000000000000000000000000000000000000000000000000000060e084901b16815273ffffffffffffffffffffffffffffffffffffffff9091166004820152336024820152604401602060405180830381865afa158015613983573d6000803e3d6000fd5b505050506040513d601f19601f820116820180604052508101906139a79190614941565b156139b457610735613d81565b50600091369150565b606060008290036139dc57505060408051602081019091526000815290565b6000826040516020016139f191815260200190565b604080517fffffffffffffffffffffffffffffffffffffffffffffffffffffffffffffffe08184030181529190529050601f5b818181518110613a3657613a36614570565b01602001517fff0000000000000000000000000000000000000000000000000000000000000016600003613a8b577fffffffffffffffffffffffffffffffffffffffffffffffffffffffffffffffff01613a24565b60008160010167ffffffffffffffff811115613aa957613aa96145d9565b6040519080825280601f01601f191660200182016040528015613ad3576020820181803683370190505b50905060005b828111613b4657838181518110613af257613af2614570565b602001015160f81c60f81b828281518110613b0f57613b0f614570565b60200101907effffffffffffffffffffffffffffffffffffffffffffffffffffffffffffff1916908160001a905350600101613ad9565b50949350505050565b6000613bb1826040518060400160405280602081526020017f5361666545524332303a206c6f772d6c6576656c2063616c6c206661696c65648152508573ffffffffffffffffffffffffffffffffffffffff16613db29092919063ffffffff16565b80519091501561070e5780806020019051810190613bcf9190614941565b61070e576040517f08c379a000000000000000000000000000000000000000000000000000000000815260206004820152602a60248201527f5361666545524332303a204552433230206f7065726174696f6e20646964206e60448201527f6f742073756363656564000000000000000000000000000000000000000000006064820152608401610982565b6040517f4fc35859000000000000000000000000000000000000000000000000000000008082529073ffffffffffffffffffffffffffffffffffffffff851690634fc3585990613cb5908990899088908890600401614963565b6020604051808303816000875af1158015613cd4573d6000803e3d6000fd5b505050506040513d601f19601f82011682018060405250810190613cf891906149ac565b7fffffffff00000000000000000000000000000000000000000000000000000000161461155a576040517f08c379a000000000000000000000000000000000000000000000000000000000815260206004820152601d60248201527f45524332303a2073616665207472616e736665722072656a65637465640000006044820152606401610982565b3660006107357fffffffffffffffffffffffffffffffffffffffffffffffffffffffffffffffec83018284816149c9565b6060613dc18484600085613dc9565b949350505050565b606082471015613e5b576040517f08c379a000000000000000000000000000000000000000000000000000000000815260206004820152602660248201527f416464726573733a20696e73756666696369656e742062616c616e636520666f60448201527f722063616c6c00000000000000000000000000000000000000000000000000006064820152608401610982565b73ffffffffffffffffffffffffffffffffffffffff85163b613ed9576040517f08c379a000000000000000000000000000000000000000000000000000000000815260206004820152601d60248201527f416464726573733a2063616c6c20746f206e6f6e2d636f6e74726163740000006044820152606401610982565b6000808673ffffffffffffffffffffffffffffffffffffffff168587604051613f0291906149f3565b60006040518083038185875af1925050503d8060008114613f3f576040519150601f19603f3d011682016040523d82523d6000602084013e613f44565b606091505b5091509150613f54828286613f5f565b979650505050505050565b60608315613f6e5750816106d3565b825115613f7e5782518084602001fd5b816040517f08c379a0000000000000000000000000000000000000000000000000000000008152600401610982919061406b565b7fffffffff0000000000000000000000000000000000000000000000000000000081168114610a9957600080fd5b600060208284031215613ff257600080fd5b81356106d381613fb2565b60005b83811015614018578181015183820152602001614000565b50506000910152565b60008151808452614039816020860160208601613ffd565b601f017fffffffffffffffffffffffffffffffffffffffffffffffffffffffffffffffe0169290920160200192915050565b6020815260006106d36020830184614021565b73ffffffffffffffffffffffffffffffffffffffff81168114610a9957600080fd5b600080604083850312156140b357600080fd5b82356140be8161407e565b946020939093013593505050565b60008083601f8401126140de57600080fd5b50813567ffffffffffffffff8111156140f657600080fd5b6020830191508360208260051b850101111561411157600080fd5b9250929050565b6000806000806040858703121561412e57600080fd5b843567ffffffffffffffff8082111561414657600080fd5b614152888389016140cc565b9096509450602087013591508082111561416b57600080fd5b50614178878288016140cc565b95989497509550505050565b60008060006060848603121561419957600080fd5b83356141a48161407e565b925060208401356141b48161407e565b929592945050506040919091013590565b600080604083850312156141d857600080fd5b8235915060208301356141ea8161407e565b809150509250929050565b60208152816020820152818360408301376000818301604090810191909152601f9092017fffffffffffffffffffffffffffffffffffffffffffffffffffffffffffffffe0160101919050565b60006020828403121561425457600080fd5b5035919050565b60008060008060006060868803121561427357600080fd5b853561427e8161407e565b9450602086013567ffffffffffffffff8082111561429b57600080fd5b6142a789838a016140cc565b909650945060408801359150808211156142c057600080fd5b506142cd888289016140cc565b969995985093965092949392505050565b6000602082840312156142f057600080fd5b81356106d38161407e565b6000806000806000806060878903121561431457600080fd5b863567ffffffffffffffff8082111561432c57600080fd5b6143388a838b016140cc565b9098509650602089013591508082111561435157600080fd5b61435d8a838b016140cc565b9096509450604089013591508082111561437657600080fd5b5061438389828a016140cc565b979a9699509497509295939492505050565b60008083601f8401126143a757600080fd5b50813567ffffffffffffffff8111156143bf57600080fd5b60208301915083602082850101111561411157600080fd5b6000806000806000608086880312156143ef57600080fd5b85356143fa8161407e565b9450602086013561440a8161407e565b935060408601359250606086013567ffffffffffffffff81111561442d57600080fd5b6142cd88828901614395565b600080600080600080600060e0888a03121561445457600080fd5b873561445f8161407e565b9650602088013561446f8161407e565b95506040880135945060608801359350608088013560ff8116811461449357600080fd5b9699959850939692959460a0840135945060c09093013592915050565b600080604083850312156144c357600080fd5b82356144ce8161407e565b915060208301356141ea8161407e565b600080602083850312156144f157600080fd5b823567ffffffffffffffff81111561450857600080fd5b61451485828601614395565b90969095509350505050565b6000806000806060858703121561453657600080fd5b84356145418161407e565b935060208501359250604085013567ffffffffffffffff81111561456457600080fd5b61417887828801614395565b7f4e487b7100000000000000000000000000000000000000000000000000000000600052603260045260246000fd5b81810381811115610627577f4e487b7100000000000000000000000000000000000000000000000000000000600052601160045260246000fd5b7f4e487b7100000000000000000000000000000000000000000000000000000000600052604160045260246000fd5b600181811c9082168061461c57607f821691505b602082108103614655577f4e487b7100000000000000000000000000000000000000000000000000000000600052602260045260246000fd5b50919050565b601f82111561070e57600081815260208120601f850160051c810160208610156146825750805b601f850160051c820191505b81811015610f045782815560010161468e565b815167ffffffffffffffff8111156146bb576146bb6145d9565b6146cf816146c98454614608565b8461465b565b602080601f83116001811461472257600084156146ec5750858301515b7fffffffffffffffffffffffffffffffffffffffffffffffffffffffffffffffff600386901b1c1916600185901b178555610f04565b6000858152602081207fffffffffffffffffffffffffffffffffffffffffffffffffffffffffffffffe08616915b8281101561476f57888601518255948401946001909101908401614750565b50858210156147ab57878501517fffffffffffffffffffffffffffffffffffffffffffffffffffffffffffffffff600388901b60f8161c191681555b5050505050600190811b01905550565b7f416363657373436f6e74726f6c3a206d697373696e67202700000000000000008152600082516147f3816018850160208701613ffd565b7f2720726f6c6500000000000000000000000000000000000000000000000000006018939091019283015250601e01919050565b67ffffffffffffffff83111561483f5761483f6145d9565b6148538361484d8354614608565b8361465b565b6000601f8411600181146148a5576000851561486f5750838201355b7fffffffffffffffffffffffffffffffffffffffffffffffffffffffffffffffff600387901b1c1916600186901b17835561155a565b6000838152602090207fffffffffffffffffffffffffffffffffffffffffffffffffffffffffffffffe0861690835b828110156148f457868501358255602094850194600190920191016148d4565b508682101561492f577fffffffffffffffffffffffffffffffffffffffffffffffffffffffffffffffff60f88860031b161c19848701351681555b505060018560011b0183555050505050565b60006020828403121561495357600080fd5b815180151581146106d357600080fd5b600073ffffffffffffffffffffffffffffffffffffffff8087168352808616602084015250836040830152608060608301526149a26080830184614021565b9695505050505050565b6000602082840312156149be57600080fd5b81516106d381613fb2565b600080858511156149d957600080fd5b838611156149e657600080fd5b5050820193919092039150565b60008251614a05818460208701613ffd565b919091019291505056fea26469706673582212200d2c2682e0ac8515ee48fae3e063aa63a1dec1decd6951bac7aee6d44a3f1fdc64736f6c63430008110033",
  "linkReferences": {},
  "deployedLinkReferences": {}
}