{
  "_format": "hh-sol-artifact-1",
  "contractName": "REVVRacingNFTMock",
  "sourceName": "contracts/mocks/token/ERC721/REVVRacingNFTMock.sol",
  "abi": [
    {
      "inputs": [
        {
          "internalType": "contract IForwarderRegistry",
          "name": "forwarderRegistry",
          "type": "address"
        }
      ],
      "stateMutability": "nonpayable",
      "type": "constructor"
    },
    {
      "anonymous": false,
      "inputs": [
        {
          "indexed": true,
          "internalType": "address",
          "name": "owner",
          "type": "address"
        },
        {
          "indexed": true,
          "internalType": "address",
          "name": "approved",
          "type": "address"
        },
        {
          "indexed": true,
          "internalType": "uint256",
          "name": "tokenId",
          "type": "uint256"
        }
      ],
      "name": "Approval",
      "type": "event"
    },
    {
      "anonymous": false,
      "inputs": [
        {
          "indexed": true,
          "internalType": "address",
          "name": "owner",
          "type": "address"
        },
        {
          "indexed": true,
          "internalType": "address",
          "name": "operator",
          "type": "address"
        },
        {
          "indexed": false,
          "internalType": "bool",
          "name": "approved",
          "type": "bool"
        }
      ],
      "name": "ApprovalForAll",
      "type": "event"
    },
    {
      "anonymous": false,
      "inputs": [
        {
          "indexed": false,
          "internalType": "string",
          "name": "baseMetadataURI",
          "type": "string"
        }
      ],
      "name": "BaseMetadataURISet",
      "type": "event"
    },
    {
      "anonymous": false,
      "inputs": [
        {
          "indexed": true,
          "internalType": "address",
          "name": "previousOwner",
          "type": "address"
        },
        {
          "indexed": true,
          "internalType": "address",
          "name": "newOwner",
          "type": "address"
        }
      ],
      "name": "OwnershipTransferred",
      "type": "event"
    },
    {
      "anonymous": false,
      "inputs": [
        {
          "indexed": false,
          "internalType": "bytes32",
          "name": "role",
          "type": "bytes32"
        },
        {
          "indexed": false,
          "internalType": "address",
          "name": "account",
          "type": "address"
        },
        {
          "indexed": false,
          "internalType": "address",
          "name": "operator",
          "type": "address"
        }
      ],
      "name": "RoleGranted",
      "type": "event"
    },
    {
      "anonymous": false,
      "inputs": [
        {
          "indexed": false,
          "internalType": "bytes32",
          "name": "role",
          "type": "bytes32"
        },
        {
          "indexed": false,
          "internalType": "address",
          "name": "account",
          "type": "address"
        },
        {
          "indexed": false,
          "internalType": "address",
          "name": "operator",
          "type": "address"
        }
      ],
      "name": "RoleRevoked",
      "type": "event"
    },
    {
      "anonymous": false,
      "inputs": [
        {
          "indexed": true,
          "internalType": "address",
          "name": "from",
          "type": "address"
        },
        {
          "indexed": true,
          "internalType": "address",
          "name": "to",
          "type": "address"
        },
        {
          "indexed": true,
          "internalType": "uint256",
          "name": "tokenId",
          "type": "uint256"
        }
      ],
      "name": "Transfer",
      "type": "event"
    },
    {
      "inputs": [],
      "name": "MINTER_ROLE",
      "outputs": [
        {
          "internalType": "bytes32",
          "name": "",
          "type": "bytes32"
        }
      ],
      "stateMutability": "view",
      "type": "function"
    },
    {
      "inputs": [],
      "name": "__msgData",
      "outputs": [
        {
          "internalType": "bytes",
          "name": "",
          "type": "bytes"
        }
      ],
      "stateMutability": "view",
      "type": "function"
    },
    {
      "inputs": [
        {
          "internalType": "address",
          "name": "to",
          "type": "address"
        },
        {
          "internalType": "uint256",
          "name": "tokenId",
          "type": "uint256"
        }
      ],
      "name": "approve",
      "outputs": [],
      "stateMutability": "nonpayable",
      "type": "function"
    },
    {
      "inputs": [
        {
          "internalType": "address",
          "name": "owner",
          "type": "address"
        }
      ],
      "name": "balanceOf",
      "outputs": [
        {
          "internalType": "uint256",
          "name": "balance",
          "type": "uint256"
        }
      ],
      "stateMutability": "view",
      "type": "function"
    },
    {
      "inputs": [],
      "name": "baseMetadataURI",
      "outputs": [
        {
          "internalType": "string",
          "name": "baseURI",
          "type": "string"
        }
      ],
      "stateMutability": "view",
      "type": "function"
    },
    {
      "inputs": [
        {
          "internalType": "address",
          "name": "from",
          "type": "address"
        },
        {
          "internalType": "uint256[]",
          "name": "tokenIds",
          "type": "uint256[]"
        }
      ],
      "name": "batchBurnFrom",
      "outputs": [],
      "stateMutability": "nonpayable",
      "type": "function"
    },
    {
      "inputs": [
        {
          "internalType": "address",
          "name": "to",
          "type": "address"
        },
        {
          "internalType": "uint256[]",
          "name": "tokenIds",
          "type": "uint256[]"
        }
      ],
      "name": "batchMint",
      "outputs": [],
      "stateMutability": "nonpayable",
      "type": "function"
    },
    {
      "inputs": [
        {
          "internalType": "address",
          "name": "from",
          "type": "address"
        },
        {
          "internalType": "address",
          "name": "to",
          "type": "address"
        },
        {
          "internalType": "uint256[]",
          "name": "tokenIds",
          "type": "uint256[]"
        }
      ],
      "name": "batchTransferFrom",
      "outputs": [],
      "stateMutability": "nonpayable",
      "type": "function"
    },
    {
      "inputs": [
        {
          "internalType": "address",
          "name": "from",
          "type": "address"
        },
        {
          "internalType": "uint256",
          "name": "tokenId",
          "type": "uint256"
        }
      ],
      "name": "burnFrom",
      "outputs": [],
      "stateMutability": "nonpayable",
      "type": "function"
    },
    {
      "inputs": [
        {
          "internalType": "address[]",
          "name": "recipients",
          "type": "address[]"
        },
        {
          "internalType": "uint256[]",
          "name": "tokenIds",
          "type": "uint256[]"
        }
      ],
      "name": "deliver",
      "outputs": [],
      "stateMutability": "nonpayable",
      "type": "function"
    },
    {
      "inputs": [],
      "name": "forwarderRegistry",
      "outputs": [
        {
          "internalType": "contract IForwarderRegistry",
          "name": "",
          "type": "address"
        }
      ],
      "stateMutability": "view",
      "type": "function"
    },
    {
      "inputs": [
        {
          "internalType": "uint256",
          "name": "tokenId",
          "type": "uint256"
        }
      ],
      "name": "getApproved",
      "outputs": [
        {
          "internalType": "address",
          "name": "approved",
          "type": "address"
        }
      ],
      "stateMutability": "view",
      "type": "function"
    },
    {
      "inputs": [
        {
          "internalType": "bytes32",
          "name": "role",
          "type": "bytes32"
        },
        {
          "internalType": "address",
          "name": "account",
          "type": "address"
        }
      ],
      "name": "grantRole",
      "outputs": [],
      "stateMutability": "nonpayable",
      "type": "function"
    },
    {
      "inputs": [
        {
          "internalType": "bytes32",
          "name": "role",
          "type": "bytes32"
        },
        {
          "internalType": "address",
          "name": "account",
          "type": "address"
        }
      ],
      "name": "hasRole",
      "outputs": [
        {
          "internalType": "bool",
          "name": "",
          "type": "bool"
        }
      ],
      "stateMutability": "view",
      "type": "function"
    },
    {
      "inputs": [
        {
          "internalType": "address",
          "name": "owner",
          "type": "address"
        },
        {
          "internalType": "address",
          "name": "operator",
          "type": "address"
        }
      ],
      "name": "isApprovedForAll",
      "outputs": [
        {
          "internalType": "bool",
          "name": "approvedForAll",
          "type": "bool"
        }
      ],
      "stateMutability": "view",
      "type": "function"
    },
    {
      "inputs": [
        {
          "internalType": "address",
          "name": "forwarder",
          "type": "address"
        }
      ],
      "name": "isTrustedForwarder",
      "outputs": [
        {
          "internalType": "bool",
          "name": "",
          "type": "bool"
        }
      ],
      "stateMutability": "view",
      "type": "function"
    },
    {
      "inputs": [
        {
          "internalType": "address",
          "name": "to",
          "type": "address"
        },
        {
          "internalType": "uint256",
          "name": "tokenId",
          "type": "uint256"
        }
      ],
      "name": "mint",
      "outputs": [],
      "stateMutability": "nonpayable",
      "type": "function"
    },
    {
      "inputs": [],
      "name": "name",
      "outputs": [
        {
          "internalType": "string",
          "name": "tokenName",
          "type": "string"
        }
      ],
      "stateMutability": "view",
      "type": "function"
    },
    {
      "inputs": [],
      "name": "owner",
      "outputs": [
        {
          "internalType": "address",
          "name": "",
          "type": "address"
        }
      ],
      "stateMutability": "view",
      "type": "function"
    },
    {
      "inputs": [
        {
          "internalType": "uint256",
          "name": "tokenId",
          "type": "uint256"
        }
      ],
      "name": "ownerOf",
      "outputs": [
        {
          "internalType": "address",
          "name": "tokenOwner",
          "type": "address"
        }
      ],
      "stateMutability": "view",
      "type": "function"
    },
    {
      "inputs": [
        {
          "internalType": "address[]",
          "name": "accounts",
          "type": "address[]"
        },
        {
          "internalType": "contract IERC20[]",
          "name": "tokens",
          "type": "address[]"
        },
        {
          "internalType": "uint256[]",
          "name": "amounts",
          "type": "uint256[]"
        }
      ],
      "name": "recoverERC20s",
      "outputs": [],
      "stateMutability": "nonpayable",
      "type": "function"
    },
    {
      "inputs": [
        {
          "internalType": "address[]",
          "name": "accounts",
          "type": "address[]"
        },
        {
          "internalType": "contract IERC721[]",
          "name": "contracts",
          "type": "address[]"
        },
        {
          "internalType": "uint256[]",
          "name": "tokenIds",
          "type": "uint256[]"
        }
      ],
      "name": "recoverERC721s",
      "outputs": [],
      "stateMutability": "nonpayable",
      "type": "function"
    },
    {
      "inputs": [
        {
          "internalType": "address payable[]",
          "name": "accounts",
          "type": "address[]"
        },
        {
          "internalType": "uint256[]",
          "name": "amounts",
          "type": "uint256[]"
        }
      ],
      "name": "recoverETH",
      "outputs": [],
      "stateMutability": "nonpayable",
      "type": "function"
    },
    {
      "inputs": [
        {
          "internalType": "bytes32",
          "name": "role",
          "type": "bytes32"
        }
      ],
      "name": "renounceRole",
      "outputs": [],
      "stateMutability": "nonpayable",
      "type": "function"
    },
    {
      "inputs": [
        {
          "internalType": "bytes32",
          "name": "role",
          "type": "bytes32"
        },
        {
          "internalType": "address",
          "name": "account",
          "type": "address"
        }
      ],
      "name": "revokeRole",
      "outputs": [],
      "stateMutability": "nonpayable",
      "type": "function"
    },
    {
      "inputs": [
        {
          "internalType": "address",
          "name": "to",
          "type": "address"
        },
        {
          "internalType": "uint256",
          "name": "tokenId",
          "type": "uint256"
        },
        {
          "internalType": "bytes",
          "name": "data",
          "type": "bytes"
        }
      ],
      "name": "safeMint",
      "outputs": [],
      "stateMutability": "nonpayable",
      "type": "function"
    },
    {
      "inputs": [
        {
          "internalType": "address",
          "name": "from",
          "type": "address"
        },
        {
          "internalType": "address",
          "name": "to",
          "type": "address"
        },
        {
          "internalType": "uint256",
          "name": "tokenId",
          "type": "uint256"
        }
      ],
      "name": "safeTransferFrom",
      "outputs": [],
      "stateMutability": "nonpayable",
      "type": "function"
    },
    {
      "inputs": [
        {
          "internalType": "address",
          "name": "from",
          "type": "address"
        },
        {
          "internalType": "address",
          "name": "to",
          "type": "address"
        },
        {
          "internalType": "uint256",
          "name": "tokenId",
          "type": "uint256"
        },
        {
          "internalType": "bytes",
          "name": "data",
          "type": "bytes"
        }
      ],
      "name": "safeTransferFrom",
      "outputs": [],
      "stateMutability": "nonpayable",
      "type": "function"
    },
    {
      "inputs": [
        {
          "internalType": "address",
          "name": "operator",
          "type": "address"
        },
        {
          "internalType": "bool",
          "name": "approved",
          "type": "bool"
        }
      ],
      "name": "setApprovalForAll",
      "outputs": [],
      "stateMutability": "nonpayable",
      "type": "function"
    },
    {
      "inputs": [
        {
          "internalType": "string",
          "name": "baseURI",
          "type": "string"
        }
      ],
      "name": "setBaseMetadataURI",
      "outputs": [],
      "stateMutability": "nonpayable",
      "type": "function"
    },
    {
      "inputs": [
        {
          "internalType": "bytes4",
          "name": "interfaceId",
          "type": "bytes4"
        }
      ],
      "name": "supportsInterface",
      "outputs": [
        {
          "internalType": "bool",
          "name": "",
          "type": "bool"
        }
      ],
      "stateMutability": "view",
      "type": "function"
    },
    {
      "inputs": [],
      "name": "symbol",
      "outputs": [
        {
          "internalType": "string",
          "name": "tokenSymbol",
          "type": "string"
        }
      ],
      "stateMutability": "view",
      "type": "function"
    },
    {
      "inputs": [
        {
          "internalType": "uint256",
          "name": "tokenId",
          "type": "uint256"
        }
      ],
      "name": "tokenURI",
      "outputs": [
        {
          "internalType": "string",
          "name": "uri",
          "type": "string"
        }
      ],
      "stateMutability": "view",
      "type": "function"
    },
    {
      "inputs": [
        {
          "internalType": "address",
          "name": "from",
          "type": "address"
        },
        {
          "internalType": "address",
          "name": "to",
          "type": "address"
        },
        {
          "internalType": "uint256",
          "name": "tokenId",
          "type": "uint256"
        }
      ],
      "name": "transferFrom",
      "outputs": [],
      "stateMutability": "nonpayable",
      "type": "function"
    },
    {
      "inputs": [
        {
          "internalType": "address",
          "name": "newOwner",
          "type": "address"
        }
      ],
      "name": "transferOwnership",
      "outputs": [],
      "stateMutability": "nonpayable",
      "type": "function"
    }
  ],
  "bytecode": "0x60a06040523480156200001157600080fd5b5060405162004d6b38038062004d6b83398101604081905262000034916200040c565b8080806040518060400160405280600f81526020016e1491559588149858da5b99c8139195608a1b81525060405180604001604052806002815260200161292960f11b81525033620000906200015b60201b62000e621760201c565b620000a56200019560201b62000e991760201c565b620000d381620000bf620001b860201b62000ec71760201c565b620001ee60201b62000ef51790919060201c565b50620001048282620000ef6200026c60201b62000fab1760201c565b6200029c60201b62000fd9179092919060201c565b50506200011b620002e360201b620010221760201c565b620001306200030660201b620010501760201c565b620001456200032960201b6200107e1760201c565b6001600160a01b031660805250620005d0915050565b620001936380ac58cd60e01b60016200017e6200034c60201b620010a81760201c565b6200037c60201b620010d6179092919060201c565b565b6200019363f3993d1160e01b60016200017e6200034c60201b620010a81760201c565b600080620001e860017fc9ed16f33ab3a66c84bfd83099ccb2a8845871e2e1c1928f63797152f0fd54cd6200043e565b92915050565b6001600160a01b03811615620002455781546001600160a01b0319166001600160a01b03821690811783556040516000907f8be0079c531659141344cd1fd0a4f28419497f9722a3daafe3b4186f6b6457e0908290a35b620002686307f5828d60e41b60016200017e6200034c60201b620010a81760201c565b5050565b600080620001e860017f9c4269c0f9f430d98876ffe9767fbf3f3232ea91a549beb549e5329532520eb36200043e565b82620002a9838262000504565b5060018301620002ba828262000504565b50620002de635b5e139f60e01b60016200017e6200034c60201b620010a81760201c565b505050565b62000193638b8b4ef560e01b60016200017e6200034c60201b620010a81760201c565b62000193638e773e1360e01b60016200017e6200034c60201b620010a81760201c565b62000193634ed2f41960e11b60016200017e6200034c60201b620010a81760201c565b600080620001e860017fca9d3e17f264b0f3984e2634e94adb37fa3e6a8103f06aeae6fa59e21c769f5e6200043e565b600160e01b6001600160e01b0319831601620003de5760405162461bcd60e51b815260206004820152601f60248201527f496e74657266616365446574656374696f6e3a2077726f6e672076616c756500604482015260640160405180910390fd5b6001600160e01b03199190911660009081526020929092526040909120805460ff1916911515919091179055565b6000602082840312156200041f57600080fd5b81516001600160a01b03811681146200043757600080fd5b9392505050565b81810381811115620001e857634e487b7160e01b600052601160045260246000fd5b634e487b7160e01b600052604160045260246000fd5b600181811c908216806200048b57607f821691505b602082108103620004ac57634e487b7160e01b600052602260045260246000fd5b50919050565b601f821115620002de57600081815260208120601f850160051c81016020861015620004db5750805b601f850160051c820191505b81811015620004fc57828155600101620004e7565b505050505050565b81516001600160401b0381111562000520576200052062000460565b620005388162000531845462000476565b84620004b2565b602080601f831160018114620005705760008415620005575750858301515b600019600386901b1c1916600185901b178555620004fc565b600085815260208120601f198616915b82811015620005a15788860151825594840194600190910190840162000580565b5085821015620005c05787850151600019600388901b60f8161c191681555b5050505050600190811b01905550565b60805161475c6200060f600039600081816102e50152818161037b0152818161319901528181613221015281816133490152613387015261475c6000f3fe608060405234801561001057600080fd5b50600436106102415760003560e01c80637e518ec811610145578063c3666c36116100bd578063e985e9c51161008c578063f2fde38b11610071578063f2fde38b14610535578063f3993d1114610548578063f7ba94bd1461055b57600080fd5b8063e985e9c51461050f578063f24729651461052257600080fd5b8063c3666c36146104af578063c87b56dd146104c2578063d5391393146104d5578063d547741f146104fc57600080fd5b806391d14854116101145780639da5e832116100f95780639da5e83214610476578063a22cb46514610489578063b88d4fde1461049c57600080fd5b806391d148541461045b57806395d89b411461046e57600080fd5b80637e518ec81461041a5780638832e6e31461042d5780638bb9c5bf146104405780638da5cb5b1461045357600080fd5b806340c10f19116101d85780635b2bd79e116101a757806370a082311161018c57806370a08231146103d357806373c8a958146103f457806379cc67901461040757600080fd5b80635b2bd79e146103b85780636352211e146103c057600080fd5b806340c10f191461033257806342842e0e146103455780634684d7e914610358578063572b6c051461036b57600080fd5b806323b872dd1161021457806323b872dd146102d05780632b4c9f16146102e35780632f2ff15d1461030957806331e66e1e1461031c57600080fd5b806301ffc9a71461024657806306fdde031461026e578063081812fc14610283578063095ea7b3146102bb575b600080fd5b610259610254366004613c46565b61056e565b60405190151581526020015b60405180910390f35b610276610588565b6040516102659190613cd1565b610296610291366004613ce4565b61059f565b60405173ffffffffffffffffffffffffffffffffffffffff9091168152602001610265565b6102ce6102c9366004613d1f565b6105b3565b005b6102ce6102de366004613d4b565b6105d4565b7f0000000000000000000000000000000000000000000000000000000000000000610296565b6102ce610317366004613d8c565b6105f8565b61032461062c565b604051610265929190613e05565b6102ce610340366004613d1f565b61063f565b6102ce610353366004613d4b565b61068e565b6102ce610366366004613e65565b6106ad565b610259610379366004613eba565b7f000000000000000000000000000000000000000000000000000000000000000073ffffffffffffffffffffffffffffffffffffffff90811691161490565b610276610721565b6102966103ce366004613ce4565b61072e565b6103e66103e1366004613eba565b610742565b604051908152602001610265565b6102ce610402366004613ed7565b610756565b6102ce610415366004613d1f565b610886565b6102ce610428366004613fb3565b6108a3565b6102ce61043b366004613ff5565b6108c2565b6102ce61044e366004613ce4565b61094a565b610296610968565b610259610469366004613d8c565b61098f565b6102766109da565b6102ce610484366004614051565b6109ec565b6102ce6104973660046140bf565b610a90565b6102ce6104aa3660046140ed565b610aad565b6102ce6104bd366004613ed7565b610ad7565b6102766104d0366004613ce4565b610c7c565b6103e67f6d696e746572000000000000000000000000000000000000000000000000000081565b6102ce61050a366004613d8c565b610c9d565b61025961051d366004614160565b610ccb565b6102ce610530366004613e65565b610d19565b6102ce610543366004613eba565b610d38565b6102ce61055636600461418e565b610d53565b6102ce610569366004614051565b610d74565b60006105828261057c6110a8565b906111e2565b92915050565b606061059a610595610fab565b6112bc565b905090565b6000610582826105ad611352565b90611380565b6105d06105be611461565b83836105c8611352565b92919061146b565b5050565b6105f36105df611461565b8484846105ea611352565b93929190611734565b505050565b6000610602611461565b905061061681610610610ec7565b90611a89565b6105f3838383610624611b0c565b929190611b3a565b366000610637611c10565b915091509091565b61067a7f6d696e746572000000000000000000000000000000000000000000000000000061066b611461565b610673611b0c565b9190611c1b565b6105d08282610687611352565b9190611cc7565b6105f3610699611461565b8484846106a4611352565b93929190611e3e565b6106d97f6d696e746572000000000000000000000000000000000000000000000000000061066b611461565b6105f38383838080602002602001604051908101604052809392919081815260200183836020028082843760009201919091525061071a9250611352915050565b9190611e84565b606061059a610595612058565b60006105828261073c611352565b90612086565b600061058282610750611352565b9061211c565b610769610761611461565b610610610ec7565b84838114801561077857508082145b6107e3576040517f08c379a000000000000000000000000000000000000000000000000000000000815260206004820152601d60248201527f5265636f766572793a20696e636f6e73697374656e742061727261797300000060448201526064015b60405180910390fd5b60005b81811461087c57610874888883818110610802576108026141e7565b90506020020160208101906108179190613eba565b858584818110610829576108296141e7565b90506020020135888885818110610842576108426141e7565b90506020020160208101906108579190613eba565b73ffffffffffffffffffffffffffffffffffffffff1691906121c8565b6001016107e6565b5050505050505050565b6105d0610891611461565b838361089b611352565b929190612255565b6108ae610761611461565b6105d082826108bb612058565b9190612469565b6108ee7f6d696e746572000000000000000000000000000000000000000000000000000061066b611461565b6109446108f9611461565b858585858080601f01602080910402602001604051908101604052809392919081815260200183838082843760009201919091525061093b9250611352915050565b939291906124b4565b50505050565b610965610955611461565b8261095e611b0c565b91906124ea565b50565b600061059a610975610ec7565b5473ffffffffffffffffffffffffffffffffffffffff1690565b60006109d3838361099e611b0c565b60009283526020908152604080842073ffffffffffffffffffffffffffffffffffffffff909316845291905290205460ff1690565b9392505050565b606061059a6109e7610fab565b612586565b610a187f6d696e746572000000000000000000000000000000000000000000000000000061066b611461565b61094484848080602002602001604051908101604052809392919081815260200183836020028082843760009201919091525050604080516020808802828101820190935287825290935087925086918291850190849080828437600092019190915250610a899250611352915050565b9190612597565b6105d0610a9b611461565b8383610aa5611352565b92919061265c565b610ad0610ab8611461565b8686868686610ac5611352565b95949392919061278c565b5050505050565b610ae2610761611461565b848381148015610af157508082145b610b57576040517f08c379a000000000000000000000000000000000000000000000000000000000815260206004820152601d60248201527f5265636f766572793a20696e636f6e73697374656e742061727261797300000060448201526064016107da565b60005b81811461087c57858582818110610b7357610b736141e7565b9050602002016020810190610b889190613eba565b73ffffffffffffffffffffffffffffffffffffffff166323b872dd308a8a85818110610bb657610bb66141e7565b9050602002016020810190610bcb9190613eba565b878786818110610bdd57610bdd6141e7565b6040517fffffffff0000000000000000000000000000000000000000000000000000000060e088901b16815273ffffffffffffffffffffffffffffffffffffffff958616600482015294909316602485015250602090910201356044820152606401600060405180830381600087803b158015610c5957600080fd5b505af1158015610c6d573d6000803e3d6000fd5b50505050806001019050610b5a565b6060610c8a8261073c611352565b5061058282610c97612058565b90612802565b6000610ca7611461565b9050610cb581610610610ec7565b6105f3838383610cc3611b0c565b929190612836565b60006109d38383610cda611352565b919073ffffffffffffffffffffffffffffffffffffffff9182166000908152600393909301602090815260408085209290931684525290205460ff1690565b6105f3610d24611461565b848484610d2f611352565b93929190612900565b610965610d43611461565b82610d4c610ec7565b9190612b55565b610944610d5e611461565b85858585610d6a611352565b9493929190612c81565b610d7f610761611461565b82818114610de9576040517f08c379a000000000000000000000000000000000000000000000000000000000815260206004820152601d60248201527f5265636f766572793a20696e636f6e73697374656e742061727261797300000060448201526064016107da565b60005b818114610e5a57610e52848483818110610e0857610e086141e7565b90506020020135878784818110610e2157610e216141e7565b9050602002016020810190610e369190613eba565b73ffffffffffffffffffffffffffffffffffffffff1690612ffc565b600101610dec565b505050505050565b610e977f80ac58cd000000000000000000000000000000000000000000000000000000006001610e906110a8565b91906110d6565b565b610e977ff3993d11000000000000000000000000000000000000000000000000000000006001610e906110a8565b60008061058260017fc9ed16f33ab3a66c84bfd83099ccb2a8845871e2e1c1928f63797152f0fd54cd614216565b73ffffffffffffffffffffffffffffffffffffffff811615610f7d5781547fffffffffffffffffffffffff00000000000000000000000000000000000000001673ffffffffffffffffffffffffffffffffffffffff821690811783556040516000907f8be0079c531659141344cd1fd0a4f28419497f9722a3daafe3b4186f6b6457e0908290a35b6105d07f7f5828d0000000000000000000000000000000000000000000000000000000006001610e906110a8565b60008061058260017f9c4269c0f9f430d98876ffe9767fbf3f3232ea91a549beb549e5329532520eb3614216565b82610fe48382614318565b5060018301610ff38282614318565b506105f37f5b5e139f000000000000000000000000000000000000000000000000000000006001610e906110a8565b610e977f8b8b4ef5000000000000000000000000000000000000000000000000000000006001610e906110a8565b610e977f8e773e13000000000000000000000000000000000000000000000000000000006001610e906110a8565b610e977f9da5e832000000000000000000000000000000000000000000000000000000006001610e905b60008061058260017fca9d3e17f264b0f3984e2634e94adb37fa3e6a8103f06aeae6fa59e21c769f5e614216565b7c01000000000000000000000000000000000000000000000000000000007fffffffff0000000000000000000000000000000000000000000000000000000083160161117e576040517f08c379a000000000000000000000000000000000000000000000000000000000815260206004820152601f60248201527f496e74657266616365446574656374696f6e3a2077726f6e672076616c75650060448201526064016107da565b7fffffffff00000000000000000000000000000000000000000000000000000000919091166000908152602092909252604090912080547fffffffffffffffffffffffffffffffffffffffffffffffffffffffffffffff0016911515919091179055565b60007c01000000000000000000000000000000000000000000000000000000007fffffffff0000000000000000000000000000000000000000000000000000000083160161123257506000610582565b7ffe003659000000000000000000000000000000000000000000000000000000007fffffffff0000000000000000000000000000000000000000000000000000000083160161128357506001610582565b507fffffffff00000000000000000000000000000000000000000000000000000000166000908152602091909152604090205460ff1690565b60608160000180546112cd9061427f565b80601f01602080910402602001604051908101604052809291908181526020018280546112f99061427f565b80156113465780601f1061131b57610100808354040283529160200191611346565b820191906000526020600020905b81548152906001019060200180831161132957829003601f168201915b50505050509050919050565b60008061058260017fddf3ee18ae6d688373c219468f8be446e7ae82215f4779d821c7ea5e8c13c0c1614216565b60008181526020839052604081205473ffffffffffffffffffffffffffffffffffffffff811661140c576040517f08c379a000000000000000000000000000000000000000000000000000000000815260206004820152601a60248201527f4552433732313a206e6f6e2d6578697374696e6720746f6b656e00000000000060448201526064016107da565b74010000000000000000000000000000000000000000811615611457575050600081815260028301602052604090205473ffffffffffffffffffffffffffffffffffffffff16610582565b6000915050610582565b600061059a613156565b60008181526020859052604090205473ffffffffffffffffffffffffffffffffffffffff81166114f7576040517f08c379a000000000000000000000000000000000000000000000000000000000815260206004820152601a60248201527f4552433732313a206e6f6e2d6578697374696e6720746f6b656e00000000000060448201526064016107da565b8073ffffffffffffffffffffffffffffffffffffffff8082169085160361157a576040517f08c379a000000000000000000000000000000000000000000000000000000000815260206004820152601560248201527f4552433732313a2073656c662d617070726f76616c000000000000000000000060448201526064016107da565b61158586828761329d565b6115eb576040517f08c379a000000000000000000000000000000000000000000000000000000000815260206004820152601b60248201527f4552433732313a206e6f6e2d617070726f7665642073656e646572000000000060448201526064016107da565b73ffffffffffffffffffffffffffffffffffffffff8416611650577401000000000000000000000000000000000000000082161561164b57600083815260208790526040902073ffffffffffffffffffffffffffffffffffffffff821690555b6116d1565b7401000000000000000000000000000000000000000082178083146116815760008481526020889052604090208190555b506000838152600287016020526040902080547fffffffffffffffffffffffff00000000000000000000000000000000000000001673ffffffffffffffffffffffffffffffffffffffff86161790555b828473ffffffffffffffffffffffffffffffffffffffff168273ffffffffffffffffffffffffffffffffffffffff167f8c5be1e5ebec7d5bd14f71427d1e84f3dd0314c0f7b2291e5b200ac8c7c3b92560405160405180910390a4505050505050565b73ffffffffffffffffffffffffffffffffffffffff82166117b1576040517f08c379a000000000000000000000000000000000000000000000000000000000815260206004820152601e60248201527f4552433732313a207472616e7366657220746f2061646472657373283029000060448201526064016107da565b60008181526020869052604090205473ffffffffffffffffffffffffffffffffffffffff811661183d576040517f08c379a000000000000000000000000000000000000000000000000000000000815260206004820152601a60248201527f4552433732313a206e6f6e2d6578697374696e6720746f6b656e00000000000060448201526064016107da565b73ffffffffffffffffffffffffffffffffffffffff84168173ffffffffffffffffffffffffffffffffffffffff16146118d2576040517f08c379a000000000000000000000000000000000000000000000000000000000815260206004820152601760248201527f4552433732313a206e6f6e2d6f776e656420746f6b656e00000000000000000060448201526064016107da565b6118dd86858761329d565b611995577401000000000000000000000000000000000000000081161515801561192f5750600082815260028701602052604090205473ffffffffffffffffffffffffffffffffffffffff8681169116145b611995576040517f08c379a000000000000000000000000000000000000000000000000000000000815260206004820152601b60248201527f4552433732313a206e6f6e2d617070726f7665642073656e646572000000000060448201526064016107da565b600082815260208790526040902073ffffffffffffffffffffffffffffffffffffffff80851691829055851614611a265773ffffffffffffffffffffffffffffffffffffffff80851660009081526001808901602052604080832080547fffffffffffffffffffffffffffffffffffffffffffffffffffffffffffffffff0190559286168252919020805490910190555b818373ffffffffffffffffffffffffffffffffffffffff168573ffffffffffffffffffffffffffffffffffffffff167fddf252ad1be2c89b69c2b068fc378daa952ba7f163c4a11628f55a4df523b3ef60405160405180910390a4505050505050565b815473ffffffffffffffffffffffffffffffffffffffff8281169116146105d0576040517f08c379a000000000000000000000000000000000000000000000000000000000815260206004820152601860248201527f4f776e6572736869703a206e6f7420746865206f776e6572000000000000000060448201526064016107da565b60008061058260017fc8827d3282af6f37b64c3e9e6f3ac9df286ab0bb0fccd6f8661bf19adb368b23614216565b60008381526020858152604080832073ffffffffffffffffffffffffffffffffffffffff8616845290915290205460ff166109445760008381526020858152604080832073ffffffffffffffffffffffffffffffffffffffff8681168086529184529382902080547fffffffffffffffffffffffffffffffffffffffffffffffffffffffffffffff00166001179055815187815292830152918316918101919091527f2f8788117e7eff1d82e926ec794901d17c78024a50270940304540a733656f0d906060015b60405180910390a150505050565b366000610637613312565b60008281526020848152604080832073ffffffffffffffffffffffffffffffffffffffff8516845290915290205460ff166105f357611c598261347c565b604051602001611c699190614432565b604080517fffffffffffffffffffffffffffffffffffffffffffffffffffffffffffffffe0818403018152908290527f08c379a00000000000000000000000000000000000000000000000000000000082526107da91600401613cd1565b73ffffffffffffffffffffffffffffffffffffffff8216611d44576040517f08c379a000000000000000000000000000000000000000000000000000000000815260206004820152601a60248201527f4552433732313a206d696e7420746f206164647265737328302900000000000060448201526064016107da565b60008181526020849052604090205473ffffffffffffffffffffffffffffffffffffffff1615611dd0576040517f08c379a000000000000000000000000000000000000000000000000000000000815260206004820152601660248201527f4552433732313a206578697374696e6720746f6b656e0000000000000000000060448201526064016107da565b60008181526020848152604080832073ffffffffffffffffffffffffffffffffffffffff86169081905580845260018088019093528184208054909301909255518392907fddf252ad1be2c89b69c2b068fc378daa952ba7f163c4a11628f55a4df523b3ef908290a4505050565b611e4b8585858585611734565b73ffffffffffffffffffffffffffffffffffffffff82163b15610ad057610ad0848484846040518060200160405280600081525061360e565b73ffffffffffffffffffffffffffffffffffffffff8216611f01576040517f08c379a000000000000000000000000000000000000000000000000000000000815260206004820152601a60248201527f4552433732313a206d696e7420746f206164647265737328302900000000000060448201526064016107da565b805160005b818114612023576000838281518110611f2157611f216141e7565b60200260200101519050611f5f8660000160008381526020019081526020016000205473ffffffffffffffffffffffffffffffffffffffff16151590565b15611fc6576040517f08c379a000000000000000000000000000000000000000000000000000000000815260206004820152601660248201527f4552433732313a206578697374696e6720746f6b656e0000000000000000000060448201526064016107da565b60008181526020879052604080822073ffffffffffffffffffffffffffffffffffffffff88169081905590518392907fddf252ad1be2c89b69c2b068fc378daa952ba7f163c4a11628f55a4df523b3ef908290a450600101611f06565b5073ffffffffffffffffffffffffffffffffffffffff9092166000908152600190930160205250604090912080549091019055565b60008061058260017fe94434e3c6b941c5d90218142fadcc69cb2e13723993540bfa1c131dd1d3475a614216565b60008181526020839052604081205473ffffffffffffffffffffffffffffffffffffffff8116612112576040517f08c379a000000000000000000000000000000000000000000000000000000000815260206004820152601a60248201527f4552433732313a206e6f6e2d6578697374696e6720746f6b656e00000000000060448201526064016107da565b805b949350505050565b600073ffffffffffffffffffffffffffffffffffffffff821661219b576040517f08c379a000000000000000000000000000000000000000000000000000000000815260206004820152601d60248201527f4552433732313a2062616c616e6365206f66206164647265737328302900000060448201526064016107da565b5073ffffffffffffffffffffffffffffffffffffffff166000908152600191909101602052604090205490565b6040805173ffffffffffffffffffffffffffffffffffffffff8416602482015260448082018490528251808303909101815260649091019091526020810180517bffffffffffffffffffffffffffffffffffffffffffffffffffffffff167fa9059cbb000000000000000000000000000000000000000000000000000000001790526105f3908490613734565b6000818152602085905260409020548073ffffffffffffffffffffffffffffffffffffffff168373ffffffffffffffffffffffffffffffffffffffff16146122f9576040517f08c379a000000000000000000000000000000000000000000000000000000000815260206004820152601760248201527f4552433732313a206e6f6e2d6f776e656420746f6b656e00000000000000000060448201526064016107da565b61230485848661329d565b6123bc57740100000000000000000000000000000000000000008116151580156123565750600082815260028601602052604090205473ffffffffffffffffffffffffffffffffffffffff8581169116145b6123bc576040517f08c379a000000000000000000000000000000000000000000000000000000000815260206004820152601b60248201527f4552433732313a206e6f6e2d617070726f7665642073656e646572000000000060448201526064016107da565b6000828152602086815260408083207fdead000000000000000000000000000000000000000000000000000000000000905573ffffffffffffffffffffffffffffffffffffffff86168084526001890190925280832080547fffffffffffffffffffffffffffffffffffffffffffffffffffffffffffffffff01905551849291907fddf252ad1be2c89b69c2b068fc378daa952ba7f163c4a11628f55a4df523b3ef908390a45050505050565b8261247582848361449e565b507f04b1dc5c136a3ce9fded8db0ce3d3366c58764ec3a8e4c2b9e52e4ddfe5ebbf782826040516124a7929190613e05565b60405180910390a1505050565b6124bf858484611cc7565b73ffffffffffffffffffffffffffffffffffffffff83163b15610ad057610ad084600085858561360e565b6124f5838284611c1b565b60008181526020848152604080832073ffffffffffffffffffffffffffffffffffffffff86168085529083529281902080547fffffffffffffffffffffffffffffffffffffffffffffffffffffffffffffff0016905580518481529182018390528101919091527ff6391f5c32d9c69d2a47ea670b442974b53935d1edc7fd64eb21e047a839171b906060016124a7565b60608160010180546112cd9061427f565b815181518114612603576040517f08c379a000000000000000000000000000000000000000000000000000000000815260206004820152601b60248201527f4552433732313a20696e636f6e73697374656e7420617272617973000000000060448201526064016107da565b60005b818114610ad057612654848281518110612622576126226141e7565b602002602001015184838151811061263c5761263c6141e7565b602002602001015187611cc79092919063ffffffff16565b600101612606565b8273ffffffffffffffffffffffffffffffffffffffff168273ffffffffffffffffffffffffffffffffffffffff16036126f1576040517f08c379a000000000000000000000000000000000000000000000000000000000815260206004820152601d60248201527f4552433732313a2073656c662d617070726f76616c20666f7220616c6c00000060448201526064016107da565b73ffffffffffffffffffffffffffffffffffffffff838116600081815260038701602090815260408083209487168084529482529182902080547fffffffffffffffffffffffffffffffffffffffffffffffffffffffffffffff001686151590811790915591519182527f17307eab39ab6107e8899845ad3d59bd9653f200f220920489ca2b5937696c31910160405180910390a350505050565b6127998787878787611734565b73ffffffffffffffffffffffffffffffffffffffff84163b156127f9576127f98686868686868080601f01602080910402602001604051908101604052809392919081815260200183838082843760009201919091525061360e92505050565b50505050505050565b60608261280e83613840565b60405160200161281f9291906145b8565b604051602081830303815290604052905092915050565b60008381526020858152604080832073ffffffffffffffffffffffffffffffffffffffff8616845290915290205460ff16156109445760008381526020858152604080832073ffffffffffffffffffffffffffffffffffffffff8681168086529184529382902080547fffffffffffffffffffffffffffffffffffffffffffffffffffffffffffffff00169055815187815292830152918316918101919091527ff6391f5c32d9c69d2a47ea670b442974b53935d1edc7fd64eb21e047a839171b90606001611c02565b600061290d86858761329d565b90508160005b818114612b1757600085858381811061292e5761292e6141e7565b602090810292909201356000818152928c905260409092205491925081905073ffffffffffffffffffffffffffffffffffffffff168873ffffffffffffffffffffffffffffffffffffffff16146129e1576040517f08c379a000000000000000000000000000000000000000000000000000000000815260206004820152601760248201527f4552433732313a206e6f6e2d6f776e656420746f6b656e00000000000000000060448201526064016107da565b84612a9a5774010000000000000000000000000000000000000000811615158015612a345750600082815260028b01602052604090205473ffffffffffffffffffffffffffffffffffffffff8a81169116145b612a9a576040517f08c379a000000000000000000000000000000000000000000000000000000000815260206004820152601b60248201527f4552433732313a206e6f6e2d617070726f7665642073656e646572000000000060448201526064016107da565b600082815260208b905260408082207fdead00000000000000000000000000000000000000000000000000000000000090555183919073ffffffffffffffffffffffffffffffffffffffff8b16907fddf252ad1be2c89b69c2b068fc378daa952ba7f163c4a11628f55a4df523b3ef908390a45050600101612913565b5080156127f95773ffffffffffffffffffffffffffffffffffffffff8516600090815260018801602052604090208054829003905550505050505050565b825473ffffffffffffffffffffffffffffffffffffffff9081169083168114612bda576040517f08c379a000000000000000000000000000000000000000000000000000000000815260206004820152601860248201527f4f776e6572736869703a206e6f7420746865206f776e6572000000000000000060448201526064016107da565b8173ffffffffffffffffffffffffffffffffffffffff168173ffffffffffffffffffffffffffffffffffffffff16146109445783547fffffffffffffffffffffffff00000000000000000000000000000000000000001673ffffffffffffffffffffffffffffffffffffffff8381169182178655604051908316907f8be0079c531659141344cd1fd0a4f28419497f9722a3daafe3b4186f6b6457e090600090a350505050565b73ffffffffffffffffffffffffffffffffffffffff8316612cfe576040517f08c379a000000000000000000000000000000000000000000000000000000000815260206004820152601e60248201527f4552433732313a207472616e7366657220746f2061646472657373283029000060448201526064016107da565b6000612d0b87868861329d565b90508160005b818114612f75576000858583818110612d2c57612d2c6141e7565b602090810292909201356000818152928d90526040909220549192505073ffffffffffffffffffffffffffffffffffffffff8116612dc6576040517f08c379a000000000000000000000000000000000000000000000000000000000815260206004820152601a60248201527f4552433732313a206e6f6e2d6578697374696e6720746f6b656e00000000000060448201526064016107da565b73ffffffffffffffffffffffffffffffffffffffff89168173ffffffffffffffffffffffffffffffffffffffff1614612e5b576040517f08c379a000000000000000000000000000000000000000000000000000000000815260206004820152601760248201527f4552433732313a206e6f6e2d6f776e656420746f6b656e00000000000000000060448201526064016107da565b84612f145774010000000000000000000000000000000000000000811615158015612eae5750600082815260028c01602052604090205473ffffffffffffffffffffffffffffffffffffffff8b81169116145b612f14576040517f08c379a000000000000000000000000000000000000000000000000000000000815260206004820152601b60248201527f4552433732313a206e6f6e2d617070726f7665642073656e646572000000000060448201526064016107da565b600082815260208c9052604080822073ffffffffffffffffffffffffffffffffffffffff808c16918290559151859391928d16917fddf252ad1be2c89b69c2b068fc378daa952ba7f163c4a11628f55a4df523b3ef91a45050600101612d11565b508473ffffffffffffffffffffffffffffffffffffffff168673ffffffffffffffffffffffffffffffffffffffff1614158015612fb157508015155b1561087c5773ffffffffffffffffffffffffffffffffffffffff808716600090815260018a016020526040808220805485900390559187168152208054820190555050505050505050565b80471015613066576040517f08c379a000000000000000000000000000000000000000000000000000000000815260206004820152601d60248201527f416464726573733a20696e73756666696369656e742062616c616e636500000060448201526064016107da565b60008273ffffffffffffffffffffffffffffffffffffffff168260405160006040518083038185875af1925050503d80600081146130c0576040519150601f19603f3d011682016040523d82523d6000602084013e6130c5565b606091505b50509050806105f3576040517f08c379a000000000000000000000000000000000000000000000000000000000815260206004820152603a60248201527f416464726573733a20756e61626c6520746f2073656e642076616c75652c207260448201527f6563697069656e74206d6179206861766520726576657274656400000000000060648201526084016107da565b6000333214806131665750601836105b1561317057503390565b7fffffffffffffffffffffffffffffffffffffffffffffffffffffffffffffffec36013560601c7f000000000000000000000000000000000000000000000000000000000000000073ffffffffffffffffffffffffffffffffffffffff1633148061328c57506040517f8929a8ca00000000000000000000000000000000000000000000000000000000815273ffffffffffffffffffffffffffffffffffffffff82811660048301523360248301527f00000000000000000000000000000000000000000000000000000000000000001690638929a8ca90604401602060405180830381865afa158015613268573d6000803e3d6000fd5b505050506040513d601f19601f8201168201806040525081019061328c919061465d565b1561329657919050565b3391505090565b60008173ffffffffffffffffffffffffffffffffffffffff168373ffffffffffffffffffffffffffffffffffffffff16148061211457505073ffffffffffffffffffffffffffffffffffffffff9182166000908152600393909301602090815260408085209290931684525290205460ff1690565b366000333214806133235750601836105b156133315750600091369150565b3373ffffffffffffffffffffffffffffffffffffffff7f0000000000000000000000000000000000000000000000000000000000000000161480613466575073ffffffffffffffffffffffffffffffffffffffff7f000000000000000000000000000000000000000000000000000000000000000016638929a8ca367fffffffffffffffffffffffffffffffffffffffffffffffffffffffffffffffec013560601c6040517fffffffff0000000000000000000000000000000000000000000000000000000060e084901b16815273ffffffffffffffffffffffffffffffffffffffff9091166004820152336024820152604401602060405180830381865afa158015613442573d6000803e3d6000fd5b505050506040513d601f19601f82011682018060405250810190613466919061465d565b15613473576106376138fe565b50600091369150565b6060600082900361349b57505060408051602081019091526000815290565b6000826040516020016134b091815260200190565b604080517fffffffffffffffffffffffffffffffffffffffffffffffffffffffffffffffe08184030181529190529050601f5b8181815181106134f5576134f56141e7565b01602001517fff000000000000000000000000000000000000000000000000000000000000001660000361354a577fffffffffffffffffffffffffffffffffffffffffffffffffffffffffffffffff016134e3565b60008160010167ffffffffffffffff81111561356857613568614250565b6040519080825280601f01601f191660200182016040528015613592576020820181803683370190505b50905060005b828111613605578381815181106135b1576135b16141e7565b602001015160f81c60f81b8282815181106135ce576135ce6141e7565b60200101907effffffffffffffffffffffffffffffffffffffffffffffffffffffffffffff1916908160001a905350600101613598565b50949350505050565b6040517f150b7a02000000000000000000000000000000000000000000000000000000008082529073ffffffffffffffffffffffffffffffffffffffff85169063150b7a029061366890899089908890889060040161467a565b6020604051808303816000875af1158015613687573d6000803e3d6000fd5b505050506040513d601f19601f820116820180604052508101906136ab91906146c3565b7fffffffff000000000000000000000000000000000000000000000000000000001614610ad0576040517f08c379a000000000000000000000000000000000000000000000000000000000815260206004820152601e60248201527f4552433732313a2073616665207472616e736665722072656a6563746564000060448201526064016107da565b6000613796826040518060400160405280602081526020017f5361666545524332303a206c6f772d6c6576656c2063616c6c206661696c65648152508573ffffffffffffffffffffffffffffffffffffffff1661392f9092919063ffffffff16565b8051909150156105f357808060200190518101906137b4919061465d565b6105f3576040517f08c379a000000000000000000000000000000000000000000000000000000000815260206004820152602a60248201527f5361666545524332303a204552433230206f7065726174696f6e20646964206e60448201527f6f7420737563636565640000000000000000000000000000000000000000000060648201526084016107da565b6060600061384d8361393e565b600101905060008167ffffffffffffffff81111561386d5761386d614250565b6040519080825280601f01601f191660200182016040528015613897576020820181803683370190505b5090508181016020015b7fffffffffffffffffffffffffffffffffffffffffffffffffffffffffffffffff017f3031323334353637383961626364656600000000000000000000000000000000600a86061a8153600a85049450846138a157509392505050565b3660006106377fffffffffffffffffffffffffffffffffffffffffffffffffffffffffffffffec83018284816146e0565b60606121148484600085613a20565b6000807a184f03e93ff9f4daa797ed6e38ed64bf6a1f0100000000000000008310613987577a184f03e93ff9f4daa797ed6e38ed64bf6a1f010000000000000000830492506040015b6d04ee2d6d415b85acef810000000083106139b3576d04ee2d6d415b85acef8100000000830492506020015b662386f26fc1000083106139d157662386f26fc10000830492506010015b6305f5e10083106139e9576305f5e100830492506008015b61271083106139fd57612710830492506004015b60648310613a0f576064830492506002015b600a83106105825760010192915050565b606082471015613ab2576040517f08c379a000000000000000000000000000000000000000000000000000000000815260206004820152602660248201527f416464726573733a20696e73756666696369656e742062616c616e636520666f60448201527f722063616c6c000000000000000000000000000000000000000000000000000060648201526084016107da565b6000808673ffffffffffffffffffffffffffffffffffffffff168587604051613adb919061470a565b60006040518083038185875af1925050503d8060008114613b18576040519150601f19603f3d011682016040523d82523d6000602084013e613b1d565b606091505b5091509150613b2e87838387613b39565b979650505050505050565b60608315613bcf578251600003613bc85773ffffffffffffffffffffffffffffffffffffffff85163b613bc8576040517f08c379a000000000000000000000000000000000000000000000000000000000815260206004820152601d60248201527f416464726573733a2063616c6c20746f206e6f6e2d636f6e747261637400000060448201526064016107da565b5081612114565b6121148383815115613be45781518083602001fd5b806040517f08c379a00000000000000000000000000000000000000000000000000000000081526004016107da9190613cd1565b7fffffffff000000000000000000000000000000000000000000000000000000008116811461096557600080fd5b600060208284031215613c5857600080fd5b81356109d381613c18565b60005b83811015613c7e578181015183820152602001613c66565b50506000910152565b60008151808452613c9f816020860160208601613c63565b601f017fffffffffffffffffffffffffffffffffffffffffffffffffffffffffffffffe0169290920160200192915050565b6020815260006109d36020830184613c87565b600060208284031215613cf657600080fd5b5035919050565b73ffffffffffffffffffffffffffffffffffffffff8116811461096557600080fd5b60008060408385031215613d3257600080fd5b8235613d3d81613cfd565b946020939093013593505050565b600080600060608486031215613d6057600080fd5b8335613d6b81613cfd565b92506020840135613d7b81613cfd565b929592945050506040919091013590565b60008060408385031215613d9f57600080fd5b823591506020830135613db181613cfd565b809150509250929050565b8183528181602085013750600060208284010152600060207fffffffffffffffffffffffffffffffffffffffffffffffffffffffffffffffe0601f840116840101905092915050565b602081526000612114602083018486613dbc565b60008083601f840112613e2b57600080fd5b50813567ffffffffffffffff811115613e4357600080fd5b6020830191508360208260051b8501011115613e5e57600080fd5b9250929050565b600080600060408486031215613e7a57600080fd5b8335613e8581613cfd565b9250602084013567ffffffffffffffff811115613ea157600080fd5b613ead86828701613e19565b9497909650939450505050565b600060208284031215613ecc57600080fd5b81356109d381613cfd565b60008060008060008060608789031215613ef057600080fd5b863567ffffffffffffffff80821115613f0857600080fd5b613f148a838b01613e19565b90985096506020890135915080821115613f2d57600080fd5b613f398a838b01613e19565b90965094506040890135915080821115613f5257600080fd5b50613f5f89828a01613e19565b979a9699509497509295939492505050565b60008083601f840112613f8357600080fd5b50813567ffffffffffffffff811115613f9b57600080fd5b602083019150836020828501011115613e5e57600080fd5b60008060208385031215613fc657600080fd5b823567ffffffffffffffff811115613fdd57600080fd5b613fe985828601613f71565b90969095509350505050565b6000806000806060858703121561400b57600080fd5b843561401681613cfd565b935060208501359250604085013567ffffffffffffffff81111561403957600080fd5b61404587828801613f71565b95989497509550505050565b6000806000806040858703121561406757600080fd5b843567ffffffffffffffff8082111561407f57600080fd5b61408b88838901613e19565b909650945060208701359150808211156140a457600080fd5b5061404587828801613e19565b801515811461096557600080fd5b600080604083850312156140d257600080fd5b82356140dd81613cfd565b91506020830135613db1816140b1565b60008060008060006080868803121561410557600080fd5b853561411081613cfd565b9450602086013561412081613cfd565b935060408601359250606086013567ffffffffffffffff81111561414357600080fd5b61414f88828901613f71565b969995985093965092949392505050565b6000806040838503121561417357600080fd5b823561417e81613cfd565b91506020830135613db181613cfd565b600080600080606085870312156141a457600080fd5b84356141af81613cfd565b935060208501356141bf81613cfd565b9250604085013567ffffffffffffffff8111156141db57600080fd5b61404587828801613e19565b7f4e487b7100000000000000000000000000000000000000000000000000000000600052603260045260246000fd5b81810381811115610582577f4e487b7100000000000000000000000000000000000000000000000000000000600052601160045260246000fd5b7f4e487b7100000000000000000000000000000000000000000000000000000000600052604160045260246000fd5b600181811c9082168061429357607f821691505b6020821081036142cc577f4e487b7100000000000000000000000000000000000000000000000000000000600052602260045260246000fd5b50919050565b601f8211156105f357600081815260208120601f850160051c810160208610156142f95750805b601f850160051c820191505b81811015610e5a57828155600101614305565b815167ffffffffffffffff81111561433257614332614250565b61434681614340845461427f565b846142d2565b602080601f83116001811461439957600084156143635750858301515b7fffffffffffffffffffffffffffffffffffffffffffffffffffffffffffffffff600386901b1c1916600185901b178555610e5a565b6000858152602081207fffffffffffffffffffffffffffffffffffffffffffffffffffffffffffffffe08616915b828110156143e6578886015182559484019460019091019084016143c7565b508582101561442257878501517fffffffffffffffffffffffffffffffffffffffffffffffffffffffffffffffff600388901b60f8161c191681555b5050505050600190811b01905550565b7f416363657373436f6e74726f6c3a206d697373696e672027000000000000000081526000825161446a816018850160208701613c63565b7f2720726f6c6500000000000000000000000000000000000000000000000000006018939091019283015250601e01919050565b67ffffffffffffffff8311156144b6576144b6614250565b6144ca836144c4835461427f565b836142d2565b6000601f84116001811461451c57600085156144e65750838201355b7fffffffffffffffffffffffffffffffffffffffffffffffffffffffffffffffff600387901b1c1916600186901b178355610ad0565b6000838152602090207fffffffffffffffffffffffffffffffffffffffffffffffffffffffffffffffe0861690835b8281101561456b578685013582556020948501946001909201910161454b565b50868210156145a6577fffffffffffffffffffffffffffffffffffffffffffffffffffffffffffffffff60f88860031b161c19848701351681555b505060018560011b0183555050505050565b60008084546145c68161427f565b600182811680156145de576001811461461157614640565b7fffffffffffffffffffffffffffffffffffffffffffffffffffffffffffffff0084168752821515830287019450614640565b8860005260208060002060005b858110156146375781548a82015290840190820161461e565b50505082870194505b505050508351614654818360208801613c63565b01949350505050565b60006020828403121561466f57600080fd5b81516109d3816140b1565b600073ffffffffffffffffffffffffffffffffffffffff8087168352808616602084015250836040830152608060608301526146b96080830184613c87565b9695505050505050565b6000602082840312156146d557600080fd5b81516109d381613c18565b600080858511156146f057600080fd5b838611156146fd57600080fd5b5050820193919092039150565b6000825161471c818460208701613c63565b919091019291505056fea26469706673582212208499982d084f6fa93da3bed403df97aadcaa2635c4d8c89cf99bfa4e6459a8b264736f6c63430008110033",
  "linkReferences": {},
  "deployedLinkReferences": {}
}