{
  "_format": "hh-sol-artifact-1",
  "contractName": "REVVRacingNFTMock",
  "sourceName": "contracts/mocks/token/ERC721/REVVRacingNFTMock.sol",
  "abi": [
    {
      "inputs": [
        {
          "internalType": "contract IOperatorFilterRegistry",
          "name": "filterRegistry",
          "type": "address"
        },
        {
          "internalType": "contract IForwarderRegistry",
          "name": "forwarderRegistry",
          "type": "address"
        }
      ],
      "stateMutability": "nonpayable",
      "type": "constructor"
    },
    {
      "inputs": [
        {
          "internalType": "uint256",
          "name": "percentage",
          "type": "uint256"
        }
      ],
      "name": "IncorrectRoyaltyPercentage",
      "type": "error"
    },
    {
      "inputs": [],
      "name": "IncorrectRoyaltyReceiver",
      "type": "error"
    },
    {
      "inputs": [
        {
          "internalType": "address",
          "name": "operator",
          "type": "address"
        }
      ],
      "name": "OperatorNotAllowed",
      "type": "error"
    },
    {
      "anonymous": false,
      "inputs": [
        {
          "indexed": true,
          "internalType": "address",
          "name": "owner",
          "type": "address"
        },
        {
          "indexed": true,
          "internalType": "address",
          "name": "approved",
          "type": "address"
        },
        {
          "indexed": true,
          "internalType": "uint256",
          "name": "tokenId",
          "type": "uint256"
        }
      ],
      "name": "Approval",
      "type": "event"
    },
    {
      "anonymous": false,
      "inputs": [
        {
          "indexed": true,
          "internalType": "address",
          "name": "owner",
          "type": "address"
        },
        {
          "indexed": true,
          "internalType": "address",
          "name": "operator",
          "type": "address"
        },
        {
          "indexed": false,
          "internalType": "bool",
          "name": "approved",
          "type": "bool"
        }
      ],
      "name": "ApprovalForAll",
      "type": "event"
    },
    {
      "anonymous": false,
      "inputs": [
        {
          "indexed": false,
          "internalType": "string",
          "name": "baseMetadataURI",
          "type": "string"
        }
      ],
      "name": "BaseMetadataURISet",
      "type": "event"
    },
    {
      "anonymous": false,
      "inputs": [
        {
          "indexed": true,
          "internalType": "address",
          "name": "previousOwner",
          "type": "address"
        },
        {
          "indexed": true,
          "internalType": "address",
          "name": "newOwner",
          "type": "address"
        }
      ],
      "name": "OwnershipTransferred",
      "type": "event"
    },
    {
      "anonymous": false,
      "inputs": [
        {
          "indexed": false,
          "internalType": "bytes32",
          "name": "role",
          "type": "bytes32"
        },
        {
          "indexed": false,
          "internalType": "address",
          "name": "account",
          "type": "address"
        },
        {
          "indexed": false,
          "internalType": "address",
          "name": "operator",
          "type": "address"
        }
      ],
      "name": "RoleGranted",
      "type": "event"
    },
    {
      "anonymous": false,
      "inputs": [
        {
          "indexed": false,
          "internalType": "bytes32",
          "name": "role",
          "type": "bytes32"
        },
        {
          "indexed": false,
          "internalType": "address",
          "name": "account",
          "type": "address"
        },
        {
          "indexed": false,
          "internalType": "address",
          "name": "operator",
          "type": "address"
        }
      ],
      "name": "RoleRevoked",
      "type": "event"
    },
    {
      "anonymous": false,
      "inputs": [
        {
          "indexed": true,
          "internalType": "address",
          "name": "from",
          "type": "address"
        },
        {
          "indexed": true,
          "internalType": "address",
          "name": "to",
          "type": "address"
        },
        {
          "indexed": true,
          "internalType": "uint256",
          "name": "tokenId",
          "type": "uint256"
        }
      ],
      "name": "Transfer",
      "type": "event"
    },
    {
      "inputs": [],
      "name": "MINTER_ROLE",
      "outputs": [
        {
          "internalType": "bytes32",
          "name": "",
          "type": "bytes32"
        }
      ],
      "stateMutability": "view",
      "type": "function"
    },
    {
      "inputs": [],
      "name": "ROYALTY_FEE_DENOMINATOR",
      "outputs": [
        {
          "internalType": "uint256",
          "name": "",
          "type": "uint256"
        }
      ],
      "stateMutability": "view",
      "type": "function"
    },
    {
      "inputs": [],
      "name": "__msgData",
      "outputs": [
        {
          "internalType": "bytes",
          "name": "",
          "type": "bytes"
        }
      ],
      "stateMutability": "view",
      "type": "function"
    },
    {
      "inputs": [
        {
          "internalType": "address",
          "name": "to",
          "type": "address"
        },
        {
          "internalType": "uint256",
          "name": "tokenId",
          "type": "uint256"
        }
      ],
      "name": "approve",
      "outputs": [],
      "stateMutability": "nonpayable",
      "type": "function"
    },
    {
      "inputs": [
        {
          "internalType": "address",
          "name": "owner",
          "type": "address"
        }
      ],
      "name": "balanceOf",
      "outputs": [
        {
          "internalType": "uint256",
          "name": "balance",
          "type": "uint256"
        }
      ],
      "stateMutability": "view",
      "type": "function"
    },
    {
      "inputs": [],
      "name": "baseMetadataURI",
      "outputs": [
        {
          "internalType": "string",
          "name": "baseURI",
          "type": "string"
        }
      ],
      "stateMutability": "view",
      "type": "function"
    },
    {
      "inputs": [
        {
          "internalType": "address",
          "name": "from",
          "type": "address"
        },
        {
          "internalType": "uint256[]",
          "name": "tokenIds",
          "type": "uint256[]"
        }
      ],
      "name": "batchBurnFrom",
      "outputs": [],
      "stateMutability": "nonpayable",
      "type": "function"
    },
    {
      "inputs": [
        {
          "internalType": "address",
          "name": "to",
          "type": "address"
        },
        {
          "internalType": "uint256[]",
          "name": "tokenIds",
          "type": "uint256[]"
        }
      ],
      "name": "batchMint",
      "outputs": [],
      "stateMutability": "nonpayable",
      "type": "function"
    },
    {
      "inputs": [
        {
          "internalType": "address",
          "name": "from",
          "type": "address"
        },
        {
          "internalType": "address",
          "name": "to",
          "type": "address"
        },
        {
          "internalType": "uint256[]",
          "name": "tokenIds",
          "type": "uint256[]"
        }
      ],
      "name": "batchTransferFrom",
      "outputs": [],
      "stateMutability": "nonpayable",
      "type": "function"
    },
    {
      "inputs": [
        {
          "internalType": "address",
          "name": "from",
          "type": "address"
        },
        {
          "internalType": "uint256",
          "name": "tokenId",
          "type": "uint256"
        }
      ],
      "name": "burnFrom",
      "outputs": [],
      "stateMutability": "nonpayable",
      "type": "function"
    },
    {
      "inputs": [
        {
          "internalType": "address[]",
          "name": "recipients",
          "type": "address[]"
        },
        {
          "internalType": "uint256[]",
          "name": "tokenIds",
          "type": "uint256[]"
        }
      ],
      "name": "deliver",
      "outputs": [],
      "stateMutability": "nonpayable",
      "type": "function"
    },
    {
      "inputs": [],
      "name": "forwarderRegistry",
      "outputs": [
        {
          "internalType": "contract IForwarderRegistry",
          "name": "",
          "type": "address"
        }
      ],
      "stateMutability": "view",
      "type": "function"
    },
    {
      "inputs": [
        {
          "internalType": "uint256",
          "name": "tokenId",
          "type": "uint256"
        }
      ],
      "name": "getApproved",
      "outputs": [
        {
          "internalType": "address",
          "name": "approved",
          "type": "address"
        }
      ],
      "stateMutability": "view",
      "type": "function"
    },
    {
      "inputs": [
        {
          "internalType": "bytes32",
          "name": "role",
          "type": "bytes32"
        },
        {
          "internalType": "address",
          "name": "account",
          "type": "address"
        }
      ],
      "name": "grantRole",
      "outputs": [],
      "stateMutability": "nonpayable",
      "type": "function"
    },
    {
      "inputs": [
        {
          "internalType": "bytes32",
          "name": "role",
          "type": "bytes32"
        },
        {
          "internalType": "address",
          "name": "account",
          "type": "address"
        }
      ],
      "name": "hasRole",
      "outputs": [
        {
          "internalType": "bool",
          "name": "",
          "type": "bool"
        }
      ],
      "stateMutability": "view",
      "type": "function"
    },
    {
      "inputs": [
        {
          "internalType": "address",
          "name": "owner",
          "type": "address"
        },
        {
          "internalType": "address",
          "name": "operator",
          "type": "address"
        }
      ],
      "name": "isApprovedForAll",
      "outputs": [
        {
          "internalType": "bool",
          "name": "approvedForAll",
          "type": "bool"
        }
      ],
      "stateMutability": "view",
      "type": "function"
    },
    {
      "inputs": [
        {
          "internalType": "address",
          "name": "forwarder",
          "type": "address"
        }
      ],
      "name": "isTrustedForwarder",
      "outputs": [
        {
          "internalType": "bool",
          "name": "",
          "type": "bool"
        }
      ],
      "stateMutability": "view",
      "type": "function"
    },
    {
      "inputs": [
        {
          "internalType": "address",
          "name": "to",
          "type": "address"
        },
        {
          "internalType": "uint256",
          "name": "tokenId",
          "type": "uint256"
        }
      ],
      "name": "mint",
      "outputs": [],
      "stateMutability": "nonpayable",
      "type": "function"
    },
    {
      "inputs": [],
      "name": "name",
      "outputs": [
        {
          "internalType": "string",
          "name": "tokenName",
          "type": "string"
        }
      ],
      "stateMutability": "view",
      "type": "function"
    },
    {
      "inputs": [],
      "name": "operatorFilterRegistry",
      "outputs": [
        {
          "internalType": "contract IOperatorFilterRegistry",
          "name": "",
          "type": "address"
        }
      ],
      "stateMutability": "view",
      "type": "function"
    },
    {
      "inputs": [],
      "name": "owner",
      "outputs": [
        {
          "internalType": "address",
          "name": "",
          "type": "address"
        }
      ],
      "stateMutability": "view",
      "type": "function"
    },
    {
      "inputs": [
        {
          "internalType": "uint256",
          "name": "tokenId",
          "type": "uint256"
        }
      ],
      "name": "ownerOf",
      "outputs": [
        {
          "internalType": "address",
          "name": "tokenOwner",
          "type": "address"
        }
      ],
      "stateMutability": "view",
      "type": "function"
    },
    {
      "inputs": [
        {
          "internalType": "address[]",
          "name": "accounts",
          "type": "address[]"
        },
        {
          "internalType": "contract IERC20[]",
          "name": "tokens",
          "type": "address[]"
        },
        {
          "internalType": "uint256[]",
          "name": "amounts",
          "type": "uint256[]"
        }
      ],
      "name": "recoverERC20s",
      "outputs": [],
      "stateMutability": "nonpayable",
      "type": "function"
    },
    {
      "inputs": [
        {
          "internalType": "address[]",
          "name": "accounts",
          "type": "address[]"
        },
        {
          "internalType": "contract IERC721[]",
          "name": "contracts",
          "type": "address[]"
        },
        {
          "internalType": "uint256[]",
          "name": "tokenIds",
          "type": "uint256[]"
        }
      ],
      "name": "recoverERC721s",
      "outputs": [],
      "stateMutability": "nonpayable",
      "type": "function"
    },
    {
      "inputs": [
        {
          "internalType": "address payable[]",
          "name": "accounts",
          "type": "address[]"
        },
        {
          "internalType": "uint256[]",
          "name": "amounts",
          "type": "uint256[]"
        }
      ],
      "name": "recoverETH",
      "outputs": [],
      "stateMutability": "nonpayable",
      "type": "function"
    },
    {
      "inputs": [
        {
          "internalType": "bytes32",
          "name": "role",
          "type": "bytes32"
        }
      ],
      "name": "renounceRole",
      "outputs": [],
      "stateMutability": "nonpayable",
      "type": "function"
    },
    {
      "inputs": [
        {
          "internalType": "bytes32",
          "name": "role",
          "type": "bytes32"
        },
        {
          "internalType": "address",
          "name": "account",
          "type": "address"
        }
      ],
      "name": "revokeRole",
      "outputs": [],
      "stateMutability": "nonpayable",
      "type": "function"
    },
    {
      "inputs": [
        {
          "internalType": "uint256",
          "name": "tokenId",
          "type": "uint256"
        },
        {
          "internalType": "uint256",
          "name": "salePrice",
          "type": "uint256"
        }
      ],
      "name": "royaltyInfo",
      "outputs": [
        {
          "internalType": "address",
          "name": "receiver",
          "type": "address"
        },
        {
          "internalType": "uint256",
          "name": "royaltyAmount",
          "type": "uint256"
        }
      ],
      "stateMutability": "view",
      "type": "function"
    },
    {
      "inputs": [
        {
          "internalType": "address",
          "name": "to",
          "type": "address"
        },
        {
          "internalType": "uint256",
          "name": "tokenId",
          "type": "uint256"
        },
        {
          "internalType": "bytes",
          "name": "data",
          "type": "bytes"
        }
      ],
      "name": "safeMint",
      "outputs": [],
      "stateMutability": "nonpayable",
      "type": "function"
    },
    {
      "inputs": [
        {
          "internalType": "address",
          "name": "from",
          "type": "address"
        },
        {
          "internalType": "address",
          "name": "to",
          "type": "address"
        },
        {
          "internalType": "uint256",
          "name": "tokenId",
          "type": "uint256"
        }
      ],
      "name": "safeTransferFrom",
      "outputs": [],
      "stateMutability": "nonpayable",
      "type": "function"
    },
    {
      "inputs": [
        {
          "internalType": "address",
          "name": "from",
          "type": "address"
        },
        {
          "internalType": "address",
          "name": "to",
          "type": "address"
        },
        {
          "internalType": "uint256",
          "name": "tokenId",
          "type": "uint256"
        },
        {
          "internalType": "bytes",
          "name": "data",
          "type": "bytes"
        }
      ],
      "name": "safeTransferFrom",
      "outputs": [],
      "stateMutability": "nonpayable",
      "type": "function"
    },
    {
      "inputs": [
        {
          "internalType": "address",
          "name": "operator",
          "type": "address"
        },
        {
          "internalType": "bool",
          "name": "approved",
          "type": "bool"
        }
      ],
      "name": "setApprovalForAll",
      "outputs": [],
      "stateMutability": "nonpayable",
      "type": "function"
    },
    {
      "inputs": [
        {
          "internalType": "string",
          "name": "baseURI",
          "type": "string"
        }
      ],
      "name": "setBaseMetadataURI",
      "outputs": [],
      "stateMutability": "nonpayable",
      "type": "function"
    },
    {
      "inputs": [
        {
          "internalType": "uint256",
          "name": "percentage",
          "type": "uint256"
        }
      ],
      "name": "setRoyaltyPercentage",
      "outputs": [],
      "stateMutability": "nonpayable",
      "type": "function"
    },
    {
      "inputs": [
        {
          "internalType": "address",
          "name": "receiver",
          "type": "address"
        }
      ],
      "name": "setRoyaltyReceiver",
      "outputs": [],
      "stateMutability": "nonpayable",
      "type": "function"
    },
    {
      "inputs": [
        {
          "internalType": "bytes4",
          "name": "interfaceId",
          "type": "bytes4"
        }
      ],
      "name": "supportsInterface",
      "outputs": [
        {
          "internalType": "bool",
          "name": "",
          "type": "bool"
        }
      ],
      "stateMutability": "view",
      "type": "function"
    },
    {
      "inputs": [],
      "name": "symbol",
      "outputs": [
        {
          "internalType": "string",
          "name": "tokenSymbol",
          "type": "string"
        }
      ],
      "stateMutability": "view",
      "type": "function"
    },
    {
      "inputs": [
        {
          "internalType": "uint256",
          "name": "tokenId",
          "type": "uint256"
        }
      ],
      "name": "tokenURI",
      "outputs": [
        {
          "internalType": "string",
          "name": "uri",
          "type": "string"
        }
      ],
      "stateMutability": "view",
      "type": "function"
    },
    {
      "inputs": [
        {
          "internalType": "address",
          "name": "from",
          "type": "address"
        },
        {
          "internalType": "address",
          "name": "to",
          "type": "address"
        },
        {
          "internalType": "uint256",
          "name": "tokenId",
          "type": "uint256"
        }
      ],
      "name": "transferFrom",
      "outputs": [],
      "stateMutability": "nonpayable",
      "type": "function"
    },
    {
      "inputs": [
        {
          "internalType": "address",
          "name": "newOwner",
          "type": "address"
        }
      ],
      "name": "transferOwnership",
      "outputs": [],
      "stateMutability": "nonpayable",
      "type": "function"
    },
    {
      "inputs": [
        {
          "internalType": "contract IOperatorFilterRegistry",
          "name": "registry",
          "type": "address"
        }
      ],
      "name": "updateOperatorFilterRegistry",
      "outputs": [],
      "stateMutability": "nonpayable",
      "type": "function"
    }
  ],
  "bytecode": "0x60a06040523480156200001157600080fd5b5060405162004fb338038062004fb38339810160408190526200003491620003ea565b818180806040518060400160405280600f81526020016e1491559588149858da5b99c8139195608a1b81525060405180604001604052806002815260200161292960f11b81525085336200009981620000926200013760201b60201c565b906200016d565b50620000a4620001e8565b620000d181620000b362000202565b9081546001600160a01b0319166001600160a01b0391909116179055565b50620000dc62000232565b620000f48282620000ec6200024a565b91906200027a565b50620001019050620002b6565b6200010b620002ce565b62000115620002e6565b6200011f620002fe565b6001600160a01b031660805250620005bb9350505050565b6000806200016760017fc9ed16f33ab3a66c84bfd83099ccb2a8845871e2e1c1928f63797152f0fd54cd62000429565b92915050565b6001600160a01b03811615620001c45781546001600160a01b0319166001600160a01b03821690811783556040516000907f8be0079c531659141344cd1fd0a4f28419497f9722a3daafe3b4186f6b6457e0908290a35b620001e46307f5828d60e41b6001620001dc62000311565b919062000341565b5050565b620002006380ac58cd60e01b6001620001dc62000311565b565b6000806200016760017f609b85bcafa81ecfaf3ff62cdde2c6c9082a68dbe4922f07399c706bdeb7cd3162000429565b6200020063f3993d1160e01b6001620001dc62000311565b6000806200016760017f9c4269c0f9f430d98876ffe9767fbf3f3232ea91a549beb549e5329532520eb362000429565b82620002878382620004ef565b5060018301620002988282620004ef565b50620002b1635b5e139f60e01b6001620001dc62000311565b505050565b62000200638b8b4ef560e01b6001620001dc62000311565b62000200638e773e1360e01b6001620001dc62000311565b62000200634ed2f41960e11b6001620001dc62000311565b6200020063152a902d60e11b6001620001dc5b6000806200016760017fca9d3e17f264b0f3984e2634e94adb37fa3e6a8103f06aeae6fa59e21c769f5e62000429565b600160e01b6001600160e01b0319831601620003a35760405162461bcd60e51b815260206004820152601f60248201527f496e74657266616365446574656374696f6e3a2077726f6e672076616c756500604482015260640160405180910390fd5b6001600160e01b03199190911660009081526020929092526040909120805460ff1916911515919091179055565b6001600160a01b0381168114620003e757600080fd5b50565b60008060408385031215620003fe57600080fd5b82516200040b81620003d1565b60208401519092506200041e81620003d1565b809150509250929050565b818103818111156200016757634e487b7160e01b600052601160045260246000fd5b634e487b7160e01b600052604160045260246000fd5b600181811c908216806200047657607f821691505b6020821081036200049757634e487b7160e01b600052602260045260246000fd5b50919050565b601f821115620002b157600081815260208120601f850160051c81016020861015620004c65750805b601f850160051c820191505b81811015620004e757828155600101620004d2565b505050505050565b81516001600160401b038111156200050b576200050b6200044b565b62000523816200051c845462000461565b846200049d565b602080601f8311600181146200055b5760008415620005425750858301515b600019600386901b1c1916600185901b178555620004e7565b600085815260208120601f198616915b828110156200058c578886015182559484019460019091019084016200056b565b5085821015620005ab5787850151600019600388901b60f8161c191681555b5050505050600190811b01905550565b6080516149b9620005fa600039600081816103c90152818161045f0152818161349b015281816135230152818161364b015261368901526149b96000f3fe608060405234801561001057600080fd5b50600436106102d35760003560e01c80637e518ec811610186578063b88d4fde116100e3578063e1a8bf2c11610097578063f2fde38b11610071578063f2fde38b14610651578063f3993d1114610664578063f7ba94bd1461067757600080fd5b8063e1a8bf2c14610621578063e985e9c51461062b578063f24729651461063e57600080fd5b8063c87b56dd116100c8578063c87b56dd146105d4578063d5391393146105e7578063d547741f1461060e57600080fd5b8063b88d4fde146105ae578063c3666c36146105c157600080fd5b806391d148541161013a5780639da5e8321161011f5780639da5e83214610580578063a22cb46514610593578063b0ccc31e146105a657600080fd5b806391d148541461056557806395d89b411461057857600080fd5b80638bb9c5bf1161016b5780638bb9c5bf146105375780638da5cb5b1461054a5780638dc251e31461055257600080fd5b80637e518ec8146105115780638832e6e31461052457600080fd5b806340c10f191161023457806361ba27da116101e857806370a08231116101cd57806370a08231146104ca57806373c8a958146104eb57806379cc6790146104fe57600080fd5b806361ba27da146104a45780636352211e146104b757600080fd5b80634684d7e9116102195780634684d7e91461043c578063572b6c051461044f5780635b2bd79e1461049c57600080fd5b806340c10f191461041657806342842e0e1461042957600080fd5b806323b872dd1161028b5780632b4c9f16116102705780632b4c9f16146103c75780632f2ff15d146103ed57806331e66e1e1461040057600080fd5b806323b872dd146103755780632a55205a1461038857600080fd5b8063081812fc116102bc578063081812fc14610315578063095ea7b31461034d578063114ba8ee1461036257600080fd5b806301ffc9a7146102d857806306fdde0314610300575b600080fd5b6102eb6102e6366004613f48565b61068a565b60405190151581526020015b60405180910390f35b6103086106a4565b6040516102f79190613fd3565b610328610323366004613fe6565b6106bb565b60405173ffffffffffffffffffffffffffffffffffffffff90911681526020016102f7565b61036061035b366004614021565b6106cf565b005b61036061037036600461404d565b61071e565b61036061038336600461406a565b610789565b61039b6103963660046140ab565b6107c7565b6040805173ffffffffffffffffffffffffffffffffffffffff90931683526020830191909152016102f7565b7f0000000000000000000000000000000000000000000000000000000000000000610328565b6103606103fb3660046140cd565b6107ea565b61040861081d565b6040516102f7929190614146565b610360610424366004614021565b610830565b61036061043736600461406a565b61087f565b61036061044a36600461419f565b6108b0565b6102eb61045d36600461404d565b7f000000000000000000000000000000000000000000000000000000000000000073ffffffffffffffffffffffffffffffffffffffff90811691161490565b610308610924565b6103606104b2366004613fe6565b610931565b6103286104c5366004613fe6565b61094e565b6104dd6104d836600461404d565b610962565b6040519081526020016102f7565b6103606104f93660046141f4565b610976565b61036061050c366004614021565b610a9e565b61036061051f3660046142d0565b610abb565b610360610532366004614312565b610ada565b610360610545366004613fe6565b610b5c565b610328610b77565b61036061056036600461404d565b610b9e565b6102eb6105733660046140cd565b610bbb565b610308610c06565b61036061058e36600461436e565b610c18565b6103606105a13660046143dc565b610cbc565b610328610ceb565b6103606105bc36600461440a565b610cf8565b6103606105cf3660046141f4565b610d35565b6103086105e2366004613fe6565b610eda565b6104dd7f6d696e746572000000000000000000000000000000000000000000000000000081565b61036061061c3660046140cd565b610efb565b6104dd620186a081565b6102eb61063936600461447d565b610f29565b61036061064c36600461419f565b610f77565b61036061065f36600461404d565b610f96565b6103606106723660046144ab565b610fb1565b61036061068536600461436e565b610feb565b600061069e826106986110d1565b906110ff565b92915050565b60606106b66106b16111d9565b611207565b905090565b600061069e826106c961129d565b906112cb565b73ffffffffffffffffffffffffffffffffffffffff8216156106fd576106fd826106f76113ac565b906113da565b61071a6107086113e4565b838361071261129d565b9291906113ee565b5050565b6107376107296113e4565b6107316116b7565b906116e5565b610786816107436113ac565b9081547fffffffffffffffffffffffff00000000000000000000000000000000000000001673ffffffffffffffffffffffffffffffffffffffff91909116179055565b50565b60006107936113e4565b90506107a981856107a26113ac565b91906117aa565b6107c1818585856107b861129d565b939291906117e7565b50505050565b6000806107de84846107d7611b3c565b9190611b6a565b915091505b9250929050565b60006107f46113e4565b9050610802816107316116b7565b610818838383610810611c14565b929190611c42565b505050565b366000610828611d18565b915091509091565b61086b7f6d696e746572000000000000000000000000000000000000000000000000000061085c6113e4565b610864611c14565b9190611d23565b61071a828261087861129d565b9190611dcf565b60006108896113e4565b905061089881856107a26113ac565b6107c1818585856108a761129d565b93929190611f46565b6108dc7f6d696e746572000000000000000000000000000000000000000000000000000061085c6113e4565b6108188383838080602002602001604051908101604052809392919081815260200183836020028082843760009201919091525061091d925061129d915050565b9190611f8c565b60606106b66106b1612160565b61093c6107296113e4565b61078681610948611b3c565b9061218e565b600061069e8261095c61129d565b90612214565b600061069e8261097061129d565b906122aa565b6109816107296113e4565b84838114801561099057508082145b6109fb576040517f08c379a000000000000000000000000000000000000000000000000000000000815260206004820152601d60248201527f5265636f766572793a20696e636f6e73697374656e742061727261797300000060448201526064015b60405180910390fd5b60005b818114610a9457610a8c888883818110610a1a57610a1a614504565b9050602002016020810190610a2f919061404d565b858584818110610a4157610a41614504565b90506020020135888885818110610a5a57610a5a614504565b9050602002016020810190610a6f919061404d565b73ffffffffffffffffffffffffffffffffffffffff169190612356565b6001016109fe565b5050505050505050565b61071a610aa96113e4565b8383610ab361129d565b9291906123e3565b610ac66107296113e4565b61071a8282610ad3612160565b91906125f7565b610b067f6d696e746572000000000000000000000000000000000000000000000000000061085c6113e4565b6107c1610b116113e4565b858585858080601f016020809104026020016040519081016040528093929190818152602001838380828437600092019190915250610b53925061129d915050565b93929190612642565b610786610b676113e4565b82610b70611c14565b9190612678565b60006106b6610b846116b7565b5473ffffffffffffffffffffffffffffffffffffffff1690565b610ba96107296113e4565b61078681610bb5611b3c565b90612714565b6000610bff8383610bca611c14565b60009283526020908152604080842073ffffffffffffffffffffffffffffffffffffffff909316845291905290205460ff1690565b9392505050565b60606106b6610c136111d9565b612761565b610c447f6d696e746572000000000000000000000000000000000000000000000000000061085c6113e4565b6107c184848080602002602001604051908101604052809392919081815260200183836020028082843760009201919091525050604080516020808802828101820190935287825290935087925086918291850190849080828437600092019190915250610cb5925061129d915050565b9190612772565b8015610cce57610cce826106f76113ac565b61071a610cd96113e4565b8383610ce361129d565b929190612837565b60006106b6610b846113ac565b6000610d026113e4565b9050610d1181876107a26113ac565b610d2d818787878787610d2261129d565b959493929190612967565b505050505050565b610d406107296113e4565b848381148015610d4f57508082145b610db5576040517f08c379a000000000000000000000000000000000000000000000000000000000815260206004820152601d60248201527f5265636f766572793a20696e636f6e73697374656e742061727261797300000060448201526064016109f2565b60005b818114610a9457858582818110610dd157610dd1614504565b9050602002016020810190610de6919061404d565b73ffffffffffffffffffffffffffffffffffffffff166323b872dd308a8a85818110610e1457610e14614504565b9050602002016020810190610e29919061404d565b878786818110610e3b57610e3b614504565b6040517fffffffff0000000000000000000000000000000000000000000000000000000060e088901b16815273ffffffffffffffffffffffffffffffffffffffff958616600482015294909316602485015250602090910201356044820152606401600060405180830381600087803b158015610eb757600080fd5b505af1158015610ecb573d6000803e3d6000fd5b50505050806001019050610db8565b6060610ee88261095c61129d565b5061069e82610ef5612160565b906129dd565b6000610f056113e4565b9050610f13816107316116b7565b610818838383610f21611c14565b929190612a11565b6000610bff8383610f3861129d565b919073ffffffffffffffffffffffffffffffffffffffff9182166000908152600393909301602090815260408085209290931684525290205460ff1690565b610818610f826113e4565b848484610f8d61129d565b93929190612adb565b610786610fa16113e4565b82610faa6116b7565b9190612d30565b6000610fbb6113e4565b9050610fca81866107a26113ac565b610fe48186868686610fda61129d565b9493929190612e5c565b5050505050565b610ff66107296113e4565b82818114611060576040517f08c379a000000000000000000000000000000000000000000000000000000000815260206004820152601d60248201527f5265636f766572793a20696e636f6e73697374656e742061727261797300000060448201526064016109f2565b60005b818114610d2d576110c984848381811061107f5761107f614504565b9050602002013587878481811061109857611098614504565b90506020020160208101906110ad919061404d565b73ffffffffffffffffffffffffffffffffffffffff16906131d7565b600101611063565b60008061069e60017fca9d3e17f264b0f3984e2634e94adb37fa3e6a8103f06aeae6fa59e21c769f5e614562565b60007c01000000000000000000000000000000000000000000000000000000007fffffffff0000000000000000000000000000000000000000000000000000000083160161114f5750600061069e565b7ffe003659000000000000000000000000000000000000000000000000000000007fffffffff000000000000000000000000000000000000000000000000000000008316016111a05750600161069e565b507fffffffff00000000000000000000000000000000000000000000000000000000166000908152602091909152604090205460ff1690565b60008061069e60017f9c4269c0f9f430d98876ffe9767fbf3f3232ea91a549beb549e5329532520eb3614562565b606081600001805461121890614575565b80601f016020809104026020016040519081016040528092919081815260200182805461124490614575565b80156112915780601f1061126657610100808354040283529160200191611291565b820191906000526020600020905b81548152906001019060200180831161127457829003601f168201915b50505050509050919050565b60008061069e60017fddf3ee18ae6d688373c219468f8be446e7ae82215f4779d821c7ea5e8c13c0c1614562565b60008181526020839052604081205473ffffffffffffffffffffffffffffffffffffffff8116611357576040517f08c379a000000000000000000000000000000000000000000000000000000000815260206004820152601a60248201527f4552433732313a206e6f6e2d6578697374696e6720746f6b656e00000000000060448201526064016109f2565b740100000000000000000000000000000000000000008116156113a2575050600081815260028301602052604090205473ffffffffffffffffffffffffffffffffffffffff1661069e565b600091505061069e565b60008061069e60017f609b85bcafa81ecfaf3ff62cdde2c6c9082a68dbe4922f07399c706bdeb7cd31614562565b61071a8282613331565b60006106b6613458565b60008181526020859052604090205473ffffffffffffffffffffffffffffffffffffffff811661147a576040517f08c379a000000000000000000000000000000000000000000000000000000000815260206004820152601a60248201527f4552433732313a206e6f6e2d6578697374696e6720746f6b656e00000000000060448201526064016109f2565b8073ffffffffffffffffffffffffffffffffffffffff808216908516036114fd576040517f08c379a000000000000000000000000000000000000000000000000000000000815260206004820152601560248201527f4552433732313a2073656c662d617070726f76616c000000000000000000000060448201526064016109f2565b61150886828761359f565b61156e576040517f08c379a000000000000000000000000000000000000000000000000000000000815260206004820152601b60248201527f4552433732313a206e6f6e2d617070726f7665642073656e646572000000000060448201526064016109f2565b73ffffffffffffffffffffffffffffffffffffffff84166115d357740100000000000000000000000000000000000000008216156115ce57600083815260208790526040902073ffffffffffffffffffffffffffffffffffffffff821690555b611654565b7401000000000000000000000000000000000000000082178083146116045760008481526020889052604090208190555b506000838152600287016020526040902080547fffffffffffffffffffffffff00000000000000000000000000000000000000001673ffffffffffffffffffffffffffffffffffffffff86161790555b828473ffffffffffffffffffffffffffffffffffffffff168273ffffffffffffffffffffffffffffffffffffffff167f8c5be1e5ebec7d5bd14f71427d1e84f3dd0314c0f7b2291e5b200ac8c7c3b92560405160405180910390a4505050505050565b60008061069e60017fc9ed16f33ab3a66c84bfd83099ccb2a8845871e2e1c1928f63797152f0fd54cd614562565b815473ffffffffffffffffffffffffffffffffffffffff82811691161461071a576040517f08c379a000000000000000000000000000000000000000000000000000000000815260206004820152601860248201527f4f776e6572736869703a206e6f7420746865206f776e6572000000000000000060448201526064016109f2565b81547fffffffffffffffffffffffff00000000000000000000000000000000000000001673ffffffffffffffffffffffffffffffffffffffff91909116179055565b8073ffffffffffffffffffffffffffffffffffffffff168273ffffffffffffffffffffffffffffffffffffffff1614610818576108188383613331565b73ffffffffffffffffffffffffffffffffffffffff8216611864576040517f08c379a000000000000000000000000000000000000000000000000000000000815260206004820152601e60248201527f4552433732313a207472616e7366657220746f2061646472657373283029000060448201526064016109f2565b60008181526020869052604090205473ffffffffffffffffffffffffffffffffffffffff81166118f0576040517f08c379a000000000000000000000000000000000000000000000000000000000815260206004820152601a60248201527f4552433732313a206e6f6e2d6578697374696e6720746f6b656e00000000000060448201526064016109f2565b73ffffffffffffffffffffffffffffffffffffffff84168173ffffffffffffffffffffffffffffffffffffffff1614611985576040517f08c379a000000000000000000000000000000000000000000000000000000000815260206004820152601760248201527f4552433732313a206e6f6e2d6f776e656420746f6b656e00000000000000000060448201526064016109f2565b61199086858761359f565b611a4857740100000000000000000000000000000000000000008116151580156119e25750600082815260028701602052604090205473ffffffffffffffffffffffffffffffffffffffff8681169116145b611a48576040517f08c379a000000000000000000000000000000000000000000000000000000000815260206004820152601b60248201527f4552433732313a206e6f6e2d617070726f7665642073656e646572000000000060448201526064016109f2565b600082815260208790526040902073ffffffffffffffffffffffffffffffffffffffff80851691829055851614611ad95773ffffffffffffffffffffffffffffffffffffffff80851660009081526001808901602052604080832080547fffffffffffffffffffffffffffffffffffffffffffffffffffffffffffffffff0190559286168252919020805490910190555b818373ffffffffffffffffffffffffffffffffffffffff168573ffffffffffffffffffffffffffffffffffffffff167fddf252ad1be2c89b69c2b068fc378daa952ba7f163c4a11628f55a4df523b3ef60405160405180910390a4505050505050565b60008061069e60017f2c0cf10337caabbd02dcf226f05f5fd19a0919a41a8df8958c39b80007826858614562565b825473ffffffffffffffffffffffffffffffffffffffff8116906000907401000000000000000000000000000000000000000090046bffffffffffffffffffffffff16831580611bb8575080155b15611bc65760009150611c0b565b620186a0841015611bf057620186a0611bdf82866145c8565b611be991906145df565b9150611c0b565b80611bfe620186a0866145df565b611c0891906145c8565b91505b50935093915050565b60008061069e60017fc8827d3282af6f37b64c3e9e6f3ac9df286ab0bb0fccd6f8661bf19adb368b23614562565b60008381526020858152604080832073ffffffffffffffffffffffffffffffffffffffff8616845290915290205460ff166107c15760008381526020858152604080832073ffffffffffffffffffffffffffffffffffffffff8681168086529184529382902080547fffffffffffffffffffffffffffffffffffffffffffffffffffffffffffffff00166001179055815187815292830152918316918101919091527f2f8788117e7eff1d82e926ec794901d17c78024a50270940304540a733656f0d906060015b60405180910390a150505050565b366000610828613614565b60008281526020848152604080832073ffffffffffffffffffffffffffffffffffffffff8516845290915290205460ff1661081857611d618261377e565b604051602001611d71919061461a565b604080517fffffffffffffffffffffffffffffffffffffffffffffffffffffffffffffffe0818403018152908290527f08c379a00000000000000000000000000000000000000000000000000000000082526109f291600401613fd3565b73ffffffffffffffffffffffffffffffffffffffff8216611e4c576040517f08c379a000000000000000000000000000000000000000000000000000000000815260206004820152601a60248201527f4552433732313a206d696e7420746f206164647265737328302900000000000060448201526064016109f2565b60008181526020849052604090205473ffffffffffffffffffffffffffffffffffffffff1615611ed8576040517f08c379a000000000000000000000000000000000000000000000000000000000815260206004820152601660248201527f4552433732313a206578697374696e6720746f6b656e0000000000000000000060448201526064016109f2565b60008181526020848152604080832073ffffffffffffffffffffffffffffffffffffffff86169081905580845260018088019093528184208054909301909255518392907fddf252ad1be2c89b69c2b068fc378daa952ba7f163c4a11628f55a4df523b3ef908290a4505050565b611f5385858585856117e7565b73ffffffffffffffffffffffffffffffffffffffff82163b15610fe457610fe48484848460405180602001604052806000815250613910565b73ffffffffffffffffffffffffffffffffffffffff8216612009576040517f08c379a000000000000000000000000000000000000000000000000000000000815260206004820152601a60248201527f4552433732313a206d696e7420746f206164647265737328302900000000000060448201526064016109f2565b805160005b81811461212b57600083828151811061202957612029614504565b602002602001015190506120678660000160008381526020019081526020016000205473ffffffffffffffffffffffffffffffffffffffff16151590565b156120ce576040517f08c379a000000000000000000000000000000000000000000000000000000000815260206004820152601660248201527f4552433732313a206578697374696e6720746f6b656e0000000000000000000060448201526064016109f2565b60008181526020879052604080822073ffffffffffffffffffffffffffffffffffffffff88169081905590518392907fddf252ad1be2c89b69c2b068fc378daa952ba7f163c4a11628f55a4df523b3ef908290a45060010161200e565b5073ffffffffffffffffffffffffffffffffffffffff9092166000908152600190930160205250604090912080549091019055565b60008061069e60017fe94434e3c6b941c5d90218142fadcc69cb2e13723993540bfa1c131dd1d3475a614562565b620186a08111156121ce576040517f3affc6c4000000000000000000000000000000000000000000000000000000008152600481018290526024016109f2565b81546bffffffffffffffffffffffff909116740100000000000000000000000000000000000000000273ffffffffffffffffffffffffffffffffffffffff909116179055565b60008181526020839052604081205473ffffffffffffffffffffffffffffffffffffffff81166122a0576040517f08c379a000000000000000000000000000000000000000000000000000000000815260206004820152601a60248201527f4552433732313a206e6f6e2d6578697374696e6720746f6b656e00000000000060448201526064016109f2565b805b949350505050565b600073ffffffffffffffffffffffffffffffffffffffff8216612329576040517f08c379a000000000000000000000000000000000000000000000000000000000815260206004820152601d60248201527f4552433732313a2062616c616e6365206f66206164647265737328302900000060448201526064016109f2565b5073ffffffffffffffffffffffffffffffffffffffff166000908152600191909101602052604090205490565b6040805173ffffffffffffffffffffffffffffffffffffffff8416602482015260448082018490528251808303909101815260649091019091526020810180517bffffffffffffffffffffffffffffffffffffffffffffffffffffffff167fa9059cbb00000000000000000000000000000000000000000000000000000000179052610818908490613a36565b6000818152602085905260409020548073ffffffffffffffffffffffffffffffffffffffff168373ffffffffffffffffffffffffffffffffffffffff1614612487576040517f08c379a000000000000000000000000000000000000000000000000000000000815260206004820152601760248201527f4552433732313a206e6f6e2d6f776e656420746f6b656e00000000000000000060448201526064016109f2565b61249285848661359f565b61254a57740100000000000000000000000000000000000000008116151580156124e45750600082815260028601602052604090205473ffffffffffffffffffffffffffffffffffffffff8581169116145b61254a576040517f08c379a000000000000000000000000000000000000000000000000000000000815260206004820152601b60248201527f4552433732313a206e6f6e2d617070726f7665642073656e646572000000000060448201526064016109f2565b6000828152602086815260408083207fdead000000000000000000000000000000000000000000000000000000000000905573ffffffffffffffffffffffffffffffffffffffff86168084526001890190925280832080547fffffffffffffffffffffffffffffffffffffffffffffffffffffffffffffffff01905551849291907fddf252ad1be2c89b69c2b068fc378daa952ba7f163c4a11628f55a4df523b3ef908390a45050505050565b826126038284836146fb565b507f04b1dc5c136a3ce9fded8db0ce3d3366c58764ec3a8e4c2b9e52e4ddfe5ebbf78282604051612635929190614146565b60405180910390a1505050565b61264d858484611dcf565b73ffffffffffffffffffffffffffffffffffffffff83163b15610fe457610fe4846000858585613910565b612683838284611d23565b60008181526020848152604080832073ffffffffffffffffffffffffffffffffffffffff86168085529083529281902080547fffffffffffffffffffffffffffffffffffffffffffffffffffffffffffffff0016905580518481529182018390528101919091527ff6391f5c32d9c69d2a47ea670b442974b53935d1edc7fd64eb21e047a839171b90606001612635565b73ffffffffffffffffffffffffffffffffffffffff8116611768576040517f6fe1b4c800000000000000000000000000000000000000000000000000000000815260040160405180910390fd5b606081600101805461121890614575565b8151815181146127de576040517f08c379a000000000000000000000000000000000000000000000000000000000815260206004820152601b60248201527f4552433732313a20696e636f6e73697374656e7420617272617973000000000060448201526064016109f2565b60005b818114610fe45761282f8482815181106127fd576127fd614504565b602002602001015184838151811061281757612817614504565b602002602001015187611dcf9092919063ffffffff16565b6001016127e1565b8273ffffffffffffffffffffffffffffffffffffffff168273ffffffffffffffffffffffffffffffffffffffff16036128cc576040517f08c379a000000000000000000000000000000000000000000000000000000000815260206004820152601d60248201527f4552433732313a2073656c662d617070726f76616c20666f7220616c6c00000060448201526064016109f2565b73ffffffffffffffffffffffffffffffffffffffff838116600081815260038701602090815260408083209487168084529482529182902080547fffffffffffffffffffffffffffffffffffffffffffffffffffffffffffffff001686151590811790915591519182527f17307eab39ab6107e8899845ad3d59bd9653f200f220920489ca2b5937696c31910160405180910390a350505050565b61297487878787876117e7565b73ffffffffffffffffffffffffffffffffffffffff84163b156129d4576129d48686868686868080601f01602080910402602001604051908101604052809392919081815260200183838082843760009201919091525061391092505050565b50505050505050565b6060826129e983613b42565b6040516020016129fa929190614815565b604051602081830303815290604052905092915050565b60008381526020858152604080832073ffffffffffffffffffffffffffffffffffffffff8616845290915290205460ff16156107c15760008381526020858152604080832073ffffffffffffffffffffffffffffffffffffffff8681168086529184529382902080547fffffffffffffffffffffffffffffffffffffffffffffffffffffffffffffff00169055815187815292830152918316918101919091527ff6391f5c32d9c69d2a47ea670b442974b53935d1edc7fd64eb21e047a839171b90606001611d0a565b6000612ae886858761359f565b90508160005b818114612cf2576000858583818110612b0957612b09614504565b602090810292909201356000818152928c905260409092205491925081905073ffffffffffffffffffffffffffffffffffffffff168873ffffffffffffffffffffffffffffffffffffffff1614612bbc576040517f08c379a000000000000000000000000000000000000000000000000000000000815260206004820152601760248201527f4552433732313a206e6f6e2d6f776e656420746f6b656e00000000000000000060448201526064016109f2565b84612c755774010000000000000000000000000000000000000000811615158015612c0f5750600082815260028b01602052604090205473ffffffffffffffffffffffffffffffffffffffff8a81169116145b612c75576040517f08c379a000000000000000000000000000000000000000000000000000000000815260206004820152601b60248201527f4552433732313a206e6f6e2d617070726f7665642073656e646572000000000060448201526064016109f2565b600082815260208b905260408082207fdead00000000000000000000000000000000000000000000000000000000000090555183919073ffffffffffffffffffffffffffffffffffffffff8b16907fddf252ad1be2c89b69c2b068fc378daa952ba7f163c4a11628f55a4df523b3ef908390a45050600101612aee565b5080156129d45773ffffffffffffffffffffffffffffffffffffffff8516600090815260018801602052604090208054829003905550505050505050565b825473ffffffffffffffffffffffffffffffffffffffff9081169083168114612db5576040517f08c379a000000000000000000000000000000000000000000000000000000000815260206004820152601860248201527f4f776e6572736869703a206e6f7420746865206f776e6572000000000000000060448201526064016109f2565b8173ffffffffffffffffffffffffffffffffffffffff168173ffffffffffffffffffffffffffffffffffffffff16146107c15783547fffffffffffffffffffffffff00000000000000000000000000000000000000001673ffffffffffffffffffffffffffffffffffffffff8381169182178655604051908316907f8be0079c531659141344cd1fd0a4f28419497f9722a3daafe3b4186f6b6457e090600090a350505050565b73ffffffffffffffffffffffffffffffffffffffff8316612ed9576040517f08c379a000000000000000000000000000000000000000000000000000000000815260206004820152601e60248201527f4552433732313a207472616e7366657220746f2061646472657373283029000060448201526064016109f2565b6000612ee687868861359f565b90508160005b818114613150576000858583818110612f0757612f07614504565b602090810292909201356000818152928d90526040909220549192505073ffffffffffffffffffffffffffffffffffffffff8116612fa1576040517f08c379a000000000000000000000000000000000000000000000000000000000815260206004820152601a60248201527f4552433732313a206e6f6e2d6578697374696e6720746f6b656e00000000000060448201526064016109f2565b73ffffffffffffffffffffffffffffffffffffffff89168173ffffffffffffffffffffffffffffffffffffffff1614613036576040517f08c379a000000000000000000000000000000000000000000000000000000000815260206004820152601760248201527f4552433732313a206e6f6e2d6f776e656420746f6b656e00000000000000000060448201526064016109f2565b846130ef57740100000000000000000000000000000000000000008116151580156130895750600082815260028c01602052604090205473ffffffffffffffffffffffffffffffffffffffff8b81169116145b6130ef576040517f08c379a000000000000000000000000000000000000000000000000000000000815260206004820152601b60248201527f4552433732313a206e6f6e2d617070726f7665642073656e646572000000000060448201526064016109f2565b600082815260208c9052604080822073ffffffffffffffffffffffffffffffffffffffff808c16918290559151859391928d16917fddf252ad1be2c89b69c2b068fc378daa952ba7f163c4a11628f55a4df523b3ef91a45050600101612eec565b508473ffffffffffffffffffffffffffffffffffffffff168673ffffffffffffffffffffffffffffffffffffffff161415801561318c57508015155b15610a945773ffffffffffffffffffffffffffffffffffffffff808716600090815260018a016020526040808220805485900390559187168152208054820190555050505050505050565b80471015613241576040517f08c379a000000000000000000000000000000000000000000000000000000000815260206004820152601d60248201527f416464726573733a20696e73756666696369656e742062616c616e636500000060448201526064016109f2565b60008273ffffffffffffffffffffffffffffffffffffffff168260405160006040518083038185875af1925050503d806000811461329b576040519150601f19603f3d011682016040523d82523d6000602084013e6132a0565b606091505b5050905080610818576040517f08c379a000000000000000000000000000000000000000000000000000000000815260206004820152603a60248201527f416464726573733a20756e61626c6520746f2073656e642076616c75652c207260448201527f6563697069656e74206d6179206861766520726576657274656400000000000060648201526084016109f2565b815473ffffffffffffffffffffffffffffffffffffffff16801580159061336f575060008173ffffffffffffffffffffffffffffffffffffffff163b115b15610818576040517fc617113400000000000000000000000000000000000000000000000000000000815230600482015273ffffffffffffffffffffffffffffffffffffffff838116602483015282169063c617113490604401602060405180830381865afa1580156133e6573d6000803e3d6000fd5b505050506040513d601f19601f8201168201806040525081019061340a91906148ba565b610818576040517fede71dcc00000000000000000000000000000000000000000000000000000000815273ffffffffffffffffffffffffffffffffffffffff831660048201526024016109f2565b6000333214806134685750601836105b1561347257503390565b7fffffffffffffffffffffffffffffffffffffffffffffffffffffffffffffffec36013560601c7f000000000000000000000000000000000000000000000000000000000000000073ffffffffffffffffffffffffffffffffffffffff1633148061358e57506040517f8929a8ca00000000000000000000000000000000000000000000000000000000815273ffffffffffffffffffffffffffffffffffffffff82811660048301523360248301527f00000000000000000000000000000000000000000000000000000000000000001690638929a8ca90604401602060405180830381865afa15801561356a573d6000803e3d6000fd5b505050506040513d601f19601f8201168201806040525081019061358e91906148ba565b1561359857919050565b3391505090565b60008173ffffffffffffffffffffffffffffffffffffffff168373ffffffffffffffffffffffffffffffffffffffff1614806122a257505073ffffffffffffffffffffffffffffffffffffffff9182166000908152600393909301602090815260408085209290931684525290205460ff1690565b366000333214806136255750601836105b156136335750600091369150565b3373ffffffffffffffffffffffffffffffffffffffff7f0000000000000000000000000000000000000000000000000000000000000000161480613768575073ffffffffffffffffffffffffffffffffffffffff7f000000000000000000000000000000000000000000000000000000000000000016638929a8ca367fffffffffffffffffffffffffffffffffffffffffffffffffffffffffffffffec013560601c6040517fffffffff0000000000000000000000000000000000000000000000000000000060e084901b16815273ffffffffffffffffffffffffffffffffffffffff9091166004820152336024820152604401602060405180830381865afa158015613744573d6000803e3d6000fd5b505050506040513d601f19601f8201168201806040525081019061376891906148ba565b1561377557610828613c00565b50600091369150565b6060600082900361379d57505060408051602081019091526000815290565b6000826040516020016137b291815260200190565b604080517fffffffffffffffffffffffffffffffffffffffffffffffffffffffffffffffe08184030181529190529050601f5b8181815181106137f7576137f7614504565b01602001517fff000000000000000000000000000000000000000000000000000000000000001660000361384c577fffffffffffffffffffffffffffffffffffffffffffffffffffffffffffffffff016137e5565b60008160010167ffffffffffffffff81111561386a5761386a614686565b6040519080825280601f01601f191660200182016040528015613894576020820181803683370190505b50905060005b828111613907578381815181106138b3576138b3614504565b602001015160f81c60f81b8282815181106138d0576138d0614504565b60200101907effffffffffffffffffffffffffffffffffffffffffffffffffffffffffffff1916908160001a90535060010161389a565b50949350505050565b6040517f150b7a02000000000000000000000000000000000000000000000000000000008082529073ffffffffffffffffffffffffffffffffffffffff85169063150b7a029061396a9089908990889088906004016148d7565b6020604051808303816000875af1158015613989573d6000803e3d6000fd5b505050506040513d601f19601f820116820180604052508101906139ad9190614920565b7fffffffff000000000000000000000000000000000000000000000000000000001614610fe4576040517f08c379a000000000000000000000000000000000000000000000000000000000815260206004820152601e60248201527f4552433732313a2073616665207472616e736665722072656a6563746564000060448201526064016109f2565b6000613a98826040518060400160405280602081526020017f5361666545524332303a206c6f772d6c6576656c2063616c6c206661696c65648152508573ffffffffffffffffffffffffffffffffffffffff16613c319092919063ffffffff16565b8051909150156108185780806020019051810190613ab691906148ba565b610818576040517f08c379a000000000000000000000000000000000000000000000000000000000815260206004820152602a60248201527f5361666545524332303a204552433230206f7065726174696f6e20646964206e60448201527f6f7420737563636565640000000000000000000000000000000000000000000060648201526084016109f2565b60606000613b4f83613c40565b600101905060008167ffffffffffffffff811115613b6f57613b6f614686565b6040519080825280601f01601f191660200182016040528015613b99576020820181803683370190505b5090508181016020015b7fffffffffffffffffffffffffffffffffffffffffffffffffffffffffffffffff017f3031323334353637383961626364656600000000000000000000000000000000600a86061a8153600a8504945084613ba357509392505050565b3660006108287fffffffffffffffffffffffffffffffffffffffffffffffffffffffffffffffec830182848161493d565b60606122a28484600085613d22565b6000807a184f03e93ff9f4daa797ed6e38ed64bf6a1f0100000000000000008310613c89577a184f03e93ff9f4daa797ed6e38ed64bf6a1f010000000000000000830492506040015b6d04ee2d6d415b85acef81000000008310613cb5576d04ee2d6d415b85acef8100000000830492506020015b662386f26fc100008310613cd357662386f26fc10000830492506010015b6305f5e1008310613ceb576305f5e100830492506008015b6127108310613cff57612710830492506004015b60648310613d11576064830492506002015b600a831061069e5760010192915050565b606082471015613db4576040517f08c379a000000000000000000000000000000000000000000000000000000000815260206004820152602660248201527f416464726573733a20696e73756666696369656e742062616c616e636520666f60448201527f722063616c6c000000000000000000000000000000000000000000000000000060648201526084016109f2565b6000808673ffffffffffffffffffffffffffffffffffffffff168587604051613ddd9190614967565b60006040518083038185875af1925050503d8060008114613e1a576040519150601f19603f3d011682016040523d82523d6000602084013e613e1f565b606091505b5091509150613e3087838387613e3b565b979650505050505050565b60608315613ed1578251600003613eca5773ffffffffffffffffffffffffffffffffffffffff85163b613eca576040517f08c379a000000000000000000000000000000000000000000000000000000000815260206004820152601d60248201527f416464726573733a2063616c6c20746f206e6f6e2d636f6e747261637400000060448201526064016109f2565b50816122a2565b6122a28383815115613ee65781518083602001fd5b806040517f08c379a00000000000000000000000000000000000000000000000000000000081526004016109f29190613fd3565b7fffffffff000000000000000000000000000000000000000000000000000000008116811461078657600080fd5b600060208284031215613f5a57600080fd5b8135610bff81613f1a565b60005b83811015613f80578181015183820152602001613f68565b50506000910152565b60008151808452613fa1816020860160208601613f65565b601f017fffffffffffffffffffffffffffffffffffffffffffffffffffffffffffffffe0169290920160200192915050565b602081526000610bff6020830184613f89565b600060208284031215613ff857600080fd5b5035919050565b73ffffffffffffffffffffffffffffffffffffffff8116811461078657600080fd5b6000806040838503121561403457600080fd5b823561403f81613fff565b946020939093013593505050565b60006020828403121561405f57600080fd5b8135610bff81613fff565b60008060006060848603121561407f57600080fd5b833561408a81613fff565b9250602084013561409a81613fff565b929592945050506040919091013590565b600080604083850312156140be57600080fd5b50508035926020909101359150565b600080604083850312156140e057600080fd5b8235915060208301356140f281613fff565b809150509250929050565b8183528181602085013750600060208284010152600060207fffffffffffffffffffffffffffffffffffffffffffffffffffffffffffffffe0601f840116840101905092915050565b6020815260006122a26020830184866140fd565b60008083601f84011261416c57600080fd5b50813567ffffffffffffffff81111561418457600080fd5b6020830191508360208260051b85010111156107e357600080fd5b6000806000604084860312156141b457600080fd5b83356141bf81613fff565b9250602084013567ffffffffffffffff8111156141db57600080fd5b6141e78682870161415a565b9497909650939450505050565b6000806000806000806060878903121561420d57600080fd5b863567ffffffffffffffff8082111561422557600080fd5b6142318a838b0161415a565b9098509650602089013591508082111561424a57600080fd5b6142568a838b0161415a565b9096509450604089013591508082111561426f57600080fd5b5061427c89828a0161415a565b979a9699509497509295939492505050565b60008083601f8401126142a057600080fd5b50813567ffffffffffffffff8111156142b857600080fd5b6020830191508360208285010111156107e357600080fd5b600080602083850312156142e357600080fd5b823567ffffffffffffffff8111156142fa57600080fd5b6143068582860161428e565b90969095509350505050565b6000806000806060858703121561432857600080fd5b843561433381613fff565b935060208501359250604085013567ffffffffffffffff81111561435657600080fd5b6143628782880161428e565b95989497509550505050565b6000806000806040858703121561438457600080fd5b843567ffffffffffffffff8082111561439c57600080fd5b6143a88883890161415a565b909650945060208701359150808211156143c157600080fd5b506143628782880161415a565b801515811461078657600080fd5b600080604083850312156143ef57600080fd5b82356143fa81613fff565b915060208301356140f2816143ce565b60008060008060006080868803121561442257600080fd5b853561442d81613fff565b9450602086013561443d81613fff565b935060408601359250606086013567ffffffffffffffff81111561446057600080fd5b61446c8882890161428e565b969995985093965092949392505050565b6000806040838503121561449057600080fd5b823561449b81613fff565b915060208301356140f281613fff565b600080600080606085870312156144c157600080fd5b84356144cc81613fff565b935060208501356144dc81613fff565b9250604085013567ffffffffffffffff8111156144f857600080fd5b6143628782880161415a565b7f4e487b7100000000000000000000000000000000000000000000000000000000600052603260045260246000fd5b7f4e487b7100000000000000000000000000000000000000000000000000000000600052601160045260246000fd5b8181038181111561069e5761069e614533565b600181811c9082168061458957607f821691505b6020821081036145c2577f4e487b7100000000000000000000000000000000000000000000000000000000600052602260045260246000fd5b50919050565b808202811582820484141761069e5761069e614533565b600082614615577f4e487b7100000000000000000000000000000000000000000000000000000000600052601260045260246000fd5b500490565b7f416363657373436f6e74726f6c3a206d697373696e6720270000000000000000815260008251614652816018850160208701613f65565b7f2720726f6c6500000000000000000000000000000000000000000000000000006018939091019283015250601e01919050565b7f4e487b7100000000000000000000000000000000000000000000000000000000600052604160045260246000fd5b601f82111561081857600081815260208120601f850160051c810160208610156146dc5750805b601f850160051c820191505b81811015610d2d578281556001016146e8565b67ffffffffffffffff83111561471357614713614686565b614727836147218354614575565b836146b5565b6000601f84116001811461477957600085156147435750838201355b7fffffffffffffffffffffffffffffffffffffffffffffffffffffffffffffffff600387901b1c1916600186901b178355610fe4565b6000838152602090207fffffffffffffffffffffffffffffffffffffffffffffffffffffffffffffffe0861690835b828110156147c857868501358255602094850194600190920191016147a8565b5086821015614803577fffffffffffffffffffffffffffffffffffffffffffffffffffffffffffffffff60f88860031b161c19848701351681555b505060018560011b0183555050505050565b600080845461482381614575565b6001828116801561483b576001811461486e5761489d565b7fffffffffffffffffffffffffffffffffffffffffffffffffffffffffffffff008416875282151583028701945061489d565b8860005260208060002060005b858110156148945781548a82015290840190820161487b565b50505082870194505b5050505083516148b1818360208801613f65565b01949350505050565b6000602082840312156148cc57600080fd5b8151610bff816143ce565b600073ffffffffffffffffffffffffffffffffffffffff8087168352808616602084015250836040830152608060608301526149166080830184613f89565b9695505050505050565b60006020828403121561493257600080fd5b8151610bff81613f1a565b6000808585111561494d57600080fd5b8386111561495a57600080fd5b5050820193919092039150565b60008251614979818460208701613f65565b919091019291505056fea26469706673582212205d97b59fb1b1e016c926fc2b312042ee790393139e89ff9ed7eaba136e81541a64736f6c63430008130033",
  "linkReferences": {},
  "deployedLinkReferences": {}
}