{
  "_format": "hh-sol-artifact-1",
  "contractName": "REVVRacingNFTMock",
  "sourceName": "contracts/mocks/token/ERC721/REVVRacingNFTMock.sol",
  "abi": [
    {
      "inputs": [
        {
          "internalType": "contract IForwarderRegistry",
          "name": "forwarderRegistry",
          "type": "address"
        }
      ],
      "stateMutability": "nonpayable",
      "type": "constructor"
    },
    {
      "anonymous": false,
      "inputs": [
        {
          "indexed": true,
          "internalType": "address",
          "name": "owner",
          "type": "address"
        },
        {
          "indexed": true,
          "internalType": "address",
          "name": "approved",
          "type": "address"
        },
        {
          "indexed": true,
          "internalType": "uint256",
          "name": "tokenId",
          "type": "uint256"
        }
      ],
      "name": "Approval",
      "type": "event"
    },
    {
      "anonymous": false,
      "inputs": [
        {
          "indexed": true,
          "internalType": "address",
          "name": "owner",
          "type": "address"
        },
        {
          "indexed": true,
          "internalType": "address",
          "name": "operator",
          "type": "address"
        },
        {
          "indexed": false,
          "internalType": "bool",
          "name": "approved",
          "type": "bool"
        }
      ],
      "name": "ApprovalForAll",
      "type": "event"
    },
    {
      "anonymous": false,
      "inputs": [
        {
          "indexed": false,
          "internalType": "string",
          "name": "baseMetadataURI",
          "type": "string"
        }
      ],
      "name": "BaseMetadataURISet",
      "type": "event"
    },
    {
      "anonymous": false,
      "inputs": [
        {
          "indexed": true,
          "internalType": "address",
          "name": "previousOwner",
          "type": "address"
        },
        {
          "indexed": true,
          "internalType": "address",
          "name": "newOwner",
          "type": "address"
        }
      ],
      "name": "OwnershipTransferred",
      "type": "event"
    },
    {
      "anonymous": false,
      "inputs": [
        {
          "indexed": false,
          "internalType": "bytes32",
          "name": "role",
          "type": "bytes32"
        },
        {
          "indexed": false,
          "internalType": "address",
          "name": "account",
          "type": "address"
        },
        {
          "indexed": false,
          "internalType": "address",
          "name": "operator",
          "type": "address"
        }
      ],
      "name": "RoleGranted",
      "type": "event"
    },
    {
      "anonymous": false,
      "inputs": [
        {
          "indexed": false,
          "internalType": "bytes32",
          "name": "role",
          "type": "bytes32"
        },
        {
          "indexed": false,
          "internalType": "address",
          "name": "account",
          "type": "address"
        },
        {
          "indexed": false,
          "internalType": "address",
          "name": "operator",
          "type": "address"
        }
      ],
      "name": "RoleRevoked",
      "type": "event"
    },
    {
      "anonymous": false,
      "inputs": [
        {
          "indexed": true,
          "internalType": "address",
          "name": "from",
          "type": "address"
        },
        {
          "indexed": true,
          "internalType": "address",
          "name": "to",
          "type": "address"
        },
        {
          "indexed": true,
          "internalType": "uint256",
          "name": "tokenId",
          "type": "uint256"
        }
      ],
      "name": "Transfer",
      "type": "event"
    },
    {
      "inputs": [],
      "name": "MINTER_ROLE",
      "outputs": [
        {
          "internalType": "bytes32",
          "name": "",
          "type": "bytes32"
        }
      ],
      "stateMutability": "view",
      "type": "function"
    },
    {
      "inputs": [],
      "name": "__msgData",
      "outputs": [
        {
          "internalType": "bytes",
          "name": "",
          "type": "bytes"
        }
      ],
      "stateMutability": "view",
      "type": "function"
    },
    {
      "inputs": [
        {
          "internalType": "address",
          "name": "to",
          "type": "address"
        },
        {
          "internalType": "uint256",
          "name": "tokenId",
          "type": "uint256"
        }
      ],
      "name": "approve",
      "outputs": [],
      "stateMutability": "nonpayable",
      "type": "function"
    },
    {
      "inputs": [
        {
          "internalType": "address",
          "name": "owner",
          "type": "address"
        }
      ],
      "name": "balanceOf",
      "outputs": [
        {
          "internalType": "uint256",
          "name": "balance",
          "type": "uint256"
        }
      ],
      "stateMutability": "view",
      "type": "function"
    },
    {
      "inputs": [],
      "name": "baseMetadataURI",
      "outputs": [
        {
          "internalType": "string",
          "name": "baseURI",
          "type": "string"
        }
      ],
      "stateMutability": "view",
      "type": "function"
    },
    {
      "inputs": [
        {
          "internalType": "address",
          "name": "from",
          "type": "address"
        },
        {
          "internalType": "uint256[]",
          "name": "tokenIds",
          "type": "uint256[]"
        }
      ],
      "name": "batchBurnFrom",
      "outputs": [],
      "stateMutability": "nonpayable",
      "type": "function"
    },
    {
      "inputs": [
        {
          "internalType": "address",
          "name": "to",
          "type": "address"
        },
        {
          "internalType": "uint256[]",
          "name": "tokenIds",
          "type": "uint256[]"
        }
      ],
      "name": "batchMint",
      "outputs": [],
      "stateMutability": "nonpayable",
      "type": "function"
    },
    {
      "inputs": [
        {
          "internalType": "address",
          "name": "from",
          "type": "address"
        },
        {
          "internalType": "address",
          "name": "to",
          "type": "address"
        },
        {
          "internalType": "uint256[]",
          "name": "tokenIds",
          "type": "uint256[]"
        }
      ],
      "name": "batchTransferFrom",
      "outputs": [],
      "stateMutability": "nonpayable",
      "type": "function"
    },
    {
      "inputs": [
        {
          "internalType": "address",
          "name": "from",
          "type": "address"
        },
        {
          "internalType": "uint256",
          "name": "tokenId",
          "type": "uint256"
        }
      ],
      "name": "burnFrom",
      "outputs": [],
      "stateMutability": "nonpayable",
      "type": "function"
    },
    {
      "inputs": [
        {
          "internalType": "address[]",
          "name": "recipients",
          "type": "address[]"
        },
        {
          "internalType": "uint256[]",
          "name": "tokenIds",
          "type": "uint256[]"
        }
      ],
      "name": "deliver",
      "outputs": [],
      "stateMutability": "nonpayable",
      "type": "function"
    },
    {
      "inputs": [],
      "name": "forwarderRegistry",
      "outputs": [
        {
          "internalType": "contract IForwarderRegistry",
          "name": "",
          "type": "address"
        }
      ],
      "stateMutability": "view",
      "type": "function"
    },
    {
      "inputs": [
        {
          "internalType": "uint256",
          "name": "tokenId",
          "type": "uint256"
        }
      ],
      "name": "getApproved",
      "outputs": [
        {
          "internalType": "address",
          "name": "approved",
          "type": "address"
        }
      ],
      "stateMutability": "view",
      "type": "function"
    },
    {
      "inputs": [
        {
          "internalType": "bytes32",
          "name": "role",
          "type": "bytes32"
        },
        {
          "internalType": "address",
          "name": "account",
          "type": "address"
        }
      ],
      "name": "grantRole",
      "outputs": [],
      "stateMutability": "nonpayable",
      "type": "function"
    },
    {
      "inputs": [
        {
          "internalType": "bytes32",
          "name": "role",
          "type": "bytes32"
        },
        {
          "internalType": "address",
          "name": "account",
          "type": "address"
        }
      ],
      "name": "hasRole",
      "outputs": [
        {
          "internalType": "bool",
          "name": "",
          "type": "bool"
        }
      ],
      "stateMutability": "view",
      "type": "function"
    },
    {
      "inputs": [
        {
          "internalType": "address",
          "name": "owner",
          "type": "address"
        },
        {
          "internalType": "address",
          "name": "operator",
          "type": "address"
        }
      ],
      "name": "isApprovedForAll",
      "outputs": [
        {
          "internalType": "bool",
          "name": "approvedForAll",
          "type": "bool"
        }
      ],
      "stateMutability": "view",
      "type": "function"
    },
    {
      "inputs": [
        {
          "internalType": "address",
          "name": "forwarder",
          "type": "address"
        }
      ],
      "name": "isTrustedForwarder",
      "outputs": [
        {
          "internalType": "bool",
          "name": "",
          "type": "bool"
        }
      ],
      "stateMutability": "view",
      "type": "function"
    },
    {
      "inputs": [
        {
          "internalType": "address",
          "name": "to",
          "type": "address"
        },
        {
          "internalType": "uint256",
          "name": "tokenId",
          "type": "uint256"
        }
      ],
      "name": "mint",
      "outputs": [],
      "stateMutability": "nonpayable",
      "type": "function"
    },
    {
      "inputs": [],
      "name": "name",
      "outputs": [
        {
          "internalType": "string",
          "name": "tokenName",
          "type": "string"
        }
      ],
      "stateMutability": "view",
      "type": "function"
    },
    {
      "inputs": [],
      "name": "owner",
      "outputs": [
        {
          "internalType": "address",
          "name": "",
          "type": "address"
        }
      ],
      "stateMutability": "view",
      "type": "function"
    },
    {
      "inputs": [
        {
          "internalType": "uint256",
          "name": "tokenId",
          "type": "uint256"
        }
      ],
      "name": "ownerOf",
      "outputs": [
        {
          "internalType": "address",
          "name": "tokenOwner",
          "type": "address"
        }
      ],
      "stateMutability": "view",
      "type": "function"
    },
    {
      "inputs": [
        {
          "internalType": "address[]",
          "name": "accounts",
          "type": "address[]"
        },
        {
          "internalType": "contract IERC20[]",
          "name": "tokens",
          "type": "address[]"
        },
        {
          "internalType": "uint256[]",
          "name": "amounts",
          "type": "uint256[]"
        }
      ],
      "name": "recoverERC20s",
      "outputs": [],
      "stateMutability": "nonpayable",
      "type": "function"
    },
    {
      "inputs": [
        {
          "internalType": "address[]",
          "name": "accounts",
          "type": "address[]"
        },
        {
          "internalType": "contract IERC721[]",
          "name": "contracts",
          "type": "address[]"
        },
        {
          "internalType": "uint256[]",
          "name": "tokenIds",
          "type": "uint256[]"
        }
      ],
      "name": "recoverERC721s",
      "outputs": [],
      "stateMutability": "nonpayable",
      "type": "function"
    },
    {
      "inputs": [
        {
          "internalType": "address payable[]",
          "name": "accounts",
          "type": "address[]"
        },
        {
          "internalType": "uint256[]",
          "name": "amounts",
          "type": "uint256[]"
        }
      ],
      "name": "recoverETH",
      "outputs": [],
      "stateMutability": "nonpayable",
      "type": "function"
    },
    {
      "inputs": [
        {
          "internalType": "bytes32",
          "name": "role",
          "type": "bytes32"
        }
      ],
      "name": "renounceRole",
      "outputs": [],
      "stateMutability": "nonpayable",
      "type": "function"
    },
    {
      "inputs": [
        {
          "internalType": "bytes32",
          "name": "role",
          "type": "bytes32"
        },
        {
          "internalType": "address",
          "name": "account",
          "type": "address"
        }
      ],
      "name": "revokeRole",
      "outputs": [],
      "stateMutability": "nonpayable",
      "type": "function"
    },
    {
      "inputs": [
        {
          "internalType": "address",
          "name": "to",
          "type": "address"
        },
        {
          "internalType": "uint256",
          "name": "tokenId",
          "type": "uint256"
        },
        {
          "internalType": "bytes",
          "name": "data",
          "type": "bytes"
        }
      ],
      "name": "safeMint",
      "outputs": [],
      "stateMutability": "nonpayable",
      "type": "function"
    },
    {
      "inputs": [
        {
          "internalType": "address",
          "name": "from",
          "type": "address"
        },
        {
          "internalType": "address",
          "name": "to",
          "type": "address"
        },
        {
          "internalType": "uint256",
          "name": "tokenId",
          "type": "uint256"
        }
      ],
      "name": "safeTransferFrom",
      "outputs": [],
      "stateMutability": "nonpayable",
      "type": "function"
    },
    {
      "inputs": [
        {
          "internalType": "address",
          "name": "from",
          "type": "address"
        },
        {
          "internalType": "address",
          "name": "to",
          "type": "address"
        },
        {
          "internalType": "uint256",
          "name": "tokenId",
          "type": "uint256"
        },
        {
          "internalType": "bytes",
          "name": "data",
          "type": "bytes"
        }
      ],
      "name": "safeTransferFrom",
      "outputs": [],
      "stateMutability": "nonpayable",
      "type": "function"
    },
    {
      "inputs": [
        {
          "internalType": "address",
          "name": "operator",
          "type": "address"
        },
        {
          "internalType": "bool",
          "name": "approved",
          "type": "bool"
        }
      ],
      "name": "setApprovalForAll",
      "outputs": [],
      "stateMutability": "nonpayable",
      "type": "function"
    },
    {
      "inputs": [
        {
          "internalType": "string",
          "name": "baseURI",
          "type": "string"
        }
      ],
      "name": "setBaseMetadataURI",
      "outputs": [],
      "stateMutability": "nonpayable",
      "type": "function"
    },
    {
      "inputs": [
        {
          "internalType": "bytes4",
          "name": "interfaceId",
          "type": "bytes4"
        }
      ],
      "name": "supportsInterface",
      "outputs": [
        {
          "internalType": "bool",
          "name": "",
          "type": "bool"
        }
      ],
      "stateMutability": "view",
      "type": "function"
    },
    {
      "inputs": [],
      "name": "symbol",
      "outputs": [
        {
          "internalType": "string",
          "name": "tokenSymbol",
          "type": "string"
        }
      ],
      "stateMutability": "view",
      "type": "function"
    },
    {
      "inputs": [
        {
          "internalType": "uint256",
          "name": "tokenId",
          "type": "uint256"
        }
      ],
      "name": "tokenURI",
      "outputs": [
        {
          "internalType": "string",
          "name": "uri",
          "type": "string"
        }
      ],
      "stateMutability": "view",
      "type": "function"
    },
    {
      "inputs": [
        {
          "internalType": "address",
          "name": "from",
          "type": "address"
        },
        {
          "internalType": "address",
          "name": "to",
          "type": "address"
        },
        {
          "internalType": "uint256",
          "name": "tokenId",
          "type": "uint256"
        }
      ],
      "name": "transferFrom",
      "outputs": [],
      "stateMutability": "nonpayable",
      "type": "function"
    },
    {
      "inputs": [
        {
          "internalType": "address",
          "name": "newOwner",
          "type": "address"
        }
      ],
      "name": "transferOwnership",
      "outputs": [],
      "stateMutability": "nonpayable",
      "type": "function"
    }
  ],
  "bytecode": "0x60a06040523480156200001157600080fd5b5060405162004d4238038062004d428339810160408190526200003491620004e0565b8080806040518060400160405280600f81526020016e1491559588149858da5b99c8139195608a1b81525060405180604001604052806002815260200161292960f11b8152506040518060200160405280600081525033620000a06200019a60201b62000e971760201c565b620000b5620001d460201b62000ece1760201c565b620000e381620000cf620001f760201b62000efc1760201c565b6200022d60201b62000f2a1790919060201c565b50620001148383620000ff620002ab60201b62000fe01760201c565b620002db60201b6200100e179092919060201c565b62000142816200012e6200032260201b620010571760201c565b6200035260201b620010851790919060201c565b5050506200015a6200036c60201b6200108f1760201c565b6200016f6200038f60201b620010bd1760201c565b62000184620003b260201b620010eb1760201c565b6001600160a01b031660805250620006f4915050565b620001d26380ac58cd60e01b6001620001bd620003d560201b620011151760201c565b6200040560201b62001143179092919060201c565b565b620001d263f3993d1160e01b6001620001bd620003d560201b620011151760201c565b6000806200022760017fc9ed16f33ab3a66c84bfd83099ccb2a8845871e2e1c1928f63797152f0fd54cd62000512565b92915050565b6001600160a01b03811615620002845781546001600160a01b0319166001600160a01b03821690811783556040516000907f8be0079c531659141344cd1fd0a4f28419497f9722a3daafe3b4186f6b6457e0908290a35b620002a76307f5828d60e41b6001620001bd620003d560201b620011151760201c565b5050565b6000806200022760017f9c4269c0f9f430d98876ffe9767fbf3f3232ea91a549beb549e5329532520eb362000512565b82620002e88382620005d8565b5060018301620002f98282620005d8565b506200031d635b5e139f60e01b6001620001bd620003d560201b620011151760201c565b505050565b6000806200022760017fe94434e3c6b941c5d90218142fadcc69cb2e13723993540bfa1c131dd1d3475a62000512565b620002a781836200049560201b6200124f1790919060201c565b620001d2638b8b4ef560e01b6001620001bd620003d560201b620011151760201c565b620001d2638e773e1360e01b6001620001bd620003d560201b620011151760201c565b620001d2634ed2f41960e11b6001620001bd620003d560201b620011151760201c565b6000806200022760017fca9d3e17f264b0f3984e2634e94adb37fa3e6a8103f06aeae6fa59e21c769f5e62000512565b600160e01b6001600160e01b0319831601620004675760405162461bcd60e51b815260206004820152601f60248201527f496e74657266616365446574656374696f6e3a2077726f6e672076616c756500604482015260640160405180910390fd5b6001600160e01b03199190911660009081526020929092526040909120805460ff1916911515919091179055565b81620004a28282620005d8565b507f04b1dc5c136a3ce9fded8db0ce3d3366c58764ec3a8e4c2b9e52e4ddfe5ebbf781604051620004d49190620006a4565b60405180910390a15050565b600060208284031215620004f357600080fd5b81516001600160a01b03811681146200050b57600080fd5b9392505050565b818103818111156200022757634e487b7160e01b600052601160045260246000fd5b634e487b7160e01b600052604160045260246000fd5b600181811c908216806200055f57607f821691505b6020821081036200058057634e487b7160e01b600052602260045260246000fd5b50919050565b601f8211156200031d57600081815260208120601f850160051c81016020861015620005af5750805b601f850160051c820191505b81811015620005d057828155600101620005bb565b505050505050565b81516001600160401b03811115620005f457620005f462000534565b6200060c816200060584546200054a565b8462000586565b602080601f8311600181146200064457600084156200062b5750858301515b600019600386901b1c1916600185901b178555620005d0565b600085815260208120601f198616915b82811015620006755788860151825594840194600190910190840162000654565b5085821015620006945787850151600019600388901b60f8161c191681555b5050505050600190811b01905550565b600060208083528351808285015260005b81811015620006d357858101830151858201604001528201620006b5565b506000604082860101526040601f19601f8301168501019250505092915050565b60805161460f62000733600039600081816102e50152818161037b015281816131dc015281816132640152818161338c01526133ca015261460f6000f3fe608060405234801561001057600080fd5b50600436106102415760003560e01c80637e518ec811610145578063c3666c36116100bd578063e985e9c51161008c578063f2fde38b11610071578063f2fde38b14610535578063f3993d1114610548578063f7ba94bd1461055b57600080fd5b8063e985e9c51461050f578063f24729651461052257600080fd5b8063c3666c36146104af578063c87b56dd146104c2578063d5391393146104d5578063d547741f146104fc57600080fd5b806391d14854116101145780639da5e832116100f95780639da5e83214610476578063a22cb46514610489578063b88d4fde1461049c57600080fd5b806391d148541461045b57806395d89b411461046e57600080fd5b80637e518ec81461041a5780638832e6e31461042d5780638bb9c5bf146104405780638da5cb5b1461045357600080fd5b806340c10f19116101d85780635b2bd79e116101a757806370a082311161018c57806370a08231146103d357806373c8a958146103f457806379cc67901461040757600080fd5b80635b2bd79e146103b85780636352211e146103c057600080fd5b806340c10f191461033257806342842e0e146103455780634684d7e914610358578063572b6c051461036b57600080fd5b806323b872dd1161021457806323b872dd146102d05780632b4c9f16146102e35780632f2ff15d1461030957806331e66e1e1461031c57600080fd5b806301ffc9a71461024657806306fdde031461026e578063081812fc14610283578063095ea7b3146102bb575b600080fd5b610259610254366004613b79565b61056e565b60405190151581526020015b60405180910390f35b610276610588565b6040516102659190613c04565b610296610291366004613c17565b61059f565b60405173ffffffffffffffffffffffffffffffffffffffff9091168152602001610265565b6102ce6102c9366004613c52565b6105b3565b005b6102ce6102de366004613c7e565b6105d4565b7f0000000000000000000000000000000000000000000000000000000000000000610296565b6102ce610317366004613cbf565b6105f8565b61032461062c565b604051610265929190613cef565b6102ce610340366004613c52565b61063f565b6102ce610353366004613c7e565b61068e565b6102ce610366366004613d88565b6106ad565b610259610379366004613ddd565b7f000000000000000000000000000000000000000000000000000000000000000073ffffffffffffffffffffffffffffffffffffffff90811691161490565b610276610721565b6102966103ce366004613c17565b61072e565b6103e66103e1366004613ddd565b610742565b604051908152602001610265565b6102ce610402366004613dfa565b610756565b6102ce610415366004613c52565b610886565b6102ce610428366004613ed6565b6108a3565b6102ce61043b366004613f18565b6108f7565b6102ce61044e366004613c17565b61097f565b61029661099d565b610259610469366004613cbf565b6109c4565b610276610a0f565b6102ce610484366004613f74565b610a21565b6102ce610497366004613fe2565b610ac5565b6102ce6104aa366004614010565b610ae2565b6102ce6104bd366004613dfa565b610b0c565b6102766104d0366004613c17565b610cb1565b6103e67f6d696e746572000000000000000000000000000000000000000000000000000081565b6102ce61050a366004613cbf565b610cd2565b61025961051d366004614083565b610d00565b6102ce610530366004613d88565b610d4e565b6102ce610543366004613ddd565b610d6d565b6102ce6105563660046140b1565b610d88565b6102ce610569366004613f74565b610da9565b60006105828261057c611115565b90611296565b92915050565b606061059a610595610fe0565b611370565b905090565b6000610582826105ad611406565b90611434565b6105d06105be611515565b83836105c8611406565b92919061151f565b5050565b6105f36105df611515565b8484846105ea611406565b939291906117e8565b505050565b6000610602611515565b905061061681610610610efc565b90611b3d565b6105f3838383610624611bc0565b929190611bee565b366000610637611cc4565b915091509091565b61067a7f6d696e746572000000000000000000000000000000000000000000000000000061066b611515565b610673611bc0565b9190611ccf565b6105d08282610687611406565b9190611d7b565b6105f3610699611515565b8484846106a4611406565b93929190611ef2565b6106d97f6d696e746572000000000000000000000000000000000000000000000000000061066b611515565b6105f38383838080602002602001604051908101604052809392919081815260200183836020028082843760009201919091525061071a9250611406915050565b9190611f38565b606061059a610595611057565b60006105828261073c611406565b9061210c565b600061058282610750611406565b906121a2565b610769610761611515565b610610610efc565b84838114801561077857508082145b6107e3576040517f08c379a000000000000000000000000000000000000000000000000000000000815260206004820152601d60248201527f5265636f766572793a20696e636f6e73697374656e742061727261797300000060448201526064015b60405180910390fd5b60005b81811461087c576108748888838181106108025761080261410a565b90506020020160208101906108179190613ddd565b8585848181106108295761082961410a565b905060200201358888858181106108425761084261410a565b90506020020160208101906108579190613ddd565b73ffffffffffffffffffffffffffffffffffffffff16919061224e565b6001016107e6565b5050505050505050565b6105d0610891611515565b838361089b611406565b9291906122db565b6108ae610761611515565b6105d082828080601f0160208091040260200160405190810160405280939291908181526020018383808284376000920191909152506108f19250611057915050565b9061124f565b6109237f6d696e746572000000000000000000000000000000000000000000000000000061066b611515565b61097961092e611515565b858585858080601f0160208091040260200160405190810160405280939291908181526020018383808284376000920191909152506109709250611406915050565b939291906124ef565b50505050565b61099a61098a611515565b82610993611bc0565b9190612525565b50565b600061059a6109aa610efc565b5473ffffffffffffffffffffffffffffffffffffffff1690565b6000610a0883836109d3611bc0565b60009283526020908152604080842073ffffffffffffffffffffffffffffffffffffffff909316845291905290205460ff1690565b9392505050565b606061059a610a1c610fe0565b6125c9565b610a4d7f6d696e746572000000000000000000000000000000000000000000000000000061066b611515565b61097984848080602002602001604051908101604052809392919081815260200183836020028082843760009201919091525050604080516020808802828101820190935287825290935087925086918291850190849080828437600092019190915250610abe9250611406915050565b91906125da565b6105d0610ad0611515565b8383610ada611406565b92919061269f565b610b05610aed611515565b8686868686610afa611406565b9594939291906127cf565b5050505050565b610b17610761611515565b848381148015610b2657508082145b610b8c576040517f08c379a000000000000000000000000000000000000000000000000000000000815260206004820152601d60248201527f5265636f766572793a20696e636f6e73697374656e742061727261797300000060448201526064016107da565b60005b81811461087c57858582818110610ba857610ba861410a565b9050602002016020810190610bbd9190613ddd565b73ffffffffffffffffffffffffffffffffffffffff166323b872dd308a8a85818110610beb57610beb61410a565b9050602002016020810190610c009190613ddd565b878786818110610c1257610c1261410a565b6040517fffffffff0000000000000000000000000000000000000000000000000000000060e088901b16815273ffffffffffffffffffffffffffffffffffffffff958616600482015294909316602485015250602090910201356044820152606401600060405180830381600087803b158015610c8e57600080fd5b505af1158015610ca2573d6000803e3d6000fd5b50505050806001019050610b8f565b6060610cbf8261073c611406565b5061058282610ccc611057565b90612845565b6000610cdc611515565b9050610cea81610610610efc565b6105f3838383610cf8611bc0565b929190612879565b6000610a088383610d0f611406565b919073ffffffffffffffffffffffffffffffffffffffff9182166000908152600393909301602090815260408085209290931684525290205460ff1690565b6105f3610d59611515565b848484610d64611406565b93929190612943565b61099a610d78611515565b82610d81610efc565b9190612b98565b610979610d93611515565b85858585610d9f611406565b9493929190612cc4565b610db4610761611515565b82818114610e1e576040517f08c379a000000000000000000000000000000000000000000000000000000000815260206004820152601d60248201527f5265636f766572793a20696e636f6e73697374656e742061727261797300000060448201526064016107da565b60005b818114610e8f57610e87848483818110610e3d57610e3d61410a565b90506020020135878784818110610e5657610e5661410a565b9050602002016020810190610e6b9190613ddd565b73ffffffffffffffffffffffffffffffffffffffff169061303f565b600101610e21565b505050505050565b610ecc7f80ac58cd000000000000000000000000000000000000000000000000000000006001610ec5611115565b9190611143565b565b610ecc7ff3993d11000000000000000000000000000000000000000000000000000000006001610ec5611115565b60008061058260017fc9ed16f33ab3a66c84bfd83099ccb2a8845871e2e1c1928f63797152f0fd54cd614168565b73ffffffffffffffffffffffffffffffffffffffff811615610fb25781547fffffffffffffffffffffffff00000000000000000000000000000000000000001673ffffffffffffffffffffffffffffffffffffffff821690811783556040516000907f8be0079c531659141344cd1fd0a4f28419497f9722a3daafe3b4186f6b6457e0908290a35b6105d07f7f5828d0000000000000000000000000000000000000000000000000000000006001610ec5611115565b60008061058260017f9c4269c0f9f430d98876ffe9767fbf3f3232ea91a549beb549e5329532520eb3614168565b826110198382614243565b50600183016110288282614243565b506105f37f5b5e139f000000000000000000000000000000000000000000000000000000006001610ec5611115565b60008061058260017fe94434e3c6b941c5d90218142fadcc69cb2e13723993540bfa1c131dd1d3475a614168565b6105d0828261124f565b610ecc7f8b8b4ef5000000000000000000000000000000000000000000000000000000006001610ec5611115565b610ecc7f8e773e13000000000000000000000000000000000000000000000000000000006001610ec5611115565b610ecc7f9da5e832000000000000000000000000000000000000000000000000000000006001610ec55b60008061058260017fca9d3e17f264b0f3984e2634e94adb37fa3e6a8103f06aeae6fa59e21c769f5e614168565b7c01000000000000000000000000000000000000000000000000000000007fffffffff000000000000000000000000000000000000000000000000000000008316016111eb576040517f08c379a000000000000000000000000000000000000000000000000000000000815260206004820152601f60248201527f496e74657266616365446574656374696f6e3a2077726f6e672076616c75650060448201526064016107da565b7fffffffff00000000000000000000000000000000000000000000000000000000919091166000908152602092909252604090912080547fffffffffffffffffffffffffffffffffffffffffffffffffffffffffffffff0016911515919091179055565b8161125a8282614243565b507f04b1dc5c136a3ce9fded8db0ce3d3366c58764ec3a8e4c2b9e52e4ddfe5ebbf78160405161128a9190613c04565b60405180910390a15050565b60007c01000000000000000000000000000000000000000000000000000000007fffffffff000000000000000000000000000000000000000000000000000000008316016112e657506000610582565b7ffe003659000000000000000000000000000000000000000000000000000000007fffffffff0000000000000000000000000000000000000000000000000000000083160161133757506001610582565b507fffffffff00000000000000000000000000000000000000000000000000000000166000908152602091909152604090205460ff1690565b6060816000018054611381906141aa565b80601f01602080910402602001604051908101604052809291908181526020018280546113ad906141aa565b80156113fa5780601f106113cf576101008083540402835291602001916113fa565b820191906000526020600020905b8154815290600101906020018083116113dd57829003601f168201915b50505050509050919050565b60008061058260017fddf3ee18ae6d688373c219468f8be446e7ae82215f4779d821c7ea5e8c13c0c1614168565b60008181526020839052604081205473ffffffffffffffffffffffffffffffffffffffff81166114c0576040517f08c379a000000000000000000000000000000000000000000000000000000000815260206004820152601a60248201527f4552433732313a206e6f6e2d6578697374696e6720746f6b656e00000000000060448201526064016107da565b7401000000000000000000000000000000000000000081161561150b575050600081815260028301602052604090205473ffffffffffffffffffffffffffffffffffffffff16610582565b6000915050610582565b600061059a613199565b60008181526020859052604090205473ffffffffffffffffffffffffffffffffffffffff81166115ab576040517f08c379a000000000000000000000000000000000000000000000000000000000815260206004820152601a60248201527f4552433732313a206e6f6e2d6578697374696e6720746f6b656e00000000000060448201526064016107da565b8073ffffffffffffffffffffffffffffffffffffffff8082169085160361162e576040517f08c379a000000000000000000000000000000000000000000000000000000000815260206004820152601560248201527f4552433732313a2073656c662d617070726f76616c000000000000000000000060448201526064016107da565b6116398682876132e0565b61169f576040517f08c379a000000000000000000000000000000000000000000000000000000000815260206004820152601b60248201527f4552433732313a206e6f6e2d617070726f7665642073656e646572000000000060448201526064016107da565b73ffffffffffffffffffffffffffffffffffffffff841661170457740100000000000000000000000000000000000000008216156116ff57600083815260208790526040902073ffffffffffffffffffffffffffffffffffffffff821690555b611785565b7401000000000000000000000000000000000000000082178083146117355760008481526020889052604090208190555b506000838152600287016020526040902080547fffffffffffffffffffffffff00000000000000000000000000000000000000001673ffffffffffffffffffffffffffffffffffffffff86161790555b828473ffffffffffffffffffffffffffffffffffffffff168273ffffffffffffffffffffffffffffffffffffffff167f8c5be1e5ebec7d5bd14f71427d1e84f3dd0314c0f7b2291e5b200ac8c7c3b92560405160405180910390a4505050505050565b73ffffffffffffffffffffffffffffffffffffffff8216611865576040517f08c379a000000000000000000000000000000000000000000000000000000000815260206004820152601e60248201527f4552433732313a207472616e7366657220746f2061646472657373283029000060448201526064016107da565b60008181526020869052604090205473ffffffffffffffffffffffffffffffffffffffff81166118f1576040517f08c379a000000000000000000000000000000000000000000000000000000000815260206004820152601a60248201527f4552433732313a206e6f6e2d6578697374696e6720746f6b656e00000000000060448201526064016107da565b73ffffffffffffffffffffffffffffffffffffffff84168173ffffffffffffffffffffffffffffffffffffffff1614611986576040517f08c379a000000000000000000000000000000000000000000000000000000000815260206004820152601760248201527f4552433732313a206e6f6e2d6f776e656420746f6b656e00000000000000000060448201526064016107da565b6119918685876132e0565b611a4957740100000000000000000000000000000000000000008116151580156119e35750600082815260028701602052604090205473ffffffffffffffffffffffffffffffffffffffff8681169116145b611a49576040517f08c379a000000000000000000000000000000000000000000000000000000000815260206004820152601b60248201527f4552433732313a206e6f6e2d617070726f7665642073656e646572000000000060448201526064016107da565b600082815260208790526040902073ffffffffffffffffffffffffffffffffffffffff80851691829055851614611ada5773ffffffffffffffffffffffffffffffffffffffff80851660009081526001808901602052604080832080547fffffffffffffffffffffffffffffffffffffffffffffffffffffffffffffffff0190559286168252919020805490910190555b818373ffffffffffffffffffffffffffffffffffffffff168573ffffffffffffffffffffffffffffffffffffffff167fddf252ad1be2c89b69c2b068fc378daa952ba7f163c4a11628f55a4df523b3ef60405160405180910390a4505050505050565b815473ffffffffffffffffffffffffffffffffffffffff8281169116146105d0576040517f08c379a000000000000000000000000000000000000000000000000000000000815260206004820152601860248201527f4f776e6572736869703a206e6f7420746865206f776e6572000000000000000060448201526064016107da565b60008061058260017fc8827d3282af6f37b64c3e9e6f3ac9df286ab0bb0fccd6f8661bf19adb368b23614168565b60008381526020858152604080832073ffffffffffffffffffffffffffffffffffffffff8616845290915290205460ff166109795760008381526020858152604080832073ffffffffffffffffffffffffffffffffffffffff8681168086529184529382902080547fffffffffffffffffffffffffffffffffffffffffffffffffffffffffffffff00166001179055815187815292830152918316918101919091527f2f8788117e7eff1d82e926ec794901d17c78024a50270940304540a733656f0d906060015b60405180910390a150505050565b366000610637613355565b60008281526020848152604080832073ffffffffffffffffffffffffffffffffffffffff8516845290915290205460ff166105f357611d0d826134bf565b604051602001611d1d919061435d565b604080517fffffffffffffffffffffffffffffffffffffffffffffffffffffffffffffffe0818403018152908290527f08c379a00000000000000000000000000000000000000000000000000000000082526107da91600401613c04565b73ffffffffffffffffffffffffffffffffffffffff8216611df8576040517f08c379a000000000000000000000000000000000000000000000000000000000815260206004820152601a60248201527f4552433732313a206d696e7420746f206164647265737328302900000000000060448201526064016107da565b60008181526020849052604090205473ffffffffffffffffffffffffffffffffffffffff1615611e84576040517f08c379a000000000000000000000000000000000000000000000000000000000815260206004820152601660248201527f4552433732313a206578697374696e6720746f6b656e0000000000000000000060448201526064016107da565b60008181526020848152604080832073ffffffffffffffffffffffffffffffffffffffff86169081905580845260018088019093528184208054909301909255518392907fddf252ad1be2c89b69c2b068fc378daa952ba7f163c4a11628f55a4df523b3ef908290a4505050565b611eff85858585856117e8565b73ffffffffffffffffffffffffffffffffffffffff82163b15610b0557610b058484848460405180602001604052806000815250613651565b73ffffffffffffffffffffffffffffffffffffffff8216611fb5576040517f08c379a000000000000000000000000000000000000000000000000000000000815260206004820152601a60248201527f4552433732313a206d696e7420746f206164647265737328302900000000000060448201526064016107da565b805160005b8181146120d7576000838281518110611fd557611fd561410a565b602002602001015190506120138660000160008381526020019081526020016000205473ffffffffffffffffffffffffffffffffffffffff16151590565b1561207a576040517f08c379a000000000000000000000000000000000000000000000000000000000815260206004820152601660248201527f4552433732313a206578697374696e6720746f6b656e0000000000000000000060448201526064016107da565b60008181526020879052604080822073ffffffffffffffffffffffffffffffffffffffff88169081905590518392907fddf252ad1be2c89b69c2b068fc378daa952ba7f163c4a11628f55a4df523b3ef908290a450600101611fba565b5073ffffffffffffffffffffffffffffffffffffffff9092166000908152600190930160205250604090912080549091019055565b60008181526020839052604081205473ffffffffffffffffffffffffffffffffffffffff8116612198576040517f08c379a000000000000000000000000000000000000000000000000000000000815260206004820152601a60248201527f4552433732313a206e6f6e2d6578697374696e6720746f6b656e00000000000060448201526064016107da565b805b949350505050565b600073ffffffffffffffffffffffffffffffffffffffff8216612221576040517f08c379a000000000000000000000000000000000000000000000000000000000815260206004820152601d60248201527f4552433732313a2062616c616e6365206f66206164647265737328302900000060448201526064016107da565b5073ffffffffffffffffffffffffffffffffffffffff166000908152600191909101602052604090205490565b6040805173ffffffffffffffffffffffffffffffffffffffff8416602482015260448082018490528251808303909101815260649091019091526020810180517bffffffffffffffffffffffffffffffffffffffffffffffffffffffff167fa9059cbb000000000000000000000000000000000000000000000000000000001790526105f3908490613777565b6000818152602085905260409020548073ffffffffffffffffffffffffffffffffffffffff168373ffffffffffffffffffffffffffffffffffffffff161461237f576040517f08c379a000000000000000000000000000000000000000000000000000000000815260206004820152601760248201527f4552433732313a206e6f6e2d6f776e656420746f6b656e00000000000000000060448201526064016107da565b61238a8584866132e0565b61244257740100000000000000000000000000000000000000008116151580156123dc5750600082815260028601602052604090205473ffffffffffffffffffffffffffffffffffffffff8581169116145b612442576040517f08c379a000000000000000000000000000000000000000000000000000000000815260206004820152601b60248201527f4552433732313a206e6f6e2d617070726f7665642073656e646572000000000060448201526064016107da565b6000828152602086815260408083207fdead000000000000000000000000000000000000000000000000000000000000905573ffffffffffffffffffffffffffffffffffffffff86168084526001890190925280832080547fffffffffffffffffffffffffffffffffffffffffffffffffffffffffffffffff01905551849291907fddf252ad1be2c89b69c2b068fc378daa952ba7f163c4a11628f55a4df523b3ef908390a45050505050565b6124fa858484611d7b565b73ffffffffffffffffffffffffffffffffffffffff83163b15610b0557610b05846000858585613651565b612530838284611ccf565b60008181526020848152604080832073ffffffffffffffffffffffffffffffffffffffff86168085529083529281902080547fffffffffffffffffffffffffffffffffffffffffffffffffffffffffffffff0016905580518481529182018390528101919091527ff6391f5c32d9c69d2a47ea670b442974b53935d1edc7fd64eb21e047a839171b9060600160405180910390a1505050565b6060816001018054611381906141aa565b815181518114612646576040517f08c379a000000000000000000000000000000000000000000000000000000000815260206004820152601b60248201527f4552433732313a20696e636f6e73697374656e7420617272617973000000000060448201526064016107da565b60005b818114610b05576126978482815181106126655761266561410a565b602002602001015184838151811061267f5761267f61410a565b602002602001015187611d7b9092919063ffffffff16565b600101612649565b8273ffffffffffffffffffffffffffffffffffffffff168273ffffffffffffffffffffffffffffffffffffffff1603612734576040517f08c379a000000000000000000000000000000000000000000000000000000000815260206004820152601d60248201527f4552433732313a2073656c662d617070726f76616c20666f7220616c6c00000060448201526064016107da565b73ffffffffffffffffffffffffffffffffffffffff838116600081815260038701602090815260408083209487168084529482529182902080547fffffffffffffffffffffffffffffffffffffffffffffffffffffffffffffff001686151590811790915591519182527f17307eab39ab6107e8899845ad3d59bd9653f200f220920489ca2b5937696c31910160405180910390a350505050565b6127dc87878787876117e8565b73ffffffffffffffffffffffffffffffffffffffff84163b1561283c5761283c8686868686868080601f01602080910402602001604051908101604052809392919081815260200183838082843760009201919091525061365192505050565b50505050505050565b60608261285183613883565b6040516020016128629291906143c9565b604051602081830303815290604052905092915050565b60008381526020858152604080832073ffffffffffffffffffffffffffffffffffffffff8616845290915290205460ff16156109795760008381526020858152604080832073ffffffffffffffffffffffffffffffffffffffff8681168086529184529382902080547fffffffffffffffffffffffffffffffffffffffffffffffffffffffffffffff00169055815187815292830152918316918101919091527ff6391f5c32d9c69d2a47ea670b442974b53935d1edc7fd64eb21e047a839171b90606001611cb6565b60006129508685876132e0565b90508160005b818114612b5a5760008585838181106129715761297161410a565b602090810292909201356000818152928c905260409092205491925081905073ffffffffffffffffffffffffffffffffffffffff168873ffffffffffffffffffffffffffffffffffffffff1614612a24576040517f08c379a000000000000000000000000000000000000000000000000000000000815260206004820152601760248201527f4552433732313a206e6f6e2d6f776e656420746f6b656e00000000000000000060448201526064016107da565b84612add5774010000000000000000000000000000000000000000811615158015612a775750600082815260028b01602052604090205473ffffffffffffffffffffffffffffffffffffffff8a81169116145b612add576040517f08c379a000000000000000000000000000000000000000000000000000000000815260206004820152601b60248201527f4552433732313a206e6f6e2d617070726f7665642073656e646572000000000060448201526064016107da565b600082815260208b905260408082207fdead00000000000000000000000000000000000000000000000000000000000090555183919073ffffffffffffffffffffffffffffffffffffffff8b16907fddf252ad1be2c89b69c2b068fc378daa952ba7f163c4a11628f55a4df523b3ef908390a45050600101612956565b50801561283c5773ffffffffffffffffffffffffffffffffffffffff8516600090815260018801602052604090208054829003905550505050505050565b825473ffffffffffffffffffffffffffffffffffffffff9081169083168114612c1d576040517f08c379a000000000000000000000000000000000000000000000000000000000815260206004820152601860248201527f4f776e6572736869703a206e6f7420746865206f776e6572000000000000000060448201526064016107da565b8173ffffffffffffffffffffffffffffffffffffffff168173ffffffffffffffffffffffffffffffffffffffff16146109795783547fffffffffffffffffffffffff00000000000000000000000000000000000000001673ffffffffffffffffffffffffffffffffffffffff8381169182178655604051908316907f8be0079c531659141344cd1fd0a4f28419497f9722a3daafe3b4186f6b6457e090600090a350505050565b73ffffffffffffffffffffffffffffffffffffffff8316612d41576040517f08c379a000000000000000000000000000000000000000000000000000000000815260206004820152601e60248201527f4552433732313a207472616e7366657220746f2061646472657373283029000060448201526064016107da565b6000612d4e8786886132e0565b90508160005b818114612fb8576000858583818110612d6f57612d6f61410a565b602090810292909201356000818152928d90526040909220549192505073ffffffffffffffffffffffffffffffffffffffff8116612e09576040517f08c379a000000000000000000000000000000000000000000000000000000000815260206004820152601a60248201527f4552433732313a206e6f6e2d6578697374696e6720746f6b656e00000000000060448201526064016107da565b73ffffffffffffffffffffffffffffffffffffffff89168173ffffffffffffffffffffffffffffffffffffffff1614612e9e576040517f08c379a000000000000000000000000000000000000000000000000000000000815260206004820152601760248201527f4552433732313a206e6f6e2d6f776e656420746f6b656e00000000000000000060448201526064016107da565b84612f575774010000000000000000000000000000000000000000811615158015612ef15750600082815260028c01602052604090205473ffffffffffffffffffffffffffffffffffffffff8b81169116145b612f57576040517f08c379a000000000000000000000000000000000000000000000000000000000815260206004820152601b60248201527f4552433732313a206e6f6e2d617070726f7665642073656e646572000000000060448201526064016107da565b600082815260208c9052604080822073ffffffffffffffffffffffffffffffffffffffff808c16918290559151859391928d16917fddf252ad1be2c89b69c2b068fc378daa952ba7f163c4a11628f55a4df523b3ef91a45050600101612d54565b508473ffffffffffffffffffffffffffffffffffffffff168673ffffffffffffffffffffffffffffffffffffffff1614158015612ff457508015155b1561087c5773ffffffffffffffffffffffffffffffffffffffff808716600090815260018a016020526040808220805485900390559187168152208054820190555050505050505050565b804710156130a9576040517f08c379a000000000000000000000000000000000000000000000000000000000815260206004820152601d60248201527f416464726573733a20696e73756666696369656e742062616c616e636500000060448201526064016107da565b60008273ffffffffffffffffffffffffffffffffffffffff168260405160006040518083038185875af1925050503d8060008114613103576040519150601f19603f3d011682016040523d82523d6000602084013e613108565b606091505b50509050806105f3576040517f08c379a000000000000000000000000000000000000000000000000000000000815260206004820152603a60248201527f416464726573733a20756e61626c6520746f2073656e642076616c75652c207260448201527f6563697069656e74206d6179206861766520726576657274656400000000000060648201526084016107da565b6000333214806131a95750601836105b156131b357503390565b7fffffffffffffffffffffffffffffffffffffffffffffffffffffffffffffffec36013560601c7f000000000000000000000000000000000000000000000000000000000000000073ffffffffffffffffffffffffffffffffffffffff163314806132cf57506040517f8929a8ca00000000000000000000000000000000000000000000000000000000815273ffffffffffffffffffffffffffffffffffffffff82811660048301523360248301527f00000000000000000000000000000000000000000000000000000000000000001690638929a8ca90604401602060405180830381865afa1580156132ab573d6000803e3d6000fd5b505050506040513d601f19601f820116820180604052508101906132cf919061446e565b156132d957919050565b3391505090565b60008173ffffffffffffffffffffffffffffffffffffffff168373ffffffffffffffffffffffffffffffffffffffff16148061219a57505073ffffffffffffffffffffffffffffffffffffffff9182166000908152600393909301602090815260408085209290931684525290205460ff1690565b366000333214806133665750601836105b156133745750600091369150565b3373ffffffffffffffffffffffffffffffffffffffff7f00000000000000000000000000000000000000000000000000000000000000001614806134a9575073ffffffffffffffffffffffffffffffffffffffff7f000000000000000000000000000000000000000000000000000000000000000016638929a8ca367fffffffffffffffffffffffffffffffffffffffffffffffffffffffffffffffec013560601c6040517fffffffff0000000000000000000000000000000000000000000000000000000060e084901b16815273ffffffffffffffffffffffffffffffffffffffff9091166004820152336024820152604401602060405180830381865afa158015613485573d6000803e3d6000fd5b505050506040513d601f19601f820116820180604052508101906134a9919061446e565b156134b6576106376139b8565b50600091369150565b606060008290036134de57505060408051602081019091526000815290565b6000826040516020016134f391815260200190565b604080517fffffffffffffffffffffffffffffffffffffffffffffffffffffffffffffffe08184030181529190529050601f5b8181815181106135385761353861410a565b01602001517fff000000000000000000000000000000000000000000000000000000000000001660000361358d577fffffffffffffffffffffffffffffffffffffffffffffffffffffffffffffffff01613526565b60008160010167ffffffffffffffff8111156135ab576135ab61417b565b6040519080825280601f01601f1916602001820160405280156135d5576020820181803683370190505b50905060005b828111613648578381815181106135f4576135f461410a565b602001015160f81c60f81b8282815181106136115761361161410a565b60200101907effffffffffffffffffffffffffffffffffffffffffffffffffffffffffffff1916908160001a9053506001016135db565b50949350505050565b6040517f150b7a02000000000000000000000000000000000000000000000000000000008082529073ffffffffffffffffffffffffffffffffffffffff85169063150b7a02906136ab90899089908890889060040161448b565b6020604051808303816000875af11580156136ca573d6000803e3d6000fd5b505050506040513d601f19601f820116820180604052508101906136ee91906144d4565b7fffffffff000000000000000000000000000000000000000000000000000000001614610b05576040517f08c379a000000000000000000000000000000000000000000000000000000000815260206004820152601e60248201527f4552433732313a2073616665207472616e736665722072656a6563746564000060448201526064016107da565b60006137d9826040518060400160405280602081526020017f5361666545524332303a206c6f772d6c6576656c2063616c6c206661696c65648152508573ffffffffffffffffffffffffffffffffffffffff166139e99092919063ffffffff16565b8051909150156105f357808060200190518101906137f7919061446e565b6105f3576040517f08c379a000000000000000000000000000000000000000000000000000000000815260206004820152602a60248201527f5361666545524332303a204552433230206f7065726174696f6e20646964206e60448201527f6f7420737563636565640000000000000000000000000000000000000000000060648201526084016107da565b6060816000036138c657505060408051808201909152600181527f3000000000000000000000000000000000000000000000000000000000000000602082015290565b8160005b81156138f057806138da816144f1565b91506138e99050600a83614558565b91506138ca565b60008167ffffffffffffffff81111561390b5761390b61417b565b6040519080825280601f01601f191660200182016040528015613935576020820181803683370190505b5090505b841561219a5761394a600183614168565b9150613957600a8661456c565b613962906030614580565b60f81b8183815181106139775761397761410a565b60200101907effffffffffffffffffffffffffffffffffffffffffffffffffffffffffffff1916908160001a9053506139b1600a86614558565b9450613939565b3660006106377fffffffffffffffffffffffffffffffffffffffffffffffffffffffffffffffec8301828481614593565b606061219a84846000858573ffffffffffffffffffffffffffffffffffffffff85163b613a72576040517f08c379a000000000000000000000000000000000000000000000000000000000815260206004820152601d60248201527f416464726573733a2063616c6c20746f206e6f6e2d636f6e747261637400000060448201526064016107da565b6000808673ffffffffffffffffffffffffffffffffffffffff168587604051613a9b91906145bd565b60006040518083038185875af1925050503d8060008114613ad8576040519150601f19603f3d011682016040523d82523d6000602084013e613add565b606091505b5091509150613aed828286613af8565b979650505050505050565b60608315613b07575081610a08565b825115613b175782518084602001fd5b816040517f08c379a00000000000000000000000000000000000000000000000000000000081526004016107da9190613c04565b7fffffffff000000000000000000000000000000000000000000000000000000008116811461099a57600080fd5b600060208284031215613b8b57600080fd5b8135610a0881613b4b565b60005b83811015613bb1578181015183820152602001613b99565b50506000910152565b60008151808452613bd2816020860160208601613b96565b601f017fffffffffffffffffffffffffffffffffffffffffffffffffffffffffffffffe0169290920160200192915050565b602081526000610a086020830184613bba565b600060208284031215613c2957600080fd5b5035919050565b73ffffffffffffffffffffffffffffffffffffffff8116811461099a57600080fd5b60008060408385031215613c6557600080fd5b8235613c7081613c30565b946020939093013593505050565b600080600060608486031215613c9357600080fd5b8335613c9e81613c30565b92506020840135613cae81613c30565b929592945050506040919091013590565b60008060408385031215613cd257600080fd5b823591506020830135613ce481613c30565b809150509250929050565b60208152816020820152818360408301376000818301604090810191909152601f9092017fffffffffffffffffffffffffffffffffffffffffffffffffffffffffffffffe0160101919050565b60008083601f840112613d4e57600080fd5b50813567ffffffffffffffff811115613d6657600080fd5b6020830191508360208260051b8501011115613d8157600080fd5b9250929050565b600080600060408486031215613d9d57600080fd5b8335613da881613c30565b9250602084013567ffffffffffffffff811115613dc457600080fd5b613dd086828701613d3c565b9497909650939450505050565b600060208284031215613def57600080fd5b8135610a0881613c30565b60008060008060008060608789031215613e1357600080fd5b863567ffffffffffffffff80821115613e2b57600080fd5b613e378a838b01613d3c565b90985096506020890135915080821115613e5057600080fd5b613e5c8a838b01613d3c565b90965094506040890135915080821115613e7557600080fd5b50613e8289828a01613d3c565b979a9699509497509295939492505050565b60008083601f840112613ea657600080fd5b50813567ffffffffffffffff811115613ebe57600080fd5b602083019150836020828501011115613d8157600080fd5b60008060208385031215613ee957600080fd5b823567ffffffffffffffff811115613f0057600080fd5b613f0c85828601613e94565b90969095509350505050565b60008060008060608587031215613f2e57600080fd5b8435613f3981613c30565b935060208501359250604085013567ffffffffffffffff811115613f5c57600080fd5b613f6887828801613e94565b95989497509550505050565b60008060008060408587031215613f8a57600080fd5b843567ffffffffffffffff80821115613fa257600080fd5b613fae88838901613d3c565b90965094506020870135915080821115613fc757600080fd5b50613f6887828801613d3c565b801515811461099a57600080fd5b60008060408385031215613ff557600080fd5b823561400081613c30565b91506020830135613ce481613fd4565b60008060008060006080868803121561402857600080fd5b853561403381613c30565b9450602086013561404381613c30565b935060408601359250606086013567ffffffffffffffff81111561406657600080fd5b61407288828901613e94565b969995985093965092949392505050565b6000806040838503121561409657600080fd5b82356140a181613c30565b91506020830135613ce481613c30565b600080600080606085870312156140c757600080fd5b84356140d281613c30565b935060208501356140e281613c30565b9250604085013567ffffffffffffffff8111156140fe57600080fd5b613f6887828801613d3c565b7f4e487b7100000000000000000000000000000000000000000000000000000000600052603260045260246000fd5b7f4e487b7100000000000000000000000000000000000000000000000000000000600052601160045260246000fd5b8181038181111561058257610582614139565b7f4e487b7100000000000000000000000000000000000000000000000000000000600052604160045260246000fd5b600181811c908216806141be57607f821691505b6020821081036141f7577f4e487b7100000000000000000000000000000000000000000000000000000000600052602260045260246000fd5b50919050565b601f8211156105f357600081815260208120601f850160051c810160208610156142245750805b601f850160051c820191505b81811015610e8f57828155600101614230565b815167ffffffffffffffff81111561425d5761425d61417b565b6142718161426b84546141aa565b846141fd565b602080601f8311600181146142c4576000841561428e5750858301515b7fffffffffffffffffffffffffffffffffffffffffffffffffffffffffffffffff600386901b1c1916600185901b178555610e8f565b6000858152602081207fffffffffffffffffffffffffffffffffffffffffffffffffffffffffffffffe08616915b82811015614311578886015182559484019460019091019084016142f2565b508582101561434d57878501517fffffffffffffffffffffffffffffffffffffffffffffffffffffffffffffffff600388901b60f8161c191681555b5050505050600190811b01905550565b7f416363657373436f6e74726f6c3a206d697373696e6720270000000000000000815260008251614395816018850160208701613b96565b7f2720726f6c6500000000000000000000000000000000000000000000000000006018939091019283015250601e01919050565b60008084546143d7816141aa565b600182811680156143ef576001811461442257614451565b7fffffffffffffffffffffffffffffffffffffffffffffffffffffffffffffff0084168752821515830287019450614451565b8860005260208060002060005b858110156144485781548a82015290840190820161442f565b50505082870194505b505050508351614465818360208801613b96565b01949350505050565b60006020828403121561448057600080fd5b8151610a0881613fd4565b600073ffffffffffffffffffffffffffffffffffffffff8087168352808616602084015250836040830152608060608301526144ca6080830184613bba565b9695505050505050565b6000602082840312156144e657600080fd5b8151610a0881613b4b565b60007fffffffffffffffffffffffffffffffffffffffffffffffffffffffffffffffff820361452257614522614139565b5060010190565b7f4e487b7100000000000000000000000000000000000000000000000000000000600052601260045260246000fd5b60008261456757614567614529565b500490565b60008261457b5761457b614529565b500690565b8082018082111561058257610582614139565b600080858511156145a357600080fd5b838611156145b057600080fd5b5050820193919092039150565b600082516145cf818460208701613b96565b919091019291505056fea26469706673582212204ae1a3788360a58e0f0568b47e7a0dbda60cd6ad1300bf5a5dbdcedd9dd5618664736f6c63430008110033",
  "linkReferences": {},
  "deployedLinkReferences": {}
}