{
  "_format": "hh-sol-artifact-1",
  "contractName": "FusionProxy",
  "sourceName": "contracts/token/fusion/FusionProxy.sol",
  "abi": [
    {
      "inputs": [
        {
          "internalType": "contract IREVVRacingCar",
          "name": "cars_",
          "type": "address"
        },
        {
          "internalType": "contract IREVVMotorsportCatalyst",
          "name": "catalysts_",
          "type": "address"
        },
        {
          "internalType": "contract IREVV",
          "name": "revv_",
          "type": "address"
        },
        {
          "internalType": "contract IChassisCounters",
          "name": "counters_",
          "type": "address"
        },
        {
          "internalType": "address",
          "name": "payoutWallet_",
          "type": "address"
        },
        {
          "internalType": "address",
          "name": "yard_",
          "type": "address"
        }
      ],
      "stateMutability": "nonpayable",
      "type": "constructor"
    },
    {
      "anonymous": false,
      "inputs": [
        {
          "indexed": true,
          "internalType": "address",
          "name": "previousOwner",
          "type": "address"
        },
        {
          "indexed": true,
          "internalType": "address",
          "name": "newOwner",
          "type": "address"
        }
      ],
      "name": "OwnershipTransferred",
      "type": "event"
    },
    {
      "inputs": [
        {
          "internalType": "uint256",
          "name": "blueprintId",
          "type": "uint256"
        }
      ],
      "name": "blueprint",
      "outputs": [
        {
          "internalType": "address",
          "name": "",
          "type": "address"
        }
      ],
      "stateMutability": "view",
      "type": "function"
    },
    {
      "inputs": [],
      "name": "cars",
      "outputs": [
        {
          "internalType": "contract IREVVRacingCar",
          "name": "",
          "type": "address"
        }
      ],
      "stateMutability": "view",
      "type": "function"
    },
    {
      "inputs": [],
      "name": "catalysts",
      "outputs": [
        {
          "internalType": "contract IREVVMotorsportCatalyst",
          "name": "",
          "type": "address"
        }
      ],
      "stateMutability": "view",
      "type": "function"
    },
    {
      "inputs": [],
      "name": "counters",
      "outputs": [
        {
          "internalType": "contract IChassisCounters",
          "name": "",
          "type": "address"
        }
      ],
      "stateMutability": "view",
      "type": "function"
    },
    {
      "inputs": [
        {
          "internalType": "address",
          "name": "",
          "type": "address"
        },
        {
          "internalType": "address",
          "name": "",
          "type": "address"
        },
        {
          "internalType": "uint256[]",
          "name": "",
          "type": "uint256[]"
        },
        {
          "internalType": "uint256[]",
          "name": "",
          "type": "uint256[]"
        },
        {
          "internalType": "bytes",
          "name": "data",
          "type": "bytes"
        }
      ],
      "name": "onERC1155BatchReceived",
      "outputs": [
        {
          "internalType": "bytes4",
          "name": "",
          "type": "bytes4"
        }
      ],
      "stateMutability": "nonpayable",
      "type": "function"
    },
    {
      "inputs": [
        {
          "internalType": "address",
          "name": "",
          "type": "address"
        },
        {
          "internalType": "address",
          "name": "",
          "type": "address"
        },
        {
          "internalType": "uint256",
          "name": "",
          "type": "uint256"
        },
        {
          "internalType": "uint256",
          "name": "",
          "type": "uint256"
        },
        {
          "internalType": "bytes",
          "name": "data",
          "type": "bytes"
        }
      ],
      "name": "onERC1155Received",
      "outputs": [
        {
          "internalType": "bytes4",
          "name": "",
          "type": "bytes4"
        }
      ],
      "stateMutability": "nonpayable",
      "type": "function"
    },
    {
      "inputs": [],
      "name": "owner",
      "outputs": [
        {
          "internalType": "address",
          "name": "",
          "type": "address"
        }
      ],
      "stateMutability": "view",
      "type": "function"
    },
    {
      "inputs": [],
      "name": "payoutWallet",
      "outputs": [
        {
          "internalType": "address",
          "name": "",
          "type": "address"
        }
      ],
      "stateMutability": "view",
      "type": "function"
    },
    {
      "inputs": [],
      "name": "revv",
      "outputs": [
        {
          "internalType": "contract IREVV",
          "name": "",
          "type": "address"
        }
      ],
      "stateMutability": "view",
      "type": "function"
    },
    {
      "inputs": [
        {
          "internalType": "uint256",
          "name": "blueprintId",
          "type": "uint256"
        },
        {
          "internalType": "address",
          "name": "blueprint_",
          "type": "address"
        }
      ],
      "name": "setBlueprint",
      "outputs": [],
      "stateMutability": "nonpayable",
      "type": "function"
    },
    {
      "inputs": [
        {
          "internalType": "address",
          "name": "payoutWallet_",
          "type": "address"
        }
      ],
      "name": "setPayoutWallet",
      "outputs": [],
      "stateMutability": "nonpayable",
      "type": "function"
    },
    {
      "inputs": [
        {
          "internalType": "bytes4",
          "name": "interfaceId",
          "type": "bytes4"
        }
      ],
      "name": "supportsInterface",
      "outputs": [
        {
          "internalType": "bool",
          "name": "",
          "type": "bool"
        }
      ],
      "stateMutability": "view",
      "type": "function"
    },
    {
      "inputs": [
        {
          "internalType": "address",
          "name": "newOwner",
          "type": "address"
        }
      ],
      "name": "transferOwnership",
      "outputs": [],
      "stateMutability": "nonpayable",
      "type": "function"
    },
    {
      "inputs": [],
      "name": "yard",
      "outputs": [
        {
          "internalType": "address",
          "name": "",
          "type": "address"
        }
      ],
      "stateMutability": "view",
      "type": "function"
    }
  ],
  "bytecode": "0x608060405234801561001057600080fd5b50604051610aa6380380610aa6833981810160405260c081101561003357600080fd5b50805160208083015160408401516060850151608086015160a0909601519495929491939092919060009061006f906107c5610121821b17901c565b6002810180546001600160a01b03199081166001600160a01b038b81169190911790925560038301805482168a8416179055600483018054821689841617905560058301805482168884161790556006830180548216878416179055600783018054821692861692909217909155815433911681178255604051919250906000907f8be0079c531659141344cd1fd0a4f28419497f9722a3daafe3b4186f6b6457e0908290a350505050505050610145565b7f81d7c4dfdd0917fbf44d3a98a849355a170306689f99006037c37c1b8018528a90565b610952806101546000396000f3fe608060405234801561001057600080fd5b50600436106100ea5760003560e01c80639a7ffc571161008c578063d0e5467211610066578063d0e5467214610359578063f23a6e6114610361578063f2fde38b146103f6578063f72106331461041c576100ea565b80639a7ffc57146101e75780639b098352146101ef578063bc197c81146101f7576100ea565b806363df8f8f116100c857806363df8f8f146101945780636b8f9c43146101b15780638488bb4e146101d75780638da5cb5b146101df576100ea565b806301ffc9a7146100ef57806343dfd0b8146101425780634d7e1da614610170575b600080fd5b61012e6004803603602081101561010557600080fd5b50357fffffffff0000000000000000000000000000000000000000000000000000000016610424565b604080519115158252519081900360200190f35b61016e6004803603604081101561015857600080fd5b50803590602001356001600160a01b0316610480565b005b610178610527565b604080516001600160a01b039092168252519081900360200190f35b610178600480360360208110156101aa57600080fd5b5035610545565b61016e600480360360208110156101c757600080fd5b50356001600160a01b031661056e565b610178610609565b610178610627565b610178610642565b610178610660565b610324600480360360a081101561020d57600080fd5b6001600160a01b03823581169260208101359091169181019060608101604082013564010000000081111561024157600080fd5b82018360208201111561025357600080fd5b8035906020019184602083028401116401000000008311171561027557600080fd5b91939092909160208101903564010000000081111561029357600080fd5b8201836020820111156102a557600080fd5b803590602001918460208302840111640100000000831117156102c757600080fd5b9193909290916020810190356401000000008111156102e557600080fd5b8201836020820111156102f757600080fd5b8035906020019184600183028401116401000000008311171561031957600080fd5b50909250905061067e565b604080517fffffffff000000000000000000000000000000000000000000000000000000009092168252519081900360200190f35b6101786106a7565b610324600480360360a081101561037757600080fd5b6001600160a01b03823581169260208101359091169160408201359160608101359181019060a0810160808201356401000000008111156103b757600080fd5b8201836020820111156103c957600080fd5b803590602001918460018302840111640100000000831117156103eb57600080fd5b5090925090506106c5565b61016e6004803603602081101561040c57600080fd5b50356001600160a01b03166106e5565b6101786107a7565b60007fffffffff0000000000000000000000000000000000000000000000000000000082167f7f5828d000000000000000000000000000000000000000000000000000000000148061047a575061047a826107e9565b92915050565b600061048a6107c5565b80549091506001600160a01b031633146104eb576040805162461bcd60e51b815260206004820152601e60248201527f467573696f6e3a206e6f742074686520636f6e7472616374206f776e65720000604482015290519081900360640190fd5b60009283526001016020526040909120805473ffffffffffffffffffffffffffffffffffffffff19166001600160a01b03909216919091179055565b6000806105326107c5565b600401546001600160a01b031691505090565b6000806105506107c5565b6000938452600101602052505060409020546001600160a01b031690565b60006105786107c5565b80549091506001600160a01b031633146105d9576040805162461bcd60e51b815260206004820152601e60248201527f467573696f6e3a206e6f742074686520636f6e7472616374206f776e65720000604482015290519081900360640190fd5b600601805473ffffffffffffffffffffffffffffffffffffffff19166001600160a01b0392909216919091179055565b6000806106146107c5565b600601546001600160a01b031691505090565b6000806106326107c5565b546001600160a01b031691505090565b60008061064d6107c5565b600201546001600160a01b031691505090565b60008061066b6107c5565b600701546001600160a01b031691505090565b600061069a8383602081101561069357600080fd5b503561087e565b9998505050505050505050565b6000806106b26107c5565b600301546001600160a01b031691505090565b60006106da8383602081101561069357600080fd5b979650505050505050565b60006106ef6107c5565b80549091506001600160a01b03163314610750576040805162461bcd60e51b815260206004820152601e60248201527f467573696f6e3a206e6f742074686520636f6e7472616374206f776e65720000604482015290519081900360640190fd5b805473ffffffffffffffffffffffffffffffffffffffff19166001600160a01b038316908117825560405133907f8be0079c531659141344cd1fd0a4f28419497f9722a3daafe3b4186f6b6457e090600090a35050565b6000806107b26107c5565b600501546001600160a01b031691505090565b7f81d7c4dfdd0917fbf44d3a98a849355a170306689f99006037c37c1b8018528a90565b60007fffffffff0000000000000000000000000000000000000000000000000000000082167f01ffc9a700000000000000000000000000000000000000000000000000000000148061047a5750507fffffffff00000000000000000000000000000000000000000000000000000000167f4e2312e0000000000000000000000000000000000000000000000000000000001490565b6000806108896107c5565b60008481526001820160205260409020549091506001600160a01b0316806108f8576040805162461bcd60e51b815260206004820181905260248201527f467573696f6e3a20626c75657072696e7420646f6573206e6f74206578697374604482015290519081900360640190fd5b3660008037600080366000845af43d6000803e808015610917573d6000f35b3d6000fdfea26469706673582212205a1ade7364993264947dd085e3651482685d01dfd5d0316c47e5089ab3dde7cd64736f6c63430007060033",
  "linkReferences": {},
  "deployedLinkReferences": {}
}