{
  "_format": "hh-sol-artifact-1",
  "contractName": "FusionFacetMock",
  "sourceName": "contracts/mocks/token/fusion/facets/FusionFacetMock.sol",
  "abi": [
    {
      "inputs": [
        {
          "internalType": "contract IForwarderRegistry",
          "name": "forwarderRegistry",
          "type": "address"
        }
      ],
      "stateMutability": "nonpayable",
      "type": "constructor"
    },
    {
      "inputs": [],
      "name": "__msgData",
      "outputs": [
        {
          "internalType": "bytes",
          "name": "",
          "type": "bytes"
        }
      ],
      "stateMutability": "view",
      "type": "function"
    },
    {
      "inputs": [
        {
          "internalType": "uint256",
          "name": "carModel",
          "type": "uint256"
        }
      ],
      "name": "chassisNumber",
      "outputs": [
        {
          "internalType": "uint256",
          "name": "",
          "type": "uint256"
        }
      ],
      "stateMutability": "view",
      "type": "function"
    },
    {
      "inputs": [
        {
          "internalType": "address",
          "name": "yard_",
          "type": "address"
        }
      ],
      "name": "initFusionStorage",
      "outputs": [],
      "stateMutability": "nonpayable",
      "type": "function"
    },
    {
      "inputs": [
        {
          "internalType": "address",
          "name": "yard_",
          "type": "address"
        }
      ],
      "name": "setYard",
      "outputs": [],
      "stateMutability": "nonpayable",
      "type": "function"
    },
    {
      "inputs": [],
      "name": "yard",
      "outputs": [
        {
          "internalType": "address",
          "name": "",
          "type": "address"
        }
      ],
      "stateMutability": "view",
      "type": "function"
    }
  ],
  "bytecode": "0x60a060405234801561001057600080fd5b5060405161095e38038061095e83398101604081905261002f91610040565b6001600160a01b0316608052610070565b60006020828403121561005257600080fd5b81516001600160a01b038116811461006957600080fd5b9392505050565b6080516108be6100a06000396000818161025a01528181610298015281816103d0015261045801526108be6000f3fe608060405234801561001057600080fd5b50600436106100675760003560e01c80639b098352116100505780639b098352146100a8578063dd03316a146100d5578063e8f1b543146100ea57600080fd5b806315f355151461006c57806331e66e1e14610092575b600080fd5b61007f61007a36600461075f565b6100fd565b6040519081526020015b60405180910390f35b61009a610118565b604051610089929190610778565b6100b061012b565b60405173ffffffffffffffffffffffffffffffffffffffff9091168152602001610089565b6100e86100e33660046107c5565b610154565b005b6100e86100f83660046107c5565b6101c4565b60006101076101ef565b600092835260205250604090205490565b366000610123610223565b915091509091565b60006101356101ef565b6001015473ffffffffffffffffffffffffffffffffffffffff16919050565b61016d61015f61038d565b6101676104d4565b90610502565b6101c1816101796101ef565b60010180547fffffffffffffffffffffffff00000000000000000000000000000000000000001673ffffffffffffffffffffffffffffffffffffffff92909216919091179055565b50565b6101dd6101cf61038d565b6101d76105d8565b90610606565b6101c1816101e96101ef565b90610689565b60008061021d60017ffdd1e5f90c72e791d4ca71fbea62cc3e8ef871745290759e9db5336acb7f8bb0610802565b92915050565b366000333214806102345750601836105b156102425750600091369150565b3373ffffffffffffffffffffffffffffffffffffffff7f0000000000000000000000000000000000000000000000000000000000000000161480610377575073ffffffffffffffffffffffffffffffffffffffff7f000000000000000000000000000000000000000000000000000000000000000016638929a8ca367fffffffffffffffffffffffffffffffffffffffffffffffffffffffffffffffec013560601c6040517fffffffff0000000000000000000000000000000000000000000000000000000060e084901b16815273ffffffffffffffffffffffffffffffffffffffff9091166004820152336024820152604401602060405180830381865afa158015610353573d6000803e3d6000fd5b505050506040513d601f19601f82011682018060405250810190610377919061083c565b15610384576101236106be565b50600091369150565b60003332148061039d5750601836105b156103a757503390565b7fffffffffffffffffffffffffffffffffffffffffffffffffffffffffffffffec36013560601c7f000000000000000000000000000000000000000000000000000000000000000073ffffffffffffffffffffffffffffffffffffffff163314806104c357506040517f8929a8ca00000000000000000000000000000000000000000000000000000000815273ffffffffffffffffffffffffffffffffffffffff82811660048301523360248301527f00000000000000000000000000000000000000000000000000000000000000001690638929a8ca90604401602060405180830381865afa15801561049f573d6000803e3d6000fd5b505050506040513d601f19601f820116820180604052508101906104c3919061083c565b156104cd57919050565b3391505090565b60008061021d60017fc9ed16f33ab3a66c84bfd83099ccb2a8845871e2e1c1928f63797152f0fd54cd610802565b815473ffffffffffffffffffffffffffffffffffffffff82811691161461058a576040517f08c379a000000000000000000000000000000000000000000000000000000000815260206004820152601860248201527f4f776e6572736869703a206e6f7420746865206f776e6572000000000000000060448201526064015b60405180910390fd5b5050565b60019190910180547fffffffffffffffffffffffff00000000000000000000000000000000000000001673ffffffffffffffffffffffffffffffffffffffff909216919091179055565b60008061021d60017fb53127684a568b3173ae13b9f8a6016e243e63b6e8ee1178d6a717850b5d6104610802565b815473ffffffffffffffffffffffffffffffffffffffff82811691161461058a576040517f08c379a000000000000000000000000000000000000000000000000000000000815260206004820152601960248201527f50726f787941646d696e3a206e6f74207468652061646d696e000000000000006044820152606401610581565b61058e6106b760017ffd3656e9b0aa4400bf54306324eef8609d2e4c582bb53b3083c6042019afd585610802565b60016106ef565b3660006101237fffffffffffffffffffffffffffffffffffffffffffffffffffffffffffffffec830182848161085e565b81548290821161075b576040517f08c379a000000000000000000000000000000000000000000000000000000000815260206004820152601660248201527f53746f726167653a2070686173652072656163686564000000000000000000006044820152606401610581565b5550565b60006020828403121561077157600080fd5b5035919050565b60208152816020820152818360408301376000818301604090810191909152601f9092017fffffffffffffffffffffffffffffffffffffffffffffffffffffffffffffffe0160101919050565b6000602082840312156107d757600080fd5b813573ffffffffffffffffffffffffffffffffffffffff811681146107fb57600080fd5b9392505050565b8181038181111561021d577f4e487b7100000000000000000000000000000000000000000000000000000000600052601160045260246000fd5b60006020828403121561084e57600080fd5b815180151581146107fb57600080fd5b6000808585111561086e57600080fd5b8386111561087b57600080fd5b505082019391909203915056fea2646970667358221220b9463fd131cb2801852cb527d1872b43fea8c43cf52acca72353ec47311bbc2164736f6c63430008110033",
  "linkReferences": {},
  "deployedLinkReferences": {}
}