{
  "_format": "hh-sol-artifact-1",
  "contractName": "BlueprintB",
  "sourceName": "contracts/token/fusion/blueprints/BlueprintB.sol",
  "abi": [
    {
      "inputs": [
        {
          "internalType": "uint256",
          "name": "spentTokenMask1_",
          "type": "uint256"
        },
        {
          "internalType": "uint256",
          "name": "spentTokenMask2_",
          "type": "uint256"
        },
        {
          "internalType": "uint256",
          "name": "deliveredTokenMask_",
          "type": "uint256"
        },
        {
          "internalType": "uint256",
          "name": "catalystCost_",
          "type": "uint256"
        },
        {
          "internalType": "uint256",
          "name": "revvCost_",
          "type": "uint256"
        }
      ],
      "stateMutability": "nonpayable",
      "type": "constructor"
    },
    {
      "inputs": [],
      "name": "catalystCost",
      "outputs": [
        {
          "internalType": "uint256",
          "name": "",
          "type": "uint256"
        }
      ],
      "stateMutability": "view",
      "type": "function"
    },
    {
      "inputs": [],
      "name": "deliveredTokenMask",
      "outputs": [
        {
          "internalType": "uint256",
          "name": "",
          "type": "uint256"
        }
      ],
      "stateMutability": "view",
      "type": "function"
    },
    {
      "inputs": [
        {
          "internalType": "address",
          "name": "",
          "type": "address"
        },
        {
          "internalType": "address",
          "name": "from",
          "type": "address"
        },
        {
          "internalType": "uint256[]",
          "name": "ids",
          "type": "uint256[]"
        },
        {
          "internalType": "uint256[]",
          "name": "values",
          "type": "uint256[]"
        },
        {
          "internalType": "bytes",
          "name": "",
          "type": "bytes"
        }
      ],
      "name": "onERC1155BatchReceived",
      "outputs": [
        {
          "internalType": "bytes4",
          "name": "",
          "type": "bytes4"
        }
      ],
      "stateMutability": "nonpayable",
      "type": "function"
    },
    {
      "inputs": [
        {
          "internalType": "address",
          "name": "",
          "type": "address"
        },
        {
          "internalType": "address",
          "name": "",
          "type": "address"
        },
        {
          "internalType": "uint256",
          "name": "",
          "type": "uint256"
        },
        {
          "internalType": "uint256",
          "name": "",
          "type": "uint256"
        },
        {
          "internalType": "bytes",
          "name": "",
          "type": "bytes"
        }
      ],
      "name": "onERC1155Received",
      "outputs": [
        {
          "internalType": "bytes4",
          "name": "",
          "type": "bytes4"
        }
      ],
      "stateMutability": "pure",
      "type": "function"
    },
    {
      "inputs": [],
      "name": "revvCost",
      "outputs": [
        {
          "internalType": "uint256",
          "name": "",
          "type": "uint256"
        }
      ],
      "stateMutability": "view",
      "type": "function"
    },
    {
      "inputs": [],
      "name": "spentTokenMask1",
      "outputs": [
        {
          "internalType": "uint256",
          "name": "",
          "type": "uint256"
        }
      ],
      "stateMutability": "view",
      "type": "function"
    },
    {
      "inputs": [],
      "name": "spentTokenMask2",
      "outputs": [
        {
          "internalType": "uint256",
          "name": "",
          "type": "uint256"
        }
      ],
      "stateMutability": "view",
      "type": "function"
    }
  ],
  "bytecode": "0x61012060405234801561001157600080fd5b50604051610ba1380380610ba1833981810160405260a081101561003457600080fd5b5080516020820151604083015160608401516080948501519484905260a083905260c082905260e0819052610100859052929391929091610adf6100c26000398061035f52806106c95250806102cf52806105f052508061033b52806108a8528061099352508061031752806104fe528061051f5250806102f3528061045552806104765250610adf6000f3fe608060405234801561001057600080fd5b506004361061007d5760003560e01c8063972f3daa1161005b578063972f3daa146100ac578063a1de4c3f146100b4578063bc197c81146100bc578063f23a6e611461022b5761007d565b8063068cb7a2146100825780636946e3431461009c5780637ee69bc4146100a4575b600080fd5b61008a6102cd565b60408051918252519081900360200190f35b61008a6102f1565b61008a610315565b61008a610339565b61008a61035d565b6101f6600480360360a08110156100d257600080fd5b73ffffffffffffffffffffffffffffffffffffffff823581169260208101359091169181019060608101604082013564010000000081111561011357600080fd5b82018360208201111561012557600080fd5b8035906020019184602083028401116401000000008311171561014757600080fd5b91939092909160208101903564010000000081111561016557600080fd5b82018360208201111561017757600080fd5b8035906020019184602083028401116401000000008311171561019957600080fd5b9193909290916020810190356401000000008111156101b757600080fd5b8201836020820111156101c957600080fd5b803590602001918460018302840111640100000000831117156101eb57600080fd5b509092509050610381565b604080517fffffffff000000000000000000000000000000000000000000000000000000009092168252519081900360200190f35b6101f6600480360360a081101561024157600080fd5b73ffffffffffffffffffffffffffffffffffffffff823581169260208101359091169160408201359160608101359181019060a08101608082013564010000000081111561028e57600080fd5b8201836020820111156102a057600080fd5b803590602001918460018302840111640100000000831117156102c257600080fd5b509092509050610a36565b7f000000000000000000000000000000000000000000000000000000000000000081565b7f000000000000000000000000000000000000000000000000000000000000000081565b7f000000000000000000000000000000000000000000000000000000000000000081565b7f000000000000000000000000000000000000000000000000000000000000000081565b7f000000000000000000000000000000000000000000000000000000000000000081565b60008061038c610a85565b600281015490915073ffffffffffffffffffffffffffffffffffffffff163381146103fe576040805162461bcd60e51b815260206004820152601460248201527f467573696f6e3a2077726f6e672073656e646572000000000000000000000000604482015290519081900360640190fd5b60028814610453576040805162461bcd60e51b815260206004820152601860248201527f467573696f6e3a20696e636f7272656374206c656e6774680000000000000000604482015290519081900360640190fd5b7f00000000000000000000000000000000000000000000000000000000000000007f00000000000000000000000000000000000000000000000000000000000000008a8a60008181106104a257fe5b9050602002013516146104fc576040805162461bcd60e51b815260206004820152601960248201527f467573696f6e3a2077726f6e6720746f6b656e31207479706500000000000000604482015290519081900360640190fd5b7f00000000000000000000000000000000000000000000000000000000000000007f00000000000000000000000000000000000000000000000000000000000000008a8a600181811061054b57fe5b9050602002013516146105a5576040805162461bcd60e51b815260206004820152601960248201527f467573696f6e3a2077726f6e6720746f6b656e32207479706500000000000000604482015290519081900360640190fd5b6003820154604080517f79cc679000000000000000000000000000000000000000000000000000000000815273ffffffffffffffffffffffffffffffffffffffff8d811660048301527f00000000000000000000000000000000000000000000000000000000000000006024830152915191909216916379cc67909160448083019260209291908290030181600087803b15801561064257600080fd5b505af1158015610656573d6000803e3d6000fd5b505050506040513d602081101561066c57600080fd5b50506004808301546006840154604080517f23b872dd00000000000000000000000000000000000000000000000000000000815273ffffffffffffffffffffffffffffffffffffffff8f81169582019590955291841660248301527f000000000000000000000000000000000000000000000000000000000000000060448301525192909116916323b872dd916064808201926020929091908290030181600087803b15801561071b57600080fd5b505af115801561072f573d6000803e3d6000fd5b505050506040513d602081101561074557600080fd5b505060078201546040517f2eb2c2d6000000000000000000000000000000000000000000000000000000008152306004820181815273ffffffffffffffffffffffffffffffffffffffff9384166024840181905260a06044850190815260a485018e905294861694632eb2c2d69491928f928f928f928f929091906064810190608481019060c401886020890280828437600083820152601f017fffffffffffffffffffffffffffffffffffffffffffffffffffffffffffffffe0169091018581038452868152602090810191508790870280828437600081840152601f19601f8201169050808301925050508481038252600081526020019950505050505050505050600060405180830381600087803b15801561086357600080fd5b505af1158015610877573d6000803e3d6000fd5b5050506005830154604080517f6abbb3b40000000000000000000000000000000000000000000000000000000081527f00000000000000000000000000000000000000000000000000000000000000006004820152905173ffffffffffffffffffffffffffffffffffffffff8086169450635cfa9297938f93911691636abbb3b4916024808201926020929091908290030181600087803b15801561091b57600080fd5b505af115801561092f573d6000803e3d6000fd5b505050506040513d602081101561094557600080fd5b5051604080517fffffffff0000000000000000000000000000000000000000000000000000000060e086901b16815273ffffffffffffffffffffffffffffffffffffffff90931660048401527f000000000000000000000000000000000000000000000000000000000000000090911760248301526001604483015260806064830152600060848301819052905160a48084019382900301818387803b1580156109ee57600080fd5b505af1158015610a02573d6000803e3d6000fd5b507fbc197c81000000000000000000000000000000000000000000000000000000009e9d5050505050505050505050505050565b6040805162461bcd60e51b815260206004820152601860248201527f467573696f6e3a20756e737570706f727465642063616c6c00000000000000006044820152905160009181900360640190fd5b7f017c151499bd0a073c21e62300fb5d151700bdb9cadb076d36eb827db755ced69056fea26469706673582212205d1135c3b8bd508b98a74aa57f178d47cbc70559ebd26a0c1026387b14d5226664736f6c63430007060033",
  "linkReferences": {},
  "deployedLinkReferences": {}
}