{
  "_format": "hh-sol-artifact-1",
  "contractName": "REVVMotorsportInventory",
  "sourceName": "contracts/token/ERC155721/REVVMotorsportInventory.sol",
  "abi": [
    {
      "inputs": [
        {
          "internalType": "contract IForwarderRegistry",
          "name": "forwarderRegistry",
          "type": "address"
        },
        {
          "internalType": "address",
          "name": "universalForwarder",
          "type": "address"
        }
      ],
      "stateMutability": "nonpayable",
      "type": "constructor"
    },
    {
      "anonymous": false,
      "inputs": [
        {
          "indexed": true,
          "internalType": "address",
          "name": "_owner",
          "type": "address"
        },
        {
          "indexed": true,
          "internalType": "address",
          "name": "_approved",
          "type": "address"
        },
        {
          "indexed": true,
          "internalType": "uint256",
          "name": "_tokenId",
          "type": "uint256"
        }
      ],
      "name": "Approval",
      "type": "event"
    },
    {
      "anonymous": false,
      "inputs": [
        {
          "indexed": true,
          "internalType": "address",
          "name": "_owner",
          "type": "address"
        },
        {
          "indexed": true,
          "internalType": "address",
          "name": "_operator",
          "type": "address"
        },
        {
          "indexed": false,
          "internalType": "bool",
          "name": "_approved",
          "type": "bool"
        }
      ],
      "name": "ApprovalForAll",
      "type": "event"
    },
    {
      "anonymous": false,
      "inputs": [
        {
          "indexed": false,
          "internalType": "string",
          "name": "baseMetadataURI",
          "type": "string"
        }
      ],
      "name": "BaseMetadataURISet",
      "type": "event"
    },
    {
      "anonymous": false,
      "inputs": [
        {
          "indexed": true,
          "internalType": "uint256",
          "name": "collectionId",
          "type": "uint256"
        },
        {
          "indexed": true,
          "internalType": "bool",
          "name": "fungible",
          "type": "bool"
        }
      ],
      "name": "CollectionCreated",
      "type": "event"
    },
    {
      "anonymous": false,
      "inputs": [
        {
          "indexed": true,
          "internalType": "address",
          "name": "account",
          "type": "address"
        }
      ],
      "name": "MinterAdded",
      "type": "event"
    },
    {
      "anonymous": false,
      "inputs": [
        {
          "indexed": true,
          "internalType": "address",
          "name": "account",
          "type": "address"
        }
      ],
      "name": "MinterRemoved",
      "type": "event"
    },
    {
      "anonymous": false,
      "inputs": [
        {
          "indexed": true,
          "internalType": "address",
          "name": "previousOwner",
          "type": "address"
        },
        {
          "indexed": true,
          "internalType": "address",
          "name": "newOwner",
          "type": "address"
        }
      ],
      "name": "OwnershipTransferred",
      "type": "event"
    },
    {
      "anonymous": false,
      "inputs": [
        {
          "indexed": false,
          "internalType": "address",
          "name": "account",
          "type": "address"
        }
      ],
      "name": "Paused",
      "type": "event"
    },
    {
      "anonymous": false,
      "inputs": [
        {
          "indexed": true,
          "internalType": "address",
          "name": "_from",
          "type": "address"
        },
        {
          "indexed": true,
          "internalType": "address",
          "name": "_to",
          "type": "address"
        },
        {
          "indexed": true,
          "internalType": "uint256",
          "name": "_tokenId",
          "type": "uint256"
        }
      ],
      "name": "Transfer",
      "type": "event"
    },
    {
      "anonymous": false,
      "inputs": [
        {
          "indexed": true,
          "internalType": "address",
          "name": "_operator",
          "type": "address"
        },
        {
          "indexed": true,
          "internalType": "address",
          "name": "_from",
          "type": "address"
        },
        {
          "indexed": true,
          "internalType": "address",
          "name": "_to",
          "type": "address"
        },
        {
          "indexed": false,
          "internalType": "uint256[]",
          "name": "_ids",
          "type": "uint256[]"
        },
        {
          "indexed": false,
          "internalType": "uint256[]",
          "name": "_values",
          "type": "uint256[]"
        }
      ],
      "name": "TransferBatch",
      "type": "event"
    },
    {
      "anonymous": false,
      "inputs": [
        {
          "indexed": true,
          "internalType": "address",
          "name": "_operator",
          "type": "address"
        },
        {
          "indexed": true,
          "internalType": "address",
          "name": "_from",
          "type": "address"
        },
        {
          "indexed": true,
          "internalType": "address",
          "name": "_to",
          "type": "address"
        },
        {
          "indexed": false,
          "internalType": "uint256",
          "name": "_id",
          "type": "uint256"
        },
        {
          "indexed": false,
          "internalType": "uint256",
          "name": "_value",
          "type": "uint256"
        }
      ],
      "name": "TransferSingle",
      "type": "event"
    },
    {
      "anonymous": false,
      "inputs": [
        {
          "indexed": false,
          "internalType": "string",
          "name": "_value",
          "type": "string"
        },
        {
          "indexed": true,
          "internalType": "uint256",
          "name": "_id",
          "type": "uint256"
        }
      ],
      "name": "URI",
      "type": "event"
    },
    {
      "anonymous": false,
      "inputs": [
        {
          "indexed": false,
          "internalType": "address",
          "name": "account",
          "type": "address"
        }
      ],
      "name": "Unpaused",
      "type": "event"
    },
    {
      "inputs": [
        {
          "internalType": "address",
          "name": "account",
          "type": "address"
        }
      ],
      "name": "addMinter",
      "outputs": [],
      "stateMutability": "nonpayable",
      "type": "function"
    },
    {
      "inputs": [
        {
          "internalType": "address",
          "name": "to",
          "type": "address"
        },
        {
          "internalType": "uint256",
          "name": "nftId",
          "type": "uint256"
        }
      ],
      "name": "approve",
      "outputs": [],
      "stateMutability": "nonpayable",
      "type": "function"
    },
    {
      "inputs": [
        {
          "internalType": "address",
          "name": "owner",
          "type": "address"
        },
        {
          "internalType": "uint256",
          "name": "id",
          "type": "uint256"
        }
      ],
      "name": "balanceOf",
      "outputs": [
        {
          "internalType": "uint256",
          "name": "",
          "type": "uint256"
        }
      ],
      "stateMutability": "view",
      "type": "function"
    },
    {
      "inputs": [
        {
          "internalType": "address",
          "name": "tokenOwner",
          "type": "address"
        }
      ],
      "name": "balanceOf",
      "outputs": [
        {
          "internalType": "uint256",
          "name": "",
          "type": "uint256"
        }
      ],
      "stateMutability": "view",
      "type": "function"
    },
    {
      "inputs": [
        {
          "internalType": "address[]",
          "name": "owners",
          "type": "address[]"
        },
        {
          "internalType": "uint256[]",
          "name": "ids",
          "type": "uint256[]"
        }
      ],
      "name": "balanceOfBatch",
      "outputs": [
        {
          "internalType": "uint256[]",
          "name": "",
          "type": "uint256[]"
        }
      ],
      "stateMutability": "view",
      "type": "function"
    },
    {
      "inputs": [],
      "name": "baseMetadataURI",
      "outputs": [
        {
          "internalType": "string",
          "name": "",
          "type": "string"
        }
      ],
      "stateMutability": "view",
      "type": "function"
    },
    {
      "inputs": [
        {
          "internalType": "address",
          "name": "from",
          "type": "address"
        },
        {
          "internalType": "uint256[]",
          "name": "ids",
          "type": "uint256[]"
        },
        {
          "internalType": "uint256[]",
          "name": "values",
          "type": "uint256[]"
        }
      ],
      "name": "batchBurnFrom",
      "outputs": [],
      "stateMutability": "nonpayable",
      "type": "function"
    },
    {
      "inputs": [
        {
          "internalType": "address",
          "name": "from",
          "type": "address"
        },
        {
          "internalType": "uint256[]",
          "name": "nftIds",
          "type": "uint256[]"
        }
      ],
      "name": "batchBurnFrom",
      "outputs": [],
      "stateMutability": "nonpayable",
      "type": "function"
    },
    {
      "inputs": [
        {
          "internalType": "address",
          "name": "to",
          "type": "address"
        },
        {
          "internalType": "uint256[]",
          "name": "nftIds",
          "type": "uint256[]"
        }
      ],
      "name": "batchMint",
      "outputs": [],
      "stateMutability": "nonpayable",
      "type": "function"
    },
    {
      "inputs": [
        {
          "internalType": "address",
          "name": "from",
          "type": "address"
        },
        {
          "internalType": "address",
          "name": "to",
          "type": "address"
        },
        {
          "internalType": "uint256[]",
          "name": "nftIds",
          "type": "uint256[]"
        }
      ],
      "name": "batchTransferFrom",
      "outputs": [],
      "stateMutability": "nonpayable",
      "type": "function"
    },
    {
      "inputs": [
        {
          "internalType": "address",
          "name": "from",
          "type": "address"
        },
        {
          "internalType": "uint256",
          "name": "id",
          "type": "uint256"
        },
        {
          "internalType": "uint256",
          "name": "value",
          "type": "uint256"
        }
      ],
      "name": "burnFrom",
      "outputs": [],
      "stateMutability": "nonpayable",
      "type": "function"
    },
    {
      "inputs": [
        {
          "internalType": "uint256",
          "name": "nftId",
          "type": "uint256"
        }
      ],
      "name": "collectionOf",
      "outputs": [
        {
          "internalType": "uint256",
          "name": "",
          "type": "uint256"
        }
      ],
      "stateMutability": "pure",
      "type": "function"
    },
    {
      "inputs": [
        {
          "internalType": "uint256",
          "name": "collectionId",
          "type": "uint256"
        }
      ],
      "name": "createCollection",
      "outputs": [],
      "stateMutability": "nonpayable",
      "type": "function"
    },
    {
      "inputs": [
        {
          "internalType": "uint256",
          "name": "collectionId",
          "type": "uint256"
        }
      ],
      "name": "creator",
      "outputs": [
        {
          "internalType": "address",
          "name": "",
          "type": "address"
        }
      ],
      "stateMutability": "view",
      "type": "function"
    },
    {
      "inputs": [],
      "name": "deprecate",
      "outputs": [],
      "stateMutability": "nonpayable",
      "type": "function"
    },
    {
      "inputs": [
        {
          "internalType": "uint256",
          "name": "nftId",
          "type": "uint256"
        }
      ],
      "name": "getApproved",
      "outputs": [
        {
          "internalType": "address",
          "name": "",
          "type": "address"
        }
      ],
      "stateMutability": "view",
      "type": "function"
    },
    {
      "inputs": [
        {
          "internalType": "address",
          "name": "tokenOwner",
          "type": "address"
        },
        {
          "internalType": "address",
          "name": "operator",
          "type": "address"
        }
      ],
      "name": "isApprovedForAll",
      "outputs": [
        {
          "internalType": "bool",
          "name": "",
          "type": "bool"
        }
      ],
      "stateMutability": "view",
      "type": "function"
    },
    {
      "inputs": [
        {
          "internalType": "uint256",
          "name": "id",
          "type": "uint256"
        }
      ],
      "name": "isFungible",
      "outputs": [
        {
          "internalType": "bool",
          "name": "",
          "type": "bool"
        }
      ],
      "stateMutability": "pure",
      "type": "function"
    },
    {
      "inputs": [
        {
          "internalType": "address",
          "name": "",
          "type": "address"
        }
      ],
      "name": "isMinter",
      "outputs": [
        {
          "internalType": "bool",
          "name": "",
          "type": "bool"
        }
      ],
      "stateMutability": "view",
      "type": "function"
    },
    {
      "inputs": [
        {
          "internalType": "address",
          "name": "forwarder",
          "type": "address"
        }
      ],
      "name": "isTrustedForwarder",
      "outputs": [
        {
          "internalType": "bool",
          "name": "",
          "type": "bool"
        }
      ],
      "stateMutability": "view",
      "type": "function"
    },
    {
      "inputs": [
        {
          "internalType": "address",
          "name": "to",
          "type": "address"
        },
        {
          "internalType": "uint256",
          "name": "nftId",
          "type": "uint256"
        }
      ],
      "name": "mint",
      "outputs": [],
      "stateMutability": "nonpayable",
      "type": "function"
    },
    {
      "inputs": [],
      "name": "name",
      "outputs": [
        {
          "internalType": "string",
          "name": "",
          "type": "string"
        }
      ],
      "stateMutability": "view",
      "type": "function"
    },
    {
      "inputs": [],
      "name": "owner",
      "outputs": [
        {
          "internalType": "address",
          "name": "",
          "type": "address"
        }
      ],
      "stateMutability": "view",
      "type": "function"
    },
    {
      "inputs": [
        {
          "internalType": "uint256",
          "name": "nftId",
          "type": "uint256"
        }
      ],
      "name": "ownerOf",
      "outputs": [
        {
          "internalType": "address",
          "name": "",
          "type": "address"
        }
      ],
      "stateMutability": "view",
      "type": "function"
    },
    {
      "inputs": [],
      "name": "pause",
      "outputs": [],
      "stateMutability": "nonpayable",
      "type": "function"
    },
    {
      "inputs": [],
      "name": "paused",
      "outputs": [
        {
          "internalType": "bool",
          "name": "",
          "type": "bool"
        }
      ],
      "stateMutability": "view",
      "type": "function"
    },
    {
      "inputs": [
        {
          "internalType": "address[]",
          "name": "accounts",
          "type": "address[]"
        },
        {
          "internalType": "address[]",
          "name": "tokens",
          "type": "address[]"
        },
        {
          "internalType": "uint256[]",
          "name": "amounts",
          "type": "uint256[]"
        }
      ],
      "name": "recoverERC20s",
      "outputs": [],
      "stateMutability": "nonpayable",
      "type": "function"
    },
    {
      "inputs": [
        {
          "internalType": "address[]",
          "name": "accounts",
          "type": "address[]"
        },
        {
          "internalType": "address[]",
          "name": "contracts",
          "type": "address[]"
        },
        {
          "internalType": "uint256[]",
          "name": "tokenIds",
          "type": "uint256[]"
        }
      ],
      "name": "recoverERC721s",
      "outputs": [],
      "stateMutability": "nonpayable",
      "type": "function"
    },
    {
      "inputs": [],
      "name": "renounceMinter",
      "outputs": [],
      "stateMutability": "nonpayable",
      "type": "function"
    },
    {
      "inputs": [
        {
          "internalType": "address",
          "name": "to",
          "type": "address"
        },
        {
          "internalType": "uint256[]",
          "name": "ids",
          "type": "uint256[]"
        },
        {
          "internalType": "uint256[]",
          "name": "values",
          "type": "uint256[]"
        },
        {
          "internalType": "bytes",
          "name": "data",
          "type": "bytes"
        }
      ],
      "name": "safeBatchMint",
      "outputs": [],
      "stateMutability": "nonpayable",
      "type": "function"
    },
    {
      "inputs": [
        {
          "internalType": "address",
          "name": "from",
          "type": "address"
        },
        {
          "internalType": "address",
          "name": "to",
          "type": "address"
        },
        {
          "internalType": "uint256[]",
          "name": "ids",
          "type": "uint256[]"
        },
        {
          "internalType": "uint256[]",
          "name": "values",
          "type": "uint256[]"
        },
        {
          "internalType": "bytes",
          "name": "data",
          "type": "bytes"
        }
      ],
      "name": "safeBatchTransferFrom",
      "outputs": [],
      "stateMutability": "nonpayable",
      "type": "function"
    },
    {
      "inputs": [
        {
          "internalType": "address[]",
          "name": "recipients",
          "type": "address[]"
        },
        {
          "internalType": "uint256[]",
          "name": "ids",
          "type": "uint256[]"
        },
        {
          "internalType": "uint256[]",
          "name": "values",
          "type": "uint256[]"
        },
        {
          "internalType": "bytes",
          "name": "data",
          "type": "bytes"
        }
      ],
      "name": "safeDeliver",
      "outputs": [],
      "stateMutability": "nonpayable",
      "type": "function"
    },
    {
      "inputs": [
        {
          "internalType": "address",
          "name": "to",
          "type": "address"
        },
        {
          "internalType": "uint256",
          "name": "id",
          "type": "uint256"
        },
        {
          "internalType": "uint256",
          "name": "value",
          "type": "uint256"
        },
        {
          "internalType": "bytes",
          "name": "data",
          "type": "bytes"
        }
      ],
      "name": "safeMint",
      "outputs": [],
      "stateMutability": "nonpayable",
      "type": "function"
    },
    {
      "inputs": [
        {
          "internalType": "address",
          "name": "to",
          "type": "address"
        },
        {
          "internalType": "uint256",
          "name": "nftId",
          "type": "uint256"
        },
        {
          "internalType": "bytes",
          "name": "data",
          "type": "bytes"
        }
      ],
      "name": "safeMint",
      "outputs": [],
      "stateMutability": "nonpayable",
      "type": "function"
    },
    {
      "inputs": [
        {
          "internalType": "address",
          "name": "from",
          "type": "address"
        },
        {
          "internalType": "address",
          "name": "to",
          "type": "address"
        },
        {
          "internalType": "uint256",
          "name": "nftId",
          "type": "uint256"
        }
      ],
      "name": "safeTransferFrom",
      "outputs": [],
      "stateMutability": "nonpayable",
      "type": "function"
    },
    {
      "inputs": [
        {
          "internalType": "address",
          "name": "from",
          "type": "address"
        },
        {
          "internalType": "address",
          "name": "to",
          "type": "address"
        },
        {
          "internalType": "uint256",
          "name": "nftId",
          "type": "uint256"
        },
        {
          "internalType": "bytes",
          "name": "data",
          "type": "bytes"
        }
      ],
      "name": "safeTransferFrom",
      "outputs": [],
      "stateMutability": "nonpayable",
      "type": "function"
    },
    {
      "inputs": [
        {
          "internalType": "address",
          "name": "from",
          "type": "address"
        },
        {
          "internalType": "address",
          "name": "to",
          "type": "address"
        },
        {
          "internalType": "uint256",
          "name": "id",
          "type": "uint256"
        },
        {
          "internalType": "uint256",
          "name": "value",
          "type": "uint256"
        },
        {
          "internalType": "bytes",
          "name": "data",
          "type": "bytes"
        }
      ],
      "name": "safeTransferFrom",
      "outputs": [],
      "stateMutability": "nonpayable",
      "type": "function"
    },
    {
      "inputs": [
        {
          "internalType": "address",
          "name": "operator",
          "type": "address"
        },
        {
          "internalType": "bool",
          "name": "approved",
          "type": "bool"
        }
      ],
      "name": "setApprovalForAll",
      "outputs": [],
      "stateMutability": "nonpayable",
      "type": "function"
    },
    {
      "inputs": [
        {
          "internalType": "string",
          "name": "baseMetadataURI_",
          "type": "string"
        }
      ],
      "name": "setBaseMetadataURI",
      "outputs": [],
      "stateMutability": "nonpayable",
      "type": "function"
    },
    {
      "inputs": [
        {
          "internalType": "bytes4",
          "name": "interfaceId",
          "type": "bytes4"
        }
      ],
      "name": "supportsInterface",
      "outputs": [
        {
          "internalType": "bool",
          "name": "",
          "type": "bool"
        }
      ],
      "stateMutability": "view",
      "type": "function"
    },
    {
      "inputs": [],
      "name": "symbol",
      "outputs": [
        {
          "internalType": "string",
          "name": "",
          "type": "string"
        }
      ],
      "stateMutability": "view",
      "type": "function"
    },
    {
      "inputs": [
        {
          "internalType": "uint256",
          "name": "nftId",
          "type": "uint256"
        }
      ],
      "name": "tokenURI",
      "outputs": [
        {
          "internalType": "string",
          "name": "",
          "type": "string"
        }
      ],
      "stateMutability": "view",
      "type": "function"
    },
    {
      "inputs": [
        {
          "internalType": "uint256",
          "name": "id",
          "type": "uint256"
        }
      ],
      "name": "totalSupply",
      "outputs": [
        {
          "internalType": "uint256",
          "name": "",
          "type": "uint256"
        }
      ],
      "stateMutability": "view",
      "type": "function"
    },
    {
      "inputs": [
        {
          "internalType": "address",
          "name": "from",
          "type": "address"
        },
        {
          "internalType": "address",
          "name": "to",
          "type": "address"
        },
        {
          "internalType": "uint256",
          "name": "nftId",
          "type": "uint256"
        }
      ],
      "name": "transferFrom",
      "outputs": [],
      "stateMutability": "nonpayable",
      "type": "function"
    },
    {
      "inputs": [
        {
          "internalType": "address",
          "name": "newOwner",
          "type": "address"
        }
      ],
      "name": "transferOwnership",
      "outputs": [],
      "stateMutability": "nonpayable",
      "type": "function"
    },
    {
      "inputs": [],
      "name": "unpause",
      "outputs": [],
      "stateMutability": "nonpayable",
      "type": "function"
    },
    {
      "inputs": [
        {
          "internalType": "uint256",
          "name": "id",
          "type": "uint256"
        }
      ],
      "name": "uri",
      "outputs": [
        {
          "internalType": "string",
          "name": "",
          "type": "string"
        }
      ],
      "stateMutability": "view",
      "type": "function"
    }
  ],
  "bytecode": "0x60c06040523480156200001157600080fd5b50604051620060cb380380620060cb833981810160405260408110156200003757600080fd5b508051602091820151604080518082018252601981527f52455656204d6f746f7273706f727420496e76656e746f7279000000000000008186019081528251808401909352600580845264524556564d60d81b9684019690965281519495939486948694600094339485949193620000b292909190620001a4565b508051620000c8906006906020840190620001a4565b5050600980546001600160a01b0319166001600160a01b0384169081179091556040519091506000907f8be0079c531659141344cd1fd0a4f28419497f9722a3daafe3b4186f6b6457e0908290a350620001228162000158565b50600c805460ff1916911515919091179055606090811b6001600160601b031990811660a05291901b1660805250620002509050565b6001600160a01b0381166000818152600b6020526040808220805460ff19166001179055517f6ae172837ea30b801fbfcdd4108aa1d5bf8ff775444fd70256b44e6bf3dfc3f69190a250565b828054600181600116156101000203166002900490600052602060002090601f016020900481019282620001dc576000855562000227565b82601f10620001f757805160ff191683800117855562000227565b8280016001018555821562000227579182015b82811115620002275782518255916020019190600101906200020a565b506200023592915062000239565b5090565b5b808211156200023557600081556001016200023a565b60805160601c60a05160601c615e426200028960003980611c365280614540525080611c71528061450552806145985250615e426000f3fe608060405234801561001057600080fd5b50600436106103145760003560e01c806373c8a958116101a7578063b88d4fde116100ee578063e8ab9ccc11610097578063f247296511610071578063f2472965146114e9578063f2fde38b1461159c578063f3993d11146115c257610314565b8063e8ab9ccc1461128a578063e985e9c5146113f0578063f242432a1461141e57610314565b8063c7778baa116100c8578063c7778baa14611233578063c87b56dd14611250578063d0011d9d1461126d57610314565b8063b88d4fde1461103c578063bd85b03914611102578063c3666c361461111f57610314565b806395d89b4111610150578063a22cb4651161012a578063a22cb46514610fcb578063aa271e1a14610ff9578063adebf6f21461101f57610314565b806395d89b4114610f95578063983b2d5614610f9d5780639865027514610fc357610314565b80638456cb59116101815780638456cb5914610eca5780638832e6e314610ed25780638da5cb5b14610f8d57610314565b806373c8a95814610c0f5780637e518ec814610d235780638053493414610d9357610314565b80633f4ba83a1161026b578063572b6c05116102145780635cfa9297116101ee5780635cfa929714610b0a5780636352211e14610bcc57806370a0823114610be957610314565b8063572b6c0514610ad45780635b2bd79e14610afa5780635c975abb14610b0257610314565b80634684d7e9116102455780634684d7e9146108f25780634e1273f4146109a5578063510b515814610ab757610314565b80633f4ba83a1461088857806340c10f191461089057806342842e0e146108bc57610314565b80630d6a5bbb116102cd578063124d91e5116102a7578063124d91e51461065957806323b872dd1461068b5780632eb2c2d6146106c157610314565b80630d6a5bbb146104765780630e89341c146106345780630fcc0c281461065157610314565b806306fdde03116102fe57806306fdde0314610392578063081812fc1461040f578063095ea7b31461044857610314565b8062fdd58e1461031957806301ffc9a714610357575b600080fd5b6103456004803603604081101561032f57600080fd5b506001600160a01b03813516906020013561167e565b60408051918252519081900360200190f35b61037e6004803603602081101561036d57600080fd5b50356001600160e01b031916611749565b604080519115158252519081900360200190f35b61039a61178f565b6040805160208082528351818301528351919283929083019185019080838360005b838110156103d45781810151838201526020016103bc565b50505050905090810190601f1680156104015780820380516001836020036101000a031916815260200191505b509250505060405180910390f35b61042c6004803603602081101561042557600080fd5b5035611826565b604080516001600160a01b039092168252519081900360200190f35b6104746004803603604081101561045e57600080fd5b506001600160a01b0381351690602001356118c5565b005b6104746004803603608081101561048c57600080fd5b6001600160a01b0382351691908101906040810160208201356401000000008111156104b757600080fd5b8201836020820111156104c957600080fd5b803590602001918460208302840111640100000000831117156104eb57600080fd5b919080806020026020016040519081016040528093929190818152602001838360200280828437600092019190915250929594936020810193503591505064010000000081111561053b57600080fd5b82018360208201111561054d57600080fd5b8035906020019184602083028401116401000000008311171561056f57600080fd5b91908080602002602001604051908101604052809392919081815260200183836020028082843760009201919091525092959493602081019350359150506401000000008111156105bf57600080fd5b8201836020820111156105d157600080fd5b803590602001918460018302840111640100000000831117156105f357600080fd5b91908080601f016020809104026020016040519081016040528093929190818152602001838380828437600092019190915250929550611a17945050505050565b61039a6004803603602081101561064a57600080fd5b5035611a39565b610474611a44565b6104746004803603606081101561066f57600080fd5b506001600160a01b038135169060208101359060400135611a6d565b610474600480360360608110156106a157600080fd5b506001600160a01b03813581169160208101359091169060400135611a85565b610474600480360360a08110156106d757600080fd5b6001600160a01b03823581169260208101359091169181019060608101604082013564010000000081111561070b57600080fd5b82018360208201111561071d57600080fd5b8035906020019184602083028401116401000000008311171561073f57600080fd5b919080806020026020016040519081016040528093929190818152602001838360200280828437600092019190915250929594936020810193503591505064010000000081111561078f57600080fd5b8201836020820111156107a157600080fd5b803590602001918460208302840111640100000000831117156107c357600080fd5b919080806020026020016040519081016040528093929190818152602001838360200280828437600092019190915250929594936020810193503591505064010000000081111561081357600080fd5b82018360208201111561082557600080fd5b8035906020019184600183028401116401000000008311171561084757600080fd5b91908080601f016020809104026020016040519081016040528093929190818152602001838380828437600092019190915250929550611a98945050505050565b610474611ab4565b610474600480360360408110156108a657600080fd5b506001600160a01b038135169060200135611ace565b610474600480360360608110156108d257600080fd5b506001600160a01b03813581169160208101359091169060400135611af9565b6104746004803603604081101561090857600080fd5b6001600160a01b03823516919081019060408101602082013564010000000081111561093357600080fd5b82018360208201111561094557600080fd5b8035906020019184602083028401116401000000008311171561096757600080fd5b919080806020026020016040519081016040528093929190818152602001838360200280828437600092019190915250929550611b0c945050505050565b610a67600480360360408110156109bb57600080fd5b8101906020810181356401000000008111156109d657600080fd5b8201836020820111156109e857600080fd5b80359060200191846020830284011164010000000083111715610a0a57600080fd5b919390929091602081019035640100000000811115610a2857600080fd5b820183602082011115610a3a57600080fd5b80359060200191846020830284011164010000000083111715610a5c57600080fd5b509092509050611b21565b60408051602080825283518183015283519192839290830191858101910280838360005b83811015610aa3578181015183820152602001610a8b565b505050509050019250505060405180910390f35b61042c60048036036020811015610acd57600080fd5b5035611c27565b61037e60048036036020811015610aea57600080fd5b50356001600160a01b0316611c32565b61039a611cab565b61037e611d39565b61047460048036036080811015610b2057600080fd5b6001600160a01b038235169160208101359160408201359190810190608081016060820135640100000000811115610b5757600080fd5b820183602082011115610b6957600080fd5b80359060200191846001830284011164010000000083111715610b8b57600080fd5b91908080601f016020809104026020016040519081016040528093929190818152602001838380828437600092019190915250929550611d42945050505050565b61042c60048036036020811015610be257600080fd5b5035611d59565b61034560048036036020811015610bff57600080fd5b50356001600160a01b0316611d64565b61047460048036036060811015610c2557600080fd5b810190602081018135640100000000811115610c4057600080fd5b820183602082011115610c5257600080fd5b80359060200191846020830284011164010000000083111715610c7457600080fd5b919390929091602081019035640100000000811115610c9257600080fd5b820183602082011115610ca457600080fd5b80359060200191846020830284011164010000000083111715610cc657600080fd5b919390929091602081019035640100000000811115610ce457600080fd5b820183602082011115610cf657600080fd5b80359060200191846020830284011164010000000083111715610d1857600080fd5b509092509050611ddd565b61047460048036036020811015610d3957600080fd5b810190602081018135640100000000811115610d5457600080fd5b820183602082011115610d6657600080fd5b80359060200191846001830284011164010000000083111715610d8857600080fd5b509092509050611eca565b61047460048036036060811015610da957600080fd5b6001600160a01b038235169190810190604081016020820135640100000000811115610dd457600080fd5b820183602082011115610de657600080fd5b80359060200191846020830284011164010000000083111715610e0857600080fd5b9190808060200260200160405190810160405280939291908181526020018383602002808284376000920191909152509295949360208101935035915050640100000000811115610e5857600080fd5b820183602082011115610e6a57600080fd5b80359060200191846020830284011164010000000083111715610e8c57600080fd5b919080806020026020016040519081016040528093929190818152602001838360200280828437600092019190915250929550611f46945050505050565b610474611f59565b61047460048036036060811015610ee857600080fd5b6001600160a01b0382351691602081013591810190606081016040820135640100000000811115610f1857600080fd5b820183602082011115610f2a57600080fd5b80359060200191846001830284011164010000000083111715610f4c57600080fd5b91908080601f016020809104026020016040519081016040528093929190818152602001838380828437600092019190915250929550611f6c945050505050565b61042c611f84565b61039a611f93565b61047460048036036020811015610fb357600080fd5b50356001600160a01b0316611ff4565b61047461200b565b61047460048036036040811015610fe157600080fd5b506001600160a01b0381351690602001351515612069565b61037e6004803603602081101561100f57600080fd5b50356001600160a01b0316612148565b61037e6004803603602081101561103557600080fd5b503561215d565b6104746004803603608081101561105257600080fd5b6001600160a01b0382358116926020810135909116916040820135919081019060808101606082013564010000000081111561108d57600080fd5b82018360208201111561109f57600080fd5b803590602001918460018302840111640100000000831117156110c157600080fd5b91908080601f016020809104026020016040519081016040528093929190818152602001838380828437600092019190915250929550612168945050505050565b6103456004803603602081101561111857600080fd5b503561217c565b6104746004803603606081101561113557600080fd5b81019060208101813564010000000081111561115057600080fd5b82018360208201111561116257600080fd5b8035906020019184602083028401116401000000008311171561118457600080fd5b9193909290916020810190356401000000008111156111a257600080fd5b8201836020820111156111b457600080fd5b803590602001918460208302840111640100000000831117156111d657600080fd5b9193909290916020810190356401000000008111156111f457600080fd5b82018360208201111561120657600080fd5b8035906020019184602083028401116401000000008311171561122857600080fd5b5090925090506121d2565b6103456004803603602081101561124957600080fd5b503561231a565b61039a6004803603602081101561126657600080fd5b503561237f565b6104746004803603602081101561128357600080fd5b50356123f4565b610474600480360360808110156112a057600080fd5b8101906020810181356401000000008111156112bb57600080fd5b8201836020820111156112cd57600080fd5b803590602001918460208302840111640100000000831117156112ef57600080fd5b91939092909160208101903564010000000081111561130d57600080fd5b82018360208201111561131f57600080fd5b8035906020019184602083028401116401000000008311171561134157600080fd5b91939092909160208101903564010000000081111561135f57600080fd5b82018360208201111561137157600080fd5b8035906020019184602083028401116401000000008311171561139357600080fd5b9193909290916020810190356401000000008111156113b157600080fd5b8201836020820111156113c357600080fd5b803590602001918460018302840111640100000000831117156113e557600080fd5b509092509050612408565b61037e6004803603604081101561140657600080fd5b506001600160a01b0381358116916020013516612423565b610474600480360360a081101561143457600080fd5b6001600160a01b03823581169260208101359091169160408201359160608101359181019060a08101608082013564010000000081111561147457600080fd5b82018360208201111561148657600080fd5b803590602001918460018302840111640100000000831117156114a857600080fd5b91908080601f01602080910402602001604051908101604052809392919081815260200183838082843760009201919091525092955061244f945050505050565b610474600480360360408110156114ff57600080fd5b6001600160a01b03823516919081019060408101602082013564010000000081111561152a57600080fd5b82018360208201111561153c57600080fd5b8035906020019184602083028401116401000000008311171561155e57600080fd5b919080806020026020016040519081016040528093929190818152602001838360200280828437600092019190915250929550612464945050505050565b610474600480360360208110156115b257600080fd5b50356001600160a01b0316612476565b610474600480360360608110156115d857600080fd5b6001600160a01b03823581169260208101359091169181019060608101604082013564010000000081111561160c57600080fd5b82018360208201111561161e57600080fd5b8035906020019184602083028401116401000000008311171561164057600080fd5b9190808060200260200160405190810160405280939291908181526020018383602002808284376000920191909152509295506124de945050505050565b60006001600160a01b0383166116db576040805162461bcd60e51b815260206004820152601760248201527f496e76656e746f72793a207a65726f2061646472657373000000000000000000604482015290519081900360640190fd5b6116e4826124f1565b1561171e576000828152600360205260409020546001600160a01b03848116911614611711576000611714565b60015b60ff169050611743565b5060008181526001602090815260408083206001600160a01b03861684529091529020545b92915050565b60006001600160e01b031982167f510b5158000000000000000000000000000000000000000000000000000000001480611787575061178782612543565b90505b919050565b60058054604080516020601f600260001961010060018816150201909516949094049384018190048102820181019092528281526060939092909183018282801561181b5780601f106117f05761010080835404028352916020019161181b565b820191906000526020600020905b8154815290600101906020018083116117fe57829003601f168201915b505050505090505b90565b6000818152600360205260408120546001600160a01b038116611890576040805162461bcd60e51b815260206004820152601b60248201527f496e76656e746f72793a206e6f6e2d6578697374696e67204e46540000000000604482015290519081900360640190fd5b600160a01b8116156118bb5750506000818152600860205260409020546001600160a01b031661178a565b600091505061178a565b60006118d082611d59565b9050806001600160a01b0316836001600160a01b03161415611939576040805162461bcd60e51b815260206004820152601860248201527f496e76656e746f72793a2073656c662d617070726f76616c0000000000000000604482015290519081900360640190fd5b61194a81611945612581565b612590565b61199b576040805162461bcd60e51b815260206004820152601e60248201527f496e76656e746f72793a206e6f6e2d617070726f7665642073656e6465720000604482015290519081900360640190fd5b60008281526003602090815260408083206001600160a01b03808616600160a01b81179092556008909352818420805493881673ffffffffffffffffffffffffffffffffffffffff1990941684179055905185937f8c5be1e5ebec7d5bd14f71427d1e84f3dd0314c0f7b2291e5b200ac8c7c3b92591a4505050565b611a27611a22612581565b6125dc565b611a3384848484612649565b50505050565b6060611787826129fb565b611a4c612ace565b6000611a56612581565b9050611a6181612b25565b806001600160a01b0316ff5b611a75612be9565b611a80838383612c41565b505050565b611a8d612be9565b611a80838383612d34565b611aa0612be9565b611aad8585858585612d51565b5050505050565b611ac4611abf612581565b612b25565b611acc612d5e565b565b611ad9611a22612581565b611af58282604051806020016040528060008152506000612db6565b5050565b611b01612be9565b611a80838383612f5a565b611b17611a22612581565b611af58282612f77565b6060838214611b77576040805162461bcd60e51b815260206004820152601e60248201527f496e76656e746f72793a20696e636f6e73697374656e74206172726179730000604482015290519081900360640190fd5b60008467ffffffffffffffff81118015611b9057600080fd5b50604051908082528060200260200182016040528015611bba578160200160208202803683370190505b50905060005b808614611c1d57611bfe878783818110611bd657fe5b905060200201356001600160a01b0316868684818110611bf257fe5b9050602002013561167e565b828281518110611c0a57fe5b6020908102919091010152600101611bc0565b5095945050505050565b6000611787826132d5565b60007f00000000000000000000000000000000000000000000000000000000000000006001600160a01b0316826001600160a01b0316148061178757507f00000000000000000000000000000000000000000000000000000000000000006001600160a01b0316826001600160a01b0316149050919050565b600a805460408051602060026001851615610100026000190190941693909304601f81018490048402820184019092528181529291830182828015611d315780601f10611d0657610100808354040283529160200191611d31565b820191906000526020600020905b815481529060010190602001808311611d1457829003601f168201915b505050505081565b600c5460ff1681565b611d4d611a22612581565b611a338484848461334e565b600061178782613499565b60006001600160a01b038216611dc1576040805162461bcd60e51b815260206004820152601760248201527f496e76656e746f72793a207a65726f2061646472657373000000000000000000604482015290519081900360640190fd5b506001600160a01b031660009081526007602052604090205490565b611de8611abf612581565b848381148015611df757508082145b611e48576040805162461bcd60e51b815260206004820152601a60248201527f5265636f763a20696e636f6e73697374656e7420617272617973000000000000604482015290519081900360640190fd5b60005b818114611ec057611eb8888883818110611e6157fe5b905060200201356001600160a01b0316858584818110611e7d57fe5b90506020020135888885818110611e9057fe5b905060200201356001600160a01b03166001600160a01b03166135039092919063ffffffff16565b600101611e4b565b5050505050505050565b611ed5611abf612581565b611ee1600a8383615d6b565b507f04b1dc5c136a3ce9fded8db0ce3d3366c58764ec3a8e4c2b9e52e4ddfe5ebbf7828260405180806020018281038252848482818152602001925080828437600083820152604051601f909101601f19169092018290039550909350505050a15050565b611f4e612be9565b611a80838383613583565b611f64611abf612581565b611acc613820565b611f77611a22612581565b611a808383836001612db6565b6009546001600160a01b031690565b60068054604080516020601f600260001961010060018816150201909516949094049384018190048102820181019092528281526060939092909183018282801561181b5780601f106117f05761010080835404028352916020019161181b565b611fff611abf612581565b6120088161385e565b50565b6000612015612581565b9050612020816125dc565b6001600160a01b0381166000818152600b6020526040808220805460ff19169055517fe94479a9f7e1952cc78f2d6baab678adc1b772d936c6583def489e524cb666929190a250565b6000612073612581565b9050806001600160a01b0316836001600160a01b031614156120dc576040805162461bcd60e51b815260206004820152601860248201527f496e76656e746f72793a2073656c662d617070726f76616c0000000000000000604482015290519081900360640190fd5b6001600160a01b0381811660008181526020818152604080832094881680845294825291829020805460ff1916871515908117909155825190815291517f17307eab39ab6107e8899845ad3d59bd9653f200f220920489ca2b5937696c319281900390910190a3505050565b600b6020526000908152604090205460ff1681565b6000611787826138aa565b612170612be9565b611a33848484846138d0565b6000612187826124f1565b156121bd576000828152600360205260409020546001600160a01b0316156121b05760016121b3565b60005b60ff16905061178a565b5060008181526002602052604090205461178a565b6121dd611abf612581565b8483811480156121ec57508082145b61223d576040805162461bcd60e51b815260206004820152601a60248201527f5265636f763a20696e636f6e73697374656e7420617272617973000000000000604482015290519081900360640190fd5b60005b818114611ec05785858281811061225357fe5b905060200201356001600160a01b03166001600160a01b03166323b872dd308a8a8581811061227e57fe5b905060200201356001600160a01b031687878681811061229a57fe5b905060200201356040518463ffffffff1660e01b815260040180846001600160a01b03168152602001836001600160a01b031681526020018281526020019350505050600060405180830381600087803b1580156122f757600080fd5b505af115801561230b573d6000803e3d6000fd5b50505050806001019050612240565b6000612325826124f1565b612376576040805162461bcd60e51b815260206004820152601560248201527f496e76656e746f72793a206e6f7420616e204e46540000000000000000000000604482015290519081900360640190fd5b611787826138de565b6000818152600360205260409020546060906001600160a01b03166123eb576040805162461bcd60e51b815260206004820152601b60248201527f496e76656e746f72793a206e6f6e2d6578697374696e67204e46540000000000604482015290519081900360640190fd5b61178782611a39565b6123ff611abf612581565b612008816138eb565b612413611a22612581565b611ec08888888888888888613a2c565b6001600160a01b0391821660009081526020818152604080832093909416825291909152205460ff1690565b612457612be9565b611aad8585858585613d8b565b61246c612be9565b611af58282613f09565b612481611abf612581565b6009805473ffffffffffffffffffffffffffffffffffffffff19166001600160a01b0383811691821792839055604051919216907f8be0079c531659141344cd1fd0a4f28419497f9722a3daafe3b4186f6b6457e090600090a350565b6124e6612be9565b611a80838383614167565b60007f80000000000000000000000000000000000000000000000000000000000000008216158015906117875750507bffffffffffffffffffffffffffffffffffffffffffffffffffffffff16151590565b60006001600160e01b031982167f6059f1b400000000000000000000000000000000000000000000000000000000148061178757506117878261444f565b600061258b6144f5565b905090565b6000816001600160a01b0316836001600160a01b031614806125d557506001600160a01b038084166000908152602081815260408083209386168352929052205460ff165b9392505050565b6001600160a01b0381166000908152600b602052604090205460ff16612008576040805162461bcd60e51b815260206004820152601860248201527f4d696e746572526f6c653a206e6f742061204d696e7465720000000000000000604482015290519081900360640190fd5b6001600160a01b0384166126a4576040805162461bcd60e51b815260206004820152601760248201527f496e76656e746f72793a206d696e7420746f207a65726f000000000000000000604482015290519081900360640190fd5b8251825181146126fb576040805162461bcd60e51b815260206004820152601e60248201527f496e76656e746f72793a20696e636f6e73697374656e74206172726179730000604482015290519081900360640190fd5b6000806000805b8481146128a957600088828151811061271757fe5b60200260200101519050600088838151811061272f57fe5b60200260200101519050612742826138aa565b15612757576127528b8383614655565b61289f565b612760826124f1565b15612852576127728b83836001614747565b60405182906001600160a01b038d16906000907fddf252ad1be2c89b69c2b068fc378daa952ba7f163c4a11628f55a4df523b3ef908290a460006127b5836138de565b9050866127c8578096506001955061284c565b86811461284557856001600089815260200190815260200160002060008e6001600160a01b03166001600160a01b031681526020019081526020016000206000828254019250508190555085600260008981526020019081526020016000206000828254019250508190555080965085850194506001955061284c565b8560010195505b5061289f565b6040805162461bcd60e51b815260206004820152601960248201527f496e76656e746f72793a206e6f74206120746f6b656e20696400000000000000604482015290519081900360640190fd5b5050600101612702565b5082156128fe5760008381526001602090815260408083206001600160a01b038c1680855290835281842080548701905586845260028352818420805487019055835260079091529020805491830191820190555b6001600160a01b0388166000612912612581565b6001600160a01b03167f4a39dc06d4c0dbc64b70af90fd698a233a518aa5d07e595d983b8c0526c8f7fb8a8a604051808060200180602001838103835285818151815260200191508051906020019060200280838360005b8381101561298257818101518382015260200161296a565b50505050905001838103825284818151815260200191508051906020019060200280838360005b838110156129c15781810151838201526020016129a9565b5050505090500194505050505060405180910390a46129e8886001600160a01b0316614875565b15611ec057611ec060008989898961487b565b6060600a612a0883614a81565b6040516020018083805460018160011615610100020316600290048015612a665780601f10612a44576101008083540402835291820191612a66565b820191906000526020600020905b815481529060010190602001808311612a52575b5050825160208401908083835b60208310612a925780518252601f199092019160209182019101612a73565b6001836020036101000a038019825116818451168082178552505050505050905001925050506040516020818303038152906040529050919050565b600c5460ff16611acc576040805162461bcd60e51b815260206004820152601460248201527f5061757361626c653a206e6f7420706175736564000000000000000000000000604482015290519081900360640190fd5b306001600160a01b0316638da5cb5b6040518163ffffffff1660e01b815260040160206040518083038186803b158015612b5e57600080fd5b505afa158015612b72573d6000803e3d6000fd5b505050506040513d6020811015612b8857600080fd5b50516001600160a01b03828116911614612008576040805162461bcd60e51b815260206004820152601660248201527f4f776e61626c653a206e6f7420746865206f776e657200000000000000000000604482015290519081900360640190fd5b600c5460ff1615611acc576040805162461bcd60e51b815260206004820152601060248201527f5061757361626c653a2070617573656400000000000000000000000000000000604482015290519081900360640190fd5b6000612c4b612581565b90506000612c598583612590565b9050612c64846138aa565b15612c7a57612c7585858584614b90565b612ccf565b612c83846124f1565b1561285257612c96858585846000614cec565b60405184906000906001600160a01b038816907fddf252ad1be2c89b69c2b068fc378daa952ba7f163c4a11628f55a4df523b3ef908390a45b60006001600160a01b0316856001600160a01b0316836001600160a01b03167fc3d58168c5ae7397731d063d5bbf3d657854427343f4c083240f7aacaa2d0f628787604051808381526020018281526020019250505060405180910390a45050505050565b611a80838383604051806020016040528060008152506000614eb3565b611aad8585858585615021565b612d66612ace565b600c805460ff191690557f5db9ee0a495bf2e6ff9c91a7834c1ba4fdd244a5e8aa4e537bd38aeae4b073aa612d99612581565b604080516001600160a01b039092168252519081900360200190a1565b6001600160a01b038416612e11576040805162461bcd60e51b815260206004820152601760248201527f496e76656e746f72793a206d696e7420746f207a65726f000000000000000000604482015290519081900360640190fd5b612e1a836124f1565b612e6b576040805162461bcd60e51b815260206004820152601560248201527f496e76656e746f72793a206e6f7420616e204e46540000000000000000000000604482015290519081900360640190fd5b612e79848460016000614747565b60405183906001600160a01b038616906000907fddf252ad1be2c89b69c2b068fc378daa952ba7f163c4a11628f55a4df523b3ef908290a46001600160a01b0384166000612ec5612581565b6001600160a01b03167fc3d58168c5ae7397731d063d5bbf3d657854427343f4c083240f7aacaa2d0f62866001604051808381526020018281526020019250505060405180910390a4612f20846001600160a01b0316614875565b15611a3357612f2e8461532e565b15612f4757612f42600085856001866153f6565b611a33565b8015611a3357611a3360008585856154f8565b611a80838383604051806020016040528060008152506001614eb3565b6001600160a01b038216612fd2576040805162461bcd60e51b815260206004820152601760248201527f496e76656e746f72793a206d696e7420746f207a65726f000000000000000000604482015290519081900360640190fd5b805160008167ffffffffffffffff81118015612fed57600080fd5b50604051908082528060200260200182016040528015613017578160200160208202803683370190505b50905060008060005b84811461317157600086828151811061303557fe5b60200260200101519050613048816124f1565b613099576040805162461bcd60e51b815260206004820152601560248201527f496e76656e746f72793a206e6f7420616e204e46540000000000000000000000604482015290519081900360640190fd5b60018583815181106130a757fe5b6020026020010181815250506130c08882600180614747565b60405181906001600160a01b038a16906000907fddf252ad1be2c89b69c2b068fc378daa952ba7f163c4a11628f55a4df523b3ef908290a46000613103826138de565b9050846131165780945060019350613167565b8481146131605760008581526001602081815260408084206001600160a01b038e168552825280842080548901905597835260029052959020805490940190935591929183613167565b8360010193505b5050600101613020565b5060008281526001602090815260408083206001600160a01b038a168085529083528184208054860190558584526002835281842080548601905580845260079092528220805487019055906131c5612581565b6001600160a01b03167f4a39dc06d4c0dbc64b70af90fd698a233a518aa5d07e595d983b8c0526c8f7fb8887604051808060200180602001838103835285818151815260200191508051906020019060200280838360005b8381101561323557818101518382015260200161321d565b50505050905001838103825284818151815260200191508051906020019060200280838360005b8381101561327457818101518382015260200161325c565b5050505090500194505050505060405180910390a461329b866001600160a01b0316614875565b80156132ab57506132ab8661532e565b156132cd576132cd60008787866040518060200160405280600081525061487b565b505050505050565b60006132e0826124f1565b15613332576040805162461bcd60e51b815260206004820152601b60248201527f496e76656e746f72793a206e6f74206120636f6c6c656374696f6e0000000000604482015290519081900360640190fd5b506000908152600460205260409020546001600160a01b031690565b6001600160a01b0384166133a9576040805162461bcd60e51b815260206004820152601760248201527f496e76656e746f72793a206d696e7420746f207a65726f000000000000000000604482015290519081900360640190fd5b60006133b3612581565b90506133be846138aa565b156133d3576133ce858585614655565b613427565b6133dc846124f1565b15612852576133ee8585856000614747565b60405184906001600160a01b038716906000907fddf252ad1be2c89b69c2b068fc378daa952ba7f163c4a11628f55a4df523b3ef908290a45b604080518581526020810185905281516001600160a01b0380891693600093918616927fc3d58168c5ae7397731d063d5bbf3d657854427343f4c083240f7aacaa2d0f629281900390910190a4613486856001600160a01b0316614875565b15611aad57611aad6000868686866153f6565b6000818152600360205260408120546001600160a01b038116611787576040805162461bcd60e51b815260206004820152601b60248201527f496e76656e746f72793a206e6f6e2d6578697374696e67204e46540000000000604482015290519081900360640190fd5b604080516001600160a01b038416602482015260448082018490528251808303909101815260649091019091526020810180517bffffffffffffffffffffffffffffffffffffffffffffffffffffffff167fa9059cbb00000000000000000000000000000000000000000000000000000000179052611a8090849061567a565b8151815181146135da576040805162461bcd60e51b815260206004820152601e60248201527f496e76656e746f72793a20696e636f6e73697374656e74206172726179730000604482015290519081900360640190fd5b60006135e4612581565b905060006135f28683612590565b90506000806000805b86811461370557600089828151811061361057fe5b60200260200101519050613623816138aa565b1561364c576136478b828b858151811061363957fe5b602002602001015189614b90565b6136fc565b613655816124f1565b156128525761367b8b828b858151811061366b57fe5b6020026020010151896001614cec565b60405181906000906001600160a01b038e16907fddf252ad1be2c89b69c2b068fc378daa952ba7f163c4a11628f55a4df523b3ef908390a460006136be826138de565b9050856136d157809550600194506136fa565b8581146136f3576136e38c878761585d565b94506001939290920191846136fa565b8460010194505b505b506001016135fb565b50821561373b5761371789848461585d565b6001600160a01b038916600090815260076020526040902080549183019182900390555b60006001600160a01b0316896001600160a01b0316866001600160a01b03167f4a39dc06d4c0dbc64b70af90fd698a233a518aa5d07e595d983b8c0526c8f7fb8b8b604051808060200180602001838103835285818151815260200191508051906020019060200280838360005b838110156137c15781810151838201526020016137a9565b50505050905001838103825284818151815260200191508051906020019060200280838360005b838110156138005781810151838201526020016137e8565b5050505090500194505050505060405180910390a4505050505050505050565b613828612be9565b600c805460ff191660011790557f62e78cea01bee320cd4e420270b5ea74000d11b0c9f74754ebdbfc544b05a258612d99612581565b6001600160a01b0381166000818152600b6020526040808220805460ff19166001179055517f6ae172837ea30b801fbfcdd4108aa1d5bf8ff775444fd70256b44e6bf3dfc3f69190a250565b7f8000000000000000000000000000000000000000000000000000000000000000161590565b611a33848484846001614eb3565b6001600160e01b03191690565b6138f4816124f1565b15613946576040805162461bcd60e51b815260206004820152601b60248201527f496e76656e746f72793a206e6f74206120636f6c6c656374696f6e0000000000604482015290519081900360640190fd5b6000818152600460205260409020546001600160a01b0316156139b0576040805162461bcd60e51b815260206004820152601e60248201527f496e76656e746f72793a206578697374696e6720636f6c6c656374696f6e0000604482015290519081900360640190fd5b6139b8612581565b6000828152600460205260409020805473ffffffffffffffffffffffffffffffffffffffff19166001600160a01b03929092169190911790556139fa816138aa565b1515817f4ebf8ad0df535ba5e487bc9cb27fe44120ca81c3a95d3eba79c0bd1df2ab2d5d60405160405180910390a350565b868581148015613a3b57508084145b613a8c576040805162461bcd60e51b815260206004820152601e60248201527f496e76656e746f72793a20696e636f6e73697374656e74206172726179730000604482015290519081900360640190fd5b6000613a96612581565b905060005b828114613d7e5760008b8b83818110613ab057fe5b905060200201356001600160a01b0316905060006001600160a01b0316816001600160a01b03161415613b2a576040805162461bcd60e51b815260206004820152601760248201527f496e76656e746f72793a206d696e7420746f207a65726f000000000000000000604482015290519081900360640190fd5b60008a8a84818110613b3857fe5b9050602002013590506000898985818110613b4f57fe5b905060200201359050613b61826138aa565b15613c1e57613b71838383614655565b604080518381526020810183905281516001600160a01b0380871693600093918a16927fc3d58168c5ae7397731d063d5bbf3d657854427343f4c083240f7aacaa2d0f629281900390910190a4613bd0836001600160a01b0316614875565b15613c1957613c1960008484848c8c8080601f0160208091040260200160405190810160405280939291908181526020018383808284376000920191909152506153f692505050565b613d70565b613c27826124f1565b1561285257613c398383836000614747565b60405182906001600160a01b038516906000907fddf252ad1be2c89b69c2b068fc378daa952ba7f163c4a11628f55a4df523b3ef908290a4604080518381526001602082015281516001600160a01b0380871693600093918a16927fc3d58168c5ae7397731d063d5bbf3d657854427343f4c083240f7aacaa2d0f629281900390910190a4613cd0836001600160a01b0316614875565b15613c1957613cde8361532e565b15613d2d57613d286000848460018c8c8080601f0160208091040260200160405190810160405280939291908181526020018383808284376000920191909152506153f692505050565b613c19565b613c19600084848b8b8080601f0160208091040260200160405190810160405280939291908181526020018383808284376000920191909152506154f892505050565b505050806001019050613a9b565b5050505050505050505050565b6000613d95612581565b90506001600160a01b038516613df2576040805162461bcd60e51b815260206004820152601b60248201527f496e76656e746f72793a207472616e7366657220746f207a65726f0000000000604482015290519081900360640190fd5b6000613dfe8783612590565b9050613e09856138aa565b15613e2057613e1b878787878561589d565b613e7f565b613e29856124f1565b1561285257613e3d87878787856000615a10565b84866001600160a01b0316886001600160a01b03167fddf252ad1be2c89b69c2b068fc378daa952ba7f163c4a11628f55a4df523b3ef60405160405180910390a45b856001600160a01b0316876001600160a01b0316836001600160a01b03167fc3d58168c5ae7397731d063d5bbf3d657854427343f4c083240f7aacaa2d0f628888604051808381526020018281526020019250505060405180910390a4613eee866001600160a01b0316614875565b15613f0057613f0087878787876153f6565b50505050505050565b6000613f13612581565b90506000613f218483612590565b835190915060008167ffffffffffffffff81118015613f3f57600080fd5b50604051908082528060200260200182016040528015613f69578160200160208202803683370190505b50905060008060005b848114614051576000888281518110613f8757fe5b602002602001015190506001858381518110613f9f57fe5b602002602001018181525050613fcc8a82878581518110613fbc57fe5b60200260200101518a6001614cec565b60405181906000906001600160a01b038d16907fddf252ad1be2c89b69c2b068fc378daa952ba7f163c4a11628f55a4df523b3ef908390a4600061400f826138de565b9050846140225780945060019350614047565b848114614040576140348b868661585d565b80945060019350614047565b8360010193505b5050600101613f72565b5081156140835761406388838361585d565b6001600160a01b0388166000908152600760205260409020805485900390555b60006001600160a01b0316886001600160a01b0316876001600160a01b03167f4a39dc06d4c0dbc64b70af90fd698a233a518aa5d07e595d983b8c0526c8f7fb8a87604051808060200180602001838103835285818151815260200191508051906020019060200280838360005b838110156141095781810151838201526020016140f1565b50505050905001838103825284818151815260200191508051906020019060200280838360005b83811015614148578181015183820152602001614130565b5050505090500194505050505060405180910390a45050505050505050565b6001600160a01b0382166141c2576040805162461bcd60e51b815260206004820152601b60248201527f496e76656e746f72793a207472616e7366657220746f207a65726f0000000000604482015290519081900360640190fd5b60006141cc612581565b905060006141da8583612590565b835190915060008167ffffffffffffffff811180156141f857600080fd5b50604051908082528060200260200182016040528015614222578160200160208202803683370190505b50905060008060005b84811461430357600088828151811061424057fe5b60200260200101519050600185838151811061425857fe5b6020026020010181815250506142748b8b8360018b6001615a10565b808a6001600160a01b03168c6001600160a01b03167fddf252ad1be2c89b69c2b068fc378daa952ba7f163c4a11628f55a4df523b3ef60405160405180910390a460006142c0826138de565b9050846142d357809450600193506142f9565b8481146142f2576142e68c8c8787615ba1565b809450600193506142f9565b8360010193505b505060010161422b565b5081156143215761431689898484615ba1565b614321898986615bf5565b876001600160a01b0316896001600160a01b031661433d612581565b6001600160a01b03167f4a39dc06d4c0dbc64b70af90fd698a233a518aa5d07e595d983b8c0526c8f7fb8a87604051808060200180602001838103835285818151815260200191508051906020019060200280838360005b838110156143ad578181015183820152602001614395565b50505050905001838103825284818151815260200191508051906020019060200280838360005b838110156143ec5781810151838201526020016143d4565b5050505090500194505050505060405180910390a4614413886001600160a01b0316614875565b801561442357506144238861532e565b1561444457614444898989866040518060200160405280600081525061487b565b505050505050505050565b60006001600160e01b031982167f80ac58cd0000000000000000000000000000000000000000000000000000000014806144b257506001600160e01b031982167f5b5e139f00000000000000000000000000000000000000000000000000000000145b806144e657506001600160e01b031982167ff3993d1100000000000000000000000000000000000000000000000000000000145b80611787575061178782615c40565b60003381614501615d41565b90507f00000000000000000000000000000000000000000000000000000000000000006001600160a01b0316826001600160a01b0316148061457457507f00000000000000000000000000000000000000000000000000000000000000006001600160a01b0316826001600160a01b0316145b156145825791506118239050565b6001600160a01b038216321480159061464157507f00000000000000000000000000000000000000000000000000000000000000006001600160a01b031663e60125d682846040518363ffffffff1660e01b815260040180836001600160a01b03168152602001826001600160a01b031681526020019250505060206040518083038186803b15801561461457600080fd5b505afa158015614628573d6000803e3d6000fd5b505050506040513d602081101561463e57600080fd5b50515b1561464f5791506118239050565b50905090565b806146a7576040805162461bcd60e51b815260206004820152601560248201527f496e76656e746f72793a207a65726f2076616c75650000000000000000000000604482015290519081900360640190fd5b60008281526002602052604090205481810181811161470d576040805162461bcd60e51b815260206004820152601a60248201527f496e76656e746f72793a20737570706c79206f766572666c6f77000000000000604482015290519081900360640190fd5b600093845260026020908152604080862092909255600181528185206001600160a01b039096168552949094525091902080549091019055565b8160011461479c576040805162461bcd60e51b815260206004820152601a60248201527f496e76656e746f72793a2077726f6e67204e46542076616c7565000000000000604482015290519081900360640190fd5b600083815260036020526040902054156147fd576040805162461bcd60e51b815260206004820152601d60248201527f496e76656e746f72793a206578697374696e672f6275726e74204e4654000000604482015290519081900360640190fd5b60008381526003602052604090206001600160a01b038516905580611a33576000614827846138de565b6000908152600260209081526040808320805460019081019091558083528184206001600160a01b038a16855283528184208054820190556007909252909120805490910190555050505050565b3b151590565b7fbc197c81000000000000000000000000000000000000000000000000000000006001600160a01b03851663bc197c816148b3612581565b888787876040518663ffffffff1660e01b815260040180866001600160a01b03168152602001856001600160a01b03168152602001806020018060200180602001848103845287818151815260200191508051906020019060200280838360005b8381101561492c578181015183820152602001614914565b50505050905001848103835286818151815260200191508051906020019060200280838360005b8381101561496b578181015183820152602001614953565b50505050905001848103825285818151815260200191508051906020019080838360005b838110156149a757818101518382015260200161498f565b50505050905090810190601f1680156149d45780820380516001836020036101000a031916815260200191505b5098505050505050505050602060405180830381600087803b1580156149f957600080fd5b505af1158015614a0d573d6000803e3d6000fd5b505050506040513d6020811015614a2357600080fd5b50516001600160e01b03191614611aad576040805162461bcd60e51b815260206004820152601b60248201527f496e76656e746f72793a207472616e7366657220726566757365640000000000604482015290519081900360640190fd5b606081614ac2575060408051808201909152600181527f3000000000000000000000000000000000000000000000000000000000000000602082015261178a565b8160005b8115614ada57600101600a82049150614ac6565b60008167ffffffffffffffff81118015614af357600080fd5b506040519080825280601f01601f191660200182016040528015614b1e576020820181803683370190505b50859350905060001982015b8315614b8757600a840660300160f81b82828060019003935081518110614b4d57fe5b60200101907effffffffffffffffffffffffffffffffffffffffffffffffffffffffffffff1916908160001a905350600a84049350614b2a565b50949350505050565b81614be2576040805162461bcd60e51b815260206004820152601560248201527f496e76656e746f72793a207a65726f2076616c75650000000000000000000000604482015290519081900360640190fd5b80614c34576040805162461bcd60e51b815260206004820152601e60248201527f496e76656e746f72793a206e6f6e2d617070726f7665642073656e6465720000604482015290519081900360640190fd5b60008381526001602090815260408083206001600160a01b038816845290915290205482811015614cac576040805162461bcd60e51b815260206004820152601d60248201527f496e76656e746f72793a206e6f7420656e6f7567682062616c616e6365000000604482015290519081900360640190fd5b60008481526001602090815260408083206001600160a01b0390981683529681528682209285900390925593845260029052509190208054919091039055565b82600114614d41576040805162461bcd60e51b815260206004820152601a60248201527f496e76656e746f72793a2077726f6e67204e46542076616c7565000000000000604482015290519081900360640190fd5b6000848152600360205260409020546001600160a01b0386811690821614614db0576040805162461bcd60e51b815260206004820152601860248201527f496e76656e746f72793a206e6f6e2d6f776e6564204e46540000000000000000604482015290519081900360640190fd5b82614e4157600160a01b811615801590614df057506000858152600860205260409020546001600160a01b0316614de5612581565b6001600160a01b0316145b614e41576040805162461bcd60e51b815260206004820152601e60248201527f496e76656e746f72793a206e6f6e2d617070726f7665642073656e6465720000604482015290519081900360640190fd5b60008581526003602052604090207fdead0000000000000000000000000000000000000000000000000000000000009055816132cd57614e8b86614e84876138de565b600161585d565b6001600160a01b03861660009081526007602052604090208054600019019055505050505050565b6001600160a01b038416614f0e576040805162461bcd60e51b815260206004820152601b60248201527f496e76656e746f72793a207472616e7366657220746f207a65726f0000000000604482015290519081900360640190fd5b6000614f18612581565b90506000614f268783612590565b9050614f388787876001856000615a10565b84866001600160a01b0316886001600160a01b03167fddf252ad1be2c89b69c2b068fc378daa952ba7f163c4a11628f55a4df523b3ef60405160405180910390a4856001600160a01b0316876001600160a01b0316836001600160a01b03167fc3d58168c5ae7397731d063d5bbf3d657854427343f4c083240f7aacaa2d0f62886001604051808381526020018281526020019250505060405180910390a4614fe9866001600160a01b0316614875565b15613f0057614ff78661532e565b1561500f5761500a8787876001886153f6565b613f00565b8215613f0057613f00878787876154f8565b6001600160a01b03841661507c576040805162461bcd60e51b815260206004820152601b60248201527f496e76656e746f72793a207472616e7366657220746f207a65726f0000000000604482015290519081900360640190fd5b8251825181146150d3576040805162461bcd60e51b815260206004820152601e60248201527f496e76656e746f72793a20696e636f6e73697374656e74206172726179730000604482015290519081900360640190fd5b60006150dd612581565b905060006150eb8883612590565b90506000806000805b86811461520a5760008a828151811061510957fe5b6020026020010151905061511c816138aa565b15615146576151418d8d838d868151811061513357fe5b60200260200101518a61589d565b615201565b61514f816124f1565b15612852576151768d8d838d868151811061516657fe5b60200260200101518a6001615a10565b808c6001600160a01b03168e6001600160a01b03167fddf252ad1be2c89b69c2b068fc378daa952ba7f163c4a11628f55a4df523b3ef60405160405180910390a460006151c2826138de565b9050856151d557809550600194506151ff565b8581146151f8576151e88e8e8888615ba1565b94506001939290920191846151ff565b8460010194505b505b506001016150f4565b50821561522a5761521d8b8b8585615ba1565b810161522a8b8b83615bf5565b896001600160a01b03168b6001600160a01b0316615246612581565b6001600160a01b03167f4a39dc06d4c0dbc64b70af90fd698a233a518aa5d07e595d983b8c0526c8f7fb8c8c604051808060200180602001838103835285818151815260200191508051906020019060200280838360005b838110156152b657818101518382015260200161529e565b50505050905001838103825284818151815260200191508051906020019060200280838360005b838110156152f55781810151838201526020016152dd565b5050505090500194505050505060405180910390a461531c8a6001600160a01b0316614875565b15613d7e57613d7e8b8b8b8b8b61487b565b604080517f4e2312e0000000000000000000000000000000000000000000000000000000006024808301919091528251808303909101815260449091018252602081810180517bffffffffffffffffffffffffffffffffffffffffffffffffffffffff167f01ffc9a7000000000000000000000000000000000000000000000000000000001781528251935160008082529485948594909392908183858b612710fa955080519450505050609e5a116153e357fe5b8280156153ed5750815b95945050505050565b7ff23a6e61000000000000000000000000000000000000000000000000000000006001600160a01b03851663f23a6e6161542e612581565b888787876040518663ffffffff1660e01b815260040180866001600160a01b03168152602001856001600160a01b0316815260200184815260200183815260200180602001828103825283818151815260200191508051906020019080838360005b838110156154a8578181015183820152602001615490565b50505050905090810190601f1680156154d55780820380516001836020036101000a031916815260200191505b509650505050505050602060405180830381600087803b1580156149f957600080fd5b7f150b7a02000000000000000000000000000000000000000000000000000000006001600160a01b03841663150b7a02615530612581565b8786866040518563ffffffff1660e01b815260040180856001600160a01b03168152602001846001600160a01b0316815260200183815260200180602001828103825283818151815260200191508051906020019080838360005b838110156155a357818101518382015260200161558b565b50505050905090810190601f1680156155d05780820380516001836020036101000a031916815260200191505b5095505050505050602060405180830381600087803b1580156155f257600080fd5b505af1158015615606573d6000803e3d6000fd5b505050506040513d602081101561561c57600080fd5b50516001600160e01b03191614611a33576040805162461bcd60e51b815260206004820152601b60248201527f496e76656e746f72793a207472616e7366657220726566757365640000000000604482015290519081900360640190fd5b8161568d6001600160a01b038216614875565b6156de576040805162461bcd60e51b815260206004820152601a60248201527f4552433230577261707065723a206e6f6e2d636f6e7472616374000000000000604482015290519081900360640190fd5b600080826001600160a01b0316846040518082805190602001908083835b6020831061571b5780518252601f1990920191602091820191016156fc565b6001836020036101000a0380198251168184511680821785525050505050509050019150506000604051808303816000865af19150503d806000811461577d576040519150601f19603f3d011682016040523d82523d6000602084013e615782565b606091505b50915091508115615801578051156157fc578080602001905160208110156157a957600080fd5b50516157fc576040805162461bcd60e51b815260206004820152601e60248201527f4552433230577261707065723a206f7065726174696f6e206661696c65640000604482015290519081900360640190fd5b611aad565b8051615854576040805162461bcd60e51b815260206004820152601e60248201527f4552433230577261707065723a206f7065726174696f6e206661696c65640000604482015290519081900360640190fd5b80518082602001fd5b60008281526001602090815260408083206001600160a01b0390961683529481528482208054849003905592815260029092529190208054919091039055565b806158ef576040805162461bcd60e51b815260206004820152601e60248201527f496e76656e746f72793a206e6f6e2d617070726f7665642073656e6465720000604482015290519081900360640190fd5b81615941576040805162461bcd60e51b815260206004820152601560248201527f496e76656e746f72793a207a65726f2076616c75650000000000000000000000604482015290519081900360640190fd5b60008381526001602090815260408083206001600160a01b0389168452909152902054828110156159b9576040805162461bcd60e51b815260206004820152601d60248201527f496e76656e746f72793a206e6f7420656e6f7567682062616c616e6365000000604482015290519081900360640190fd5b846001600160a01b0316866001600160a01b0316146132cd5760009384526001602090815260408086206001600160a01b039889168752909152808520918490039091559390941682529190208054909101905550565b82600114615a65576040805162461bcd60e51b815260206004820152601a60248201527f496e76656e746f72793a2077726f6e67204e46542076616c7565000000000000604482015290519081900360640190fd5b6000848152600360205260409020546001600160a01b0387811690821614615ad4576040805162461bcd60e51b815260206004820152601860248201527f496e76656e746f72793a206e6f6e2d6f776e6564204e46540000000000000000604482015290519081900360640190fd5b82615b6557600160a01b811615801590615b1457506000858152600860205260409020546001600160a01b0316615b09612581565b6001600160a01b0316145b615b65576040805162461bcd60e51b815260206004820152601e60248201527f496e76656e746f72793a206e6f6e2d617070726f7665642073656e6465720000604482015290519081900360640190fd5b60008581526003602052604090206001600160a01b038716905581613f0057615b9087876001615bf5565b613f008787615b9e886138de565b60015b826001600160a01b0316846001600160a01b031614611a335760009182526001602090815260408084206001600160a01b039687168552909152808320805483900390559290931681522080549091019055565b816001600160a01b0316836001600160a01b031614611a80576001600160a01b0380841660009081526007602052604080822080548590039055918416815220805482019055505050565b60006001600160e01b031982167f01ffc9a7000000000000000000000000000000000000000000000000000000001480615ca357506001600160e01b031982167fd9b67a2600000000000000000000000000000000000000000000000000000000145b80615cd757506001600160e01b031982167f0e89341c00000000000000000000000000000000000000000000000000000000145b80615d0b57506001600160e01b031982167f09ce5c4600000000000000000000000000000000000000000000000000000000145b806117875750506001600160e01b0319167fbd85b039000000000000000000000000000000000000000000000000000000001490565b7fffffffffffffffffffffffffffffffffffffffffffffffffffffffffffffffec36013560601c90565b828054600181600116156101000203166002900490600052602060002090601f016020900481019282615da15760008555615de7565b82601f10615dba5782800160ff19823516178555615de7565b82800160010185558215615de7579182015b82811115615de7578235825591602001919060010190615dcc565b50615df3929150615df7565b5090565b5b80821115615df35760008155600101615df856fea2646970667358221220e1e3fa344d6c5c0d840074125c84175c271f54084f1dbe0de9a5c9b36c40be1864736f6c63430007060033",
  "linkReferences": {},
  "deployedLinkReferences": {}
}