{
  "_format": "hh-sol-artifact-1",
  "contractName": "REVVMotorsportInventory",
  "sourceName": "contracts/token/ERC155721/REVVMotorsportInventory.sol",
  "abi": [
    {
      "inputs": [
        {
          "internalType": "contract IForwarderRegistry",
          "name": "forwarderRegistry",
          "type": "address"
        },
        {
          "internalType": "address",
          "name": "universalForwarder",
          "type": "address"
        }
      ],
      "stateMutability": "nonpayable",
      "type": "constructor"
    },
    {
      "anonymous": false,
      "inputs": [
        {
          "indexed": true,
          "internalType": "address",
          "name": "_owner",
          "type": "address"
        },
        {
          "indexed": true,
          "internalType": "address",
          "name": "_approved",
          "type": "address"
        },
        {
          "indexed": true,
          "internalType": "uint256",
          "name": "_tokenId",
          "type": "uint256"
        }
      ],
      "name": "Approval",
      "type": "event"
    },
    {
      "anonymous": false,
      "inputs": [
        {
          "indexed": true,
          "internalType": "address",
          "name": "_owner",
          "type": "address"
        },
        {
          "indexed": true,
          "internalType": "address",
          "name": "_operator",
          "type": "address"
        },
        {
          "indexed": false,
          "internalType": "bool",
          "name": "_approved",
          "type": "bool"
        }
      ],
      "name": "ApprovalForAll",
      "type": "event"
    },
    {
      "anonymous": false,
      "inputs": [
        {
          "indexed": false,
          "internalType": "string",
          "name": "baseMetadataURI",
          "type": "string"
        }
      ],
      "name": "BaseMetadataURISet",
      "type": "event"
    },
    {
      "anonymous": false,
      "inputs": [
        {
          "indexed": true,
          "internalType": "uint256",
          "name": "collectionId",
          "type": "uint256"
        },
        {
          "indexed": true,
          "internalType": "bool",
          "name": "fungible",
          "type": "bool"
        }
      ],
      "name": "CollectionCreated",
      "type": "event"
    },
    {
      "anonymous": false,
      "inputs": [
        {
          "indexed": true,
          "internalType": "address",
          "name": "account",
          "type": "address"
        }
      ],
      "name": "MinterAdded",
      "type": "event"
    },
    {
      "anonymous": false,
      "inputs": [
        {
          "indexed": true,
          "internalType": "address",
          "name": "account",
          "type": "address"
        }
      ],
      "name": "MinterRemoved",
      "type": "event"
    },
    {
      "anonymous": false,
      "inputs": [
        {
          "indexed": true,
          "internalType": "address",
          "name": "previousOwner",
          "type": "address"
        },
        {
          "indexed": true,
          "internalType": "address",
          "name": "newOwner",
          "type": "address"
        }
      ],
      "name": "OwnershipTransferred",
      "type": "event"
    },
    {
      "anonymous": false,
      "inputs": [
        {
          "indexed": false,
          "internalType": "address",
          "name": "account",
          "type": "address"
        }
      ],
      "name": "Paused",
      "type": "event"
    },
    {
      "anonymous": false,
      "inputs": [
        {
          "indexed": true,
          "internalType": "address",
          "name": "_from",
          "type": "address"
        },
        {
          "indexed": true,
          "internalType": "address",
          "name": "_to",
          "type": "address"
        },
        {
          "indexed": true,
          "internalType": "uint256",
          "name": "_tokenId",
          "type": "uint256"
        }
      ],
      "name": "Transfer",
      "type": "event"
    },
    {
      "anonymous": false,
      "inputs": [
        {
          "indexed": true,
          "internalType": "address",
          "name": "_operator",
          "type": "address"
        },
        {
          "indexed": true,
          "internalType": "address",
          "name": "_from",
          "type": "address"
        },
        {
          "indexed": true,
          "internalType": "address",
          "name": "_to",
          "type": "address"
        },
        {
          "indexed": false,
          "internalType": "uint256[]",
          "name": "_ids",
          "type": "uint256[]"
        },
        {
          "indexed": false,
          "internalType": "uint256[]",
          "name": "_values",
          "type": "uint256[]"
        }
      ],
      "name": "TransferBatch",
      "type": "event"
    },
    {
      "anonymous": false,
      "inputs": [
        {
          "indexed": true,
          "internalType": "address",
          "name": "_operator",
          "type": "address"
        },
        {
          "indexed": true,
          "internalType": "address",
          "name": "_from",
          "type": "address"
        },
        {
          "indexed": true,
          "internalType": "address",
          "name": "_to",
          "type": "address"
        },
        {
          "indexed": false,
          "internalType": "uint256",
          "name": "_id",
          "type": "uint256"
        },
        {
          "indexed": false,
          "internalType": "uint256",
          "name": "_value",
          "type": "uint256"
        }
      ],
      "name": "TransferSingle",
      "type": "event"
    },
    {
      "anonymous": false,
      "inputs": [
        {
          "indexed": false,
          "internalType": "string",
          "name": "_value",
          "type": "string"
        },
        {
          "indexed": true,
          "internalType": "uint256",
          "name": "_id",
          "type": "uint256"
        }
      ],
      "name": "URI",
      "type": "event"
    },
    {
      "anonymous": false,
      "inputs": [
        {
          "indexed": false,
          "internalType": "address",
          "name": "account",
          "type": "address"
        }
      ],
      "name": "Unpaused",
      "type": "event"
    },
    {
      "inputs": [
        {
          "internalType": "address",
          "name": "account",
          "type": "address"
        }
      ],
      "name": "addMinter",
      "outputs": [],
      "stateMutability": "nonpayable",
      "type": "function"
    },
    {
      "inputs": [
        {
          "internalType": "address",
          "name": "to",
          "type": "address"
        },
        {
          "internalType": "uint256",
          "name": "nftId",
          "type": "uint256"
        }
      ],
      "name": "approve",
      "outputs": [],
      "stateMutability": "nonpayable",
      "type": "function"
    },
    {
      "inputs": [
        {
          "internalType": "address",
          "name": "owner",
          "type": "address"
        },
        {
          "internalType": "uint256",
          "name": "id",
          "type": "uint256"
        }
      ],
      "name": "balanceOf",
      "outputs": [
        {
          "internalType": "uint256",
          "name": "",
          "type": "uint256"
        }
      ],
      "stateMutability": "view",
      "type": "function"
    },
    {
      "inputs": [
        {
          "internalType": "address",
          "name": "tokenOwner",
          "type": "address"
        }
      ],
      "name": "balanceOf",
      "outputs": [
        {
          "internalType": "uint256",
          "name": "",
          "type": "uint256"
        }
      ],
      "stateMutability": "view",
      "type": "function"
    },
    {
      "inputs": [
        {
          "internalType": "address[]",
          "name": "owners",
          "type": "address[]"
        },
        {
          "internalType": "uint256[]",
          "name": "ids",
          "type": "uint256[]"
        }
      ],
      "name": "balanceOfBatch",
      "outputs": [
        {
          "internalType": "uint256[]",
          "name": "",
          "type": "uint256[]"
        }
      ],
      "stateMutability": "view",
      "type": "function"
    },
    {
      "inputs": [],
      "name": "baseMetadataURI",
      "outputs": [
        {
          "internalType": "string",
          "name": "",
          "type": "string"
        }
      ],
      "stateMutability": "view",
      "type": "function"
    },
    {
      "inputs": [
        {
          "internalType": "address",
          "name": "from",
          "type": "address"
        },
        {
          "internalType": "uint256[]",
          "name": "ids",
          "type": "uint256[]"
        },
        {
          "internalType": "uint256[]",
          "name": "values",
          "type": "uint256[]"
        }
      ],
      "name": "batchBurnFrom",
      "outputs": [],
      "stateMutability": "nonpayable",
      "type": "function"
    },
    {
      "inputs": [
        {
          "internalType": "address",
          "name": "from",
          "type": "address"
        },
        {
          "internalType": "uint256[]",
          "name": "nftIds",
          "type": "uint256[]"
        }
      ],
      "name": "batchBurnFrom",
      "outputs": [],
      "stateMutability": "nonpayable",
      "type": "function"
    },
    {
      "inputs": [
        {
          "internalType": "address",
          "name": "to",
          "type": "address"
        },
        {
          "internalType": "uint256[]",
          "name": "nftIds",
          "type": "uint256[]"
        }
      ],
      "name": "batchMint",
      "outputs": [],
      "stateMutability": "nonpayable",
      "type": "function"
    },
    {
      "inputs": [
        {
          "internalType": "address",
          "name": "from",
          "type": "address"
        },
        {
          "internalType": "address",
          "name": "to",
          "type": "address"
        },
        {
          "internalType": "uint256[]",
          "name": "nftIds",
          "type": "uint256[]"
        }
      ],
      "name": "batchTransferFrom",
      "outputs": [],
      "stateMutability": "nonpayable",
      "type": "function"
    },
    {
      "inputs": [
        {
          "internalType": "address",
          "name": "from",
          "type": "address"
        },
        {
          "internalType": "uint256",
          "name": "id",
          "type": "uint256"
        },
        {
          "internalType": "uint256",
          "name": "value",
          "type": "uint256"
        }
      ],
      "name": "burnFrom",
      "outputs": [],
      "stateMutability": "nonpayable",
      "type": "function"
    },
    {
      "inputs": [
        {
          "internalType": "uint256",
          "name": "nftId",
          "type": "uint256"
        }
      ],
      "name": "collectionOf",
      "outputs": [
        {
          "internalType": "uint256",
          "name": "",
          "type": "uint256"
        }
      ],
      "stateMutability": "pure",
      "type": "function"
    },
    {
      "inputs": [
        {
          "internalType": "uint256",
          "name": "collectionId",
          "type": "uint256"
        }
      ],
      "name": "createCollection",
      "outputs": [],
      "stateMutability": "nonpayable",
      "type": "function"
    },
    {
      "inputs": [
        {
          "internalType": "uint256",
          "name": "collectionId",
          "type": "uint256"
        }
      ],
      "name": "creator",
      "outputs": [
        {
          "internalType": "address",
          "name": "",
          "type": "address"
        }
      ],
      "stateMutability": "view",
      "type": "function"
    },
    {
      "inputs": [],
      "name": "deprecate",
      "outputs": [],
      "stateMutability": "nonpayable",
      "type": "function"
    },
    {
      "inputs": [
        {
          "internalType": "uint256",
          "name": "nftId",
          "type": "uint256"
        }
      ],
      "name": "getApproved",
      "outputs": [
        {
          "internalType": "address",
          "name": "",
          "type": "address"
        }
      ],
      "stateMutability": "view",
      "type": "function"
    },
    {
      "inputs": [
        {
          "internalType": "address",
          "name": "tokenOwner",
          "type": "address"
        },
        {
          "internalType": "address",
          "name": "operator",
          "type": "address"
        }
      ],
      "name": "isApprovedForAll",
      "outputs": [
        {
          "internalType": "bool",
          "name": "",
          "type": "bool"
        }
      ],
      "stateMutability": "view",
      "type": "function"
    },
    {
      "inputs": [
        {
          "internalType": "uint256",
          "name": "id",
          "type": "uint256"
        }
      ],
      "name": "isFungible",
      "outputs": [
        {
          "internalType": "bool",
          "name": "",
          "type": "bool"
        }
      ],
      "stateMutability": "pure",
      "type": "function"
    },
    {
      "inputs": [
        {
          "internalType": "address",
          "name": "",
          "type": "address"
        }
      ],
      "name": "isMinter",
      "outputs": [
        {
          "internalType": "bool",
          "name": "",
          "type": "bool"
        }
      ],
      "stateMutability": "view",
      "type": "function"
    },
    {
      "inputs": [
        {
          "internalType": "address",
          "name": "forwarder",
          "type": "address"
        }
      ],
      "name": "isTrustedForwarder",
      "outputs": [
        {
          "internalType": "bool",
          "name": "",
          "type": "bool"
        }
      ],
      "stateMutability": "view",
      "type": "function"
    },
    {
      "inputs": [
        {
          "internalType": "address",
          "name": "to",
          "type": "address"
        },
        {
          "internalType": "uint256",
          "name": "nftId",
          "type": "uint256"
        }
      ],
      "name": "mint",
      "outputs": [],
      "stateMutability": "nonpayable",
      "type": "function"
    },
    {
      "inputs": [],
      "name": "name",
      "outputs": [
        {
          "internalType": "string",
          "name": "",
          "type": "string"
        }
      ],
      "stateMutability": "view",
      "type": "function"
    },
    {
      "inputs": [],
      "name": "owner",
      "outputs": [
        {
          "internalType": "address",
          "name": "",
          "type": "address"
        }
      ],
      "stateMutability": "view",
      "type": "function"
    },
    {
      "inputs": [
        {
          "internalType": "uint256",
          "name": "nftId",
          "type": "uint256"
        }
      ],
      "name": "ownerOf",
      "outputs": [
        {
          "internalType": "address",
          "name": "",
          "type": "address"
        }
      ],
      "stateMutability": "view",
      "type": "function"
    },
    {
      "inputs": [],
      "name": "pause",
      "outputs": [],
      "stateMutability": "nonpayable",
      "type": "function"
    },
    {
      "inputs": [],
      "name": "paused",
      "outputs": [
        {
          "internalType": "bool",
          "name": "",
          "type": "bool"
        }
      ],
      "stateMutability": "view",
      "type": "function"
    },
    {
      "inputs": [
        {
          "internalType": "address[]",
          "name": "accounts",
          "type": "address[]"
        },
        {
          "internalType": "address[]",
          "name": "tokens",
          "type": "address[]"
        },
        {
          "internalType": "uint256[]",
          "name": "amounts",
          "type": "uint256[]"
        }
      ],
      "name": "recoverERC20s",
      "outputs": [],
      "stateMutability": "nonpayable",
      "type": "function"
    },
    {
      "inputs": [
        {
          "internalType": "address[]",
          "name": "accounts",
          "type": "address[]"
        },
        {
          "internalType": "address[]",
          "name": "contracts",
          "type": "address[]"
        },
        {
          "internalType": "uint256[]",
          "name": "tokenIds",
          "type": "uint256[]"
        }
      ],
      "name": "recoverERC721s",
      "outputs": [],
      "stateMutability": "nonpayable",
      "type": "function"
    },
    {
      "inputs": [],
      "name": "renounceMinter",
      "outputs": [],
      "stateMutability": "nonpayable",
      "type": "function"
    },
    {
      "inputs": [
        {
          "internalType": "address",
          "name": "to",
          "type": "address"
        },
        {
          "internalType": "uint256[]",
          "name": "ids",
          "type": "uint256[]"
        },
        {
          "internalType": "uint256[]",
          "name": "values",
          "type": "uint256[]"
        },
        {
          "internalType": "bytes",
          "name": "data",
          "type": "bytes"
        }
      ],
      "name": "safeBatchMint",
      "outputs": [],
      "stateMutability": "nonpayable",
      "type": "function"
    },
    {
      "inputs": [
        {
          "internalType": "address",
          "name": "from",
          "type": "address"
        },
        {
          "internalType": "address",
          "name": "to",
          "type": "address"
        },
        {
          "internalType": "uint256[]",
          "name": "ids",
          "type": "uint256[]"
        },
        {
          "internalType": "uint256[]",
          "name": "values",
          "type": "uint256[]"
        },
        {
          "internalType": "bytes",
          "name": "data",
          "type": "bytes"
        }
      ],
      "name": "safeBatchTransferFrom",
      "outputs": [],
      "stateMutability": "nonpayable",
      "type": "function"
    },
    {
      "inputs": [
        {
          "internalType": "address[]",
          "name": "recipients",
          "type": "address[]"
        },
        {
          "internalType": "uint256[]",
          "name": "ids",
          "type": "uint256[]"
        },
        {
          "internalType": "uint256[]",
          "name": "values",
          "type": "uint256[]"
        },
        {
          "internalType": "bytes",
          "name": "data",
          "type": "bytes"
        }
      ],
      "name": "safeDeliver",
      "outputs": [],
      "stateMutability": "nonpayable",
      "type": "function"
    },
    {
      "inputs": [
        {
          "internalType": "address",
          "name": "to",
          "type": "address"
        },
        {
          "internalType": "uint256",
          "name": "id",
          "type": "uint256"
        },
        {
          "internalType": "uint256",
          "name": "value",
          "type": "uint256"
        },
        {
          "internalType": "bytes",
          "name": "data",
          "type": "bytes"
        }
      ],
      "name": "safeMint",
      "outputs": [],
      "stateMutability": "nonpayable",
      "type": "function"
    },
    {
      "inputs": [
        {
          "internalType": "address",
          "name": "to",
          "type": "address"
        },
        {
          "internalType": "uint256",
          "name": "nftId",
          "type": "uint256"
        },
        {
          "internalType": "bytes",
          "name": "data",
          "type": "bytes"
        }
      ],
      "name": "safeMint",
      "outputs": [],
      "stateMutability": "nonpayable",
      "type": "function"
    },
    {
      "inputs": [
        {
          "internalType": "address",
          "name": "from",
          "type": "address"
        },
        {
          "internalType": "address",
          "name": "to",
          "type": "address"
        },
        {
          "internalType": "uint256",
          "name": "nftId",
          "type": "uint256"
        }
      ],
      "name": "safeTransferFrom",
      "outputs": [],
      "stateMutability": "nonpayable",
      "type": "function"
    },
    {
      "inputs": [
        {
          "internalType": "address",
          "name": "from",
          "type": "address"
        },
        {
          "internalType": "address",
          "name": "to",
          "type": "address"
        },
        {
          "internalType": "uint256",
          "name": "nftId",
          "type": "uint256"
        },
        {
          "internalType": "bytes",
          "name": "data",
          "type": "bytes"
        }
      ],
      "name": "safeTransferFrom",
      "outputs": [],
      "stateMutability": "nonpayable",
      "type": "function"
    },
    {
      "inputs": [
        {
          "internalType": "address",
          "name": "from",
          "type": "address"
        },
        {
          "internalType": "address",
          "name": "to",
          "type": "address"
        },
        {
          "internalType": "uint256",
          "name": "id",
          "type": "uint256"
        },
        {
          "internalType": "uint256",
          "name": "value",
          "type": "uint256"
        },
        {
          "internalType": "bytes",
          "name": "data",
          "type": "bytes"
        }
      ],
      "name": "safeTransferFrom",
      "outputs": [],
      "stateMutability": "nonpayable",
      "type": "function"
    },
    {
      "inputs": [
        {
          "internalType": "address",
          "name": "operator",
          "type": "address"
        },
        {
          "internalType": "bool",
          "name": "approved",
          "type": "bool"
        }
      ],
      "name": "setApprovalForAll",
      "outputs": [],
      "stateMutability": "nonpayable",
      "type": "function"
    },
    {
      "inputs": [
        {
          "internalType": "string",
          "name": "baseMetadataURI_",
          "type": "string"
        }
      ],
      "name": "setBaseMetadataURI",
      "outputs": [],
      "stateMutability": "nonpayable",
      "type": "function"
    },
    {
      "inputs": [
        {
          "internalType": "bytes4",
          "name": "interfaceId",
          "type": "bytes4"
        }
      ],
      "name": "supportsInterface",
      "outputs": [
        {
          "internalType": "bool",
          "name": "",
          "type": "bool"
        }
      ],
      "stateMutability": "view",
      "type": "function"
    },
    {
      "inputs": [],
      "name": "symbol",
      "outputs": [
        {
          "internalType": "string",
          "name": "",
          "type": "string"
        }
      ],
      "stateMutability": "view",
      "type": "function"
    },
    {
      "inputs": [
        {
          "internalType": "uint256",
          "name": "nftId",
          "type": "uint256"
        }
      ],
      "name": "tokenURI",
      "outputs": [
        {
          "internalType": "string",
          "name": "",
          "type": "string"
        }
      ],
      "stateMutability": "view",
      "type": "function"
    },
    {
      "inputs": [
        {
          "internalType": "uint256",
          "name": "id",
          "type": "uint256"
        }
      ],
      "name": "totalSupply",
      "outputs": [
        {
          "internalType": "uint256",
          "name": "",
          "type": "uint256"
        }
      ],
      "stateMutability": "view",
      "type": "function"
    },
    {
      "inputs": [
        {
          "internalType": "address",
          "name": "from",
          "type": "address"
        },
        {
          "internalType": "address",
          "name": "to",
          "type": "address"
        },
        {
          "internalType": "uint256",
          "name": "nftId",
          "type": "uint256"
        }
      ],
      "name": "transferFrom",
      "outputs": [],
      "stateMutability": "nonpayable",
      "type": "function"
    },
    {
      "inputs": [
        {
          "internalType": "address",
          "name": "newOwner",
          "type": "address"
        }
      ],
      "name": "transferOwnership",
      "outputs": [],
      "stateMutability": "nonpayable",
      "type": "function"
    },
    {
      "inputs": [],
      "name": "unpause",
      "outputs": [],
      "stateMutability": "nonpayable",
      "type": "function"
    },
    {
      "inputs": [
        {
          "internalType": "uint256",
          "name": "id",
          "type": "uint256"
        }
      ],
      "name": "uri",
      "outputs": [
        {
          "internalType": "string",
          "name": "",
          "type": "string"
        }
      ],
      "stateMutability": "view",
      "type": "function"
    }
  ],
  "bytecode": "0x60c06040523480156200001157600080fd5b5060405162005f1e38038062005f1e833981810160405260408110156200003757600080fd5b508051602091820151604080518082018252601981527f52455656204d6f746f7273706f727420496e76656e746f7279000000000000008186019081528251808401909352600580845264524556564d60d81b9684019690965281519495939486948694600094339485949193620000b292909190620001a4565b508051620000c8906006906020840190620001a4565b5050600980546001600160a01b0319166001600160a01b0384169081179091556040519091506000907f8be0079c531659141344cd1fd0a4f28419497f9722a3daafe3b4186f6b6457e0908290a350620001228162000158565b50600c805460ff1916911515919091179055606090811b6001600160601b031990811660a05291901b1660805250620002509050565b6001600160a01b0381166000818152600b6020526040808220805460ff19166001179055517f6ae172837ea30b801fbfcdd4108aa1d5bf8ff775444fd70256b44e6bf3dfc3f69190a250565b828054600181600116156101000203166002900490600052602060002090601f016020900481019282620001dc576000855562000227565b82601f10620001f757805160ff191683800117855562000227565b8280016001018555821562000227579182015b82811115620002275782518255916020019190600101906200020a565b506200023592915062000239565b5090565b5b808211156200023557600081556001016200023a565b60805160601c60a05160601c615c956200028960003980611c365280614576525080611c71528061453b52806145ce5250615c956000f3fe608060405234801561001057600080fd5b50600436106103145760003560e01c806373c8a958116101a7578063b88d4fde116100ee578063e8ab9ccc11610097578063f247296511610071578063f2472965146114e9578063f2fde38b1461159c578063f3993d11146115c257610314565b8063e8ab9ccc1461128a578063e985e9c5146113f0578063f242432a1461141e57610314565b8063c7778baa116100c8578063c7778baa14611233578063c87b56dd14611250578063d0011d9d1461126d57610314565b8063b88d4fde1461103c578063bd85b03914611102578063c3666c361461111f57610314565b806395d89b4111610150578063a22cb4651161012a578063a22cb46514610fcb578063aa271e1a14610ff9578063adebf6f21461101f57610314565b806395d89b4114610f95578063983b2d5614610f9d5780639865027514610fc357610314565b80638456cb59116101815780638456cb5914610eca5780638832e6e314610ed25780638da5cb5b14610f8d57610314565b806373c8a95814610c0f5780637e518ec814610d235780638053493414610d9357610314565b80633f4ba83a1161026b578063572b6c05116102145780635cfa9297116101ee5780635cfa929714610b0a5780636352211e14610bcc57806370a0823114610be957610314565b8063572b6c0514610ad45780635b2bd79e14610afa5780635c975abb14610b0257610314565b80634684d7e9116102455780634684d7e9146108f25780634e1273f4146109a5578063510b515814610ab757610314565b80633f4ba83a1461088857806340c10f191461089057806342842e0e146108bc57610314565b80630d6a5bbb116102cd578063124d91e5116102a7578063124d91e51461065957806323b872dd1461068b5780632eb2c2d6146106c157610314565b80630d6a5bbb146104765780630e89341c146106345780630fcc0c281461065157610314565b806306fdde03116102fe57806306fdde0314610392578063081812fc1461040f578063095ea7b31461044857610314565b8062fdd58e1461031957806301ffc9a714610357575b600080fd5b6103456004803603604081101561032f57600080fd5b506001600160a01b03813516906020013561167e565b60408051918252519081900360200190f35b61037e6004803603602081101561036d57600080fd5b50356001600160e01b031916611749565b604080519115158252519081900360200190f35b61039a61178f565b6040805160208082528351818301528351919283929083019185019080838360005b838110156103d45781810151838201526020016103bc565b50505050905090810190601f1680156104015780820380516001836020036101000a031916815260200191505b509250505060405180910390f35b61042c6004803603602081101561042557600080fd5b5035611826565b604080516001600160a01b039092168252519081900360200190f35b6104746004803603604081101561045e57600080fd5b506001600160a01b0381351690602001356118c5565b005b6104746004803603608081101561048c57600080fd5b6001600160a01b0382351691908101906040810160208201356401000000008111156104b757600080fd5b8201836020820111156104c957600080fd5b803590602001918460208302840111640100000000831117156104eb57600080fd5b919080806020026020016040519081016040528093929190818152602001838360200280828437600092019190915250929594936020810193503591505064010000000081111561053b57600080fd5b82018360208201111561054d57600080fd5b8035906020019184602083028401116401000000008311171561056f57600080fd5b91908080602002602001604051908101604052809392919081815260200183836020028082843760009201919091525092959493602081019350359150506401000000008111156105bf57600080fd5b8201836020820111156105d157600080fd5b803590602001918460018302840111640100000000831117156105f357600080fd5b91908080601f016020809104026020016040519081016040528093929190818152602001838380828437600092019190915250929550611a17945050505050565b61039a6004803603602081101561064a57600080fd5b5035611a39565b610474611a44565b6104746004803603606081101561066f57600080fd5b506001600160a01b038135169060208101359060400135611a6d565b610474600480360360608110156106a157600080fd5b506001600160a01b03813581169160208101359091169060400135611a85565b610474600480360360a08110156106d757600080fd5b6001600160a01b03823581169260208101359091169181019060608101604082013564010000000081111561070b57600080fd5b82018360208201111561071d57600080fd5b8035906020019184602083028401116401000000008311171561073f57600080fd5b919080806020026020016040519081016040528093929190818152602001838360200280828437600092019190915250929594936020810193503591505064010000000081111561078f57600080fd5b8201836020820111156107a157600080fd5b803590602001918460208302840111640100000000831117156107c357600080fd5b919080806020026020016040519081016040528093929190818152602001838360200280828437600092019190915250929594936020810193503591505064010000000081111561081357600080fd5b82018360208201111561082557600080fd5b8035906020019184600183028401116401000000008311171561084757600080fd5b91908080601f016020809104026020016040519081016040528093929190818152602001838380828437600092019190915250929550611a98945050505050565b610474611ab4565b610474600480360360408110156108a657600080fd5b506001600160a01b038135169060200135611ace565b610474600480360360608110156108d257600080fd5b506001600160a01b03813581169160208101359091169060400135611af9565b6104746004803603604081101561090857600080fd5b6001600160a01b03823516919081019060408101602082013564010000000081111561093357600080fd5b82018360208201111561094557600080fd5b8035906020019184602083028401116401000000008311171561096757600080fd5b919080806020026020016040519081016040528093929190818152602001838360200280828437600092019190915250929550611b0c945050505050565b610a67600480360360408110156109bb57600080fd5b8101906020810181356401000000008111156109d657600080fd5b8201836020820111156109e857600080fd5b80359060200191846020830284011164010000000083111715610a0a57600080fd5b919390929091602081019035640100000000811115610a2857600080fd5b820183602082011115610a3a57600080fd5b80359060200191846020830284011164010000000083111715610a5c57600080fd5b509092509050611b21565b60408051602080825283518183015283519192839290830191858101910280838360005b83811015610aa3578181015183820152602001610a8b565b505050509050019250505060405180910390f35b61042c60048036036020811015610acd57600080fd5b5035611c27565b61037e60048036036020811015610aea57600080fd5b50356001600160a01b0316611c32565b61039a611cab565b61037e611d39565b61047460048036036080811015610b2057600080fd5b6001600160a01b038235169160208101359160408201359190810190608081016060820135640100000000811115610b5757600080fd5b820183602082011115610b6957600080fd5b80359060200191846001830284011164010000000083111715610b8b57600080fd5b91908080601f016020809104026020016040519081016040528093929190818152602001838380828437600092019190915250929550611d42945050505050565b61042c60048036036020811015610be257600080fd5b5035611d59565b61034560048036036020811015610bff57600080fd5b50356001600160a01b0316611d64565b61047460048036036060811015610c2557600080fd5b810190602081018135640100000000811115610c4057600080fd5b820183602082011115610c5257600080fd5b80359060200191846020830284011164010000000083111715610c7457600080fd5b919390929091602081019035640100000000811115610c9257600080fd5b820183602082011115610ca457600080fd5b80359060200191846020830284011164010000000083111715610cc657600080fd5b919390929091602081019035640100000000811115610ce457600080fd5b820183602082011115610cf657600080fd5b80359060200191846020830284011164010000000083111715610d1857600080fd5b509092509050611ddd565b61047460048036036020811015610d3957600080fd5b810190602081018135640100000000811115610d5457600080fd5b820183602082011115610d6657600080fd5b80359060200191846001830284011164010000000083111715610d8857600080fd5b509092509050611f80565b61047460048036036060811015610da957600080fd5b6001600160a01b038235169190810190604081016020820135640100000000811115610dd457600080fd5b820183602082011115610de657600080fd5b80359060200191846020830284011164010000000083111715610e0857600080fd5b9190808060200260200160405190810160405280939291908181526020018383602002808284376000920191909152509295949360208101935035915050640100000000811115610e5857600080fd5b820183602082011115610e6a57600080fd5b80359060200191846020830284011164010000000083111715610e8c57600080fd5b919080806020026020016040519081016040528093929190818152602001838360200280828437600092019190915250929550611ffc945050505050565b61047461200f565b61047460048036036060811015610ee857600080fd5b6001600160a01b0382351691602081013591810190606081016040820135640100000000811115610f1857600080fd5b820183602082011115610f2a57600080fd5b80359060200191846001830284011164010000000083111715610f4c57600080fd5b91908080601f016020809104026020016040519081016040528093929190818152602001838380828437600092019190915250929550612022945050505050565b61042c61203a565b61039a612049565b61047460048036036020811015610fb357600080fd5b50356001600160a01b03166120aa565b6104746120c1565b61047460048036036040811015610fe157600080fd5b506001600160a01b038135169060200135151561211f565b61037e6004803603602081101561100f57600080fd5b50356001600160a01b03166121fe565b61037e6004803603602081101561103557600080fd5b5035612213565b6104746004803603608081101561105257600080fd5b6001600160a01b0382358116926020810135909116916040820135919081019060808101606082013564010000000081111561108d57600080fd5b82018360208201111561109f57600080fd5b803590602001918460018302840111640100000000831117156110c157600080fd5b91908080601f01602080910402602001604051908101604052809392919081815260200183838082843760009201919091525092955061221e945050505050565b6103456004803603602081101561111857600080fd5b5035612232565b6104746004803603606081101561113557600080fd5b81019060208101813564010000000081111561115057600080fd5b82018360208201111561116257600080fd5b8035906020019184602083028401116401000000008311171561118457600080fd5b9193909290916020810190356401000000008111156111a257600080fd5b8201836020820111156111b457600080fd5b803590602001918460208302840111640100000000831117156111d657600080fd5b9193909290916020810190356401000000008111156111f457600080fd5b82018360208201111561120657600080fd5b8035906020019184602083028401116401000000008311171561122857600080fd5b509092509050612288565b6103456004803603602081101561124957600080fd5b50356123d0565b61039a6004803603602081101561126657600080fd5b5035612435565b6104746004803603602081101561128357600080fd5b50356124aa565b610474600480360360808110156112a057600080fd5b8101906020810181356401000000008111156112bb57600080fd5b8201836020820111156112cd57600080fd5b803590602001918460208302840111640100000000831117156112ef57600080fd5b91939092909160208101903564010000000081111561130d57600080fd5b82018360208201111561131f57600080fd5b8035906020019184602083028401116401000000008311171561134157600080fd5b91939092909160208101903564010000000081111561135f57600080fd5b82018360208201111561137157600080fd5b8035906020019184602083028401116401000000008311171561139357600080fd5b9193909290916020810190356401000000008111156113b157600080fd5b8201836020820111156113c357600080fd5b803590602001918460018302840111640100000000831117156113e557600080fd5b5090925090506124be565b61037e6004803603604081101561140657600080fd5b506001600160a01b03813581169160200135166124d9565b610474600480360360a081101561143457600080fd5b6001600160a01b03823581169260208101359091169160408201359160608101359181019060a08101608082013564010000000081111561147457600080fd5b82018360208201111561148657600080fd5b803590602001918460018302840111640100000000831117156114a857600080fd5b91908080601f016020809104026020016040519081016040528093929190818152602001838380828437600092019190915250929550612505945050505050565b610474600480360360408110156114ff57600080fd5b6001600160a01b03823516919081019060408101602082013564010000000081111561152a57600080fd5b82018360208201111561153c57600080fd5b8035906020019184602083028401116401000000008311171561155e57600080fd5b91908080602002602001604051908101604052809392919081815260200183836020028082843760009201919091525092955061251a945050505050565b610474600480360360208110156115b257600080fd5b50356001600160a01b031661252c565b610474600480360360608110156115d857600080fd5b6001600160a01b03823581169260208101359091169181019060608101604082013564010000000081111561160c57600080fd5b82018360208201111561161e57600080fd5b8035906020019184602083028401116401000000008311171561164057600080fd5b919080806020026020016040519081016040528093929190818152602001838360200280828437600092019190915250929550612594945050505050565b60006001600160a01b0383166116db576040805162461bcd60e51b815260206004820152601760248201527f496e76656e746f72793a207a65726f2061646472657373000000000000000000604482015290519081900360640190fd5b6116e4826125a7565b1561171e576000828152600360205260409020546001600160a01b03848116911614611711576000611714565b60015b60ff169050611743565b5060008181526001602090815260408083206001600160a01b03861684529091529020545b92915050565b60006001600160e01b031982167f510b51580000000000000000000000000000000000000000000000000000000014806117875750611787826125f9565b90505b919050565b60058054604080516020601f600260001961010060018816150201909516949094049384018190048102820181019092528281526060939092909183018282801561181b5780601f106117f05761010080835404028352916020019161181b565b820191906000526020600020905b8154815290600101906020018083116117fe57829003601f168201915b505050505090505b90565b6000818152600360205260408120546001600160a01b038116611890576040805162461bcd60e51b815260206004820152601b60248201527f496e76656e746f72793a206e6f6e2d6578697374696e67204e46540000000000604482015290519081900360640190fd5b600160a01b8116156118bb5750506000818152600860205260409020546001600160a01b031661178a565b600091505061178a565b60006118d082611d59565b9050806001600160a01b0316836001600160a01b03161415611939576040805162461bcd60e51b815260206004820152601860248201527f496e76656e746f72793a2073656c662d617070726f76616c0000000000000000604482015290519081900360640190fd5b61194a81611945612637565b612646565b61199b576040805162461bcd60e51b815260206004820152601e60248201527f496e76656e746f72793a206e6f6e2d617070726f7665642073656e6465720000604482015290519081900360640190fd5b60008281526003602090815260408083206001600160a01b03808616600160a01b81179092556008909352818420805493881673ffffffffffffffffffffffffffffffffffffffff1990941684179055905185937f8c5be1e5ebec7d5bd14f71427d1e84f3dd0314c0f7b2291e5b200ac8c7c3b92591a4505050565b611a27611a22612637565b612692565b611a33848484846126ff565b50505050565b606061178782612ab1565b611a4c612b84565b6000611a56612637565b9050611a6181612bdb565b806001600160a01b0316ff5b611a75612c9f565b611a80838383612cf7565b505050565b611a8d612c9f565b611a80838383612dea565b611aa0612c9f565b611aad8585858585612e07565b5050505050565b611ac4611abf612637565b612bdb565b611acc612e14565b565b611ad9611a22612637565b611af58282604051806020016040528060008152506000612e6c565b5050565b611b01612c9f565b611a80838383613010565b611b17611a22612637565b611af5828261302d565b6060838214611b77576040805162461bcd60e51b815260206004820152601e60248201527f496e76656e746f72793a20696e636f6e73697374656e74206172726179730000604482015290519081900360640190fd5b60008467ffffffffffffffff81118015611b9057600080fd5b50604051908082528060200260200182016040528015611bba578160200160208202803683370190505b50905060005b808614611c1d57611bfe878783818110611bd657fe5b905060200201356001600160a01b0316868684818110611bf257fe5b9050602002013561167e565b828281518110611c0a57fe5b6020908102919091010152600101611bc0565b5095945050505050565b60006117878261338b565b60007f00000000000000000000000000000000000000000000000000000000000000006001600160a01b0316826001600160a01b0316148061178757507f00000000000000000000000000000000000000000000000000000000000000006001600160a01b0316826001600160a01b0316149050919050565b600a805460408051602060026001851615610100026000190190941693909304601f81018490048402820184019092528181529291830182828015611d315780601f10611d0657610100808354040283529160200191611d31565b820191906000526020600020905b815481529060010190602001808311611d1457829003601f168201915b505050505081565b600c5460ff1681565b611d4d611a22612637565b611a3384848484613404565b60006117878261354f565b60006001600160a01b038216611dc1576040805162461bcd60e51b815260206004820152601760248201527f496e76656e746f72793a207a65726f2061646472657373000000000000000000604482015290519081900360640190fd5b506001600160a01b031660009081526007602052604090205490565b611de8611abf612637565b848381148015611df757508082145b611e48576040805162461bcd60e51b815260206004820152601a60248201527f5265636f763a20696e636f6e73697374656e7420617272617973000000000000604482015290519081900360640190fd5b60005b818114611f7657858582818110611e5e57fe5b905060200201356001600160a01b03166001600160a01b031663a9059cbb898984818110611e8857fe5b905060200201356001600160a01b0316868685818110611ea457fe5b905060200201356040518363ffffffff1660e01b815260040180836001600160a01b0316815260200182815260200192505050602060405180830381600087803b158015611ef157600080fd5b505af1158015611f05573d6000803e3d6000fd5b505050506040513d6020811015611f1b57600080fd5b5051611f6e576040805162461bcd60e51b815260206004820152601660248201527f5265636f763a207472616e73666572206661696c656400000000000000000000604482015290519081900360640190fd5b600101611e4b565b5050505050505050565b611f8b611abf612637565b611f97600a8383615bbe565b507f04b1dc5c136a3ce9fded8db0ce3d3366c58764ec3a8e4c2b9e52e4ddfe5ebbf7828260405180806020018281038252848482818152602001925080828437600083820152604051601f909101601f19169092018290039550909350505050a15050565b612004612c9f565b611a808383836135b9565b61201a611abf612637565b611acc613856565b61202d611a22612637565b611a808383836001612e6c565b6009546001600160a01b031690565b60068054604080516020601f600260001961010060018816150201909516949094049384018190048102820181019092528281526060939092909183018282801561181b5780601f106117f05761010080835404028352916020019161181b565b6120b5611abf612637565b6120be81613894565b50565b60006120cb612637565b90506120d681612692565b6001600160a01b0381166000818152600b6020526040808220805460ff19169055517fe94479a9f7e1952cc78f2d6baab678adc1b772d936c6583def489e524cb666929190a250565b6000612129612637565b9050806001600160a01b0316836001600160a01b03161415612192576040805162461bcd60e51b815260206004820152601860248201527f496e76656e746f72793a2073656c662d617070726f76616c0000000000000000604482015290519081900360640190fd5b6001600160a01b0381811660008181526020818152604080832094881680845294825291829020805460ff1916871515908117909155825190815291517f17307eab39ab6107e8899845ad3d59bd9653f200f220920489ca2b5937696c319281900390910190a3505050565b600b6020526000908152604090205460ff1681565b6000611787826138e0565b612226612c9f565b611a3384848484613906565b600061223d826125a7565b15612273576000828152600360205260409020546001600160a01b031615612266576001612269565b60005b60ff16905061178a565b5060008181526002602052604090205461178a565b612293611abf612637565b8483811480156122a257508082145b6122f3576040805162461bcd60e51b815260206004820152601a60248201527f5265636f763a20696e636f6e73697374656e7420617272617973000000000000604482015290519081900360640190fd5b60005b818114611f765785858281811061230957fe5b905060200201356001600160a01b03166001600160a01b03166323b872dd308a8a8581811061233457fe5b905060200201356001600160a01b031687878681811061235057fe5b905060200201356040518463ffffffff1660e01b815260040180846001600160a01b03168152602001836001600160a01b031681526020018281526020019350505050600060405180830381600087803b1580156123ad57600080fd5b505af11580156123c1573d6000803e3d6000fd5b505050508060010190506122f6565b60006123db826125a7565b61242c576040805162461bcd60e51b815260206004820152601560248201527f496e76656e746f72793a206e6f7420616e204e46540000000000000000000000604482015290519081900360640190fd5b61178782613914565b6000818152600360205260409020546060906001600160a01b03166124a1576040805162461bcd60e51b815260206004820152601b60248201527f496e76656e746f72793a206e6f6e2d6578697374696e67204e46540000000000604482015290519081900360640190fd5b61178782611a39565b6124b5611abf612637565b6120be81613921565b6124c9611a22612637565b611f768888888888888888613a62565b6001600160a01b0391821660009081526020818152604080832093909416825291909152205460ff1690565b61250d612c9f565b611aad8585858585613dc1565b612522612c9f565b611af58282613f3f565b612537611abf612637565b6009805473ffffffffffffffffffffffffffffffffffffffff19166001600160a01b0383811691821792839055604051919216907f8be0079c531659141344cd1fd0a4f28419497f9722a3daafe3b4186f6b6457e090600090a350565b61259c612c9f565b611a8083838361419d565b60007f80000000000000000000000000000000000000000000000000000000000000008216158015906117875750507bffffffffffffffffffffffffffffffffffffffffffffffffffffffff16151590565b60006001600160e01b031982167f6059f1b4000000000000000000000000000000000000000000000000000000001480611787575061178782614485565b600061264161452b565b905090565b6000816001600160a01b0316836001600160a01b0316148061268b57506001600160a01b038084166000908152602081815260408083209386168352929052205460ff165b9392505050565b6001600160a01b0381166000908152600b602052604090205460ff166120be576040805162461bcd60e51b815260206004820152601860248201527f4d696e746572526f6c653a206e6f742061204d696e7465720000000000000000604482015290519081900360640190fd5b6001600160a01b03841661275a576040805162461bcd60e51b815260206004820152601760248201527f496e76656e746f72793a206d696e7420746f207a65726f000000000000000000604482015290519081900360640190fd5b8251825181146127b1576040805162461bcd60e51b815260206004820152601e60248201527f496e76656e746f72793a20696e636f6e73697374656e74206172726179730000604482015290519081900360640190fd5b6000806000805b84811461295f5760008882815181106127cd57fe5b6020026020010151905060008883815181106127e557fe5b602002602001015190506127f8826138e0565b1561280d576128088b838361468b565b612955565b612816826125a7565b15612908576128288b8383600161477d565b60405182906001600160a01b038d16906000907fddf252ad1be2c89b69c2b068fc378daa952ba7f163c4a11628f55a4df523b3ef908290a4600061286b83613914565b90508661287e5780965060019550612902565b8681146128fb57856001600089815260200190815260200160002060008e6001600160a01b03166001600160a01b0316815260200190815260200160002060008282540192505081905550856002600089815260200190815260200160002060008282540192505081905550809650858501945060019550612902565b8560010195505b50612955565b6040805162461bcd60e51b815260206004820152601960248201527f496e76656e746f72793a206e6f74206120746f6b656e20696400000000000000604482015290519081900360640190fd5b50506001016127b8565b5082156129b45760008381526001602090815260408083206001600160a01b038c1680855290835281842080548701905586845260028352818420805487019055835260079091529020805491830191820190555b6001600160a01b03881660006129c8612637565b6001600160a01b03167f4a39dc06d4c0dbc64b70af90fd698a233a518aa5d07e595d983b8c0526c8f7fb8a8a604051808060200180602001838103835285818151815260200191508051906020019060200280838360005b83811015612a38578181015183820152602001612a20565b50505050905001838103825284818151815260200191508051906020019060200280838360005b83811015612a77578181015183820152602001612a5f565b5050505090500194505050505060405180910390a4612a9e886001600160a01b03166148ab565b15611f7657611f766000898989896148b1565b6060600a612abe83614ab7565b6040516020018083805460018160011615610100020316600290048015612b1c5780601f10612afa576101008083540402835291820191612b1c565b820191906000526020600020905b815481529060010190602001808311612b08575b5050825160208401908083835b60208310612b485780518252601f199092019160209182019101612b29565b6001836020036101000a038019825116818451168082178552505050505050905001925050506040516020818303038152906040529050919050565b600c5460ff16611acc576040805162461bcd60e51b815260206004820152601460248201527f5061757361626c653a206e6f7420706175736564000000000000000000000000604482015290519081900360640190fd5b306001600160a01b0316638da5cb5b6040518163ffffffff1660e01b815260040160206040518083038186803b158015612c1457600080fd5b505afa158015612c28573d6000803e3d6000fd5b505050506040513d6020811015612c3e57600080fd5b50516001600160a01b038281169116146120be576040805162461bcd60e51b815260206004820152601660248201527f4f776e61626c653a206e6f7420746865206f776e657200000000000000000000604482015290519081900360640190fd5b600c5460ff1615611acc576040805162461bcd60e51b815260206004820152601060248201527f5061757361626c653a2070617573656400000000000000000000000000000000604482015290519081900360640190fd5b6000612d01612637565b90506000612d0f8583612646565b9050612d1a846138e0565b15612d3057612d2b85858584614bc6565b612d85565b612d39846125a7565b1561290857612d4c858585846000614d22565b60405184906000906001600160a01b038816907fddf252ad1be2c89b69c2b068fc378daa952ba7f163c4a11628f55a4df523b3ef908390a45b60006001600160a01b0316856001600160a01b0316836001600160a01b03167fc3d58168c5ae7397731d063d5bbf3d657854427343f4c083240f7aacaa2d0f628787604051808381526020018281526020019250505060405180910390a45050505050565b611a80838383604051806020016040528060008152506000614ee9565b611aad8585858585615057565b612e1c612b84565b600c805460ff191690557f5db9ee0a495bf2e6ff9c91a7834c1ba4fdd244a5e8aa4e537bd38aeae4b073aa612e4f612637565b604080516001600160a01b039092168252519081900360200190a1565b6001600160a01b038416612ec7576040805162461bcd60e51b815260206004820152601760248201527f496e76656e746f72793a206d696e7420746f207a65726f000000000000000000604482015290519081900360640190fd5b612ed0836125a7565b612f21576040805162461bcd60e51b815260206004820152601560248201527f496e76656e746f72793a206e6f7420616e204e46540000000000000000000000604482015290519081900360640190fd5b612f2f84846001600061477d565b60405183906001600160a01b038616906000907fddf252ad1be2c89b69c2b068fc378daa952ba7f163c4a11628f55a4df523b3ef908290a46001600160a01b0384166000612f7b612637565b6001600160a01b03167fc3d58168c5ae7397731d063d5bbf3d657854427343f4c083240f7aacaa2d0f62866001604051808381526020018281526020019250505060405180910390a4612fd6846001600160a01b03166148ab565b15611a3357612fe484615364565b15612ffd57612ff86000858560018661542c565b611a33565b8015611a3357611a33600085858561552e565b611a80838383604051806020016040528060008152506001614ee9565b6001600160a01b038216613088576040805162461bcd60e51b815260206004820152601760248201527f496e76656e746f72793a206d696e7420746f207a65726f000000000000000000604482015290519081900360640190fd5b805160008167ffffffffffffffff811180156130a357600080fd5b506040519080825280602002602001820160405280156130cd578160200160208202803683370190505b50905060008060005b8481146132275760008682815181106130eb57fe5b602002602001015190506130fe816125a7565b61314f576040805162461bcd60e51b815260206004820152601560248201527f496e76656e746f72793a206e6f7420616e204e46540000000000000000000000604482015290519081900360640190fd5b600185838151811061315d57fe5b602002602001018181525050613176888260018061477d565b60405181906001600160a01b038a16906000907fddf252ad1be2c89b69c2b068fc378daa952ba7f163c4a11628f55a4df523b3ef908290a460006131b982613914565b9050846131cc578094506001935061321d565b8481146132165760008581526001602081815260408084206001600160a01b038e16855282528084208054890190559783526002905295902080549094019093559192918361321d565b8360010193505b50506001016130d6565b5060008281526001602090815260408083206001600160a01b038a1680855290835281842080548601905585845260028352818420805486019055808452600790925282208054870190559061327b612637565b6001600160a01b03167f4a39dc06d4c0dbc64b70af90fd698a233a518aa5d07e595d983b8c0526c8f7fb8887604051808060200180602001838103835285818151815260200191508051906020019060200280838360005b838110156132eb5781810151838201526020016132d3565b50505050905001838103825284818151815260200191508051906020019060200280838360005b8381101561332a578181015183820152602001613312565b5050505090500194505050505060405180910390a4613351866001600160a01b03166148ab565b8015613361575061336186615364565b15613383576133836000878786604051806020016040528060008152506148b1565b505050505050565b6000613396826125a7565b156133e8576040805162461bcd60e51b815260206004820152601b60248201527f496e76656e746f72793a206e6f74206120636f6c6c656374696f6e0000000000604482015290519081900360640190fd5b506000908152600460205260409020546001600160a01b031690565b6001600160a01b03841661345f576040805162461bcd60e51b815260206004820152601760248201527f496e76656e746f72793a206d696e7420746f207a65726f000000000000000000604482015290519081900360640190fd5b6000613469612637565b9050613474846138e0565b156134895761348485858561468b565b6134dd565b613492846125a7565b15612908576134a4858585600061477d565b60405184906001600160a01b038716906000907fddf252ad1be2c89b69c2b068fc378daa952ba7f163c4a11628f55a4df523b3ef908290a45b604080518581526020810185905281516001600160a01b0380891693600093918616927fc3d58168c5ae7397731d063d5bbf3d657854427343f4c083240f7aacaa2d0f629281900390910190a461353c856001600160a01b03166148ab565b15611aad57611aad60008686868661542c565b6000818152600360205260408120546001600160a01b038116611787576040805162461bcd60e51b815260206004820152601b60248201527f496e76656e746f72793a206e6f6e2d6578697374696e67204e46540000000000604482015290519081900360640190fd5b815181518114613610576040805162461bcd60e51b815260206004820152601e60248201527f496e76656e746f72793a20696e636f6e73697374656e74206172726179730000604482015290519081900360640190fd5b600061361a612637565b905060006136288683612646565b90506000806000805b86811461373b57600089828151811061364657fe5b60200260200101519050613659816138e0565b156136825761367d8b828b858151811061366f57fe5b602002602001015189614bc6565b613732565b61368b816125a7565b15612908576136b18b828b85815181106136a157fe5b6020026020010151896001614d22565b60405181906000906001600160a01b038e16907fddf252ad1be2c89b69c2b068fc378daa952ba7f163c4a11628f55a4df523b3ef908390a460006136f482613914565b9050856137075780955060019450613730565b858114613729576137198c87876156b0565b9450600193929092019184613730565b8460010194505b505b50600101613631565b5082156137715761374d8984846156b0565b6001600160a01b038916600090815260076020526040902080549183019182900390555b60006001600160a01b0316896001600160a01b0316866001600160a01b03167f4a39dc06d4c0dbc64b70af90fd698a233a518aa5d07e595d983b8c0526c8f7fb8b8b604051808060200180602001838103835285818151815260200191508051906020019060200280838360005b838110156137f75781810151838201526020016137df565b50505050905001838103825284818151815260200191508051906020019060200280838360005b8381101561383657818101518382015260200161381e565b5050505090500194505050505060405180910390a4505050505050505050565b61385e612c9f565b600c805460ff191660011790557f62e78cea01bee320cd4e420270b5ea74000d11b0c9f74754ebdbfc544b05a258612e4f612637565b6001600160a01b0381166000818152600b6020526040808220805460ff19166001179055517f6ae172837ea30b801fbfcdd4108aa1d5bf8ff775444fd70256b44e6bf3dfc3f69190a250565b7f8000000000000000000000000000000000000000000000000000000000000000161590565b611a33848484846001614ee9565b6001600160e01b03191690565b61392a816125a7565b1561397c576040805162461bcd60e51b815260206004820152601b60248201527f496e76656e746f72793a206e6f74206120636f6c6c656374696f6e0000000000604482015290519081900360640190fd5b6000818152600460205260409020546001600160a01b0316156139e6576040805162461bcd60e51b815260206004820152601e60248201527f496e76656e746f72793a206578697374696e6720636f6c6c656374696f6e0000604482015290519081900360640190fd5b6139ee612637565b6000828152600460205260409020805473ffffffffffffffffffffffffffffffffffffffff19166001600160a01b0392909216919091179055613a30816138e0565b1515817f4ebf8ad0df535ba5e487bc9cb27fe44120ca81c3a95d3eba79c0bd1df2ab2d5d60405160405180910390a350565b868581148015613a7157508084145b613ac2576040805162461bcd60e51b815260206004820152601e60248201527f496e76656e746f72793a20696e636f6e73697374656e74206172726179730000604482015290519081900360640190fd5b6000613acc612637565b905060005b828114613db45760008b8b83818110613ae657fe5b905060200201356001600160a01b0316905060006001600160a01b0316816001600160a01b03161415613b60576040805162461bcd60e51b815260206004820152601760248201527f496e76656e746f72793a206d696e7420746f207a65726f000000000000000000604482015290519081900360640190fd5b60008a8a84818110613b6e57fe5b9050602002013590506000898985818110613b8557fe5b905060200201359050613b97826138e0565b15613c5457613ba783838361468b565b604080518381526020810183905281516001600160a01b0380871693600093918a16927fc3d58168c5ae7397731d063d5bbf3d657854427343f4c083240f7aacaa2d0f629281900390910190a4613c06836001600160a01b03166148ab565b15613c4f57613c4f60008484848c8c8080601f01602080910402602001604051908101604052809392919081815260200183838082843760009201919091525061542c92505050565b613da6565b613c5d826125a7565b1561290857613c6f838383600061477d565b60405182906001600160a01b038516906000907fddf252ad1be2c89b69c2b068fc378daa952ba7f163c4a11628f55a4df523b3ef908290a4604080518381526001602082015281516001600160a01b0380871693600093918a16927fc3d58168c5ae7397731d063d5bbf3d657854427343f4c083240f7aacaa2d0f629281900390910190a4613d06836001600160a01b03166148ab565b15613c4f57613d1483615364565b15613d6357613d5e6000848460018c8c8080601f01602080910402602001604051908101604052809392919081815260200183838082843760009201919091525061542c92505050565b613c4f565b613c4f600084848b8b8080601f01602080910402602001604051908101604052809392919081815260200183838082843760009201919091525061552e92505050565b505050806001019050613ad1565b5050505050505050505050565b6000613dcb612637565b90506001600160a01b038516613e28576040805162461bcd60e51b815260206004820152601b60248201527f496e76656e746f72793a207472616e7366657220746f207a65726f0000000000604482015290519081900360640190fd5b6000613e348783612646565b9050613e3f856138e0565b15613e5657613e5187878787856156f0565b613eb5565b613e5f856125a7565b1561290857613e7387878787856000615863565b84866001600160a01b0316886001600160a01b03167fddf252ad1be2c89b69c2b068fc378daa952ba7f163c4a11628f55a4df523b3ef60405160405180910390a45b856001600160a01b0316876001600160a01b0316836001600160a01b03167fc3d58168c5ae7397731d063d5bbf3d657854427343f4c083240f7aacaa2d0f628888604051808381526020018281526020019250505060405180910390a4613f24866001600160a01b03166148ab565b15613f3657613f36878787878761542c565b50505050505050565b6000613f49612637565b90506000613f578483612646565b835190915060008167ffffffffffffffff81118015613f7557600080fd5b50604051908082528060200260200182016040528015613f9f578160200160208202803683370190505b50905060008060005b848114614087576000888281518110613fbd57fe5b602002602001015190506001858381518110613fd557fe5b6020026020010181815250506140028a82878581518110613ff257fe5b60200260200101518a6001614d22565b60405181906000906001600160a01b038d16907fddf252ad1be2c89b69c2b068fc378daa952ba7f163c4a11628f55a4df523b3ef908390a4600061404582613914565b905084614058578094506001935061407d565b8481146140765761406a8b86866156b0565b8094506001935061407d565b8360010193505b5050600101613fa8565b5081156140b9576140998883836156b0565b6001600160a01b0388166000908152600760205260409020805485900390555b60006001600160a01b0316886001600160a01b0316876001600160a01b03167f4a39dc06d4c0dbc64b70af90fd698a233a518aa5d07e595d983b8c0526c8f7fb8a87604051808060200180602001838103835285818151815260200191508051906020019060200280838360005b8381101561413f578181015183820152602001614127565b50505050905001838103825284818151815260200191508051906020019060200280838360005b8381101561417e578181015183820152602001614166565b5050505090500194505050505060405180910390a45050505050505050565b6001600160a01b0382166141f8576040805162461bcd60e51b815260206004820152601b60248201527f496e76656e746f72793a207472616e7366657220746f207a65726f0000000000604482015290519081900360640190fd5b6000614202612637565b905060006142108583612646565b835190915060008167ffffffffffffffff8111801561422e57600080fd5b50604051908082528060200260200182016040528015614258578160200160208202803683370190505b50905060008060005b84811461433957600088828151811061427657fe5b60200260200101519050600185838151811061428e57fe5b6020026020010181815250506142aa8b8b8360018b6001615863565b808a6001600160a01b03168c6001600160a01b03167fddf252ad1be2c89b69c2b068fc378daa952ba7f163c4a11628f55a4df523b3ef60405160405180910390a460006142f682613914565b905084614309578094506001935061432f565b8481146143285761431c8c8c87876159f4565b8094506001935061432f565b8360010193505b5050600101614261565b5081156143575761434c898984846159f4565b614357898986615a48565b876001600160a01b0316896001600160a01b0316614373612637565b6001600160a01b03167f4a39dc06d4c0dbc64b70af90fd698a233a518aa5d07e595d983b8c0526c8f7fb8a87604051808060200180602001838103835285818151815260200191508051906020019060200280838360005b838110156143e35781810151838201526020016143cb565b50505050905001838103825284818151815260200191508051906020019060200280838360005b8381101561442257818101518382015260200161440a565b5050505090500194505050505060405180910390a4614449886001600160a01b03166148ab565b8015614459575061445988615364565b1561447a5761447a89898986604051806020016040528060008152506148b1565b505050505050505050565b60006001600160e01b031982167f80ac58cd0000000000000000000000000000000000000000000000000000000014806144e857506001600160e01b031982167f5b5e139f00000000000000000000000000000000000000000000000000000000145b8061451c57506001600160e01b031982167ff3993d1100000000000000000000000000000000000000000000000000000000145b80611787575061178782615a93565b60003381614537615b94565b90507f00000000000000000000000000000000000000000000000000000000000000006001600160a01b0316826001600160a01b031614806145aa57507f00000000000000000000000000000000000000000000000000000000000000006001600160a01b0316826001600160a01b0316145b156145b85791506118239050565b6001600160a01b038216321480159061467757507f00000000000000000000000000000000000000000000000000000000000000006001600160a01b031663e60125d682846040518363ffffffff1660e01b815260040180836001600160a01b03168152602001826001600160a01b031681526020019250505060206040518083038186803b15801561464a57600080fd5b505afa15801561465e573d6000803e3d6000fd5b505050506040513d602081101561467457600080fd5b50515b156146855791506118239050565b50905090565b806146dd576040805162461bcd60e51b815260206004820152601560248201527f496e76656e746f72793a207a65726f2076616c75650000000000000000000000604482015290519081900360640190fd5b600082815260026020526040902054818101818111614743576040805162461bcd60e51b815260206004820152601a60248201527f496e76656e746f72793a20737570706c79206f766572666c6f77000000000000604482015290519081900360640190fd5b600093845260026020908152604080862092909255600181528185206001600160a01b039096168552949094525091902080549091019055565b816001146147d2576040805162461bcd60e51b815260206004820152601a60248201527f496e76656e746f72793a2077726f6e67204e46542076616c7565000000000000604482015290519081900360640190fd5b60008381526003602052604090205415614833576040805162461bcd60e51b815260206004820152601d60248201527f496e76656e746f72793a206578697374696e672f6275726e74204e4654000000604482015290519081900360640190fd5b60008381526003602052604090206001600160a01b038516905580611a3357600061485d84613914565b6000908152600260209081526040808320805460019081019091558083528184206001600160a01b038a16855283528184208054820190556007909252909120805490910190555050505050565b3b151590565b7fbc197c81000000000000000000000000000000000000000000000000000000006001600160a01b03851663bc197c816148e9612637565b888787876040518663ffffffff1660e01b815260040180866001600160a01b03168152602001856001600160a01b03168152602001806020018060200180602001848103845287818151815260200191508051906020019060200280838360005b8381101561496257818101518382015260200161494a565b50505050905001848103835286818151815260200191508051906020019060200280838360005b838110156149a1578181015183820152602001614989565b50505050905001848103825285818151815260200191508051906020019080838360005b838110156149dd5781810151838201526020016149c5565b50505050905090810190601f168015614a0a5780820380516001836020036101000a031916815260200191505b5098505050505050505050602060405180830381600087803b158015614a2f57600080fd5b505af1158015614a43573d6000803e3d6000fd5b505050506040513d6020811015614a5957600080fd5b50516001600160e01b03191614611aad576040805162461bcd60e51b815260206004820152601b60248201527f496e76656e746f72793a207472616e7366657220726566757365640000000000604482015290519081900360640190fd5b606081614af8575060408051808201909152600181527f3000000000000000000000000000000000000000000000000000000000000000602082015261178a565b8160005b8115614b1057600101600a82049150614afc565b60008167ffffffffffffffff81118015614b2957600080fd5b506040519080825280601f01601f191660200182016040528015614b54576020820181803683370190505b50859350905060001982015b8315614bbd57600a840660300160f81b82828060019003935081518110614b8357fe5b60200101907effffffffffffffffffffffffffffffffffffffffffffffffffffffffffffff1916908160001a905350600a84049350614b60565b50949350505050565b81614c18576040805162461bcd60e51b815260206004820152601560248201527f496e76656e746f72793a207a65726f2076616c75650000000000000000000000604482015290519081900360640190fd5b80614c6a576040805162461bcd60e51b815260206004820152601e60248201527f496e76656e746f72793a206e6f6e2d617070726f7665642073656e6465720000604482015290519081900360640190fd5b60008381526001602090815260408083206001600160a01b038816845290915290205482811015614ce2576040805162461bcd60e51b815260206004820152601d60248201527f496e76656e746f72793a206e6f7420656e6f7567682062616c616e6365000000604482015290519081900360640190fd5b60008481526001602090815260408083206001600160a01b0390981683529681528682209285900390925593845260029052509190208054919091039055565b82600114614d77576040805162461bcd60e51b815260206004820152601a60248201527f496e76656e746f72793a2077726f6e67204e46542076616c7565000000000000604482015290519081900360640190fd5b6000848152600360205260409020546001600160a01b0386811690821614614de6576040805162461bcd60e51b815260206004820152601860248201527f496e76656e746f72793a206e6f6e2d6f776e6564204e46540000000000000000604482015290519081900360640190fd5b82614e7757600160a01b811615801590614e2657506000858152600860205260409020546001600160a01b0316614e1b612637565b6001600160a01b0316145b614e77576040805162461bcd60e51b815260206004820152601e60248201527f496e76656e746f72793a206e6f6e2d617070726f7665642073656e6465720000604482015290519081900360640190fd5b60008581526003602052604090207fdead00000000000000000000000000000000000000000000000000000000000090558161338357614ec186614eba87613914565b60016156b0565b6001600160a01b03861660009081526007602052604090208054600019019055505050505050565b6001600160a01b038416614f44576040805162461bcd60e51b815260206004820152601b60248201527f496e76656e746f72793a207472616e7366657220746f207a65726f0000000000604482015290519081900360640190fd5b6000614f4e612637565b90506000614f5c8783612646565b9050614f6e8787876001856000615863565b84866001600160a01b0316886001600160a01b03167fddf252ad1be2c89b69c2b068fc378daa952ba7f163c4a11628f55a4df523b3ef60405160405180910390a4856001600160a01b0316876001600160a01b0316836001600160a01b03167fc3d58168c5ae7397731d063d5bbf3d657854427343f4c083240f7aacaa2d0f62886001604051808381526020018281526020019250505060405180910390a461501f866001600160a01b03166148ab565b15613f365761502d86615364565b156150455761504087878760018861542c565b613f36565b8215613f3657613f368787878761552e565b6001600160a01b0384166150b2576040805162461bcd60e51b815260206004820152601b60248201527f496e76656e746f72793a207472616e7366657220746f207a65726f0000000000604482015290519081900360640190fd5b825182518114615109576040805162461bcd60e51b815260206004820152601e60248201527f496e76656e746f72793a20696e636f6e73697374656e74206172726179730000604482015290519081900360640190fd5b6000615113612637565b905060006151218883612646565b90506000806000805b8681146152405760008a828151811061513f57fe5b60200260200101519050615152816138e0565b1561517c576151778d8d838d868151811061516957fe5b60200260200101518a6156f0565b615237565b615185816125a7565b15612908576151ac8d8d838d868151811061519c57fe5b60200260200101518a6001615863565b808c6001600160a01b03168e6001600160a01b03167fddf252ad1be2c89b69c2b068fc378daa952ba7f163c4a11628f55a4df523b3ef60405160405180910390a460006151f882613914565b90508561520b5780955060019450615235565b85811461522e5761521e8e8e88886159f4565b9450600193929092019184615235565b8460010194505b505b5060010161512a565b508215615260576152538b8b85856159f4565b81016152608b8b83615a48565b896001600160a01b03168b6001600160a01b031661527c612637565b6001600160a01b03167f4a39dc06d4c0dbc64b70af90fd698a233a518aa5d07e595d983b8c0526c8f7fb8c8c604051808060200180602001838103835285818151815260200191508051906020019060200280838360005b838110156152ec5781810151838201526020016152d4565b50505050905001838103825284818151815260200191508051906020019060200280838360005b8381101561532b578181015183820152602001615313565b5050505090500194505050505060405180910390a46153528a6001600160a01b03166148ab565b15613db457613db48b8b8b8b8b6148b1565b604080517f4e2312e0000000000000000000000000000000000000000000000000000000006024808301919091528251808303909101815260449091018252602081810180517bffffffffffffffffffffffffffffffffffffffffffffffffffffffff167f01ffc9a7000000000000000000000000000000000000000000000000000000001781528251935160008082529485948594909392908183858b612710fa955080519450505050609e5a1161541957fe5b8280156154235750815b95945050505050565b7ff23a6e61000000000000000000000000000000000000000000000000000000006001600160a01b03851663f23a6e61615464612637565b888787876040518663ffffffff1660e01b815260040180866001600160a01b03168152602001856001600160a01b0316815260200184815260200183815260200180602001828103825283818151815260200191508051906020019080838360005b838110156154de5781810151838201526020016154c6565b50505050905090810190601f16801561550b5780820380516001836020036101000a031916815260200191505b509650505050505050602060405180830381600087803b158015614a2f57600080fd5b7f150b7a02000000000000000000000000000000000000000000000000000000006001600160a01b03841663150b7a02615566612637565b8786866040518563ffffffff1660e01b815260040180856001600160a01b03168152602001846001600160a01b0316815260200183815260200180602001828103825283818151815260200191508051906020019080838360005b838110156155d95781810151838201526020016155c1565b50505050905090810190601f1680156156065780820380516001836020036101000a031916815260200191505b5095505050505050602060405180830381600087803b15801561562857600080fd5b505af115801561563c573d6000803e3d6000fd5b505050506040513d602081101561565257600080fd5b50516001600160e01b03191614611a33576040805162461bcd60e51b815260206004820152601b60248201527f496e76656e746f72793a207472616e7366657220726566757365640000000000604482015290519081900360640190fd5b60008281526001602090815260408083206001600160a01b0390961683529481528482208054849003905592815260029092529190208054919091039055565b80615742576040805162461bcd60e51b815260206004820152601e60248201527f496e76656e746f72793a206e6f6e2d617070726f7665642073656e6465720000604482015290519081900360640190fd5b81615794576040805162461bcd60e51b815260206004820152601560248201527f496e76656e746f72793a207a65726f2076616c75650000000000000000000000604482015290519081900360640190fd5b60008381526001602090815260408083206001600160a01b03891684529091529020548281101561580c576040805162461bcd60e51b815260206004820152601d60248201527f496e76656e746f72793a206e6f7420656e6f7567682062616c616e6365000000604482015290519081900360640190fd5b846001600160a01b0316866001600160a01b0316146133835760009384526001602090815260408086206001600160a01b039889168752909152808520918490039091559390941682529190208054909101905550565b826001146158b8576040805162461bcd60e51b815260206004820152601a60248201527f496e76656e746f72793a2077726f6e67204e46542076616c7565000000000000604482015290519081900360640190fd5b6000848152600360205260409020546001600160a01b0387811690821614615927576040805162461bcd60e51b815260206004820152601860248201527f496e76656e746f72793a206e6f6e2d6f776e6564204e46540000000000000000604482015290519081900360640190fd5b826159b857600160a01b81161580159061596757506000858152600860205260409020546001600160a01b031661595c612637565b6001600160a01b0316145b6159b8576040805162461bcd60e51b815260206004820152601e60248201527f496e76656e746f72793a206e6f6e2d617070726f7665642073656e6465720000604482015290519081900360640190fd5b60008581526003602052604090206001600160a01b038716905581613f36576159e387876001615a48565b613f3687876159f188613914565b60015b826001600160a01b0316846001600160a01b031614611a335760009182526001602090815260408084206001600160a01b039687168552909152808320805483900390559290931681522080549091019055565b816001600160a01b0316836001600160a01b031614611a80576001600160a01b0380841660009081526007602052604080822080548590039055918416815220805482019055505050565b60006001600160e01b031982167f01ffc9a7000000000000000000000000000000000000000000000000000000001480615af657506001600160e01b031982167fd9b67a2600000000000000000000000000000000000000000000000000000000145b80615b2a57506001600160e01b031982167f0e89341c00000000000000000000000000000000000000000000000000000000145b80615b5e57506001600160e01b031982167f09ce5c4600000000000000000000000000000000000000000000000000000000145b806117875750506001600160e01b0319167fbd85b039000000000000000000000000000000000000000000000000000000001490565b7fffffffffffffffffffffffffffffffffffffffffffffffffffffffffffffffec36013560601c90565b828054600181600116156101000203166002900490600052602060002090601f016020900481019282615bf45760008555615c3a565b82601f10615c0d5782800160ff19823516178555615c3a565b82800160010185558215615c3a579182015b82811115615c3a578235825591602001919060010190615c1f565b50615c46929150615c4a565b5090565b5b80821115615c465760008155600101615c4b56fea2646970667358221220f15bb571a09ca2cc4fc24fb025c14fbc428a46d23fa58f2d9c182efa34bd4bd064736f6c63430007060033",
  "linkReferences": {},
  "deployedLinkReferences": {}
}