{
  "_format": "hh-sol-artifact-1",
  "contractName": "BlueprintFacet1",
  "sourceName": "contracts/token/fusion/facets/BlueprintFacet1.sol",
  "abi": [
    {
      "inputs": [
        {
          "internalType": "address",
          "name": "cars",
          "type": "address"
        },
        {
          "internalType": "address",
          "name": "revv",
          "type": "address"
        },
        {
          "internalType": "address",
          "name": "cata",
          "type": "address"
        },
        {
          "internalType": "contract IForwarderRegistry",
          "name": "forwarderRegistry",
          "type": "address"
        }
      ],
      "stateMutability": "nonpayable",
      "type": "constructor"
    },
    {
      "inputs": [
        {
          "internalType": "uint256",
          "name": "id",
          "type": "uint256"
        }
      ],
      "name": "fuse_NAME1",
      "outputs": [],
      "stateMutability": "nonpayable",
      "type": "function"
    },
    {
      "inputs": [
        {
          "internalType": "uint256",
          "name": "id1",
          "type": "uint256"
        },
        {
          "internalType": "uint256",
          "name": "id2",
          "type": "uint256"
        }
      ],
      "name": "fuse_NAME10",
      "outputs": [],
      "stateMutability": "nonpayable",
      "type": "function"
    },
    {
      "inputs": [
        {
          "internalType": "uint256",
          "name": "id1",
          "type": "uint256"
        },
        {
          "internalType": "uint256",
          "name": "id2",
          "type": "uint256"
        }
      ],
      "name": "fuse_NAME11",
      "outputs": [],
      "stateMutability": "nonpayable",
      "type": "function"
    },
    {
      "inputs": [
        {
          "internalType": "uint256",
          "name": "id",
          "type": "uint256"
        }
      ],
      "name": "fuse_NAME2",
      "outputs": [],
      "stateMutability": "nonpayable",
      "type": "function"
    },
    {
      "inputs": [
        {
          "internalType": "uint256",
          "name": "id",
          "type": "uint256"
        }
      ],
      "name": "fuse_NAME3",
      "outputs": [],
      "stateMutability": "nonpayable",
      "type": "function"
    },
    {
      "inputs": [
        {
          "internalType": "uint256",
          "name": "id",
          "type": "uint256"
        }
      ],
      "name": "fuse_NAME4",
      "outputs": [],
      "stateMutability": "nonpayable",
      "type": "function"
    },
    {
      "inputs": [
        {
          "internalType": "uint256",
          "name": "id",
          "type": "uint256"
        }
      ],
      "name": "fuse_NAME5",
      "outputs": [],
      "stateMutability": "nonpayable",
      "type": "function"
    },
    {
      "inputs": [
        {
          "internalType": "uint256",
          "name": "id",
          "type": "uint256"
        }
      ],
      "name": "fuse_NAME6",
      "outputs": [],
      "stateMutability": "nonpayable",
      "type": "function"
    },
    {
      "inputs": [
        {
          "internalType": "uint256",
          "name": "id",
          "type": "uint256"
        }
      ],
      "name": "fuse_NAME7",
      "outputs": [],
      "stateMutability": "nonpayable",
      "type": "function"
    },
    {
      "inputs": [
        {
          "internalType": "uint256",
          "name": "id1",
          "type": "uint256"
        },
        {
          "internalType": "uint256",
          "name": "id2",
          "type": "uint256"
        }
      ],
      "name": "fuse_NAME8",
      "outputs": [],
      "stateMutability": "nonpayable",
      "type": "function"
    },
    {
      "inputs": [
        {
          "internalType": "uint256",
          "name": "id1",
          "type": "uint256"
        },
        {
          "internalType": "uint256",
          "name": "id2",
          "type": "uint256"
        }
      ],
      "name": "fuse_NAME9",
      "outputs": [],
      "stateMutability": "nonpayable",
      "type": "function"
    }
  ],
  "bytecode": "0x61010060405234801561001157600080fd5b5060405161102e38038061102e8339810160408190526100309161006b565b6001600160a01b0390811660805292831660a05290821660c0521660e0526100ca565b6001600160a01b038116811461006857600080fd5b50565b6000806000806080858703121561008157600080fd5b845161008c81610053565b602086015190945061009d81610053565b60408601519093506100ae81610053565b60608601519092506100bf81610053565b939692955090935050565b60805160a05160c05160e051610f0161012d60003960008181610619015261073e0152600081816105ee01526107130152600081816106510152818161067d015281816107d7015261080301526000818161087001526109100152610f016000f3fe608060405234801561001057600080fd5b50600436106100c95760003560e01c80636c10ca9d11610081578063ba71f3301161005b578063ba71f33014610168578063c4546fbc1461017b578063efeb40751461018e57600080fd5b80636c10ca9d1461012f578063863f90bc14610142578063b5397b2a1461015557600080fd5b806341356c2e116100b257806341356c2e146100f6578063467f9948146101095780635bb7db8f1461011c57600080fd5b80630561d579146100ce5780632cc3214a146100e3575b600080fd5b6100e16100dc366004610d4a565b6101a1565b005b6100e16100f1366004610d63565b610202565b6100e1610104366004610d4a565b610265565b6100e1610117366004610d4a565b6102c3565b6100e161012a366004610d4a565b610321565b6100e161013d366004610d4a565b61037f565b6100e1610150366004610d4a565b6103dd565b6100e1610163366004610d63565b61043b565b6100e1610176366004610d63565b61049a565b6100e1610189366004610d63565b6104f9565b6100e161019c366004610d4a565b610558565b6101ff7f80080008000000400000000105790000000000000000000000080001000000007f80080008000000400000000504795a60e60d20d200000000000500040000000083680821ab0d4414980000670de0b6b3a76400006105b2565b50565b6102617f80080008000006400000000105790000000000000000000000270002000000007f80080008000006400000000504795540c80f00f00000000000060005000000008484680821ab0d4414980000670de0b6b3a76400006106ac565b5050565b6101ff7f800800080000018000000001057900000000000000000000001a0001000000007f80080008000001800000000504795a60e60d20d200000000000400040000000083680821ab0d4414980000670de0b6b3a76400006105b2565b6101ff7f80080008000004e00000000105790000000000000000000000110002000000007f80080008000004e00000000504795540c80f00f000000000000200050000000083680821ab0d4414980000670de0b6b3a76400006105b2565b6101ff7f80080008000000300000000105790000000000000000000000070001000000007f80080008000000300000000504795a60e60d20d200000000000200040000000083680821ab0d4414980000670de0b6b3a76400006105b2565b6101ff7f80080008000000200000000105790000000000000000000000040001000000007f80080008000000200000000504795a60e60d20d200000000000100040000000083680821ab0d4414980000670de0b6b3a76400006105b2565b6101ff7f80080008000001100000000105790000000000000000000000130001000000007f80080008000001100000000504795a60e60d20d200000000000300040000000083680821ab0d4414980000670de0b6b3a76400006105b2565b6102617f80080008000006100000000105790000000000000000000000240002000000007f80080008000006100000000504795540c80f00f00000000000040005000000008484680821ab0d4414980000670de0b6b3a76400006106ac565b6102617f80080008000005e00000000105790000000000000000000000210002000000007f80080008000005e00000000504795540c80f00f00000000000030005000000008484680821ab0d4414980000670de0b6b3a76400006106ac565b6102617f80080008000006200000000105790000000000000000000000250002000000007f80080008000006200000000504795540c80f00f00000000000050005000000008484680821ab0d4414980000670de0b6b3a76400006106ac565b6101ff7f80080008000004500000000105790000000000000000000000080002000000007f80080008000004500000000504795540c80f00f000000000000100050000000083680821ab0d4414980000670de0b6b3a76400005b60006105bc610834565b90506105e9847ffffffff80000fff000000fffffff000000000000000000000fffffff000000008861098c565b6106147f00000000000000000000000000000000000000000000000000000000000000008285610a00565b61063f7f00000000000000000000000000000000000000000000000000000000000000008284610aca565b6000610649610b25565b9050610677817f00000000000000000000000000000000000000000000000000000000000000008488610b59565b6106a3817f00000000000000000000000000000000000000000000000000000000000000008489610bf6565b50505050505050565b60006106b6610834565b90506106e3857ffffffff80000fff000000fffffff000000000000000000000fffffff000000008961098c565b61070e847ffffffff80000fff000000fffffff000000000000000000000fffffff000000008961098c565b6107397f00000000000000000000000000000000000000000000000000000000000000008285610a00565b6107647f00000000000000000000000000000000000000000000000000000000000000008284610aca565b604080516002808252606082018352600092602083019080368337019050509050858160008151811061079957610799610d85565b60200260200101818152505084816001815181106107b9576107b9610d85565b60200260200101818152505060006107cf610b25565b90506107fd817f00000000000000000000000000000000000000000000000000000000000000008585610c73565b610829817f0000000000000000000000000000000000000000000000000000000000000000858b610bf6565b505050505050505050565b60003332810361084357919050565b6000367fffffffffffffffffffffffffffffffffffffffffffffffffffffffffffffffec013560601c90507f000000000000000000000000000000000000000000000000000000000000000073ffffffffffffffffffffffffffffffffffffffff168273ffffffffffffffffffffffffffffffffffffffff16148061097b57506040517fe60125d600000000000000000000000000000000000000000000000000000000815273ffffffffffffffffffffffffffffffffffffffff828116600483015283811660248301527f0000000000000000000000000000000000000000000000000000000000000000169063e60125d690604401602060405180830381865afa158015610957573d6000803e3d6000fd5b505050506040513d601f19601f8201168201806040525081019061097b9190610db4565b156109865792915050565b50919050565b80828416146109fb576040517f08c379a000000000000000000000000000000000000000000000000000000000815260206004820152601660248201527f467573696f6e3a2077726f6e6720636172207479706500000000000000000000604482015260640160405180910390fd5b505050565b8273ffffffffffffffffffffffffffffffffffffffff166323b872dd83610a25610ccf565b5460405160e084901b7fffffffff0000000000000000000000000000000000000000000000000000000016815273ffffffffffffffffffffffffffffffffffffffff928316600482015291166024820152604481018490526064015b6020604051808303816000875af1158015610aa0573d6000803e3d6000fd5b505050506040513d601f19601f82011682018060405250810190610ac49190610db4565b50505050565b6040517f79cc679000000000000000000000000000000000000000000000000000000000815273ffffffffffffffffffffffffffffffffffffffff8381166004830152602482018390528416906379cc679090604401610a81565b600080610b5360017ffdd1e5f90c72e791d4ca71fbea62cc3e8ef871745290759e9db5336acb7f8bb0610e0c565b92915050565b60018401546040517f23b872dd00000000000000000000000000000000000000000000000000000000815273ffffffffffffffffffffffffffffffffffffffff8481166004830152918216602482015260448101839052908416906323b872dd906064015b600060405180830381600087803b158015610bd857600080fd5b505af1158015610bec573d6000803e3d6000fd5b5050505050505050565b73ffffffffffffffffffffffffffffffffffffffff83166340c10f1983610c1d8785610cfd565b6040517fffffffff0000000000000000000000000000000000000000000000000000000060e085901b16815273ffffffffffffffffffffffffffffffffffffffff90921660048301526024820152604401610bbe565b60018401546040517ff3993d1100000000000000000000000000000000000000000000000000000000815273ffffffffffffffffffffffffffffffffffffffff8086169263f3993d1192610bbe92879216908690600401610e23565b600080610b5360017f4fb5f8cdfbce77f22b0931a39e9f476a60a0f66524b2f379e96485471eb700ae610e0c565b7ffffffff80000000000000000ff00000000000000000000000000ffff000000008116600090815260208390526040812080548290610d3b90610e93565b91829055508217905092915050565b600060208284031215610d5c57600080fd5b5035919050565b60008060408385031215610d7657600080fd5b50508035926020909101359150565b7f4e487b7100000000000000000000000000000000000000000000000000000000600052603260045260246000fd5b600060208284031215610dc657600080fd5b81518015158114610dd657600080fd5b9392505050565b7f4e487b7100000000000000000000000000000000000000000000000000000000600052601160045260246000fd5b600082821015610e1e57610e1e610ddd565b500390565b60006060820173ffffffffffffffffffffffffffffffffffffffff8087168452602081871681860152606060408601528291508551808452608086019250818701935060005b81811015610e8557845184529382019392820192600101610e69565b509198975050505050505050565b60007fffffffffffffffffffffffffffffffffffffffffffffffffffffffffffffffff8203610ec457610ec4610ddd565b506001019056fea264697066735822122035ad815fc52d73f759dccccd71cfeb221cd1b6fcb7c502741cb4d2c1ce03c0ee64736f6c634300080f0033",
  "linkReferences": {},
  "deployedLinkReferences": {}
}