{
  "_format": "hh-sol-artifact-1",
  "contractName": "BlueprintFacet1",
  "sourceName": "contracts/token/fusion/facets/BlueprintFacet1.sol",
  "abi": [
    {
      "inputs": [
        {
          "internalType": "address",
          "name": "cars",
          "type": "address"
        },
        {
          "internalType": "address",
          "name": "revv",
          "type": "address"
        },
        {
          "internalType": "address",
          "name": "cata",
          "type": "address"
        },
        {
          "internalType": "contract IForwarderRegistry",
          "name": "forwarderRegistry",
          "type": "address"
        }
      ],
      "stateMutability": "nonpayable",
      "type": "constructor"
    },
    {
      "inputs": [
        {
          "internalType": "uint256",
          "name": "id",
          "type": "uint256"
        }
      ],
      "name": "fuse_Common_Rare_1",
      "outputs": [],
      "stateMutability": "nonpayable",
      "type": "function"
    },
    {
      "inputs": [
        {
          "internalType": "uint256",
          "name": "id",
          "type": "uint256"
        }
      ],
      "name": "fuse_Common_Rare_10",
      "outputs": [],
      "stateMutability": "nonpayable",
      "type": "function"
    },
    {
      "inputs": [
        {
          "internalType": "uint256",
          "name": "id1",
          "type": "uint256"
        },
        {
          "internalType": "uint256",
          "name": "id2",
          "type": "uint256"
        }
      ],
      "name": "fuse_Common_Rare_11",
      "outputs": [],
      "stateMutability": "nonpayable",
      "type": "function"
    },
    {
      "inputs": [
        {
          "internalType": "uint256",
          "name": "id1",
          "type": "uint256"
        },
        {
          "internalType": "uint256",
          "name": "id2",
          "type": "uint256"
        }
      ],
      "name": "fuse_Common_Rare_12",
      "outputs": [],
      "stateMutability": "nonpayable",
      "type": "function"
    },
    {
      "inputs": [
        {
          "internalType": "uint256",
          "name": "id",
          "type": "uint256"
        }
      ],
      "name": "fuse_Common_Rare_2",
      "outputs": [],
      "stateMutability": "nonpayable",
      "type": "function"
    },
    {
      "inputs": [
        {
          "internalType": "uint256",
          "name": "id",
          "type": "uint256"
        }
      ],
      "name": "fuse_Common_Rare_3",
      "outputs": [],
      "stateMutability": "nonpayable",
      "type": "function"
    },
    {
      "inputs": [
        {
          "internalType": "uint256",
          "name": "id",
          "type": "uint256"
        }
      ],
      "name": "fuse_Common_Rare_4",
      "outputs": [],
      "stateMutability": "nonpayable",
      "type": "function"
    },
    {
      "inputs": [
        {
          "internalType": "uint256",
          "name": "id",
          "type": "uint256"
        }
      ],
      "name": "fuse_Common_Rare_5",
      "outputs": [],
      "stateMutability": "nonpayable",
      "type": "function"
    },
    {
      "inputs": [
        {
          "internalType": "uint256",
          "name": "id",
          "type": "uint256"
        }
      ],
      "name": "fuse_Common_Rare_6",
      "outputs": [],
      "stateMutability": "nonpayable",
      "type": "function"
    },
    {
      "inputs": [
        {
          "internalType": "uint256",
          "name": "id",
          "type": "uint256"
        }
      ],
      "name": "fuse_Common_Rare_7",
      "outputs": [],
      "stateMutability": "nonpayable",
      "type": "function"
    },
    {
      "inputs": [
        {
          "internalType": "uint256",
          "name": "id",
          "type": "uint256"
        }
      ],
      "name": "fuse_Common_Rare_8",
      "outputs": [],
      "stateMutability": "nonpayable",
      "type": "function"
    },
    {
      "inputs": [
        {
          "internalType": "uint256",
          "name": "id",
          "type": "uint256"
        }
      ],
      "name": "fuse_Common_Rare_9",
      "outputs": [],
      "stateMutability": "nonpayable",
      "type": "function"
    }
  ],
  "bytecode": "0x61010060405234801561001157600080fd5b5060405162001215380380620012158339810160408190526100329161006d565b6001600160a01b0390811660805292831660a05290821660c0521660e0526100cc565b6001600160a01b038116811461006a57600080fd5b50565b6000806000806080858703121561008357600080fd5b845161008e81610055565b602086015190945061009f81610055565b60408601519093506100b081610055565b60608601519092506100c181610055565b939692955090935050565b60805160a05160c05160e0516110e56200013060003960008181610891015261096b01526000818161086601526109400152600081816108c9015281816108f5015281816109a301526109cf015260008181610a410152610ac901526110e56000f3fe608060405234801561001057600080fd5b50600436106100d45760003560e01c8063428363ff116100815780636f03d4981161005b5780636f03d498146101865780637aba5e9314610199578063fc8ca1e7146101ac57600080fd5b8063428363ff1461014d57806346f08a6814610160578063580b9b201461017357600080fd5b806314e509d3116100b257806314e509d31461011457806319b8a894146101275780633ba30ff51461013a57600080fd5b806304861f6a146100d95780630c62034e146100ee57806311b0b01f14610101575b600080fd5b6100ec6100e7366004610f32565b6101bf565b005b6100ec6100fc366004610f54565b610308565b6100ec61010f366004610f32565b610369565b6100ec610122366004610f54565b6104ac565b6100ec610135366004610f54565b61050a565b6100ec610148366004610f54565b610568565b6100ec61015b366004610f54565b6105c6565b6100ec61016e366004610f54565b610624565b6100ec610181366004610f54565b610682565b6100ec610194366004610f54565b6106e0565b6100ec6101a7366004610f54565b61073e565b6100ec6101ba366004610f54565b61079c565b6040805160028082526060820183526000926020830190803683370190505090507f80080008000006200000000105790000000000000000000000250002000000008160008151811061021457610214610f6d565b6020026020010181815250507f80080008000006400000000105790000000000000000000000270002000000008160018151811061025457610254610f6d565b602090810291909101015260408051600280825260608201909252600091816020016020820280368337019050509050838160008151811061029857610298610f6d565b60200260200101818152505082816001815181106102b8576102b8610f6d565b602002602001018181525050610302827f8008000800000bb000000005047a5540c80f00f000000000000800050000000083681043561a8829300000670de0b6b3a76400006107fa565b50505050565b6103667f80080008000001100000000105790000000000000000000000130001000000007f800800080000011000000005047a5a60e60d20d200000000000300040000000083681043561a8829300000670de0b6b3a7640000610925565b50565b6040805160028082526060820183526000926020830190803683370190505090507f80080008000005e0000000010579000000000000000000000021000200000000816000815181106103be576103be610f6d565b6020026020010181815250507f8008000800000610000000010579000000000000000000000024000200000000816001815181106103fe576103fe610f6d565b602090810291909101015260408051600280825260608201909252600091816020016020820280368337019050509050838160008151811061044257610442610f6d565b602002602001018181525050828160018151811061046257610462610f6d565b602002602001018181525050610302827f8008000800000ba000000005047a5540c80f00f000000000000700050000000083681043561a8829300000670de0b6b3a76400006107fa565b6103667f80080008000006200000000105790000000000000000000000250002000000007f800800080000062000000005047a5540c80f00f000000000000500050000000083681043561a8829300000670de0b6b3a7640000610925565b6103667f80080008000000300000000105790000000000000000000000070001000000007f800800080000003000000005047a5a60e60d20d200000000000200040000000083681043561a8829300000670de0b6b3a7640000610925565b6103667f80080008000006400000000105790000000000000000000000270002000000007f800800080000064000000005047a5540c80f00f000000000000600050000000083681043561a8829300000670de0b6b3a7640000610925565b6103667f80080008000004500000000105790000000000000000000000080002000000007f800800080000045000000005047a5540c80f00f000000000000100050000000083681043561a8829300000670de0b6b3a7640000610925565b6103667f80080008000006100000000105790000000000000000000000240002000000007f800800080000061000000005047a5540c80f00f000000000000400050000000083681043561a8829300000670de0b6b3a7640000610925565b6103667f80080008000004e00000000105790000000000000000000000110002000000007f80080008000004e000000005047a5540c80f00f000000000000200050000000083681043561a8829300000670de0b6b3a7640000610925565b6103667f80080008000000400000000105790000000000000000000000080001000000007f800800080000004000000005047a5a60e60d20d200000000000500040000000083681043561a8829300000670de0b6b3a7640000610925565b6103667f80080008000005e00000000105790000000000000000000000210002000000007f80080008000005e000000005047a5540c80f00f000000000000300050000000083681043561a8829300000670de0b6b3a7640000610925565b6103667f800800080000018000000001057900000000000000000000001a0001000000007f800800080000018000000005047a5a60e60d20d200000000000400040000000083681043561a8829300000670de0b6b3a7640000610925565b60006108046109fe565b865190915060005b818110156108605761085086828151811061082957610829610f6d565b602002602001015189838151811061084357610843610f6d565b6020026020010151610b45565b61085981610fcb565b905061080c565b5061088c7f00000000000000000000000000000000000000000000000000000000000000008386610bd8565b6108b77f00000000000000000000000000000000000000000000000000000000000000008385610cb8565b60006108c1610d13565b90506108ef817f00000000000000000000000000000000000000000000000000000000000000008589610d47565b61091b817f0000000000000000000000000000000000000000000000000000000000000000858a610dd1565b5050505050505050565b600061092f6109fe565b905061093b8487610b45565b6109667f00000000000000000000000000000000000000000000000000000000000000008285610bd8565b6109917f00000000000000000000000000000000000000000000000000000000000000008284610cb8565b600061099b610d13565b90506109c9817f00000000000000000000000000000000000000000000000000000000000000008488610e4e565b6109f5817f00000000000000000000000000000000000000000000000000000000000000008489610dd1565b50505050505050565b600033321480610a0e5750601836105b15610a1857503390565b7fffffffffffffffffffffffffffffffffffffffffffffffffffffffffffffffec36013560601c7f000000000000000000000000000000000000000000000000000000000000000073ffffffffffffffffffffffffffffffffffffffff16331480610b3457506040517f8929a8ca00000000000000000000000000000000000000000000000000000000815273ffffffffffffffffffffffffffffffffffffffff82811660048301523360248301527f00000000000000000000000000000000000000000000000000000000000000001690638929a8ca90604401602060405180830381865afa158015610b10573d6000803e3d6000fd5b505050506040513d601f19601f82011682018060405250810190610b349190611003565b15610b3e57919050565b3391505090565b807ffffffff80000fff000000fffffff000000000000000000000fffffff00000000831614610bd4576040517f08c379a000000000000000000000000000000000000000000000000000000000815260206004820152601660248201527f467573696f6e3a2077726f6e6720636172207479706500000000000000000000604482015260640160405180910390fd5b5050565b8273ffffffffffffffffffffffffffffffffffffffff166323b872dd83610c1a610c00610eb7565b5473ffffffffffffffffffffffffffffffffffffffff1690565b6040517fffffffff0000000000000000000000000000000000000000000000000000000060e085901b16815273ffffffffffffffffffffffffffffffffffffffff928316600482015291166024820152604481018490526064015b6020604051808303816000875af1158015610c94573d6000803e3d6000fd5b505050506040513d601f19601f820116820180604052508101906103029190611003565b6040517f79cc679000000000000000000000000000000000000000000000000000000000815273ffffffffffffffffffffffffffffffffffffffff8381166004830152602482018390528416906379cc679090604401610c75565b600080610d4160017ffdd1e5f90c72e791d4ca71fbea62cc3e8ef871745290759e9db5336acb7f8bb061102c565b92915050565b60018401546040517ff3993d1100000000000000000000000000000000000000000000000000000000815273ffffffffffffffffffffffffffffffffffffffff8086169263f3993d1192610da39287921690869060040161103f565b600060405180830381600087803b158015610dbd57600080fd5b505af115801561091b573d6000803e3d6000fd5b73ffffffffffffffffffffffffffffffffffffffff83166340c10f1983610df88785610ee5565b6040517fffffffff0000000000000000000000000000000000000000000000000000000060e085901b16815273ffffffffffffffffffffffffffffffffffffffff90921660048301526024820152604401610da3565b60018401546040517f23b872dd00000000000000000000000000000000000000000000000000000000815273ffffffffffffffffffffffffffffffffffffffff8481166004830152918216602482015260448101839052908416906323b872dd90606401610da3565b600080610d4160017f4fb5f8cdfbce77f22b0931a39e9f476a60a0f66524b2f379e96485471eb700ae61102c565b7ffffffff80000000000000000ff00000000000000000000000000ffff000000008116600090815260208390526040812080548290610f2390610fcb565b91829055508217905092915050565b60008060408385031215610f4557600080fd5b50508035926020909101359150565b600060208284031215610f6657600080fd5b5035919050565b7f4e487b7100000000000000000000000000000000000000000000000000000000600052603260045260246000fd5b7f4e487b7100000000000000000000000000000000000000000000000000000000600052601160045260246000fd5b60007fffffffffffffffffffffffffffffffffffffffffffffffffffffffffffffffff8203610ffc57610ffc610f9c565b5060010190565b60006020828403121561101557600080fd5b8151801515811461102557600080fd5b9392505050565b81810381811115610d4157610d41610f9c565b60006060820173ffffffffffffffffffffffffffffffffffffffff8087168452602081871681860152606060408601528291508551808452608086019250818701935060005b818110156110a157845184529382019392820192600101611085565b50919897505050505050505056fea26469706673582212209e3aae3cd83f5fd32aef7372fc573c51532c942c9de0a453252599a9004ff0e264736f6c63430008110033",
  "linkReferences": {},
  "deployedLinkReferences": {}
}