{
  "_format": "hh-sol-artifact-1",
  "contractName": "BlueprintA",
  "sourceName": "contracts/token/fusion/blueprints/BlueprintA.sol",
  "abi": [
    {
      "inputs": [
        {
          "internalType": "uint256",
          "name": "spentTokenMask_",
          "type": "uint256"
        },
        {
          "internalType": "uint256",
          "name": "deliveredTokenMask_",
          "type": "uint256"
        },
        {
          "internalType": "uint256",
          "name": "catalystCost_",
          "type": "uint256"
        },
        {
          "internalType": "uint256",
          "name": "revvCost_",
          "type": "uint256"
        }
      ],
      "stateMutability": "nonpayable",
      "type": "constructor"
    },
    {
      "inputs": [],
      "name": "catalystCost",
      "outputs": [
        {
          "internalType": "uint256",
          "name": "",
          "type": "uint256"
        }
      ],
      "stateMutability": "view",
      "type": "function"
    },
    {
      "inputs": [],
      "name": "deliveredTokenMask",
      "outputs": [
        {
          "internalType": "uint256",
          "name": "",
          "type": "uint256"
        }
      ],
      "stateMutability": "view",
      "type": "function"
    },
    {
      "inputs": [
        {
          "internalType": "address",
          "name": "",
          "type": "address"
        },
        {
          "internalType": "address",
          "name": "",
          "type": "address"
        },
        {
          "internalType": "uint256[]",
          "name": "",
          "type": "uint256[]"
        },
        {
          "internalType": "uint256[]",
          "name": "",
          "type": "uint256[]"
        },
        {
          "internalType": "bytes",
          "name": "",
          "type": "bytes"
        }
      ],
      "name": "onERC1155BatchReceived",
      "outputs": [
        {
          "internalType": "bytes4",
          "name": "",
          "type": "bytes4"
        }
      ],
      "stateMutability": "pure",
      "type": "function"
    },
    {
      "inputs": [
        {
          "internalType": "address",
          "name": "",
          "type": "address"
        },
        {
          "internalType": "address",
          "name": "from",
          "type": "address"
        },
        {
          "internalType": "uint256",
          "name": "id",
          "type": "uint256"
        },
        {
          "internalType": "uint256",
          "name": "value",
          "type": "uint256"
        },
        {
          "internalType": "bytes",
          "name": "",
          "type": "bytes"
        }
      ],
      "name": "onERC1155Received",
      "outputs": [
        {
          "internalType": "bytes4",
          "name": "",
          "type": "bytes4"
        }
      ],
      "stateMutability": "nonpayable",
      "type": "function"
    },
    {
      "inputs": [],
      "name": "revvCost",
      "outputs": [
        {
          "internalType": "uint256",
          "name": "",
          "type": "uint256"
        }
      ],
      "stateMutability": "view",
      "type": "function"
    },
    {
      "inputs": [],
      "name": "spentTokenMask",
      "outputs": [
        {
          "internalType": "uint256",
          "name": "",
          "type": "uint256"
        }
      ],
      "stateMutability": "view",
      "type": "function"
    }
  ],
  "bytecode": "0x61010060405234801561001157600080fd5b506040516109b63803806109b68339818101604052608081101561003457600080fd5b50805160208201516040830151606090930151608083905260a082905260c084905260e0819052919290916109106100a66000398061032852806105d05250806102bc52806104f7525080610304528061072a52806108155250806102e05280610418528061043952506109106000f3fe608060405234801561001057600080fd5b50600436106100725760003560e01c8063a1de4c3f11610050578063a1de4c3f146100a1578063bc197c81146100a9578063f23a6e611461021857610072565b8063068cb7a21461007757806392f981a314610091578063972f3daa14610099575b600080fd5b61007f6102ba565b60408051918252519081900360200190f35b61007f6102de565b61007f610302565b61007f610326565b6101e3600480360360a08110156100bf57600080fd5b73ffffffffffffffffffffffffffffffffffffffff823581169260208101359091169181019060608101604082013564010000000081111561010057600080fd5b82018360208201111561011257600080fd5b8035906020019184602083028401116401000000008311171561013457600080fd5b91939092909160208101903564010000000081111561015257600080fd5b82018360208201111561016457600080fd5b8035906020019184602083028401116401000000008311171561018657600080fd5b9193909290916020810190356401000000008111156101a457600080fd5b8201836020820111156101b657600080fd5b803590602001918460018302840111640100000000831117156101d857600080fd5b50909250905061034a565b604080517fffffffff000000000000000000000000000000000000000000000000000000009092168252519081900360200190f35b6101e3600480360360a081101561022e57600080fd5b73ffffffffffffffffffffffffffffffffffffffff823581169260208101359091169160408201359160608101359181019060a08101608082013564010000000081111561027b57600080fd5b82018360208201111561028d57600080fd5b803590602001918460018302840111640100000000831117156102af57600080fd5b509092509050610399565b7f000000000000000000000000000000000000000000000000000000000000000081565b7f000000000000000000000000000000000000000000000000000000000000000081565b7f000000000000000000000000000000000000000000000000000000000000000081565b7f000000000000000000000000000000000000000000000000000000000000000081565b6040805162461bcd60e51b815260206004820152601860248201527f467573696f6e3a20756e737570706f727465642063616c6c00000000000000006044820152905160009181900360640190fd5b6000806103a46108b6565b600281015490915073ffffffffffffffffffffffffffffffffffffffff16338114610416576040805162461bcd60e51b815260206004820152601460248201527f467573696f6e3a2077726f6e672073656e646572000000000000000000000000604482015290519081900360640190fd5b7f00000000000000000000000000000000000000000000000000000000000000007f00000000000000000000000000000000000000000000000000000000000000008816146104ac576040805162461bcd60e51b815260206004820152601860248201527f467573696f6e3a2077726f6e6720746f6b656e20747970650000000000000000604482015290519081900360640190fd5b6003820154604080517f79cc679000000000000000000000000000000000000000000000000000000000815273ffffffffffffffffffffffffffffffffffffffff8b811660048301527f00000000000000000000000000000000000000000000000000000000000000006024830152915191909216916379cc67909160448083019260209291908290030181600087803b15801561054957600080fd5b505af115801561055d573d6000803e3d6000fd5b505050506040513d602081101561057357600080fd5b50506004808301546006840154604080517f23b872dd00000000000000000000000000000000000000000000000000000000815273ffffffffffffffffffffffffffffffffffffffff8d81169582019590955291841660248301527f000000000000000000000000000000000000000000000000000000000000000060448301525192909116916323b872dd916064808201926020929091908290030181600087803b15801561062257600080fd5b505af1158015610636573d6000803e3d6000fd5b505050506040513d602081101561064c57600080fd5b50506007820154604080517ff242432a00000000000000000000000000000000000000000000000000000000815230600482015273ffffffffffffffffffffffffffffffffffffffff9283166024820152604481018a90526064810189905260a06084820152600060a4820181905291519284169263f242432a9260c48084019391929182900301818387803b1580156106e557600080fd5b505af11580156106f9573d6000803e3d6000fd5b5050506005830154604080517f6abbb3b40000000000000000000000000000000000000000000000000000000081527f00000000000000000000000000000000000000000000000000000000000000006004820152905173ffffffffffffffffffffffffffffffffffffffff8086169450635cfa9297938d93911691636abbb3b4916024808201926020929091908290030181600087803b15801561079d57600080fd5b505af11580156107b1573d6000803e3d6000fd5b505050506040513d60208110156107c757600080fd5b5051604080517fffffffff0000000000000000000000000000000000000000000000000000000060e086901b16815273ffffffffffffffffffffffffffffffffffffffff90931660048401527f00000000000000000000000000000000000000000000000000000000000000009091176024830152604482018a905260806064830152600060848301819052905160a48084019382900301818387803b15801561087057600080fd5b505af1158015610884573d6000803e3d6000fd5b507ff23a6e61000000000000000000000000000000000000000000000000000000009c9b505050505050505050505050565b7f017c151499bd0a073c21e62300fb5d151700bdb9cadb076d36eb827db755ced69056fea26469706673582212200fee5bc4a91b7df6598cd11fde4301fe4a4e5001b893213a944ef6400e63617564736f6c63430007060033",
  "linkReferences": {},
  "deployedLinkReferences": {}
}