{
  "_format": "hh-sol-artifact-1",
  "contractName": "BlueprintA",
  "sourceName": "contracts/token/fusion/blueprints/BlueprintA.sol",
  "abi": [
    {
      "inputs": [
        {
          "internalType": "uint256",
          "name": "spentTokenMask_",
          "type": "uint256"
        },
        {
          "internalType": "uint256",
          "name": "deliveredTokenMask_",
          "type": "uint256"
        },
        {
          "internalType": "uint256",
          "name": "catalystCost_",
          "type": "uint256"
        },
        {
          "internalType": "uint256",
          "name": "revvCost_",
          "type": "uint256"
        }
      ],
      "stateMutability": "nonpayable",
      "type": "constructor"
    },
    {
      "inputs": [],
      "name": "catalystCost",
      "outputs": [
        {
          "internalType": "uint256",
          "name": "",
          "type": "uint256"
        }
      ],
      "stateMutability": "view",
      "type": "function"
    },
    {
      "inputs": [],
      "name": "deliveredTokenMask",
      "outputs": [
        {
          "internalType": "uint256",
          "name": "",
          "type": "uint256"
        }
      ],
      "stateMutability": "view",
      "type": "function"
    },
    {
      "inputs": [
        {
          "internalType": "address",
          "name": "",
          "type": "address"
        },
        {
          "internalType": "address",
          "name": "",
          "type": "address"
        },
        {
          "internalType": "uint256[]",
          "name": "",
          "type": "uint256[]"
        },
        {
          "internalType": "uint256[]",
          "name": "",
          "type": "uint256[]"
        },
        {
          "internalType": "bytes",
          "name": "",
          "type": "bytes"
        }
      ],
      "name": "onERC1155BatchReceived",
      "outputs": [
        {
          "internalType": "bytes4",
          "name": "",
          "type": "bytes4"
        }
      ],
      "stateMutability": "pure",
      "type": "function"
    },
    {
      "inputs": [
        {
          "internalType": "address",
          "name": "",
          "type": "address"
        },
        {
          "internalType": "address",
          "name": "from",
          "type": "address"
        },
        {
          "internalType": "uint256",
          "name": "id",
          "type": "uint256"
        },
        {
          "internalType": "uint256",
          "name": "value",
          "type": "uint256"
        },
        {
          "internalType": "bytes",
          "name": "",
          "type": "bytes"
        }
      ],
      "name": "onERC1155Received",
      "outputs": [
        {
          "internalType": "bytes4",
          "name": "",
          "type": "bytes4"
        }
      ],
      "stateMutability": "nonpayable",
      "type": "function"
    },
    {
      "inputs": [],
      "name": "revvCost",
      "outputs": [
        {
          "internalType": "uint256",
          "name": "",
          "type": "uint256"
        }
      ],
      "stateMutability": "view",
      "type": "function"
    },
    {
      "inputs": [],
      "name": "spentTokenMask",
      "outputs": [
        {
          "internalType": "uint256",
          "name": "",
          "type": "uint256"
        }
      ],
      "stateMutability": "view",
      "type": "function"
    },
    {
      "inputs": [
        {
          "internalType": "bytes4",
          "name": "interfaceId",
          "type": "bytes4"
        }
      ],
      "name": "supportsInterface",
      "outputs": [
        {
          "internalType": "bool",
          "name": "",
          "type": "bool"
        }
      ],
      "stateMutability": "view",
      "type": "function"
    }
  ],
  "bytecode": "0x61010060405234801561001157600080fd5b50604051610aad380380610aad8339818101604052608081101561003457600080fd5b50805160208201516040830151606090930151608083905260a082905260c084905260e081905291929091610a076100a66000398061041f52806106c75250806103b352806105ee5250806103fb5280610821528061090c5250806103d7528061050f52806105305250610a076000f3fe608060405234801561001057600080fd5b506004361061007d5760003560e01c8063972f3daa1161005b578063972f3daa146100f7578063a1de4c3f146100ff578063bc197c8114610107578063f23a6e61146102765761007d565b806301ffc9a714610082578063068cb7a2146100d557806392f981a3146100ef575b600080fd5b6100c16004803603602081101561009857600080fd5b50357fffffffff0000000000000000000000000000000000000000000000000000000016610318565b604080519115158252519081900360200190f35b6100dd6103b1565b60408051918252519081900360200190f35b6100dd6103d5565b6100dd6103f9565b6100dd61041d565b610241600480360360a081101561011d57600080fd5b73ffffffffffffffffffffffffffffffffffffffff823581169260208101359091169181019060608101604082013564010000000081111561015e57600080fd5b82018360208201111561017057600080fd5b8035906020019184602083028401116401000000008311171561019257600080fd5b9193909290916020810190356401000000008111156101b057600080fd5b8201836020820111156101c257600080fd5b803590602001918460208302840111640100000000831117156101e457600080fd5b91939092909160208101903564010000000081111561020257600080fd5b82018360208201111561021457600080fd5b8035906020019184600183028401116401000000008311171561023657600080fd5b509092509050610441565b604080517fffffffff000000000000000000000000000000000000000000000000000000009092168252519081900360200190f35b610241600480360360a081101561028c57600080fd5b73ffffffffffffffffffffffffffffffffffffffff823581169260208101359091169160408201359160608101359181019060a0810160808201356401000000008111156102d957600080fd5b8201836020820111156102eb57600080fd5b8035906020019184600183028401116401000000008311171561030d57600080fd5b509092509050610490565b60007fffffffff0000000000000000000000000000000000000000000000000000000082167f01ffc9a70000000000000000000000000000000000000000000000000000000014806103ab57507fffffffff0000000000000000000000000000000000000000000000000000000082167f4e2312e000000000000000000000000000000000000000000000000000000000145b92915050565b7f000000000000000000000000000000000000000000000000000000000000000081565b7f000000000000000000000000000000000000000000000000000000000000000081565b7f000000000000000000000000000000000000000000000000000000000000000081565b7f000000000000000000000000000000000000000000000000000000000000000081565b6040805162461bcd60e51b815260206004820152601860248201527f467573696f6e3a20756e737570706f727465642063616c6c00000000000000006044820152905160009181900360640190fd5b60008061049b6109ad565b600281015490915073ffffffffffffffffffffffffffffffffffffffff1633811461050d576040805162461bcd60e51b815260206004820152601460248201527f467573696f6e3a2077726f6e672073656e646572000000000000000000000000604482015290519081900360640190fd5b7f00000000000000000000000000000000000000000000000000000000000000007f00000000000000000000000000000000000000000000000000000000000000008816146105a3576040805162461bcd60e51b815260206004820152601860248201527f467573696f6e3a2077726f6e6720746f6b656e20747970650000000000000000604482015290519081900360640190fd5b6003820154604080517f79cc679000000000000000000000000000000000000000000000000000000000815273ffffffffffffffffffffffffffffffffffffffff8b811660048301527f00000000000000000000000000000000000000000000000000000000000000006024830152915191909216916379cc67909160448083019260209291908290030181600087803b15801561064057600080fd5b505af1158015610654573d6000803e3d6000fd5b505050506040513d602081101561066a57600080fd5b50506004808301546006840154604080517f23b872dd00000000000000000000000000000000000000000000000000000000815273ffffffffffffffffffffffffffffffffffffffff8d81169582019590955291841660248301527f000000000000000000000000000000000000000000000000000000000000000060448301525192909116916323b872dd916064808201926020929091908290030181600087803b15801561071957600080fd5b505af115801561072d573d6000803e3d6000fd5b505050506040513d602081101561074357600080fd5b50506007820154604080517ff242432a00000000000000000000000000000000000000000000000000000000815230600482015273ffffffffffffffffffffffffffffffffffffffff9283166024820152604481018a90526064810189905260a06084820152600060a4820181905291519284169263f242432a9260c48084019391929182900301818387803b1580156107dc57600080fd5b505af11580156107f0573d6000803e3d6000fd5b5050506005830154604080517f6abbb3b40000000000000000000000000000000000000000000000000000000081527f00000000000000000000000000000000000000000000000000000000000000006004820152905173ffffffffffffffffffffffffffffffffffffffff8086169450635cfa9297938d93911691636abbb3b4916024808201926020929091908290030181600087803b15801561089457600080fd5b505af11580156108a8573d6000803e3d6000fd5b505050506040513d60208110156108be57600080fd5b5051604080517fffffffff0000000000000000000000000000000000000000000000000000000060e086901b16815273ffffffffffffffffffffffffffffffffffffffff90931660048401527f00000000000000000000000000000000000000000000000000000000000000009091176024830152604482018a905260806064830152600060848301819052905160a48084019382900301818387803b15801561096757600080fd5b505af115801561097b573d6000803e3d6000fd5b507ff23a6e61000000000000000000000000000000000000000000000000000000009c9b505050505050505050505050565b7f81d7c4dfdd0917fbf44d3a98a849355a170306689f99006037c37c1b8018528a9056fea264697066735822122078a8a8da3ba249950ed049c763948a0425cfa65d8d18a635254471bbc349ca9864736f6c63430007060033",
  "linkReferences": {},
  "deployedLinkReferences": {}
}