{
  "_format": "hh-sol-artifact-1",
  "contractName": "BlueprintFacet1Mock",
  "sourceName": "contracts/mocks/token/fusion/facets/BlueprintFacet1Mock.sol",
  "abi": [
    {
      "inputs": [
        {
          "internalType": "address",
          "name": "cars",
          "type": "address"
        },
        {
          "internalType": "address",
          "name": "revv",
          "type": "address"
        },
        {
          "internalType": "address",
          "name": "cata",
          "type": "address"
        },
        {
          "internalType": "contract IForwarderRegistry",
          "name": "forwarderRegistry",
          "type": "address"
        }
      ],
      "stateMutability": "nonpayable",
      "type": "constructor"
    },
    {
      "inputs": [],
      "name": "__msgData",
      "outputs": [
        {
          "internalType": "bytes",
          "name": "",
          "type": "bytes"
        }
      ],
      "stateMutability": "view",
      "type": "function"
    },
    {
      "inputs": [],
      "name": "fuseWrongbaseOutputCarId",
      "outputs": [],
      "stateMutability": "nonpayable",
      "type": "function"
    },
    {
      "inputs": [
        {
          "internalType": "uint256",
          "name": "id",
          "type": "uint256"
        }
      ],
      "name": "fuse_Common_Rare_1",
      "outputs": [],
      "stateMutability": "nonpayable",
      "type": "function"
    },
    {
      "inputs": [
        {
          "internalType": "uint256",
          "name": "id",
          "type": "uint256"
        }
      ],
      "name": "fuse_Common_Rare_10",
      "outputs": [],
      "stateMutability": "nonpayable",
      "type": "function"
    },
    {
      "inputs": [
        {
          "internalType": "uint256",
          "name": "id1",
          "type": "uint256"
        },
        {
          "internalType": "uint256",
          "name": "id2",
          "type": "uint256"
        }
      ],
      "name": "fuse_Common_Rare_11",
      "outputs": [],
      "stateMutability": "nonpayable",
      "type": "function"
    },
    {
      "inputs": [
        {
          "internalType": "uint256",
          "name": "id1",
          "type": "uint256"
        },
        {
          "internalType": "uint256",
          "name": "id2",
          "type": "uint256"
        }
      ],
      "name": "fuse_Common_Rare_12",
      "outputs": [],
      "stateMutability": "nonpayable",
      "type": "function"
    },
    {
      "inputs": [
        {
          "internalType": "uint256",
          "name": "id",
          "type": "uint256"
        }
      ],
      "name": "fuse_Common_Rare_2",
      "outputs": [],
      "stateMutability": "nonpayable",
      "type": "function"
    },
    {
      "inputs": [
        {
          "internalType": "uint256",
          "name": "id",
          "type": "uint256"
        }
      ],
      "name": "fuse_Common_Rare_3",
      "outputs": [],
      "stateMutability": "nonpayable",
      "type": "function"
    },
    {
      "inputs": [
        {
          "internalType": "uint256",
          "name": "id",
          "type": "uint256"
        }
      ],
      "name": "fuse_Common_Rare_4",
      "outputs": [],
      "stateMutability": "nonpayable",
      "type": "function"
    },
    {
      "inputs": [
        {
          "internalType": "uint256",
          "name": "id",
          "type": "uint256"
        }
      ],
      "name": "fuse_Common_Rare_5",
      "outputs": [],
      "stateMutability": "nonpayable",
      "type": "function"
    },
    {
      "inputs": [
        {
          "internalType": "uint256",
          "name": "id",
          "type": "uint256"
        }
      ],
      "name": "fuse_Common_Rare_6",
      "outputs": [],
      "stateMutability": "nonpayable",
      "type": "function"
    },
    {
      "inputs": [
        {
          "internalType": "uint256",
          "name": "id",
          "type": "uint256"
        }
      ],
      "name": "fuse_Common_Rare_7",
      "outputs": [],
      "stateMutability": "nonpayable",
      "type": "function"
    },
    {
      "inputs": [
        {
          "internalType": "uint256",
          "name": "id",
          "type": "uint256"
        }
      ],
      "name": "fuse_Common_Rare_8",
      "outputs": [],
      "stateMutability": "nonpayable",
      "type": "function"
    },
    {
      "inputs": [
        {
          "internalType": "uint256",
          "name": "id",
          "type": "uint256"
        }
      ],
      "name": "fuse_Common_Rare_9",
      "outputs": [],
      "stateMutability": "nonpayable",
      "type": "function"
    }
  ],
  "bytecode": "0x6101006040523480156200001257600080fd5b506040516200158b3803806200158b833981016040819052620000359162000072565b6001600160a01b0390811660805292831660a05290821660c0521660e052620000da565b6001600160a01b03811681146200006f57600080fd5b50565b600080600080608085870312156200008957600080fd5b8451620000968162000059565b6020860151909450620000a98162000059565b6040860151909350620000bc8162000059565b6060860151909250620000cf8162000059565b939692955090935050565b60805160a05160c05160e05161143f6200014c600039600081816109610152610a3b0152600081816109360152610a10015260008181610999015281816109c501528181610a730152610a9f015260008181610b0501528181610b4301528181610c7b0152610d03015261143f6000f3fe608060405234801561001057600080fd5b50600436106100ea5760003560e01c8063428363ff1161008c5780636f03d498116100665780636f03d498146101bb5780637aba5e93146101ce578063f5475353146101e1578063fc8ca1e7146101e957600080fd5b8063428363ff1461018257806346f08a6814610195578063580b9b20146101a857600080fd5b806314e509d3116100c857806314e509d31461012a57806319b8a8941461013d57806331e66e1e146101505780633ba30ff51461016f57600080fd5b806304861f6a146100ef5780630c62034e1461010457806311b0b01f14610117575b600080fd5b6101026100fd366004611215565b6101fc565b005b610102610112366004611237565b610345565b610102610125366004611215565b6103a6565b610102610138366004611237565b6104e9565b61010261014b366004611237565b610547565b6101586105a5565b604051610166929190611250565b60405180910390f35b61010261017d366004611237565b6105b8565b610102610190366004611237565b610616565b6101026101a3366004611237565b610674565b6101026101b6366004611237565b6106d2565b6101026101c9366004611237565b610730565b6101026101dc366004611237565b61078e565b6101026107ec565b6101026101f7366004611237565b61086c565b6040805160028082526060820183526000926020830190803683370190505090507f8008000800000620000000010579000000000000000000000025000200000000816000815181106102515761025161129d565b6020026020010181815250507f8008000800000640000000010579000000000000000000000027000200000000816001815181106102915761029161129d565b60209081029190910101526040805160028082526060820190925260009181602001602082028036833701905050905083816000815181106102d5576102d561129d565b60200260200101818152505082816001815181106102f5576102f561129d565b60200260200101818152505061033f827f8008000800000bb000000005047a5540c80f00f000000000000800050000000083681043561a8829300000670de0b6b3a76400006108ca565b50505050565b6103a37f80080008000001100000000105790000000000000000000000130001000000007f800800080000011000000005047a5a60e60d20d200000000000300040000000083681043561a8829300000670de0b6b3a76400006109f5565b50565b6040805160028082526060820183526000926020830190803683370190505090507f80080008000005e0000000010579000000000000000000000021000200000000816000815181106103fb576103fb61129d565b6020026020010181815250507f80080008000006100000000105790000000000000000000000240002000000008160018151811061043b5761043b61129d565b602090810291909101015260408051600280825260608201909252600091816020016020820280368337019050509050838160008151811061047f5761047f61129d565b602002602001018181525050828160018151811061049f5761049f61129d565b60200260200101818152505061033f827f8008000800000ba000000005047a5540c80f00f000000000000700050000000083681043561a8829300000670de0b6b3a76400006108ca565b6103a37f80080008000006200000000105790000000000000000000000250002000000007f800800080000062000000005047a5540c80f00f000000000000500050000000083681043561a8829300000670de0b6b3a76400006109f5565b6103a37f80080008000000300000000105790000000000000000000000070001000000007f800800080000003000000005047a5a60e60d20d200000000000200040000000083681043561a8829300000670de0b6b3a76400006109f5565b3660006105b0610ace565b915091509091565b6103a37f80080008000006400000000105790000000000000000000000270002000000007f800800080000064000000005047a5540c80f00f000000000000600050000000083681043561a8829300000670de0b6b3a76400006109f5565b6103a37f80080008000004500000000105790000000000000000000000080002000000007f800800080000045000000005047a5540c80f00f000000000000100050000000083681043561a8829300000670de0b6b3a76400006109f5565b6103a37f80080008000006100000000105790000000000000000000000240002000000007f800800080000061000000005047a5540c80f00f000000000000400050000000083681043561a8829300000670de0b6b3a76400006109f5565b6103a37f80080008000004e00000000105790000000000000000000000110002000000007f80080008000004e000000005047a5540c80f00f000000000000200050000000083681043561a8829300000670de0b6b3a76400006109f5565b6103a37f80080008000000400000000105790000000000000000000000080001000000007f800800080000004000000005047a5a60e60d20d200000000000500040000000083681043561a8829300000670de0b6b3a76400006109f5565b6103a37f80080008000005e00000000105790000000000000000000000210002000000007f80080008000005e000000005047a5540c80f00f000000000000300050000000083681043561a8829300000670de0b6b3a76400006109f5565b61086a7f80080008000000300000000105790000000000000000000000070001000000007f800800080000003000000005047a5a60e60d20d20000000000020004000000017f80080008000000300000000105795b8064064064000000000007000100001114681043561a8829300000670de0b6b3a76400006109f5565b565b6103a37f800800080000018000000001057900000000000000000000001a0001000000007f800800080000018000000005047a5a60e60d20d200000000000400040000000083681043561a8829300000670de0b6b3a76400006109f5565b60006108d4610c38565b865190915060005b81811015610930576109208682815181106108f9576108f961129d565b60200260200101518983815181106109135761091361129d565b6020026020010151610d7f565b610929816112fb565b90506108dc565b5061095c7f00000000000000000000000000000000000000000000000000000000000000008386610e13565b6109877f00000000000000000000000000000000000000000000000000000000000000008385610ef3565b6000610991610f4e565b90506109bf817f00000000000000000000000000000000000000000000000000000000000000008589610f82565b6109eb817f0000000000000000000000000000000000000000000000000000000000000000858a61100c565b5050505050505050565b60006109ff610c38565b9050610a0b8487610d7f565b610a367f00000000000000000000000000000000000000000000000000000000000000008285610e13565b610a617f00000000000000000000000000000000000000000000000000000000000000008284610ef3565b6000610a6b610f4e565b9050610a99817f00000000000000000000000000000000000000000000000000000000000000008488611092565b610ac5817f0000000000000000000000000000000000000000000000000000000000000000848961100c565b50505050505050565b36600033321480610adf5750601836105b15610aed5750600091369150565b3373ffffffffffffffffffffffffffffffffffffffff7f0000000000000000000000000000000000000000000000000000000000000000161480610c22575073ffffffffffffffffffffffffffffffffffffffff7f000000000000000000000000000000000000000000000000000000000000000016638929a8ca367fffffffffffffffffffffffffffffffffffffffffffffffffffffffffffffffec013560601c6040517fffffffff0000000000000000000000000000000000000000000000000000000060e084901b16815273ffffffffffffffffffffffffffffffffffffffff9091166004820152336024820152604401602060405180830381865afa158015610bfe573d6000803e3d6000fd5b505050506040513d601f19601f82011682018060405250810190610c229190611333565b15610c2f576105b06110fb565b50600091369150565b600033321480610c485750601836105b15610c5257503390565b7fffffffffffffffffffffffffffffffffffffffffffffffffffffffffffffffec36013560601c7f000000000000000000000000000000000000000000000000000000000000000073ffffffffffffffffffffffffffffffffffffffff16331480610d6e57506040517f8929a8ca00000000000000000000000000000000000000000000000000000000815273ffffffffffffffffffffffffffffffffffffffff82811660048301523360248301527f00000000000000000000000000000000000000000000000000000000000000001690638929a8ca90604401602060405180830381865afa158015610d4a573d6000803e3d6000fd5b505050506040513d601f19601f82011682018060405250810190610d6e9190611333565b15610d7857919050565b3391505090565b807ffffffff80000fff000000fffffff000000000000000000000fffffff00000000831614610e0f576040517f08c379a000000000000000000000000000000000000000000000000000000000815260206004820152601660248201527f467573696f6e3a2077726f6e672063617220747970650000000000000000000060448201526064015b60405180910390fd5b5050565b8273ffffffffffffffffffffffffffffffffffffffff166323b872dd83610e55610e3b61112c565b5473ffffffffffffffffffffffffffffffffffffffff1690565b6040517fffffffff0000000000000000000000000000000000000000000000000000000060e085901b16815273ffffffffffffffffffffffffffffffffffffffff928316600482015291166024820152604481018490526064015b6020604051808303816000875af1158015610ecf573d6000803e3d6000fd5b505050506040513d601f19601f8201168201806040525081019061033f9190611333565b6040517f79cc679000000000000000000000000000000000000000000000000000000000815273ffffffffffffffffffffffffffffffffffffffff8381166004830152602482018390528416906379cc679090604401610eb0565b600080610f7c60017ffdd1e5f90c72e791d4ca71fbea62cc3e8ef871745290759e9db5336acb7f8bb061135c565b92915050565b60018401546040517ff3993d1100000000000000000000000000000000000000000000000000000000815273ffffffffffffffffffffffffffffffffffffffff8086169263f3993d1192610fde9287921690869060040161136f565b600060405180830381600087803b158015610ff857600080fd5b505af11580156109eb573d6000803e3d6000fd5b6110158161115a565b73ffffffffffffffffffffffffffffffffffffffff83166340c10f198361103c87856111c8565b6040517fffffffff0000000000000000000000000000000000000000000000000000000060e085901b16815273ffffffffffffffffffffffffffffffffffffffff90921660048301526024820152604401610fde565b60018401546040517f23b872dd00000000000000000000000000000000000000000000000000000000815273ffffffffffffffffffffffffffffffffffffffff8481166004830152918216602482015260448101839052908416906323b872dd90606401610fde565b3660006105b07fffffffffffffffffffffffffffffffffffffffffffffffffffffffffffffffec83018284816113df565b600080610f7c60017f4fb5f8cdfbce77f22b0931a39e9f476a60a0f66524b2f379e96485471eb700ae61135c565b63ffffffff8116156103a3576040517f08c379a000000000000000000000000000000000000000000000000000000000815260206004820152601e60248201527f467573696f6e3a20696e76616c6964206f7574707574206261736520696400006044820152606401610e06565b7ffffffff80000000000000000ff00000000000000000000000000ffff000000008116600090815260208390526040812080548290611206906112fb565b91829055508217905092915050565b6000806040838503121561122857600080fd5b50508035926020909101359150565b60006020828403121561124957600080fd5b5035919050565b60208152816020820152818360408301376000818301604090810191909152601f9092017fffffffffffffffffffffffffffffffffffffffffffffffffffffffffffffffe0160101919050565b7f4e487b7100000000000000000000000000000000000000000000000000000000600052603260045260246000fd5b7f4e487b7100000000000000000000000000000000000000000000000000000000600052601160045260246000fd5b60007fffffffffffffffffffffffffffffffffffffffffffffffffffffffffffffffff820361132c5761132c6112cc565b5060010190565b60006020828403121561134557600080fd5b8151801515811461135557600080fd5b9392505050565b81810381811115610f7c57610f7c6112cc565b60006060820173ffffffffffffffffffffffffffffffffffffffff8087168452602081871681860152606060408601528291508551808452608086019250818701935060005b818110156113d1578451845293820193928201926001016113b5565b509198975050505050505050565b600080858511156113ef57600080fd5b838611156113fc57600080fd5b505082019391909203915056fea2646970667358221220ea0f7b6bc3c158c9467775044d158bff0e0629f45ab7545e02b0577b807db84864736f6c63430008130033",
  "linkReferences": {},
  "deployedLinkReferences": {}
}