{
  "_format": "hh-sol-artifact-1",
  "contractName": "BlueprintFacet1Mock",
  "sourceName": "contracts/mocks/token/fusion/facets/BlueprintFacet1Mock.sol",
  "abi": [
    {
      "inputs": [
        {
          "internalType": "address",
          "name": "cars",
          "type": "address"
        },
        {
          "internalType": "address",
          "name": "revv",
          "type": "address"
        },
        {
          "internalType": "address",
          "name": "cata",
          "type": "address"
        },
        {
          "internalType": "contract IForwarderRegistry",
          "name": "forwarderRegistry",
          "type": "address"
        }
      ],
      "stateMutability": "nonpayable",
      "type": "constructor"
    },
    {
      "inputs": [],
      "name": "__msgData",
      "outputs": [
        {
          "internalType": "bytes",
          "name": "",
          "type": "bytes"
        }
      ],
      "stateMutability": "view",
      "type": "function"
    },
    {
      "inputs": [
        {
          "internalType": "uint256",
          "name": "id",
          "type": "uint256"
        }
      ],
      "name": "fuse_Common_Rare_1",
      "outputs": [],
      "stateMutability": "nonpayable",
      "type": "function"
    },
    {
      "inputs": [
        {
          "internalType": "uint256",
          "name": "id",
          "type": "uint256"
        }
      ],
      "name": "fuse_Common_Rare_10",
      "outputs": [],
      "stateMutability": "nonpayable",
      "type": "function"
    },
    {
      "inputs": [
        {
          "internalType": "uint256",
          "name": "id1",
          "type": "uint256"
        },
        {
          "internalType": "uint256",
          "name": "id2",
          "type": "uint256"
        }
      ],
      "name": "fuse_Common_Rare_11",
      "outputs": [],
      "stateMutability": "nonpayable",
      "type": "function"
    },
    {
      "inputs": [
        {
          "internalType": "uint256",
          "name": "id1",
          "type": "uint256"
        },
        {
          "internalType": "uint256",
          "name": "id2",
          "type": "uint256"
        }
      ],
      "name": "fuse_Common_Rare_12",
      "outputs": [],
      "stateMutability": "nonpayable",
      "type": "function"
    },
    {
      "inputs": [
        {
          "internalType": "uint256",
          "name": "id",
          "type": "uint256"
        }
      ],
      "name": "fuse_Common_Rare_2",
      "outputs": [],
      "stateMutability": "nonpayable",
      "type": "function"
    },
    {
      "inputs": [
        {
          "internalType": "uint256",
          "name": "id",
          "type": "uint256"
        }
      ],
      "name": "fuse_Common_Rare_3",
      "outputs": [],
      "stateMutability": "nonpayable",
      "type": "function"
    },
    {
      "inputs": [
        {
          "internalType": "uint256",
          "name": "id",
          "type": "uint256"
        }
      ],
      "name": "fuse_Common_Rare_4",
      "outputs": [],
      "stateMutability": "nonpayable",
      "type": "function"
    },
    {
      "inputs": [
        {
          "internalType": "uint256",
          "name": "id",
          "type": "uint256"
        }
      ],
      "name": "fuse_Common_Rare_5",
      "outputs": [],
      "stateMutability": "nonpayable",
      "type": "function"
    },
    {
      "inputs": [
        {
          "internalType": "uint256",
          "name": "id",
          "type": "uint256"
        }
      ],
      "name": "fuse_Common_Rare_6",
      "outputs": [],
      "stateMutability": "nonpayable",
      "type": "function"
    },
    {
      "inputs": [
        {
          "internalType": "uint256",
          "name": "id",
          "type": "uint256"
        }
      ],
      "name": "fuse_Common_Rare_7",
      "outputs": [],
      "stateMutability": "nonpayable",
      "type": "function"
    },
    {
      "inputs": [
        {
          "internalType": "uint256",
          "name": "id",
          "type": "uint256"
        }
      ],
      "name": "fuse_Common_Rare_8",
      "outputs": [],
      "stateMutability": "nonpayable",
      "type": "function"
    },
    {
      "inputs": [
        {
          "internalType": "uint256",
          "name": "id",
          "type": "uint256"
        }
      ],
      "name": "fuse_Common_Rare_9",
      "outputs": [],
      "stateMutability": "nonpayable",
      "type": "function"
    }
  ],
  "bytecode": "0x6101006040523480156200001257600080fd5b506040516200148038038062001480833981016040819052620000359162000072565b6001600160a01b0390811660805292831660a05290821660c0521660e052620000da565b6001600160a01b03811681146200006f57600080fd5b50565b600080600080608085870312156200008957600080fd5b8451620000968162000059565b6020860151909450620000a98162000059565b6040860151909350620000bc8162000059565b6060860151909250620000cf8162000059565b939692955090935050565b60805160a05160c05160e0516113346200014c600039600081816108ce01526109a80152600081816108a3015261097d01526000818161090601528181610932015281816109e00152610a0c015260008181610a7201528181610ab001528181610be80152610c7001526113346000f3fe608060405234801561001057600080fd5b50600436106100df5760003560e01c80633ba30ff51161008c578063580b9b2011610066578063580b9b201461019d5780636f03d498146101b05780637aba5e93146101c3578063fc8ca1e7146101d657600080fd5b80633ba30ff514610164578063428363ff1461017757806346f08a681461018a57600080fd5b806314e509d3116100bd57806314e509d31461011f57806319b8a8941461013257806331e66e1e1461014557600080fd5b806304861f6a146100e45780630c62034e146100f957806311b0b01f1461010c575b600080fd5b6100f76100f236600461110a565b6101e9565b005b6100f761010736600461112c565b610332565b6100f761011a36600461110a565b610393565b6100f761012d36600461112c565b6104d6565b6100f761014036600461112c565b610534565b61014d610592565b60405161015b929190611145565b60405180910390f35b6100f761017236600461112c565b6105a5565b6100f761018536600461112c565b610603565b6100f761019836600461112c565b610661565b6100f76101ab36600461112c565b6106bf565b6100f76101be36600461112c565b61071d565b6100f76101d136600461112c565b61077b565b6100f76101e436600461112c565b6107d9565b6040805160028082526060820183526000926020830190803683370190505090507f80080008000006200000000105790000000000000000000000250002000000008160008151811061023e5761023e611192565b6020026020010181815250507f80080008000006400000000105790000000000000000000000270002000000008160018151811061027e5761027e611192565b60209081029190910101526040805160028082526060820190925260009181602001602082028036833701905050905083816000815181106102c2576102c2611192565b60200260200101818152505082816001815181106102e2576102e2611192565b60200260200101818152505061032c827f8008000800000bb000000005047a5540c80f00f000000000000800050000000083681043561a8829300000670de0b6b3a7640000610837565b50505050565b6103907f80080008000001100000000105790000000000000000000000130001000000007f800800080000011000000005047a5a60e60d20d200000000000300040000000083681043561a8829300000670de0b6b3a7640000610962565b50565b6040805160028082526060820183526000926020830190803683370190505090507f80080008000005e0000000010579000000000000000000000021000200000000816000815181106103e8576103e8611192565b6020026020010181815250507f80080008000006100000000105790000000000000000000000240002000000008160018151811061042857610428611192565b602090810291909101015260408051600280825260608201909252600091816020016020820280368337019050509050838160008151811061046c5761046c611192565b602002602001018181525050828160018151811061048c5761048c611192565b60200260200101818152505061032c827f8008000800000ba000000005047a5540c80f00f000000000000700050000000083681043561a8829300000670de0b6b3a7640000610837565b6103907f80080008000006200000000105790000000000000000000000250002000000007f800800080000062000000005047a5540c80f00f000000000000500050000000083681043561a8829300000670de0b6b3a7640000610962565b6103907f80080008000000300000000105790000000000000000000000070001000000007f800800080000003000000005047a5a60e60d20d200000000000200040000000083681043561a8829300000670de0b6b3a7640000610962565b36600061059d610a3b565b915091509091565b6103907f80080008000006400000000105790000000000000000000000270002000000007f800800080000064000000005047a5540c80f00f000000000000600050000000083681043561a8829300000670de0b6b3a7640000610962565b6103907f80080008000004500000000105790000000000000000000000080002000000007f800800080000045000000005047a5540c80f00f000000000000100050000000083681043561a8829300000670de0b6b3a7640000610962565b6103907f80080008000006100000000105790000000000000000000000240002000000007f800800080000061000000005047a5540c80f00f000000000000400050000000083681043561a8829300000670de0b6b3a7640000610962565b6103907f80080008000004e00000000105790000000000000000000000110002000000007f80080008000004e000000005047a5540c80f00f000000000000200050000000083681043561a8829300000670de0b6b3a7640000610962565b6103907f80080008000000400000000105790000000000000000000000080001000000007f800800080000004000000005047a5a60e60d20d200000000000500040000000083681043561a8829300000670de0b6b3a7640000610962565b6103907f80080008000005e00000000105790000000000000000000000210002000000007f80080008000005e000000005047a5540c80f00f000000000000300050000000083681043561a8829300000670de0b6b3a7640000610962565b6103907f800800080000018000000001057900000000000000000000001a0001000000007f800800080000018000000005047a5a60e60d20d200000000000400040000000083681043561a8829300000670de0b6b3a7640000610962565b6000610841610ba5565b865190915060005b8181101561089d5761088d86828151811061086657610866611192565b602002602001015189838151811061088057610880611192565b6020026020010151610cec565b610896816111f0565b9050610849565b506108c97f00000000000000000000000000000000000000000000000000000000000000008386610d7f565b6108f47f00000000000000000000000000000000000000000000000000000000000000008385610e5f565b60006108fe610eba565b905061092c817f00000000000000000000000000000000000000000000000000000000000000008589610eee565b610958817f0000000000000000000000000000000000000000000000000000000000000000858a610f78565b5050505050505050565b600061096c610ba5565b90506109788487610cec565b6109a37f00000000000000000000000000000000000000000000000000000000000000008285610d7f565b6109ce7f00000000000000000000000000000000000000000000000000000000000000008284610e5f565b60006109d8610eba565b9050610a06817f00000000000000000000000000000000000000000000000000000000000000008488610ff5565b610a32817f00000000000000000000000000000000000000000000000000000000000000008489610f78565b50505050505050565b36600033321480610a4c5750601836105b15610a5a5750600091369150565b3373ffffffffffffffffffffffffffffffffffffffff7f0000000000000000000000000000000000000000000000000000000000000000161480610b8f575073ffffffffffffffffffffffffffffffffffffffff7f000000000000000000000000000000000000000000000000000000000000000016638929a8ca367fffffffffffffffffffffffffffffffffffffffffffffffffffffffffffffffec013560601c6040517fffffffff0000000000000000000000000000000000000000000000000000000060e084901b16815273ffffffffffffffffffffffffffffffffffffffff9091166004820152336024820152604401602060405180830381865afa158015610b6b573d6000803e3d6000fd5b505050506040513d601f19601f82011682018060405250810190610b8f9190611228565b15610b9c5761059d61105e565b50600091369150565b600033321480610bb55750601836105b15610bbf57503390565b7fffffffffffffffffffffffffffffffffffffffffffffffffffffffffffffffec36013560601c7f000000000000000000000000000000000000000000000000000000000000000073ffffffffffffffffffffffffffffffffffffffff16331480610cdb57506040517f8929a8ca00000000000000000000000000000000000000000000000000000000815273ffffffffffffffffffffffffffffffffffffffff82811660048301523360248301527f00000000000000000000000000000000000000000000000000000000000000001690638929a8ca90604401602060405180830381865afa158015610cb7573d6000803e3d6000fd5b505050506040513d601f19601f82011682018060405250810190610cdb9190611228565b15610ce557919050565b3391505090565b807ffffffff80000fff000000fffffff000000000000000000000fffffff00000000831614610d7b576040517f08c379a000000000000000000000000000000000000000000000000000000000815260206004820152601660248201527f467573696f6e3a2077726f6e6720636172207479706500000000000000000000604482015260640160405180910390fd5b5050565b8273ffffffffffffffffffffffffffffffffffffffff166323b872dd83610dc1610da761108f565b5473ffffffffffffffffffffffffffffffffffffffff1690565b6040517fffffffff0000000000000000000000000000000000000000000000000000000060e085901b16815273ffffffffffffffffffffffffffffffffffffffff928316600482015291166024820152604481018490526064015b6020604051808303816000875af1158015610e3b573d6000803e3d6000fd5b505050506040513d601f19601f8201168201806040525081019061032c9190611228565b6040517f79cc679000000000000000000000000000000000000000000000000000000000815273ffffffffffffffffffffffffffffffffffffffff8381166004830152602482018390528416906379cc679090604401610e1c565b600080610ee860017ffdd1e5f90c72e791d4ca71fbea62cc3e8ef871745290759e9db5336acb7f8bb0611251565b92915050565b60018401546040517ff3993d1100000000000000000000000000000000000000000000000000000000815273ffffffffffffffffffffffffffffffffffffffff8086169263f3993d1192610f4a92879216908690600401611264565b600060405180830381600087803b158015610f6457600080fd5b505af1158015610958573d6000803e3d6000fd5b73ffffffffffffffffffffffffffffffffffffffff83166340c10f1983610f9f87856110bd565b6040517fffffffff0000000000000000000000000000000000000000000000000000000060e085901b16815273ffffffffffffffffffffffffffffffffffffffff90921660048301526024820152604401610f4a565b60018401546040517f23b872dd00000000000000000000000000000000000000000000000000000000815273ffffffffffffffffffffffffffffffffffffffff8481166004830152918216602482015260448101839052908416906323b872dd90606401610f4a565b36600061059d7fffffffffffffffffffffffffffffffffffffffffffffffffffffffffffffffec83018284816112d4565b600080610ee860017f4fb5f8cdfbce77f22b0931a39e9f476a60a0f66524b2f379e96485471eb700ae611251565b7ffffffff80000000000000000ff00000000000000000000000000ffff0000000081166000908152602083905260408120805482906110fb906111f0565b91829055508217905092915050565b6000806040838503121561111d57600080fd5b50508035926020909101359150565b60006020828403121561113e57600080fd5b5035919050565b60208152816020820152818360408301376000818301604090810191909152601f9092017fffffffffffffffffffffffffffffffffffffffffffffffffffffffffffffffe0160101919050565b7f4e487b7100000000000000000000000000000000000000000000000000000000600052603260045260246000fd5b7f4e487b7100000000000000000000000000000000000000000000000000000000600052601160045260246000fd5b60007fffffffffffffffffffffffffffffffffffffffffffffffffffffffffffffffff8203611221576112216111c1565b5060010190565b60006020828403121561123a57600080fd5b8151801515811461124a57600080fd5b9392505050565b81810381811115610ee857610ee86111c1565b60006060820173ffffffffffffffffffffffffffffffffffffffff8087168452602081871681860152606060408601528291508551808452608086019250818701935060005b818110156112c6578451845293820193928201926001016112aa565b509198975050505050505050565b600080858511156112e457600080fd5b838611156112f157600080fd5b505082019391909203915056fea264697066735822122073078ed92f124d77d45e217d32b3d3f5488ee6846b6f55a2d89c9dc4334e3e0a64736f6c63430008110033",
  "linkReferences": {},
  "deployedLinkReferences": {}
}