{
  "_format": "hh-sol-artifact-1",
  "contractName": "ChassisCounters",
  "sourceName": "contracts/token/fusion/ChassisCounters.sol",
  "abi": [
    {
      "inputs": [],
      "stateMutability": "nonpayable",
      "type": "constructor"
    },
    {
      "anonymous": false,
      "inputs": [
        {
          "indexed": true,
          "internalType": "address",
          "name": "account",
          "type": "address"
        }
      ],
      "name": "MinterAdded",
      "type": "event"
    },
    {
      "anonymous": false,
      "inputs": [
        {
          "indexed": true,
          "internalType": "address",
          "name": "account",
          "type": "address"
        }
      ],
      "name": "MinterRemoved",
      "type": "event"
    },
    {
      "anonymous": false,
      "inputs": [
        {
          "indexed": true,
          "internalType": "address",
          "name": "previousOwner",
          "type": "address"
        },
        {
          "indexed": true,
          "internalType": "address",
          "name": "newOwner",
          "type": "address"
        }
      ],
      "name": "OwnershipTransferred",
      "type": "event"
    },
    {
      "inputs": [
        {
          "internalType": "address",
          "name": "account",
          "type": "address"
        }
      ],
      "name": "addMinter",
      "outputs": [],
      "stateMutability": "nonpayable",
      "type": "function"
    },
    {
      "inputs": [
        {
          "internalType": "uint256",
          "name": "",
          "type": "uint256"
        }
      ],
      "name": "counters",
      "outputs": [
        {
          "internalType": "uint256",
          "name": "",
          "type": "uint256"
        }
      ],
      "stateMutability": "view",
      "type": "function"
    },
    {
      "inputs": [
        {
          "internalType": "uint256",
          "name": "tokenType",
          "type": "uint256"
        }
      ],
      "name": "incrementCounter",
      "outputs": [
        {
          "internalType": "uint256",
          "name": "",
          "type": "uint256"
        }
      ],
      "stateMutability": "nonpayable",
      "type": "function"
    },
    {
      "inputs": [
        {
          "internalType": "address",
          "name": "",
          "type": "address"
        }
      ],
      "name": "isMinter",
      "outputs": [
        {
          "internalType": "bool",
          "name": "",
          "type": "bool"
        }
      ],
      "stateMutability": "view",
      "type": "function"
    },
    {
      "inputs": [],
      "name": "owner",
      "outputs": [
        {
          "internalType": "address",
          "name": "",
          "type": "address"
        }
      ],
      "stateMutability": "view",
      "type": "function"
    },
    {
      "inputs": [
        {
          "internalType": "address[]",
          "name": "accounts",
          "type": "address[]"
        },
        {
          "internalType": "address[]",
          "name": "tokens",
          "type": "address[]"
        },
        {
          "internalType": "uint256[]",
          "name": "amounts",
          "type": "uint256[]"
        }
      ],
      "name": "recoverERC20s",
      "outputs": [],
      "stateMutability": "nonpayable",
      "type": "function"
    },
    {
      "inputs": [
        {
          "internalType": "address[]",
          "name": "accounts",
          "type": "address[]"
        },
        {
          "internalType": "address[]",
          "name": "contracts",
          "type": "address[]"
        },
        {
          "internalType": "uint256[]",
          "name": "tokenIds",
          "type": "uint256[]"
        }
      ],
      "name": "recoverERC721s",
      "outputs": [],
      "stateMutability": "nonpayable",
      "type": "function"
    },
    {
      "inputs": [],
      "name": "renounceMinter",
      "outputs": [],
      "stateMutability": "nonpayable",
      "type": "function"
    },
    {
      "inputs": [
        {
          "internalType": "address",
          "name": "newOwner",
          "type": "address"
        }
      ],
      "name": "transferOwnership",
      "outputs": [],
      "stateMutability": "nonpayable",
      "type": "function"
    }
  ],
  "bytecode": "0x608060405234801561001057600080fd5b50600080546001600160a01b031916339081178255604051909182918291907f8be0079c531659141344cd1fd0a4f28419497f9722a3daafe3b4186f6b6457e0908290a35061005e81610064565b506100b3565b6001600160a01b0381166000818152600160208190526040808320805460ff1916909217909155517f6ae172837ea30b801fbfcdd4108aa1d5bf8ff775444fd70256b44e6bf3dfc3f69190a250565b610b99806100c26000396000f3fe608060405234801561001057600080fd5b50600436106100a35760003560e01c80639865027511610076578063c3666c361161005b578063c3666c3614610279578063f2fde38b1461038d578063fba7ffa3146103b3576100a3565b80639865027514610237578063aa271e1a1461023f576100a3565b80636abbb3b4146100a857806373c8a958146100d75780638da5cb5b146101ed578063983b2d5614610211575b600080fd5b6100c5600480360360208110156100be57600080fd5b50356103d0565b60408051918252519081900360200190f35b6101eb600480360360608110156100ed57600080fd5b81019060208101813564010000000081111561010857600080fd5b82018360208201111561011a57600080fd5b8035906020019184602083028401116401000000008311171561013c57600080fd5b91939092909160208101903564010000000081111561015a57600080fd5b82018360208201111561016c57600080fd5b8035906020019184602083028401116401000000008311171561018e57600080fd5b9193909290916020810190356401000000008111156101ac57600080fd5b8201836020820111156101be57600080fd5b803590602001918460208302840111640100000000831117156101e057600080fd5b5090925090506103f6565b005b6101f56104e8565b604080516001600160a01b039092168252519081900360200190f35b6101eb6004803603602081101561022757600080fd5b50356001600160a01b03166104f7565b6101eb61050e565b6102656004803603602081101561025557600080fd5b50356001600160a01b031661056c565b604080519115158252519081900360200190f35b6101eb6004803603606081101561028f57600080fd5b8101906020810181356401000000008111156102aa57600080fd5b8201836020820111156102bc57600080fd5b803590602001918460208302840111640100000000831117156102de57600080fd5b9193909290916020810190356401000000008111156102fc57600080fd5b82018360208201111561030e57600080fd5b8035906020019184602083028401116401000000008311171561033057600080fd5b91939092909160208101903564010000000081111561034e57600080fd5b82018360208201111561036057600080fd5b8035906020019184602083028401116401000000008311171561038257600080fd5b509092509050610581565b6101eb600480360360208110156103a357600080fd5b50356001600160a01b03166106c9565b6100c5600480360360208110156103c957600080fd5b503561073a565b60006103db3361074c565b50600090815260026020526040902080546001019081905590565b6104066104016107b9565b6107bd565b84838114801561041557508082145b610466576040805162461bcd60e51b815260206004820152601a60248201527f5265636f763a20696e636f6e73697374656e7420617272617973000000000000604482015290519081900360640190fd5b60005b8181146104de576104d688888381811061047f57fe5b905060200201356001600160a01b031685858481811061049b57fe5b905060200201358888858181106104ae57fe5b905060200201356001600160a01b03166001600160a01b03166108819092919063ffffffff16565b600101610469565b5050505050505050565b6000546001600160a01b031690565b6105026104016107b9565b61050b81610906565b50565b60006105186107b9565b90506105238161074c565b6001600160a01b038116600081815260016020526040808220805460ff19169055517fe94479a9f7e1952cc78f2d6baab678adc1b772d936c6583def489e524cb666929190a250565b60016020526000908152604090205460ff1681565b61058c6104016107b9565b84838114801561059b57508082145b6105ec576040805162461bcd60e51b815260206004820152601a60248201527f5265636f763a20696e636f6e73697374656e7420617272617973000000000000604482015290519081900360640190fd5b60005b8181146104de5785858281811061060257fe5b905060200201356001600160a01b03166001600160a01b03166323b872dd308a8a8581811061062d57fe5b905060200201356001600160a01b031687878681811061064957fe5b905060200201356040518463ffffffff1660e01b815260040180846001600160a01b03168152602001836001600160a01b031681526020018281526020019350505050600060405180830381600087803b1580156106a657600080fd5b505af11580156106ba573d6000803e3d6000fd5b505050508060010190506105ef565b6106d46104016107b9565b600080547fffffffffffffffffffffffff0000000000000000000000000000000000000000166001600160a01b0383811691821780845560405192939116917f8be0079c531659141344cd1fd0a4f28419497f9722a3daafe3b4186f6b6457e09190a350565b60026020526000908152604090205481565b6001600160a01b03811660009081526001602052604090205460ff1661050b576040805162461bcd60e51b815260206004820152601860248201527f4d696e746572526f6c653a206e6f742061204d696e7465720000000000000000604482015290519081900360640190fd5b3390565b306001600160a01b0316638da5cb5b6040518163ffffffff1660e01b815260040160206040518083038186803b1580156107f657600080fd5b505afa15801561080a573d6000803e3d6000fd5b505050506040513d602081101561082057600080fd5b50516001600160a01b0382811691161461050b576040805162461bcd60e51b815260206004820152601660248201527f4f776e61626c653a206e6f7420746865206f776e657200000000000000000000604482015290519081900360640190fd5b604080516001600160a01b038416602482015260448082018490528251808303909101815260649091019091526020810180517bffffffffffffffffffffffffffffffffffffffffffffffffffffffff167fa9059cbb00000000000000000000000000000000000000000000000000000000179052610901908490610955565b505050565b6001600160a01b0381166000818152600160208190526040808320805460ff1916909217909155517f6ae172837ea30b801fbfcdd4108aa1d5bf8ff775444fd70256b44e6bf3dfc3f69190a250565b816109686001600160a01b038216610b5d565b6109b9576040805162461bcd60e51b815260206004820152601a60248201527f4552433230577261707065723a206e6f6e2d636f6e7472616374000000000000604482015290519081900360640190fd5b600080826001600160a01b0316846040518082805190602001908083835b60208310610a1457805182527fffffffffffffffffffffffffffffffffffffffffffffffffffffffffffffffe090920191602091820191016109d7565b6001836020036101000a0380198251168184511680821785525050505050509050019150506000604051808303816000865af19150503d8060008114610a76576040519150601f19603f3d011682016040523d82523d6000602084013e610a7b565b606091505b50915091508115610afa57805115610af557808060200190516020811015610aa257600080fd5b5051610af5576040805162461bcd60e51b815260206004820152601e60248201527f4552433230577261707065723a206f7065726174696f6e206661696c65640000604482015290519081900360640190fd5b610b56565b8051610b4d576040805162461bcd60e51b815260206004820152601e60248201527f4552433230577261707065723a206f7065726174696f6e206661696c65640000604482015290519081900360640190fd5b80518082602001fd5b5050505050565b3b15159056fea26469706673582212209ad575dd1c1b8b03cba1e4d9a9f26fb66b8d6fb5789c49dc18c45ff4aa769f3564736f6c63430007060033",
  "linkReferences": {},
  "deployedLinkReferences": {}
}