{
  "_format": "hh-sol-artifact-1",
  "contractName": "REVVRacingCatalystBuilder",
  "sourceName": "contracts/token/utils/CatalystBuilder.sol",
  "abi": [
    {
      "inputs": [
        {
          "internalType": "contract IERC20Burnable",
          "name": "shards_",
          "type": "address"
        },
        {
          "internalType": "contract IERC20Mintable",
          "name": "catalysts_",
          "type": "address"
        }
      ],
      "stateMutability": "nonpayable",
      "type": "constructor"
    },
    {
      "anonymous": false,
      "inputs": [
        {
          "indexed": false,
          "internalType": "uint256",
          "name": "conversionRate",
          "type": "uint256"
        }
      ],
      "name": "ConversionRateUpdated",
      "type": "event"
    },
    {
      "anonymous": false,
      "inputs": [
        {
          "indexed": true,
          "internalType": "address",
          "name": "previousOwner",
          "type": "address"
        },
        {
          "indexed": true,
          "internalType": "address",
          "name": "newOwner",
          "type": "address"
        }
      ],
      "name": "OwnershipTransferred",
      "type": "event"
    },
    {
      "anonymous": false,
      "inputs": [
        {
          "indexed": false,
          "internalType": "bytes32",
          "name": "role",
          "type": "bytes32"
        },
        {
          "indexed": false,
          "internalType": "address",
          "name": "account",
          "type": "address"
        },
        {
          "indexed": false,
          "internalType": "address",
          "name": "operator",
          "type": "address"
        }
      ],
      "name": "RoleGranted",
      "type": "event"
    },
    {
      "anonymous": false,
      "inputs": [
        {
          "indexed": false,
          "internalType": "bytes32",
          "name": "role",
          "type": "bytes32"
        },
        {
          "indexed": false,
          "internalType": "address",
          "name": "account",
          "type": "address"
        },
        {
          "indexed": false,
          "internalType": "address",
          "name": "operator",
          "type": "address"
        }
      ],
      "name": "RoleRevoked",
      "type": "event"
    },
    {
      "inputs": [],
      "name": "RATE_MANAGER_ROLE",
      "outputs": [
        {
          "internalType": "bytes32",
          "name": "",
          "type": "bytes32"
        }
      ],
      "stateMutability": "view",
      "type": "function"
    },
    {
      "inputs": [],
      "name": "catalysts",
      "outputs": [
        {
          "internalType": "contract IERC20Mintable",
          "name": "",
          "type": "address"
        }
      ],
      "stateMutability": "view",
      "type": "function"
    },
    {
      "inputs": [],
      "name": "conversionRate",
      "outputs": [
        {
          "internalType": "uint256",
          "name": "",
          "type": "uint256"
        }
      ],
      "stateMutability": "view",
      "type": "function"
    },
    {
      "inputs": [
        {
          "internalType": "bytes32",
          "name": "role",
          "type": "bytes32"
        },
        {
          "internalType": "address",
          "name": "account",
          "type": "address"
        }
      ],
      "name": "grantRole",
      "outputs": [],
      "stateMutability": "nonpayable",
      "type": "function"
    },
    {
      "inputs": [
        {
          "internalType": "bytes32",
          "name": "role",
          "type": "bytes32"
        },
        {
          "internalType": "address",
          "name": "account",
          "type": "address"
        }
      ],
      "name": "hasRole",
      "outputs": [
        {
          "internalType": "bool",
          "name": "",
          "type": "bool"
        }
      ],
      "stateMutability": "view",
      "type": "function"
    },
    {
      "inputs": [
        {
          "internalType": "address",
          "name": "",
          "type": "address"
        },
        {
          "internalType": "address",
          "name": "from",
          "type": "address"
        },
        {
          "internalType": "uint256",
          "name": "value",
          "type": "uint256"
        },
        {
          "internalType": "bytes",
          "name": "",
          "type": "bytes"
        }
      ],
      "name": "onERC20Received",
      "outputs": [
        {
          "internalType": "bytes4",
          "name": "",
          "type": "bytes4"
        }
      ],
      "stateMutability": "nonpayable",
      "type": "function"
    },
    {
      "inputs": [],
      "name": "owner",
      "outputs": [
        {
          "internalType": "address",
          "name": "",
          "type": "address"
        }
      ],
      "stateMutability": "view",
      "type": "function"
    },
    {
      "inputs": [
        {
          "internalType": "address[]",
          "name": "accounts",
          "type": "address[]"
        },
        {
          "internalType": "address[]",
          "name": "tokens",
          "type": "address[]"
        },
        {
          "internalType": "uint256[]",
          "name": "amounts",
          "type": "uint256[]"
        }
      ],
      "name": "recoverERC20s",
      "outputs": [],
      "stateMutability": "nonpayable",
      "type": "function"
    },
    {
      "inputs": [
        {
          "internalType": "address[]",
          "name": "accounts",
          "type": "address[]"
        },
        {
          "internalType": "address[]",
          "name": "contracts",
          "type": "address[]"
        },
        {
          "internalType": "uint256[]",
          "name": "tokenIds",
          "type": "uint256[]"
        }
      ],
      "name": "recoverERC721s",
      "outputs": [],
      "stateMutability": "nonpayable",
      "type": "function"
    },
    {
      "inputs": [
        {
          "internalType": "bytes32",
          "name": "role",
          "type": "bytes32"
        }
      ],
      "name": "renounceRole",
      "outputs": [],
      "stateMutability": "nonpayable",
      "type": "function"
    },
    {
      "inputs": [
        {
          "internalType": "bytes32",
          "name": "role",
          "type": "bytes32"
        },
        {
          "internalType": "address",
          "name": "account",
          "type": "address"
        }
      ],
      "name": "revokeRole",
      "outputs": [],
      "stateMutability": "nonpayable",
      "type": "function"
    },
    {
      "inputs": [
        {
          "internalType": "uint256",
          "name": "conversionRate_",
          "type": "uint256"
        }
      ],
      "name": "setConversionRate",
      "outputs": [],
      "stateMutability": "nonpayable",
      "type": "function"
    },
    {
      "inputs": [],
      "name": "shards",
      "outputs": [
        {
          "internalType": "contract IERC20Burnable",
          "name": "",
          "type": "address"
        }
      ],
      "stateMutability": "view",
      "type": "function"
    },
    {
      "inputs": [
        {
          "internalType": "bytes4",
          "name": "interfaceId",
          "type": "bytes4"
        }
      ],
      "name": "supportsInterface",
      "outputs": [
        {
          "internalType": "bool",
          "name": "",
          "type": "bool"
        }
      ],
      "stateMutability": "view",
      "type": "function"
    },
    {
      "inputs": [
        {
          "internalType": "address",
          "name": "newOwner",
          "type": "address"
        }
      ],
      "name": "transferOwnership",
      "outputs": [],
      "stateMutability": "nonpayable",
      "type": "function"
    }
  ],
  "bytecode": "0x60c06040523480156200001157600080fd5b5060405162002083380380620020838339810160408190526200003491620003b1565b336200005f6200004e6200011460201b620009f21760201c565b6200014a60201b62000a201760201c565b62000097634fc3585960e01b6001620000826200011460201b620009f21760201c565b620001b860201b62000a7d179092919060201c565b620000c581620000b16200024660201b62000b6d1760201c565b6200027660201b62000b9b1790919060201c565b506001600160a01b03828116608052811660a052604051600081527eb22dee8d85ff5215d4c68cdb3f5864f9e51f23b5c76363187afaacab3906e79060200160405180910390a1505062000416565b6000806200014460017fca9d3e17f264b0f3984e2634e94adb37fa3e6a8103f06aeae6fa59e21c769f5e620003f0565b92915050565b620001916200017b60017f0d3428378c86c503fd28ad8ca6ada1714405b0214c2235cfa78ae4407ebdd416620003f0565b60001b60016200032560201b62000c8a1760201c565b620001b56301ffc9a760e01b600183620001b860201b62000a7d179092919060201c565b50565b6001600160e01b03198083169003620002185760405162461bcd60e51b815260206004820152601f60248201527f496e74657266616365446574656374696f6e3a2077726f6e672076616c75650060448201526064015b60405180910390fd5b6001600160e01b03199190911660009081526020929092526040909120805460ff1916911515919091179055565b6000806200014460017fbbb5d9542f7a98b323b5aeba2ecddfa10d73251c23dd96dda0031c8675c64b98620003f0565b620002a76200017b60017fd634006372253bb6f81402c0189d7165d8af35aaaf996a72e7102954b6c3bfbd620003f0565b6001600160a01b03811615620002fe5781546001600160a01b0319166001600160a01b03821690811783556040516000907f8be0079c531659141344cd1fd0a4f28419497f9722a3daafe3b4186f6b6457e0908290a35b620003216307f5828d60e41b6001620000826200011460201b620009f21760201c565b5050565b60006200033d836200039860201b62000cfa1760201c565b905081816000015410620003945760405162461bcd60e51b815260206004820152601860248201527f53746f726167653a2076657273696f6e2072656163686564000000000000000060448201526064016200020f565b5550565b90565b6001600160a01b0381168114620001b557600080fd5b60008060408385031215620003c557600080fd5b8251620003d2816200039b565b6020840151909250620003e5816200039b565b809150509250929050565b6000828210156200041157634e487b7160e01b600052601160045260246000fd5b500390565b60805160a051611c32620004516000396000818161025e01526105110152600081816101800152818161034e01526104770152611c326000f3fe608060405234801561001057600080fd5b50600436106100f55760003560e01c80638da5cb5b11610097578063d0e5467211610066578063d0e5467214610259578063d2e8049414610280578063d547741f14610293578063f2fde38b146102a657600080fd5b80638da5cb5b1461020457806391d148541461020c578063c3666c361461021f578063cb327b8b1461023257600080fd5b80636d53ae1e116100d35780636d53ae1e1461017b57806373c8a958146101c75780637ffdf53e146101da5780638bb9c5bf146101f157600080fd5b806301ffc9a7146100fa5780632f2ff15d146101225780634fc3585914610137575b600080fd5b61010d6101083660046116a3565b6102b9565b60405190151581526020015b60405180910390f35b61013561013036600461170e565b610306565b005b61014a610145366004611769565b610334565b6040517fffffffff000000000000000000000000000000000000000000000000000000009091168152602001610119565b6101a27f000000000000000000000000000000000000000000000000000000000000000081565b60405173ffffffffffffffffffffffffffffffffffffffff9091168152602001610119565b6101356101d53660046118af565b6105ef565b6101e360005481565b604051908152602001610119565b6101356101ff366004611949565b61071c565b6101a2610733565b61010d61021a36600461170e565b610759565b61013561022d3660046118af565b6107a4565b6101e37f524154455f4d414e41474552000000000000000000000000000000000000000081565b6101a27f000000000000000000000000000000000000000000000000000000000000000081565b61013561028e366004611949565b61094d565b6101356102a136600461170e565b6109bb565b6101356102b4366004611962565b6109de565b6000610300826102c76109f2565b907fffffffff00000000000000000000000000000000000000000000000000000000166000908152602091909152604090205460ff1690565b92915050565b3361031981610313610b6d565b90610cfd565b61032f838383610327610d80565b929190610dae565b505050565b60003373ffffffffffffffffffffffffffffffffffffffff7f000000000000000000000000000000000000000000000000000000000000000016146103da576040517f08c379a000000000000000000000000000000000000000000000000000000000815260206004820152601d60248201527f436174616c7973744275696c6465723a2077726f6e672073656e64657200000060448201526064015b60405180910390fd5b6000805490819003610448576040517f08c379a000000000000000000000000000000000000000000000000000000000815260206004820152601d60248201527f436174616c7973744275696c6465723a2072617465206e6f742073657400000060448201526064016103d1565b6040517f42966c68000000000000000000000000000000000000000000000000000000008152600481018590527f000000000000000000000000000000000000000000000000000000000000000073ffffffffffffffffffffffffffffffffffffffff16906342966c68906024016020604051808303816000875af11580156104d5573d6000803e3d6000fd5b505050506040513d601f19601f820116820180604052508101906104f9919061197d565b5073ffffffffffffffffffffffffffffffffffffffff7f0000000000000000000000000000000000000000000000000000000000000000166340c10f198661054184886119ce565b6040517fffffffff0000000000000000000000000000000000000000000000000000000060e085901b16815273ffffffffffffffffffffffffffffffffffffffff90921660048301526024820152604401600060405180830381600087803b1580156105ac57600080fd5b505af11580156105c0573d6000803e3d6000fd5b507f4fc35859000000000000000000000000000000000000000000000000000000009998505050505050505050565b6105fc335b610313610b6d565b84838114801561060b57508082145b610671576040517f08c379a000000000000000000000000000000000000000000000000000000000815260206004820152601d60248201527f5265636f766572793a20696e636f6e73697374656e742061727261797300000060448201526064016103d1565b60005b8181146107125761070288888381811061069057610690611a09565b90506020020160208101906106a59190611962565b8585848181106106b7576106b7611a09565b905060200201358888858181106106d0576106d0611a09565b90506020020160208101906106e59190611962565b73ffffffffffffffffffffffffffffffffffffffff169190610e85565b61070b81611a38565b9050610674565b5050505050505050565b6107303382610729610d80565b9190610f12565b50565b600061073d610b6d565b5473ffffffffffffffffffffffffffffffffffffffff16919050565b600061079d8383610768610d80565b60009283526020908152604080842073ffffffffffffffffffffffffffffffffffffffff909316845291905290205460ff1690565b9392505050565b6107ad336105f4565b8483811480156107bc57508082145b610822576040517f08c379a000000000000000000000000000000000000000000000000000000000815260206004820152601d60248201527f5265636f766572793a20696e636f6e73697374656e742061727261797300000060448201526064016103d1565b60005b8181146107125785858281811061083e5761083e611a09565b90506020020160208101906108539190611962565b73ffffffffffffffffffffffffffffffffffffffff166323b872dd308a8a8581811061088157610881611a09565b90506020020160208101906108969190611962565b8787868181106108a8576108a8611a09565b6040517fffffffff0000000000000000000000000000000000000000000000000000000060e088901b16815273ffffffffffffffffffffffffffffffffffffffff958616600482015294909316602485015250602090910201356044820152606401600060405180830381600087803b15801561092457600080fd5b505af1158015610938573d6000803e3d6000fd5b505050508061094690611a38565b9050610825565b6109817f524154455f4d414e4147455200000000000000000000000000000000000000003361097a610d80565b9190610fb6565b60008190556040518181527eb22dee8d85ff5215d4c68cdb3f5864f9e51f23b5c76363187afaacab3906e79060200160405180910390a150565b336109c881610313610b6d565b61032f8383836109d6610d80565b929190611062565b61073033826109eb610b6d565b919061112c565b60008061030060017fca9d3e17f264b0f3984e2634e94adb37fa3e6a8103f06aeae6fa59e21c769f5e611a70565b610a55610a4e60017f0d3428378c86c503fd28ad8ca6ada1714405b0214c2235cfa78ae4407ebdd416611a70565b6001610c8a565b610730817f01ffc9a70000000000000000000000000000000000000000000000000000000060015b7fffffffff000000000000000000000000000000000000000000000000000000008083169003610b09576040517f08c379a000000000000000000000000000000000000000000000000000000000815260206004820152601f60248201527f496e74657266616365446574656374696f6e3a2077726f6e672076616c75650060448201526064016103d1565b7fffffffff00000000000000000000000000000000000000000000000000000000919091166000908152602092909252604090912080547fffffffffffffffffffffffffffffffffffffffffffffffffffffffffffffff0016911515919091179055565b60008061030060017fbbb5d9542f7a98b323b5aeba2ecddfa10d73251c23dd96dda0031c8675c64b98611a70565b610bc9610a4e60017fd634006372253bb6f81402c0189d7165d8af35aaaf996a72e7102954b6c3bfbd611a70565b73ffffffffffffffffffffffffffffffffffffffff811615610c515781547fffffffffffffffffffffffff00000000000000000000000000000000000000001673ffffffffffffffffffffffffffffffffffffffff821690811783556040516000907f8be0079c531659141344cd1fd0a4f28419497f9722a3daafe3b4186f6b6457e0908290a35b610c867f7f5828d0000000000000000000000000000000000000000000000000000000006001610c7f6109f2565b9190610a7d565b5050565b815482908211610cf6576040517f08c379a000000000000000000000000000000000000000000000000000000000815260206004820152601860248201527f53746f726167653a2076657273696f6e2072656163686564000000000000000060448201526064016103d1565b5550565b90565b815473ffffffffffffffffffffffffffffffffffffffff828116911614610c86576040517f08c379a000000000000000000000000000000000000000000000000000000000815260206004820152601860248201527f4f776e6572736869703a206e6f7420746865206f776e6572000000000000000060448201526064016103d1565b60008061030060017fc8827d3282af6f37b64c3e9e6f3ac9df286ab0bb0fccd6f8661bf19adb368b23611a70565b60008381526020858152604080832073ffffffffffffffffffffffffffffffffffffffff8616845290915290205460ff16610e7f5760008381526020858152604080832073ffffffffffffffffffffffffffffffffffffffff8681168086529184529382902080547fffffffffffffffffffffffffffffffffffffffffffffffffffffffffffffff00166001179055815187815292830152918316918101919091527f2f8788117e7eff1d82e926ec794901d17c78024a50270940304540a733656f0d906060015b60405180910390a15b50505050565b6040805173ffffffffffffffffffffffffffffffffffffffff8416602482015260448082018490528251808303909101815260649091019091526020810180517bffffffffffffffffffffffffffffffffffffffffffffffffffffffff167fa9059cbb0000000000000000000000000000000000000000000000000000000017905261032f908490611258565b610f1d838284610fb6565b60008181526020848152604080832073ffffffffffffffffffffffffffffffffffffffff86168085529083529281902080547fffffffffffffffffffffffffffffffffffffffffffffffffffffffffffffff0016905580518481529182018390528101919091527ff6391f5c32d9c69d2a47ea670b442974b53935d1edc7fd64eb21e047a839171b9060600160405180910390a1505050565b60008281526020848152604080832073ffffffffffffffffffffffffffffffffffffffff8516845290915290205460ff1661032f57610ff482611319565b6040516020016110049190611ab3565b604080517fffffffffffffffffffffffffffffffffffffffffffffffffffffffffffffffe0818403018152908290527f08c379a00000000000000000000000000000000000000000000000000000000082526103d191600401611b1f565b60008381526020858152604080832073ffffffffffffffffffffffffffffffffffffffff8616845290915290205460ff1615610e7f5760008381526020858152604080832073ffffffffffffffffffffffffffffffffffffffff8681168086529184529382902080547fffffffffffffffffffffffffffffffffffffffffffffffffffffffffffffff00169055815187815292830152918316918101919091527ff6391f5c32d9c69d2a47ea670b442974b53935d1edc7fd64eb21e047a839171b90606001610e76565b825473ffffffffffffffffffffffffffffffffffffffff90811690831681146111b1576040517f08c379a000000000000000000000000000000000000000000000000000000000815260206004820152601860248201527f4f776e6572736869703a206e6f7420746865206f776e6572000000000000000060448201526064016103d1565b8173ffffffffffffffffffffffffffffffffffffffff168173ffffffffffffffffffffffffffffffffffffffff1614610e7f5783547fffffffffffffffffffffffff00000000000000000000000000000000000000001673ffffffffffffffffffffffffffffffffffffffff8381169182178655604051908316907f8be0079c531659141344cd1fd0a4f28419497f9722a3daafe3b4186f6b6457e090600090a350505050565b600061129582604051806060016040528060238152602001611bda6023913973ffffffffffffffffffffffffffffffffffffffff861691906114a3565b80519091501561032f57808060200190518101906112b3919061197d565b61032f576040517f08c379a000000000000000000000000000000000000000000000000000000000815260206004820152601e60248201527f4552433230577261707065723a206f7065726174696f6e206661696c6564000060448201526064016103d1565b6060600082900361133857505060408051602081019091526000815290565b60008260405160200161134d91815260200190565b604080517fffffffffffffffffffffffffffffffffffffffffffffffffffffffffffffffe08184030181529190529050601f5b81818151811061139257611392611a09565b01602001517fff00000000000000000000000000000000000000000000000000000000000000166000036113d0576113c981611b70565b9050611380565b60006113dd826001611ba5565b67ffffffffffffffff8111156113f5576113f561173a565b6040519080825280601f01601f19166020018201604052801561141f576020820181803683370190505b50905060005b82811161149a5783818151811061143e5761143e611a09565b602001015160f81c60f81b82828151811061145b5761145b611a09565b60200101907effffffffffffffffffffffffffffffffffffffffffffffffffffffffffffff1916908160001a90535061149381611a38565b9050611425565b50949350505050565b60606114b284846000856114ba565b949350505050565b60608247101561154c576040517f08c379a000000000000000000000000000000000000000000000000000000000815260206004820152602660248201527f416464726573733a20696e73756666696369656e742062616c616e636520666f60448201527f722063616c6c000000000000000000000000000000000000000000000000000060648201526084016103d1565b73ffffffffffffffffffffffffffffffffffffffff85163b6115ca576040517f08c379a000000000000000000000000000000000000000000000000000000000815260206004820152601d60248201527f416464726573733a2063616c6c20746f206e6f6e2d636f6e747261637400000060448201526064016103d1565b6000808673ffffffffffffffffffffffffffffffffffffffff1685876040516115f39190611bbd565b60006040518083038185875af1925050503d8060008114611630576040519150601f19603f3d011682016040523d82523d6000602084013e611635565b606091505b5091509150611645828286611650565b979650505050505050565b6060831561165f57508161079d565b82511561166f5782518084602001fd5b816040517f08c379a00000000000000000000000000000000000000000000000000000000081526004016103d19190611b1f565b6000602082840312156116b557600080fd5b81357fffffffff000000000000000000000000000000000000000000000000000000008116811461079d57600080fd5b803573ffffffffffffffffffffffffffffffffffffffff8116811461170957600080fd5b919050565b6000806040838503121561172157600080fd5b82359150611731602084016116e5565b90509250929050565b7f4e487b7100000000000000000000000000000000000000000000000000000000600052604160045260246000fd5b6000806000806080858703121561177f57600080fd5b611788856116e5565b9350611796602086016116e5565b925060408501359150606085013567ffffffffffffffff808211156117ba57600080fd5b818701915087601f8301126117ce57600080fd5b8135818111156117e0576117e061173a565b604051601f82017fffffffffffffffffffffffffffffffffffffffffffffffffffffffffffffffe0908116603f011681019083821181831017156118265761182661173a565b816040528281528a602084870101111561183f57600080fd5b82602086016020830137600060208483010152809550505050505092959194509250565b60008083601f84011261187557600080fd5b50813567ffffffffffffffff81111561188d57600080fd5b6020830191508360208260051b85010111156118a857600080fd5b9250929050565b600080600080600080606087890312156118c857600080fd5b863567ffffffffffffffff808211156118e057600080fd5b6118ec8a838b01611863565b9098509650602089013591508082111561190557600080fd5b6119118a838b01611863565b9096509450604089013591508082111561192a57600080fd5b5061193789828a01611863565b979a9699509497509295939492505050565b60006020828403121561195b57600080fd5b5035919050565b60006020828403121561197457600080fd5b61079d826116e5565b60006020828403121561198f57600080fd5b8151801515811461079d57600080fd5b7f4e487b7100000000000000000000000000000000000000000000000000000000600052601160045260246000fd5b600082611a04577f4e487b7100000000000000000000000000000000000000000000000000000000600052601260045260246000fd5b500490565b7f4e487b7100000000000000000000000000000000000000000000000000000000600052603260045260246000fd5b60007fffffffffffffffffffffffffffffffffffffffffffffffffffffffffffffffff8203611a6957611a6961199f565b5060010190565b600082821015611a8257611a8261199f565b500390565b60005b83811015611aa2578181015183820152602001611a8a565b83811115610e7f5750506000910152565b7f416363657373436f6e74726f6c3a206d697373696e6720270000000000000000815260008251611aeb816018850160208701611a87565b7f2720726f6c6500000000000000000000000000000000000000000000000000006018939091019283015250601e01919050565b6020815260008251806020840152611b3e816040850160208701611a87565b601f017fffffffffffffffffffffffffffffffffffffffffffffffffffffffffffffffe0169190910160400192915050565b600081611b7f57611b7f61199f565b507fffffffffffffffffffffffffffffffffffffffffffffffffffffffffffffffff0190565b60008219821115611bb857611bb861199f565b500190565b60008251611bcf818460208701611a87565b919091019291505056fe4552433230577261707065723a206c6f772d6c6576656c2063616c6c206661696c6564a264697066735822122087f6e97672df4d443a4ff7c40b186045d383a6eeaf00bf7435753dd7c516d23d64736f6c634300080e0033",
  "linkReferences": {},
  "deployedLinkReferences": {}
}