{
  "_format": "hh-sol-artifact-1",
  "contractName": "REVVRacingCatalystBuilder",
  "sourceName": "contracts/token/utils/CatalystBuilder.sol",
  "abi": [
    {
      "inputs": [
        {
          "internalType": "contract IERC20Burnable",
          "name": "shards_",
          "type": "address"
        },
        {
          "internalType": "contract IERC20Mintable",
          "name": "catalysts_",
          "type": "address"
        }
      ],
      "stateMutability": "nonpayable",
      "type": "constructor"
    },
    {
      "anonymous": false,
      "inputs": [
        {
          "indexed": false,
          "internalType": "uint256",
          "name": "conversionRate",
          "type": "uint256"
        }
      ],
      "name": "ConversionRateUpdated",
      "type": "event"
    },
    {
      "anonymous": false,
      "inputs": [
        {
          "indexed": true,
          "internalType": "address",
          "name": "previousOwner",
          "type": "address"
        },
        {
          "indexed": true,
          "internalType": "address",
          "name": "newOwner",
          "type": "address"
        }
      ],
      "name": "OwnershipTransferred",
      "type": "event"
    },
    {
      "anonymous": false,
      "inputs": [
        {
          "indexed": false,
          "internalType": "bytes32",
          "name": "role",
          "type": "bytes32"
        },
        {
          "indexed": false,
          "internalType": "address",
          "name": "account",
          "type": "address"
        },
        {
          "indexed": false,
          "internalType": "address",
          "name": "operator",
          "type": "address"
        }
      ],
      "name": "RoleGranted",
      "type": "event"
    },
    {
      "anonymous": false,
      "inputs": [
        {
          "indexed": false,
          "internalType": "bytes32",
          "name": "role",
          "type": "bytes32"
        },
        {
          "indexed": false,
          "internalType": "address",
          "name": "account",
          "type": "address"
        },
        {
          "indexed": false,
          "internalType": "address",
          "name": "operator",
          "type": "address"
        }
      ],
      "name": "RoleRevoked",
      "type": "event"
    },
    {
      "inputs": [],
      "name": "RATE_MANAGER_ROLE",
      "outputs": [
        {
          "internalType": "bytes32",
          "name": "",
          "type": "bytes32"
        }
      ],
      "stateMutability": "view",
      "type": "function"
    },
    {
      "inputs": [],
      "name": "catalysts",
      "outputs": [
        {
          "internalType": "contract IERC20Mintable",
          "name": "",
          "type": "address"
        }
      ],
      "stateMutability": "view",
      "type": "function"
    },
    {
      "inputs": [],
      "name": "conversionRate",
      "outputs": [
        {
          "internalType": "uint256",
          "name": "",
          "type": "uint256"
        }
      ],
      "stateMutability": "view",
      "type": "function"
    },
    {
      "inputs": [
        {
          "internalType": "bytes32",
          "name": "role",
          "type": "bytes32"
        },
        {
          "internalType": "address",
          "name": "account",
          "type": "address"
        }
      ],
      "name": "grantRole",
      "outputs": [],
      "stateMutability": "nonpayable",
      "type": "function"
    },
    {
      "inputs": [
        {
          "internalType": "bytes32",
          "name": "role",
          "type": "bytes32"
        },
        {
          "internalType": "address",
          "name": "account",
          "type": "address"
        }
      ],
      "name": "hasRole",
      "outputs": [
        {
          "internalType": "bool",
          "name": "",
          "type": "bool"
        }
      ],
      "stateMutability": "view",
      "type": "function"
    },
    {
      "inputs": [
        {
          "internalType": "address",
          "name": "",
          "type": "address"
        },
        {
          "internalType": "address",
          "name": "from",
          "type": "address"
        },
        {
          "internalType": "uint256",
          "name": "value",
          "type": "uint256"
        },
        {
          "internalType": "bytes",
          "name": "",
          "type": "bytes"
        }
      ],
      "name": "onERC20Received",
      "outputs": [
        {
          "internalType": "bytes4",
          "name": "",
          "type": "bytes4"
        }
      ],
      "stateMutability": "nonpayable",
      "type": "function"
    },
    {
      "inputs": [],
      "name": "owner",
      "outputs": [
        {
          "internalType": "address",
          "name": "",
          "type": "address"
        }
      ],
      "stateMutability": "view",
      "type": "function"
    },
    {
      "inputs": [
        {
          "internalType": "address[]",
          "name": "accounts",
          "type": "address[]"
        },
        {
          "internalType": "address[]",
          "name": "tokens",
          "type": "address[]"
        },
        {
          "internalType": "uint256[]",
          "name": "amounts",
          "type": "uint256[]"
        }
      ],
      "name": "recoverERC20s",
      "outputs": [],
      "stateMutability": "nonpayable",
      "type": "function"
    },
    {
      "inputs": [
        {
          "internalType": "address[]",
          "name": "accounts",
          "type": "address[]"
        },
        {
          "internalType": "address[]",
          "name": "contracts",
          "type": "address[]"
        },
        {
          "internalType": "uint256[]",
          "name": "tokenIds",
          "type": "uint256[]"
        }
      ],
      "name": "recoverERC721s",
      "outputs": [],
      "stateMutability": "nonpayable",
      "type": "function"
    },
    {
      "inputs": [
        {
          "internalType": "address payable[]",
          "name": "accounts",
          "type": "address[]"
        },
        {
          "internalType": "uint256[]",
          "name": "amounts",
          "type": "uint256[]"
        }
      ],
      "name": "recoverETH",
      "outputs": [],
      "stateMutability": "nonpayable",
      "type": "function"
    },
    {
      "inputs": [
        {
          "internalType": "bytes32",
          "name": "role",
          "type": "bytes32"
        }
      ],
      "name": "renounceRole",
      "outputs": [],
      "stateMutability": "nonpayable",
      "type": "function"
    },
    {
      "inputs": [
        {
          "internalType": "bytes32",
          "name": "role",
          "type": "bytes32"
        },
        {
          "internalType": "address",
          "name": "account",
          "type": "address"
        }
      ],
      "name": "revokeRole",
      "outputs": [],
      "stateMutability": "nonpayable",
      "type": "function"
    },
    {
      "inputs": [
        {
          "internalType": "uint256",
          "name": "conversionRate_",
          "type": "uint256"
        }
      ],
      "name": "setConversionRate",
      "outputs": [],
      "stateMutability": "nonpayable",
      "type": "function"
    },
    {
      "inputs": [],
      "name": "shards",
      "outputs": [
        {
          "internalType": "contract IERC20Burnable",
          "name": "",
          "type": "address"
        }
      ],
      "stateMutability": "view",
      "type": "function"
    },
    {
      "inputs": [
        {
          "internalType": "bytes4",
          "name": "interfaceId",
          "type": "bytes4"
        }
      ],
      "name": "supportsInterface",
      "outputs": [
        {
          "internalType": "bool",
          "name": "",
          "type": "bool"
        }
      ],
      "stateMutability": "view",
      "type": "function"
    },
    {
      "inputs": [
        {
          "internalType": "address",
          "name": "newOwner",
          "type": "address"
        }
      ],
      "name": "transferOwnership",
      "outputs": [],
      "stateMutability": "nonpayable",
      "type": "function"
    }
  ],
  "bytecode": "0x60c06040523480156200001157600080fd5b506040516200215438038062002154833981016040819052620000349162000277565b336200006d634fc3585960e01b600162000058620000ea60201b62000ac11760201c565b6200012060201b62000aef179092919060201c565b6200009b8162000087620001b060201b62000bfb1760201c565b620001e060201b62000c291790919060201c565b506001600160a01b03828116608052811660a052604051600081527eb22dee8d85ff5215d4c68cdb3f5864f9e51f23b5c76363187afaacab3906e79060200160405180910390a15050620002dc565b6000806200011a60017fca9d3e17f264b0f3984e2634e94adb37fa3e6a8103f06aeae6fa59e21c769f5e620002b6565b92915050565b600160e01b6001600160e01b0319831601620001825760405162461bcd60e51b815260206004820152601f60248201527f496e74657266616365446574656374696f6e3a2077726f6e672076616c756500604482015260640160405180910390fd5b6001600160e01b03199190911660009081526020929092526040909120805460ff1916911515919091179055565b6000806200011a60017fc9ed16f33ab3a66c84bfd83099ccb2a8845871e2e1c1928f63797152f0fd54cd620002b6565b6001600160a01b03811615620002375781546001600160a01b0319166001600160a01b03821690811783556040516000907f8be0079c531659141344cd1fd0a4f28419497f9722a3daafe3b4186f6b6457e0908290a35b6200025a6307f5828d60e41b600162000058620000ea60201b62000ac11760201c565b5050565b6001600160a01b03811681146200027457600080fd5b50565b600080604083850312156200028b57600080fd5b825162000298816200025e565b6020840151909250620002ab816200025e565b809150509250929050565b600082821015620002d757634e487b7160e01b600052601160045260246000fd5b500390565b60805160a051611e3d620003176000396000818161026901526104fc01526000818161018b0152818161033901526104620152611e3d6000f3fe608060405234801561001057600080fd5b50600436106101005760003560e01c806391d1485411610097578063d2e8049411610066578063d2e804941461028b578063d547741f1461029e578063f2fde38b146102b1578063f7ba94bd146102c457600080fd5b806391d1485414610217578063c3666c361461022a578063cb327b8b1461023d578063d0e546721461026457600080fd5b806373c8a958116100d357806373c8a958146101d25780637ffdf53e146101e55780638bb9c5bf146101fc5780638da5cb5b1461020f57600080fd5b806301ffc9a7146101055780632f2ff15d1461012d5780634fc35859146101425780636d53ae1e14610186575b600080fd5b6101186101133660046118cc565b6102d7565b60405190151581526020015b60405180910390f35b61014061013b366004611930565b6102f1565b005b61015561015036600461198f565b61031f565b6040517fffffffff000000000000000000000000000000000000000000000000000000009091168152602001610124565b6101ad7f000000000000000000000000000000000000000000000000000000000000000081565b60405173ffffffffffffffffffffffffffffffffffffffff9091168152602001610124565b6101406101e0366004611ad9565b6105da565b6101ee60005481565b604051908152602001610124565b61014061020a366004611b73565b6106ff565b6101ad610716565b610118610225366004611930565b610742565b610140610238366004611ad9565b61078d565b6101ee7f524154455f4d414e41474552000000000000000000000000000000000000000081565b6101ad7f000000000000000000000000000000000000000000000000000000000000000081565b610140610299366004611b73565b610930565b6101406102ac366004611930565b61099e565b6101406102bf366004611b8c565b6109c1565b6101406102d2366004611ba9565b6109d5565b60006102eb826102e5610ac1565b90610cea565b92915050565b33610304816102fe610bfb565b90610dc4565b61031a838383610312610e47565b929190610e75565b505050565b60003373ffffffffffffffffffffffffffffffffffffffff7f000000000000000000000000000000000000000000000000000000000000000016146103c5576040517f08c379a000000000000000000000000000000000000000000000000000000000815260206004820152601d60248201527f436174616c7973744275696c6465723a2077726f6e672073656e64657200000060448201526064015b60405180910390fd5b6000805490819003610433576040517f08c379a000000000000000000000000000000000000000000000000000000000815260206004820152601d60248201527f436174616c7973744275696c6465723a2072617465206e6f742073657400000060448201526064016103bc565b6040517f42966c68000000000000000000000000000000000000000000000000000000008152600481018590527f000000000000000000000000000000000000000000000000000000000000000073ffffffffffffffffffffffffffffffffffffffff16906342966c68906024016020604051808303816000875af11580156104c0573d6000803e3d6000fd5b505050506040513d601f19601f820116820180604052508101906104e49190611c15565b5073ffffffffffffffffffffffffffffffffffffffff7f0000000000000000000000000000000000000000000000000000000000000000166340c10f198661052c8488611c37565b6040517fffffffff0000000000000000000000000000000000000000000000000000000060e085901b16815273ffffffffffffffffffffffffffffffffffffffff90921660048301526024820152604401600060405180830381600087803b15801561059757600080fd5b505af11580156105ab573d6000803e3d6000fd5b507f4fc35859000000000000000000000000000000000000000000000000000000009998505050505050505050565b6105e7335b6102fe610bfb565b8483811480156105f657508082145b61065c576040517f08c379a000000000000000000000000000000000000000000000000000000000815260206004820152601d60248201527f5265636f766572793a20696e636f6e73697374656e742061727261797300000060448201526064016103bc565b60005b8181146106f5576106ed88888381811061067b5761067b611c72565b90506020020160208101906106909190611b8c565b8585848181106106a2576106a2611c72565b905060200201358888858181106106bb576106bb611c72565b90506020020160208101906106d09190611b8c565b73ffffffffffffffffffffffffffffffffffffffff169190610f4c565b60010161065f565b5050505050505050565b610713338261070c610e47565b9190610fd9565b50565b600061073d610723610bfb565b5473ffffffffffffffffffffffffffffffffffffffff1690565b905090565b60006107868383610751610e47565b60009283526020908152604080842073ffffffffffffffffffffffffffffffffffffffff909316845291905290205460ff1690565b9392505050565b610796336105df565b8483811480156107a557508082145b61080b576040517f08c379a000000000000000000000000000000000000000000000000000000000815260206004820152601d60248201527f5265636f766572793a20696e636f6e73697374656e742061727261797300000060448201526064016103bc565b60005b8181146106f55785858281811061082757610827611c72565b905060200201602081019061083c9190611b8c565b73ffffffffffffffffffffffffffffffffffffffff166323b872dd308a8a8581811061086a5761086a611c72565b905060200201602081019061087f9190611b8c565b87878681811061089157610891611c72565b6040517fffffffff0000000000000000000000000000000000000000000000000000000060e088901b16815273ffffffffffffffffffffffffffffffffffffffff958616600482015294909316602485015250602090910201356044820152606401600060405180830381600087803b15801561090d57600080fd5b505af1158015610921573d6000803e3d6000fd5b5050505080600101905061080e565b6109647f524154455f4d414e4147455200000000000000000000000000000000000000003361095d610e47565b919061107d565b60008190556040518181527eb22dee8d85ff5215d4c68cdb3f5864f9e51f23b5c76363187afaacab3906e79060200160405180910390a150565b336109ab816102fe610bfb565b61031a8383836109b9610e47565b929190611129565b61071333826109ce610bfb565b91906111f3565b6109de336105df565b82818114610a48576040517f08c379a000000000000000000000000000000000000000000000000000000000815260206004820152601d60248201527f5265636f766572793a20696e636f6e73697374656e742061727261797300000060448201526064016103bc565b60005b818114610ab957610ab1848483818110610a6757610a67611c72565b90506020020135878784818110610a8057610a80611c72565b9050602002016020810190610a959190611b8c565b73ffffffffffffffffffffffffffffffffffffffff169061131f565b600101610a4b565b505050505050565b6000806102eb60017fca9d3e17f264b0f3984e2634e94adb37fa3e6a8103f06aeae6fa59e21c769f5e611ca1565b7c01000000000000000000000000000000000000000000000000000000007fffffffff00000000000000000000000000000000000000000000000000000000831601610b97576040517f08c379a000000000000000000000000000000000000000000000000000000000815260206004820152601f60248201527f496e74657266616365446574656374696f6e3a2077726f6e672076616c75650060448201526064016103bc565b7fffffffff00000000000000000000000000000000000000000000000000000000919091166000908152602092909252604090912080547fffffffffffffffffffffffffffffffffffffffffffffffffffffffffffffff0016911515919091179055565b6000806102eb60017fc9ed16f33ab3a66c84bfd83099ccb2a8845871e2e1c1928f63797152f0fd54cd611ca1565b73ffffffffffffffffffffffffffffffffffffffff811615610cb15781547fffffffffffffffffffffffff00000000000000000000000000000000000000001673ffffffffffffffffffffffffffffffffffffffff821690811783556040516000907f8be0079c531659141344cd1fd0a4f28419497f9722a3daafe3b4186f6b6457e0908290a35b610ce67f7f5828d0000000000000000000000000000000000000000000000000000000006001610cdf610ac1565b9190610aef565b5050565b60007c01000000000000000000000000000000000000000000000000000000007fffffffff00000000000000000000000000000000000000000000000000000000831601610d3a575060006102eb565b7ffe003659000000000000000000000000000000000000000000000000000000007fffffffff00000000000000000000000000000000000000000000000000000000831601610d8b575060016102eb565b507fffffffff00000000000000000000000000000000000000000000000000000000166000908152602091909152604090205460ff1690565b815473ffffffffffffffffffffffffffffffffffffffff828116911614610ce6576040517f08c379a000000000000000000000000000000000000000000000000000000000815260206004820152601860248201527f4f776e6572736869703a206e6f7420746865206f776e6572000000000000000060448201526064016103bc565b6000806102eb60017fc8827d3282af6f37b64c3e9e6f3ac9df286ab0bb0fccd6f8661bf19adb368b23611ca1565b60008381526020858152604080832073ffffffffffffffffffffffffffffffffffffffff8616845290915290205460ff16610f465760008381526020858152604080832073ffffffffffffffffffffffffffffffffffffffff8681168086529184529382902080547fffffffffffffffffffffffffffffffffffffffffffffffffffffffffffffff00166001179055815187815292830152918316918101919091527f2f8788117e7eff1d82e926ec794901d17c78024a50270940304540a733656f0d906060015b60405180910390a15b50505050565b6040805173ffffffffffffffffffffffffffffffffffffffff8416602482015260448082018490528251808303909101815260649091019091526020810180517bffffffffffffffffffffffffffffffffffffffffffffffffffffffff167fa9059cbb0000000000000000000000000000000000000000000000000000000017905261031a908490611479565b610fe483828461107d565b60008181526020848152604080832073ffffffffffffffffffffffffffffffffffffffff86168085529083529281902080547fffffffffffffffffffffffffffffffffffffffffffffffffffffffffffffff0016905580518481529182018390528101919091527ff6391f5c32d9c69d2a47ea670b442974b53935d1edc7fd64eb21e047a839171b9060600160405180910390a1505050565b60008281526020848152604080832073ffffffffffffffffffffffffffffffffffffffff8516845290915290205460ff1661031a576110bb8261153a565b6040516020016110cb9190611d0b565b604080517fffffffffffffffffffffffffffffffffffffffffffffffffffffffffffffffe0818403018152908290527f08c379a00000000000000000000000000000000000000000000000000000000082526103bc91600401611d77565b60008381526020858152604080832073ffffffffffffffffffffffffffffffffffffffff8616845290915290205460ff1615610f465760008381526020858152604080832073ffffffffffffffffffffffffffffffffffffffff8681168086529184529382902080547fffffffffffffffffffffffffffffffffffffffffffffffffffffffffffffff00169055815187815292830152918316918101919091527ff6391f5c32d9c69d2a47ea670b442974b53935d1edc7fd64eb21e047a839171b90606001610f3d565b825473ffffffffffffffffffffffffffffffffffffffff9081169083168114611278576040517f08c379a000000000000000000000000000000000000000000000000000000000815260206004820152601860248201527f4f776e6572736869703a206e6f7420746865206f776e6572000000000000000060448201526064016103bc565b8173ffffffffffffffffffffffffffffffffffffffff168173ffffffffffffffffffffffffffffffffffffffff1614610f465783547fffffffffffffffffffffffff00000000000000000000000000000000000000001673ffffffffffffffffffffffffffffffffffffffff8381169182178655604051908316907f8be0079c531659141344cd1fd0a4f28419497f9722a3daafe3b4186f6b6457e090600090a350505050565b80471015611389576040517f08c379a000000000000000000000000000000000000000000000000000000000815260206004820152601d60248201527f416464726573733a20696e73756666696369656e742062616c616e636500000060448201526064016103bc565b60008273ffffffffffffffffffffffffffffffffffffffff168260405160006040518083038185875af1925050503d80600081146113e3576040519150601f19603f3d011682016040523d82523d6000602084013e6113e8565b606091505b505090508061031a576040517f08c379a000000000000000000000000000000000000000000000000000000000815260206004820152603a60248201527f416464726573733a20756e61626c6520746f2073656e642076616c75652c207260448201527f6563697069656e74206d6179206861766520726576657274656400000000000060648201526084016103bc565b60006114b682604051806060016040528060238152602001611de56023913973ffffffffffffffffffffffffffffffffffffffff861691906116cc565b80519091501561031a57808060200190518101906114d49190611c15565b61031a576040517f08c379a000000000000000000000000000000000000000000000000000000000815260206004820152601e60248201527f4552433230577261707065723a206f7065726174696f6e206661696c6564000060448201526064016103bc565b6060600082900361155957505060408051602081019091526000815290565b60008260405160200161156e91815260200190565b604080517fffffffffffffffffffffffffffffffffffffffffffffffffffffffffffffffe08184030181529190529050601f5b8181815181106115b3576115b3611c72565b01602001517fff0000000000000000000000000000000000000000000000000000000000000016600003611608577fffffffffffffffffffffffffffffffffffffffffffffffffffffffffffffffff016115a1565b60008160010167ffffffffffffffff81111561162657611626611960565b6040519080825280601f01601f191660200182016040528015611650576020820181803683370190505b50905060005b8281116116c35783818151811061166f5761166f611c72565b602001015160f81c60f81b82828151811061168c5761168c611c72565b60200101907effffffffffffffffffffffffffffffffffffffffffffffffffffffffffffff1916908160001a905350600101611656565b50949350505050565b60606116db84846000856116e3565b949350505050565b606082471015611775576040517f08c379a000000000000000000000000000000000000000000000000000000000815260206004820152602660248201527f416464726573733a20696e73756666696369656e742062616c616e636520666f60448201527f722063616c6c000000000000000000000000000000000000000000000000000060648201526084016103bc565b73ffffffffffffffffffffffffffffffffffffffff85163b6117f3576040517f08c379a000000000000000000000000000000000000000000000000000000000815260206004820152601d60248201527f416464726573733a2063616c6c20746f206e6f6e2d636f6e747261637400000060448201526064016103bc565b6000808673ffffffffffffffffffffffffffffffffffffffff16858760405161181c9190611dc8565b60006040518083038185875af1925050503d8060008114611859576040519150601f19603f3d011682016040523d82523d6000602084013e61185e565b606091505b509150915061186e828286611879565b979650505050505050565b60608315611888575081610786565b8251156118985782518084602001fd5b816040517f08c379a00000000000000000000000000000000000000000000000000000000081526004016103bc9190611d77565b6000602082840312156118de57600080fd5b81357fffffffff000000000000000000000000000000000000000000000000000000008116811461078657600080fd5b73ffffffffffffffffffffffffffffffffffffffff8116811461071357600080fd5b6000806040838503121561194357600080fd5b8235915060208301356119558161190e565b809150509250929050565b7f4e487b7100000000000000000000000000000000000000000000000000000000600052604160045260246000fd5b600080600080608085870312156119a557600080fd5b84356119b08161190e565b935060208501356119c08161190e565b925060408501359150606085013567ffffffffffffffff808211156119e457600080fd5b818701915087601f8301126119f857600080fd5b813581811115611a0a57611a0a611960565b604051601f82017fffffffffffffffffffffffffffffffffffffffffffffffffffffffffffffffe0908116603f01168101908382118183101715611a5057611a50611960565b816040528281528a6020848701011115611a6957600080fd5b82602086016020830137600060208483010152809550505050505092959194509250565b60008083601f840112611a9f57600080fd5b50813567ffffffffffffffff811115611ab757600080fd5b6020830191508360208260051b8501011115611ad257600080fd5b9250929050565b60008060008060008060608789031215611af257600080fd5b863567ffffffffffffffff80821115611b0a57600080fd5b611b168a838b01611a8d565b90985096506020890135915080821115611b2f57600080fd5b611b3b8a838b01611a8d565b90965094506040890135915080821115611b5457600080fd5b50611b6189828a01611a8d565b979a9699509497509295939492505050565b600060208284031215611b8557600080fd5b5035919050565b600060208284031215611b9e57600080fd5b81356107868161190e565b60008060008060408587031215611bbf57600080fd5b843567ffffffffffffffff80821115611bd757600080fd5b611be388838901611a8d565b90965094506020870135915080821115611bfc57600080fd5b50611c0987828801611a8d565b95989497509550505050565b600060208284031215611c2757600080fd5b8151801515811461078657600080fd5b600082611c6d577f4e487b7100000000000000000000000000000000000000000000000000000000600052601260045260246000fd5b500490565b7f4e487b7100000000000000000000000000000000000000000000000000000000600052603260045260246000fd5b600082821015611cda577f4e487b7100000000000000000000000000000000000000000000000000000000600052601160045260246000fd5b500390565b60005b83811015611cfa578181015183820152602001611ce2565b83811115610f465750506000910152565b7f416363657373436f6e74726f6c3a206d697373696e6720270000000000000000815260008251611d43816018850160208701611cdf565b7f2720726f6c6500000000000000000000000000000000000000000000000000006018939091019283015250601e01919050565b6020815260008251806020840152611d96816040850160208701611cdf565b601f017fffffffffffffffffffffffffffffffffffffffffffffffffffffffffffffffe0169190910160400192915050565b60008251611dda818460208701611cdf565b919091019291505056fe4552433230577261707065723a206c6f772d6c6576656c2063616c6c206661696c6564a2646970667358221220ab8980be7930e17d5ad254d1d3c6714117c38753b4e4711a5d79c342f9edb46164736f6c634300080f0033",
  "linkReferences": {},
  "deployedLinkReferences": {}
}