{
  "_format": "hh-sol-artifact-1",
  "contractName": "REVVMotorsportShard",
  "sourceName": "contracts/token/ERC20/REVVMotorsportShard.sol",
  "abi": [
    {
      "inputs": [
        {
          "internalType": "contract IForwarderRegistry",
          "name": "forwarderRegistry",
          "type": "address"
        }
      ],
      "stateMutability": "nonpayable",
      "type": "constructor"
    },
    {
      "anonymous": false,
      "inputs": [
        {
          "indexed": true,
          "internalType": "address",
          "name": "_owner",
          "type": "address"
        },
        {
          "indexed": true,
          "internalType": "address",
          "name": "_spender",
          "type": "address"
        },
        {
          "indexed": false,
          "internalType": "uint256",
          "name": "_value",
          "type": "uint256"
        }
      ],
      "name": "Approval",
      "type": "event"
    },
    {
      "anonymous": false,
      "inputs": [
        {
          "indexed": true,
          "internalType": "address",
          "name": "account",
          "type": "address"
        }
      ],
      "name": "MinterAdded",
      "type": "event"
    },
    {
      "anonymous": false,
      "inputs": [
        {
          "indexed": true,
          "internalType": "address",
          "name": "account",
          "type": "address"
        }
      ],
      "name": "MinterRemoved",
      "type": "event"
    },
    {
      "anonymous": false,
      "inputs": [
        {
          "indexed": true,
          "internalType": "address",
          "name": "previousOwner",
          "type": "address"
        },
        {
          "indexed": true,
          "internalType": "address",
          "name": "newOwner",
          "type": "address"
        }
      ],
      "name": "OwnershipTransferred",
      "type": "event"
    },
    {
      "anonymous": false,
      "inputs": [
        {
          "indexed": true,
          "internalType": "address",
          "name": "_from",
          "type": "address"
        },
        {
          "indexed": true,
          "internalType": "address",
          "name": "_to",
          "type": "address"
        },
        {
          "indexed": false,
          "internalType": "uint256",
          "name": "_value",
          "type": "uint256"
        }
      ],
      "name": "Transfer",
      "type": "event"
    },
    {
      "inputs": [],
      "name": "DOMAIN_SEPARATOR",
      "outputs": [
        {
          "internalType": "bytes32",
          "name": "",
          "type": "bytes32"
        }
      ],
      "stateMutability": "view",
      "type": "function"
    },
    {
      "inputs": [
        {
          "internalType": "address",
          "name": "account",
          "type": "address"
        }
      ],
      "name": "addMinter",
      "outputs": [],
      "stateMutability": "nonpayable",
      "type": "function"
    },
    {
      "inputs": [
        {
          "internalType": "address",
          "name": "owner",
          "type": "address"
        },
        {
          "internalType": "address",
          "name": "spender",
          "type": "address"
        }
      ],
      "name": "allowance",
      "outputs": [
        {
          "internalType": "uint256",
          "name": "",
          "type": "uint256"
        }
      ],
      "stateMutability": "view",
      "type": "function"
    },
    {
      "inputs": [
        {
          "internalType": "address",
          "name": "spender",
          "type": "address"
        },
        {
          "internalType": "uint256",
          "name": "value",
          "type": "uint256"
        }
      ],
      "name": "approve",
      "outputs": [
        {
          "internalType": "bool",
          "name": "",
          "type": "bool"
        }
      ],
      "stateMutability": "nonpayable",
      "type": "function"
    },
    {
      "inputs": [
        {
          "internalType": "address",
          "name": "account",
          "type": "address"
        }
      ],
      "name": "balanceOf",
      "outputs": [
        {
          "internalType": "uint256",
          "name": "",
          "type": "uint256"
        }
      ],
      "stateMutability": "view",
      "type": "function"
    },
    {
      "inputs": [
        {
          "internalType": "address[]",
          "name": "owners",
          "type": "address[]"
        },
        {
          "internalType": "uint256[]",
          "name": "values",
          "type": "uint256[]"
        }
      ],
      "name": "batchBurnFrom",
      "outputs": [
        {
          "internalType": "bool",
          "name": "",
          "type": "bool"
        }
      ],
      "stateMutability": "nonpayable",
      "type": "function"
    },
    {
      "inputs": [
        {
          "internalType": "address[]",
          "name": "recipients",
          "type": "address[]"
        },
        {
          "internalType": "uint256[]",
          "name": "values",
          "type": "uint256[]"
        }
      ],
      "name": "batchMint",
      "outputs": [],
      "stateMutability": "nonpayable",
      "type": "function"
    },
    {
      "inputs": [
        {
          "internalType": "address[]",
          "name": "recipients",
          "type": "address[]"
        },
        {
          "internalType": "uint256[]",
          "name": "values",
          "type": "uint256[]"
        }
      ],
      "name": "batchTransfer",
      "outputs": [
        {
          "internalType": "bool",
          "name": "",
          "type": "bool"
        }
      ],
      "stateMutability": "nonpayable",
      "type": "function"
    },
    {
      "inputs": [
        {
          "internalType": "address",
          "name": "from",
          "type": "address"
        },
        {
          "internalType": "address[]",
          "name": "recipients",
          "type": "address[]"
        },
        {
          "internalType": "uint256[]",
          "name": "values",
          "type": "uint256[]"
        }
      ],
      "name": "batchTransferFrom",
      "outputs": [
        {
          "internalType": "bool",
          "name": "",
          "type": "bool"
        }
      ],
      "stateMutability": "nonpayable",
      "type": "function"
    },
    {
      "inputs": [
        {
          "internalType": "uint256",
          "name": "amount",
          "type": "uint256"
        }
      ],
      "name": "burn",
      "outputs": [
        {
          "internalType": "bool",
          "name": "",
          "type": "bool"
        }
      ],
      "stateMutability": "nonpayable",
      "type": "function"
    },
    {
      "inputs": [
        {
          "internalType": "address",
          "name": "from",
          "type": "address"
        },
        {
          "internalType": "uint256",
          "name": "value",
          "type": "uint256"
        }
      ],
      "name": "burnFrom",
      "outputs": [
        {
          "internalType": "bool",
          "name": "",
          "type": "bool"
        }
      ],
      "stateMutability": "nonpayable",
      "type": "function"
    },
    {
      "inputs": [],
      "name": "decimals",
      "outputs": [
        {
          "internalType": "uint8",
          "name": "",
          "type": "uint8"
        }
      ],
      "stateMutability": "view",
      "type": "function"
    },
    {
      "inputs": [
        {
          "internalType": "address",
          "name": "spender",
          "type": "address"
        },
        {
          "internalType": "uint256",
          "name": "subtractedValue",
          "type": "uint256"
        }
      ],
      "name": "decreaseAllowance",
      "outputs": [
        {
          "internalType": "bool",
          "name": "",
          "type": "bool"
        }
      ],
      "stateMutability": "nonpayable",
      "type": "function"
    },
    {
      "inputs": [],
      "name": "deploymentChainId",
      "outputs": [
        {
          "internalType": "uint256",
          "name": "",
          "type": "uint256"
        }
      ],
      "stateMutability": "view",
      "type": "function"
    },
    {
      "inputs": [
        {
          "internalType": "address",
          "name": "spender",
          "type": "address"
        },
        {
          "internalType": "uint256",
          "name": "addedValue",
          "type": "uint256"
        }
      ],
      "name": "increaseAllowance",
      "outputs": [
        {
          "internalType": "bool",
          "name": "",
          "type": "bool"
        }
      ],
      "stateMutability": "nonpayable",
      "type": "function"
    },
    {
      "inputs": [
        {
          "internalType": "address",
          "name": "",
          "type": "address"
        }
      ],
      "name": "isMinter",
      "outputs": [
        {
          "internalType": "bool",
          "name": "",
          "type": "bool"
        }
      ],
      "stateMutability": "view",
      "type": "function"
    },
    {
      "inputs": [
        {
          "internalType": "address",
          "name": "forwarder",
          "type": "address"
        }
      ],
      "name": "isTrustedForwarder",
      "outputs": [
        {
          "internalType": "bool",
          "name": "",
          "type": "bool"
        }
      ],
      "stateMutability": "view",
      "type": "function"
    },
    {
      "inputs": [
        {
          "internalType": "address",
          "name": "to",
          "type": "address"
        },
        {
          "internalType": "uint256",
          "name": "value",
          "type": "uint256"
        }
      ],
      "name": "mint",
      "outputs": [],
      "stateMutability": "nonpayable",
      "type": "function"
    },
    {
      "inputs": [],
      "name": "name",
      "outputs": [
        {
          "internalType": "string",
          "name": "",
          "type": "string"
        }
      ],
      "stateMutability": "view",
      "type": "function"
    },
    {
      "inputs": [
        {
          "internalType": "address",
          "name": "",
          "type": "address"
        }
      ],
      "name": "nonces",
      "outputs": [
        {
          "internalType": "uint256",
          "name": "",
          "type": "uint256"
        }
      ],
      "stateMutability": "view",
      "type": "function"
    },
    {
      "inputs": [],
      "name": "owner",
      "outputs": [
        {
          "internalType": "address",
          "name": "",
          "type": "address"
        }
      ],
      "stateMutability": "view",
      "type": "function"
    },
    {
      "inputs": [
        {
          "internalType": "address",
          "name": "owner",
          "type": "address"
        },
        {
          "internalType": "address",
          "name": "spender",
          "type": "address"
        },
        {
          "internalType": "uint256",
          "name": "value",
          "type": "uint256"
        },
        {
          "internalType": "uint256",
          "name": "deadline",
          "type": "uint256"
        },
        {
          "internalType": "uint8",
          "name": "v",
          "type": "uint8"
        },
        {
          "internalType": "bytes32",
          "name": "r",
          "type": "bytes32"
        },
        {
          "internalType": "bytes32",
          "name": "s",
          "type": "bytes32"
        }
      ],
      "name": "permit",
      "outputs": [],
      "stateMutability": "nonpayable",
      "type": "function"
    },
    {
      "inputs": [
        {
          "internalType": "address[]",
          "name": "accounts",
          "type": "address[]"
        },
        {
          "internalType": "address[]",
          "name": "tokens",
          "type": "address[]"
        },
        {
          "internalType": "uint256[]",
          "name": "amounts",
          "type": "uint256[]"
        }
      ],
      "name": "recoverERC20s",
      "outputs": [],
      "stateMutability": "nonpayable",
      "type": "function"
    },
    {
      "inputs": [
        {
          "internalType": "address[]",
          "name": "accounts",
          "type": "address[]"
        },
        {
          "internalType": "address[]",
          "name": "contracts",
          "type": "address[]"
        },
        {
          "internalType": "uint256[]",
          "name": "tokenIds",
          "type": "uint256[]"
        }
      ],
      "name": "recoverERC721s",
      "outputs": [],
      "stateMutability": "nonpayable",
      "type": "function"
    },
    {
      "inputs": [],
      "name": "renounceMinter",
      "outputs": [],
      "stateMutability": "nonpayable",
      "type": "function"
    },
    {
      "inputs": [
        {
          "internalType": "address",
          "name": "to",
          "type": "address"
        },
        {
          "internalType": "uint256",
          "name": "amount",
          "type": "uint256"
        },
        {
          "internalType": "bytes",
          "name": "data",
          "type": "bytes"
        }
      ],
      "name": "safeTransfer",
      "outputs": [
        {
          "internalType": "bool",
          "name": "",
          "type": "bool"
        }
      ],
      "stateMutability": "nonpayable",
      "type": "function"
    },
    {
      "inputs": [
        {
          "internalType": "address",
          "name": "from",
          "type": "address"
        },
        {
          "internalType": "address",
          "name": "to",
          "type": "address"
        },
        {
          "internalType": "uint256",
          "name": "amount",
          "type": "uint256"
        },
        {
          "internalType": "bytes",
          "name": "data",
          "type": "bytes"
        }
      ],
      "name": "safeTransferFrom",
      "outputs": [
        {
          "internalType": "bool",
          "name": "",
          "type": "bool"
        }
      ],
      "stateMutability": "nonpayable",
      "type": "function"
    },
    {
      "inputs": [
        {
          "internalType": "string",
          "name": "tokenURI_",
          "type": "string"
        }
      ],
      "name": "setTokenURI",
      "outputs": [],
      "stateMutability": "nonpayable",
      "type": "function"
    },
    {
      "inputs": [
        {
          "internalType": "bytes4",
          "name": "interfaceId",
          "type": "bytes4"
        }
      ],
      "name": "supportsInterface",
      "outputs": [
        {
          "internalType": "bool",
          "name": "",
          "type": "bool"
        }
      ],
      "stateMutability": "view",
      "type": "function"
    },
    {
      "inputs": [],
      "name": "symbol",
      "outputs": [
        {
          "internalType": "string",
          "name": "",
          "type": "string"
        }
      ],
      "stateMutability": "view",
      "type": "function"
    },
    {
      "inputs": [],
      "name": "tokenURI",
      "outputs": [
        {
          "internalType": "string",
          "name": "",
          "type": "string"
        }
      ],
      "stateMutability": "view",
      "type": "function"
    },
    {
      "inputs": [],
      "name": "totalSupply",
      "outputs": [
        {
          "internalType": "uint256",
          "name": "",
          "type": "uint256"
        }
      ],
      "stateMutability": "view",
      "type": "function"
    },
    {
      "inputs": [
        {
          "internalType": "address",
          "name": "to",
          "type": "address"
        },
        {
          "internalType": "uint256",
          "name": "value",
          "type": "uint256"
        }
      ],
      "name": "transfer",
      "outputs": [
        {
          "internalType": "bool",
          "name": "",
          "type": "bool"
        }
      ],
      "stateMutability": "nonpayable",
      "type": "function"
    },
    {
      "inputs": [
        {
          "internalType": "address",
          "name": "from",
          "type": "address"
        },
        {
          "internalType": "address",
          "name": "to",
          "type": "address"
        },
        {
          "internalType": "uint256",
          "name": "value",
          "type": "uint256"
        }
      ],
      "name": "transferFrom",
      "outputs": [
        {
          "internalType": "bool",
          "name": "",
          "type": "bool"
        }
      ],
      "stateMutability": "nonpayable",
      "type": "function"
    },
    {
      "inputs": [
        {
          "internalType": "address",
          "name": "newOwner",
          "type": "address"
        }
      ],
      "name": "transferOwnership",
      "outputs": [],
      "stateMutability": "nonpayable",
      "type": "function"
    }
  ],
  "bytecode": "0x6101206040523480156200001257600080fd5b50604051620038f9380380620038f9833981810160405260208110156200003857600080fd5b5051604080518082018252601581527f52455656204d6f746f7273706f72742053686172640000000000000000000000602082810191909152825180840184526003815262524d5360e81b91810191909152600080546001600160a01b03191633908117825593516012918491849184918991908990819083907f8be0079c531659141344cd1fd0a4f28419497f9722a3daafe3b4186f6b6457e0908290a3506001600160601b0319606091821b811660a05291901b1660805282516200010790600290602086019062000251565b5081516200011d90600390602085019062000251565b507fff0000000000000000000000000000000000000000000000000000000000000060f882901b16610100524660c08190526200015b81856200017b565b60e05250620001739550869450506200020592505050565b5050620002fd565b8051602091820120604080517f8b73c3c69bb8fe3d512ecc4cf759cc79239f7b179b0ffacaa9a75d522b39400f81850152808201929092527fc89efdaa54c0f20c7adf612882df0950f5a951637e0307cdcb4c672f298b8bc6606083015260808201939093523060a0808301919091528351808303909101815260c0909101909252815191012090565b6001600160a01b038116600081815260086020526040808220805460ff19166001179055517f6ae172837ea30b801fbfcdd4108aa1d5bf8ff775444fd70256b44e6bf3dfc3f69190a250565b828054600181600116156101000203166002900490600052602060002090601f016020900481019282620002895760008555620002d4565b82601f10620002a457805160ff1916838001178555620002d4565b82800160010185558215620002d4579182015b82811115620002d4578251825591602001919060010190620002b7565b50620002e2929150620002e6565b5090565b5b80821115620002e25760008155600101620002e7565b60805160601c60a05160601c60c05160e0516101005160f81c61359f6200035a60003980610f02525080610fea525080610f295280611e7c525080611550528061318852508061158b528061314d52806131e0525061359f6000f3fe608060405234801561001057600080fd5b50600436106102415760003560e01c806379cc679011610145578063aa271e1a116100bd578063d505accf1161008c578063e0df5b6f11610071578063e0df5b6f14610c51578063eb79554914610cc1578063f2fde38b14610d4657610241565b8063d505accf14610bd2578063dd62ed3e14610c2357610241565b8063aa271e1a14610a00578063b88d4fde14610a26578063c3666c3614610ab6578063cd0d009614610bca57610241565b806395d89b411161011457806398650275116100f957806398650275146109a0578063a457c2d7146109a8578063a9059cbb146109d457610241565b806395d89b4114610972578063983b2d561461097a57610241565b806379cc67901461083a5780637ecebe001461086657806388d695b21461088c5780638da5cb5b1461094e57610241565b806339509351116101d85780634885b254116101a7578063685731071161018c57806368573107146105d957806370a082311461070057806373c8a9581461072657610241565b80634885b254146104e1578063572b6c05146105b357610241565b806339509351146104625780633c130d901461048e57806340c10f191461049657806342966c68146104c457610241565b80631b9a7529116102145780631b9a75291461034457806323b872dd14610406578063313ce5671461043c5780633644e5151461045a57610241565b806301ffc9a71461024657806306fdde0314610281578063095ea7b3146102fe57806318160ddd1461032a575b600080fd5b61026d6004803603602081101561025c57600080fd5b50356001600160e01b031916610d6c565b604080519115158252519081900360200190f35b610289610db0565b6040805160208082528351818301528351919283929083019185019080838360005b838110156102c35781810151838201526020016102ab565b50505050905090810190601f1680156102f05780820380516001836020036101000a031916815260200191505b509250505060405180910390f35b61026d6004803603604081101561031457600080fd5b506001600160a01b038135169060200135610e44565b610332610e61565b60408051918252519081900360200190f35b61026d6004803603604081101561035a57600080fd5b81019060208101813564010000000081111561037557600080fd5b82018360208201111561038757600080fd5b803590602001918460208302840111640100000000831117156103a957600080fd5b9193909290916020810190356401000000008111156103c757600080fd5b8201836020820111156103d957600080fd5b803590602001918460208302840111640100000000831117156103fb57600080fd5b509092509050610e67565b61026d6004803603606081101561041c57600080fd5b506001600160a01b03813581169160208101359091169060400135610ee1565b610444610f00565b6040805160ff9092168252519081900360200190f35b610332610f24565b61026d6004803603604081101561047857600080fd5b506001600160a01b038135169060200135611010565b61028961117e565b6104c2600480360360408110156104ac57600080fd5b506001600160a01b0381351690602001356111df565b005b61026d600480360360208110156104da57600080fd5b50356111fd565b61026d600480360360608110156104f757600080fd5b6001600160a01b03823516919081019060408101602082013564010000000081111561052257600080fd5b82018360208201111561053457600080fd5b8035906020019184602083028401116401000000008311171561055657600080fd5b91939092909160208101903564010000000081111561057457600080fd5b82018360208201111561058657600080fd5b803590602001918460208302840111640100000000831117156105a857600080fd5b509092509050611218565b61026d600480360360208110156105c957600080fd5b50356001600160a01b031661154c565b6104c2600480360360408110156105ef57600080fd5b81019060208101813564010000000081111561060a57600080fd5b82018360208201111561061c57600080fd5b8035906020019184602083028401116401000000008311171561063e57600080fd5b919080806020026020016040519081016040528093929190818152602001838360200280828437600092019190915250929594936020810193503591505064010000000081111561068e57600080fd5b8201836020820111156106a057600080fd5b803590602001918460208302840111640100000000831117156106c257600080fd5b9190808060200260200160405190810160405280939291908181526020018383602002808284376000920191909152509295506115c5945050505050565b6103326004803603602081101561071657600080fd5b50356001600160a01b03166115da565b6104c26004803603606081101561073c57600080fd5b81019060208101813564010000000081111561075757600080fd5b82018360208201111561076957600080fd5b8035906020019184602083028401116401000000008311171561078b57600080fd5b9193909290916020810190356401000000008111156107a957600080fd5b8201836020820111156107bb57600080fd5b803590602001918460208302840111640100000000831117156107dd57600080fd5b9193909290916020810190356401000000008111156107fb57600080fd5b82018360208201111561080d57600080fd5b8035906020019184602083028401116401000000008311171561082f57600080fd5b5090925090506115f5565b61026d6004803603604081101561085057600080fd5b506001600160a01b0381351690602001356116e7565b6103326004803603602081101561087c57600080fd5b50356001600160a01b03166116f3565b61026d600480360360408110156108a257600080fd5b8101906020810181356401000000008111156108bd57600080fd5b8201836020820111156108cf57600080fd5b803590602001918460208302840111640100000000831117156108f157600080fd5b91939092909160208101903564010000000081111561090f57600080fd5b82018360208201111561092157600080fd5b8035906020019184602083028401116401000000008311171561094357600080fd5b509092509050611705565b610956611a14565b604080516001600160a01b039092168252519081900360200190f35b610289611a23565b6104c26004803603602081101561099057600080fd5b50356001600160a01b0316611a84565b6104c2611a9b565b61026d600480360360408110156109be57600080fd5b506001600160a01b038135169060200135611af9565b61026d600480360360408110156109ea57600080fd5b506001600160a01b038135169060200135611b68565b61026d60048036036020811015610a1657600080fd5b50356001600160a01b0316611b7c565b61026d60048036036080811015610a3c57600080fd5b6001600160a01b03823581169260208101359091169160408201359190810190608081016060820135640100000000811115610a7757600080fd5b820183602082011115610a8957600080fd5b80359060200191846001830284011164010000000083111715610aab57600080fd5b509092509050611b91565b6104c260048036036060811015610acc57600080fd5b810190602081018135640100000000811115610ae757600080fd5b820183602082011115610af957600080fd5b80359060200191846020830284011164010000000083111715610b1b57600080fd5b919390929091602081019035640100000000811115610b3957600080fd5b820183602082011115610b4b57600080fd5b80359060200191846020830284011164010000000083111715610b6d57600080fd5b919390929091602081019035640100000000811115610b8b57600080fd5b820183602082011115610b9d57600080fd5b80359060200191846020830284011164010000000083111715610bbf57600080fd5b509092509050611d32565b610332611e7a565b6104c2600480360360e0811015610be857600080fd5b506001600160a01b03813581169160208101359091169060408101359060608101359060ff6080820135169060a08101359060c00135611e9e565b61033260048036036040811015610c3957600080fd5b506001600160a01b038135811691602001351661211d565b6104c260048036036020811015610c6757600080fd5b810190602081018135640100000000811115610c8257600080fd5b820183602082011115610c9457600080fd5b80359060200191846001830284011164010000000083111715610cb657600080fd5b509092509050612148565b61026d60048036036060811015610cd757600080fd5b6001600160a01b0382351691602081013591810190606081016040820135640100000000811115610d0757600080fd5b820183602082011115610d1957600080fd5b80359060200191846001830284011164010000000083111715610d3b57600080fd5b509092509050612164565b6104c260048036036020811015610d5c57600080fd5b50356001600160a01b0316612303565b60006001600160e01b031982167f20c07ed1000000000000000000000000000000000000000000000000000000001480610daa5750610daa82612374565b92915050565b60028054604080516020601f6000196101006001871615020190941685900493840181900481028201810190925282815260609390929091830182828015610e395780601f10610e0e57610100808354040283529160200191610e39565b820191906000526020600020905b815481529060010190602001808311610e1c57829003601f168201915b505050505090505b90565b6000610e58610e51612511565b8484612520565b50600192915050565b60075490565b6000610ed6858580806020026020016040519081016040528093929190818152602001838360200280828437600092019190915250506040805160208089028281018201909352888252909350889250879182918501908490808284376000920191909152506125dd92505050565b506001949350505050565b6000610ef6610eee612511565b858585612799565b5060019392505050565b7f000000000000000000000000000000000000000000000000000000000000000090565b6000467f00000000000000000000000000000000000000000000000000000000000000008114610fe8576002805460408051602060018416156101000260001901909316849004601f8101849004840282018401909252818152610fe393859391929091830182828015610fd95780601f10610fae57610100808354040283529160200191610fd9565b820191906000526020600020905b815481529060010190602001808311610fbc57829003601f168201915b50505050506127ce565b61100a565b7f00000000000000000000000000000000000000000000000000000000000000005b91505090565b60006001600160a01b03831661106d576040805162461bcd60e51b815260206004820152601b60248201527f45524332303a207a65726f2061646472657373207370656e6465720000000000604482015290519081900360640190fd5b6000611077612511565b6001600160a01b038082166000908152600660209081526040808320938916835292905220549091508315611128578084018181116110fd576040805162461bcd60e51b815260206004820152601960248201527f45524332303a20616c6c6f77616e6365206f766572666c6f7700000000000000604482015290519081900360640190fd5b6001600160a01b038084166000908152600660209081526040808320938a1683529290522081905590505b846001600160a01b0316826001600160a01b03167f8c5be1e5ebec7d5bd14f71427d1e84f3dd0314c0f7b2291e5b200ac8c7c3b925836040518082815260200191505060405180910390a3506001949350505050565b60048054604080516020601f6002600019610100600188161502019095169490940493840181900481028201810190925282815260609390929091830182828015610e395780601f10610e0e57610100808354040283529160200191610e39565b6111ef6111ea612511565b612858565b6111f982826128c5565b5050565b600061121061120a612511565b836129e8565b506001919050565b60008382811461126f576040805162461bcd60e51b815260206004820152601a60248201527f45524332303a20696e636f6e73697374656e7420617272617973000000000000604482015290519081900360640190fd5b6001600160a01b0387166000908152600560205260408120549080805b8481146114815760008a8a838181106112a157fe5b905060200201356001600160a01b0316905060006001600160a01b0316816001600160a01b0316141561131b576040805162461bcd60e51b815260206004820152601660248201527f45524332303a20746f207a65726f206164647265737300000000000000000000604482015290519081900360640190fd5b600089898481811061132957fe5b9050602002013590508060001461142c57848101858111611391576040805162461bcd60e51b815260206004820152601660248201527f45524332303a2076616c756573206f766572666c6f7700000000000000000000604482015290519081900360640190fd5b809550826001600160a01b03168e6001600160a01b0316146113d0576001600160a01b038316600090815260056020526040902080548301905561142a565b86821115611425576040805162461bcd60e51b815260206004820152601b60248201527f45524332303a20696e73756666696369656e742062616c616e63650000000000604482015290519081900360640190fd5b938101935b505b816001600160a01b03168d6001600160a01b03167fddf252ad1be2c89b69c2b068fc378daa952ba7f163c4a11628f55a4df523b3ef836040518082815260200191505060405180910390a3505060010161128c565b5081158015906114915750808214155b1561150b578183038381106114ed576040805162461bcd60e51b815260206004820152601b60248201527f45524332303a20696e73756666696369656e742062616c616e63650000000000604482015290519081900360640190fd5b6001600160a01b038b16600090815260056020526040902090820190555b6000611515612511565b9050806001600160a01b03168b6001600160a01b03161461153b5761153b8b8285612ac7565b5060019a9950505050505050505050565b60007f00000000000000000000000000000000000000000000000000000000000000006001600160a01b0316826001600160a01b03161480610daa57507f00000000000000000000000000000000000000000000000000000000000000006001600160a01b0316826001600160a01b0316149050919050565b6115d06111ea612511565b6111f98282612bd6565b6001600160a01b031660009081526005602052604090205490565b611605611600612511565b612e06565b84838114801561161457508082145b611665576040805162461bcd60e51b815260206004820152601a60248201527f5265636f763a20696e636f6e73697374656e7420617272617973000000000000604482015290519081900360640190fd5b60005b8181146116dd576116d588888381811061167e57fe5b905060200201356001600160a01b031685858481811061169a57fe5b905060200201358888858181106116ad57fe5b905060200201356001600160a01b03166001600160a01b0316612eca9092919063ffffffff16565b600101611668565b5050505050505050565b6000610e588383612f4a565b60016020526000908152604090205481565b60008382811461175c576040805162461bcd60e51b815260206004820152601a60248201527f45524332303a20696e636f6e73697374656e7420617272617973000000000000604482015290519081900360640190fd5b6000611766612511565b6001600160a01b03811660009081526005602052604081205491925080805b85811461197a5760008b8b8381811061179a57fe5b905060200201356001600160a01b0316905060006001600160a01b0316816001600160a01b03161415611814576040805162461bcd60e51b815260206004820152601660248201527f45524332303a20746f207a65726f206164647265737300000000000000000000604482015290519081900360640190fd5b60008a8a8481811061182257fe5b905060200201359050806000146119255784810185811161188a576040805162461bcd60e51b815260206004820152601660248201527f45524332303a2076616c756573206f766572666c6f7700000000000000000000604482015290519081900360640190fd5b809550826001600160a01b0316886001600160a01b0316146118c9576001600160a01b0383166000908152600560205260409020805483019055611923565b8682111561191e576040805162461bcd60e51b815260206004820152601b60248201527f45524332303a20696e73756666696369656e742062616c616e63650000000000604482015290519081900360640190fd5b938101935b505b816001600160a01b0316876001600160a01b03167fddf252ad1be2c89b69c2b068fc378daa952ba7f163c4a11628f55a4df523b3ef836040518082815260200191505060405180910390a35050600101611785565b50811580159061198a5750808214155b15611a04578183038381106119e6576040805162461bcd60e51b815260206004820152601b60248201527f45524332303a20696e73756666696369656e742062616c616e63650000000000604482015290519081900360640190fd5b6001600160a01b038516600090815260056020526040902090820190555b5060019998505050505050505050565b6000546001600160a01b031690565b60038054604080516020601f6002600019610100600188161502019095169490940493840181900481028201810190925282815260609390929091830182828015610e395780601f10610e0e57610100808354040283529160200191610e39565b611a8f611600612511565b611a9881612f84565b50565b6000611aa5612511565b9050611ab081612858565b6001600160a01b038116600081815260086020526040808220805460ff19169055517fe94479a9f7e1952cc78f2d6baab678adc1b772d936c6583def489e524cb666929190a250565b60006001600160a01b038316611b56576040805162461bcd60e51b815260206004820152601b60248201527f45524332303a207a65726f2061646472657373207370656e6465720000000000604482015290519081900360640190fd5b610e58611b61612511565b8484612ac7565b6000610e58611b75612511565b8484612fd0565b60086020526000908152604090205460ff1681565b600080611b9c612511565b9050611baa81888888612799565b611bbc866001600160a01b0316613137565b15611d25577f4fc35859000000000000000000000000000000000000000000000000000000007bffffffffffffffffffffffffffffffffffffffffffffffffffffffff1916866001600160a01b0316634fc35859838a8989896040518663ffffffff1660e01b815260040180866001600160a01b03168152602001856001600160a01b03168152602001848152602001806020018281038252848482818152602001925080828437600081840152601f19601f8201169050808301925050509650505050505050602060405180830381600087803b158015611c9d57600080fd5b505af1158015611cb1573d6000803e3d6000fd5b505050506040513d6020811015611cc757600080fd5b50516001600160e01b03191614611d25576040805162461bcd60e51b815260206004820152601760248201527f45524332303a207472616e736665722072656675736564000000000000000000604482015290519081900360640190fd5b5060019695505050505050565b611d3d611600612511565b848381148015611d4c57508082145b611d9d576040805162461bcd60e51b815260206004820152601a60248201527f5265636f763a20696e636f6e73697374656e7420617272617973000000000000604482015290519081900360640190fd5b60005b8181146116dd57858582818110611db357fe5b905060200201356001600160a01b03166001600160a01b03166323b872dd308a8a85818110611dde57fe5b905060200201356001600160a01b0316878786818110611dfa57fe5b905060200201356040518463ffffffff1660e01b815260040180846001600160a01b03168152602001836001600160a01b031681526020018281526020019350505050600060405180830381600087803b158015611e5757600080fd5b505af1158015611e6b573d6000803e3d6000fd5b50505050806001019050611da0565b7f000000000000000000000000000000000000000000000000000000000000000081565b6001600160a01b038716611ef9576040805162461bcd60e51b815260206004820152601960248201527f45524332303a207a65726f2061646472657373206f776e657200000000000000604482015290519081900360640190fd5b83421115611f4e576040805162461bcd60e51b815260206004820152601560248201527f45524332303a2065787069726564207065726d69740000000000000000000000604482015290519081900360640190fd5b6001600160a01b0380881660008181526001602081815260408084208054938401905580517f6e71edae12b1b97f4d1f60370fef10105fa2faae0126114a169c64845d6126c98184015280820195909552948b166060850152608084018a905260a084019190915260c08084018990528451808503909101815260e09093019093528151919092012090611fe0610f24565b8260405160200180807f190100000000000000000000000000000000000000000000000000000000000081525060020183815260200182815260200192505050604051602081830303815290604052805190602001209050600060018287878760405160008152602001604052604051808581526020018460ff1681526020018381526020018281526020019450505050506020604051602081039080840390855afa158015612094573d6000803e3d6000fd5b505050602060405103519050896001600160a01b0316816001600160a01b031614612106576040805162461bcd60e51b815260206004820152601560248201527f45524332303a20696e76616c6964207065726d69740000000000000000000000604482015290519081900360640190fd5b6121118a8a8a612520565b50505050505050505050565b6001600160a01b03918216600090815260066020908152604080832093909416825291909152205490565b612153611600612511565b61215f600483836134c8565b505050565b60008061216f612511565b905061217c818787612fd0565b61218e866001600160a01b0316613137565b156122f7577f4fc35859000000000000000000000000000000000000000000000000000000007bffffffffffffffffffffffffffffffffffffffffffffffffffffffff1916866001600160a01b0316634fc3585983848989896040518663ffffffff1660e01b815260040180866001600160a01b03168152602001856001600160a01b03168152602001848152602001806020018281038252848482818152602001925080828437600081840152601f19601f8201169050808301925050509650505050505050602060405180830381600087803b15801561226f57600080fd5b505af1158015612283573d6000803e3d6000fd5b505050506040513d602081101561229957600080fd5b50516001600160e01b031916146122f7576040805162461bcd60e51b815260206004820152601760248201527f45524332303a207472616e736665722072656675736564000000000000000000604482015290519081900360640190fd5b50600195945050505050565b61230e611600612511565b600080547fffffffffffffffffffffffff0000000000000000000000000000000000000000166001600160a01b0383811691821780845560405192939116917f8be0079c531659141344cd1fd0a4f28419497f9722a3daafe3b4186f6b6457e09190a350565b60006001600160e01b031982167f01ffc9a70000000000000000000000000000000000000000000000000000000014806123d757506001600160e01b031982167f36372b0700000000000000000000000000000000000000000000000000000000145b8061240b57506001600160e01b031982167fa219a02500000000000000000000000000000000000000000000000000000000145b8061243f57506001600160e01b031982167f3c130d9000000000000000000000000000000000000000000000000000000000145b8061247357506001600160e01b031982167f9d07518600000000000000000000000000000000000000000000000000000000145b806124a757506001600160e01b031982167fc05327e600000000000000000000000000000000000000000000000000000000145b806124db57506001600160e01b031982167f53f41a9700000000000000000000000000000000000000000000000000000000145b80610daa5750506001600160e01b0319167f9d8ff7da000000000000000000000000000000000000000000000000000000001490565b600061251b61313d565b905090565b6001600160a01b03821661257b576040805162461bcd60e51b815260206004820152601b60248201527f45524332303a207a65726f2061646472657373207370656e6465720000000000604482015290519081900360640190fd5b6001600160a01b03808416600081815260066020908152604080832094871680845294825291829020859055815185815291517f8c5be1e5ebec7d5bd14f71427d1e84f3dd0314c0f7b2291e5b200ac8c7c3b9259281900390910190a3505050565b815181518114612634576040805162461bcd60e51b815260206004820152601a60248201527f45524332303a20696e636f6e73697374656e7420617272617973000000000000604482015290519081900360640190fd5b600061263e612511565b90506000805b83811461278157600086828151811061265957fe5b60200260200101519050600086838151811061267157fe5b6020026020010151905080600014612712576001600160a01b0382166000908152600560205260409020548181038181106126f3576040805162461bcd60e51b815260206004820152601b60248201527f45524332303a20696e73756666696369656e742062616c616e63650000000000604482015290519081900360640190fd5b6001600160a01b03841660009081526005602052604090205550928301925b6040805182815290516000916001600160a01b038516917fddf252ad1be2c89b69c2b068fc378daa952ba7f163c4a11628f55a4df523b3ef9181900360200190a3846001600160a01b0316826001600160a01b03161461277757612777828683612ac7565b5050600101612644565b508015612792576007805482900390555b5050505050565b6127a4838383612fd0565b836001600160a01b0316836001600160a01b0316146127c8576127c8838583612ac7565b50505050565b8051602091820120604080517f8b73c3c69bb8fe3d512ecc4cf759cc79239f7b179b0ffacaa9a75d522b39400f81850152808201929092527fc89efdaa54c0f20c7adf612882df0950f5a951637e0307cdcb4c672f298b8bc6606083015260808201939093523060a0808301919091528351808303909101815260c0909101909252815191012090565b6001600160a01b03811660009081526008602052604090205460ff16611a98576040805162461bcd60e51b815260206004820152601860248201527f4d696e746572526f6c653a206e6f742061204d696e7465720000000000000000604482015290519081900360640190fd5b6001600160a01b038216612920576040805162461bcd60e51b815260206004820152601360248201527f45524332303a207a65726f206164647265737300000000000000000000000000604482015290519081900360640190fd5b60075481156129a257808201818111612980576040805162461bcd60e51b815260206004820152601660248201527f45524332303a20737570706c79206f766572666c6f7700000000000000000000604482015290519081900360640190fd5b6007556001600160a01b03831660009081526005602052604090208054830190555b6040805183815290516001600160a01b038516916000917fddf252ad1be2c89b69c2b068fc378daa952ba7f163c4a11628f55a4df523b3ef9181900360200190a3505050565b8015612a82576001600160a01b038216600090815260056020526040902054818103818110612a5e576040805162461bcd60e51b815260206004820152601b60248201527f45524332303a20696e73756666696369656e742062616c616e63650000000000604482015290519081900360640190fd5b6001600160a01b038416600090815260056020526040902055506007805482900390555b6040805182815290516000916001600160a01b038516917fddf252ad1be2c89b69c2b068fc378daa952ba7f163c4a11628f55a4df523b3ef9181900360200190a35050565b6001600160a01b038084166000908152600660209081526040808320938616835292905220546000198114801590612afe57508115155b15612b8557818103818110612b5a576040805162461bcd60e51b815260206004820152601d60248201527f45524332303a20696e73756666696369656e7420616c6c6f77616e6365000000604482015290519081900360640190fd5b6001600160a01b03808616600090815260066020908152604080832093881683529290522081905590505b826001600160a01b0316846001600160a01b03167f8c5be1e5ebec7d5bd14f71427d1e84f3dd0314c0f7b2291e5b200ac8c7c3b925836040518082815260200191505060405180910390a350505050565b815181518114612c2d576040805162461bcd60e51b815260206004820152601a60248201527f45524332303a20696e636f6e73697374656e7420617272617973000000000000604482015290519081900360640190fd5b6000805b828114612d9b576000858281518110612c4657fe5b6020026020010151905060006001600160a01b0316816001600160a01b03161415612cb8576040805162461bcd60e51b815260206004820152601360248201527f45524332303a207a65726f206164647265737300000000000000000000000000604482015290519081900360640190fd5b6000858381518110612cc657fe5b6020026020010151905080600014612d5057838101848111612d2f576040805162461bcd60e51b815260206004820152601660248201527f45524332303a2076616c756573206f766572666c6f7700000000000000000000604482015290519081900360640190fd5b6001600160a01b038316600090815260056020526040902080548301905593505b6040805182815290516001600160a01b038416916000917fddf252ad1be2c89b69c2b068fc378daa952ba7f163c4a11628f55a4df523b3ef9181900360200190a35050600101612c31565b5080156127c857600754818101818111612dfc576040805162461bcd60e51b815260206004820152601660248201527f45524332303a20737570706c79206f766572666c6f7700000000000000000000604482015290519081900360640190fd5b6007555050505050565b306001600160a01b0316638da5cb5b6040518163ffffffff1660e01b815260040160206040518083038186803b158015612e3f57600080fd5b505afa158015612e53573d6000803e3d6000fd5b505050506040513d6020811015612e6957600080fd5b50516001600160a01b03828116911614611a98576040805162461bcd60e51b815260206004820152601660248201527f4f776e61626c653a206e6f7420746865206f776e657200000000000000000000604482015290519081900360640190fd5b604080516001600160a01b038416602482015260448082018490528251808303909101815260649091019091526020810180517bffffffffffffffffffffffffffffffffffffffffffffffffffffffff167fa9059cbb0000000000000000000000000000000000000000000000000000000017905261215f90849061329d565b612f5482826129e8565b6000612f5e612511565b9050806001600160a01b0316836001600160a01b03161461215f5761215f838284612ac7565b6001600160a01b038116600081815260086020526040808220805460ff19166001179055517f6ae172837ea30b801fbfcdd4108aa1d5bf8ff775444fd70256b44e6bf3dfc3f69190a250565b6001600160a01b03821661302b576040805162461bcd60e51b815260206004820152601660248201527f45524332303a20746f207a65726f206164647265737300000000000000000000604482015290519081900360640190fd5b80156130e7576001600160a01b0383166000908152600560205260409020548181038181106130a1576040805162461bcd60e51b815260206004820152601b60248201527f45524332303a20696e73756666696369656e742062616c616e63650000000000604482015290519081900360640190fd5b836001600160a01b0316856001600160a01b0316146130e4576001600160a01b038086166000908152600560205260408082208490559186168152208054840190555b50505b816001600160a01b0316836001600160a01b03167fddf252ad1be2c89b69c2b068fc378daa952ba7f163c4a11628f55a4df523b3ef836040518082815260200191505060405180910390a3505050565b3b151590565b6000338161314961349e565b90507f00000000000000000000000000000000000000000000000000000000000000006001600160a01b0316826001600160a01b031614806131bc57507f00000000000000000000000000000000000000000000000000000000000000006001600160a01b0316826001600160a01b0316145b156131ca579150610e419050565b6001600160a01b038216321480159061328957507f00000000000000000000000000000000000000000000000000000000000000006001600160a01b031663e60125d682846040518363ffffffff1660e01b815260040180836001600160a01b03168152602001826001600160a01b031681526020019250505060206040518083038186803b15801561325c57600080fd5b505afa158015613270573d6000803e3d6000fd5b505050506040513d602081101561328657600080fd5b50515b15613297579150610e419050565b50905090565b816132b06001600160a01b038216613137565b613301576040805162461bcd60e51b815260206004820152601a60248201527f4552433230577261707065723a206e6f6e2d636f6e7472616374000000000000604482015290519081900360640190fd5b600080826001600160a01b0316846040518082805190602001908083835b6020831061335c57805182527fffffffffffffffffffffffffffffffffffffffffffffffffffffffffffffffe0909201916020918201910161331f565b6001836020036101000a0380198251168184511680821785525050505050509050019150506000604051808303816000865af19150503d80600081146133be576040519150601f19603f3d011682016040523d82523d6000602084013e6133c3565b606091505b509150915081156134425780511561343d578080602001905160208110156133ea57600080fd5b505161343d576040805162461bcd60e51b815260206004820152601e60248201527f4552433230577261707065723a206f7065726174696f6e206661696c65640000604482015290519081900360640190fd5b612792565b8051613495576040805162461bcd60e51b815260206004820152601e60248201527f4552433230577261707065723a206f7065726174696f6e206661696c65640000604482015290519081900360640190fd5b80518082602001fd5b7fffffffffffffffffffffffffffffffffffffffffffffffffffffffffffffffec36013560601c90565b828054600181600116156101000203166002900490600052602060002090601f0160209004810192826134fe5760008555613544565b82601f106135175782800160ff19823516178555613544565b82800160010185558215613544579182015b82811115613544578235825591602001919060010190613529565b50613550929150613554565b5090565b5b80821115613550576000815560010161355556fea264697066735822122097cbeee438b562e998ac2925b1066870b838237ee38636a896d7f9b2d88238e864736f6c63430007060033",
  "linkReferences": {},
  "deployedLinkReferences": {}
}