{
  "_format": "hh-sol-artifact-1",
  "contractName": "REVVMotorsportShard",
  "sourceName": "contracts/token/ERC20/REVVMotorsportShard.sol",
  "abi": [
    {
      "inputs": [
        {
          "internalType": "contract IForwarderRegistry",
          "name": "forwarderRegistry",
          "type": "address"
        }
      ],
      "stateMutability": "nonpayable",
      "type": "constructor"
    },
    {
      "anonymous": false,
      "inputs": [
        {
          "indexed": true,
          "internalType": "address",
          "name": "owner",
          "type": "address"
        },
        {
          "indexed": true,
          "internalType": "address",
          "name": "spender",
          "type": "address"
        },
        {
          "indexed": false,
          "internalType": "uint256",
          "name": "value",
          "type": "uint256"
        }
      ],
      "name": "Approval",
      "type": "event"
    },
    {
      "anonymous": false,
      "inputs": [
        {
          "indexed": true,
          "internalType": "address",
          "name": "previousOwner",
          "type": "address"
        },
        {
          "indexed": true,
          "internalType": "address",
          "name": "newOwner",
          "type": "address"
        }
      ],
      "name": "OwnershipTransferred",
      "type": "event"
    },
    {
      "anonymous": false,
      "inputs": [
        {
          "indexed": false,
          "internalType": "bytes32",
          "name": "role",
          "type": "bytes32"
        },
        {
          "indexed": false,
          "internalType": "address",
          "name": "account",
          "type": "address"
        },
        {
          "indexed": false,
          "internalType": "address",
          "name": "operator",
          "type": "address"
        }
      ],
      "name": "RoleGranted",
      "type": "event"
    },
    {
      "anonymous": false,
      "inputs": [
        {
          "indexed": false,
          "internalType": "bytes32",
          "name": "role",
          "type": "bytes32"
        },
        {
          "indexed": false,
          "internalType": "address",
          "name": "account",
          "type": "address"
        },
        {
          "indexed": false,
          "internalType": "address",
          "name": "operator",
          "type": "address"
        }
      ],
      "name": "RoleRevoked",
      "type": "event"
    },
    {
      "anonymous": false,
      "inputs": [
        {
          "indexed": true,
          "internalType": "address",
          "name": "from",
          "type": "address"
        },
        {
          "indexed": true,
          "internalType": "address",
          "name": "to",
          "type": "address"
        },
        {
          "indexed": false,
          "internalType": "uint256",
          "name": "value",
          "type": "uint256"
        }
      ],
      "name": "Transfer",
      "type": "event"
    },
    {
      "inputs": [],
      "name": "DOMAIN_SEPARATOR",
      "outputs": [
        {
          "internalType": "bytes32",
          "name": "",
          "type": "bytes32"
        }
      ],
      "stateMutability": "view",
      "type": "function"
    },
    {
      "inputs": [],
      "name": "MINTER_ROLE",
      "outputs": [
        {
          "internalType": "bytes32",
          "name": "",
          "type": "bytes32"
        }
      ],
      "stateMutability": "view",
      "type": "function"
    },
    {
      "inputs": [
        {
          "internalType": "address",
          "name": "owner",
          "type": "address"
        },
        {
          "internalType": "address",
          "name": "spender",
          "type": "address"
        }
      ],
      "name": "allowance",
      "outputs": [
        {
          "internalType": "uint256",
          "name": "value",
          "type": "uint256"
        }
      ],
      "stateMutability": "view",
      "type": "function"
    },
    {
      "inputs": [
        {
          "internalType": "address",
          "name": "spender",
          "type": "address"
        },
        {
          "internalType": "uint256",
          "name": "value",
          "type": "uint256"
        }
      ],
      "name": "approve",
      "outputs": [
        {
          "internalType": "bool",
          "name": "result",
          "type": "bool"
        }
      ],
      "stateMutability": "nonpayable",
      "type": "function"
    },
    {
      "inputs": [
        {
          "internalType": "address",
          "name": "owner",
          "type": "address"
        }
      ],
      "name": "balanceOf",
      "outputs": [
        {
          "internalType": "uint256",
          "name": "balance",
          "type": "uint256"
        }
      ],
      "stateMutability": "view",
      "type": "function"
    },
    {
      "inputs": [
        {
          "internalType": "address[]",
          "name": "owners",
          "type": "address[]"
        },
        {
          "internalType": "uint256[]",
          "name": "values",
          "type": "uint256[]"
        }
      ],
      "name": "batchBurnFrom",
      "outputs": [
        {
          "internalType": "bool",
          "name": "",
          "type": "bool"
        }
      ],
      "stateMutability": "nonpayable",
      "type": "function"
    },
    {
      "inputs": [
        {
          "internalType": "address[]",
          "name": "recipients",
          "type": "address[]"
        },
        {
          "internalType": "uint256[]",
          "name": "values",
          "type": "uint256[]"
        }
      ],
      "name": "batchMint",
      "outputs": [],
      "stateMutability": "nonpayable",
      "type": "function"
    },
    {
      "inputs": [
        {
          "internalType": "address[]",
          "name": "recipients",
          "type": "address[]"
        },
        {
          "internalType": "uint256[]",
          "name": "values",
          "type": "uint256[]"
        }
      ],
      "name": "batchTransfer",
      "outputs": [
        {
          "internalType": "bool",
          "name": "",
          "type": "bool"
        }
      ],
      "stateMutability": "nonpayable",
      "type": "function"
    },
    {
      "inputs": [
        {
          "internalType": "address",
          "name": "from",
          "type": "address"
        },
        {
          "internalType": "address[]",
          "name": "recipients",
          "type": "address[]"
        },
        {
          "internalType": "uint256[]",
          "name": "values",
          "type": "uint256[]"
        }
      ],
      "name": "batchTransferFrom",
      "outputs": [
        {
          "internalType": "bool",
          "name": "",
          "type": "bool"
        }
      ],
      "stateMutability": "nonpayable",
      "type": "function"
    },
    {
      "inputs": [
        {
          "internalType": "uint256",
          "name": "value",
          "type": "uint256"
        }
      ],
      "name": "burn",
      "outputs": [
        {
          "internalType": "bool",
          "name": "",
          "type": "bool"
        }
      ],
      "stateMutability": "nonpayable",
      "type": "function"
    },
    {
      "inputs": [
        {
          "internalType": "address",
          "name": "from",
          "type": "address"
        },
        {
          "internalType": "uint256",
          "name": "value",
          "type": "uint256"
        }
      ],
      "name": "burnFrom",
      "outputs": [
        {
          "internalType": "bool",
          "name": "",
          "type": "bool"
        }
      ],
      "stateMutability": "nonpayable",
      "type": "function"
    },
    {
      "inputs": [],
      "name": "decimals",
      "outputs": [
        {
          "internalType": "uint8",
          "name": "",
          "type": "uint8"
        }
      ],
      "stateMutability": "view",
      "type": "function"
    },
    {
      "inputs": [
        {
          "internalType": "address",
          "name": "spender",
          "type": "address"
        },
        {
          "internalType": "uint256",
          "name": "subtractedValue",
          "type": "uint256"
        }
      ],
      "name": "decreaseAllowance",
      "outputs": [
        {
          "internalType": "bool",
          "name": "result",
          "type": "bool"
        }
      ],
      "stateMutability": "nonpayable",
      "type": "function"
    },
    {
      "inputs": [],
      "name": "forwarderRegistry",
      "outputs": [
        {
          "internalType": "contract IForwarderRegistry",
          "name": "",
          "type": "address"
        }
      ],
      "stateMutability": "view",
      "type": "function"
    },
    {
      "inputs": [
        {
          "internalType": "bytes32",
          "name": "role",
          "type": "bytes32"
        },
        {
          "internalType": "address",
          "name": "account",
          "type": "address"
        }
      ],
      "name": "grantRole",
      "outputs": [],
      "stateMutability": "nonpayable",
      "type": "function"
    },
    {
      "inputs": [
        {
          "internalType": "bytes32",
          "name": "role",
          "type": "bytes32"
        },
        {
          "internalType": "address",
          "name": "account",
          "type": "address"
        }
      ],
      "name": "hasRole",
      "outputs": [
        {
          "internalType": "bool",
          "name": "",
          "type": "bool"
        }
      ],
      "stateMutability": "view",
      "type": "function"
    },
    {
      "inputs": [
        {
          "internalType": "address",
          "name": "spender",
          "type": "address"
        },
        {
          "internalType": "uint256",
          "name": "addedValue",
          "type": "uint256"
        }
      ],
      "name": "increaseAllowance",
      "outputs": [
        {
          "internalType": "bool",
          "name": "result",
          "type": "bool"
        }
      ],
      "stateMutability": "nonpayable",
      "type": "function"
    },
    {
      "inputs": [
        {
          "internalType": "address",
          "name": "forwarder",
          "type": "address"
        }
      ],
      "name": "isTrustedForwarder",
      "outputs": [
        {
          "internalType": "bool",
          "name": "",
          "type": "bool"
        }
      ],
      "stateMutability": "view",
      "type": "function"
    },
    {
      "inputs": [
        {
          "internalType": "address",
          "name": "to",
          "type": "address"
        },
        {
          "internalType": "uint256",
          "name": "value",
          "type": "uint256"
        }
      ],
      "name": "mint",
      "outputs": [],
      "stateMutability": "nonpayable",
      "type": "function"
    },
    {
      "inputs": [],
      "name": "name",
      "outputs": [
        {
          "internalType": "string",
          "name": "",
          "type": "string"
        }
      ],
      "stateMutability": "view",
      "type": "function"
    },
    {
      "inputs": [
        {
          "internalType": "address",
          "name": "owner",
          "type": "address"
        }
      ],
      "name": "nonces",
      "outputs": [
        {
          "internalType": "uint256",
          "name": "",
          "type": "uint256"
        }
      ],
      "stateMutability": "view",
      "type": "function"
    },
    {
      "inputs": [],
      "name": "owner",
      "outputs": [
        {
          "internalType": "address",
          "name": "",
          "type": "address"
        }
      ],
      "stateMutability": "view",
      "type": "function"
    },
    {
      "inputs": [
        {
          "internalType": "address",
          "name": "owner",
          "type": "address"
        },
        {
          "internalType": "address",
          "name": "spender",
          "type": "address"
        },
        {
          "internalType": "uint256",
          "name": "value",
          "type": "uint256"
        },
        {
          "internalType": "uint256",
          "name": "deadline",
          "type": "uint256"
        },
        {
          "internalType": "uint8",
          "name": "v",
          "type": "uint8"
        },
        {
          "internalType": "bytes32",
          "name": "r",
          "type": "bytes32"
        },
        {
          "internalType": "bytes32",
          "name": "s",
          "type": "bytes32"
        }
      ],
      "name": "permit",
      "outputs": [],
      "stateMutability": "nonpayable",
      "type": "function"
    },
    {
      "inputs": [
        {
          "internalType": "address[]",
          "name": "accounts",
          "type": "address[]"
        },
        {
          "internalType": "contract IERC20[]",
          "name": "tokens",
          "type": "address[]"
        },
        {
          "internalType": "uint256[]",
          "name": "amounts",
          "type": "uint256[]"
        }
      ],
      "name": "recoverERC20s",
      "outputs": [],
      "stateMutability": "nonpayable",
      "type": "function"
    },
    {
      "inputs": [
        {
          "internalType": "address[]",
          "name": "accounts",
          "type": "address[]"
        },
        {
          "internalType": "contract IERC721[]",
          "name": "contracts",
          "type": "address[]"
        },
        {
          "internalType": "uint256[]",
          "name": "tokenIds",
          "type": "uint256[]"
        }
      ],
      "name": "recoverERC721s",
      "outputs": [],
      "stateMutability": "nonpayable",
      "type": "function"
    },
    {
      "inputs": [
        {
          "internalType": "address payable[]",
          "name": "accounts",
          "type": "address[]"
        },
        {
          "internalType": "uint256[]",
          "name": "amounts",
          "type": "uint256[]"
        }
      ],
      "name": "recoverETH",
      "outputs": [],
      "stateMutability": "nonpayable",
      "type": "function"
    },
    {
      "inputs": [
        {
          "internalType": "bytes32",
          "name": "role",
          "type": "bytes32"
        }
      ],
      "name": "renounceRole",
      "outputs": [],
      "stateMutability": "nonpayable",
      "type": "function"
    },
    {
      "inputs": [
        {
          "internalType": "bytes32",
          "name": "role",
          "type": "bytes32"
        },
        {
          "internalType": "address",
          "name": "account",
          "type": "address"
        }
      ],
      "name": "revokeRole",
      "outputs": [],
      "stateMutability": "nonpayable",
      "type": "function"
    },
    {
      "inputs": [
        {
          "internalType": "address",
          "name": "to",
          "type": "address"
        },
        {
          "internalType": "uint256",
          "name": "value",
          "type": "uint256"
        },
        {
          "internalType": "bytes",
          "name": "data",
          "type": "bytes"
        }
      ],
      "name": "safeTransfer",
      "outputs": [
        {
          "internalType": "bool",
          "name": "",
          "type": "bool"
        }
      ],
      "stateMutability": "nonpayable",
      "type": "function"
    },
    {
      "inputs": [
        {
          "internalType": "address",
          "name": "from",
          "type": "address"
        },
        {
          "internalType": "address",
          "name": "to",
          "type": "address"
        },
        {
          "internalType": "uint256",
          "name": "value",
          "type": "uint256"
        },
        {
          "internalType": "bytes",
          "name": "data",
          "type": "bytes"
        }
      ],
      "name": "safeTransferFrom",
      "outputs": [
        {
          "internalType": "bool",
          "name": "",
          "type": "bool"
        }
      ],
      "stateMutability": "nonpayable",
      "type": "function"
    },
    {
      "inputs": [
        {
          "internalType": "string",
          "name": "uri",
          "type": "string"
        }
      ],
      "name": "setTokenURI",
      "outputs": [],
      "stateMutability": "nonpayable",
      "type": "function"
    },
    {
      "inputs": [
        {
          "internalType": "bytes4",
          "name": "interfaceId",
          "type": "bytes4"
        }
      ],
      "name": "supportsInterface",
      "outputs": [
        {
          "internalType": "bool",
          "name": "",
          "type": "bool"
        }
      ],
      "stateMutability": "view",
      "type": "function"
    },
    {
      "inputs": [],
      "name": "symbol",
      "outputs": [
        {
          "internalType": "string",
          "name": "",
          "type": "string"
        }
      ],
      "stateMutability": "view",
      "type": "function"
    },
    {
      "inputs": [],
      "name": "tokenURI",
      "outputs": [
        {
          "internalType": "string",
          "name": "",
          "type": "string"
        }
      ],
      "stateMutability": "view",
      "type": "function"
    },
    {
      "inputs": [],
      "name": "totalSupply",
      "outputs": [
        {
          "internalType": "uint256",
          "name": "supply",
          "type": "uint256"
        }
      ],
      "stateMutability": "view",
      "type": "function"
    },
    {
      "inputs": [
        {
          "internalType": "address",
          "name": "to",
          "type": "address"
        },
        {
          "internalType": "uint256",
          "name": "value",
          "type": "uint256"
        }
      ],
      "name": "transfer",
      "outputs": [
        {
          "internalType": "bool",
          "name": "result",
          "type": "bool"
        }
      ],
      "stateMutability": "nonpayable",
      "type": "function"
    },
    {
      "inputs": [
        {
          "internalType": "address",
          "name": "from",
          "type": "address"
        },
        {
          "internalType": "address",
          "name": "to",
          "type": "address"
        },
        {
          "internalType": "uint256",
          "name": "value",
          "type": "uint256"
        }
      ],
      "name": "transferFrom",
      "outputs": [
        {
          "internalType": "bool",
          "name": "result",
          "type": "bool"
        }
      ],
      "stateMutability": "nonpayable",
      "type": "function"
    },
    {
      "inputs": [
        {
          "internalType": "address",
          "name": "newOwner",
          "type": "address"
        }
      ],
      "name": "transferOwnership",
      "outputs": [],
      "stateMutability": "nonpayable",
      "type": "function"
    }
  ],
  "bytecode": "0x60a06040523480156200001157600080fd5b5060405162004eb038038062004eb08339810160408190526200003491620004eb565b6040518060400160405280601581526020017f52455656204d6f746f7273706f727420536861726400000000000000000000008152506040518060400160405280600481526020016314d2149160e21b815250601283808033868686620000a5620001a060201b62000ec81760201c565b620000d7838383620000c16200020460201b62000f2c1760201c565b6200023a60201b62000f5a17909392919060201c565b5050506200010881620000f4620002a960201b62000fd91760201c565b620002d960201b620010071790919060201c565b506200011e6200035760201b620010bd1760201c565b620001336200037c60201b620010ed1760201c565b620001486200039f60201b6200111b1760201c565b6200015d620003c260201b620011491760201c565b62000172620003e560201b620011771760201c565b620001876200040860201b620011a51760201c565b6001600160a01b031660805250620006b0945050505050565b6000620001b76200042b60201b620011cf1760201c565b9050620001dd6336372b0760e01b6001836200045b60201b620011fd179092919060201c565b62000201634e83a8c360e11b6001836200045b60201b620011fd179092919060201c565b50565b6000806200023460017f335df4119bbb04f056b33eba33b826d3529129e458faf6daa9924b5a8f3b6a826200051d565b92915050565b83620002478482620005e4565b5060018401620002588382620005e4565b5060028401805460ff191660ff8316179055620002a363a219a02560e01b60016200028e6200042b602090811b620011cf17901c565b6200045b60201b620011fd179092919060201c565b50505050565b6000806200023460017fc9ed16f33ab3a66c84bfd83099ccb2a8845871e2e1c1928f63797152f0fd54cd6200051d565b6001600160a01b03811615620003305781546001600160a01b0319166001600160a01b03821690811783556040516000907f8be0079c531659141344cd1fd0a4f28419497f9722a3daafe3b4186f6b6457e0908290a35b620003536307f5828d60e41b60016200028e6200042b60201b620011cf1760201c565b5050565b6200037a6303c130d960e41b60016200028e6200042b60201b620011cf1760201c565b565b6200037a634ec7fbed60e11b60016200028e6200042b60201b620011cf1760201c565b6200037a6353f41a9760e01b60016200028e6200042b60201b620011cf1760201c565b6200037a63602993f360e11b60016200028e6200042b60201b620011cf1760201c565b6200037a63144b1f0f60e11b60016200028e6200042b60201b620011cf1760201c565b6200037a6320c07ed160e01b60016200028e6200042b60201b620011cf1760201c565b6000806200023460017fca9d3e17f264b0f3984e2634e94adb37fa3e6a8103f06aeae6fa59e21c769f5e6200051d565b600160e01b6001600160e01b0319831601620004bd5760405162461bcd60e51b815260206004820152601f60248201527f496e74657266616365446574656374696f6e3a2077726f6e672076616c756500604482015260640160405180910390fd5b6001600160e01b03199190911660009081526020929092526040909120805460ff1916911515919091179055565b600060208284031215620004fe57600080fd5b81516001600160a01b03811681146200051657600080fd5b9392505050565b818103818111156200023457634e487b7160e01b600052601160045260246000fd5b634e487b7160e01b600052604160045260246000fd5b600181811c908216806200056a57607f821691505b6020821081036200058b57634e487b7160e01b600052602260045260246000fd5b50919050565b601f821115620005df57600081815260208120601f850160051c81016020861015620005ba5750805b601f850160051c820191505b81811015620005db57828155600101620005c6565b5050505b505050565b81516001600160401b038111156200060057620006006200053f565b620006188162000611845462000555565b8462000591565b602080601f831160018114620006505760008415620006375750858301515b600019600386901b1c1916600185901b178555620005db565b600085815260208120601f198616915b82811015620006815788860151825594840194600190910190840162000660565b5085821015620006a05787850151600019600388901b60f8161c191681555b5050505050600190811b01905550565b6080516147cf620006e16000396000818161032501528181610405015281816136eb015261377301526147cf6000f3fe608060405234801561001057600080fd5b50600436106102925760003560e01c806379cc679011610160578063b88d4fde116100d8578063dd62ed3e1161008c578063eb79554911610071578063eb795549146105a9578063f2fde38b146105bc578063f7ba94bd146105cf57600080fd5b8063dd62ed3e14610583578063e0df5b6f1461059657600080fd5b8063d505accf116100bd578063d505accf14610536578063d539139314610549578063d547741f1461057057600080fd5b8063b88d4fde14610510578063c3666c361461052357600080fd5b80638da5cb5b1161012f57806395d89b411161011457806395d89b41146104e2578063a457c2d7146104ea578063a9059cbb146104fd57600080fd5b80638da5cb5b146104c757806391d14854146104cf57600080fd5b806379cc67901461047b5780637ecebe001461048e57806388d695b2146104a15780638bb9c5bf146104b457600080fd5b80633644e5151161020e5780634885b254116101c257806368573107116101a7578063685731071461044257806370a082311461045557806373c8a9581461046857600080fd5b80634885b254146103e2578063572b6c05146103f557600080fd5b80633c130d90116101f35780633c130d90146103b457806340c10f19146103bc57806342966c68146103cf57600080fd5b80633644e5151461039957806339509351146103a157600080fd5b80631b9a7529116102655780632b4c9f161161024a5780632b4c9f16146103235780632f2ff15d1461036a578063313ce5671461037f57600080fd5b80631b9a7529146102fd57806323b872dd1461031057600080fd5b806301ffc9a71461029757806306fdde03146102bf578063095ea7b3146102d457806318160ddd146102e7575b600080fd5b6102aa6102a5366004613de1565b6105e2565b60405190151581526020015b60405180910390f35b6102c76105fc565b6040516102b69190613e6c565b6102aa6102e2366004613ea1565b610613565b6102ef61063b565b6040519081526020016102b6565b6102aa61030b366004613f19565b61064f565b6102aa61031e366004613f85565b61067d565b7f00000000000000000000000000000000000000000000000000000000000000005b60405173ffffffffffffffffffffffffffffffffffffffff90911681526020016102b6565b61037d610378366004613fc6565b6106a9565b005b6103876106e2565b60405160ff90911681526020016102b6565b6102ef6106f9565b6102aa6103af366004613ea1565b610703565b6102c7610722565b61037d6103ca366004613ea1565b61072f565b6102aa6103dd366004613ff6565b610782565b6102aa6103f036600461400f565b6107a7565b6102aa610403366004614092565b7f000000000000000000000000000000000000000000000000000000000000000073ffffffffffffffffffffffffffffffffffffffff90811691161490565b61037d610450366004613f19565b6107d8565b6102ef610463366004614092565b610882565b61037d6104763660046140af565b6108ba565b6102aa610489366004613ea1565b6109ea565b6102ef61049c366004614092565b610a09565b6102aa6104af366004613f19565b610a17565b61037d6104c2366004613ff6565b610a3a565b610345610a58565b6102aa6104dd366004613fc6565b610a7f565b6102c7610ac3565b6102aa6104f8366004613ea1565b610ad5565b6102aa61050b366004613ea1565b610af4565b6102aa61051e36600461418b565b610b13565b61037d6105313660046140af565b610b38565b61037d6105443660046141ed565b610cdd565b6102ef7f6d696e746572000000000000000000000000000000000000000000000000000081565b61037d61057e366004613fc6565b610d04565b6102ef610591366004614264565b610d32565b61037d6105a4366004614292565b610d7d565b6102aa6105b73660046142d4565b610d9c565b61037d6105ca366004614092565b610dbf565b61037d6105dd366004613f19565b610dda565b60006105f6826105f06111cf565b90611309565b92915050565b606061060e610609610f2c565b6113e3565b905090565b6000610632610620611479565b848461062a611483565b9291906114b1565b50600192915050565b600061060e610648611483565b6002015490565b600061067261065c611479565b86868686610668611483565b94939291906115a0565b506001949350505050565b600061069e61068a611479565b858585610695611483565b939291906117e2565b5060015b9392505050565b60006106b3611479565b90506106c7816106c1610fd9565b90611834565b6106dd8383836106d56118b7565b9291906118e5565b505050565b600061060e6106ef610f2c565b6002015460ff1690565b600061060e6119bb565b6000610632610710611479565b848461071a611483565b929190611a56565b606061060e610609611c22565b61076a7f6d696e746572000000000000000000000000000000000000000000000000000061075b611479565b6107636118b7565b9190611c50565b61077e8282610777611483565b9190611cfc565b5050565b600061079f61078f611479565b83610798611483565b9190611e76565b506001919050565b60006107cc6107b4611479565b87878787876107c1611483565b959493929190611f8c565b50600195945050505050565b6108047f6d696e746572000000000000000000000000000000000000000000000000000061075b611479565b61087c848480806020026020016040519081016040528093929190818152602001838360200280828437600092019190915250506040805160208088028281018201909352878252909350879250869182918501908490808284376000920191909152506108759250611483915050565b91906123d2565b50505050565b60006105f682610890611483565b9073ffffffffffffffffffffffffffffffffffffffff166000908152602091909152604090205490565b6108cd6108c5611479565b6106c1610fd9565b8483811480156108dc57508082145b610947576040517f08c379a000000000000000000000000000000000000000000000000000000000815260206004820152601d60248201527f5265636f766572793a20696e636f6e73697374656e742061727261797300000060448201526064015b60405180910390fd5b60005b8181146109e0576109d888888381811061096657610966614324565b905060200201602081019061097b9190614092565b85858481811061098d5761098d614324565b905060200201358888858181106109a6576109a6614324565b90506020020160208101906109bb9190614092565b73ffffffffffffffffffffffffffffffffffffffff1691906126a8565b60010161094a565b5050505050505050565b60006106326109f7611479565b8484610a01611483565b929190612735565b60006105f68261089061277f565b6000610672610a24611479565b86868686610a30611483565b94939291906127ad565b610a55610a45611479565b82610a4e6118b7565b9190612b8f565b50565b600061060e610a65610fd9565b5473ffffffffffffffffffffffffffffffffffffffff1690565b60006106a28383610a8e6118b7565b60009283526020908152604080842073ffffffffffffffffffffffffffffffffffffffff909316845291905290205460ff1690565b606061060e610ad0610f2c565b612c33565b6000610632610ae2611479565b8484610aec611483565b929190612c44565b6000610632610b01611479565b8484610b0b611483565b929190612d96565b60006107cc610b20611479565b8787878787610b2d611483565b959493929190612f77565b610b436108c5611479565b848381148015610b5257508082145b610bb8576040517f08c379a000000000000000000000000000000000000000000000000000000000815260206004820152601d60248201527f5265636f766572793a20696e636f6e73697374656e7420617272617973000000604482015260640161093e565b60005b8181146109e057858582818110610bd457610bd4614324565b9050602002016020810190610be99190614092565b73ffffffffffffffffffffffffffffffffffffffff166323b872dd308a8a85818110610c1757610c17614324565b9050602002016020810190610c2c9190614092565b878786818110610c3e57610c3e614324565b6040517fffffffff0000000000000000000000000000000000000000000000000000000060e088901b16815273ffffffffffffffffffffffffffffffffffffffff958616600482015294909316602485015250602090910201356044820152606401600060405180830381600087803b158015610cba57600080fd5b505af1158015610cce573d6000803e3d6000fd5b50505050806001019050610bbb565b610cfb87878787878787610cef61277f565b96959493929190612fe4565b50505050505050565b6000610d0e611479565b9050610d1c816106c1610fd9565b6106dd838383610d2a6118b7565b9291906132e0565b60006106a28383610d41611483565b919073ffffffffffffffffffffffffffffffffffffffff9182166000908152600193909301602090815260408085209290931684525290205490565b610d886108c5611479565b61077e8282610d95611c22565b91906133aa565b6000610672610da9611479565b86868686610db5611483565b94939291906133b6565b610a55610dca611479565b82610dd3610fd9565b9190613422565b610de56108c5611479565b82818114610e4f576040517f08c379a000000000000000000000000000000000000000000000000000000000815260206004820152601d60248201527f5265636f766572793a20696e636f6e73697374656e7420617272617973000000604482015260640161093e565b60005b818114610ec057610eb8848483818110610e6e57610e6e614324565b90506020020135878784818110610e8757610e87614324565b9050602002016020810190610e9c9190614092565b73ffffffffffffffffffffffffffffffffffffffff169061354e565b600101610e52565b505050505050565b6000610ed26111cf565b9050610f00817f36372b070000000000000000000000000000000000000000000000000000000060016111fd565b610a55817f9d0751860000000000000000000000000000000000000000000000000000000060016111fd565b6000806105f660017f335df4119bbb04f056b33eba33b826d3529129e458faf6daa9924b5a8f3b6a82614353565b83610f658482614455565b5060018401610f748382614455565b506002840180547fffffffffffffffffffffffffffffffffffffffffffffffffffffffffffffff001660ff831617905561087c7fa219a025000000000000000000000000000000000000000000000000000000006001610fd26111cf565b91906111fd565b6000806105f660017fc9ed16f33ab3a66c84bfd83099ccb2a8845871e2e1c1928f63797152f0fd54cd614353565b73ffffffffffffffffffffffffffffffffffffffff81161561108f5781547fffffffffffffffffffffffff00000000000000000000000000000000000000001673ffffffffffffffffffffffffffffffffffffffff821690811783556040516000907f8be0079c531659141344cd1fd0a4f28419497f9722a3daafe3b4186f6b6457e0908290a35b61077e7f7f5828d0000000000000000000000000000000000000000000000000000000006001610fd26111cf565b6110eb7f3c130d90000000000000000000000000000000000000000000000000000000006001610fd26111cf565b565b6110eb7f9d8ff7da000000000000000000000000000000000000000000000000000000006001610fd26111cf565b6110eb7f53f41a97000000000000000000000000000000000000000000000000000000006001610fd26111cf565b6110eb7fc05327e6000000000000000000000000000000000000000000000000000000006001610fd26111cf565b6110eb7f28963e1e000000000000000000000000000000000000000000000000000000006001610fd26111cf565b6110eb7f20c07ed1000000000000000000000000000000000000000000000000000000006001610fd25b6000806105f660017fca9d3e17f264b0f3984e2634e94adb37fa3e6a8103f06aeae6fa59e21c769f5e614353565b7c01000000000000000000000000000000000000000000000000000000007fffffffff000000000000000000000000000000000000000000000000000000008316016112a5576040517f08c379a000000000000000000000000000000000000000000000000000000000815260206004820152601f60248201527f496e74657266616365446574656374696f6e3a2077726f6e672076616c756500604482015260640161093e565b7fffffffff00000000000000000000000000000000000000000000000000000000919091166000908152602092909252604090912080547fffffffffffffffffffffffffffffffffffffffffffffffffffffffffffffff0016911515919091179055565b60007c01000000000000000000000000000000000000000000000000000000007fffffffff00000000000000000000000000000000000000000000000000000000831601611359575060006105f6565b7ffe003659000000000000000000000000000000000000000000000000000000007fffffffff000000000000000000000000000000000000000000000000000000008316016113aa575060016105f6565b507fffffffff00000000000000000000000000000000000000000000000000000000166000908152602091909152604090205460ff1690565b60608160000180546113f4906143bc565b80601f0160208091040260200160405190810160405280929190818152602001828054611420906143bc565b801561146d5780601f106114425761010080835404028352916020019161146d565b820191906000526020600020905b81548152906001019060200180831161145057829003601f168201915b50505050509050919050565b600061060e6136a8565b6000806105f660017f1da92899d3da68bf9787824388a37ea2bfa79780bcef91b9716c390eec8ecbef614353565b73ffffffffffffffffffffffffffffffffffffffff821661152e576040517f08c379a000000000000000000000000000000000000000000000000000000000815260206004820152601d60248201527f45524332303a20617070726f76616c20746f2061646472657373283029000000604482015260640161093e565b73ffffffffffffffffffffffffffffffffffffffff838116600081815260018701602090815260408083209487168084529482529182902085905590518481527f8c5be1e5ebec7d5bd14f71427d1e84f3dd0314c0f7b2291e5b200ac8c7c3b92591015b60405180910390a350505050565b8281811461160a576040517f08c379a000000000000000000000000000000000000000000000000000000000815260206004820152601a60248201527f45524332303a20696e636f6e73697374656e7420617272617973000000000000604482015260640161093e565b806000036116185750610ec0565b6000805b8281146117c657600087878381811061163757611637614324565b905060200201602081019061164c9190614092565b9050600086868481811061166257611662614324565b9050602002013590508973ffffffffffffffffffffffffffffffffffffffff168273ffffffffffffffffffffffffffffffffffffffff16146116aa576116aa8b838c84612c44565b801561176e5773ffffffffffffffffffffffffffffffffffffffff8216600090815260208c90526040902054818103818110611742576040517f08c379a000000000000000000000000000000000000000000000000000000000815260206004820152601b60248201527f45524332303a20696e73756666696369656e742062616c616e63650000000000604482015260640161093e565b73ffffffffffffffffffffffffffffffffffffffff8416600090815260208e9052604090205550928301925b60405181815260009073ffffffffffffffffffffffffffffffffffffffff8416907fddf252ad1be2c89b69c2b068fc378daa952ba7f163c4a11628f55a4df523b3ef9060200160405180910390a3505060010161161c565b5080156109e05760028801805482900390555050505050505050565b8373ffffffffffffffffffffffffffffffffffffffff168373ffffffffffffffffffffffffffffffffffffffff16146118215761182185848684612c44565b61182d85848484612d96565b5050505050565b815473ffffffffffffffffffffffffffffffffffffffff82811691161461077e576040517f08c379a000000000000000000000000000000000000000000000000000000000815260206004820152601860248201527f4f776e6572736869703a206e6f7420746865206f776e65720000000000000000604482015260640161093e565b6000806105f660017fc8827d3282af6f37b64c3e9e6f3ac9df286ab0bb0fccd6f8661bf19adb368b23614353565b60008381526020858152604080832073ffffffffffffffffffffffffffffffffffffffff8616845290915290205460ff1661087c5760008381526020858152604080832073ffffffffffffffffffffffffffffffffffffffff8681168086529184529382902080547fffffffffffffffffffffffffffffffffffffffffffffffffffffffffffffff00166001179055815187815292830152918316918101919091527f2f8788117e7eff1d82e926ec794901d17c78024a50270940304540a733656f0d906060015b60405180910390a150505050565b6000467f8b73c3c69bb8fe3d512ecc4cf759cc79239f7b179b0ffacaa9a75d522b39400f6119ea610609610f2c565b80516020918201206040805192830193909352918101919091527fc89efdaa54c0f20c7adf612882df0950f5a951637e0307cdcb4c672f298b8bc66060820152608081018290523060a082015260c0016040516020818303038152906040528051906020012091505090565b73ffffffffffffffffffffffffffffffffffffffff8216611ad3576040517f08c379a000000000000000000000000000000000000000000000000000000000815260206004820152601d60248201527f45524332303a20617070726f76616c20746f2061646472657373283029000000604482015260640161093e565b73ffffffffffffffffffffffffffffffffffffffff80841660009081526001860160209081526040808320938616835292905220548115611bb457808201818111611b7a576040517f08c379a000000000000000000000000000000000000000000000000000000000815260206004820152601960248201527f45524332303a20616c6c6f77616e6365206f766572666c6f7700000000000000604482015260640161093e565b73ffffffffffffffffffffffffffffffffffffffff8086166000908152600188016020908152604080832093881683529290522081905590505b8273ffffffffffffffffffffffffffffffffffffffff168473ffffffffffffffffffffffffffffffffffffffff167f8c5be1e5ebec7d5bd14f71427d1e84f3dd0314c0f7b2291e5b200ac8c7c3b92583604051611c1391815260200190565b60405180910390a35050505050565b6000806105f660017ff41bf6a5db26bffdfab174dcf66b31fbba8fdb7e3db040721ce1e62d61839ceb614353565b60008281526020848152604080832073ffffffffffffffffffffffffffffffffffffffff8516845290915290205460ff166106dd57611c8e826137ef565b604051602001611c9e919061456f565b604080517fffffffffffffffffffffffffffffffffffffffffffffffffffffffffffffffe0818403018152908290527f08c379a000000000000000000000000000000000000000000000000000000000825261093e91600401613e6c565b73ffffffffffffffffffffffffffffffffffffffff8216611d79576040517f08c379a000000000000000000000000000000000000000000000000000000000815260206004820152601960248201527f45524332303a206d696e7420746f206164647265737328302900000000000000604482015260640161093e565b8015611e22576002830154818101818111611df0576040517f08c379a000000000000000000000000000000000000000000000000000000000815260206004820152601660248201527f45524332303a20737570706c79206f766572666c6f7700000000000000000000604482015260640161093e565b60028501555073ffffffffffffffffffffffffffffffffffffffff821660009081526020849052604090208054820190555b60405181815273ffffffffffffffffffffffffffffffffffffffff8316906000907fddf252ad1be2c89b69c2b068fc378daa952ba7f163c4a11628f55a4df523b3ef906020015b60405180910390a3505050565b8015611f415773ffffffffffffffffffffffffffffffffffffffff8216600090815260208490526040902054818103818110611f0e576040517f08c379a000000000000000000000000000000000000000000000000000000000815260206004820152601b60248201527f45524332303a20696e73756666696369656e742062616c616e63650000000000604482015260640161093e565b73ffffffffffffffffffffffffffffffffffffffff84166000908152602086905260409020555060028301805482900390555b60405181815260009073ffffffffffffffffffffffffffffffffffffffff8416907fddf252ad1be2c89b69c2b068fc378daa952ba7f163c4a11628f55a4df523b3ef90602001611e69565b82818114611ff6576040517f08c379a000000000000000000000000000000000000000000000000000000000815260206004820152601a60248201527f45524332303a20696e636f6e73697374656e7420617272617973000000000000604482015260640161093e565b806000036120045750610cfb565b73ffffffffffffffffffffffffffffffffffffffff86166000908152602089905260408120549080805b8481146122da57600089898381811061204957612049614324565b905060200201602081019061205e9190614092565b905073ffffffffffffffffffffffffffffffffffffffff81166120dd576040517f08c379a000000000000000000000000000000000000000000000000000000000815260206004820152601d60248201527f45524332303a207472616e7366657220746f2061646472657373283029000000604482015260640161093e565b60008888848181106120f1576120f1614324565b905060200201359050806000146122695784810185811161216e576040517f08c379a000000000000000000000000000000000000000000000000000000000815260206004820152601660248201527f45524332303a2076616c756573206f766572666c6f7700000000000000000000604482015260640161093e565b8095508273ffffffffffffffffffffffffffffffffffffffff168d73ffffffffffffffffffffffffffffffffffffffff16146121f857818f60000160008573ffffffffffffffffffffffffffffffffffffffff1673ffffffffffffffffffffffffffffffffffffffff16815260200190815260200160002060008282540192505081905550612267565b86821115612262576040517f08c379a000000000000000000000000000000000000000000000000000000000815260206004820152601b60248201527f45524332303a20696e73756666696369656e742062616c616e63650000000000604482015260640161093e565b938101935b505b8173ffffffffffffffffffffffffffffffffffffffff168c73ffffffffffffffffffffffffffffffffffffffff167fddf252ad1be2c89b69c2b068fc378daa952ba7f163c4a11628f55a4df523b3ef836040516122c891815260200190565b60405180910390a3505060010161202e565b5081158015906122ea5750808214155b156123865781830383811061235b576040517f08c379a000000000000000000000000000000000000000000000000000000000815260206004820152601b60248201527f45524332303a20696e73756666696369656e742062616c616e63650000000000604482015260640161093e565b73ffffffffffffffffffffffffffffffffffffffff8a16600090815260208d90526040902090820190555b8973ffffffffffffffffffffffffffffffffffffffff168973ffffffffffffffffffffffffffffffffffffffff16146123c5576123c58b8a8c85612c44565b5050505050505050505050565b81518151811461243e576040517f08c379a000000000000000000000000000000000000000000000000000000000815260206004820152601a60248201527f45524332303a20696e636f6e73697374656e7420617272617973000000000000604482015260640161093e565b8060000361244c5750505050565b6000805b82811461262357600085828151811061246b5761246b614324565b60200260200101519050600073ffffffffffffffffffffffffffffffffffffffff168173ffffffffffffffffffffffffffffffffffffffff160361250b576040517f08c379a000000000000000000000000000000000000000000000000000000000815260206004820152601960248201527f45524332303a206d696e7420746f206164647265737328302900000000000000604482015260640161093e565b600085838151811061251f5761251f614324565b60200260200101519050806000146125cb5783810184811161259d576040517f08c379a000000000000000000000000000000000000000000000000000000000815260206004820152601660248201527f45524332303a2076616c756573206f766572666c6f7700000000000000000000604482015260640161093e565b73ffffffffffffffffffffffffffffffffffffffff8316600090815260208a90526040902080548301905593505b60405181815273ffffffffffffffffffffffffffffffffffffffff8316906000907fddf252ad1be2c89b69c2b068fc378daa952ba7f163c4a11628f55a4df523b3ef9060200160405180910390a35050600101612450565b50801561182d57600285015481810181811161269b576040517f08c379a000000000000000000000000000000000000000000000000000000000815260206004820152601660248201527f45524332303a20737570706c79206f766572666c6f7700000000000000000000604482015260640161093e565b6002870155505050505050565b6040805173ffffffffffffffffffffffffffffffffffffffff8416602482015260448082018490528251808303909101815260649091019091526020810180517bffffffffffffffffffffffffffffffffffffffffffffffffffffffff167fa9059cbb000000000000000000000000000000000000000000000000000000001790526106dd908490613981565b8273ffffffffffffffffffffffffffffffffffffffff168273ffffffffffffffffffffffffffffffffffffffff16146127745761277484838584612c44565b61087c848383611e76565b6000806105f660017f93fe0ff7226b064a4a8f0b09910762afb4bc2441835792c021ffd78cd513011e614353565b82818114612817576040517f08c379a000000000000000000000000000000000000000000000000000000000815260206004820152601a60248201527f45524332303a20696e636f6e73697374656e7420617272617973000000000000604482015260640161093e565b806000036128255750610ec0565b73ffffffffffffffffffffffffffffffffffffffff86166000908152602088905260408120549080805b848114612ad757600089898381811061286a5761286a614324565b905060200201602081019061287f9190614092565b905073ffffffffffffffffffffffffffffffffffffffff81166128fe576040517f08c379a000000000000000000000000000000000000000000000000000000000815260206004820152601d60248201527f45524332303a207472616e7366657220746f2061646472657373283029000000604482015260640161093e565b600088888481811061291257612912614324565b90506020020135905080600014612a665784810185811161298f576040517f08c379a000000000000000000000000000000000000000000000000000000000815260206004820152601660248201527f45524332303a2076616c756573206f766572666c6f7700000000000000000000604482015260640161093e565b8095508273ffffffffffffffffffffffffffffffffffffffff168d73ffffffffffffffffffffffffffffffffffffffff16146129f55773ffffffffffffffffffffffffffffffffffffffff8316600090815260208f905260409020805483019055612a64565b86821115612a5f576040517f08c379a000000000000000000000000000000000000000000000000000000000815260206004820152601b60248201527f45524332303a20696e73756666696369656e742062616c616e63650000000000604482015260640161093e565b938101935b505b8173ffffffffffffffffffffffffffffffffffffffff168c73ffffffffffffffffffffffffffffffffffffffff167fddf252ad1be2c89b69c2b068fc378daa952ba7f163c4a11628f55a4df523b3ef83604051612ac591815260200190565b60405180910390a3505060010161284f565b508115801590612ae75750808214155b15612b8357818303838110612b58576040517f08c379a000000000000000000000000000000000000000000000000000000000815260206004820152601b60248201527f45524332303a20696e73756666696369656e742062616c616e63650000000000604482015260640161093e565b73ffffffffffffffffffffffffffffffffffffffff8a16600090815260208c90526040902090820190555b50505050505050505050565b612b9a838284611c50565b60008181526020848152604080832073ffffffffffffffffffffffffffffffffffffffff86168085529083529281902080547fffffffffffffffffffffffffffffffffffffffffffffffffffffffffffffff0016905580518481529182018390528101919091527ff6391f5c32d9c69d2a47ea670b442974b53935d1edc7fd64eb21e047a839171b9060600160405180910390a1505050565b60608160010180546113f4906143bc565b73ffffffffffffffffffffffffffffffffffffffff8216612cc1576040517f08c379a000000000000000000000000000000000000000000000000000000000815260206004820152601d60248201527f45524332303a20617070726f76616c20746f2061646472657373283029000000604482015260640161093e565b73ffffffffffffffffffffffffffffffffffffffff80841660009081526001860160209081526040808320938616835292905220547fffffffffffffffffffffffffffffffffffffffffffffffffffffffffffffffff8114801590612d2557508115155b15611bb457818103818110611b7a576040517f08c379a000000000000000000000000000000000000000000000000000000000815260206004820152601d60248201527f45524332303a20696e73756666696369656e7420616c6c6f77616e6365000000604482015260640161093e565b73ffffffffffffffffffffffffffffffffffffffff8216612e13576040517f08c379a000000000000000000000000000000000000000000000000000000000815260206004820152601d60248201527f45524332303a207472616e7366657220746f2061646472657373283029000000604482015260640161093e565b8015612f185773ffffffffffffffffffffffffffffffffffffffff8316600090815260208590526040902054818103818110612eab576040517f08c379a000000000000000000000000000000000000000000000000000000000815260206004820152601b60248201527f45524332303a20696e73756666696369656e742062616c616e63650000000000604482015260640161093e565b8373ffffffffffffffffffffffffffffffffffffffff168573ffffffffffffffffffffffffffffffffffffffff1614612f155773ffffffffffffffffffffffffffffffffffffffff8086166000908152602088905260408082208490559186168152208054840190555b50505b8173ffffffffffffffffffffffffffffffffffffffff168373ffffffffffffffffffffffffffffffffffffffff167fddf252ad1be2c89b69c2b068fc378daa952ba7f163c4a11628f55a4df523b3ef8360405161159291815260200190565b612f8487878787876117e2565b73ffffffffffffffffffffffffffffffffffffffff84163b15610cfb57610cfb8686868686868080601f016020809104026020016040519081016040528093929190818152602001838380828437600092019190915250613a8d92505050565b73ffffffffffffffffffffffffffffffffffffffff8716613061576040517f08c379a000000000000000000000000000000000000000000000000000000000815260206004820152601d60248201527f45524332303a207065726d69742066726f6d2061646472657373283029000000604482015260640161093e565b834211156130cb576040517f08c379a000000000000000000000000000000000000000000000000000000000815260206004820152601560248201527f45524332303a2065787069726564207065726d69740000000000000000000000604482015260640161093e565b73ffffffffffffffffffffffffffffffffffffffff878116600081815260208b8152604080832080546001810190915581517f6e71edae12b1b97f4d1f60370fef10105fa2faae0126114a169c64845d6126c98185015280830195909552948b166060850152608084018a905260a084019490945260c08084018990528451808503909101815260e0909301909352815191909201209061316a6119bb565b6040517f19010000000000000000000000000000000000000000000000000000000000006020820152602281019190915260428101839052606201604080517fffffffffffffffffffffffffffffffffffffffffffffffffffffffffffffffe08184030181528282528051602091820120600080855291840180845281905260ff89169284019290925260608301879052608083018690529092509060019060a0016020604051602081039080840390855afa15801561322e573d6000803e3d6000fd5b5050506020604051035190508973ffffffffffffffffffffffffffffffffffffffff168173ffffffffffffffffffffffffffffffffffffffff16146132cf576040517f08c379a000000000000000000000000000000000000000000000000000000000815260206004820152601560248201527f45524332303a20696e76616c6964207065726d69740000000000000000000000604482015260640161093e565b5050506109e087878761062a611483565b60008381526020858152604080832073ffffffffffffffffffffffffffffffffffffffff8616845290915290205460ff161561087c5760008381526020858152604080832073ffffffffffffffffffffffffffffffffffffffff8681168086529184529382902080547fffffffffffffffffffffffffffffffffffffffffffffffffffffffffffffff00169055815187815292830152918316918101919091527ff6391f5c32d9c69d2a47ea670b442974b53935d1edc7fd64eb21e047a839171b906060016119ad565b8261087c8284836145db565b6133c286868686612d96565b73ffffffffffffffffffffffffffffffffffffffff84163b15610ec057610ec08586868686868080601f016020809104026020016040519081016040528093929190818152602001838380828437600092019190915250613a8d92505050565b825473ffffffffffffffffffffffffffffffffffffffff90811690831681146134a7576040517f08c379a000000000000000000000000000000000000000000000000000000000815260206004820152601860248201527f4f776e6572736869703a206e6f7420746865206f776e65720000000000000000604482015260640161093e565b8173ffffffffffffffffffffffffffffffffffffffff168173ffffffffffffffffffffffffffffffffffffffff161461087c5783547fffffffffffffffffffffffff00000000000000000000000000000000000000001673ffffffffffffffffffffffffffffffffffffffff8381169182178655604051908316907f8be0079c531659141344cd1fd0a4f28419497f9722a3daafe3b4186f6b6457e090600090a350505050565b804710156135b8576040517f08c379a000000000000000000000000000000000000000000000000000000000815260206004820152601d60248201527f416464726573733a20696e73756666696369656e742062616c616e6365000000604482015260640161093e565b60008273ffffffffffffffffffffffffffffffffffffffff168260405160006040518083038185875af1925050503d8060008114613612576040519150601f19603f3d011682016040523d82523d6000602084013e613617565b606091505b50509050806106dd576040517f08c379a000000000000000000000000000000000000000000000000000000000815260206004820152603a60248201527f416464726573733a20756e61626c6520746f2073656e642076616c75652c207260448201527f6563697069656e74206d61792068617665207265766572746564000000000000606482015260840161093e565b6000333214806136b85750601836105b156136c257503390565b7fffffffffffffffffffffffffffffffffffffffffffffffffffffffffffffffec36013560601c7f000000000000000000000000000000000000000000000000000000000000000073ffffffffffffffffffffffffffffffffffffffff163314806137de57506040517f8929a8ca00000000000000000000000000000000000000000000000000000000815273ffffffffffffffffffffffffffffffffffffffff82811660048301523360248301527f00000000000000000000000000000000000000000000000000000000000000001690638929a8ca90604401602060405180830381865afa1580156137ba573d6000803e3d6000fd5b505050506040513d601f19601f820116820180604052508101906137de91906146f5565b156137e857919050565b3391505090565b6060600082900361380e57505060408051602081019091526000815290565b60008260405160200161382391815260200190565b604080517fffffffffffffffffffffffffffffffffffffffffffffffffffffffffffffffe08184030181529190529050601f5b81818151811061386857613868614324565b01602001517fff00000000000000000000000000000000000000000000000000000000000000166000036138bd577fffffffffffffffffffffffffffffffffffffffffffffffffffffffffffffffff01613856565b60008160010167ffffffffffffffff8111156138db576138db61438d565b6040519080825280601f01601f191660200182016040528015613905576020820181803683370190505b50905060005b8281116139785783818151811061392457613924614324565b602001015160f81c60f81b82828151811061394157613941614324565b60200101907effffffffffffffffffffffffffffffffffffffffffffffffffffffffffffff1916908160001a90535060010161390b565b50949350505050565b60006139e3826040518060400160405280602081526020017f5361666545524332303a206c6f772d6c6576656c2063616c6c206661696c65648152508573ffffffffffffffffffffffffffffffffffffffff16613bb39092919063ffffffff16565b8051909150156106dd5780806020019051810190613a0191906146f5565b6106dd576040517f08c379a000000000000000000000000000000000000000000000000000000000815260206004820152602a60248201527f5361666545524332303a204552433230206f7065726174696f6e20646964206e60448201527f6f74207375636365656400000000000000000000000000000000000000000000606482015260840161093e565b6040517f4fc35859000000000000000000000000000000000000000000000000000000008082529073ffffffffffffffffffffffffffffffffffffffff851690634fc3585990613ae7908990899088908890600401614717565b6020604051808303816000875af1158015613b06573d6000803e3d6000fd5b505050506040513d601f19601f82011682018060405250810190613b2a9190614760565b7fffffffff00000000000000000000000000000000000000000000000000000000161461182d576040517f08c379a000000000000000000000000000000000000000000000000000000000815260206004820152601d60248201527f45524332303a2073616665207472616e736665722072656a6563746564000000604482015260640161093e565b6060613bc28484600085613bca565b949350505050565b606082471015613c5c576040517f08c379a000000000000000000000000000000000000000000000000000000000815260206004820152602660248201527f416464726573733a20696e73756666696369656e742062616c616e636520666f60448201527f722063616c6c0000000000000000000000000000000000000000000000000000606482015260840161093e565b73ffffffffffffffffffffffffffffffffffffffff85163b613cda576040517f08c379a000000000000000000000000000000000000000000000000000000000815260206004820152601d60248201527f416464726573733a2063616c6c20746f206e6f6e2d636f6e7472616374000000604482015260640161093e565b6000808673ffffffffffffffffffffffffffffffffffffffff168587604051613d03919061477d565b60006040518083038185875af1925050503d8060008114613d40576040519150601f19603f3d011682016040523d82523d6000602084013e613d45565b606091505b5091509150613d55828286613d60565b979650505050505050565b60608315613d6f5750816106a2565b825115613d7f5782518084602001fd5b816040517f08c379a000000000000000000000000000000000000000000000000000000000815260040161093e9190613e6c565b7fffffffff0000000000000000000000000000000000000000000000000000000081168114610a5557600080fd5b600060208284031215613df357600080fd5b81356106a281613db3565b60005b83811015613e19578181015183820152602001613e01565b50506000910152565b60008151808452613e3a816020860160208601613dfe565b601f017fffffffffffffffffffffffffffffffffffffffffffffffffffffffffffffffe0169290920160200192915050565b6020815260006106a26020830184613e22565b73ffffffffffffffffffffffffffffffffffffffff81168114610a5557600080fd5b60008060408385031215613eb457600080fd5b8235613ebf81613e7f565b946020939093013593505050565b60008083601f840112613edf57600080fd5b50813567ffffffffffffffff811115613ef757600080fd5b6020830191508360208260051b8501011115613f1257600080fd5b9250929050565b60008060008060408587031215613f2f57600080fd5b843567ffffffffffffffff80821115613f4757600080fd5b613f5388838901613ecd565b90965094506020870135915080821115613f6c57600080fd5b50613f7987828801613ecd565b95989497509550505050565b600080600060608486031215613f9a57600080fd5b8335613fa581613e7f565b92506020840135613fb581613e7f565b929592945050506040919091013590565b60008060408385031215613fd957600080fd5b823591506020830135613feb81613e7f565b809150509250929050565b60006020828403121561400857600080fd5b5035919050565b60008060008060006060868803121561402757600080fd5b853561403281613e7f565b9450602086013567ffffffffffffffff8082111561404f57600080fd5b61405b89838a01613ecd565b9096509450604088013591508082111561407457600080fd5b5061408188828901613ecd565b969995985093965092949392505050565b6000602082840312156140a457600080fd5b81356106a281613e7f565b600080600080600080606087890312156140c857600080fd5b863567ffffffffffffffff808211156140e057600080fd5b6140ec8a838b01613ecd565b9098509650602089013591508082111561410557600080fd5b6141118a838b01613ecd565b9096509450604089013591508082111561412a57600080fd5b5061413789828a01613ecd565b979a9699509497509295939492505050565b60008083601f84011261415b57600080fd5b50813567ffffffffffffffff81111561417357600080fd5b602083019150836020828501011115613f1257600080fd5b6000806000806000608086880312156141a357600080fd5b85356141ae81613e7f565b945060208601356141be81613e7f565b935060408601359250606086013567ffffffffffffffff8111156141e157600080fd5b61408188828901614149565b600080600080600080600060e0888a03121561420857600080fd5b873561421381613e7f565b9650602088013561422381613e7f565b95506040880135945060608801359350608088013560ff8116811461424757600080fd5b9699959850939692959460a0840135945060c09093013592915050565b6000806040838503121561427757600080fd5b823561428281613e7f565b91506020830135613feb81613e7f565b600080602083850312156142a557600080fd5b823567ffffffffffffffff8111156142bc57600080fd5b6142c885828601614149565b90969095509350505050565b600080600080606085870312156142ea57600080fd5b84356142f581613e7f565b935060208501359250604085013567ffffffffffffffff81111561431857600080fd5b613f7987828801614149565b7f4e487b7100000000000000000000000000000000000000000000000000000000600052603260045260246000fd5b818103818111156105f6577f4e487b7100000000000000000000000000000000000000000000000000000000600052601160045260246000fd5b7f4e487b7100000000000000000000000000000000000000000000000000000000600052604160045260246000fd5b600181811c908216806143d057607f821691505b602082108103614409577f4e487b7100000000000000000000000000000000000000000000000000000000600052602260045260246000fd5b50919050565b601f8211156106dd57600081815260208120601f850160051c810160208610156144365750805b601f850160051c820191505b81811015610ec057828155600101614442565b815167ffffffffffffffff81111561446f5761446f61438d565b6144838161447d84546143bc565b8461440f565b602080601f8311600181146144d657600084156144a05750858301515b7fffffffffffffffffffffffffffffffffffffffffffffffffffffffffffffffff600386901b1c1916600185901b178555610ec0565b6000858152602081207fffffffffffffffffffffffffffffffffffffffffffffffffffffffffffffffe08616915b8281101561452357888601518255948401946001909101908401614504565b508582101561455f57878501517fffffffffffffffffffffffffffffffffffffffffffffffffffffffffffffffff600388901b60f8161c191681555b5050505050600190811b01905550565b7f416363657373436f6e74726f6c3a206d697373696e67202700000000000000008152600082516145a7816018850160208701613dfe565b7f2720726f6c6500000000000000000000000000000000000000000000000000006018939091019283015250601e01919050565b67ffffffffffffffff8311156145f3576145f361438d565b6146078361460183546143bc565b8361440f565b6000601f84116001811461465957600085156146235750838201355b7fffffffffffffffffffffffffffffffffffffffffffffffffffffffffffffffff600387901b1c1916600186901b17835561182d565b6000838152602090207fffffffffffffffffffffffffffffffffffffffffffffffffffffffffffffffe0861690835b828110156146a85786850135825560209485019460019092019101614688565b50868210156146e3577fffffffffffffffffffffffffffffffffffffffffffffffffffffffffffffffff60f88860031b161c19848701351681555b505060018560011b0183555050505050565b60006020828403121561470757600080fd5b815180151581146106a257600080fd5b600073ffffffffffffffffffffffffffffffffffffffff8087168352808616602084015250836040830152608060608301526147566080830184613e22565b9695505050505050565b60006020828403121561477257600080fd5b81516106a281613db3565b6000825161478f818460208701613dfe565b919091019291505056fea2646970667358221220a87db55fc98f30bdf1c2e2545cb67b00c505c068d685d22923f76f2649c1965d64736f6c63430008110033",
  "linkReferences": {},
  "deployedLinkReferences": {}
}