{
  "_format": "hh-sol-artifact-1",
  "contractName": "PolygonREVV",
  "sourceName": "contracts/token/ERC20/PolygonREVV.sol",
  "abi": [
    {
      "inputs": [
        {
          "internalType": "uint256",
          "name": "supply",
          "type": "uint256"
        },
        {
          "internalType": "contract IForwarderRegistry",
          "name": "forwarderRegistry",
          "type": "address"
        },
        {
          "internalType": "address",
          "name": "universalForwarder",
          "type": "address"
        }
      ],
      "stateMutability": "nonpayable",
      "type": "constructor"
    },
    {
      "anonymous": false,
      "inputs": [
        {
          "indexed": true,
          "internalType": "address",
          "name": "_owner",
          "type": "address"
        },
        {
          "indexed": true,
          "internalType": "address",
          "name": "_spender",
          "type": "address"
        },
        {
          "indexed": false,
          "internalType": "uint256",
          "name": "_value",
          "type": "uint256"
        }
      ],
      "name": "Approval",
      "type": "event"
    },
    {
      "anonymous": false,
      "inputs": [
        {
          "indexed": true,
          "internalType": "address",
          "name": "previousOwner",
          "type": "address"
        },
        {
          "indexed": true,
          "internalType": "address",
          "name": "newOwner",
          "type": "address"
        }
      ],
      "name": "OwnershipTransferred",
      "type": "event"
    },
    {
      "anonymous": false,
      "inputs": [
        {
          "indexed": true,
          "internalType": "address",
          "name": "_from",
          "type": "address"
        },
        {
          "indexed": true,
          "internalType": "address",
          "name": "_to",
          "type": "address"
        },
        {
          "indexed": false,
          "internalType": "uint256",
          "name": "_value",
          "type": "uint256"
        }
      ],
      "name": "Transfer",
      "type": "event"
    },
    {
      "anonymous": false,
      "inputs": [
        {
          "indexed": false,
          "internalType": "address",
          "name": "account",
          "type": "address"
        },
        {
          "indexed": false,
          "internalType": "uint256",
          "name": "value",
          "type": "uint256"
        }
      ],
      "name": "Withdrawn",
      "type": "event"
    },
    {
      "inputs": [],
      "name": "DOMAIN_SEPARATOR",
      "outputs": [
        {
          "internalType": "bytes32",
          "name": "",
          "type": "bytes32"
        }
      ],
      "stateMutability": "view",
      "type": "function"
    },
    {
      "inputs": [
        {
          "internalType": "address",
          "name": "owner",
          "type": "address"
        },
        {
          "internalType": "address",
          "name": "spender",
          "type": "address"
        }
      ],
      "name": "allowance",
      "outputs": [
        {
          "internalType": "uint256",
          "name": "",
          "type": "uint256"
        }
      ],
      "stateMutability": "view",
      "type": "function"
    },
    {
      "inputs": [
        {
          "internalType": "address",
          "name": "spender",
          "type": "address"
        },
        {
          "internalType": "uint256",
          "name": "value",
          "type": "uint256"
        }
      ],
      "name": "approve",
      "outputs": [
        {
          "internalType": "bool",
          "name": "",
          "type": "bool"
        }
      ],
      "stateMutability": "nonpayable",
      "type": "function"
    },
    {
      "inputs": [
        {
          "internalType": "address",
          "name": "account",
          "type": "address"
        }
      ],
      "name": "balanceOf",
      "outputs": [
        {
          "internalType": "uint256",
          "name": "",
          "type": "uint256"
        }
      ],
      "stateMutability": "view",
      "type": "function"
    },
    {
      "inputs": [
        {
          "internalType": "address[]",
          "name": "recipients",
          "type": "address[]"
        },
        {
          "internalType": "uint256[]",
          "name": "values",
          "type": "uint256[]"
        }
      ],
      "name": "batchTransfer",
      "outputs": [
        {
          "internalType": "bool",
          "name": "",
          "type": "bool"
        }
      ],
      "stateMutability": "nonpayable",
      "type": "function"
    },
    {
      "inputs": [
        {
          "internalType": "address",
          "name": "from",
          "type": "address"
        },
        {
          "internalType": "address[]",
          "name": "recipients",
          "type": "address[]"
        },
        {
          "internalType": "uint256[]",
          "name": "values",
          "type": "uint256[]"
        }
      ],
      "name": "batchTransferFrom",
      "outputs": [
        {
          "internalType": "bool",
          "name": "",
          "type": "bool"
        }
      ],
      "stateMutability": "nonpayable",
      "type": "function"
    },
    {
      "inputs": [],
      "name": "decimals",
      "outputs": [
        {
          "internalType": "uint8",
          "name": "",
          "type": "uint8"
        }
      ],
      "stateMutability": "view",
      "type": "function"
    },
    {
      "inputs": [
        {
          "internalType": "address",
          "name": "spender",
          "type": "address"
        },
        {
          "internalType": "uint256",
          "name": "subtractedValue",
          "type": "uint256"
        }
      ],
      "name": "decreaseAllowance",
      "outputs": [
        {
          "internalType": "bool",
          "name": "",
          "type": "bool"
        }
      ],
      "stateMutability": "nonpayable",
      "type": "function"
    },
    {
      "inputs": [],
      "name": "deploymentChainId",
      "outputs": [
        {
          "internalType": "uint256",
          "name": "",
          "type": "uint256"
        }
      ],
      "stateMutability": "view",
      "type": "function"
    },
    {
      "inputs": [
        {
          "internalType": "address",
          "name": "user",
          "type": "address"
        },
        {
          "internalType": "bytes",
          "name": "depositData",
          "type": "bytes"
        }
      ],
      "name": "deposit",
      "outputs": [],
      "stateMutability": "nonpayable",
      "type": "function"
    },
    {
      "inputs": [],
      "name": "depositor",
      "outputs": [
        {
          "internalType": "address",
          "name": "",
          "type": "address"
        }
      ],
      "stateMutability": "view",
      "type": "function"
    },
    {
      "inputs": [],
      "name": "escrowed",
      "outputs": [
        {
          "internalType": "uint256",
          "name": "",
          "type": "uint256"
        }
      ],
      "stateMutability": "view",
      "type": "function"
    },
    {
      "inputs": [
        {
          "internalType": "address",
          "name": "spender",
          "type": "address"
        },
        {
          "internalType": "uint256",
          "name": "addedValue",
          "type": "uint256"
        }
      ],
      "name": "increaseAllowance",
      "outputs": [
        {
          "internalType": "bool",
          "name": "",
          "type": "bool"
        }
      ],
      "stateMutability": "nonpayable",
      "type": "function"
    },
    {
      "inputs": [
        {
          "internalType": "address",
          "name": "forwarder",
          "type": "address"
        }
      ],
      "name": "isTrustedForwarder",
      "outputs": [
        {
          "internalType": "bool",
          "name": "",
          "type": "bool"
        }
      ],
      "stateMutability": "view",
      "type": "function"
    },
    {
      "inputs": [],
      "name": "name",
      "outputs": [
        {
          "internalType": "string",
          "name": "",
          "type": "string"
        }
      ],
      "stateMutability": "view",
      "type": "function"
    },
    {
      "inputs": [
        {
          "internalType": "address",
          "name": "",
          "type": "address"
        }
      ],
      "name": "nonces",
      "outputs": [
        {
          "internalType": "uint256",
          "name": "",
          "type": "uint256"
        }
      ],
      "stateMutability": "view",
      "type": "function"
    },
    {
      "inputs": [
        {
          "internalType": "address",
          "name": "operator",
          "type": "address"
        },
        {
          "internalType": "address",
          "name": "from",
          "type": "address"
        },
        {
          "internalType": "uint256",
          "name": "amount",
          "type": "uint256"
        },
        {
          "internalType": "bytes",
          "name": "data",
          "type": "bytes"
        }
      ],
      "name": "onERC20Received",
      "outputs": [
        {
          "internalType": "bytes4",
          "name": "",
          "type": "bytes4"
        }
      ],
      "stateMutability": "nonpayable",
      "type": "function"
    },
    {
      "inputs": [],
      "name": "owner",
      "outputs": [
        {
          "internalType": "address",
          "name": "",
          "type": "address"
        }
      ],
      "stateMutability": "view",
      "type": "function"
    },
    {
      "inputs": [
        {
          "internalType": "address",
          "name": "owner",
          "type": "address"
        },
        {
          "internalType": "address",
          "name": "spender",
          "type": "address"
        },
        {
          "internalType": "uint256",
          "name": "value",
          "type": "uint256"
        },
        {
          "internalType": "uint256",
          "name": "deadline",
          "type": "uint256"
        },
        {
          "internalType": "uint8",
          "name": "v",
          "type": "uint8"
        },
        {
          "internalType": "bytes32",
          "name": "r",
          "type": "bytes32"
        },
        {
          "internalType": "bytes32",
          "name": "s",
          "type": "bytes32"
        }
      ],
      "name": "permit",
      "outputs": [],
      "stateMutability": "nonpayable",
      "type": "function"
    },
    {
      "inputs": [
        {
          "internalType": "address[]",
          "name": "accounts",
          "type": "address[]"
        },
        {
          "internalType": "address[]",
          "name": "tokens",
          "type": "address[]"
        },
        {
          "internalType": "uint256[]",
          "name": "amounts",
          "type": "uint256[]"
        }
      ],
      "name": "recoverERC20s",
      "outputs": [],
      "stateMutability": "nonpayable",
      "type": "function"
    },
    {
      "inputs": [
        {
          "internalType": "address[]",
          "name": "accounts",
          "type": "address[]"
        },
        {
          "internalType": "address[]",
          "name": "contracts",
          "type": "address[]"
        },
        {
          "internalType": "uint256[]",
          "name": "tokenIds",
          "type": "uint256[]"
        }
      ],
      "name": "recoverERC721s",
      "outputs": [],
      "stateMutability": "nonpayable",
      "type": "function"
    },
    {
      "inputs": [
        {
          "internalType": "address",
          "name": "to",
          "type": "address"
        },
        {
          "internalType": "uint256",
          "name": "amount",
          "type": "uint256"
        },
        {
          "internalType": "bytes",
          "name": "data",
          "type": "bytes"
        }
      ],
      "name": "safeTransfer",
      "outputs": [
        {
          "internalType": "bool",
          "name": "",
          "type": "bool"
        }
      ],
      "stateMutability": "nonpayable",
      "type": "function"
    },
    {
      "inputs": [
        {
          "internalType": "address",
          "name": "from",
          "type": "address"
        },
        {
          "internalType": "address",
          "name": "to",
          "type": "address"
        },
        {
          "internalType": "uint256",
          "name": "amount",
          "type": "uint256"
        },
        {
          "internalType": "bytes",
          "name": "data",
          "type": "bytes"
        }
      ],
      "name": "safeTransferFrom",
      "outputs": [
        {
          "internalType": "bool",
          "name": "",
          "type": "bool"
        }
      ],
      "stateMutability": "nonpayable",
      "type": "function"
    },
    {
      "inputs": [
        {
          "internalType": "address",
          "name": "childChainManager",
          "type": "address"
        }
      ],
      "name": "setDepositor",
      "outputs": [],
      "stateMutability": "nonpayable",
      "type": "function"
    },
    {
      "inputs": [
        {
          "internalType": "string",
          "name": "tokenURI_",
          "type": "string"
        }
      ],
      "name": "setTokenURI",
      "outputs": [],
      "stateMutability": "nonpayable",
      "type": "function"
    },
    {
      "inputs": [
        {
          "internalType": "bytes4",
          "name": "interfaceId",
          "type": "bytes4"
        }
      ],
      "name": "supportsInterface",
      "outputs": [
        {
          "internalType": "bool",
          "name": "",
          "type": "bool"
        }
      ],
      "stateMutability": "view",
      "type": "function"
    },
    {
      "inputs": [],
      "name": "symbol",
      "outputs": [
        {
          "internalType": "string",
          "name": "",
          "type": "string"
        }
      ],
      "stateMutability": "view",
      "type": "function"
    },
    {
      "inputs": [],
      "name": "test",
      "outputs": [],
      "stateMutability": "nonpayable",
      "type": "function"
    },
    {
      "inputs": [],
      "name": "tokenURI",
      "outputs": [
        {
          "internalType": "string",
          "name": "",
          "type": "string"
        }
      ],
      "stateMutability": "view",
      "type": "function"
    },
    {
      "inputs": [],
      "name": "totalSupply",
      "outputs": [
        {
          "internalType": "uint256",
          "name": "",
          "type": "uint256"
        }
      ],
      "stateMutability": "view",
      "type": "function"
    },
    {
      "inputs": [
        {
          "internalType": "address",
          "name": "to",
          "type": "address"
        },
        {
          "internalType": "uint256",
          "name": "value",
          "type": "uint256"
        }
      ],
      "name": "transfer",
      "outputs": [
        {
          "internalType": "bool",
          "name": "",
          "type": "bool"
        }
      ],
      "stateMutability": "nonpayable",
      "type": "function"
    },
    {
      "inputs": [
        {
          "internalType": "address",
          "name": "from",
          "type": "address"
        },
        {
          "internalType": "address",
          "name": "to",
          "type": "address"
        },
        {
          "internalType": "uint256",
          "name": "value",
          "type": "uint256"
        }
      ],
      "name": "transferFrom",
      "outputs": [
        {
          "internalType": "bool",
          "name": "",
          "type": "bool"
        }
      ],
      "stateMutability": "nonpayable",
      "type": "function"
    },
    {
      "inputs": [
        {
          "internalType": "address",
          "name": "newOwner",
          "type": "address"
        }
      ],
      "name": "transferOwnership",
      "outputs": [],
      "stateMutability": "nonpayable",
      "type": "function"
    },
    {
      "inputs": [
        {
          "internalType": "uint256",
          "name": "amount",
          "type": "uint256"
        }
      ],
      "name": "withdraw",
      "outputs": [],
      "stateMutability": "nonpayable",
      "type": "function"
    }
  ],
  "bytecode": "0x6101206040523480156200001257600080fd5b506040516200317e3803806200317e833981810160405260608110156200003857600080fd5b508051602080830151604093840151845180860186526004808252632922ab2b60e11b828601819052875180890189529182528186015286519485018752600080865280546001600160a01b0319163390811782559751969794969395929491936012939286928692869286928c928c929182917f8be0079c531659141344cd1fd0a4f28419497f9722a3daafe3b4186f6b6457e0908290a3506001600160601b0319606091821b811660a05291901b1660805283516200010190600290602087019062000342565b5082516200011790600390602086019062000342565b507fff0000000000000000000000000000000000000000000000000000000000000060f883901b166101005280516200015890600490602084019062000342565b504660c08190526200016b818662000192565b60e052506200018797503096508a9550506200021c9350505050565b5050600955620003ee565b8051602091820120604080517f8b73c3c69bb8fe3d512ecc4cf759cc79239f7b179b0ffacaa9a75d522b39400f81850152808201929092527fc89efdaa54c0f20c7adf612882df0950f5a951637e0307cdcb4c672f298b8bc6606083015260808201939093523060a0808301919091528351808303909101815260c0909101909252815191012090565b6001600160a01b03821662000278576040805162461bcd60e51b815260206004820152601360248201527f45524332303a207a65726f206164647265737300000000000000000000000000604482015290519081900360640190fd5b6007548115620002fc57808201818111620002da576040805162461bcd60e51b815260206004820152601660248201527f45524332303a20737570706c79206f766572666c6f7700000000000000000000604482015290519081900360640190fd5b6007556001600160a01b03831660009081526005602052604090208054830190555b6040805183815290516001600160a01b038516916000917fddf252ad1be2c89b69c2b068fc378daa952ba7f163c4a11628f55a4df523b3ef9181900360200190a3505050565b828054600181600116156101000203166002900490600052602060002090601f0160209004810192826200037a5760008555620003c5565b82601f106200039557805160ff1916838001178555620003c5565b82800160010185558215620003c5579182015b82811115620003c5578251825591602001919060010190620003a8565b50620003d3929150620003d7565b5090565b5b80821115620003d35760008155600101620003d8565b60805160601c60a05160601c60c05160e0516101005160f81c612d336200044b60003980610d6f525080610e57525080610d965280611d635250806113a55280612b1d5250806113e05280612ae25280612b755250612d336000f3fe608060405234801561001057600080fd5b50600436106102265760003560e01c806388d695b21161012a578063cd0d0096116100bd578063e0df5b6f1161008c578063f2c098b711610071578063f2c098b714610c09578063f2fde38b14610c2f578063f8a8fd6d14610c5557610226565b8063e0df5b6f14610ade578063eb79554914610b8457610226565b8063cd0d0096146109d7578063cf2c52cb146109df578063d505accf14610a5f578063dd62ed3e14610ab057610226565b8063a9059cbb116100f9578063a9059cbb146107ff578063b88d4fde1461082b578063c3666c36146108bb578063c7c4ff46146109cf57610226565b806388d695b2146106e55780638da5cb5b146107a757806395d89b41146107cb578063a457c2d7146107d357610226565b80633644e515116101bd5780634fc358591161018c57806370a082311161017157806370a082311461058557806373c8a958146105ab5780637ecebe00146106bf57610226565b80634fc35859146104b2578063572b6c051461055f57610226565b80633644e515146103a457806339509351146103ac5780633c130d90146103d85780634885b254146103e057610226565b806318160ddd116101f957806318160ddd1461032957806323b872dd146103315780632e1a7d4d14610367578063313ce5671461038657610226565b806301522b1e1461022b57806301ffc9a71461024557806306fdde0314610280578063095ea7b3146102fd575b600080fd5b610233610c5d565b60408051918252519081900360200190f35b61026c6004803603602081101561025b57600080fd5b50356001600160e01b031916610c63565b604080519115158252519081900360200190f35b610288610c83565b6040805160208082528351818301528351919283929083019185019080838360005b838110156102c25781810151838201526020016102aa565b50505050905090810190601f1680156102ef5780820380516001836020036101000a031916815260200191505b509250505060405180910390f35b61026c6004803603604081101561031357600080fd5b506001600160a01b038135169060200135610d17565b610233610d34565b61026c6004803603606081101561034757600080fd5b506001600160a01b03813581169160208101359091169060400135610d3a565b6103846004803603602081101561037d57600080fd5b5035610d59565b005b61038e610d6d565b6040805160ff9092168252519081900360200190f35b610233610d91565b61026c600480360360408110156103c257600080fd5b506001600160a01b038135169060200135610e7d565b610288610feb565b61026c600480360360608110156103f657600080fd5b6001600160a01b03823516919081019060408101602082013564010000000081111561042157600080fd5b82018360208201111561043357600080fd5b8035906020019184602083028401116401000000008311171561045557600080fd5b91939092909160208101903564010000000081111561047357600080fd5b82018360208201111561048557600080fd5b803590602001918460208302840111640100000000831117156104a757600080fd5b50909250905061104c565b610542600480360360808110156104c857600080fd5b6001600160a01b0382358116926020810135909116916040820135919081019060808101606082013564010000000081111561050357600080fd5b82018360208201111561051557600080fd5b8035906020019184600183028401116401000000008311171561053757600080fd5b509092509050611380565b604080516001600160e01b03199092168252519081900360200190f35b61026c6004803603602081101561057557600080fd5b50356001600160a01b03166113a1565b6102336004803603602081101561059b57600080fd5b50356001600160a01b031661141a565b610384600480360360608110156105c157600080fd5b8101906020810181356401000000008111156105dc57600080fd5b8201836020820111156105ee57600080fd5b8035906020019184602083028401116401000000008311171561061057600080fd5b91939092909160208101903564010000000081111561062e57600080fd5b82018360208201111561064057600080fd5b8035906020019184602083028401116401000000008311171561066257600080fd5b91939092909160208101903564010000000081111561068057600080fd5b82018360208201111561069257600080fd5b803590602001918460208302840111640100000000831117156106b457600080fd5b509092509050611435565b610233600480360360208110156106d557600080fd5b50356001600160a01b031661166e565b61026c600480360360408110156106fb57600080fd5b81019060208101813564010000000081111561071657600080fd5b82018360208201111561072857600080fd5b8035906020019184602083028401116401000000008311171561074a57600080fd5b91939092909160208101903564010000000081111561076857600080fd5b82018360208201111561077a57600080fd5b8035906020019184602083028401116401000000008311171561079c57600080fd5b509092509050611680565b6107af61198f565b604080516001600160a01b039092168252519081900360200190f35b61028861199e565b61026c600480360360408110156107e957600080fd5b506001600160a01b0381351690602001356119ff565b61026c6004803603604081101561081557600080fd5b506001600160a01b038135169060200135611a6e565b61026c6004803603608081101561084157600080fd5b6001600160a01b0382358116926020810135909116916040820135919081019060808101606082013564010000000081111561087c57600080fd5b82018360208201111561088e57600080fd5b803590602001918460018302840111640100000000831117156108b057600080fd5b509092509050611a82565b610384600480360360608110156108d157600080fd5b8101906020810181356401000000008111156108ec57600080fd5b8201836020820111156108fe57600080fd5b8035906020019184602083028401116401000000008311171561092057600080fd5b91939092909160208101903564010000000081111561093e57600080fd5b82018360208201111561095057600080fd5b8035906020019184602083028401116401000000008311171561097257600080fd5b91939092909160208101903564010000000081111561099057600080fd5b8201836020820111156109a257600080fd5b803590602001918460208302840111640100000000831117156109c457600080fd5b509092509050611c0a565b6107af611d52565b610233611d61565b610384600480360360408110156109f557600080fd5b6001600160a01b038235169190810190604081016020820135640100000000811115610a2057600080fd5b820183602082011115610a3257600080fd5b80359060200191846001830284011164010000000083111715610a5457600080fd5b509092509050611d85565b610384600480360360e0811015610a7557600080fd5b506001600160a01b03813581169160208101359091169060408101359060608101359060ff6080820135169060a08101359060c00135611dc7565b61023360048036036040811015610ac657600080fd5b506001600160a01b0381358116916020013516612046565b61038460048036036020811015610af457600080fd5b810190602081018135640100000000811115610b0f57600080fd5b820183602082011115610b2157600080fd5b80359060200191846001830284011164010000000083111715610b4357600080fd5b91908080601f016020809104026020016040519081016040528093929190818152602001838380828437600092019190915250929550612071945050505050565b61026c60048036036060811015610b9a57600080fd5b6001600160a01b0382351691602081013591810190606081016040820135640100000000811115610bca57600080fd5b820183602082011115610bdc57600080fd5b80359060200191846001830284011164010000000083111715610bfe57600080fd5b509092509050612093565b61038460048036036020811015610c1f57600080fd5b50356001600160a01b0316612219565b61038460048036036020811015610c4557600080fd5b50356001600160a01b031661225e565b6103846122cf565b60095481565b6000610c6e8261230c565b80610c7d5750610c7d826124a9565b92915050565b60028054604080516020601f6000196101006001871615020190941685900493840181900481028201810190925282815260609390929091830182828015610d0c5780601f10610ce157610100808354040283529160200191610d0c565b820191906000526020600020905b815481529060010190602001808311610cef57829003601f168201915b505050505090505b90565b6000610d2b610d246124f5565b8484612504565b50600192915050565b60075490565b6000610d4f610d476124f5565b8585856125c1565b5060019392505050565b6009805482019055610d6a816125f0565b50565b7f000000000000000000000000000000000000000000000000000000000000000090565b6000467f00000000000000000000000000000000000000000000000000000000000000008114610e55576002805460408051602060018416156101000260001901909316849004601f8101849004840282018401909252818152610e5093859391929091830182828015610e465780601f10610e1b57610100808354040283529160200191610e46565b820191906000526020600020905b815481529060010190602001808311610e2957829003601f168201915b5050505050612650565b610e77565b7f00000000000000000000000000000000000000000000000000000000000000005b91505090565b60006001600160a01b038316610eda576040805162461bcd60e51b815260206004820152601b60248201527f45524332303a207a65726f2061646472657373207370656e6465720000000000604482015290519081900360640190fd5b6000610ee46124f5565b6001600160a01b038082166000908152600660209081526040808320938916835292905220549091508315610f9557808401818111610f6a576040805162461bcd60e51b815260206004820152601960248201527f45524332303a20616c6c6f77616e6365206f766572666c6f7700000000000000604482015290519081900360640190fd5b6001600160a01b038084166000908152600660209081526040808320938a1683529290522081905590505b846001600160a01b0316826001600160a01b03167f8c5be1e5ebec7d5bd14f71427d1e84f3dd0314c0f7b2291e5b200ac8c7c3b925836040518082815260200191505060405180910390a3506001949350505050565b60048054604080516020601f6002600019610100600188161502019095169490940493840181900481028201810190925282815260609390929091830182828015610d0c5780601f10610ce157610100808354040283529160200191610d0c565b6000838281146110a3576040805162461bcd60e51b815260206004820152601a60248201527f45524332303a20696e636f6e73697374656e7420617272617973000000000000604482015290519081900360640190fd5b6001600160a01b0387166000908152600560205260408120549080805b8481146112b55760008a8a838181106110d557fe5b905060200201356001600160a01b0316905060006001600160a01b0316816001600160a01b0316141561114f576040805162461bcd60e51b815260206004820152601660248201527f45524332303a20746f207a65726f206164647265737300000000000000000000604482015290519081900360640190fd5b600089898481811061115d57fe5b90506020020135905080600014611260578481018581116111c5576040805162461bcd60e51b815260206004820152601660248201527f45524332303a2076616c756573206f766572666c6f7700000000000000000000604482015290519081900360640190fd5b809550826001600160a01b03168e6001600160a01b031614611204576001600160a01b038316600090815260056020526040902080548301905561125e565b86821115611259576040805162461bcd60e51b815260206004820152601b60248201527f45524332303a20696e73756666696369656e742062616c616e63650000000000604482015290519081900360640190fd5b938101935b505b816001600160a01b03168d6001600160a01b03167fddf252ad1be2c89b69c2b068fc378daa952ba7f163c4a11628f55a4df523b3ef836040518082815260200191505060405180910390a350506001016110c0565b5081158015906112c55750808214155b1561133f57818303838110611321576040805162461bcd60e51b815260206004820152601b60248201527f45524332303a20696e73756666696369656e742062616c616e63650000000000604482015290519081900360640190fd5b6001600160a01b038b16600090815260056020526040902090820190555b60006113496124f5565b9050806001600160a01b03168b6001600160a01b03161461136f5761136f8b82856126da565b5060019a9950505050505050505050565b6009805484019055600061139786868686866127e9565b9695505050505050565b60007f00000000000000000000000000000000000000000000000000000000000000006001600160a01b0316826001600160a01b03161480610c7d57507f00000000000000000000000000000000000000000000000000000000000000006001600160a01b0316826001600160a01b0316149050919050565b6001600160a01b031660009081526005602052604090205490565b6114456114406124f5565b61283f565b84838114801561145457508082145b6114a5576040805162461bcd60e51b815260206004820152601a60248201527f5265636f763a20696e636f6e73697374656e7420617272617973000000000000604482015290519081900360640190fd5b60005b8181146116645760008686838181106114bd57fe5b905060200201356001600160a01b0316905060008585848181106114dd57fe5b905060200201359050306001600160a01b0316826001600160a01b0316141561156b57600954306000908152600560205260409020540380821115611569576040805162461bcd60e51b815260206004820152601b60248201527f5265636f763a20696e73756666696369656e742062616c616e63650000000000604482015290519081900360640190fd5b505b816001600160a01b031663a9059cbb8b8b8681811061158657fe5b905060200201356001600160a01b0316836040518363ffffffff1660e01b815260040180836001600160a01b0316815260200182815260200192505050602060405180830381600087803b1580156115dd57600080fd5b505af11580156115f1573d6000803e3d6000fd5b505050506040513d602081101561160757600080fd5b505161165a576040805162461bcd60e51b815260206004820152601660248201527f5265636f763a207472616e73666572206661696c656400000000000000000000604482015290519081900360640190fd5b50506001016114a8565b5050505050505050565b60016020526000908152604090205481565b6000838281146116d7576040805162461bcd60e51b815260206004820152601a60248201527f45524332303a20696e636f6e73697374656e7420617272617973000000000000604482015290519081900360640190fd5b60006116e16124f5565b6001600160a01b03811660009081526005602052604081205491925080805b8581146118f55760008b8b8381811061171557fe5b905060200201356001600160a01b0316905060006001600160a01b0316816001600160a01b0316141561178f576040805162461bcd60e51b815260206004820152601660248201527f45524332303a20746f207a65726f206164647265737300000000000000000000604482015290519081900360640190fd5b60008a8a8481811061179d57fe5b905060200201359050806000146118a057848101858111611805576040805162461bcd60e51b815260206004820152601660248201527f45524332303a2076616c756573206f766572666c6f7700000000000000000000604482015290519081900360640190fd5b809550826001600160a01b0316886001600160a01b031614611844576001600160a01b038316600090815260056020526040902080548301905561189e565b86821115611899576040805162461bcd60e51b815260206004820152601b60248201527f45524332303a20696e73756666696369656e742062616c616e63650000000000604482015290519081900360640190fd5b938101935b505b816001600160a01b0316876001600160a01b03167fddf252ad1be2c89b69c2b068fc378daa952ba7f163c4a11628f55a4df523b3ef836040518082815260200191505060405180910390a35050600101611700565b5081158015906119055750808214155b1561197f57818303838110611961576040805162461bcd60e51b815260206004820152601b60248201527f45524332303a20696e73756666696369656e742062616c616e63650000000000604482015290519081900360640190fd5b6001600160a01b038516600090815260056020526040902090820190555b5060019998505050505050505050565b6000546001600160a01b031690565b60038054604080516020601f6002600019610100600188161502019095169490940493840181900481028201810190925282815260609390929091830182828015610d0c5780601f10610ce157610100808354040283529160200191610d0c565b60006001600160a01b038316611a5c576040805162461bcd60e51b815260206004820152601b60248201527f45524332303a207a65726f2061646472657373207370656e6465720000000000604482015290519081900360640190fd5b610d2b611a676124f5565b84846126da565b6000610d2b611a7b6124f5565b8484612903565b600080611a8d6124f5565b9050611a9b818888886125c1565b611aad866001600160a01b0316612a6a565b15611bfd57634fc3585960e01b7bffffffffffffffffffffffffffffffffffffffffffffffffffffffff1916866001600160a01b0316634fc35859838a8989896040518663ffffffff1660e01b815260040180866001600160a01b03168152602001856001600160a01b03168152602001848152602001806020018281038252848482818152602001925080828437600081840152601f19601f8201169050808301925050509650505050505050602060405180830381600087803b158015611b7557600080fd5b505af1158015611b89573d6000803e3d6000fd5b505050506040513d6020811015611b9f57600080fd5b50516001600160e01b03191614611bfd576040805162461bcd60e51b815260206004820152601760248201527f45524332303a207472616e736665722072656675736564000000000000000000604482015290519081900360640190fd5b5060019695505050505050565b611c156114406124f5565b848381148015611c2457508082145b611c75576040805162461bcd60e51b815260206004820152601a60248201527f5265636f763a20696e636f6e73697374656e7420617272617973000000000000604482015290519081900360640190fd5b60005b81811461166457858582818110611c8b57fe5b905060200201356001600160a01b03166001600160a01b03166323b872dd308a8a85818110611cb657fe5b905060200201356001600160a01b0316878786818110611cd257fe5b905060200201356040518463ffffffff1660e01b815260040180846001600160a01b03168152602001836001600160a01b031681526020018281526020019350505050600060405180830381600087803b158015611d2f57600080fd5b505af1158015611d43573d6000803e3d6000fd5b50505050806001019050611c78565b6008546001600160a01b031681565b7f000000000000000000000000000000000000000000000000000000000000000081565b611d95611d906124f5565b612a70565b600082826020811015611da757600080fd5b506009805491359182900390559050611dc1308583612903565b50505050565b6001600160a01b038716611e22576040805162461bcd60e51b815260206004820152601960248201527f45524332303a207a65726f2061646472657373206f776e657200000000000000604482015290519081900360640190fd5b83421115611e77576040805162461bcd60e51b815260206004820152601560248201527f45524332303a2065787069726564207065726d69740000000000000000000000604482015290519081900360640190fd5b6001600160a01b0380881660008181526001602081815260408084208054938401905580517f6e71edae12b1b97f4d1f60370fef10105fa2faae0126114a169c64845d6126c98184015280820195909552948b166060850152608084018a905260a084019190915260c08084018990528451808503909101815260e09093019093528151919092012090611f09610d91565b8260405160200180807f190100000000000000000000000000000000000000000000000000000000000081525060020183815260200182815260200192505050604051602081830303815290604052805190602001209050600060018287878760405160008152602001604052604051808581526020018460ff1681526020018381526020018281526020019450505050506020604051602081039080840390855afa158015611fbd573d6000803e3d6000fd5b505050602060405103519050896001600160a01b0316816001600160a01b03161461202f576040805162461bcd60e51b815260206004820152601560248201527f45524332303a20696e76616c6964207065726d69740000000000000000000000604482015290519081900360640190fd5b61203a8a8a8a612504565b50505050505050505050565b6001600160a01b03918216600090815260066020908152604080832093909416825291909152205490565b61207c6114406124f5565b805161208f906004906020840190612c5c565b5050565b60008061209e6124f5565b90506120ab818787612903565b6120bd866001600160a01b0316612a6a565b1561220d57634fc3585960e01b7bffffffffffffffffffffffffffffffffffffffffffffffffffffffff1916866001600160a01b0316634fc3585983848989896040518663ffffffff1660e01b815260040180866001600160a01b03168152602001856001600160a01b03168152602001848152602001806020018281038252848482818152602001925080828437600081840152601f19601f8201169050808301925050509650505050505050602060405180830381600087803b15801561218557600080fd5b505af1158015612199573d6000803e3d6000fd5b505050506040513d60208110156121af57600080fd5b50516001600160e01b0319161461220d576040805162461bcd60e51b815260206004820152601760248201527f45524332303a207472616e736665722072656675736564000000000000000000604482015290519081900360640190fd5b50600195945050505050565b6122246114406124f5565b600880547fffffffffffffffffffffffff0000000000000000000000000000000000000000166001600160a01b0392909216919091179055565b6122696114406124f5565b600080547fffffffffffffffffffffffff0000000000000000000000000000000000000000166001600160a01b0383811691821780845560405192939116917f8be0079c531659141344cd1fd0a4f28419497f9722a3daafe3b4186f6b6457e09190a350565b604080516000808252602082015281517f7084f5476618d8e60b11ef0d7d3f06914655adb8793e28ff7f018d4c76d505d5929181900390910190a1565b60006001600160e01b031982167f01ffc9a700000000000000000000000000000000000000000000000000000000148061236f57506001600160e01b031982167f36372b0700000000000000000000000000000000000000000000000000000000145b806123a357506001600160e01b031982167fa219a02500000000000000000000000000000000000000000000000000000000145b806123d757506001600160e01b031982167f3c130d9000000000000000000000000000000000000000000000000000000000145b8061240b57506001600160e01b031982167f9d07518600000000000000000000000000000000000000000000000000000000145b8061243f57506001600160e01b031982167fc05327e600000000000000000000000000000000000000000000000000000000145b8061247357506001600160e01b031982167f53f41a9700000000000000000000000000000000000000000000000000000000145b80610c7d5750506001600160e01b0319167f9d8ff7da000000000000000000000000000000000000000000000000000000001490565b60006001600160e01b031982167f01ffc9a7000000000000000000000000000000000000000000000000000000001480610c7d5750506001600160e01b031916634fc3585960e01b1490565b60006124ff612ad2565b905090565b6001600160a01b03821661255f576040805162461bcd60e51b815260206004820152601b60248201527f45524332303a207a65726f2061646472657373207370656e6465720000000000604482015290519081900360640190fd5b6001600160a01b03808416600081815260066020908152604080832094871680845294825291829020859055815185815291517f8c5be1e5ebec7d5bd14f71427d1e84f3dd0314c0f7b2291e5b200ac8c7c3b9259281900390910190a3505050565b6125cc838383612903565b836001600160a01b0316836001600160a01b031614611dc157611dc18385836126da565b60006125fa6124f5565b9050612608818230856125c1565b604080516001600160a01b03831681526020810184905281517f7084f5476618d8e60b11ef0d7d3f06914655adb8793e28ff7f018d4c76d505d5929181900390910190a15050565b8051602091820120604080517f8b73c3c69bb8fe3d512ecc4cf759cc79239f7b179b0ffacaa9a75d522b39400f81850152808201929092527fc89efdaa54c0f20c7adf612882df0950f5a951637e0307cdcb4c672f298b8bc6606083015260808201939093523060a0808301919091528351808303909101815260c0909101909252815191012090565b6001600160a01b03808416600090815260066020908152604080832093861683529290522054600019811480159061271157508115155b156127985781810381811061276d576040805162461bcd60e51b815260206004820152601d60248201527f45524332303a20696e73756666696369656e7420616c6c6f77616e6365000000604482015290519081900360640190fd5b6001600160a01b03808616600090815260066020908152604080832093881683529290522081905590505b826001600160a01b0316846001600160a01b03167f8c5be1e5ebec7d5bd14f71427d1e84f3dd0314c0f7b2291e5b200ac8c7c3b925836040518082815260200191505060405180910390a350505050565b604080516001600160a01b03861681526020810185905281516000927f7084f5476618d8e60b11ef0d7d3f06914655adb8793e28ff7f018d4c76d505d5928290030190a150634fc3585960e01b95945050505050565b306001600160a01b0316638da5cb5b6040518163ffffffff1660e01b815260040160206040518083038186803b15801561287857600080fd5b505afa15801561288c573d6000803e3d6000fd5b505050506040513d60208110156128a257600080fd5b50516001600160a01b03828116911614610d6a576040805162461bcd60e51b815260206004820152601660248201527f4f776e61626c653a206e6f7420746865206f776e657200000000000000000000604482015290519081900360640190fd5b6001600160a01b03821661295e576040805162461bcd60e51b815260206004820152601660248201527f45524332303a20746f207a65726f206164647265737300000000000000000000604482015290519081900360640190fd5b8015612a1a576001600160a01b0383166000908152600560205260409020548181038181106129d4576040805162461bcd60e51b815260206004820152601b60248201527f45524332303a20696e73756666696369656e742062616c616e63650000000000604482015290519081900360640190fd5b836001600160a01b0316856001600160a01b031614612a17576001600160a01b038086166000908152600560205260408082208490559186168152208054840190555b50505b816001600160a01b0316836001600160a01b03167fddf252ad1be2c89b69c2b068fc378daa952ba7f163c4a11628f55a4df523b3ef836040518082815260200191505060405180910390a3505050565b3b151590565b6008546001600160a01b03828116911614610d6a576040805162461bcd60e51b815260206004820152601a60248201527f4368696c6445524332303a206f6e6c79206465706f7369746f72000000000000604482015290519081900360640190fd5b60003381612ade612c32565b90507f00000000000000000000000000000000000000000000000000000000000000006001600160a01b0316826001600160a01b03161480612b5157507f00000000000000000000000000000000000000000000000000000000000000006001600160a01b0316826001600160a01b0316145b15612b5f579150610d149050565b6001600160a01b0382163214801590612c1e57507f00000000000000000000000000000000000000000000000000000000000000006001600160a01b031663e60125d682846040518363ffffffff1660e01b815260040180836001600160a01b03168152602001826001600160a01b031681526020019250505060206040518083038186803b158015612bf157600080fd5b505afa158015612c05573d6000803e3d6000fd5b505050506040513d6020811015612c1b57600080fd5b50515b15612c2c579150610d149050565b50905090565b7fffffffffffffffffffffffffffffffffffffffffffffffffffffffffffffffec36013560601c90565b828054600181600116156101000203166002900490600052602060002090601f016020900481019282612c925760008555612cd8565b82601f10612cab57805160ff1916838001178555612cd8565b82800160010185558215612cd8579182015b82811115612cd8578251825591602001919060010190612cbd565b50612ce4929150612ce8565b5090565b5b80821115612ce45760008155600101612ce956fea2646970667358221220abbc6e9195d5f7d8f45d43783fdc65fdc291b3e5857940974f4272e41b8140ed64736f6c63430007060033",
  "linkReferences": {},
  "deployedLinkReferences": {}
}