{
  "_format": "hh-sol-artifact-1",
  "contractName": "SessionsManager",
  "sourceName": "contracts/payment/SessionsManager.sol",
  "abi": [
    {
      "inputs": [
        {
          "internalType": "contract IWrappedERC20",
          "name": "revvToken_",
          "type": "address"
        },
        {
          "internalType": "address payable",
          "name": "payoutWallet",
          "type": "address"
        }
      ],
      "stateMutability": "nonpayable",
      "type": "constructor"
    },
    {
      "anonymous": false,
      "inputs": [
        {
          "indexed": false,
          "internalType": "address",
          "name": "account",
          "type": "address"
        },
        {
          "indexed": false,
          "internalType": "string",
          "name": "sessionId",
          "type": "string"
        },
        {
          "indexed": false,
          "internalType": "uint256",
          "name": "amount",
          "type": "uint256"
        }
      ],
      "name": "Admission",
      "type": "event"
    },
    {
      "anonymous": false,
      "inputs": [
        {
          "indexed": true,
          "internalType": "address",
          "name": "previousOwner",
          "type": "address"
        },
        {
          "indexed": true,
          "internalType": "address",
          "name": "newOwner",
          "type": "address"
        }
      ],
      "name": "OwnershipTransferred",
      "type": "event"
    },
    {
      "anonymous": false,
      "inputs": [
        {
          "indexed": false,
          "internalType": "address",
          "name": "payoutWallet_",
          "type": "address"
        }
      ],
      "name": "PayoutWalletSet",
      "type": "event"
    },
    {
      "inputs": [
        {
          "internalType": "uint256",
          "name": "amount",
          "type": "uint256"
        }
      ],
      "name": "addFreeSessions",
      "outputs": [],
      "stateMutability": "nonpayable",
      "type": "function"
    },
    {
      "inputs": [],
      "name": "freeSessions",
      "outputs": [
        {
          "internalType": "uint256",
          "name": "",
          "type": "uint256"
        }
      ],
      "stateMutability": "view",
      "type": "function"
    },
    {
      "inputs": [
        {
          "internalType": "address",
          "name": "",
          "type": "address"
        }
      ],
      "name": "freeSessionsUsed",
      "outputs": [
        {
          "internalType": "uint256",
          "name": "",
          "type": "uint256"
        }
      ],
      "stateMutability": "view",
      "type": "function"
    },
    {
      "inputs": [
        {
          "internalType": "address",
          "name": "",
          "type": "address"
        },
        {
          "internalType": "address",
          "name": "from",
          "type": "address"
        },
        {
          "internalType": "uint256",
          "name": "value",
          "type": "uint256"
        },
        {
          "internalType": "bytes",
          "name": "data",
          "type": "bytes"
        }
      ],
      "name": "onERC20Received",
      "outputs": [
        {
          "internalType": "bytes4",
          "name": "",
          "type": "bytes4"
        }
      ],
      "stateMutability": "nonpayable",
      "type": "function"
    },
    {
      "inputs": [],
      "name": "owner",
      "outputs": [
        {
          "internalType": "address",
          "name": "",
          "type": "address"
        }
      ],
      "stateMutability": "view",
      "type": "function"
    },
    {
      "inputs": [],
      "name": "payoutWallet",
      "outputs": [
        {
          "internalType": "address payable",
          "name": "",
          "type": "address"
        }
      ],
      "stateMutability": "view",
      "type": "function"
    },
    {
      "inputs": [
        {
          "internalType": "address[]",
          "name": "accounts",
          "type": "address[]"
        },
        {
          "internalType": "address[]",
          "name": "tokens",
          "type": "address[]"
        },
        {
          "internalType": "uint256[]",
          "name": "amounts",
          "type": "uint256[]"
        }
      ],
      "name": "recoverERC20s",
      "outputs": [],
      "stateMutability": "nonpayable",
      "type": "function"
    },
    {
      "inputs": [
        {
          "internalType": "address[]",
          "name": "accounts",
          "type": "address[]"
        },
        {
          "internalType": "address[]",
          "name": "contracts",
          "type": "address[]"
        },
        {
          "internalType": "uint256[]",
          "name": "tokenIds",
          "type": "uint256[]"
        }
      ],
      "name": "recoverERC721s",
      "outputs": [],
      "stateMutability": "nonpayable",
      "type": "function"
    },
    {
      "inputs": [],
      "name": "revvToken",
      "outputs": [
        {
          "internalType": "contract IWrappedERC20",
          "name": "",
          "type": "address"
        }
      ],
      "stateMutability": "view",
      "type": "function"
    },
    {
      "inputs": [],
      "name": "sessionPrice",
      "outputs": [
        {
          "internalType": "uint256",
          "name": "",
          "type": "uint256"
        }
      ],
      "stateMutability": "view",
      "type": "function"
    },
    {
      "inputs": [
        {
          "internalType": "address payable",
          "name": "payoutWallet_",
          "type": "address"
        }
      ],
      "name": "setPayoutWallet",
      "outputs": [],
      "stateMutability": "nonpayable",
      "type": "function"
    },
    {
      "inputs": [
        {
          "internalType": "uint256",
          "name": "price",
          "type": "uint256"
        }
      ],
      "name": "setSessionPrice",
      "outputs": [],
      "stateMutability": "nonpayable",
      "type": "function"
    },
    {
      "inputs": [
        {
          "internalType": "bytes4",
          "name": "interfaceId",
          "type": "bytes4"
        }
      ],
      "name": "supportsInterface",
      "outputs": [
        {
          "internalType": "bool",
          "name": "",
          "type": "bool"
        }
      ],
      "stateMutability": "view",
      "type": "function"
    },
    {
      "inputs": [
        {
          "internalType": "address",
          "name": "newOwner",
          "type": "address"
        }
      ],
      "name": "transferOwnership",
      "outputs": [],
      "stateMutability": "nonpayable",
      "type": "function"
    }
  ],
  "bytecode": "0x60a060405234801561001057600080fd5b506040516112c03803806112c08339818101604052604081101561003357600080fd5b508051602090910151600080546001600160a01b03191633908117825560405190918391839182917f8be0079c531659141344cd1fd0a4f28419497f9722a3daafe3b4186f6b6457e0908290a3506001600160a01b0381166100dc576040805162461bcd60e51b815260206004820152601460248201527f5061796f75743a207a65726f2061646472657373000000000000000000000000604482015290519081900360640190fd5b600180546001600160a01b0383166001600160a01b0319909116811790915560408051918252517fdd880d24a789958a6398c99c2e54ce31bc10a638cbc42f7dd34285479ae0f8559181900360200190a1505050606081901b6001600160601b0319166080526001600160a01b031661115461016c600039806105ee52806107cc5280610d9e52506111546000f3fe608060405234801561001057600080fd5b50600436106100ea5760003560e01c80638488bb4e1161008c578063c3666c3611610066578063c3666c36146103d4578063dd8c6478146104e8578063f2fde38b14610505578063f4b8c30d1461052b576100ea565b80638488bb4e1461038b5780638da5cb5b146103af578063b605d27d146103b7576100ea565b806321eef09c116100c857806321eef09c146101645780634fc358591461018a5780636b8f9c431461024f57806373c8a95814610277576100ea565b806301ffc9a7146100ef578063177f071a14610142578063213537981461015c575b600080fd5b61012e6004803603602081101561010557600080fd5b50357fffffffff0000000000000000000000000000000000000000000000000000000016610533565b604080519115158252519081900360200190f35b61014a6105cc565b60408051918252519081900360200190f35b61014a6105d2565b61014a6004803603602081101561017a57600080fd5b50356001600160a01b03166105d8565b61021a600480360360808110156101a057600080fd5b6001600160a01b038235811692602081013590911691604082013591908101906080810160608201356401000000008111156101db57600080fd5b8201836020820111156101ed57600080fd5b8035906020019184600183028401116401000000008311171561020f57600080fd5b5090925090506105ea565b604080517fffffffff000000000000000000000000000000000000000000000000000000009092168252519081900360200190f35b6102756004803603602081101561026557600080fd5b50356001600160a01b031661097f565b005b6102756004803603606081101561028d57600080fd5b8101906020810181356401000000008111156102a857600080fd5b8201836020820111156102ba57600080fd5b803590602001918460208302840111640100000000831117156102dc57600080fd5b9193909290916020810190356401000000008111156102fa57600080fd5b82018360208201111561030c57600080fd5b8035906020019184602083028401116401000000008311171561032e57600080fd5b91939092909160208101903564010000000081111561034c57600080fd5b82018360208201111561035e57600080fd5b8035906020019184602083028401116401000000008311171561038057600080fd5b509092509050610a5c565b610393610b49565b604080516001600160a01b039092168252519081900360200190f35b610393610b58565b610275600480360360208110156103cd57600080fd5b5035610b67565b610275600480360360608110156103ea57600080fd5b81019060208101813564010000000081111561040557600080fd5b82018360208201111561041757600080fd5b8035906020019184602083028401116401000000008311171561043957600080fd5b91939092909160208101903564010000000081111561045757600080fd5b82018360208201111561046957600080fd5b8035906020019184602083028401116401000000008311171561048b57600080fd5b9193909290916020810190356401000000008111156104a957600080fd5b8201836020820111156104bb57600080fd5b803590602001918460208302840111640100000000831117156104dd57600080fd5b509092509050610b77565b610275600480360360208110156104fe57600080fd5b5035610cbf565b6102756004803603602081101561051b57600080fd5b50356001600160a01b0316610d2b565b610393610d9c565b60007fffffffff0000000000000000000000000000000000000000000000000000000082167f01ffc9a70000000000000000000000000000000000000000000000000000000014806105c657507fffffffff0000000000000000000000000000000000000000000000000000000082167f4fc3585900000000000000000000000000000000000000000000000000000000145b92915050565b60035481565b60025481565b60046020526000908152604090205481565b60007f00000000000000000000000000000000000000000000000000000000000000006001600160a01b031661061e610dc0565b6001600160a01b031614610679576040805162461bcd60e51b815260206004820152601560248201527f53657373696f6e733a2077726f6e6720746f6b656e0000000000000000000000604482015290519081900360640190fd5b600354806106ce576040805162461bcd60e51b815260206004820152601760248201527f53657373696f6e733a207072696365206e6f7420736574000000000000000000604482015290519081900360640190fd5b6001600160a01b038616600090815260046020526040902054600254811015610767578515610744576040805162461bcd60e51b815260206004820152601960248201527f53657373696f6e733a2073657373696f6e206973206672656500000000000000604482015290519081900360640190fd5b6001600160a01b03871660009081526004602052604090206001820190556107f5565b8186146107bb576040805162461bcd60e51b815260206004820152601560248201527f53657373696f6e733a2077726f6e672070726963650000000000000000000000604482015290519081900360640190fd5b6001546107f5906001600160a01b037f00000000000000000000000000000000000000000000000000000000000000008116911688610dc4565b7f4f6002f4105a164111bc48653a45996d2fee50168d529f765f5604c82f327d8a878686602081101561082757600080fd5b81019060208101813564010000000081111561084257600080fd5b82018360208201111561085457600080fd5b8035906020019184600183028401116401000000008311171561087657600080fd5b91908080601f016020809104026020016040519081016040528093929190818152602001838380828437600081840152601f19601f8201169050808301925050505050505091929192905050508860405180846001600160a01b0316815260200180602001838152602001828103825284818151815260200191508051906020019080838360005b838110156109165781810151838201526020016108fe565b50505050905090810190601f1680156109435780820380516001836020036101000a031916815260200191505b5094505050505060405180910390a1507f4fc3585900000000000000000000000000000000000000000000000000000000979650505050505050565b61098f61098a610dc0565b610e49565b6001600160a01b0381166109ea576040805162461bcd60e51b815260206004820152601460248201527f5061796f75743a207a65726f2061646472657373000000000000000000000000604482015290519081900360640190fd5b600180547fffffffffffffffffffffffff0000000000000000000000000000000000000000166001600160a01b03838116919091179182905560408051929091168252517fdd880d24a789958a6398c99c2e54ce31bc10a638cbc42f7dd34285479ae0f855916020908290030190a150565b610a6761098a610dc0565b848381148015610a7657508082145b610ac7576040805162461bcd60e51b815260206004820152601a60248201527f5265636f763a20696e636f6e73697374656e7420617272617973000000000000604482015290519081900360640190fd5b60005b818114610b3f57610b37888883818110610ae057fe5b905060200201356001600160a01b0316858584818110610afc57fe5b90506020020135888885818110610b0f57fe5b905060200201356001600160a01b03166001600160a01b0316610dc49092919063ffffffff16565b600101610aca565b5050505050505050565b6001546001600160a01b031681565b6000546001600160a01b031690565b610b7261098a610dc0565b600355565b610b8261098a610dc0565b848381148015610b9157508082145b610be2576040805162461bcd60e51b815260206004820152601a60248201527f5265636f763a20696e636f6e73697374656e7420617272617973000000000000604482015290519081900360640190fd5b60005b818114610b3f57858582818110610bf857fe5b905060200201356001600160a01b03166001600160a01b03166323b872dd308a8a85818110610c2357fe5b905060200201356001600160a01b0316878786818110610c3f57fe5b905060200201356040518463ffffffff1660e01b815260040180846001600160a01b03168152602001836001600160a01b031681526020018281526020019350505050600060405180830381600087803b158015610c9c57600080fd5b505af1158015610cb0573d6000803e3d6000fd5b50505050806001019050610be5565b610cca61098a610dc0565b600254818101818111610d24576040805162461bcd60e51b815260206004820152601b60248201527f53657373696f6e733a2073657373696f6e73206f766572666c6f770000000000604482015290519081900360640190fd5b6002555050565b610d3661098a610dc0565b600080547fffffffffffffffffffffffff0000000000000000000000000000000000000000166001600160a01b0383811691821780845560405192939116917f8be0079c531659141344cd1fd0a4f28419497f9722a3daafe3b4186f6b6457e09190a350565b7f000000000000000000000000000000000000000000000000000000000000000081565b3390565b604080516001600160a01b038416602482015260448082018490528251808303909101815260649091019091526020810180517bffffffffffffffffffffffffffffffffffffffffffffffffffffffff167fa9059cbb00000000000000000000000000000000000000000000000000000000179052610e44908490610f10565b505050565b306001600160a01b0316638da5cb5b6040518163ffffffff1660e01b815260040160206040518083038186803b158015610e8257600080fd5b505afa158015610e96573d6000803e3d6000fd5b505050506040513d6020811015610eac57600080fd5b50516001600160a01b03828116911614610f0d576040805162461bcd60e51b815260206004820152601660248201527f4f776e61626c653a206e6f7420746865206f776e657200000000000000000000604482015290519081900360640190fd5b50565b81610f236001600160a01b038216611118565b610f74576040805162461bcd60e51b815260206004820152601a60248201527f4552433230577261707065723a206e6f6e2d636f6e7472616374000000000000604482015290519081900360640190fd5b600080826001600160a01b0316846040518082805190602001908083835b60208310610fcf57805182527fffffffffffffffffffffffffffffffffffffffffffffffffffffffffffffffe09092019160209182019101610f92565b6001836020036101000a0380198251168184511680821785525050505050509050019150506000604051808303816000865af19150503d8060008114611031576040519150601f19603f3d011682016040523d82523d6000602084013e611036565b606091505b509150915081156110b5578051156110b05780806020019051602081101561105d57600080fd5b50516110b0576040805162461bcd60e51b815260206004820152601e60248201527f4552433230577261707065723a206f7065726174696f6e206661696c65640000604482015290519081900360640190fd5b611111565b8051611108576040805162461bcd60e51b815260206004820152601e60248201527f4552433230577261707065723a206f7065726174696f6e206661696c65640000604482015290519081900360640190fd5b80518082602001fd5b5050505050565b3b15159056fea26469706673582212203f553191e6c93b2ed279d60feeb84f0fdb8af59aa2435f5972eb5ba8113cb4b064736f6c63430007060033",
  "linkReferences": {},
  "deployedLinkReferences": {}
}