{
  "_format": "hh-sol-artifact-1",
  "contractName": "SessionsManager",
  "sourceName": "contracts/payment/SessionsManager.sol",
  "abi": [
    {
      "inputs": [
        {
          "internalType": "contract IForwarderRegistry",
          "name": "forwarderRegistry",
          "type": "address"
        },
        {
          "internalType": "address",
          "name": "universalForwarder",
          "type": "address"
        },
        {
          "internalType": "contract IWrappedERC20",
          "name": "revvToken_",
          "type": "address"
        },
        {
          "internalType": "address payable",
          "name": "payoutWallet",
          "type": "address"
        }
      ],
      "stateMutability": "nonpayable",
      "type": "constructor"
    },
    {
      "anonymous": false,
      "inputs": [
        {
          "indexed": false,
          "internalType": "address",
          "name": "account",
          "type": "address"
        },
        {
          "indexed": false,
          "internalType": "string",
          "name": "sessionId",
          "type": "string"
        },
        {
          "indexed": false,
          "internalType": "uint256",
          "name": "amount",
          "type": "uint256"
        }
      ],
      "name": "Admission",
      "type": "event"
    },
    {
      "anonymous": false,
      "inputs": [
        {
          "indexed": true,
          "internalType": "address",
          "name": "previousOwner",
          "type": "address"
        },
        {
          "indexed": true,
          "internalType": "address",
          "name": "newOwner",
          "type": "address"
        }
      ],
      "name": "OwnershipTransferred",
      "type": "event"
    },
    {
      "anonymous": false,
      "inputs": [
        {
          "indexed": false,
          "internalType": "address",
          "name": "payoutWallet_",
          "type": "address"
        }
      ],
      "name": "PayoutWalletSet",
      "type": "event"
    },
    {
      "inputs": [
        {
          "internalType": "uint256",
          "name": "amount",
          "type": "uint256"
        }
      ],
      "name": "addFreeSessions",
      "outputs": [],
      "stateMutability": "nonpayable",
      "type": "function"
    },
    {
      "inputs": [],
      "name": "freeSessions",
      "outputs": [
        {
          "internalType": "uint256",
          "name": "",
          "type": "uint256"
        }
      ],
      "stateMutability": "view",
      "type": "function"
    },
    {
      "inputs": [
        {
          "internalType": "address",
          "name": "",
          "type": "address"
        }
      ],
      "name": "freeSessionsUsed",
      "outputs": [
        {
          "internalType": "uint256",
          "name": "",
          "type": "uint256"
        }
      ],
      "stateMutability": "view",
      "type": "function"
    },
    {
      "inputs": [
        {
          "internalType": "address",
          "name": "forwarder",
          "type": "address"
        }
      ],
      "name": "isTrustedForwarder",
      "outputs": [
        {
          "internalType": "bool",
          "name": "",
          "type": "bool"
        }
      ],
      "stateMutability": "view",
      "type": "function"
    },
    {
      "inputs": [
        {
          "internalType": "address",
          "name": "",
          "type": "address"
        },
        {
          "internalType": "address",
          "name": "from",
          "type": "address"
        },
        {
          "internalType": "uint256",
          "name": "value",
          "type": "uint256"
        },
        {
          "internalType": "bytes",
          "name": "data",
          "type": "bytes"
        }
      ],
      "name": "onERC20Received",
      "outputs": [
        {
          "internalType": "bytes4",
          "name": "",
          "type": "bytes4"
        }
      ],
      "stateMutability": "nonpayable",
      "type": "function"
    },
    {
      "inputs": [],
      "name": "owner",
      "outputs": [
        {
          "internalType": "address",
          "name": "",
          "type": "address"
        }
      ],
      "stateMutability": "view",
      "type": "function"
    },
    {
      "inputs": [],
      "name": "payoutWallet",
      "outputs": [
        {
          "internalType": "address payable",
          "name": "",
          "type": "address"
        }
      ],
      "stateMutability": "view",
      "type": "function"
    },
    {
      "inputs": [
        {
          "internalType": "address[]",
          "name": "accounts",
          "type": "address[]"
        },
        {
          "internalType": "address[]",
          "name": "tokens",
          "type": "address[]"
        },
        {
          "internalType": "uint256[]",
          "name": "amounts",
          "type": "uint256[]"
        }
      ],
      "name": "recoverERC20s",
      "outputs": [],
      "stateMutability": "nonpayable",
      "type": "function"
    },
    {
      "inputs": [
        {
          "internalType": "address[]",
          "name": "accounts",
          "type": "address[]"
        },
        {
          "internalType": "address[]",
          "name": "contracts",
          "type": "address[]"
        },
        {
          "internalType": "uint256[]",
          "name": "tokenIds",
          "type": "uint256[]"
        }
      ],
      "name": "recoverERC721s",
      "outputs": [],
      "stateMutability": "nonpayable",
      "type": "function"
    },
    {
      "inputs": [],
      "name": "revvToken",
      "outputs": [
        {
          "internalType": "contract IWrappedERC20",
          "name": "",
          "type": "address"
        }
      ],
      "stateMutability": "view",
      "type": "function"
    },
    {
      "inputs": [],
      "name": "sessionPrice",
      "outputs": [
        {
          "internalType": "uint256",
          "name": "",
          "type": "uint256"
        }
      ],
      "stateMutability": "view",
      "type": "function"
    },
    {
      "inputs": [
        {
          "internalType": "address payable",
          "name": "payoutWallet_",
          "type": "address"
        }
      ],
      "name": "setPayoutWallet",
      "outputs": [],
      "stateMutability": "nonpayable",
      "type": "function"
    },
    {
      "inputs": [
        {
          "internalType": "uint256",
          "name": "price",
          "type": "uint256"
        }
      ],
      "name": "setSessionPrice",
      "outputs": [],
      "stateMutability": "nonpayable",
      "type": "function"
    },
    {
      "inputs": [
        {
          "internalType": "bytes4",
          "name": "interfaceId",
          "type": "bytes4"
        }
      ],
      "name": "supportsInterface",
      "outputs": [
        {
          "internalType": "bool",
          "name": "",
          "type": "bool"
        }
      ],
      "stateMutability": "view",
      "type": "function"
    },
    {
      "inputs": [
        {
          "internalType": "address",
          "name": "newOwner",
          "type": "address"
        }
      ],
      "name": "transferOwnership",
      "outputs": [],
      "stateMutability": "nonpayable",
      "type": "function"
    }
  ],
  "bytecode": "0x60e060405234801561001057600080fd5b506040516115553803806115558339818101604052608081101561003357600080fd5b5080516020820151604080840151606090940151600080546001600160a01b03191633908117825592519495939491929183918791879185918291907f8be0079c531659141344cd1fd0a4f28419497f9722a3daafe3b4186f6b6457e0908290a3506001600160601b0319606091821b811660a05291901b166080526001600160a01b03811661010a576040805162461bcd60e51b815260206004820152601460248201527f5061796f75743a207a65726f2061646472657373000000000000000000000000604482015290519081900360640190fd5b600180546001600160a01b0383166001600160a01b0319909116811790915560408051918252517fdd880d24a789958a6398c99c2e54ce31bc10a638cbc42f7dd34285479ae0f8559181900360200190a15050506001600160601b031960609190911b1660c052505060805160601c60a05160601c60c05160601c6113946101c16000398061061f52806107fd5280610e495250806109b452806110115250806109ef5280610fd6528061106952506113946000f3fe608060405234801561001057600080fd5b50600436106100f55760003560e01c806373c8a95811610097578063c3666c3611610066578063c3666c3614610405578063dd8c647814610519578063f2fde38b14610536578063f4b8c30d1461055c576100f5565b806373c8a958146102a85780638488bb4e146103bc5780638da5cb5b146103e0578063b605d27d146103e8576100f5565b806321eef09c116100d357806321eef09c1461016f5780634fc3585914610195578063572b6c051461025a5780636b8f9c4314610280576100f5565b806301ffc9a7146100fa578063177f071a1461014d5780632135379814610167575b600080fd5b6101396004803603602081101561011057600080fd5b50357fffffffff0000000000000000000000000000000000000000000000000000000016610564565b604080519115158252519081900360200190f35b6101556105fd565b60408051918252519081900360200190f35b610155610603565b6101556004803603602081101561018557600080fd5b50356001600160a01b0316610609565b610225600480360360808110156101ab57600080fd5b6001600160a01b038235811692602081013590911691604082013591908101906080810160608201356401000000008111156101e657600080fd5b8201836020820111156101f857600080fd5b8035906020019184600183028401116401000000008311171561021a57600080fd5b50909250905061061b565b604080517fffffffff000000000000000000000000000000000000000000000000000000009092168252519081900360200190f35b6101396004803603602081101561027057600080fd5b50356001600160a01b03166109b0565b6102a66004803603602081101561029657600080fd5b50356001600160a01b0316610a29565b005b6102a6600480360360608110156102be57600080fd5b8101906020810181356401000000008111156102d957600080fd5b8201836020820111156102eb57600080fd5b8035906020019184602083028401116401000000008311171561030d57600080fd5b91939092909160208101903564010000000081111561032b57600080fd5b82018360208201111561033d57600080fd5b8035906020019184602083028401116401000000008311171561035f57600080fd5b91939092909160208101903564010000000081111561037d57600080fd5b82018360208201111561038f57600080fd5b803590602001918460208302840111640100000000831117156103b157600080fd5b509092509050610b06565b6103c4610bf3565b604080516001600160a01b039092168252519081900360200190f35b6103c4610c02565b6102a6600480360360208110156103fe57600080fd5b5035610c12565b6102a66004803603606081101561041b57600080fd5b81019060208101813564010000000081111561043657600080fd5b82018360208201111561044857600080fd5b8035906020019184602083028401116401000000008311171561046a57600080fd5b91939092909160208101903564010000000081111561048857600080fd5b82018360208201111561049a57600080fd5b803590602001918460208302840111640100000000831117156104bc57600080fd5b9193909290916020810190356401000000008111156104da57600080fd5b8201836020820111156104ec57600080fd5b8035906020019184602083028401116401000000008311171561050e57600080fd5b509092509050610c22565b6102a66004803603602081101561052f57600080fd5b5035610d6a565b6102a66004803603602081101561054c57600080fd5b50356001600160a01b0316610dd6565b6103c4610e47565b60007fffffffff0000000000000000000000000000000000000000000000000000000082167f01ffc9a70000000000000000000000000000000000000000000000000000000014806105f757507fffffffff0000000000000000000000000000000000000000000000000000000082167f4fc3585900000000000000000000000000000000000000000000000000000000145b92915050565b60035481565b60025481565b60046020526000908152604090205481565b60007f00000000000000000000000000000000000000000000000000000000000000006001600160a01b031661064f610e6b565b6001600160a01b0316146106aa576040805162461bcd60e51b815260206004820152601560248201527f53657373696f6e733a2077726f6e6720746f6b656e0000000000000000000000604482015290519081900360640190fd5b600354806106ff576040805162461bcd60e51b815260206004820152601760248201527f53657373696f6e733a207072696365206e6f7420736574000000000000000000604482015290519081900360640190fd5b6001600160a01b038616600090815260046020526040902054600254811015610798578515610775576040805162461bcd60e51b815260206004820152601960248201527f53657373696f6e733a2073657373696f6e206973206672656500000000000000604482015290519081900360640190fd5b6001600160a01b0387166000908152600460205260409020600182019055610826565b8186146107ec576040805162461bcd60e51b815260206004820152601560248201527f53657373696f6e733a2077726f6e672070726963650000000000000000000000604482015290519081900360640190fd5b600154610826906001600160a01b037f00000000000000000000000000000000000000000000000000000000000000008116911688610e7a565b7f4f6002f4105a164111bc48653a45996d2fee50168d529f765f5604c82f327d8a878686602081101561085857600080fd5b81019060208101813564010000000081111561087357600080fd5b82018360208201111561088557600080fd5b803590602001918460018302840111640100000000831117156108a757600080fd5b91908080601f016020809104026020016040519081016040528093929190818152602001838380828437600081840152601f19601f8201169050808301925050505050505091929192905050508860405180846001600160a01b0316815260200180602001838152602001828103825284818151815260200191508051906020019080838360005b8381101561094757818101518382015260200161092f565b50505050905090810190601f1680156109745780820380516001836020036101000a031916815260200191505b5094505050505060405180910390a1507f4fc3585900000000000000000000000000000000000000000000000000000000979650505050505050565b60007f00000000000000000000000000000000000000000000000000000000000000006001600160a01b0316826001600160a01b031614806105f757507f00000000000000000000000000000000000000000000000000000000000000006001600160a01b0316826001600160a01b0316149050919050565b610a39610a34610e6b565b610eff565b6001600160a01b038116610a94576040805162461bcd60e51b815260206004820152601460248201527f5061796f75743a207a65726f2061646472657373000000000000000000000000604482015290519081900360640190fd5b600180547fffffffffffffffffffffffff0000000000000000000000000000000000000000166001600160a01b03838116919091179182905560408051929091168252517fdd880d24a789958a6398c99c2e54ce31bc10a638cbc42f7dd34285479ae0f855916020908290030190a150565b610b11610a34610e6b565b848381148015610b2057508082145b610b71576040805162461bcd60e51b815260206004820152601a60248201527f5265636f763a20696e636f6e73697374656e7420617272617973000000000000604482015290519081900360640190fd5b60005b818114610be957610be1888883818110610b8a57fe5b905060200201356001600160a01b0316858584818110610ba657fe5b90506020020135888885818110610bb957fe5b905060200201356001600160a01b03166001600160a01b0316610e7a9092919063ffffffff16565b600101610b74565b5050505050505050565b6001546001600160a01b031681565b6000546001600160a01b03165b90565b610c1d610a34610e6b565b600355565b610c2d610a34610e6b565b848381148015610c3c57508082145b610c8d576040805162461bcd60e51b815260206004820152601a60248201527f5265636f763a20696e636f6e73697374656e7420617272617973000000000000604482015290519081900360640190fd5b60005b818114610be957858582818110610ca357fe5b905060200201356001600160a01b03166001600160a01b03166323b872dd308a8a85818110610cce57fe5b905060200201356001600160a01b0316878786818110610cea57fe5b905060200201356040518463ffffffff1660e01b815260040180846001600160a01b03168152602001836001600160a01b031681526020018281526020019350505050600060405180830381600087803b158015610d4757600080fd5b505af1158015610d5b573d6000803e3d6000fd5b50505050806001019050610c90565b610d75610a34610e6b565b600254818101818111610dcf576040805162461bcd60e51b815260206004820152601b60248201527f53657373696f6e733a2073657373696f6e73206f766572666c6f770000000000604482015290519081900360640190fd5b6002555050565b610de1610a34610e6b565b600080547fffffffffffffffffffffffff0000000000000000000000000000000000000000166001600160a01b0383811691821780845560405192939116917f8be0079c531659141344cd1fd0a4f28419497f9722a3daafe3b4186f6b6457e09190a350565b7f000000000000000000000000000000000000000000000000000000000000000081565b6000610e75610fc6565b905090565b604080516001600160a01b038416602482015260448082018490528251808303909101815260649091019091526020810180517bffffffffffffffffffffffffffffffffffffffffffffffffffffffff167fa9059cbb00000000000000000000000000000000000000000000000000000000179052610efa908490611126565b505050565b306001600160a01b0316638da5cb5b6040518163ffffffff1660e01b815260040160206040518083038186803b158015610f3857600080fd5b505afa158015610f4c573d6000803e3d6000fd5b505050506040513d6020811015610f6257600080fd5b50516001600160a01b03828116911614610fc3576040805162461bcd60e51b815260206004820152601660248201527f4f776e61626c653a206e6f7420746865206f776e657200000000000000000000604482015290519081900360640190fd5b50565b60003381610fd261132e565b90507f00000000000000000000000000000000000000000000000000000000000000006001600160a01b0316826001600160a01b0316148061104557507f00000000000000000000000000000000000000000000000000000000000000006001600160a01b0316826001600160a01b0316145b15611053579150610c0f9050565b6001600160a01b038216321480159061111257507f00000000000000000000000000000000000000000000000000000000000000006001600160a01b031663e60125d682846040518363ffffffff1660e01b815260040180836001600160a01b03168152602001826001600160a01b031681526020019250505060206040518083038186803b1580156110e557600080fd5b505afa1580156110f9573d6000803e3d6000fd5b505050506040513d602081101561110f57600080fd5b50515b15611120579150610c0f9050565b50905090565b816111396001600160a01b038216611358565b61118a576040805162461bcd60e51b815260206004820152601a60248201527f4552433230577261707065723a206e6f6e2d636f6e7472616374000000000000604482015290519081900360640190fd5b600080826001600160a01b0316846040518082805190602001908083835b602083106111e557805182527fffffffffffffffffffffffffffffffffffffffffffffffffffffffffffffffe090920191602091820191016111a8565b6001836020036101000a0380198251168184511680821785525050505050509050019150506000604051808303816000865af19150503d8060008114611247576040519150601f19603f3d011682016040523d82523d6000602084013e61124c565b606091505b509150915081156112cb578051156112c65780806020019051602081101561127357600080fd5b50516112c6576040805162461bcd60e51b815260206004820152601e60248201527f4552433230577261707065723a206f7065726174696f6e206661696c65640000604482015290519081900360640190fd5b611327565b805161131e576040805162461bcd60e51b815260206004820152601e60248201527f4552433230577261707065723a206f7065726174696f6e206661696c65640000604482015290519081900360640190fd5b80518082602001fd5b5050505050565b7fffffffffffffffffffffffffffffffffffffffffffffffffffffffffffffffec36013560601c90565b3b15159056fea26469706673582212209f69fde986eebff7ef6b34e7c7a48a76d1c76a4e0b4196ef0e0d2c94a79570c364736f6c63430007060033",
  "linkReferences": {},
  "deployedLinkReferences": {}
}