{
  "_format": "hh-sol-artifact-1",
  "contractName": "FixedOrderSandNftSaleMock",
  "sourceName": "contracts/mocks/sale/FixedOrderSandNftSaleMock.sol",
  "abi": [
    {
      "inputs": [
        {
          "internalType": "address",
          "name": "inventory",
          "type": "address"
        },
        {
          "internalType": "address",
          "name": "tokenHolder",
          "type": "address"
        },
        {
          "internalType": "address",
          "name": "payoutWallet",
          "type": "address"
        },
        {
          "internalType": "uint256",
          "name": "tokensPerSkuCapacity",
          "type": "uint256"
        }
      ],
      "stateMutability": "nonpayable",
      "type": "constructor"
    },
    {
      "anonymous": false,
      "inputs": [
        {
          "indexed": false,
          "internalType": "bytes32[]",
          "name": "tokens",
          "type": "bytes32[]"
        }
      ],
      "name": "DeliveryData",
      "type": "event"
    },
    {
      "anonymous": false,
      "inputs": [
        {
          "indexed": false,
          "internalType": "bytes32[]",
          "name": "names",
          "type": "bytes32[]"
        },
        {
          "indexed": false,
          "internalType": "bytes32[]",
          "name": "values",
          "type": "bytes32[]"
        }
      ],
      "name": "MagicValues",
      "type": "event"
    },
    {
      "anonymous": false,
      "inputs": [
        {
          "indexed": true,
          "internalType": "address",
          "name": "previousOwner",
          "type": "address"
        },
        {
          "indexed": true,
          "internalType": "address",
          "name": "newOwner",
          "type": "address"
        }
      ],
      "name": "OwnershipTransferred",
      "type": "event"
    },
    {
      "anonymous": false,
      "inputs": [
        {
          "indexed": false,
          "internalType": "address",
          "name": "account",
          "type": "address"
        }
      ],
      "name": "Paused",
      "type": "event"
    },
    {
      "anonymous": false,
      "inputs": [
        {
          "indexed": false,
          "internalType": "address",
          "name": "payoutWallet_",
          "type": "address"
        }
      ],
      "name": "PayoutWalletSet",
      "type": "event"
    },
    {
      "anonymous": false,
      "inputs": [
        {
          "indexed": true,
          "internalType": "address",
          "name": "purchaser",
          "type": "address"
        },
        {
          "indexed": false,
          "internalType": "address",
          "name": "recipient",
          "type": "address"
        },
        {
          "indexed": true,
          "internalType": "address",
          "name": "token",
          "type": "address"
        },
        {
          "indexed": true,
          "internalType": "bytes32",
          "name": "sku",
          "type": "bytes32"
        },
        {
          "indexed": false,
          "internalType": "uint256",
          "name": "quantity",
          "type": "uint256"
        },
        {
          "indexed": false,
          "internalType": "bytes",
          "name": "userData",
          "type": "bytes"
        },
        {
          "indexed": false,
          "internalType": "uint256",
          "name": "totalPrice",
          "type": "uint256"
        },
        {
          "indexed": false,
          "internalType": "bytes",
          "name": "extData",
          "type": "bytes"
        }
      ],
      "name": "Purchase",
      "type": "event"
    },
    {
      "anonymous": false,
      "inputs": [
        {
          "indexed": false,
          "internalType": "bytes32",
          "name": "sku",
          "type": "bytes32"
        },
        {
          "indexed": false,
          "internalType": "uint256",
          "name": "totalSupply",
          "type": "uint256"
        },
        {
          "indexed": false,
          "internalType": "uint256",
          "name": "maxQuantityPerPurchase",
          "type": "uint256"
        },
        {
          "indexed": false,
          "internalType": "address",
          "name": "notificationsReceiver",
          "type": "address"
        }
      ],
      "name": "SkuCreation",
      "type": "event"
    },
    {
      "anonymous": false,
      "inputs": [
        {
          "indexed": true,
          "internalType": "bytes32",
          "name": "sku",
          "type": "bytes32"
        },
        {
          "indexed": false,
          "internalType": "address[]",
          "name": "tokens",
          "type": "address[]"
        },
        {
          "indexed": false,
          "internalType": "uint256[]",
          "name": "prices",
          "type": "uint256[]"
        }
      ],
      "name": "SkuPricingUpdate",
      "type": "event"
    },
    {
      "anonymous": false,
      "inputs": [
        {
          "indexed": false,
          "internalType": "address",
          "name": "account",
          "type": "address"
        }
      ],
      "name": "Started",
      "type": "event"
    },
    {
      "anonymous": false,
      "inputs": [
        {
          "indexed": false,
          "internalType": "address",
          "name": "account",
          "type": "address"
        }
      ],
      "name": "Unpaused",
      "type": "event"
    },
    {
      "inputs": [],
      "name": "SUPPLY_UNLIMITED",
      "outputs": [
        {
          "internalType": "uint256",
          "name": "",
          "type": "uint256"
        }
      ],
      "stateMutability": "view",
      "type": "function"
    },
    {
      "inputs": [],
      "name": "TOKEN_ETH",
      "outputs": [
        {
          "internalType": "address",
          "name": "",
          "type": "address"
        }
      ],
      "stateMutability": "view",
      "type": "function"
    },
    {
      "inputs": [
        {
          "internalType": "uint256[]",
          "name": "tokens",
          "type": "uint256[]"
        }
      ],
      "name": "addSupply",
      "outputs": [],
      "stateMutability": "nonpayable",
      "type": "function"
    },
    {
      "inputs": [
        {
          "internalType": "bytes32",
          "name": "sku",
          "type": "bytes32"
        },
        {
          "internalType": "uint256",
          "name": "maxQuantityPerPurchase",
          "type": "uint256"
        },
        {
          "internalType": "address",
          "name": "notificationsReceiver",
          "type": "address"
        }
      ],
      "name": "createSku",
      "outputs": [],
      "stateMutability": "nonpayable",
      "type": "function"
    },
    {
      "inputs": [
        {
          "internalType": "address payable",
          "name": "recipient",
          "type": "address"
        },
        {
          "internalType": "address",
          "name": "token",
          "type": "address"
        },
        {
          "internalType": "bytes32",
          "name": "sku",
          "type": "bytes32"
        },
        {
          "internalType": "uint256",
          "name": "quantity",
          "type": "uint256"
        },
        {
          "internalType": "bytes",
          "name": "userData",
          "type": "bytes"
        }
      ],
      "name": "estimatePurchase",
      "outputs": [
        {
          "internalType": "uint256",
          "name": "totalPrice",
          "type": "uint256"
        },
        {
          "internalType": "bytes32[]",
          "name": "pricingData",
          "type": "bytes32[]"
        }
      ],
      "stateMutability": "view",
      "type": "function"
    },
    {
      "inputs": [],
      "name": "getSkuCapacity",
      "outputs": [
        {
          "internalType": "uint256",
          "name": "",
          "type": "uint256"
        }
      ],
      "stateMutability": "view",
      "type": "function"
    },
    {
      "inputs": [
        {
          "internalType": "bytes32",
          "name": "sku",
          "type": "bytes32"
        }
      ],
      "name": "getSkuInfo",
      "outputs": [
        {
          "internalType": "uint256",
          "name": "totalSupply",
          "type": "uint256"
        },
        {
          "internalType": "uint256",
          "name": "remainingSupply",
          "type": "uint256"
        },
        {
          "internalType": "uint256",
          "name": "maxQuantityPerPurchase",
          "type": "uint256"
        },
        {
          "internalType": "address",
          "name": "notificationsReceiver",
          "type": "address"
        },
        {
          "internalType": "address[]",
          "name": "tokens",
          "type": "address[]"
        },
        {
          "internalType": "uint256[]",
          "name": "prices",
          "type": "uint256[]"
        }
      ],
      "stateMutability": "view",
      "type": "function"
    },
    {
      "inputs": [],
      "name": "getSkus",
      "outputs": [
        {
          "internalType": "bytes32[]",
          "name": "skus",
          "type": "bytes32[]"
        }
      ],
      "stateMutability": "view",
      "type": "function"
    },
    {
      "inputs": [],
      "name": "getTokenList",
      "outputs": [
        {
          "internalType": "uint256[]",
          "name": "",
          "type": "uint256[]"
        }
      ],
      "stateMutability": "view",
      "type": "function"
    },
    {
      "inputs": [],
      "name": "getTokensPerSkuCapacity",
      "outputs": [
        {
          "internalType": "uint256",
          "name": "",
          "type": "uint256"
        }
      ],
      "stateMutability": "view",
      "type": "function"
    },
    {
      "inputs": [],
      "name": "getTotalSupply",
      "outputs": [
        {
          "internalType": "uint256",
          "name": "",
          "type": "uint256"
        }
      ],
      "stateMutability": "view",
      "type": "function"
    },
    {
      "inputs": [],
      "name": "inventory",
      "outputs": [
        {
          "internalType": "address",
          "name": "",
          "type": "address"
        }
      ],
      "stateMutability": "view",
      "type": "function"
    },
    {
      "inputs": [],
      "name": "owner",
      "outputs": [
        {
          "internalType": "address",
          "name": "",
          "type": "address"
        }
      ],
      "stateMutability": "view",
      "type": "function"
    },
    {
      "inputs": [],
      "name": "pause",
      "outputs": [],
      "stateMutability": "nonpayable",
      "type": "function"
    },
    {
      "inputs": [],
      "name": "paused",
      "outputs": [
        {
          "internalType": "bool",
          "name": "",
          "type": "bool"
        }
      ],
      "stateMutability": "view",
      "type": "function"
    },
    {
      "inputs": [],
      "name": "payoutWallet",
      "outputs": [
        {
          "internalType": "address payable",
          "name": "",
          "type": "address"
        }
      ],
      "stateMutability": "view",
      "type": "function"
    },
    {
      "inputs": [
        {
          "internalType": "address payable",
          "name": "recipient",
          "type": "address"
        },
        {
          "internalType": "address",
          "name": "token",
          "type": "address"
        },
        {
          "internalType": "bytes32",
          "name": "sku",
          "type": "bytes32"
        },
        {
          "internalType": "uint256",
          "name": "quantity",
          "type": "uint256"
        },
        {
          "internalType": "bytes",
          "name": "userData",
          "type": "bytes"
        }
      ],
      "name": "purchaseFor",
      "outputs": [],
      "stateMutability": "payable",
      "type": "function"
    },
    {
      "inputs": [],
      "name": "renounceOwnership",
      "outputs": [],
      "stateMutability": "nonpayable",
      "type": "function"
    },
    {
      "inputs": [
        {
          "internalType": "address",
          "name": "payoutWallet_",
          "type": "address"
        }
      ],
      "name": "setPayoutWallet",
      "outputs": [],
      "stateMutability": "nonpayable",
      "type": "function"
    },
    {
      "inputs": [
        {
          "internalType": "uint256[]",
          "name": "indexes",
          "type": "uint256[]"
        },
        {
          "internalType": "uint256[]",
          "name": "tokens",
          "type": "uint256[]"
        }
      ],
      "name": "setSupply",
      "outputs": [],
      "stateMutability": "nonpayable",
      "type": "function"
    },
    {
      "inputs": [],
      "name": "start",
      "outputs": [],
      "stateMutability": "nonpayable",
      "type": "function"
    },
    {
      "inputs": [],
      "name": "startedAt",
      "outputs": [
        {
          "internalType": "uint256",
          "name": "",
          "type": "uint256"
        }
      ],
      "stateMutability": "view",
      "type": "function"
    },
    {
      "inputs": [],
      "name": "tokenHolder",
      "outputs": [
        {
          "internalType": "address",
          "name": "",
          "type": "address"
        }
      ],
      "stateMutability": "view",
      "type": "function"
    },
    {
      "inputs": [],
      "name": "tokenIndex",
      "outputs": [
        {
          "internalType": "uint256",
          "name": "",
          "type": "uint256"
        }
      ],
      "stateMutability": "view",
      "type": "function"
    },
    {
      "inputs": [
        {
          "internalType": "uint256",
          "name": "",
          "type": "uint256"
        }
      ],
      "name": "tokenList",
      "outputs": [
        {
          "internalType": "uint256",
          "name": "",
          "type": "uint256"
        }
      ],
      "stateMutability": "view",
      "type": "function"
    },
    {
      "inputs": [
        {
          "internalType": "address",
          "name": "newOwner",
          "type": "address"
        }
      ],
      "name": "transferOwnership",
      "outputs": [],
      "stateMutability": "nonpayable",
      "type": "function"
    },
    {
      "inputs": [
        {
          "internalType": "address payable",
          "name": "recipient",
          "type": "address"
        },
        {
          "internalType": "address",
          "name": "token",
          "type": "address"
        },
        {
          "internalType": "bytes32",
          "name": "sku",
          "type": "bytes32"
        },
        {
          "internalType": "uint256",
          "name": "quantity",
          "type": "uint256"
        },
        {
          "internalType": "bytes",
          "name": "userData",
          "type": "bytes"
        },
        {
          "internalType": "uint256",
          "name": "totalPrice",
          "type": "uint256"
        },
        {
          "internalType": "bytes32[]",
          "name": "pricingData",
          "type": "bytes32[]"
        },
        {
          "internalType": "bytes32[]",
          "name": "paymentData",
          "type": "bytes32[]"
        }
      ],
      "name": "underscoreDelivery",
      "outputs": [],
      "stateMutability": "nonpayable",
      "type": "function"
    },
    {
      "inputs": [],
      "name": "unpause",
      "outputs": [],
      "stateMutability": "nonpayable",
      "type": "function"
    },
    {
      "inputs": [
        {
          "internalType": "bytes32",
          "name": "sku",
          "type": "bytes32"
        },
        {
          "internalType": "address[]",
          "name": "tokens",
          "type": "address[]"
        },
        {
          "internalType": "uint256[]",
          "name": "prices",
          "type": "uint256[]"
        }
      ],
      "name": "updateSkuPricing",
      "outputs": [],
      "stateMutability": "nonpayable",
      "type": "function"
    }
  ],
  "bytecode": "0x6101006040523480156200001257600080fd5b50604051620042e1380380620042e1833981810160405260808110156200003857600080fd5b50805160208201516040830151606090930151919290918383838383828281600182828282826000620000736001600160e01b036200036b16565b600080546001600160a01b0319166001600160a01b0383169081178255604051929350917f8be0079c531659141344cd1fd0a4f28419497f9722a3daafe3b4186f6b6457e0908290a350620000d1816001600160e01b036200036f16565b506003805460ff19169055608082905260a081905260408051600280825260608083018452926020830190803683375050604080516002808252606080830184529495509092509060208301908036833750508351919250680a89e968a9cbe8aa8960bb1b9173eeeeeeeeeeeeeeeeeeeeeeeeeeeeeeeeeeeeeeee915084906000906200015a57fe5b60200260200101836000815181106200016f57fe5b602002602001018281525082815250505060001960001b6f14d55414131657d5539312535255115160821b9083600181518110620001a957fe5b6020026020010183600181518110620001be57fe5b60200260200101828152508281525050507fabb92614f53337043b55dc996a83ebb09adce78ec336ca188ea02180b61d1c148282604051808060200180602001838103835285818151815260200191508051906020019060200280838360005b83811015620002385781810151838201526020016200021e565b50505050905001838103825284818151815260200191508051906020019060200280838360005b83811015620002795781810151838201526020016200025f565b5050505090500194505050505060405180910390a1620002a16001600160e01b036200055e16565b50505050506001600160a01b03861615159250620002f49150505760405162461bcd60e51b815260040180806020018281038252602f81526020018062004282602f913960400191505060405180910390fd5b505060601b6001600160601b03191660c0526001600160a01b0383166200034d5760405162461bcd60e51b8152600401808060200182810382526030815260200180620042b16030913960400191505060405180910390fd5b505060601b6001600160601b03191660e05250620006089350505050565b3390565b620003826001600160e01b036200036b16565b6000546001600160a01b03908116911614620003e5576040805162461bcd60e51b815260206004820181905260248201527f4f776e61626c653a2063616c6c6572206973206e6f7420746865206f776e6572604482015290519081900360640190fd5b6001600160a01b03811662000441576040805162461bcd60e51b815260206004820152601460248201527f5061796f75743a207a65726f2061646472657373000000000000000000000000604482015290519081900360640190fd5b6001600160a01b038116301415620004a0576040805162461bcd60e51b815260206004820152601f60248201527f5061796f75743a207468697320636f6e7472616374206173207061796f757400604482015290519081900360640190fd5b6001546001600160a01b038281169116141562000504576040805162461bcd60e51b815260206004820152601a60248201527f5061796f75743a2073616d65207061796f75742077616c6c6574000000000000604482015290519081900360640190fd5b600180546001600160a01b0319166001600160a01b03838116919091179182905560408051929091168252517fdd880d24a789958a6398c99c2e54ce31bc10a638cbc42f7dd34285479ae0f855916020908290030190a150565b60035460ff1615620005aa576040805162461bcd60e51b815260206004820152601060248201526f14185d5cd8589b194e881c185d5cd95960821b604482015290519081900360640190fd5b6003805460ff191660011790557f62e78cea01bee320cd4e420270b5ea74000d11b0c9f74754ebdbfc544b05a258620005eb6001600160e01b036200036b16565b604080516001600160a01b039092168252519081900360200190a1565b60805160a05160c05160601c60e05160601c613c2a62000658600039806114095280612139525080610e51528061210a52508061142d528061258352508061131d52806126e05250613c2a6000f3fe6080604052600436106101c25760003560e01c80636b8f9c43116100f75780639ead722211610095578063cf3ae77b11610064578063cf3ae77b14610a84578063d55f927314610b34578063f21f537d14610b49578063f2fde38b14610b5e576101c2565b80639ead72221461099b578063a963b257146109c5578063be9a655514610a5a578063c4e41b2214610a6f576101c2565b80638488bb4e116100d15780638488bb4e1461091d57806385b3cfac146109325780638da5cb5b146109715780639e04954514610986576101c2565b80636b8f9c43146108c0578063715018a6146108f35780638456cb5914610908576101c2565b80633f4ba83a116101645780635c4fafc71161013e5780635c4fafc7146107325780635c975abb146107475780635e6e9f701461077057806361bd3851146108ab576101c2565b80633f4ba83a146106f3578063420a83e714610708578063451b31a21461071d576101c2565b806323f927c9116101a057806323f927c914610442578063273cbaa0146105765780632a8a45bc146105db5780633628bd93146106cc576101c2565b80631323b066146101c757806315469171146102c457806315d52a5c14610411575b600080fd5b3480156101d357600080fd5b50610269600480360360a08110156101ea57600080fd5b6001600160a01b03823581169260208101359091169160408201359160608101359181019060a08101608082013564010000000081111561022a57600080fd5b82018360208201111561023c57600080fd5b8035906020019184600183028401116401000000008311171561025e57600080fd5b509092509050610b91565b6040518083815260200180602001828103825283818151815260200191508051906020019060200280838360005b838110156102af578181015183820152602001610297565b50505050905001935050505060405180910390f35b3480156102d057600080fd5b5061040f60048036036101008110156102e857600080fd5b6001600160a01b03823581169260208101359091169160408201359160608101359181019060a08101608082013564010000000081111561032857600080fd5b82018360208201111561033a57600080fd5b8035906020019184600183028401116401000000008311171561035c57600080fd5b9193909282359260408101906020013564010000000081111561037e57600080fd5b82018360208201111561039057600080fd5b803590602001918460208302840111640100000000831117156103b257600080fd5b9193909290916020810190356401000000008111156103d057600080fd5b8201836020820111156103e257600080fd5b8035906020019184602083028401116401000000008311171561040457600080fd5b509092509050610cd6565b005b34801561041d57600080fd5b50610426610e4f565b604080516001600160a01b039092168252519081900360200190f35b34801561044e57600080fd5b5061040f6004803603604081101561046557600080fd5b81019060208101813564010000000081111561048057600080fd5b82018360208201111561049257600080fd5b803590602001918460208302840111640100000000831117156104b457600080fd5b919080806020026020016040519081016040528093929190818152602001838360200280828437600092019190915250929594936020810193503591505064010000000081111561050457600080fd5b82018360208201111561051657600080fd5b8035906020019184602083028401116401000000008311171561053857600080fd5b919080806020026020016040519081016040528093929190818152602001838360200280828437600092019190915250929550610e73945050505050565b34801561058257600080fd5b5061058b611118565b60408051602080825283518183015283519192839290830191858101910280838360005b838110156105c75781810151838201526020016105af565b505050509050019250505060405180910390f35b3480156105e757600080fd5b50610605600480360360208110156105fe57600080fd5b5035611170565b60405180878152602001868152602001858152602001846001600160a01b03166001600160a01b031681526020018060200180602001838103835285818151815260200191508051906020019060200280838360005b8381101561067357818101518382015260200161065b565b50505050905001838103825284818151815260200191508051906020019060200280838360005b838110156106b257818101518382015260200161069a565b505050509050019850505050505050505060405180910390f35b3480156106d857600080fd5b506106e161131b565b60408051918252519081900360200190f35b3480156106ff57600080fd5b5061040f61133f565b34801561071457600080fd5b50610426611407565b34801561072957600080fd5b506106e161142b565b34801561073e57600080fd5b5061042661144f565b34801561075357600080fd5b5061075c611467565b604080519115158252519081900360200190f35b34801561077c57600080fd5b5061040f6004803603606081101561079357600080fd5b813591908101906040810160208201356401000000008111156107b557600080fd5b8201836020820111156107c757600080fd5b803590602001918460208302840111640100000000831117156107e957600080fd5b919080806020026020016040519081016040528093929190818152602001838360200280828437600092019190915250929594936020810193503591505064010000000081111561083957600080fd5b82018360208201111561084b57600080fd5b8035906020019184602083028401116401000000008311171561086d57600080fd5b919080806020026020016040519081016040528093929190818152602001838360200280828437600092019190915250929550611470945050505050565b3480156108b757600080fd5b5061058b6116a2565b3480156108cc57600080fd5b5061040f600480360360208110156108e357600080fd5b50356001600160a01b03166116fb565b3480156108ff57600080fd5b5061040f6118e8565b34801561091457600080fd5b5061040f6119a9565b34801561092957600080fd5b50610426611a6f565b34801561093e57600080fd5b5061040f6004803603606081101561095557600080fd5b50803590602081013590604001356001600160a01b0316611a7e565b34801561097d57600080fd5b50610426611b54565b34801561099257600080fd5b506106e1611b63565b3480156109a757600080fd5b506106e1600480360360208110156109be57600080fd5b5035611b69565b61040f600480360360a08110156109db57600080fd5b6001600160a01b03823581169260208101359091169160408201359160608101359181019060a081016080820135640100000000811115610a1b57600080fd5b820183602082011115610a2d57600080fd5b80359060200191846001830284011164010000000083111715610a4f57600080fd5b509092509050611b87565b348015610a6657600080fd5b5061040f611cb4565b348015610a7b57600080fd5b506106e1611d26565b348015610a9057600080fd5b5061040f60048036036020811015610aa757600080fd5b810190602081018135640100000000811115610ac257600080fd5b820183602082011115610ad457600080fd5b80359060200191846020830284011164010000000083111715610af657600080fd5b919080806020026020016040519081016040528093929190818152602001838360200280828437600092019190915250929550611d2c945050505050565b348015610b4057600080fd5b506106e1611eb9565b348015610b5557600080fd5b506106e1611ebf565b348015610b6a57600080fd5b5061040f60048036036020811015610b8157600080fd5b50356001600160a01b0316611ec5565b6000606060025460001415610bed576040805162461bcd60e51b815260206004820152601660248201527f537461727461626c653a206e6f74207374617274656400000000000000000000604482015290519081900360640190fd5b60035460ff1615610c45576040805162461bcd60e51b815260206004820152601060248201527f5061757361626c653a2070617573656400000000000000000000000000000000604482015290519081900360640190fd5b610c4d61395f565b610c55611fdc565b6001600160a01b03908116825289811660208084019190915290891660408084019190915260608301899052608083018890528051601f870183900483028101830190915285815290869086908190840183828082843760009201919091525050505060a0820152610cc681611fe0565b9250925050965096945050505050565b610cde61395f565b610ce6611fdc565b6001600160a01b0390811682528c8116602080840191909152908c16604080840191909152606083018c9052608083018b90528051601f8a0183900483028101830190915288815290899089908190840183828082843760009201919091525050505060a082015260c081018690526040805160208087028281018201909352868252909187918791829185019084908082843760009201919091525050505060e082015260408051602080850282810182019093528482529091859185918291850190849080828437600092019190915250505050610100820152610dcb81612007565b61012081015160408051602080825283518183015283517ff94e453c69afa2e43777ec90f3a26bcfc9ac74969e1c25a72b056b9f81c93b339493839290830191818601910280838360005b83811015610e2e578181015183820152602001610e16565b505050509050019250505060405180910390a1505050505050505050505050565b7f000000000000000000000000000000000000000000000000000000000000000081565b610e7b611fdc565b6000546001600160a01b03908116911614610edd576040805162461bcd60e51b815260206004820181905260248201527f4f776e61626c653a2063616c6c6572206973206e6f7420746865206f776e6572604482015290519081900360640190fd5b60035460ff16610f34576040805162461bcd60e51b815260206004820152601460248201527f5061757361626c653a206e6f7420706175736564000000000000000000000000604482015290519081900360640190fd5b60085480610f735760405162461bcd60e51b8152600401808060200182810382526029815260200180613b856029913960400191505060405180910390fd5b825180610fb15760405162461bcd60e51b8152600401808060200182810382526026815260200180613bcf6026913960400191505060405180910390fd5b8251818114610ff15760405162461bcd60e51b815260040180806020018281038252602e815260200180613a21602e913960400191505060405180910390fd5b60075460005b83811461110f57600087828151811061100c57fe5b60200260200101519050828110156110555760405162461bcd60e51b8152600401808060200182810382526026815260200180613b3c6026913960400191505060405180910390fd5b8581106110935760405162461bcd60e51b815260040180806020018281038252602c815260200180613acb602c913960400191505060405180910390fd5b60008783815181106110a157fe5b6020026020010151905080600014156110eb5760405162461bcd60e51b8152600401808060200182810382526023815260200180613b626023913960400191505060405180910390fd5b80600883815481106110f957fe5b6000918252602090912001555050600101610ff7565b50505050505050565b6060600880548060200260200160405190810160405280929190818152602001828054801561116657602002820191906000526020600020905b815481526020019060010190808311611152575b5050505050905090565b600081815260066020526040812081908190819060609081908361119660048301612272565b825498509050876111ee576040805162461bcd60e51b815260206004820152601660248201527f53616c653a206e6f6e2d6578697374656e7420736b7500000000000000000000604482015290519081900360640190fd5b60018201546002830154600384015491985096506001600160a01b031694508067ffffffffffffffff8111801561122457600080fd5b5060405190808252806020026020018201604052801561124e578160200160208202803683370190505b5093508067ffffffffffffffff8111801561126857600080fd5b50604051908082528060200260200182016040528015611292578160200160208202803683370190505b50925060005b8181101561130f576000806112b6600486018463ffffffff61227616565b915091508160001c8784815181106112ca57fe5b60200260200101906001600160a01b031690816001600160a01b0316815250508060001c8684815181106112fa57fe5b60209081029190910101525050600101611298565b50505091939550919395565b7f000000000000000000000000000000000000000000000000000000000000000090565b611347611fdc565b6000546001600160a01b039081169116146113a9576040805162461bcd60e51b815260206004820181905260248201527f4f776e61626c653a2063616c6c6572206973206e6f7420746865206f776e6572604482015290519081900360640190fd5b6002546113fd576040805162461bcd60e51b815260206004820152601660248201527f537461727461626c653a206e6f74207374617274656400000000000000000000604482015290519081900360640190fd5b611405612307565b565b7f000000000000000000000000000000000000000000000000000000000000000081565b7f000000000000000000000000000000000000000000000000000000000000000090565b73eeeeeeeeeeeeeeeeeeeeeeeeeeeeeeeeeeeeeeee81565b60035460ff1690565b611478611fdc565b6000546001600160a01b039081169116146114da576040805162461bcd60e51b815260206004820181905260248201527f4f776e61626c653a2063616c6c6572206973206e6f7420746865206f776e6572604482015290519081900360640190fd5b81518151811461151b5760405162461bcd60e51b8152600401808060200182810382526024815260200180613b186024913960400191505060405180910390fd5b6000848152600660205260409020805461157c576040805162461bcd60e51b815260206004820152601660248201527f53616c653a206e6f6e2d6578697374656e7420736b7500000000000000000000604482015290519081900360640190fd5b60048101826115d357600061159082612272565b905060005b818110156115cc5760006115af848263ffffffff61227616565b5090506115c2848263ffffffff6123ae16565b5050600101611595565b50506115de565b6115de81868661248e565b857fcb3fe5489e0cd43d0f4a33d1e09a4a0463a03d0d38f56165530854e5540db1438686604051808060200180602001838103835285818151815260200191508051906020019060200280838360005b8381101561164657818101518382015260200161162e565b50505050905001838103825284818151815260200191508051906020019060200280838360005b8381101561168557818101518382015260200161166d565b5050505090500194505050505060405180910390a2505050505050565b606060046000018054806020026020016040519081016040528092919081815260200182805480156111665760200282019190600052602060002090815481526020019060010190808311611152575050505050905090565b611703611fdc565b6000546001600160a01b03908116911614611765576040805162461bcd60e51b815260206004820181905260248201527f4f776e61626c653a2063616c6c6572206973206e6f7420746865206f776e6572604482015290519081900360640190fd5b6001600160a01b0381166117c0576040805162461bcd60e51b815260206004820152601460248201527f5061796f75743a207a65726f2061646472657373000000000000000000000000604482015290519081900360640190fd5b6001600160a01b03811630141561181e576040805162461bcd60e51b815260206004820152601f60248201527f5061796f75743a207468697320636f6e7472616374206173207061796f757400604482015290519081900360640190fd5b6001546001600160a01b0382811691161415611881576040805162461bcd60e51b815260206004820152601a60248201527f5061796f75743a2073616d65207061796f75742077616c6c6574000000000000604482015290519081900360640190fd5b6001805473ffffffffffffffffffffffffffffffffffffffff19166001600160a01b03838116919091179182905560408051929091168252517fdd880d24a789958a6398c99c2e54ce31bc10a638cbc42f7dd34285479ae0f855916020908290030190a150565b6118f0611fdc565b6000546001600160a01b03908116911614611952576040805162461bcd60e51b815260206004820181905260248201527f4f776e61626c653a2063616c6c6572206973206e6f7420746865206f776e6572604482015290519081900360640190fd5b600080546040516001600160a01b03909116907f8be0079c531659141344cd1fd0a4f28419497f9722a3daafe3b4186f6b6457e0908390a36000805473ffffffffffffffffffffffffffffffffffffffff19169055565b6119b1611fdc565b6000546001600160a01b03908116911614611a13576040805162461bcd60e51b815260206004820181905260248201527f4f776e61626c653a2063616c6c6572206973206e6f7420746865206f776e6572604482015290519081900360640190fd5b600254611a67576040805162461bcd60e51b815260206004820152601660248201527f537461727461626c653a206e6f74207374617274656400000000000000000000604482015290519081900360640190fd5b6114056125fe565b6001546001600160a01b031681565b611a86611fdc565b6000546001600160a01b03908116911614611ae8576040805162461bcd60e51b815260206004820181905260248201527f4f776e61626c653a2063616c6c6572206973206e6f7420746865206f776e6572604482015290519081900360640190fd5b60035460ff16611b3f576040805162461bcd60e51b815260206004820152601460248201527f5061757361626c653a206e6f7420706175736564000000000000000000000000604482015290519081900360640190fd5b600854611b4f908490848461268c565b505050565b6000546001600160a01b031690565b60001981565b60088181548110611b7657fe5b600091825260209091200154905081565b600254611bdb576040805162461bcd60e51b815260206004820152601660248201527f537461727461626c653a206e6f74207374617274656400000000000000000000604482015290519081900360640190fd5b60035460ff1615611c33576040805162461bcd60e51b815260206004820152601060248201527f5061757361626c653a2070617573656400000000000000000000000000000000604482015290519081900360640190fd5b611c3b61395f565b611c43611fdc565b6001600160a01b03908116825287811660208084019190915290871660408084019190915260608301879052608083018690528051601f850183900483028101830190915283815290849084908190840183828082843760009201919091525050505060a082015261110f816128c9565b611cbc611fdc565b6000546001600160a01b03908116911614611d1e576040805162461bcd60e51b815260206004820181905260248201527f4f776e61626c653a2063616c6c6572206973206e6f7420746865206f776e6572604482015290519081900360640190fd5b6113fd6128f9565b60085490565b611d34611fdc565b6000546001600160a01b03908116911614611d96576040805162461bcd60e51b815260206004820181905260248201527f4f776e61626c653a2063616c6c6572206973206e6f7420746865206f776e6572604482015290519081900360640190fd5b805180611dd45760405162461bcd60e51b815260040180806020018281038252602c815260200180613a9f602c913960400191505060405180910390fd5b60005b818114611e73576000838281518110611dec57fe5b602002602001015190508060001415611e365760405162461bcd60e51b815260040180806020018281038252602a815260200180613a75602a913960400191505060405180910390fd5b60088054600181810183556000929092527ff3f7a9fe364faab93b216da50a3214154f22a0a2b415b23a84c8169e8b636ee3019190915501611dd7565b50611e7e6004612272565b15611eb5576000611e9660048263ffffffff61297b16565b6000908152600660205260409020805483018155600101805483019055505b5050565b60075481565b60025490565b611ecd611fdc565b6000546001600160a01b03908116911614611f2f576040805162461bcd60e51b815260206004820181905260248201527f4f776e61626c653a2063616c6c6572206973206e6f7420746865206f776e6572604482015290519081900360640190fd5b6001600160a01b038116611f745760405162461bcd60e51b8152600401808060200182810382526026815260200180613a4f6026913960400191505060405180910390fd5b600080546040516001600160a01b03808516939216917f8be0079c531659141344cd1fd0a4f28419497f9722a3daafe3b4186f6b6457e091a36000805473ffffffffffffffffffffffffffffffffffffffff19166001600160a01b0392909216919091179055565b3390565b60006060611fed836129f5565b611ff683612ca5565b505060c081015160e0909101519091565b61201081612d42565b6060816080015167ffffffffffffffff8111801561202d57600080fd5b50604051908082528060200260200182016040528015612057578160200160208202803683370190505b5090506060826080015167ffffffffffffffff8111801561207757600080fd5b506040519080825280602002602001820160405280156120a1578160200160208202803683370190505b50905060005b836080015181146121075783610120015181815181106120c357fe5b602002602001015160001c8382815181106120da57fe5b60200260200101818152505060018282815181106120f457fe5b60209081029190910101526001016120a7565b507f00000000000000000000000000000000000000000000000000000000000000006001600160a01b0316632eb2c2d67f0000000000000000000000000000000000000000000000000000000000000000856020015185856040518563ffffffff1660e01b815260040180856001600160a01b03166001600160a01b03168152602001846001600160a01b03166001600160a01b03168152602001806020018060200180602001848103845286818151815260200191508051906020019060200280838360005b838110156121e65781810151838201526020016121ce565b50505050905001848103835285818151815260200191508051906020019060200280838360005b8381101561222557818101518382015260200161220d565b50505050905001848103825260008152602001602001975050505050505050600060405180830381600087803b15801561225e57600080fd5b505af115801561110f573d6000803e3d6000fd5b5490565b8154600090819083106122d0576040805162461bcd60e51b815260206004820152601c60248201527f456e756d4d61703a20696e646578206f7574206f6620626f756e647300000000604482015290519081900360640190fd5b60008460000184815481106122e157fe5b906000526020600020906002020190508060000154816001015492509250509250929050565b60035460ff1661235e576040805162461bcd60e51b815260206004820152601460248201527f5061757361626c653a206e6f7420706175736564000000000000000000000000604482015290519081900360640190fd5b6003805460ff191690557f5db9ee0a495bf2e6ff9c91a7834c1ba4fdd244a5e8aa4e537bd38aeae4b073aa612391611fdc565b604080516001600160a01b039092168252519081900360200190a1565b6000818152600183016020526040812054801561248257835460001980830191908101906000908790839081106123e157fe5b906000526020600020906002020190508087600001848154811061240157fe5b60009182526020808320845460029093020191825560019384015491840191909155835482528983019052604090209084019055865487908061244057fe5b60008281526020808220600260001990940193840201828155600190810183905592909355888152898201909252604082209190915594506124889350505050565b60009150505b92915050565b60005b82518110156125805760008382815181106124a857fe5b6020026020010151905060006001600160a01b0316816001600160a01b0316141561251a576040805162461bcd60e51b815260206004820152601860248201527f53616c653a207a65726f206164647265737320746f6b656e0000000000000000604482015290519081900360640190fd5b600083838151811061252857fe5b60200260200101519050806000141561255a57612554866001600160a01b03841663ffffffff6123ae16565b50612576565b612574866001600160a01b0384168363ffffffff612df316565b505b5050600101612491565b507f00000000000000000000000000000000000000000000000000000000000000006125ab84612272565b1115611b4f576040805162461bcd60e51b815260206004820152601560248201527f53616c653a20746f6f206d616e7920746f6b656e730000000000000000000000604482015290519081900360640190fd5b60035460ff1615612656576040805162461bcd60e51b815260206004820152601060248201527f5061757361626c653a2070617573656400000000000000000000000000000000604482015290519081900360640190fd5b6003805460ff191660011790557f62e78cea01bee320cd4e420270b5ea74000d11b0c9f74754ebdbfc544b05a258612391611fdc565b826126de576040805162461bcd60e51b815260206004820152601160248201527f53616c653a207a65726f20737570706c79000000000000000000000000000000604482015290519081900360640190fd5b7f00000000000000000000000000000000000000000000000000000000000000006127096004612272565b1061275b576040805162461bcd60e51b815260206004820152601360248201527f53616c653a20746f6f206d616e7920736b757300000000000000000000000000604482015290519081900360640190fd5b61276c60048563ffffffff612e8d16565b6127bd576040805162461bcd60e51b815260206004820152601960248201527f53616c653a20736b7520616c7265616479206372656174656400000000000000604482015290519081900360640190fd5b6001600160a01b0381161561282f576127de816001600160a01b0316612ed7565b61282f576040805162461bcd60e51b815260206004820181905260248201527f53616c653a207265636569766572206973206e6f74206120636f6e7472616374604482015290519081900360640190fd5b60008481526006602090815260409182902085815560018101869055600281018590556003810180546001600160a01b03861673ffffffffffffffffffffffffffffffffffffffff1990911681179091558351888152928301879052828401869052606083015291517f38bd4aabce684540cd61351b91f2f5facf9d6963934347e25aab93d87ae7ac149181900360800190a15050505050565b6128d2816129f5565b6128db81612ca5565b6128e481612edd565b6128ed81612007565b6128f68161310d565b50565b6002541561294e576040805162461bcd60e51b815260206004820152601260248201527f537461727461626c653a20737461727465640000000000000000000000000000604482015290519081900360640190fd5b426002557f27029695aa5f602a4ee81f4c32dfa86e562f200a17966496f3a7c3f2ec0f9417612391611fdc565b815460009082106129d3576040805162461bcd60e51b815260206004820152601c60248201527f456e756d5365743a20696e646578206f7574206f6620626f756e647300000000604482015290519081900360640190fd5b8260000182815481106129e257fe5b9060005260206000200154905092915050565b60208101516001600160a01b0316612a54576040805162461bcd60e51b815260206004820152601c60248201527f53616c653a207a65726f206164647265737320726563697069656e7400000000604482015290519081900360640190fd5b60408101516001600160a01b0316612ab3576040805162461bcd60e51b815260206004820152601860248201527f53616c653a207a65726f206164647265737320746f6b656e0000000000000000604482015290519081900360640190fd5b6080810151612b09576040805162461bcd60e51b815260206004820152601c60248201527f53616c653a207a65726f207175616e7469747920707572636861736500000000604482015290519081900360640190fd5b606081015160009081526006602052604090208054612b6f576040805162461bcd60e51b815260206004820152601660248201527f53616c653a206e6f6e2d6578697374656e7420736b7500000000000000000000604482015290519081900360640190fd5b816080015181600201541015612bcc576040805162461bcd60e51b815260206004820152601860248201527f53616c653a2061626f7665206d6178207175616e746974790000000000000000604482015290519081900360640190fd5b805460001914612c3357816080015181600101541015612c33576040805162461bcd60e51b815260206004820152601960248201527f53616c653a20696e73756666696369656e7420737570706c7900000000000000604482015290519081900360640190fd5b60408201516001600160a01b0316612c54600483018263ffffffff61360016565b611b4f576040805162461bcd60e51b815260206004820152601c60248201527f53616c653a206e6f6e2d6578697374656e7420736b7520746f6b656e00000000604482015290519081900360640190fd5b606081015160009081526006602052604090208054612d0b576040805162461bcd60e51b815260206004820152601560248201527f53616c653a20756e737570706f7274656420534b550000000000000000000000604482015290519081900360640190fd5b600481016000612d1b8483613618565b9050612d3484608001518261368e90919063ffffffff16565b60c090940193909352505050565b612d4b816136e7565b806080015167ffffffffffffffff81118015612d6657600080fd5b50604051908082528060200260200182016040528015612d90578160200160208202803683370190505b506101208201526007546000905b82608001518214612dec5760088181548110612db657fe5b906000526020600020015460001b8361012001518381518110612dd557fe5b602090810291909101015260019182019101612d9e565b6007555050565b600082815260018401602052604081205480612e58575050604080518082018252838152602080820184815286546001818101895560008981528481209551600290930290950191825591519082015586548684528188019092529290912055612e86565b82856000016001830381548110612e6b57fe5b90600052602060002090600202016001018190555060009150505b9392505050565b6000612e998383613600565b612ecf57508154600181810184556000848152602080822090930184905584548482528286019093526040902091909155612488565b506000612488565b3b151590565b60408101516001600160a01b031673eeeeeeeeeeeeeeeeeeeeeeeeeeeeeeeeeeeeeeee1415613000578060c00151341015612f5f576040805162461bcd60e51b815260206004820152601f60248201527f53616c653a20696e73756666696369656e74204554482070726f766964656400604482015290519081900360640190fd5b60015460c08201516040516001600160a01b039092169181156108fc0291906000818181858888f19350505050158015612f9d573d6000803e3d6000fd5b506000612fb78260c00151346137f690919063ffffffff16565b90508015612ffa5781516040516001600160a01b039091169082156108fc029083906000818181858888f19350505050158015612ff8573d6000803e3d6000fd5b505b506128f6565b80604001516001600160a01b03166323b872dd61301b611fdc565b60015460c0850151604080517fffffffff0000000000000000000000000000000000000000000000000000000060e087901b1681526001600160a01b03948516600482015293909216602484015260448301525160648083019260209291908290030181600087803b15801561309057600080fd5b505af11580156130a4573d6000803e3d6000fd5b505050506040513d60208110156130ba57600080fd5b50516128f6576040805162461bcd60e51b815260206004820152601a60248201527f53616c653a204552433230207061796d656e74206661696c6564000000000000604482015290519081900360640190fd5b806060015181604001516001600160a01b031682600001516001600160a01b03167f29f844483ca6b10b5c0611d039afc15ce8f6380e905307b381c3a8ee4e90e11e846020015185608001518660a001518760c001518860e001518961010001518a610120015160405160200180848051906020019060200280838360005b838110156131a457818101518382015260200161318c565b50505050905001838051906020019060200280838360005b838110156131d45781810151838201526020016131bc565b50505050905001828051906020019060200280838360005b838110156132045781810151838201526020016131ec565b50505050905001935050505060405160208183030381529060405260405180866001600160a01b03166001600160a01b031681526020018581526020018060200184815260200180602001838103835286818151815260200191508051906020019080838360005b8381101561328457818101518382015260200161326c565b50505050905090810190601f1680156132b15780820380516001836020036101000a031916815260200191505b50838103825284518152845160209182019186019080838360005b838110156132e45781810151838201526020016132cc565b50505050905090810190601f1680156133115780820380516001836020036101000a031916815260200191505b5097505050505050505060405180910390a460608101516000908152600660205260409020600301546001600160a01b03168015611eb5576361eceae860e01b7bffffffffffffffffffffffffffffffffffffffffffffffffffffffff1916816001600160a01b03166361eceae8846000015185602001518660400151876060015188608001518960a001518a60c001518b60e001518c61010001518d61012001516040518b63ffffffff1660e01b8152600401808b6001600160a01b03166001600160a01b031681526020018a6001600160a01b03166001600160a01b03168152602001896001600160a01b03166001600160a01b031681526020018881526020018781526020018060200186815260200180602001806020018060200185810385528a818151815260200191508051906020019080838360005b8381101561346557818101518382015260200161344d565b50505050905090810190601f1680156134925780820380516001836020036101000a031916815260200191505b508581038452885181528851602091820191808b01910280838360005b838110156134c75781810151838201526020016134af565b50505050905001858103835287818151815260200191508051906020019060200280838360005b838110156135065781810151838201526020016134ee565b50505050905001858103825286818151815260200191508051906020019060200280838360005b8381101561354557818101518382015260200161352d565b505050509050019e505050505050505050505050505050602060405180830381600087803b15801561357657600080fd5b505af115801561358a573d6000803e3d6000fd5b505050506040513d60208110156135a057600080fd5b50517fffffffff000000000000000000000000000000000000000000000000000000001614611eb55760405162461bcd60e51b8152600401808060200182810382526021815260200180613bae6021913960400191505060405180910390fd5b60009081526001919091016020526040902054151590565b604082015160009061363a9083906001600160a01b031663ffffffff61383816565b905080612488576040805162461bcd60e51b815260206004820152601f60248201527f53616c653a20756e737570706f72746564207061796d656e7420746f6b656e00604482015290519081900360640190fd5b60008261369d57506000612488565b828202828482816136aa57fe5b0414612e865760405162461bcd60e51b8152600401808060200182810382526021815260200180613af76021913960400191505060405180910390fd5b6136ef6139d0565b6060808301516000908152600660209081526040808320815160a0810183528154815260018201548185015260028201548184015260038201546001600160a01b031695810195909552815160048201805480860283018501855294820185815292956080880195929491938593909285929085015b828210156137ab57838290600052602060002090600202016040518060400160405290816000820154815260200160018201548152505081526020019060010190613765565b50505091525050905250805190915060001914611eb557608082015160208201516137db9163ffffffff6137f616565b60608301516000908152600660205260409020600101555050565b6000612e8683836040518060400160405280601e81526020017f536166654d6174683a207375627472616374696f6e206f766572666c6f7700008152506138c8565b60008181526001830160205260408120548061389b576040805162461bcd60e51b815260206004820152601860248201527f456e756d4d61703a206e6f6e6578697374656e74206b65790000000000000000604482015290519081900360640190fd5b8360000160018203815481106138ad57fe5b90600052602060002090600202016001015491505092915050565b600081848411156139575760405162461bcd60e51b81526004018080602001828103825283818151815260200191508051906020019080838360005b8381101561391c578181015183820152602001613904565b50505050905090810190601f1680156139495780820380516001836020036101000a031916815260200191505b509250505060405180910390fd5b505050900390565b60405180610140016040528060006001600160a01b0316815260200160006001600160a01b0316815260200160006001600160a01b03168152602001600080191681526020016000815260200160608152602001600081526020016060815260200160608152602001606081525090565b6040518060a0016040528060008152602001600081526020016000815260200160006001600160a01b03168152602001613a08613a0d565b905290565b604051806020016040528060608152509056fe46697865644f72646572496e76656e746f727953616c653a206172726179206c656e677468206d69736d617463684f776e61626c653a206e6577206f776e657220697320746865207a65726f206164647265737346697865644f72646572496e76656e746f727953616c653a20616464696e67207a65726f20746f6b656e46697865644f72646572496e76656e746f727953616c653a20656d70747920746f6b656e7320746f2061646446697865644f72646572496e76656e746f727953616c653a20696e646578206f75742d6f662d626f756e6473536166654d6174683a206d756c7469706c69636174696f6e206f766572666c6f7753616c653a20746f6b656e732f707269636573206c656e67746873206d69736d6174636846697865644f72646572496e76656e746f727953616c653a20696e76616c696420696e64657846697865644f72646572496e76656e746f727953616c653a207a65726f20746f6b656e46697865644f72646572496e76656e746f727953616c653a20656d70747920746f6b656e206c69737453616c653a2077726f6e672072656365697665722072657475726e2076616c756546697865644f72646572496e76656e746f727953616c653a20656d70747920696e6465786573a2646970667358221220f351a0358dab220e953eae8ad0e8f8970d434b593a6df922d88ff0f18bc2f5ec64736f6c6343000608003346697865644f72646572496e76656e746f727953616c653a207a65726f206164647265737320696e76656e746f727946697865644f7264657253616e644e667453616c653a207a65726f206164647265737320746f6b656e20686f6c646572",
  "linkReferences": {},
  "deployedLinkReferences": {}
}