{
  "_format": "hh-sol-artifact-1",
  "contractName": "REVVxUndoneVouchersRedeemerMock",
  "sourceName": "contracts/mock/token/utils/REVVxUndoneVouchersRedeemerMock.sol",
  "abi": [
    {
      "inputs": [
        {
          "internalType": "contract IERC1155InventoryBurnable",
          "name": "vouchersContract",
          "type": "address"
        },
        {
          "internalType": "contract IWrappedERC20",
          "name": "tokenContract",
          "type": "address"
        },
        {
          "internalType": "address",
          "name": "tokenHolder",
          "type": "address"
        }
      ],
      "stateMutability": "nonpayable",
      "type": "constructor"
    },
    {
      "anonymous": false,
      "inputs": [
        {
          "indexed": true,
          "internalType": "address",
          "name": "previousOwner",
          "type": "address"
        },
        {
          "indexed": true,
          "internalType": "address",
          "name": "newOwner",
          "type": "address"
        }
      ],
      "name": "OwnershipTransferred",
      "type": "event"
    },
    {
      "inputs": [
        {
          "internalType": "address",
          "name": "",
          "type": "address"
        },
        {
          "internalType": "address",
          "name": "from",
          "type": "address"
        },
        {
          "internalType": "uint256[]",
          "name": "ids",
          "type": "uint256[]"
        },
        {
          "internalType": "uint256[]",
          "name": "values",
          "type": "uint256[]"
        },
        {
          "internalType": "bytes",
          "name": "",
          "type": "bytes"
        }
      ],
      "name": "onERC1155BatchReceived",
      "outputs": [
        {
          "internalType": "bytes4",
          "name": "",
          "type": "bytes4"
        }
      ],
      "stateMutability": "nonpayable",
      "type": "function"
    },
    {
      "inputs": [
        {
          "internalType": "address",
          "name": "",
          "type": "address"
        },
        {
          "internalType": "address",
          "name": "from",
          "type": "address"
        },
        {
          "internalType": "uint256",
          "name": "id",
          "type": "uint256"
        },
        {
          "internalType": "uint256",
          "name": "value",
          "type": "uint256"
        },
        {
          "internalType": "bytes",
          "name": "",
          "type": "bytes"
        }
      ],
      "name": "onERC1155Received",
      "outputs": [
        {
          "internalType": "bytes4",
          "name": "",
          "type": "bytes4"
        }
      ],
      "stateMutability": "nonpayable",
      "type": "function"
    },
    {
      "inputs": [],
      "name": "owner",
      "outputs": [
        {
          "internalType": "address",
          "name": "",
          "type": "address"
        }
      ],
      "stateMutability": "view",
      "type": "function"
    },
    {
      "inputs": [
        {
          "internalType": "address[]",
          "name": "accounts",
          "type": "address[]"
        },
        {
          "internalType": "address[]",
          "name": "tokens",
          "type": "address[]"
        },
        {
          "internalType": "uint256[]",
          "name": "amounts",
          "type": "uint256[]"
        }
      ],
      "name": "recoverERC20s",
      "outputs": [],
      "stateMutability": "nonpayable",
      "type": "function"
    },
    {
      "inputs": [
        {
          "internalType": "address[]",
          "name": "accounts",
          "type": "address[]"
        },
        {
          "internalType": "address[]",
          "name": "contracts",
          "type": "address[]"
        },
        {
          "internalType": "uint256[]",
          "name": "tokenIds",
          "type": "uint256[]"
        }
      ],
      "name": "recoverERC721s",
      "outputs": [],
      "stateMutability": "nonpayable",
      "type": "function"
    },
    {
      "inputs": [
        {
          "internalType": "address",
          "name": "tokenHolder_",
          "type": "address"
        }
      ],
      "name": "setTokenHolder",
      "outputs": [],
      "stateMutability": "nonpayable",
      "type": "function"
    },
    {
      "inputs": [
        {
          "internalType": "bytes4",
          "name": "interfaceId",
          "type": "bytes4"
        }
      ],
      "name": "supportsInterface",
      "outputs": [
        {
          "internalType": "bool",
          "name": "",
          "type": "bool"
        }
      ],
      "stateMutability": "view",
      "type": "function"
    },
    {
      "inputs": [],
      "name": "tokenContract",
      "outputs": [
        {
          "internalType": "contract IWrappedERC20",
          "name": "",
          "type": "address"
        }
      ],
      "stateMutability": "view",
      "type": "function"
    },
    {
      "inputs": [],
      "name": "tokenHolder",
      "outputs": [
        {
          "internalType": "address",
          "name": "",
          "type": "address"
        }
      ],
      "stateMutability": "view",
      "type": "function"
    },
    {
      "inputs": [
        {
          "internalType": "address",
          "name": "newOwner",
          "type": "address"
        }
      ],
      "name": "transferOwnership",
      "outputs": [],
      "stateMutability": "nonpayable",
      "type": "function"
    },
    {
      "inputs": [
        {
          "internalType": "uint256",
          "name": "tokenId",
          "type": "uint256"
        }
      ],
      "name": "voucherValue",
      "outputs": [
        {
          "internalType": "uint256",
          "name": "",
          "type": "uint256"
        }
      ],
      "stateMutability": "pure",
      "type": "function"
    },
    {
      "inputs": [],
      "name": "vouchersContract",
      "outputs": [
        {
          "internalType": "contract IERC1155InventoryBurnable",
          "name": "",
          "type": "address"
        }
      ],
      "stateMutability": "view",
      "type": "function"
    }
  ],
  "bytecode": "0x60c060405234801561001057600080fd5b506040516114833803806114838339818101604052606081101561003357600080fd5b5080516020820151604092830151600080546001600160a01b0319163390811782559451939492939192859285928592859285928592918291907f8be0079c531659141344cd1fd0a4f28419497f9722a3daafe3b4186f6b6457e0908290a350606083811b6001600160601b03199081166080529083901b1660a052600180546001600160a01b0319166001600160a01b03928316179055918216975016945061136e93506101159250600091505039806106dd5280610a8f5280610dd35250806106b9528061080d52806108815280610c3d5280610cf6525061136e6000f3fe608060405234801561001057600080fd5b50600436106100d45760003560e01c80638da5cb5b11610081578063f23a6e611161005b578063f23a6e6114610523578063f29d2f28146105b8578063f2fde38b146105de576100d4565b80638da5cb5b146102a5578063bc197c81146102ad578063c3666c361461040f576100d4565b8063474f2891116100b2578063474f28911461017f57806355a373d61461018757806373c8a9581461018f576100d4565b806301ffc9a7146100d957806303e159791461012c578063420a83e71461015b575b600080fd5b610118600480360360208110156100ef57600080fd5b50357fffffffff0000000000000000000000000000000000000000000000000000000016610604565b604080519115158252519081900360200190f35b6101496004803603602081101561014257600080fd5b503561069d565b60408051918252519081900360200190f35b6101636106a8565b604080516001600160a01b039092168252519081900360200190f35b6101636106b7565b6101636106db565b6102a3600480360360608110156101a557600080fd5b8101906020810181356401000000008111156101c057600080fd5b8201836020820111156101d257600080fd5b803590602001918460208302840111640100000000831117156101f457600080fd5b91939092909160208101903564010000000081111561021257600080fd5b82018360208201111561022457600080fd5b8035906020019184602083028401116401000000008311171561024657600080fd5b91939092909160208101903564010000000081111561026457600080fd5b82018360208201111561027657600080fd5b8035906020019184602083028401116401000000008311171561029857600080fd5b5090925090506106ff565b005b6101636107f1565b6103da600480360360a08110156102c357600080fd5b6001600160a01b0382358116926020810135909116918101906060810160408201356401000000008111156102f757600080fd5b82018360208201111561030957600080fd5b8035906020019184602083028401116401000000008311171561032b57600080fd5b91939092909160208101903564010000000081111561034957600080fd5b82018360208201111561035b57600080fd5b8035906020019184602083028401116401000000008311171561037d57600080fd5b91939092909160208101903564010000000081111561039b57600080fd5b8201836020820111156103ad57600080fd5b803590602001918460018302840111640100000000831117156103cf57600080fd5b509092509050610800565b604080517fffffffff000000000000000000000000000000000000000000000000000000009092168252519081900360200190f35b6102a36004803603606081101561042557600080fd5b81019060208101813564010000000081111561044057600080fd5b82018360208201111561045257600080fd5b8035906020019184602083028401116401000000008311171561047457600080fd5b91939092909160208101903564010000000081111561049257600080fd5b8201836020820111156104a457600080fd5b803590602001918460208302840111640100000000831117156104c657600080fd5b9193909290916020810190356401000000008111156104e457600080fd5b8201836020820111156104f657600080fd5b8035906020019184602083028401116401000000008311171561051857600080fd5b509092509050610ae8565b6103da600480360360a081101561053957600080fd5b6001600160a01b03823581169260208101359091169160408201359160608101359181019060a08101608082013564010000000081111561057957600080fd5b82018360208201111561058b57600080fd5b803590602001918460018302840111640100000000831117156105ad57600080fd5b509092509050610c30565b6102a3600480360360208110156105ce57600080fd5b50356001600160a01b0316610e2b565b6102a3600480360360208110156105f457600080fd5b50356001600160a01b0316610e70565b60007fffffffff0000000000000000000000000000000000000000000000000000000082167f01ffc9a700000000000000000000000000000000000000000000000000000000148061069757507fffffffff0000000000000000000000000000000000000000000000000000000082167f4e2312e000000000000000000000000000000000000000000000000000000000145b92915050565b600061069782610ee1565b6001546001600160a01b031681565b7f000000000000000000000000000000000000000000000000000000000000000081565b7f000000000000000000000000000000000000000000000000000000000000000081565b61070f61070a610f6a565b610f6e565b84838114801561071e57508082145b61076f576040805162461bcd60e51b815260206004820152601a60248201527f5265636f763a20696e636f6e73697374656e7420617272617973000000000000604482015290519081900360640190fd5b60005b8181146107e7576107df88888381811061078857fe5b905060200201356001600160a01b03168585848181106107a457fe5b905060200201358888858181106107b757fe5b905060200201356001600160a01b03166001600160a01b03166110359092919063ffffffff16565b600101610772565b5050505050505050565b6000546001600160a01b031690565b6000336001600160a01b037f0000000000000000000000000000000000000000000000000000000000000000161461087f576040805162461bcd60e51b815260206004820152601660248201527f52656465656d65723a2077726f6e672073656e64657200000000000000000000604482015290519081900360640190fd5b7f00000000000000000000000000000000000000000000000000000000000000006001600160a01b0316638053493430898989896040518663ffffffff1660e01b815260040180866001600160a01b0316815260200180602001806020018381038352878782818152602001925060200280828437600083820152601f01601f19169091018481038352858152602090810191508690860280828437600081840152601f19601f820116905080830192505050975050505050505050600060405180830381600087803b15801561095557600080fd5b505af1158015610969573d6000803e3d6000fd5b505050506000805b808814610a7d57600089898381811061098657fe5b905060200201359050600088888481811061099d57fe5b90506020020135905060006109b183610ee1565b9050818102828282816109c057fe5b0414610a13576040805162461bcd60e51b815260206004820152601960248201527f52656465656d65723a20616d6f756e74206f766572666c6f7700000000000000604482015290519081900360640190fd5b85810186811015610a6b576040805162461bcd60e51b815260206004820152601960248201527f52656465656d65723a20616d6f756e74206f766572666c6f7700000000000000604482015290519081900360640190fd5b95505060019093019250610971915050565b50600154610ab9906001600160a01b037f0000000000000000000000000000000000000000000000000000000000000000811691168b846110ba565b507fbc197c81000000000000000000000000000000000000000000000000000000009998505050505050505050565b610af361070a610f6a565b848381148015610b0257508082145b610b53576040805162461bcd60e51b815260206004820152601a60248201527f5265636f763a20696e636f6e73697374656e7420617272617973000000000000604482015290519081900360640190fd5b60005b8181146107e757858582818110610b6957fe5b905060200201356001600160a01b03166001600160a01b03166323b872dd308a8a85818110610b9457fe5b905060200201356001600160a01b0316878786818110610bb057fe5b905060200201356040518463ffffffff1660e01b815260040180846001600160a01b03168152602001836001600160a01b031681526020018281526020019350505050600060405180830381600087803b158015610c0d57600080fd5b505af1158015610c21573d6000803e3d6000fd5b50505050806001019050610b56565b6000336001600160a01b037f00000000000000000000000000000000000000000000000000000000000000001614610caf576040805162461bcd60e51b815260206004820152601660248201527f52656465656d65723a2077726f6e672073656e64657200000000000000000000604482015290519081900360640190fd5b604080517f124d91e5000000000000000000000000000000000000000000000000000000008152306004820152602481018790526044810186905290516001600160a01b037f0000000000000000000000000000000000000000000000000000000000000000169163124d91e591606480830192600092919082900301818387803b158015610d3d57600080fd5b505af1158015610d51573d6000803e3d6000fd5b505050506000610d6086610ee1565b905084810285828281610d6f57fe5b0414610dc2576040805162461bcd60e51b815260206004820152601960248201527f52656465656d65723a20616d6f756e74206f766572666c6f7700000000000000604482015290519081900360640190fd5b600154610dfd906001600160a01b037f0000000000000000000000000000000000000000000000000000000000000000811691168a846110ba565b507ff23a6e610000000000000000000000000000000000000000000000000000000098975050505050505050565b610e3661070a610f6a565b600180547fffffffffffffffffffffffff0000000000000000000000000000000000000000166001600160a01b0392909216919091179055565b610e7b61070a610f6a565b600080547fffffffffffffffffffffffff0000000000000000000000000000000000000000166001600160a01b0383811691821780845560405192939116917f8be0079c531659141344cd1fd0a4f28419497f9722a3daafe3b4186f6b6457e09190a350565b60007f800002000000010000000000000000000000000000002710000000000000000080831614610f59576040805162461bcd60e51b815260206004820152601560248201527f52656465656d65723a2077726f6e6720746f6b656e0000000000000000000000604482015290519081900360640190fd5b5069021e19e0c9bab2400000919050565b3390565b306001600160a01b0316638da5cb5b6040518163ffffffff1660e01b815260040160206040518083038186803b158015610fa757600080fd5b505afa158015610fbb573d6000803e3d6000fd5b505050506040513d6020811015610fd157600080fd5b50516001600160a01b03828116911614611032576040805162461bcd60e51b815260206004820152601660248201527f4f776e61626c653a206e6f7420746865206f776e657200000000000000000000604482015290519081900360640190fd5b50565b604080516001600160a01b038416602482015260448082018490528251808303909101815260649091019091526020810180517bffffffffffffffffffffffffffffffffffffffffffffffffffffffff167fa9059cbb000000000000000000000000000000000000000000000000000000001790526110b5908490611148565b505050565b604080516001600160a01b0380861660248301528416604482015260648082018490528251808303909101815260849091019091526020810180517bffffffffffffffffffffffffffffffffffffffffffffffffffffffff167f23b872dd00000000000000000000000000000000000000000000000000000000179052611142908590611148565b50505050565b8161115b6001600160a01b038216611332565b6111ac576040805162461bcd60e51b815260206004820152601a60248201527f4552433230577261707065723a206e6f6e2d636f6e7472616374000000000000604482015290519081900360640190fd5b600080826001600160a01b0316846040518082805190602001908083835b602083106111e95780518252601f1990920191602091820191016111ca565b6001836020036101000a0380198251168184511680821785525050505050509050019150506000604051808303816000865af19150503d806000811461124b576040519150601f19603f3d011682016040523d82523d6000602084013e611250565b606091505b509150915081156112cf578051156112ca5780806020019051602081101561127757600080fd5b50516112ca576040805162461bcd60e51b815260206004820152601e60248201527f4552433230577261707065723a206f7065726174696f6e206661696c65640000604482015290519081900360640190fd5b61132b565b8051611322576040805162461bcd60e51b815260206004820152601e60248201527f4552433230577261707065723a206f7065726174696f6e206661696c65640000604482015290519081900360640190fd5b80518082602001fd5b5050505050565b3b15159056fea26469706673582212200e3c57dd7a70f8e7d0f46c6bbff6cbe28bcdbbc11674d9002677932635f6b28564736f6c63430007060033",
  "linkReferences": {},
  "deployedLinkReferences": {}
}