{
  "_format": "hh-sol-artifact-1",
  "contractName": "REVVRacingInventory",
  "sourceName": "contracts/token/ERC1155721/REVVRacingInventory.sol",
  "abi": [
    {
      "inputs": [
        {
          "internalType": "contract IForwarderRegistry",
          "name": "forwarderRegistry",
          "type": "address"
        },
        {
          "internalType": "address",
          "name": "universalForwarder",
          "type": "address"
        }
      ],
      "stateMutability": "nonpayable",
      "type": "constructor"
    },
    {
      "anonymous": false,
      "inputs": [
        {
          "indexed": true,
          "internalType": "address",
          "name": "_owner",
          "type": "address"
        },
        {
          "indexed": true,
          "internalType": "address",
          "name": "_approved",
          "type": "address"
        },
        {
          "indexed": true,
          "internalType": "uint256",
          "name": "_tokenId",
          "type": "uint256"
        }
      ],
      "name": "Approval",
      "type": "event"
    },
    {
      "anonymous": false,
      "inputs": [
        {
          "indexed": true,
          "internalType": "address",
          "name": "_owner",
          "type": "address"
        },
        {
          "indexed": true,
          "internalType": "address",
          "name": "_operator",
          "type": "address"
        },
        {
          "indexed": false,
          "internalType": "bool",
          "name": "_approved",
          "type": "bool"
        }
      ],
      "name": "ApprovalForAll",
      "type": "event"
    },
    {
      "anonymous": false,
      "inputs": [
        {
          "indexed": false,
          "internalType": "string",
          "name": "baseMetadataURI",
          "type": "string"
        }
      ],
      "name": "BaseMetadataURISet",
      "type": "event"
    },
    {
      "anonymous": false,
      "inputs": [
        {
          "indexed": true,
          "internalType": "uint256",
          "name": "collectionId",
          "type": "uint256"
        },
        {
          "indexed": true,
          "internalType": "bool",
          "name": "fungible",
          "type": "bool"
        }
      ],
      "name": "CollectionCreated",
      "type": "event"
    },
    {
      "anonymous": false,
      "inputs": [
        {
          "indexed": true,
          "internalType": "address",
          "name": "account",
          "type": "address"
        }
      ],
      "name": "MinterAdded",
      "type": "event"
    },
    {
      "anonymous": false,
      "inputs": [
        {
          "indexed": true,
          "internalType": "address",
          "name": "account",
          "type": "address"
        }
      ],
      "name": "MinterRemoved",
      "type": "event"
    },
    {
      "anonymous": false,
      "inputs": [
        {
          "indexed": true,
          "internalType": "address",
          "name": "previousOwner",
          "type": "address"
        },
        {
          "indexed": true,
          "internalType": "address",
          "name": "newOwner",
          "type": "address"
        }
      ],
      "name": "OwnershipTransferred",
      "type": "event"
    },
    {
      "anonymous": false,
      "inputs": [
        {
          "indexed": true,
          "internalType": "address",
          "name": "_from",
          "type": "address"
        },
        {
          "indexed": true,
          "internalType": "address",
          "name": "_to",
          "type": "address"
        },
        {
          "indexed": true,
          "internalType": "uint256",
          "name": "_tokenId",
          "type": "uint256"
        }
      ],
      "name": "Transfer",
      "type": "event"
    },
    {
      "anonymous": false,
      "inputs": [
        {
          "indexed": true,
          "internalType": "address",
          "name": "_operator",
          "type": "address"
        },
        {
          "indexed": true,
          "internalType": "address",
          "name": "_from",
          "type": "address"
        },
        {
          "indexed": true,
          "internalType": "address",
          "name": "_to",
          "type": "address"
        },
        {
          "indexed": false,
          "internalType": "uint256[]",
          "name": "_ids",
          "type": "uint256[]"
        },
        {
          "indexed": false,
          "internalType": "uint256[]",
          "name": "_values",
          "type": "uint256[]"
        }
      ],
      "name": "TransferBatch",
      "type": "event"
    },
    {
      "anonymous": false,
      "inputs": [
        {
          "indexed": true,
          "internalType": "address",
          "name": "_operator",
          "type": "address"
        },
        {
          "indexed": true,
          "internalType": "address",
          "name": "_from",
          "type": "address"
        },
        {
          "indexed": true,
          "internalType": "address",
          "name": "_to",
          "type": "address"
        },
        {
          "indexed": false,
          "internalType": "uint256",
          "name": "_id",
          "type": "uint256"
        },
        {
          "indexed": false,
          "internalType": "uint256",
          "name": "_value",
          "type": "uint256"
        }
      ],
      "name": "TransferSingle",
      "type": "event"
    },
    {
      "anonymous": false,
      "inputs": [
        {
          "indexed": false,
          "internalType": "string",
          "name": "_value",
          "type": "string"
        },
        {
          "indexed": true,
          "internalType": "uint256",
          "name": "_id",
          "type": "uint256"
        }
      ],
      "name": "URI",
      "type": "event"
    },
    {
      "inputs": [
        {
          "internalType": "address",
          "name": "account",
          "type": "address"
        }
      ],
      "name": "addMinter",
      "outputs": [],
      "stateMutability": "nonpayable",
      "type": "function"
    },
    {
      "inputs": [
        {
          "internalType": "address",
          "name": "to",
          "type": "address"
        },
        {
          "internalType": "uint256",
          "name": "tokenId",
          "type": "uint256"
        }
      ],
      "name": "approve",
      "outputs": [],
      "stateMutability": "nonpayable",
      "type": "function"
    },
    {
      "inputs": [
        {
          "internalType": "address",
          "name": "owner",
          "type": "address"
        },
        {
          "internalType": "uint256",
          "name": "id",
          "type": "uint256"
        }
      ],
      "name": "balanceOf",
      "outputs": [
        {
          "internalType": "uint256",
          "name": "",
          "type": "uint256"
        }
      ],
      "stateMutability": "view",
      "type": "function"
    },
    {
      "inputs": [
        {
          "internalType": "address",
          "name": "tokenOwner",
          "type": "address"
        }
      ],
      "name": "balanceOf",
      "outputs": [
        {
          "internalType": "uint256",
          "name": "",
          "type": "uint256"
        }
      ],
      "stateMutability": "view",
      "type": "function"
    },
    {
      "inputs": [
        {
          "internalType": "address[]",
          "name": "owners",
          "type": "address[]"
        },
        {
          "internalType": "uint256[]",
          "name": "ids",
          "type": "uint256[]"
        }
      ],
      "name": "balanceOfBatch",
      "outputs": [
        {
          "internalType": "uint256[]",
          "name": "",
          "type": "uint256[]"
        }
      ],
      "stateMutability": "view",
      "type": "function"
    },
    {
      "inputs": [],
      "name": "baseMetadataURI",
      "outputs": [
        {
          "internalType": "string",
          "name": "",
          "type": "string"
        }
      ],
      "stateMutability": "view",
      "type": "function"
    },
    {
      "inputs": [
        {
          "internalType": "address",
          "name": "from",
          "type": "address"
        },
        {
          "internalType": "uint256[]",
          "name": "ids",
          "type": "uint256[]"
        },
        {
          "internalType": "uint256[]",
          "name": "values",
          "type": "uint256[]"
        }
      ],
      "name": "batchBurnFrom",
      "outputs": [],
      "stateMutability": "nonpayable",
      "type": "function"
    },
    {
      "inputs": [
        {
          "internalType": "address",
          "name": "from",
          "type": "address"
        },
        {
          "internalType": "uint256[]",
          "name": "nftIds",
          "type": "uint256[]"
        }
      ],
      "name": "batchBurnFrom",
      "outputs": [],
      "stateMutability": "nonpayable",
      "type": "function"
    },
    {
      "inputs": [
        {
          "internalType": "address",
          "name": "to",
          "type": "address"
        },
        {
          "internalType": "uint256[]",
          "name": "nftIds",
          "type": "uint256[]"
        }
      ],
      "name": "batchMint",
      "outputs": [],
      "stateMutability": "nonpayable",
      "type": "function"
    },
    {
      "inputs": [
        {
          "internalType": "address",
          "name": "from",
          "type": "address"
        },
        {
          "internalType": "address",
          "name": "to",
          "type": "address"
        },
        {
          "internalType": "uint256[]",
          "name": "nftIds",
          "type": "uint256[]"
        }
      ],
      "name": "batchTransferFrom",
      "outputs": [],
      "stateMutability": "nonpayable",
      "type": "function"
    },
    {
      "inputs": [
        {
          "internalType": "address",
          "name": "from",
          "type": "address"
        },
        {
          "internalType": "uint256",
          "name": "id",
          "type": "uint256"
        },
        {
          "internalType": "uint256",
          "name": "value",
          "type": "uint256"
        }
      ],
      "name": "burnFrom",
      "outputs": [],
      "stateMutability": "nonpayable",
      "type": "function"
    },
    {
      "inputs": [
        {
          "internalType": "uint256",
          "name": "nftId",
          "type": "uint256"
        }
      ],
      "name": "collectionOf",
      "outputs": [
        {
          "internalType": "uint256",
          "name": "",
          "type": "uint256"
        }
      ],
      "stateMutability": "pure",
      "type": "function"
    },
    {
      "inputs": [
        {
          "internalType": "uint256",
          "name": "collectionId",
          "type": "uint256"
        }
      ],
      "name": "createCollection",
      "outputs": [],
      "stateMutability": "nonpayable",
      "type": "function"
    },
    {
      "inputs": [
        {
          "internalType": "uint256",
          "name": "collectionId",
          "type": "uint256"
        }
      ],
      "name": "creator",
      "outputs": [
        {
          "internalType": "address",
          "name": "",
          "type": "address"
        }
      ],
      "stateMutability": "view",
      "type": "function"
    },
    {
      "inputs": [
        {
          "internalType": "uint256",
          "name": "tokenId",
          "type": "uint256"
        }
      ],
      "name": "getApproved",
      "outputs": [
        {
          "internalType": "address",
          "name": "",
          "type": "address"
        }
      ],
      "stateMutability": "view",
      "type": "function"
    },
    {
      "inputs": [
        {
          "internalType": "address",
          "name": "tokenOwner",
          "type": "address"
        },
        {
          "internalType": "address",
          "name": "operator",
          "type": "address"
        }
      ],
      "name": "isApprovedForAll",
      "outputs": [
        {
          "internalType": "bool",
          "name": "",
          "type": "bool"
        }
      ],
      "stateMutability": "view",
      "type": "function"
    },
    {
      "inputs": [
        {
          "internalType": "uint256",
          "name": "id",
          "type": "uint256"
        }
      ],
      "name": "isFungible",
      "outputs": [
        {
          "internalType": "bool",
          "name": "",
          "type": "bool"
        }
      ],
      "stateMutability": "pure",
      "type": "function"
    },
    {
      "inputs": [
        {
          "internalType": "address",
          "name": "",
          "type": "address"
        }
      ],
      "name": "isMinter",
      "outputs": [
        {
          "internalType": "bool",
          "name": "",
          "type": "bool"
        }
      ],
      "stateMutability": "view",
      "type": "function"
    },
    {
      "inputs": [
        {
          "internalType": "address",
          "name": "forwarder",
          "type": "address"
        }
      ],
      "name": "isTrustedForwarder",
      "outputs": [
        {
          "internalType": "bool",
          "name": "",
          "type": "bool"
        }
      ],
      "stateMutability": "view",
      "type": "function"
    },
    {
      "inputs": [
        {
          "internalType": "address",
          "name": "to",
          "type": "address"
        },
        {
          "internalType": "uint256",
          "name": "nftId",
          "type": "uint256"
        }
      ],
      "name": "mint",
      "outputs": [],
      "stateMutability": "nonpayable",
      "type": "function"
    },
    {
      "inputs": [],
      "name": "name",
      "outputs": [
        {
          "internalType": "string",
          "name": "",
          "type": "string"
        }
      ],
      "stateMutability": "view",
      "type": "function"
    },
    {
      "inputs": [],
      "name": "owner",
      "outputs": [
        {
          "internalType": "address",
          "name": "",
          "type": "address"
        }
      ],
      "stateMutability": "view",
      "type": "function"
    },
    {
      "inputs": [
        {
          "internalType": "uint256",
          "name": "nftId",
          "type": "uint256"
        }
      ],
      "name": "ownerOf",
      "outputs": [
        {
          "internalType": "address",
          "name": "",
          "type": "address"
        }
      ],
      "stateMutability": "view",
      "type": "function"
    },
    {
      "inputs": [
        {
          "internalType": "address[]",
          "name": "accounts",
          "type": "address[]"
        },
        {
          "internalType": "address[]",
          "name": "tokens",
          "type": "address[]"
        },
        {
          "internalType": "uint256[]",
          "name": "amounts",
          "type": "uint256[]"
        }
      ],
      "name": "recoverERC20s",
      "outputs": [],
      "stateMutability": "nonpayable",
      "type": "function"
    },
    {
      "inputs": [
        {
          "internalType": "address[]",
          "name": "accounts",
          "type": "address[]"
        },
        {
          "internalType": "address[]",
          "name": "contracts",
          "type": "address[]"
        },
        {
          "internalType": "uint256[]",
          "name": "tokenIds",
          "type": "uint256[]"
        }
      ],
      "name": "recoverERC721s",
      "outputs": [],
      "stateMutability": "nonpayable",
      "type": "function"
    },
    {
      "inputs": [],
      "name": "renounceMinter",
      "outputs": [],
      "stateMutability": "nonpayable",
      "type": "function"
    },
    {
      "inputs": [
        {
          "internalType": "address",
          "name": "to",
          "type": "address"
        },
        {
          "internalType": "uint256[]",
          "name": "ids",
          "type": "uint256[]"
        },
        {
          "internalType": "uint256[]",
          "name": "values",
          "type": "uint256[]"
        },
        {
          "internalType": "bytes",
          "name": "data",
          "type": "bytes"
        }
      ],
      "name": "safeBatchMint",
      "outputs": [],
      "stateMutability": "nonpayable",
      "type": "function"
    },
    {
      "inputs": [
        {
          "internalType": "address",
          "name": "from",
          "type": "address"
        },
        {
          "internalType": "address",
          "name": "to",
          "type": "address"
        },
        {
          "internalType": "uint256[]",
          "name": "ids",
          "type": "uint256[]"
        },
        {
          "internalType": "uint256[]",
          "name": "values",
          "type": "uint256[]"
        },
        {
          "internalType": "bytes",
          "name": "data",
          "type": "bytes"
        }
      ],
      "name": "safeBatchTransferFrom",
      "outputs": [],
      "stateMutability": "nonpayable",
      "type": "function"
    },
    {
      "inputs": [
        {
          "internalType": "address[]",
          "name": "recipients",
          "type": "address[]"
        },
        {
          "internalType": "uint256[]",
          "name": "ids",
          "type": "uint256[]"
        },
        {
          "internalType": "uint256[]",
          "name": "values",
          "type": "uint256[]"
        },
        {
          "internalType": "bytes",
          "name": "data",
          "type": "bytes"
        }
      ],
      "name": "safeDeliver",
      "outputs": [],
      "stateMutability": "nonpayable",
      "type": "function"
    },
    {
      "inputs": [
        {
          "internalType": "address",
          "name": "to",
          "type": "address"
        },
        {
          "internalType": "uint256",
          "name": "id",
          "type": "uint256"
        },
        {
          "internalType": "uint256",
          "name": "value",
          "type": "uint256"
        },
        {
          "internalType": "bytes",
          "name": "data",
          "type": "bytes"
        }
      ],
      "name": "safeMint",
      "outputs": [],
      "stateMutability": "nonpayable",
      "type": "function"
    },
    {
      "inputs": [
        {
          "internalType": "address",
          "name": "to",
          "type": "address"
        },
        {
          "internalType": "uint256",
          "name": "nftId",
          "type": "uint256"
        },
        {
          "internalType": "bytes",
          "name": "data",
          "type": "bytes"
        }
      ],
      "name": "safeMint",
      "outputs": [],
      "stateMutability": "nonpayable",
      "type": "function"
    },
    {
      "inputs": [
        {
          "internalType": "address",
          "name": "from",
          "type": "address"
        },
        {
          "internalType": "address",
          "name": "to",
          "type": "address"
        },
        {
          "internalType": "uint256",
          "name": "nftId",
          "type": "uint256"
        }
      ],
      "name": "safeTransferFrom",
      "outputs": [],
      "stateMutability": "nonpayable",
      "type": "function"
    },
    {
      "inputs": [
        {
          "internalType": "address",
          "name": "from",
          "type": "address"
        },
        {
          "internalType": "address",
          "name": "to",
          "type": "address"
        },
        {
          "internalType": "uint256",
          "name": "nftId",
          "type": "uint256"
        },
        {
          "internalType": "bytes",
          "name": "data",
          "type": "bytes"
        }
      ],
      "name": "safeTransferFrom",
      "outputs": [],
      "stateMutability": "nonpayable",
      "type": "function"
    },
    {
      "inputs": [
        {
          "internalType": "address",
          "name": "from",
          "type": "address"
        },
        {
          "internalType": "address",
          "name": "to",
          "type": "address"
        },
        {
          "internalType": "uint256",
          "name": "id",
          "type": "uint256"
        },
        {
          "internalType": "uint256",
          "name": "value",
          "type": "uint256"
        },
        {
          "internalType": "bytes",
          "name": "data",
          "type": "bytes"
        }
      ],
      "name": "safeTransferFrom",
      "outputs": [],
      "stateMutability": "nonpayable",
      "type": "function"
    },
    {
      "inputs": [
        {
          "internalType": "address",
          "name": "operator",
          "type": "address"
        },
        {
          "internalType": "bool",
          "name": "approved",
          "type": "bool"
        }
      ],
      "name": "setApprovalForAll",
      "outputs": [],
      "stateMutability": "nonpayable",
      "type": "function"
    },
    {
      "inputs": [
        {
          "internalType": "string",
          "name": "baseMetadataURI_",
          "type": "string"
        }
      ],
      "name": "setBaseMetadataURI",
      "outputs": [],
      "stateMutability": "nonpayable",
      "type": "function"
    },
    {
      "inputs": [
        {
          "internalType": "bytes4",
          "name": "interfaceId",
          "type": "bytes4"
        }
      ],
      "name": "supportsInterface",
      "outputs": [
        {
          "internalType": "bool",
          "name": "",
          "type": "bool"
        }
      ],
      "stateMutability": "view",
      "type": "function"
    },
    {
      "inputs": [],
      "name": "symbol",
      "outputs": [
        {
          "internalType": "string",
          "name": "",
          "type": "string"
        }
      ],
      "stateMutability": "view",
      "type": "function"
    },
    {
      "inputs": [
        {
          "internalType": "uint256",
          "name": "nftId",
          "type": "uint256"
        }
      ],
      "name": "tokenURI",
      "outputs": [
        {
          "internalType": "string",
          "name": "",
          "type": "string"
        }
      ],
      "stateMutability": "view",
      "type": "function"
    },
    {
      "inputs": [
        {
          "internalType": "uint256",
          "name": "id",
          "type": "uint256"
        }
      ],
      "name": "totalSupply",
      "outputs": [
        {
          "internalType": "uint256",
          "name": "",
          "type": "uint256"
        }
      ],
      "stateMutability": "view",
      "type": "function"
    },
    {
      "inputs": [
        {
          "internalType": "address",
          "name": "from",
          "type": "address"
        },
        {
          "internalType": "address",
          "name": "to",
          "type": "address"
        },
        {
          "internalType": "uint256",
          "name": "nftId",
          "type": "uint256"
        }
      ],
      "name": "transferFrom",
      "outputs": [],
      "stateMutability": "nonpayable",
      "type": "function"
    },
    {
      "inputs": [
        {
          "internalType": "address",
          "name": "newOwner",
          "type": "address"
        }
      ],
      "name": "transferOwnership",
      "outputs": [],
      "stateMutability": "nonpayable",
      "type": "function"
    },
    {
      "inputs": [
        {
          "internalType": "uint256",
          "name": "id",
          "type": "uint256"
        }
      ],
      "name": "uri",
      "outputs": [
        {
          "internalType": "string",
          "name": "",
          "type": "string"
        }
      ],
      "stateMutability": "view",
      "type": "function"
    }
  ],
  "bytecode": "0x60c06040523480156200001157600080fd5b5060405162005ed938038062005ed9833981810160405260408110156200003757600080fd5b508051602091820151604080518082018252601581527f5245565620526163696e6720496e76656e746f72790000000000000000000000818601528151808301835260058152642922ab2b2960d91b95810195909552600080546001600160a01b0319163390811782559251949593949293919286918691869182917f8be0079c531659141344cd1fd0a4f28419497f9722a3daafe3b4186f6b6457e0908290a3506001600160601b0319606091821b811660a05291901b1660805281516200010890600690602085019062000187565b5080516200011e90600790602084019062000187565b50505062000132816200013b60201b60201c565b50505062000233565b6001600160a01b0381166000818152600b6020526040808220805460ff19166001179055517f6ae172837ea30b801fbfcdd4108aa1d5bf8ff775444fd70256b44e6bf3dfc3f69190a250565b828054600181600116156101000203166002900490600052602060002090601f016020900481019282620001bf57600085556200020a565b82601f10620001da57805160ff19168380011785556200020a565b828001600101855582156200020a579182015b828111156200020a578251825591602001919060010190620001ed565b50620002189291506200021c565b5090565b5b808211156200021857600081556001016200021d565b60805160601c60a05160601c615c6d6200026c60003980611d2152806152c1525080611d5c528061528652806153195250615c6d6000f3fe608060405234801561001057600080fd5b50600436106102e85760003560e01c80637e518ec811610191578063bd85b039116100e3578063e8ab9ccc11610097578063f247296511610071578063f247296514611364578063f2fde38b14611417578063f3993d111461143d576102e8565b8063e8ab9ccc14611105578063e985e9c51461126b578063f242432a14611299576102e8565b8063c7778baa116100c8578063c7778baa146110ae578063c87b56dd146110cb578063d0011d9d146110e8576102e8565b8063bd85b03914610f7d578063c3666c3614610f9a576102e8565b8063983b2d5611610145578063aa271e1a1161011f578063aa271e1a14610e74578063adebf6f214610e9a578063b88d4fde14610eb7576102e8565b8063983b2d5614610e185780639865027514610e3e578063a22cb46514610e46576102e8565b80638832e6e3116101765780638832e6e314610d835780638da5cb5b14610e0857806395d89b4114610e10576102e8565b80637e518ec814610bdc5780638053493414610c4c576102e8565b806340c10f191161024a578063572b6c05116101fe5780636352211e116101d85780636352211e14610a8557806370a0823114610aa257806373c8a95814610ac8576102e8565b8063572b6c05146109cb5780635b2bd79e146109f15780635cfa9297146109f9576102e8565b80634684d7e91161022f5780634684d7e91461081c5780634e1273f41461089c578063510b5158146109ae576102e8565b806340c10f19146107ba57806342842e0e146107e6576102e8565b80630d6a5bbb116102a1578063124d91e511610286578063124d91e51461058b57806323b872dd146105bd5780632eb2c2d6146105f3576102e8565b80630d6a5bbb1461044a5780630e89341c1461056e576102e8565b806306fdde03116102d257806306fdde0314610366578063081812fc146103e3578063095ea7b31461041c576102e8565b8062fdd58e146102ed57806301ffc9a71461032b575b600080fd5b6103196004803603604081101561030357600080fd5b506001600160a01b0381351690602001356114f9565b60408051918252519081900360200190f35b6103526004803603602081101561034157600080fd5b50356001600160e01b0319166115c4565b604080519115158252519081900360200190f35b61036e61160a565b6040805160208082528351818301528351919283929083019185019080838360005b838110156103a8578181015183820152602001610390565b50505050905090810190601f1680156103d55780820380516001836020036101000a031916815260200191505b509250505060405180910390f35b610400600480360360208110156103f957600080fd5b50356116a1565b604080516001600160a01b039092168252519081900360200190f35b6104486004803603604081101561043257600080fd5b506001600160a01b038135169060200135611740565b005b6104486004803603608081101561046057600080fd5b6001600160a01b03823516919081019060408101602082013564010000000081111561048b57600080fd5b82018360208201111561049d57600080fd5b803590602001918460208302840111640100000000831117156104bf57600080fd5b9193909290916020810190356401000000008111156104dd57600080fd5b8201836020820111156104ef57600080fd5b8035906020019184602083028401116401000000008311171561051157600080fd5b91939092909160208101903564010000000081111561052f57600080fd5b82018360208201111561054157600080fd5b8035906020019184600183028401116401000000008311171561056357600080fd5b50909250905061193c565b61036e6004803603602081101561058457600080fd5b50356119f7565b610448600480360360608110156105a157600080fd5b506001600160a01b038135169060208101359060400135611a02565b610448600480360360608110156105d357600080fd5b506001600160a01b03813581169160208101359091169060400135611b46565b610448600480360360a081101561060957600080fd5b6001600160a01b03823581169260208101359091169181019060608101604082013564010000000081111561063d57600080fd5b82018360208201111561064f57600080fd5b8035906020019184602083028401116401000000008311171561067157600080fd5b91908080602002602001604051908101604052809392919081815260200183836020028082843760009201919091525092959493602081019350359150506401000000008111156106c157600080fd5b8201836020820111156106d357600080fd5b803590602001918460208302840111640100000000831117156106f557600080fd5b919080806020026020016040519081016040528093929190818152602001838360200280828437600092019190915250929594936020810193503591505064010000000081111561074557600080fd5b82018360208201111561075757600080fd5b8035906020019184600183028401116401000000008311171561077957600080fd5b91908080601f016020809104026020016040519081016040528093929190818152602001838380828437600092019190915250929550611b68945050505050565b610448600480360360408110156107d057600080fd5b506001600160a01b038135169060200135611b7c565b610448600480360360608110156107fc57600080fd5b506001600160a01b03813581169160208101359091169060400135611ba7565b6104486004803603604081101561083257600080fd5b6001600160a01b03823516919081019060408101602082013564010000000081111561085d57600080fd5b82018360208201111561086f57600080fd5b8035906020019184602083028401116401000000008311171561089157600080fd5b509092509050611bc4565b61095e600480360360408110156108b257600080fd5b8101906020810181356401000000008111156108cd57600080fd5b8201836020820111156108df57600080fd5b8035906020019184602083028401116401000000008311171561090157600080fd5b91939092909160208101903564010000000081111561091f57600080fd5b82018360208201111561093157600080fd5b8035906020019184602083028401116401000000008311171561095357600080fd5b509092509050611c0c565b60408051602080825283518183015283519192839290830191858101910280838360005b8381101561099a578181015183820152602001610982565b505050509050019250505060405180910390f35b610400600480360360208110156109c457600080fd5b5035611d12565b610352600480360360208110156109e157600080fd5b50356001600160a01b0316611d1d565b61036e611d96565b61044860048036036080811015610a0f57600080fd5b6001600160a01b038235169160208101359160408201359190810190608081016060820135640100000000811115610a4657600080fd5b820183602082011115610a5857600080fd5b80359060200191846001830284011164010000000083111715610a7a57600080fd5b509092509050611e24565b61040060048036036020811015610a9b57600080fd5b5035611e71565b61031960048036036020811015610ab857600080fd5b50356001600160a01b0316611e7c565b61044860048036036060811015610ade57600080fd5b810190602081018135640100000000811115610af957600080fd5b820183602082011115610b0b57600080fd5b80359060200191846020830284011164010000000083111715610b2d57600080fd5b919390929091602081019035640100000000811115610b4b57600080fd5b820183602082011115610b5d57600080fd5b80359060200191846020830284011164010000000083111715610b7f57600080fd5b919390929091602081019035640100000000811115610b9d57600080fd5b820183602082011115610baf57600080fd5b80359060200191846020830284011164010000000083111715610bd157600080fd5b509092509050611ef5565b61044860048036036020811015610bf257600080fd5b810190602081018135640100000000811115610c0d57600080fd5b820183602082011115610c1f57600080fd5b80359060200191846001830284011164010000000083111715610c4157600080fd5b509092509050611fe7565b61044860048036036060811015610c6257600080fd5b6001600160a01b038235169190810190604081016020820135640100000000811115610c8d57600080fd5b820183602082011115610c9f57600080fd5b80359060200191846020830284011164010000000083111715610cc157600080fd5b9190808060200260200160405190810160405280939291908181526020018383602002808284376000920191909152509295949360208101935035915050640100000000811115610d1157600080fd5b820183602082011115610d2357600080fd5b80359060200191846020830284011164010000000083111715610d4557600080fd5b919080806020026020016040519081016040528093929190818152602001838360200280828437600092019190915250929550612063945050505050565b61044860048036036060811015610d9957600080fd5b6001600160a01b0382351691602081013591810190606081016040820135640100000000811115610dc957600080fd5b820183602082011115610ddb57600080fd5b80359060200191846001830284011164010000000083111715610dfd57600080fd5b509092509050612300565b610400612355565b61036e612364565b61044860048036036020811015610e2e57600080fd5b50356001600160a01b03166123c5565b6104486123dc565b61044860048036036040811015610e5c57600080fd5b506001600160a01b038135169060200135151561243a565b61035260048036036020811015610e8a57600080fd5b50356001600160a01b0316612444565b61035260048036036020811015610eb057600080fd5b5035612459565b61044860048036036080811015610ecd57600080fd5b6001600160a01b03823581169260208101359091169160408201359190810190608081016060820135640100000000811115610f0857600080fd5b820183602082011115610f1a57600080fd5b80359060200191846001830284011164010000000083111715610f3c57600080fd5b91908080601f016020809104026020016040519081016040528093929190818152602001838380828437600092019190915250929550612464945050505050565b61031960048036036020811015610f9357600080fd5b5035612472565b61044860048036036060811015610fb057600080fd5b810190602081018135640100000000811115610fcb57600080fd5b820183602082011115610fdd57600080fd5b80359060200191846020830284011164010000000083111715610fff57600080fd5b91939092909160208101903564010000000081111561101d57600080fd5b82018360208201111561102f57600080fd5b8035906020019184602083028401116401000000008311171561105157600080fd5b91939092909160208101903564010000000081111561106f57600080fd5b82018360208201111561108157600080fd5b803590602001918460208302840111640100000000831117156110a357600080fd5b5090925090506124c8565b610319600480360360208110156110c457600080fd5b5035612610565b61036e600480360360208110156110e157600080fd5b5035612675565b610448600480360360208110156110fe57600080fd5b50356126ea565b6104486004803603608081101561111b57600080fd5b81019060208101813564010000000081111561113657600080fd5b82018360208201111561114857600080fd5b8035906020019184602083028401116401000000008311171561116a57600080fd5b91939092909160208101903564010000000081111561118857600080fd5b82018360208201111561119a57600080fd5b803590602001918460208302840111640100000000831117156111bc57600080fd5b9193909290916020810190356401000000008111156111da57600080fd5b8201836020820111156111ec57600080fd5b8035906020019184602083028401116401000000008311171561120e57600080fd5b91939092909160208101903564010000000081111561122c57600080fd5b82018360208201111561123e57600080fd5b8035906020019184600183028401116401000000008311171561126057600080fd5b5090925090506126fe565b6103526004803603604081101561128157600080fd5b506001600160a01b0381358116916020013516612719565b610448600480360360a08110156112af57600080fd5b6001600160a01b03823581169260208101359091169160408201359160608101359181019060a0810160808201356401000000008111156112ef57600080fd5b82018360208201111561130157600080fd5b8035906020019184600183028401116401000000008311171561132357600080fd5b91908080601f01602080910402602001604051908101604052809392919081815260200183838082843760009201919091525092955061272c945050505050565b6104486004803603604081101561137a57600080fd5b6001600160a01b0382351691908101906040810160208201356401000000008111156113a557600080fd5b8201836020820111156113b757600080fd5b803590602001918460208302840111640100000000831117156113d957600080fd5b9190808060200260200160405190810160405280939291908181526020018383602002808284376000920191909152509295506128a1945050505050565b6104486004803603602081101561142d57600080fd5b50356001600160a01b0316612aff565b6104486004803603606081101561145357600080fd5b6001600160a01b03823581169260208101359091169181019060608101604082013564010000000081111561148757600080fd5b82018360208201111561149957600080fd5b803590602001918460208302840111640100000000831117156114bb57600080fd5b919080806020026020016040519081016040528093929190818152602001838360200280828437600092019190915250929550612b65945050505050565b60006001600160a01b038316611556576040805162461bcd60e51b815260206004820152601760248201527f496e76656e746f72793a207a65726f2061646472657373000000000000000000604482015290519081900360640190fd5b61155f82612e4d565b15611599576000828152600460205260409020546001600160a01b0384811691161461158c57600061158f565b60015b60ff1690506115be565b5060008181526002602090815260408083206001600160a01b03861684529091529020545b92915050565b60006001600160e01b031982167f510b5158000000000000000000000000000000000000000000000000000000001480611602575061160282612e9f565b90505b919050565b60068054604080516020601f60026000196101006001881615020190951694909404938401819004810282018101909252828152606093909290918301828280156116965780601f1061166b57610100808354040283529160200191611696565b820191906000526020600020905b81548152906001019060200180831161167957829003601f168201915b505050505090505b90565b6000818152600460205260408120546001600160a01b03811661170b576040805162461bcd60e51b815260206004820152601b60248201527f496e76656e746f72793a206e6f6e2d6578697374696e67204e46540000000000604482015290519081900360640190fd5b600160a01b8116156117365750506000818152600960205260409020546001600160a01b0316611605565b6000915050611605565b600081815260046020526040902054806117a1576040805162461bcd60e51b815260206004820152601b60248201527f496e76656e746f72793a206e6f6e2d6578697374696e67204e46540000000000604482015290519081900360640190fd5b806001600160a01b038481169082161415611803576040805162461bcd60e51b815260206004820152601860248201527f496e76656e746f72793a2073656c662d617070726f76616c0000000000000000604482015290519081900360640190fd5b6118148161180f612edd565b612eec565b611865576040805162461bcd60e51b815260206004820152601e60248201527f496e76656e746f72793a206e6f6e2d617070726f7665642073656e6465720000604482015290519081900360640190fd5b6001600160a01b03841661189f57600160a01b82161561189a5760008381526004602052604090206001600160a01b03821690555b6118f5565b600160a01b82178083146118bf5760008481526004602052604090208190555b506000838152600960205260409020805473ffffffffffffffffffffffffffffffffffffffff19166001600160a01b0386161790555b82846001600160a01b0316826001600160a01b03167f8c5be1e5ebec7d5bd14f71427d1e84f3dd0314c0f7b2291e5b200ac8c7c3b92560405160405180910390a450505050565b61194c611947612edd565b612f38565b6119ee8787878080602002602001604051908101604052809392919081815260200183836020028082843760009201919091525050604080516020808b0282810182019093528a82529093508a92508991829185019084908082843760009201919091525050604080516020601f8a018190048102820181019092528881529250889150879081908401838280828437600092019190915250612fa592505050565b50505050505050565b606061160282613306565b6000611a0c612edd565b90506000611a1a8583612eec565b9050611a25846133d9565b15611a3b57611a36858585846133ff565b611ae1565b611a4484612e4d565b15611a9457611a5785858584600061355b565b60405184906000906001600160a01b038816907fddf252ad1be2c89b69c2b068fc378daa952ba7f163c4a11628f55a4df523b3ef908390a4611ae1565b6040805162461bcd60e51b815260206004820152601960248201527f496e76656e746f72793a206e6f74206120746f6b656e20696400000000000000604482015290519081900360640190fd5b60006001600160a01b0316856001600160a01b0316836001600160a01b03167fc3d58168c5ae7397731d063d5bbf3d657854427343f4c083240f7aacaa2d0f628787604051808381526020018281526020019250505060405180910390a45050505050565b611b63838383604051806020016040528060008152506000613723565b505050565b611b758585858585613891565b5050505050565b611b87611947612edd565b611ba38282604051806020016040528060008152506000613bab565b5050565b611b63838383604051806020016040528060008152506001613723565b611bcf611947612edd565b611b6383838380806020026020016040519081016040528093929190818152602001838360200280828437600092019190915250613d4f92505050565b6060838214611c62576040805162461bcd60e51b815260206004820152601e60248201527f496e76656e746f72793a20696e636f6e73697374656e74206172726179730000604482015290519081900360640190fd5b60008467ffffffffffffffff81118015611c7b57600080fd5b50604051908082528060200260200182016040528015611ca5578160200160208202803683370190505b50905060005b808614611d0857611ce9878783818110611cc157fe5b905060200201356001600160a01b0316868684818110611cdd57fe5b905060200201356114f9565b828281518110611cf557fe5b6020908102919091010152600101611cab565b5095945050505050565b6000611602826140a6565b60007f00000000000000000000000000000000000000000000000000000000000000006001600160a01b0316826001600160a01b0316148061160257507f00000000000000000000000000000000000000000000000000000000000000006001600160a01b0316826001600160a01b0316149050919050565b600a805460408051602060026001851615610100026000190190941693909304601f81018490048402820184019092528181529291830182828015611e1c5780601f10611df157610100808354040283529160200191611e1c565b820191906000526020600020905b815481529060010190602001808311611dff57829003601f168201915b505050505081565b611e2f611947612edd565b611b7585858585858080601f01602080910402602001604051908101604052809392919081815260200183838082843760009201919091525061411f92505050565b60006116028261426a565b60006001600160a01b038216611ed9576040805162461bcd60e51b815260206004820152601760248201527f496e76656e746f72793a207a65726f2061646472657373000000000000000000604482015290519081900360640190fd5b506001600160a01b031660009081526008602052604090205490565b611f05611f00612edd565b6142d4565b848381148015611f1457508082145b611f65576040805162461bcd60e51b815260206004820152601a60248201527f5265636f763a20696e636f6e73697374656e7420617272617973000000000000604482015290519081900360640190fd5b60005b818114611fdd57611fd5888883818110611f7e57fe5b905060200201356001600160a01b0316858584818110611f9a57fe5b90506020020135888885818110611fad57fe5b905060200201356001600160a01b03166001600160a01b03166143989092919063ffffffff16565b600101611f68565b5050505050505050565b611ff2611f00612edd565b611ffe600a8383615b96565b507f04b1dc5c136a3ce9fded8db0ce3d3366c58764ec3a8e4c2b9e52e4ddfe5ebbf7828260405180806020018281038252848482818152602001925080828437600083820152604051601f909101601f19169092018290039550909350505050a15050565b8151815181146120ba576040805162461bcd60e51b815260206004820152601e60248201527f496e76656e746f72793a20696e636f6e73697374656e74206172726179730000604482015290519081900360640190fd5b60006120c4612edd565b905060006120d28683612eec565b90506000806000805b8681146121e55760008982815181106120f057fe5b60200260200101519050612103816133d9565b1561212c576121278b828b858151811061211957fe5b6020026020010151896133ff565b6121dc565b61213581612e4d565b15611a945761215b8b828b858151811061214b57fe5b602002602001015189600161355b565b60405181906000906001600160a01b038e16907fddf252ad1be2c89b69c2b068fc378daa952ba7f163c4a11628f55a4df523b3ef908390a4600061219e82614418565b9050856121b157809550600194506121da565b8581146121d3576121c38c8787614425565b94506001939290920191846121da565b8460010194505b505b506001016120db565b50821561221b576121f7898484614425565b6001600160a01b038916600090815260086020526040902080549183019182900390555b60006001600160a01b0316896001600160a01b0316866001600160a01b03167f4a39dc06d4c0dbc64b70af90fd698a233a518aa5d07e595d983b8c0526c8f7fb8b8b604051808060200180602001838103835285818151815260200191508051906020019060200280838360005b838110156122a1578181015183820152602001612289565b50505050905001838103825284818151815260200191508051906020019060200280838360005b838110156122e05781810151838201526020016122c8565b5050505090500194505050505060405180910390a4505050505050505050565b61230b611947612edd565b61234f848484848080601f01602080910402602001604051908101604052809392919081815260200183838082843760009201919091525060019250613bab915050565b50505050565b6000546001600160a01b031690565b60078054604080516020601f60026000196101006001881615020190951694909404938401819004810282018101909252828152606093909290918301828280156116965780601f1061166b57610100808354040283529160200191611696565b6123d0611f00612edd565b6123d981614465565b50565b60006123e6612edd565b90506123f181612f38565b6001600160a01b0381166000818152600b6020526040808220805460ff19169055517fe94479a9f7e1952cc78f2d6baab678adc1b772d936c6583def489e524cb666929190a250565b611ba382826144b1565b600b6020526000908152604090205460ff1681565b6000611602826133d9565b61234f848484846001613723565b600061247d82612e4d565b156124b3576000828152600460205260409020546001600160a01b0316156124a65760016124a9565b60005b60ff169050611605565b50600081815260036020526040902054611605565b6124d3611f00612edd565b8483811480156124e257508082145b612533576040805162461bcd60e51b815260206004820152601a60248201527f5265636f763a20696e636f6e73697374656e7420617272617973000000000000604482015290519081900360640190fd5b60005b818114611fdd5785858281811061254957fe5b905060200201356001600160a01b03166001600160a01b03166323b872dd308a8a8581811061257457fe5b905060200201356001600160a01b031687878681811061259057fe5b905060200201356040518463ffffffff1660e01b815260040180846001600160a01b03168152602001836001600160a01b031681526020018281526020019350505050600060405180830381600087803b1580156125ed57600080fd5b505af1158015612601573d6000803e3d6000fd5b50505050806001019050612536565b600061261b82612e4d565b61266c576040805162461bcd60e51b815260206004820152601560248201527f496e76656e746f72793a206e6f7420616e204e46540000000000000000000000604482015290519081900360640190fd5b61160282614418565b6000818152600460205260409020546060906001600160a01b03166126e1576040805162461bcd60e51b815260206004820152601b60248201527f496e76656e746f72793a206e6f6e2d6578697374696e67204e46540000000000604482015290519081900360640190fd5b611602826119f7565b6126f5611f00612edd565b6123d981614592565b612709611947612edd565b611fdd88888888888888886146d3565b60006127258383614a25565b9392505050565b6000612736612edd565b90506001600160a01b038516612793576040805162461bcd60e51b815260206004820152601b60248201527f496e76656e746f72793a207472616e7366657220746f207a65726f0000000000604482015290519081900360640190fd5b600061279f8783612eec565b90506127aa856133d9565b156127c1576127bc8787878785614a53565b612820565b6127ca85612e4d565b15611a94576127de87878787856000614bc6565b84866001600160a01b0316886001600160a01b03167fddf252ad1be2c89b69c2b068fc378daa952ba7f163c4a11628f55a4df523b3ef60405160405180910390a45b856001600160a01b0316876001600160a01b0316836001600160a01b03167fc3d58168c5ae7397731d063d5bbf3d657854427343f4c083240f7aacaa2d0f628888604051808381526020018281526020019250505060405180910390a461288f866001600160a01b0316614d5b565b156119ee576119ee8787878787614d61565b60006128ab612edd565b905060006128b98483612eec565b835190915060008167ffffffffffffffff811180156128d757600080fd5b50604051908082528060200260200182016040528015612901578160200160208202803683370190505b50905060008060005b8481146129e957600088828151811061291f57fe5b60200260200101519050600185838151811061293757fe5b6020026020010181815250506129648a8287858151811061295457fe5b60200260200101518a600161355b565b60405181906000906001600160a01b038d16907fddf252ad1be2c89b69c2b068fc378daa952ba7f163c4a11628f55a4df523b3ef908390a460006129a782614418565b9050846129ba57809450600193506129df565b8481146129d8576129cc8b8686614425565b809450600193506129df565b8360010193505b505060010161290a565b508115612a1b576129fb888383614425565b6001600160a01b0388166000908152600860205260409020805485900390555b60006001600160a01b0316886001600160a01b0316876001600160a01b03167f4a39dc06d4c0dbc64b70af90fd698a233a518aa5d07e595d983b8c0526c8f7fb8a87604051808060200180602001838103835285818151815260200191508051906020019060200280838360005b83811015612aa1578181015183820152602001612a89565b50505050905001838103825284818151815260200191508051906020019060200280838360005b83811015612ae0578181015183820152602001612ac8565b5050505090500194505050505060405180910390a45050505050505050565b612b0a611f00612edd565b6000805473ffffffffffffffffffffffffffffffffffffffff19166001600160a01b0383811691821780845560405192939116917f8be0079c531659141344cd1fd0a4f28419497f9722a3daafe3b4186f6b6457e09190a350565b6001600160a01b038216612bc0576040805162461bcd60e51b815260206004820152601b60248201527f496e76656e746f72793a207472616e7366657220746f207a65726f0000000000604482015290519081900360640190fd5b6000612bca612edd565b90506000612bd88583612eec565b835190915060008167ffffffffffffffff81118015612bf657600080fd5b50604051908082528060200260200182016040528015612c20578160200160208202803683370190505b50905060008060005b848114612d01576000888281518110612c3e57fe5b602002602001015190506001858381518110612c5657fe5b602002602001018181525050612c728b8b8360018b6001614bc6565b808a6001600160a01b03168c6001600160a01b03167fddf252ad1be2c89b69c2b068fc378daa952ba7f163c4a11628f55a4df523b3ef60405160405180910390a46000612cbe82614418565b905084612cd15780945060019350612cf7565b848114612cf057612ce48c8c8787614eeb565b80945060019350612cf7565b8360010193505b5050600101612c29565b508115612d1f57612d1489898484614eeb565b612d1f898986614f3f565b876001600160a01b0316896001600160a01b0316612d3b612edd565b6001600160a01b03167f4a39dc06d4c0dbc64b70af90fd698a233a518aa5d07e595d983b8c0526c8f7fb8a87604051808060200180602001838103835285818151815260200191508051906020019060200280838360005b83811015612dab578181015183820152602001612d93565b50505050905001838103825284818151815260200191508051906020019060200280838360005b83811015612dea578181015183820152602001612dd2565b5050505090500194505050505060405180910390a4612e11886001600160a01b0316614d5b565b8015612e215750612e2188614f8a565b15612e4257612e428989898660405180602001604052806000815250615052565b505050505050505050565b60007f80000000000000000000000000000000000000000000000000000000000000008216158015906116025750507bffffffffffffffffffffffffffffffffffffffffffffffffffffffff16151590565b60006001600160e01b031982167f6059f1b40000000000000000000000000000000000000000000000000000000014806116025750611602826151d0565b6000612ee7615276565b905090565b6000816001600160a01b0316836001600160a01b031614806127255750506001600160a01b03918216600090815260016020908152604080832093909416825291909152205460ff1690565b6001600160a01b0381166000908152600b602052604090205460ff166123d9576040805162461bcd60e51b815260206004820152601860248201527f4d696e746572526f6c653a206e6f742061204d696e7465720000000000000000604482015290519081900360640190fd5b6001600160a01b038416613000576040805162461bcd60e51b815260206004820152601760248201527f496e76656e746f72793a206d696e7420746f207a65726f000000000000000000604482015290519081900360640190fd5b825182518114613057576040805162461bcd60e51b815260206004820152601e60248201527f496e76656e746f72793a20696e636f6e73697374656e74206172726179730000604482015290519081900360640190fd5b6000806000805b8481146131b457600088828151811061307357fe5b60200260200101519050600088838151811061308b57fe5b6020026020010151905061309e826133d9565b156130b3576130ae8b83836153d6565b6131aa565b6130bc82612e4d565b15611a94576130ce8b838360016154c8565b60405182906001600160a01b038d16906000907fddf252ad1be2c89b69c2b068fc378daa952ba7f163c4a11628f55a4df523b3ef908290a4600061311183614418565b90508661312457809650600195506131a8565b8681146131a157856002600089815260200190815260200160002060008e6001600160a01b03166001600160a01b03168152602001908152602001600020600082825401925050819055508560036000898152602001908152602001600020600082825401925050819055508096508585019450600195506131a8565b8560010195505b505b505060010161305e565b5082156132095760008381526002602090815260408083206001600160a01b038c1680855290835281842080548701905586845260038352818420805487019055835260089091529020805491830191820190555b6001600160a01b038816600061321d612edd565b6001600160a01b03167f4a39dc06d4c0dbc64b70af90fd698a233a518aa5d07e595d983b8c0526c8f7fb8a8a604051808060200180602001838103835285818151815260200191508051906020019060200280838360005b8381101561328d578181015183820152602001613275565b50505050905001838103825284818151815260200191508051906020019060200280838360005b838110156132cc5781810151838201526020016132b4565b5050505090500194505050505060405180910390a46132f3886001600160a01b0316614d5b565b15611fdd57611fdd600089898989615052565b6060600a613313836155f7565b60405160200180838054600181600116156101000203166002900480156133715780601f1061334f576101008083540402835291820191613371565b820191906000526020600020905b81548152906001019060200180831161335d575b5050825160208401908083835b6020831061339d5780518252601f19909201916020918201910161337e565b6001836020036101000a038019825116818451168082178552505050505050905001925050506040516020818303038152906040529050919050565b7f8000000000000000000000000000000000000000000000000000000000000000161590565b81613451576040805162461bcd60e51b815260206004820152601560248201527f496e76656e746f72793a207a65726f2076616c75650000000000000000000000604482015290519081900360640190fd5b806134a3576040805162461bcd60e51b815260206004820152601e60248201527f496e76656e746f72793a206e6f6e2d617070726f7665642073656e6465720000604482015290519081900360640190fd5b60008381526002602090815260408083206001600160a01b03881684529091529020548281101561351b576040805162461bcd60e51b815260206004820152601d60248201527f496e76656e746f72793a206e6f7420656e6f7567682062616c616e6365000000604482015290519081900360640190fd5b60008481526002602090815260408083206001600160a01b0390981683529681528682209285900390925593845260039052509190208054919091039055565b826001146135b0576040805162461bcd60e51b815260206004820152601a60248201527f496e76656e746f72793a2077726f6e67204e46542076616c7565000000000000604482015290519081900360640190fd5b6000848152600460205260409020546001600160a01b038681169082161461361f576040805162461bcd60e51b815260206004820152601860248201527f496e76656e746f72793a206e6f6e2d6f776e6564204e46540000000000000000604482015290519081900360640190fd5b826136b057600160a01b81161580159061365f57506000858152600960205260409020546001600160a01b0316613654612edd565b6001600160a01b0316145b6136b0576040805162461bcd60e51b815260206004820152601e60248201527f496e76656e746f72793a206e6f6e2d617070726f7665642073656e6465720000604482015290519081900360640190fd5b60008581526004602052604090207fdead00000000000000000000000000000000000000000000000000000000000090558161371b576136fa866136f387614418565b6001614425565b6001600160a01b038616600090815260086020526040902080546000190190555b505050505050565b6001600160a01b03841661377e576040805162461bcd60e51b815260206004820152601b60248201527f496e76656e746f72793a207472616e7366657220746f207a65726f0000000000604482015290519081900360640190fd5b6000613788612edd565b905060006137968783612eec565b90506137a88787876001856000614bc6565b84866001600160a01b0316886001600160a01b03167fddf252ad1be2c89b69c2b068fc378daa952ba7f163c4a11628f55a4df523b3ef60405160405180910390a4856001600160a01b0316876001600160a01b0316836001600160a01b03167fc3d58168c5ae7397731d063d5bbf3d657854427343f4c083240f7aacaa2d0f62886001604051808381526020018281526020019250505060405180910390a4613859866001600160a01b0316614d5b565b156119ee5761386786614f8a565b1561387f5761387a878787600188614d61565b6119ee565b82156119ee576119ee87878787615706565b6001600160a01b0384166138ec576040805162461bcd60e51b815260206004820152601b60248201527f496e76656e746f72793a207472616e7366657220746f207a65726f0000000000604482015290519081900360640190fd5b825182518114613943576040805162461bcd60e51b815260206004820152601e60248201527f496e76656e746f72793a20696e636f6e73697374656e74206172726179730000604482015290519081900360640190fd5b600061394d612edd565b9050600061395b8883612eec565b90506000806000805b868114613a7a5760008a828151811061397957fe5b6020026020010151905061398c816133d9565b156139b6576139b18d8d838d86815181106139a357fe5b60200260200101518a614a53565b613a71565b6139bf81612e4d565b15611a94576139e68d8d838d86815181106139d657fe5b60200260200101518a6001614bc6565b808c6001600160a01b03168e6001600160a01b03167fddf252ad1be2c89b69c2b068fc378daa952ba7f163c4a11628f55a4df523b3ef60405160405180910390a46000613a3282614418565b905085613a455780955060019450613a6f565b858114613a6857613a588e8e8888614eeb565b9450600193929092019184613a6f565b8460010194505b505b50600101613964565b508215613a9a57613a8d8b8b8585614eeb565b8101613a9a8b8b83614f3f565b896001600160a01b03168b6001600160a01b0316613ab6612edd565b6001600160a01b03167f4a39dc06d4c0dbc64b70af90fd698a233a518aa5d07e595d983b8c0526c8f7fb8c8c604051808060200180602001838103835285818151815260200191508051906020019060200280838360005b83811015613b26578181015183820152602001613b0e565b50505050905001838103825284818151815260200191508051906020019060200280838360005b83811015613b65578181015183820152602001613b4d565b5050505090500194505050505060405180910390a4613b8c8a6001600160a01b0316614d5b565b15613b9e57613b9e8b8b8b8b8b615052565b5050505050505050505050565b6001600160a01b038416613c06576040805162461bcd60e51b815260206004820152601760248201527f496e76656e746f72793a206d696e7420746f207a65726f000000000000000000604482015290519081900360640190fd5b613c0f83612e4d565b613c60576040805162461bcd60e51b815260206004820152601560248201527f496e76656e746f72793a206e6f7420616e204e46540000000000000000000000604482015290519081900360640190fd5b613c6e8484600160006154c8565b60405183906001600160a01b038616906000907fddf252ad1be2c89b69c2b068fc378daa952ba7f163c4a11628f55a4df523b3ef908290a46001600160a01b0384166000613cba612edd565b6001600160a01b03167fc3d58168c5ae7397731d063d5bbf3d657854427343f4c083240f7aacaa2d0f62866001604051808381526020018281526020019250505060405180910390a4613d15846001600160a01b0316614d5b565b1561234f57613d2384614f8a565b15613d3c57613d3760008585600186614d61565b61234f565b801561234f5761234f6000858585615706565b6001600160a01b038216613daa576040805162461bcd60e51b815260206004820152601760248201527f496e76656e746f72793a206d696e7420746f207a65726f000000000000000000604482015290519081900360640190fd5b805160008167ffffffffffffffff81118015613dc557600080fd5b50604051908082528060200260200182016040528015613def578160200160208202803683370190505b50905060008060005b848114613f4a576000868281518110613e0d57fe5b60200260200101519050613e2081612e4d565b613e71576040805162461bcd60e51b815260206004820152601560248201527f496e76656e746f72793a206e6f7420616e204e46540000000000000000000000604482015290519081900360640190fd5b6001858381518110613e7f57fe5b602002602001018181525050613e9888826001806154c8565b60405181906001600160a01b038a16906000907fddf252ad1be2c89b69c2b068fc378daa952ba7f163c4a11628f55a4df523b3ef908290a46000613edb82614418565b905084613eee5780945060019350613f40565b848114613f395760008581526002602090815260408083206001600160a01b038d16845282528083208054880190559682526003905294909420805490930190925560019183613f40565b8360010193505b5050600101613df8565b5060008281526002602090815260408083206001600160a01b038a16808552908352818420805486019055858452600383528184208054860190558084526008909252822080548701905590613f9e612edd565b6001600160a01b03167f4a39dc06d4c0dbc64b70af90fd698a233a518aa5d07e595d983b8c0526c8f7fb8887604051808060200180602001838103835285818151815260200191508051906020019060200280838360005b8381101561400e578181015183820152602001613ff6565b50505050905001838103825284818151815260200191508051906020019060200280838360005b8381101561404d578181015183820152602001614035565b5050505090500194505050505060405180910390a4614074866001600160a01b0316614d5b565b8015614084575061408486614f8a565b1561371b5761371b600087878660405180602001604052806000815250615052565b60006140b182612e4d565b15614103576040805162461bcd60e51b815260206004820152601b60248201527f496e76656e746f72793a206e6f74206120636f6c6c656374696f6e0000000000604482015290519081900360640190fd5b506000908152600560205260409020546001600160a01b031690565b6001600160a01b03841661417a576040805162461bcd60e51b815260206004820152601760248201527f496e76656e746f72793a206d696e7420746f207a65726f000000000000000000604482015290519081900360640190fd5b6000614184612edd565b905061418f846133d9565b156141a45761419f8585856153d6565b6141f8565b6141ad84612e4d565b15611a94576141bf85858560006154c8565b60405184906001600160a01b038716906000907fddf252ad1be2c89b69c2b068fc378daa952ba7f163c4a11628f55a4df523b3ef908290a45b604080518581526020810185905281516001600160a01b0380891693600093918616927fc3d58168c5ae7397731d063d5bbf3d657854427343f4c083240f7aacaa2d0f629281900390910190a4614257856001600160a01b0316614d5b565b15611b7557611b75600086868686614d61565b6000818152600460205260408120546001600160a01b038116611602576040805162461bcd60e51b815260206004820152601b60248201527f496e76656e746f72793a206e6f6e2d6578697374696e67204e46540000000000604482015290519081900360640190fd5b306001600160a01b0316638da5cb5b6040518163ffffffff1660e01b815260040160206040518083038186803b15801561430d57600080fd5b505afa158015614321573d6000803e3d6000fd5b505050506040513d602081101561433757600080fd5b50516001600160a01b038281169116146123d9576040805162461bcd60e51b815260206004820152601660248201527f4f776e61626c653a206e6f7420746865206f776e657200000000000000000000604482015290519081900360640190fd5b604080516001600160a01b038416602482015260448082018490528251808303909101815260649091019091526020810180517bffffffffffffffffffffffffffffffffffffffffffffffffffffffff167fa9059cbb00000000000000000000000000000000000000000000000000000000179052611b63908490615888565b6001600160e01b03191690565b60008281526002602090815260408083206001600160a01b0390961683529481528482208054849003905592815260039092529190208054919091039055565b6001600160a01b0381166000818152600b6020526040808220805460ff19166001179055517f6ae172837ea30b801fbfcdd4108aa1d5bf8ff775444fd70256b44e6bf3dfc3f69190a250565b60006144bb612edd565b9050806001600160a01b0316836001600160a01b03161415614524576040805162461bcd60e51b815260206004820152601860248201527f496e76656e746f72793a2073656c662d617070726f76616c0000000000000000604482015290519081900360640190fd5b6001600160a01b03818116600081815260016020908152604080832094881680845294825291829020805460ff1916871515908117909155825190815291517f17307eab39ab6107e8899845ad3d59bd9653f200f220920489ca2b5937696c319281900390910190a3505050565b61459b81612e4d565b156145ed576040805162461bcd60e51b815260206004820152601b60248201527f496e76656e746f72793a206e6f74206120636f6c6c656374696f6e0000000000604482015290519081900360640190fd5b6000818152600560205260409020546001600160a01b031615614657576040805162461bcd60e51b815260206004820152601e60248201527f496e76656e746f72793a206578697374696e6720636f6c6c656374696f6e0000604482015290519081900360640190fd5b61465f612edd565b6000828152600560205260409020805473ffffffffffffffffffffffffffffffffffffffff19166001600160a01b03929092169190911790556146a1816133d9565b1515817f4ebf8ad0df535ba5e487bc9cb27fe44120ca81c3a95d3eba79c0bd1df2ab2d5d60405160405180910390a350565b8685811480156146e257508084145b614733576040805162461bcd60e51b815260206004820152601e60248201527f496e76656e746f72793a20696e636f6e73697374656e74206172726179730000604482015290519081900360640190fd5b600061473d612edd565b905060005b828114613b9e5760008b8b8381811061475757fe5b905060200201356001600160a01b0316905060006001600160a01b0316816001600160a01b031614156147d1576040805162461bcd60e51b815260206004820152601760248201527f496e76656e746f72793a206d696e7420746f207a65726f000000000000000000604482015290519081900360640190fd5b60008a8a848181106147df57fe5b90506020020135905060008989858181106147f657fe5b905060200201359050614808826133d9565b156148c5576148188383836153d6565b604080518381526020810183905281516001600160a01b0380871693600093918a16927fc3d58168c5ae7397731d063d5bbf3d657854427343f4c083240f7aacaa2d0f629281900390910190a4614877836001600160a01b0316614d5b565b156148c0576148c060008484848c8c8080601f016020809104026020016040519081016040528093929190818152602001838380828437600092019190915250614d6192505050565b614a17565b6148ce82612e4d565b15611a94576148e083838360006154c8565b60405182906001600160a01b038516906000907fddf252ad1be2c89b69c2b068fc378daa952ba7f163c4a11628f55a4df523b3ef908290a4604080518381526001602082015281516001600160a01b0380871693600093918a16927fc3d58168c5ae7397731d063d5bbf3d657854427343f4c083240f7aacaa2d0f629281900390910190a4614977836001600160a01b0316614d5b565b156148c05761498583614f8a565b156149d4576149cf6000848460018c8c8080601f016020809104026020016040519081016040528093929190818152602001838380828437600092019190915250614d6192505050565b6148c0565b6148c0600084848b8b8080601f01602080910402602001604051908101604052809392919081815260200183838082843760009201919091525061570692505050565b505050806001019050614742565b6001600160a01b03918216600090815260016020908152604080832093909416825291909152205460ff1690565b80614aa5576040805162461bcd60e51b815260206004820152601e60248201527f496e76656e746f72793a206e6f6e2d617070726f7665642073656e6465720000604482015290519081900360640190fd5b81614af7576040805162461bcd60e51b815260206004820152601560248201527f496e76656e746f72793a207a65726f2076616c75650000000000000000000000604482015290519081900360640190fd5b60008381526002602090815260408083206001600160a01b038916845290915290205482811015614b6f576040805162461bcd60e51b815260206004820152601d60248201527f496e76656e746f72793a206e6f7420656e6f7567682062616c616e6365000000604482015290519081900360640190fd5b846001600160a01b0316866001600160a01b03161461371b5760009384526002602090815260408086206001600160a01b039889168752909152808520918490039091559390941682529190208054909101905550565b82600114614c1b576040805162461bcd60e51b815260206004820152601a60248201527f496e76656e746f72793a2077726f6e67204e46542076616c7565000000000000604482015290519081900360640190fd5b6000848152600460205260409020546001600160a01b0387811690821614614c8a576040805162461bcd60e51b815260206004820152601860248201527f496e76656e746f72793a206e6f6e2d6f776e6564204e46540000000000000000604482015290519081900360640190fd5b82614d1b57600160a01b811615801590614cca57506000858152600960205260409020546001600160a01b0316614cbf612edd565b6001600160a01b0316145b614d1b576040805162461bcd60e51b815260206004820152601e60248201527f496e76656e746f72793a206e6f6e2d617070726f7665642073656e6465720000604482015290519081900360640190fd5b60008581526004602052604090206001600160a01b0387169055816119ee57614d4687876001614f3f565b6119ee8787614d5488614418565b6001614eeb565b3b151590565b7ff23a6e61000000000000000000000000000000000000000000000000000000006001600160a01b03851663f23a6e61614d99612edd565b888787876040518663ffffffff1660e01b815260040180866001600160a01b03168152602001856001600160a01b0316815260200184815260200183815260200180602001828103825283818151815260200191508051906020019080838360005b83811015614e13578181015183820152602001614dfb565b50505050905090810190601f168015614e405780820380516001836020036101000a031916815260200191505b509650505050505050602060405180830381600087803b158015614e6357600080fd5b505af1158015614e77573d6000803e3d6000fd5b505050506040513d6020811015614e8d57600080fd5b50516001600160e01b03191614611b75576040805162461bcd60e51b815260206004820152601b60248201527f496e76656e746f72793a207472616e7366657220726566757365640000000000604482015290519081900360640190fd5b826001600160a01b0316846001600160a01b03161461234f5760009182526002602090815260408084206001600160a01b039687168552909152808320805483900390559290931681522080549091019055565b816001600160a01b0316836001600160a01b031614611b63576001600160a01b0380841660009081526008602052604080822080548590039055918416815220805482019055505050565b604080517f4e2312e0000000000000000000000000000000000000000000000000000000006024808301919091528251808303909101815260449091018252602081810180517bffffffffffffffffffffffffffffffffffffffffffffffffffffffff167f01ffc9a7000000000000000000000000000000000000000000000000000000001781528251935160008082529485948594909392908183858b612710fa955080519450505050609e5a1161503f57fe5b8280156150495750815b95945050505050565b7fbc197c81000000000000000000000000000000000000000000000000000000006001600160a01b03851663bc197c8161508a612edd565b888787876040518663ffffffff1660e01b815260040180866001600160a01b03168152602001856001600160a01b03168152602001806020018060200180602001848103845287818151815260200191508051906020019060200280838360005b838110156151035781810151838201526020016150eb565b50505050905001848103835286818151815260200191508051906020019060200280838360005b8381101561514257818101518382015260200161512a565b50505050905001848103825285818151815260200191508051906020019080838360005b8381101561517e578181015183820152602001615166565b50505050905090810190601f1680156151ab5780820380516001836020036101000a031916815260200191505b5098505050505050505050602060405180830381600087803b158015614e6357600080fd5b60006001600160e01b031982167f80ac58cd00000000000000000000000000000000000000000000000000000000148061523357506001600160e01b031982167f5b5e139f00000000000000000000000000000000000000000000000000000000145b8061526757506001600160e01b031982167ff3993d1100000000000000000000000000000000000000000000000000000000145b80611602575061160282615a6b565b60003381615282615b6c565b90507f00000000000000000000000000000000000000000000000000000000000000006001600160a01b0316826001600160a01b031614806152f557507f00000000000000000000000000000000000000000000000000000000000000006001600160a01b0316826001600160a01b0316145b1561530357915061169e9050565b6001600160a01b03821632148015906153c257507f00000000000000000000000000000000000000000000000000000000000000006001600160a01b031663e60125d682846040518363ffffffff1660e01b815260040180836001600160a01b03168152602001826001600160a01b031681526020019250505060206040518083038186803b15801561539557600080fd5b505afa1580156153a9573d6000803e3d6000fd5b505050506040513d60208110156153bf57600080fd5b50515b156153d057915061169e9050565b50905090565b80615428576040805162461bcd60e51b815260206004820152601560248201527f496e76656e746f72793a207a65726f2076616c75650000000000000000000000604482015290519081900360640190fd5b60008281526003602052604090205481810181811161548e576040805162461bcd60e51b815260206004820152601a60248201527f496e76656e746f72793a20737570706c79206f766572666c6f77000000000000604482015290519081900360640190fd5b600093845260036020908152604080862092909255600281528185206001600160a01b039096168552949094525091902080549091019055565b8160011461551d576040805162461bcd60e51b815260206004820152601a60248201527f496e76656e746f72793a2077726f6e67204e46542076616c7565000000000000604482015290519081900360640190fd5b6000838152600460205260409020541561557e576040805162461bcd60e51b815260206004820152601d60248201527f496e76656e746f72793a206578697374696e672f6275726e74204e4654000000604482015290519081900360640190fd5b60008381526004602052604090206001600160a01b03851690558061234f5760006155a884614418565b600090815260036020908152604080832080546001908101909155600283528184206001600160a01b038a16855283528184208054820190556008909252909120805490910190555050505050565b606081615638575060408051808201909152600181527f30000000000000000000000000000000000000000000000000000000000000006020820152611605565b8160005b811561565057600101600a8204915061563c565b60008167ffffffffffffffff8111801561566957600080fd5b506040519080825280601f01601f191660200182016040528015615694576020820181803683370190505b50859350905060001982015b83156156fd57600a840660300160f81b828280600190039350815181106156c357fe5b60200101907effffffffffffffffffffffffffffffffffffffffffffffffffffffffffffff1916908160001a905350600a840493506156a0565b50949350505050565b7f150b7a02000000000000000000000000000000000000000000000000000000006001600160a01b03841663150b7a0261573e612edd565b8786866040518563ffffffff1660e01b815260040180856001600160a01b03168152602001846001600160a01b0316815260200183815260200180602001828103825283818151815260200191508051906020019080838360005b838110156157b1578181015183820152602001615799565b50505050905090810190601f1680156157de5780820380516001836020036101000a031916815260200191505b5095505050505050602060405180830381600087803b15801561580057600080fd5b505af1158015615814573d6000803e3d6000fd5b505050506040513d602081101561582a57600080fd5b50516001600160e01b0319161461234f576040805162461bcd60e51b815260206004820152601b60248201527f496e76656e746f72793a207472616e7366657220726566757365640000000000604482015290519081900360640190fd5b8161589b6001600160a01b038216614d5b565b6158ec576040805162461bcd60e51b815260206004820152601a60248201527f4552433230577261707065723a206e6f6e2d636f6e7472616374000000000000604482015290519081900360640190fd5b600080826001600160a01b0316846040518082805190602001908083835b602083106159295780518252601f19909201916020918201910161590a565b6001836020036101000a0380198251168184511680821785525050505050509050019150506000604051808303816000865af19150503d806000811461598b576040519150601f19603f3d011682016040523d82523d6000602084013e615990565b606091505b50915091508115615a0f57805115615a0a578080602001905160208110156159b757600080fd5b5051615a0a576040805162461bcd60e51b815260206004820152601e60248201527f4552433230577261707065723a206f7065726174696f6e206661696c65640000604482015290519081900360640190fd5b611b75565b8051615a62576040805162461bcd60e51b815260206004820152601e60248201527f4552433230577261707065723a206f7065726174696f6e206661696c65640000604482015290519081900360640190fd5b80518082602001fd5b60006001600160e01b031982167f01ffc9a7000000000000000000000000000000000000000000000000000000001480615ace57506001600160e01b031982167fd9b67a2600000000000000000000000000000000000000000000000000000000145b80615b0257506001600160e01b031982167f0e89341c00000000000000000000000000000000000000000000000000000000145b80615b3657506001600160e01b031982167f09ce5c4600000000000000000000000000000000000000000000000000000000145b806116025750506001600160e01b0319167fbd85b039000000000000000000000000000000000000000000000000000000001490565b7fffffffffffffffffffffffffffffffffffffffffffffffffffffffffffffffec36013560601c90565b828054600181600116156101000203166002900490600052602060002090601f016020900481019282615bcc5760008555615c12565b82601f10615be55782800160ff19823516178555615c12565b82800160010185558215615c12579182015b82811115615c12578235825591602001919060010190615bf7565b50615c1e929150615c22565b5090565b5b80821115615c1e5760008155600101615c2356fea26469706673582212203050291da150bb1e9b99606a9525d129504344b7ca95ae6e64d1b97f7ff7b26d64736f6c63430007060033",
  "linkReferences": {},
  "deployedLinkReferences": {}
}