{
  "_format": "hh-sol-artifact-1",
  "contractName": "REVVRacingNFT",
  "sourceName": "contracts/token/ERC721/REVVRacingNFT.sol",
  "abi": [
    {
      "inputs": [
        {
          "internalType": "contract IForwarderRegistry",
          "name": "forwarderRegistry",
          "type": "address"
        }
      ],
      "stateMutability": "nonpayable",
      "type": "constructor"
    },
    {
      "anonymous": false,
      "inputs": [
        {
          "indexed": true,
          "internalType": "address",
          "name": "owner",
          "type": "address"
        },
        {
          "indexed": true,
          "internalType": "address",
          "name": "approved",
          "type": "address"
        },
        {
          "indexed": true,
          "internalType": "uint256",
          "name": "tokenId",
          "type": "uint256"
        }
      ],
      "name": "Approval",
      "type": "event"
    },
    {
      "anonymous": false,
      "inputs": [
        {
          "indexed": true,
          "internalType": "address",
          "name": "owner",
          "type": "address"
        },
        {
          "indexed": true,
          "internalType": "address",
          "name": "operator",
          "type": "address"
        },
        {
          "indexed": false,
          "internalType": "bool",
          "name": "approved",
          "type": "bool"
        }
      ],
      "name": "ApprovalForAll",
      "type": "event"
    },
    {
      "anonymous": false,
      "inputs": [
        {
          "indexed": false,
          "internalType": "string",
          "name": "baseMetadataURI",
          "type": "string"
        }
      ],
      "name": "BaseMetadataURISet",
      "type": "event"
    },
    {
      "anonymous": false,
      "inputs": [
        {
          "indexed": true,
          "internalType": "address",
          "name": "previousOwner",
          "type": "address"
        },
        {
          "indexed": true,
          "internalType": "address",
          "name": "newOwner",
          "type": "address"
        }
      ],
      "name": "OwnershipTransferred",
      "type": "event"
    },
    {
      "anonymous": false,
      "inputs": [
        {
          "indexed": false,
          "internalType": "bytes32",
          "name": "role",
          "type": "bytes32"
        },
        {
          "indexed": false,
          "internalType": "address",
          "name": "account",
          "type": "address"
        },
        {
          "indexed": false,
          "internalType": "address",
          "name": "operator",
          "type": "address"
        }
      ],
      "name": "RoleGranted",
      "type": "event"
    },
    {
      "anonymous": false,
      "inputs": [
        {
          "indexed": false,
          "internalType": "bytes32",
          "name": "role",
          "type": "bytes32"
        },
        {
          "indexed": false,
          "internalType": "address",
          "name": "account",
          "type": "address"
        },
        {
          "indexed": false,
          "internalType": "address",
          "name": "operator",
          "type": "address"
        }
      ],
      "name": "RoleRevoked",
      "type": "event"
    },
    {
      "anonymous": false,
      "inputs": [
        {
          "indexed": true,
          "internalType": "address",
          "name": "from",
          "type": "address"
        },
        {
          "indexed": true,
          "internalType": "address",
          "name": "to",
          "type": "address"
        },
        {
          "indexed": true,
          "internalType": "uint256",
          "name": "tokenId",
          "type": "uint256"
        }
      ],
      "name": "Transfer",
      "type": "event"
    },
    {
      "inputs": [],
      "name": "MINTER_ROLE",
      "outputs": [
        {
          "internalType": "bytes32",
          "name": "",
          "type": "bytes32"
        }
      ],
      "stateMutability": "view",
      "type": "function"
    },
    {
      "inputs": [
        {
          "internalType": "address",
          "name": "to",
          "type": "address"
        },
        {
          "internalType": "uint256",
          "name": "tokenId",
          "type": "uint256"
        }
      ],
      "name": "approve",
      "outputs": [],
      "stateMutability": "nonpayable",
      "type": "function"
    },
    {
      "inputs": [
        {
          "internalType": "address",
          "name": "owner",
          "type": "address"
        }
      ],
      "name": "balanceOf",
      "outputs": [
        {
          "internalType": "uint256",
          "name": "balance",
          "type": "uint256"
        }
      ],
      "stateMutability": "view",
      "type": "function"
    },
    {
      "inputs": [],
      "name": "baseMetadataURI",
      "outputs": [
        {
          "internalType": "string",
          "name": "baseURI",
          "type": "string"
        }
      ],
      "stateMutability": "view",
      "type": "function"
    },
    {
      "inputs": [
        {
          "internalType": "address",
          "name": "from",
          "type": "address"
        },
        {
          "internalType": "uint256[]",
          "name": "tokenIds",
          "type": "uint256[]"
        }
      ],
      "name": "batchBurnFrom",
      "outputs": [],
      "stateMutability": "nonpayable",
      "type": "function"
    },
    {
      "inputs": [
        {
          "internalType": "address",
          "name": "to",
          "type": "address"
        },
        {
          "internalType": "uint256[]",
          "name": "tokenIds",
          "type": "uint256[]"
        }
      ],
      "name": "batchMint",
      "outputs": [],
      "stateMutability": "nonpayable",
      "type": "function"
    },
    {
      "inputs": [
        {
          "internalType": "address",
          "name": "from",
          "type": "address"
        },
        {
          "internalType": "address",
          "name": "to",
          "type": "address"
        },
        {
          "internalType": "uint256[]",
          "name": "tokenIds",
          "type": "uint256[]"
        }
      ],
      "name": "batchTransferFrom",
      "outputs": [],
      "stateMutability": "nonpayable",
      "type": "function"
    },
    {
      "inputs": [
        {
          "internalType": "address",
          "name": "from",
          "type": "address"
        },
        {
          "internalType": "uint256",
          "name": "tokenId",
          "type": "uint256"
        }
      ],
      "name": "burnFrom",
      "outputs": [],
      "stateMutability": "nonpayable",
      "type": "function"
    },
    {
      "inputs": [
        {
          "internalType": "address[]",
          "name": "recipients",
          "type": "address[]"
        },
        {
          "internalType": "uint256[]",
          "name": "tokenIds",
          "type": "uint256[]"
        }
      ],
      "name": "deliver",
      "outputs": [],
      "stateMutability": "nonpayable",
      "type": "function"
    },
    {
      "inputs": [],
      "name": "forwarderRegistry",
      "outputs": [
        {
          "internalType": "contract IForwarderRegistry",
          "name": "",
          "type": "address"
        }
      ],
      "stateMutability": "view",
      "type": "function"
    },
    {
      "inputs": [
        {
          "internalType": "uint256",
          "name": "tokenId",
          "type": "uint256"
        }
      ],
      "name": "getApproved",
      "outputs": [
        {
          "internalType": "address",
          "name": "approved",
          "type": "address"
        }
      ],
      "stateMutability": "view",
      "type": "function"
    },
    {
      "inputs": [
        {
          "internalType": "bytes32",
          "name": "role",
          "type": "bytes32"
        },
        {
          "internalType": "address",
          "name": "account",
          "type": "address"
        }
      ],
      "name": "grantRole",
      "outputs": [],
      "stateMutability": "nonpayable",
      "type": "function"
    },
    {
      "inputs": [
        {
          "internalType": "bytes32",
          "name": "role",
          "type": "bytes32"
        },
        {
          "internalType": "address",
          "name": "account",
          "type": "address"
        }
      ],
      "name": "hasRole",
      "outputs": [
        {
          "internalType": "bool",
          "name": "",
          "type": "bool"
        }
      ],
      "stateMutability": "view",
      "type": "function"
    },
    {
      "inputs": [
        {
          "internalType": "address",
          "name": "owner",
          "type": "address"
        },
        {
          "internalType": "address",
          "name": "operator",
          "type": "address"
        }
      ],
      "name": "isApprovedForAll",
      "outputs": [
        {
          "internalType": "bool",
          "name": "approvedForAll",
          "type": "bool"
        }
      ],
      "stateMutability": "view",
      "type": "function"
    },
    {
      "inputs": [
        {
          "internalType": "address",
          "name": "forwarder",
          "type": "address"
        }
      ],
      "name": "isTrustedForwarder",
      "outputs": [
        {
          "internalType": "bool",
          "name": "",
          "type": "bool"
        }
      ],
      "stateMutability": "view",
      "type": "function"
    },
    {
      "inputs": [
        {
          "internalType": "address",
          "name": "to",
          "type": "address"
        },
        {
          "internalType": "uint256",
          "name": "tokenId",
          "type": "uint256"
        }
      ],
      "name": "mint",
      "outputs": [],
      "stateMutability": "nonpayable",
      "type": "function"
    },
    {
      "inputs": [],
      "name": "name",
      "outputs": [
        {
          "internalType": "string",
          "name": "tokenName",
          "type": "string"
        }
      ],
      "stateMutability": "view",
      "type": "function"
    },
    {
      "inputs": [],
      "name": "owner",
      "outputs": [
        {
          "internalType": "address",
          "name": "",
          "type": "address"
        }
      ],
      "stateMutability": "view",
      "type": "function"
    },
    {
      "inputs": [
        {
          "internalType": "uint256",
          "name": "tokenId",
          "type": "uint256"
        }
      ],
      "name": "ownerOf",
      "outputs": [
        {
          "internalType": "address",
          "name": "tokenOwner",
          "type": "address"
        }
      ],
      "stateMutability": "view",
      "type": "function"
    },
    {
      "inputs": [
        {
          "internalType": "address[]",
          "name": "accounts",
          "type": "address[]"
        },
        {
          "internalType": "contract IERC20[]",
          "name": "tokens",
          "type": "address[]"
        },
        {
          "internalType": "uint256[]",
          "name": "amounts",
          "type": "uint256[]"
        }
      ],
      "name": "recoverERC20s",
      "outputs": [],
      "stateMutability": "nonpayable",
      "type": "function"
    },
    {
      "inputs": [
        {
          "internalType": "address[]",
          "name": "accounts",
          "type": "address[]"
        },
        {
          "internalType": "contract IERC721[]",
          "name": "contracts",
          "type": "address[]"
        },
        {
          "internalType": "uint256[]",
          "name": "tokenIds",
          "type": "uint256[]"
        }
      ],
      "name": "recoverERC721s",
      "outputs": [],
      "stateMutability": "nonpayable",
      "type": "function"
    },
    {
      "inputs": [
        {
          "internalType": "address payable[]",
          "name": "accounts",
          "type": "address[]"
        },
        {
          "internalType": "uint256[]",
          "name": "amounts",
          "type": "uint256[]"
        }
      ],
      "name": "recoverETH",
      "outputs": [],
      "stateMutability": "nonpayable",
      "type": "function"
    },
    {
      "inputs": [
        {
          "internalType": "bytes32",
          "name": "role",
          "type": "bytes32"
        }
      ],
      "name": "renounceRole",
      "outputs": [],
      "stateMutability": "nonpayable",
      "type": "function"
    },
    {
      "inputs": [
        {
          "internalType": "bytes32",
          "name": "role",
          "type": "bytes32"
        },
        {
          "internalType": "address",
          "name": "account",
          "type": "address"
        }
      ],
      "name": "revokeRole",
      "outputs": [],
      "stateMutability": "nonpayable",
      "type": "function"
    },
    {
      "inputs": [
        {
          "internalType": "address",
          "name": "to",
          "type": "address"
        },
        {
          "internalType": "uint256",
          "name": "tokenId",
          "type": "uint256"
        },
        {
          "internalType": "bytes",
          "name": "data",
          "type": "bytes"
        }
      ],
      "name": "safeMint",
      "outputs": [],
      "stateMutability": "nonpayable",
      "type": "function"
    },
    {
      "inputs": [
        {
          "internalType": "address",
          "name": "from",
          "type": "address"
        },
        {
          "internalType": "address",
          "name": "to",
          "type": "address"
        },
        {
          "internalType": "uint256",
          "name": "tokenId",
          "type": "uint256"
        }
      ],
      "name": "safeTransferFrom",
      "outputs": [],
      "stateMutability": "nonpayable",
      "type": "function"
    },
    {
      "inputs": [
        {
          "internalType": "address",
          "name": "from",
          "type": "address"
        },
        {
          "internalType": "address",
          "name": "to",
          "type": "address"
        },
        {
          "internalType": "uint256",
          "name": "tokenId",
          "type": "uint256"
        },
        {
          "internalType": "bytes",
          "name": "data",
          "type": "bytes"
        }
      ],
      "name": "safeTransferFrom",
      "outputs": [],
      "stateMutability": "nonpayable",
      "type": "function"
    },
    {
      "inputs": [
        {
          "internalType": "address",
          "name": "operator",
          "type": "address"
        },
        {
          "internalType": "bool",
          "name": "approved",
          "type": "bool"
        }
      ],
      "name": "setApprovalForAll",
      "outputs": [],
      "stateMutability": "nonpayable",
      "type": "function"
    },
    {
      "inputs": [
        {
          "internalType": "string",
          "name": "baseURI",
          "type": "string"
        }
      ],
      "name": "setBaseMetadataURI",
      "outputs": [],
      "stateMutability": "nonpayable",
      "type": "function"
    },
    {
      "inputs": [
        {
          "internalType": "bytes4",
          "name": "interfaceId",
          "type": "bytes4"
        }
      ],
      "name": "supportsInterface",
      "outputs": [
        {
          "internalType": "bool",
          "name": "",
          "type": "bool"
        }
      ],
      "stateMutability": "view",
      "type": "function"
    },
    {
      "inputs": [],
      "name": "symbol",
      "outputs": [
        {
          "internalType": "string",
          "name": "tokenSymbol",
          "type": "string"
        }
      ],
      "stateMutability": "view",
      "type": "function"
    },
    {
      "inputs": [
        {
          "internalType": "uint256",
          "name": "tokenId",
          "type": "uint256"
        }
      ],
      "name": "tokenURI",
      "outputs": [
        {
          "internalType": "string",
          "name": "uri",
          "type": "string"
        }
      ],
      "stateMutability": "view",
      "type": "function"
    },
    {
      "inputs": [
        {
          "internalType": "address",
          "name": "from",
          "type": "address"
        },
        {
          "internalType": "address",
          "name": "to",
          "type": "address"
        },
        {
          "internalType": "uint256",
          "name": "tokenId",
          "type": "uint256"
        }
      ],
      "name": "transferFrom",
      "outputs": [],
      "stateMutability": "nonpayable",
      "type": "function"
    },
    {
      "inputs": [
        {
          "internalType": "address",
          "name": "newOwner",
          "type": "address"
        }
      ],
      "name": "transferOwnership",
      "outputs": [],
      "stateMutability": "nonpayable",
      "type": "function"
    }
  ],
  "bytecode": "0x60a06040523480156200001157600080fd5b5060405162004ad138038062004ad183398101604081905262000034916200040a565b80806040518060400160405280600f81526020016e1491559588149858da5b99c8139195608a1b81525060405180604001604052806002815260200161292960f11b815250336200008f6200015960201b62000e1e1760201c565b620000a46200019360201b62000e551760201c565b620000d281620000be620001b660201b62000e831760201c565b620001ec60201b62000eb11790919060201c565b50620001038282620000ee6200026a60201b62000f671760201c565b6200029a60201b62000f95179092919060201c565b50506200011a620002e160201b62000fde1760201c565b6200012f6200030460201b6200100c1760201c565b620001446200032760201b6200103a1760201c565b6001600160a01b031660805250620005ce9050565b620001916380ac58cd60e01b60016200017c6200034a60201b620010641760201c565b6200037a60201b62001092179092919060201c565b565b6200019163f3993d1160e01b60016200017c6200034a60201b620010641760201c565b600080620001e660017fc9ed16f33ab3a66c84bfd83099ccb2a8845871e2e1c1928f63797152f0fd54cd6200043c565b92915050565b6001600160a01b03811615620002435781546001600160a01b0319166001600160a01b03821690811783556040516000907f8be0079c531659141344cd1fd0a4f28419497f9722a3daafe3b4186f6b6457e0908290a35b620002666307f5828d60e41b60016200017c6200034a60201b620010641760201c565b5050565b600080620001e660017f9c4269c0f9f430d98876ffe9767fbf3f3232ea91a549beb549e5329532520eb36200043c565b82620002a7838262000502565b5060018301620002b8828262000502565b50620002dc635b5e139f60e01b60016200017c6200034a60201b620010641760201c565b505050565b62000191638b8b4ef560e01b60016200017c6200034a60201b620010641760201c565b62000191638e773e1360e01b60016200017c6200034a60201b620010641760201c565b62000191634ed2f41960e11b60016200017c6200034a60201b620010641760201c565b600080620001e660017fca9d3e17f264b0f3984e2634e94adb37fa3e6a8103f06aeae6fa59e21c769f5e6200043c565b600160e01b6001600160e01b0319831601620003dc5760405162461bcd60e51b815260206004820152601f60248201527f496e74657266616365446574656374696f6e3a2077726f6e672076616c756500604482015260640160405180910390fd5b6001600160e01b03199190911660009081526020929092526040909120805460ff1916911515919091179055565b6000602082840312156200041d57600080fd5b81516001600160a01b03811681146200043557600080fd5b9392505050565b81810381811115620001e657634e487b7160e01b600052601160045260246000fd5b634e487b7160e01b600052604160045260246000fd5b600181811c908216806200048957607f821691505b602082108103620004aa57634e487b7160e01b600052602260045260246000fd5b50919050565b601f821115620002dc57600081815260208120601f850160051c81016020861015620004d95750805b601f850160051c820191505b81811015620004fa57828155600101620004e5565b505050505050565b81516001600160401b038111156200051e576200051e6200045e565b62000536816200052f845462000474565b84620004b0565b602080601f8311600181146200056e5760008415620005555750858301515b600019600386901b1c1916600185901b178555620004fa565b600085815260208120601f198616915b828110156200059f578886015182559484019460019091019084016200057e565b5085821015620005be5787850151600019600388901b60f8161c191681555b5050505050600190811b01905550565b6080516144d2620005ff600039600081816102ca0152818161034a0152818161314a01526131d201526144d26000f3fe608060405234801561001057600080fd5b50600436106102265760003560e01c80638832e6e31161012a578063c3666c36116100bd578063e985e9c51161008c578063f2fde38b11610071578063f2fde38b14610504578063f3993d1114610517578063f7ba94bd1461052a57600080fd5b8063e985e9c5146104de578063f2472965146104f157600080fd5b8063c3666c361461047e578063c87b56dd14610491578063d5391393146104a4578063d547741f146104cb57600080fd5b806395d89b41116100f957806395d89b411461043d5780639da5e83214610445578063a22cb46514610458578063b88d4fde1461046b57600080fd5b80638832e6e3146103fc5780638bb9c5bf1461040f5780638da5cb5b1461042257806391d148541461042a57600080fd5b806342842e0e116101bd5780636352211e1161018c57806373c8a9581161017157806373c8a958146103c357806379cc6790146103d65780637e518ec8146103e957600080fd5b80636352211e1461038f57806370a08231146103a257600080fd5b806342842e0e146103145780634684d7e914610327578063572b6c051461033a5780635b2bd79e1461038757600080fd5b806323b872dd116101f957806323b872dd146102b55780632b4c9f16146102c85780632f2ff15d146102ee57806340c10f191461030157600080fd5b806301ffc9a71461022b57806306fdde0314610253578063081812fc14610268578063095ea7b3146102a0575b600080fd5b61023e61023936600461394c565b61053d565b60405190151581526020015b60405180910390f35b61025b610557565b60405161024a91906139d7565b61027b6102763660046139ea565b61056e565b60405173ffffffffffffffffffffffffffffffffffffffff909116815260200161024a565b6102b36102ae366004613a25565b610582565b005b6102b36102c3366004613a51565b6105a3565b7f000000000000000000000000000000000000000000000000000000000000000061027b565b6102b36102fc366004613a92565b6105c7565b6102b361030f366004613a25565b6105fb565b6102b3610322366004613a51565b61064a565b6102b3610335366004613b0e565b610669565b61023e610348366004613b63565b7f000000000000000000000000000000000000000000000000000000000000000073ffffffffffffffffffffffffffffffffffffffff90811691161490565b61025b6106dd565b61027b61039d3660046139ea565b6106ea565b6103b56103b0366004613b63565b6106fe565b60405190815260200161024a565b6102b36103d1366004613b80565b610712565b6102b36103e4366004613a25565b610842565b6102b36103f7366004613c5c565b61085f565b6102b361040a366004613c9e565b61087e565b6102b361041d3660046139ea565b610906565b61027b610924565b61023e610438366004613a92565b61094b565b61025b610996565b6102b3610453366004613cfa565b6109a8565b6102b3610466366004613d68565b610a4c565b6102b3610479366004613d96565b610a69565b6102b361048c366004613b80565b610a93565b61025b61049f3660046139ea565b610c38565b6103b57f6d696e746572000000000000000000000000000000000000000000000000000081565b6102b36104d9366004613a92565b610c59565b61023e6104ec366004613e09565b610c87565b6102b36104ff366004613b0e565b610cd5565b6102b3610512366004613b63565b610cf4565b6102b3610525366004613e37565b610d0f565b6102b3610538366004613cfa565b610d30565b60006105518261054b611064565b9061119e565b92915050565b6060610569610564610f67565b611278565b905090565b60006105518261057c61130e565b9061133c565b61059f61058d61141d565b838361059761130e565b929190611427565b5050565b6105c26105ae61141d565b8484846105b961130e565b939291906116f0565b505050565b60006105d161141d565b90506105e5816105df610e83565b90611a45565b6105c28383836105f3611ac8565b929190611af6565b6106367f6d696e746572000000000000000000000000000000000000000000000000000061062761141d565b61062f611ac8565b9190611bcc565b61059f828261064361130e565b9190611c78565b6105c261065561141d565b84848461066061130e565b93929190611def565b6106957f6d696e746572000000000000000000000000000000000000000000000000000061062761141d565b6105c2838383808060200260200160405190810160405280939291908181526020018383602002808284376000920191909152506106d6925061130e915050565b9190611e35565b6060610569610564612009565b6000610551826106f861130e565b90612037565b60006105518261070c61130e565b906120cd565b61072561071d61141d565b6105df610e83565b84838114801561073457508082145b61079f576040517f08c379a000000000000000000000000000000000000000000000000000000000815260206004820152601d60248201527f5265636f766572793a20696e636f6e73697374656e742061727261797300000060448201526064015b60405180910390fd5b60005b818114610838576108308888838181106107be576107be613e90565b90506020020160208101906107d39190613b63565b8585848181106107e5576107e5613e90565b905060200201358888858181106107fe576107fe613e90565b90506020020160208101906108139190613b63565b73ffffffffffffffffffffffffffffffffffffffff169190612179565b6001016107a2565b5050505050505050565b61059f61084d61141d565b838361085761130e565b929190612206565b61086a61071d61141d565b61059f8282610877612009565b919061241a565b6108aa7f6d696e746572000000000000000000000000000000000000000000000000000061062761141d565b6109006108b561141d565b858585858080601f0160208091040260200160405190810160405280939291908181526020018383808284376000920191909152506108f7925061130e915050565b93929190612465565b50505050565b61092161091161141d565b8261091a611ac8565b919061249b565b50565b6000610569610931610e83565b5473ffffffffffffffffffffffffffffffffffffffff1690565b600061098f838361095a611ac8565b60009283526020908152604080842073ffffffffffffffffffffffffffffffffffffffff909316845291905290205460ff1690565b9392505050565b60606105696109a3610f67565b612537565b6109d47f6d696e746572000000000000000000000000000000000000000000000000000061062761141d565b61090084848080602002602001604051908101604052809392919081815260200183836020028082843760009201919091525050604080516020808802828101820190935287825290935087925086918291850190849080828437600092019190915250610a45925061130e915050565b9190612548565b61059f610a5761141d565b8383610a6161130e565b92919061260d565b610a8c610a7461141d565b8686868686610a8161130e565b95949392919061273d565b5050505050565b610a9e61071d61141d565b848381148015610aad57508082145b610b13576040517f08c379a000000000000000000000000000000000000000000000000000000000815260206004820152601d60248201527f5265636f766572793a20696e636f6e73697374656e74206172726179730000006044820152606401610796565b60005b81811461083857858582818110610b2f57610b2f613e90565b9050602002016020810190610b449190613b63565b73ffffffffffffffffffffffffffffffffffffffff166323b872dd308a8a85818110610b7257610b72613e90565b9050602002016020810190610b879190613b63565b878786818110610b9957610b99613e90565b6040517fffffffff0000000000000000000000000000000000000000000000000000000060e088901b16815273ffffffffffffffffffffffffffffffffffffffff958616600482015294909316602485015250602090910201356044820152606401600060405180830381600087803b158015610c1557600080fd5b505af1158015610c29573d6000803e3d6000fd5b50505050806001019050610b16565b6060610c46826106f861130e565b5061055182610c53612009565b906127b3565b6000610c6361141d565b9050610c71816105df610e83565b6105c2838383610c7f611ac8565b9291906127e7565b600061098f8383610c9661130e565b919073ffffffffffffffffffffffffffffffffffffffff9182166000908152600393909301602090815260408085209290931684525290205460ff1690565b6105c2610ce061141d565b848484610ceb61130e565b939291906128b1565b610921610cff61141d565b82610d08610e83565b9190612b06565b610900610d1a61141d565b85858585610d2661130e565b9493929190612c32565b610d3b61071d61141d565b82818114610da5576040517f08c379a000000000000000000000000000000000000000000000000000000000815260206004820152601d60248201527f5265636f766572793a20696e636f6e73697374656e74206172726179730000006044820152606401610796565b60005b818114610e1657610e0e848483818110610dc457610dc4613e90565b90506020020135878784818110610ddd57610ddd613e90565b9050602002016020810190610df29190613b63565b73ffffffffffffffffffffffffffffffffffffffff1690612fad565b600101610da8565b505050505050565b610e537f80ac58cd000000000000000000000000000000000000000000000000000000006001610e4c611064565b9190611092565b565b610e537ff3993d11000000000000000000000000000000000000000000000000000000006001610e4c611064565b60008061055160017fc9ed16f33ab3a66c84bfd83099ccb2a8845871e2e1c1928f63797152f0fd54cd613eee565b73ffffffffffffffffffffffffffffffffffffffff811615610f395781547fffffffffffffffffffffffff00000000000000000000000000000000000000001673ffffffffffffffffffffffffffffffffffffffff821690811783556040516000907f8be0079c531659141344cd1fd0a4f28419497f9722a3daafe3b4186f6b6457e0908290a35b61059f7f7f5828d0000000000000000000000000000000000000000000000000000000006001610e4c611064565b60008061055160017f9c4269c0f9f430d98876ffe9767fbf3f3232ea91a549beb549e5329532520eb3613eee565b82610fa08382613fc9565b5060018301610faf8282613fc9565b506105c27f5b5e139f000000000000000000000000000000000000000000000000000000006001610e4c611064565b610e537f8b8b4ef5000000000000000000000000000000000000000000000000000000006001610e4c611064565b610e537f8e773e13000000000000000000000000000000000000000000000000000000006001610e4c611064565b610e537f9da5e832000000000000000000000000000000000000000000000000000000006001610e4c5b60008061055160017fca9d3e17f264b0f3984e2634e94adb37fa3e6a8103f06aeae6fa59e21c769f5e613eee565b7c01000000000000000000000000000000000000000000000000000000007fffffffff0000000000000000000000000000000000000000000000000000000083160161113a576040517f08c379a000000000000000000000000000000000000000000000000000000000815260206004820152601f60248201527f496e74657266616365446574656374696f6e3a2077726f6e672076616c7565006044820152606401610796565b7fffffffff00000000000000000000000000000000000000000000000000000000919091166000908152602092909252604090912080547fffffffffffffffffffffffffffffffffffffffffffffffffffffffffffffff0016911515919091179055565b60007c01000000000000000000000000000000000000000000000000000000007fffffffff000000000000000000000000000000000000000000000000000000008316016111ee57506000610551565b7ffe003659000000000000000000000000000000000000000000000000000000007fffffffff0000000000000000000000000000000000000000000000000000000083160161123f57506001610551565b507fffffffff00000000000000000000000000000000000000000000000000000000166000908152602091909152604090205460ff1690565b606081600001805461128990613f30565b80601f01602080910402602001604051908101604052809291908181526020018280546112b590613f30565b80156113025780601f106112d757610100808354040283529160200191611302565b820191906000526020600020905b8154815290600101906020018083116112e557829003601f168201915b50505050509050919050565b60008061055160017fddf3ee18ae6d688373c219468f8be446e7ae82215f4779d821c7ea5e8c13c0c1613eee565b60008181526020839052604081205473ffffffffffffffffffffffffffffffffffffffff81166113c8576040517f08c379a000000000000000000000000000000000000000000000000000000000815260206004820152601a60248201527f4552433732313a206e6f6e2d6578697374696e6720746f6b656e0000000000006044820152606401610796565b74010000000000000000000000000000000000000000811615611413575050600081815260028301602052604090205473ffffffffffffffffffffffffffffffffffffffff16610551565b6000915050610551565b6000610569613107565b60008181526020859052604090205473ffffffffffffffffffffffffffffffffffffffff81166114b3576040517f08c379a000000000000000000000000000000000000000000000000000000000815260206004820152601a60248201527f4552433732313a206e6f6e2d6578697374696e6720746f6b656e0000000000006044820152606401610796565b8073ffffffffffffffffffffffffffffffffffffffff80821690851603611536576040517f08c379a000000000000000000000000000000000000000000000000000000000815260206004820152601560248201527f4552433732313a2073656c662d617070726f76616c00000000000000000000006044820152606401610796565b61154186828761324e565b6115a7576040517f08c379a000000000000000000000000000000000000000000000000000000000815260206004820152601b60248201527f4552433732313a206e6f6e2d617070726f7665642073656e64657200000000006044820152606401610796565b73ffffffffffffffffffffffffffffffffffffffff841661160c577401000000000000000000000000000000000000000082161561160757600083815260208790526040902073ffffffffffffffffffffffffffffffffffffffff821690555b61168d565b74010000000000000000000000000000000000000000821780831461163d5760008481526020889052604090208190555b506000838152600287016020526040902080547fffffffffffffffffffffffff00000000000000000000000000000000000000001673ffffffffffffffffffffffffffffffffffffffff86161790555b828473ffffffffffffffffffffffffffffffffffffffff168273ffffffffffffffffffffffffffffffffffffffff167f8c5be1e5ebec7d5bd14f71427d1e84f3dd0314c0f7b2291e5b200ac8c7c3b92560405160405180910390a4505050505050565b73ffffffffffffffffffffffffffffffffffffffff821661176d576040517f08c379a000000000000000000000000000000000000000000000000000000000815260206004820152601e60248201527f4552433732313a207472616e7366657220746f206164647265737328302900006044820152606401610796565b60008181526020869052604090205473ffffffffffffffffffffffffffffffffffffffff81166117f9576040517f08c379a000000000000000000000000000000000000000000000000000000000815260206004820152601a60248201527f4552433732313a206e6f6e2d6578697374696e6720746f6b656e0000000000006044820152606401610796565b73ffffffffffffffffffffffffffffffffffffffff84168173ffffffffffffffffffffffffffffffffffffffff161461188e576040517f08c379a000000000000000000000000000000000000000000000000000000000815260206004820152601760248201527f4552433732313a206e6f6e2d6f776e656420746f6b656e0000000000000000006044820152606401610796565b61189986858761324e565b61195157740100000000000000000000000000000000000000008116151580156118eb5750600082815260028701602052604090205473ffffffffffffffffffffffffffffffffffffffff8681169116145b611951576040517f08c379a000000000000000000000000000000000000000000000000000000000815260206004820152601b60248201527f4552433732313a206e6f6e2d617070726f7665642073656e64657200000000006044820152606401610796565b600082815260208790526040902073ffffffffffffffffffffffffffffffffffffffff808516918290558516146119e25773ffffffffffffffffffffffffffffffffffffffff80851660009081526001808901602052604080832080547fffffffffffffffffffffffffffffffffffffffffffffffffffffffffffffffff0190559286168252919020805490910190555b818373ffffffffffffffffffffffffffffffffffffffff168573ffffffffffffffffffffffffffffffffffffffff167fddf252ad1be2c89b69c2b068fc378daa952ba7f163c4a11628f55a4df523b3ef60405160405180910390a4505050505050565b815473ffffffffffffffffffffffffffffffffffffffff82811691161461059f576040517f08c379a000000000000000000000000000000000000000000000000000000000815260206004820152601860248201527f4f776e6572736869703a206e6f7420746865206f776e657200000000000000006044820152606401610796565b60008061055160017fc8827d3282af6f37b64c3e9e6f3ac9df286ab0bb0fccd6f8661bf19adb368b23613eee565b60008381526020858152604080832073ffffffffffffffffffffffffffffffffffffffff8616845290915290205460ff166109005760008381526020858152604080832073ffffffffffffffffffffffffffffffffffffffff8681168086529184529382902080547fffffffffffffffffffffffffffffffffffffffffffffffffffffffffffffff00166001179055815187815292830152918316918101919091527f2f8788117e7eff1d82e926ec794901d17c78024a50270940304540a733656f0d906060015b60405180910390a150505050565b60008281526020848152604080832073ffffffffffffffffffffffffffffffffffffffff8516845290915290205460ff166105c257611c0a826132c3565b604051602001611c1a91906140e3565b604080517fffffffffffffffffffffffffffffffffffffffffffffffffffffffffffffffe0818403018152908290527f08c379a0000000000000000000000000000000000000000000000000000000008252610796916004016139d7565b73ffffffffffffffffffffffffffffffffffffffff8216611cf5576040517f08c379a000000000000000000000000000000000000000000000000000000000815260206004820152601a60248201527f4552433732313a206d696e7420746f20616464726573732830290000000000006044820152606401610796565b60008181526020849052604090205473ffffffffffffffffffffffffffffffffffffffff1615611d81576040517f08c379a000000000000000000000000000000000000000000000000000000000815260206004820152601660248201527f4552433732313a206578697374696e6720746f6b656e000000000000000000006044820152606401610796565b60008181526020848152604080832073ffffffffffffffffffffffffffffffffffffffff86169081905580845260018088019093528184208054909301909255518392907fddf252ad1be2c89b69c2b068fc378daa952ba7f163c4a11628f55a4df523b3ef908290a4505050565b611dfc85858585856116f0565b73ffffffffffffffffffffffffffffffffffffffff82163b15610a8c57610a8c8484848460405180602001604052806000815250613455565b73ffffffffffffffffffffffffffffffffffffffff8216611eb2576040517f08c379a000000000000000000000000000000000000000000000000000000000815260206004820152601a60248201527f4552433732313a206d696e7420746f20616464726573732830290000000000006044820152606401610796565b805160005b818114611fd4576000838281518110611ed257611ed2613e90565b60200260200101519050611f108660000160008381526020019081526020016000205473ffffffffffffffffffffffffffffffffffffffff16151590565b15611f77576040517f08c379a000000000000000000000000000000000000000000000000000000000815260206004820152601660248201527f4552433732313a206578697374696e6720746f6b656e000000000000000000006044820152606401610796565b60008181526020879052604080822073ffffffffffffffffffffffffffffffffffffffff88169081905590518392907fddf252ad1be2c89b69c2b068fc378daa952ba7f163c4a11628f55a4df523b3ef908290a450600101611eb7565b5073ffffffffffffffffffffffffffffffffffffffff9092166000908152600190930160205250604090912080549091019055565b60008061055160017fe94434e3c6b941c5d90218142fadcc69cb2e13723993540bfa1c131dd1d3475a613eee565b60008181526020839052604081205473ffffffffffffffffffffffffffffffffffffffff81166120c3576040517f08c379a000000000000000000000000000000000000000000000000000000000815260206004820152601a60248201527f4552433732313a206e6f6e2d6578697374696e6720746f6b656e0000000000006044820152606401610796565b805b949350505050565b600073ffffffffffffffffffffffffffffffffffffffff821661214c576040517f08c379a000000000000000000000000000000000000000000000000000000000815260206004820152601d60248201527f4552433732313a2062616c616e6365206f6620616464726573732830290000006044820152606401610796565b5073ffffffffffffffffffffffffffffffffffffffff166000908152600191909101602052604090205490565b6040805173ffffffffffffffffffffffffffffffffffffffff8416602482015260448082018490528251808303909101815260649091019091526020810180517bffffffffffffffffffffffffffffffffffffffffffffffffffffffff167fa9059cbb000000000000000000000000000000000000000000000000000000001790526105c290849061357b565b6000818152602085905260409020548073ffffffffffffffffffffffffffffffffffffffff168373ffffffffffffffffffffffffffffffffffffffff16146122aa576040517f08c379a000000000000000000000000000000000000000000000000000000000815260206004820152601760248201527f4552433732313a206e6f6e2d6f776e656420746f6b656e0000000000000000006044820152606401610796565b6122b585848661324e565b61236d57740100000000000000000000000000000000000000008116151580156123075750600082815260028601602052604090205473ffffffffffffffffffffffffffffffffffffffff8581169116145b61236d576040517f08c379a000000000000000000000000000000000000000000000000000000000815260206004820152601b60248201527f4552433732313a206e6f6e2d617070726f7665642073656e64657200000000006044820152606401610796565b6000828152602086815260408083207fdead000000000000000000000000000000000000000000000000000000000000905573ffffffffffffffffffffffffffffffffffffffff86168084526001890190925280832080547fffffffffffffffffffffffffffffffffffffffffffffffffffffffffffffffff01905551849291907fddf252ad1be2c89b69c2b068fc378daa952ba7f163c4a11628f55a4df523b3ef908390a45050505050565b8261242682848361414f565b507f04b1dc5c136a3ce9fded8db0ce3d3366c58764ec3a8e4c2b9e52e4ddfe5ebbf78282604051612458929190614269565b60405180910390a1505050565b612470858484611c78565b73ffffffffffffffffffffffffffffffffffffffff83163b15610a8c57610a8c846000858585613455565b6124a6838284611bcc565b60008181526020848152604080832073ffffffffffffffffffffffffffffffffffffffff86168085529083529281902080547fffffffffffffffffffffffffffffffffffffffffffffffffffffffffffffff0016905580518481529182018390528101919091527ff6391f5c32d9c69d2a47ea670b442974b53935d1edc7fd64eb21e047a839171b90606001612458565b606081600101805461128990613f30565b8151815181146125b4576040517f08c379a000000000000000000000000000000000000000000000000000000000815260206004820152601b60248201527f4552433732313a20696e636f6e73697374656e742061727261797300000000006044820152606401610796565b60005b818114610a8c576126058482815181106125d3576125d3613e90565b60200260200101518483815181106125ed576125ed613e90565b602002602001015187611c789092919063ffffffff16565b6001016125b7565b8273ffffffffffffffffffffffffffffffffffffffff168273ffffffffffffffffffffffffffffffffffffffff16036126a2576040517f08c379a000000000000000000000000000000000000000000000000000000000815260206004820152601d60248201527f4552433732313a2073656c662d617070726f76616c20666f7220616c6c0000006044820152606401610796565b73ffffffffffffffffffffffffffffffffffffffff838116600081815260038701602090815260408083209487168084529482529182902080547fffffffffffffffffffffffffffffffffffffffffffffffffffffffffffffff001686151590811790915591519182527f17307eab39ab6107e8899845ad3d59bd9653f200f220920489ca2b5937696c31910160405180910390a350505050565b61274a87878787876116f0565b73ffffffffffffffffffffffffffffffffffffffff84163b156127aa576127aa8686868686868080601f01602080910402602001604051908101604052809392919081815260200183838082843760009201919091525061345592505050565b50505050505050565b6060826127bf83613687565b6040516020016127d09291906142b6565b604051602081830303815290604052905092915050565b60008381526020858152604080832073ffffffffffffffffffffffffffffffffffffffff8616845290915290205460ff16156109005760008381526020858152604080832073ffffffffffffffffffffffffffffffffffffffff8681168086529184529382902080547fffffffffffffffffffffffffffffffffffffffffffffffffffffffffffffff00169055815187815292830152918316918101919091527ff6391f5c32d9c69d2a47ea670b442974b53935d1edc7fd64eb21e047a839171b90606001611bbe565b60006128be86858761324e565b90508160005b818114612ac85760008585838181106128df576128df613e90565b602090810292909201356000818152928c905260409092205491925081905073ffffffffffffffffffffffffffffffffffffffff168873ffffffffffffffffffffffffffffffffffffffff1614612992576040517f08c379a000000000000000000000000000000000000000000000000000000000815260206004820152601760248201527f4552433732313a206e6f6e2d6f776e656420746f6b656e0000000000000000006044820152606401610796565b84612a4b57740100000000000000000000000000000000000000008116151580156129e55750600082815260028b01602052604090205473ffffffffffffffffffffffffffffffffffffffff8a81169116145b612a4b576040517f08c379a000000000000000000000000000000000000000000000000000000000815260206004820152601b60248201527f4552433732313a206e6f6e2d617070726f7665642073656e64657200000000006044820152606401610796565b600082815260208b905260408082207fdead00000000000000000000000000000000000000000000000000000000000090555183919073ffffffffffffffffffffffffffffffffffffffff8b16907fddf252ad1be2c89b69c2b068fc378daa952ba7f163c4a11628f55a4df523b3ef908390a450506001016128c4565b5080156127aa5773ffffffffffffffffffffffffffffffffffffffff8516600090815260018801602052604090208054829003905550505050505050565b825473ffffffffffffffffffffffffffffffffffffffff9081169083168114612b8b576040517f08c379a000000000000000000000000000000000000000000000000000000000815260206004820152601860248201527f4f776e6572736869703a206e6f7420746865206f776e657200000000000000006044820152606401610796565b8173ffffffffffffffffffffffffffffffffffffffff168173ffffffffffffffffffffffffffffffffffffffff16146109005783547fffffffffffffffffffffffff00000000000000000000000000000000000000001673ffffffffffffffffffffffffffffffffffffffff8381169182178655604051908316907f8be0079c531659141344cd1fd0a4f28419497f9722a3daafe3b4186f6b6457e090600090a350505050565b73ffffffffffffffffffffffffffffffffffffffff8316612caf576040517f08c379a000000000000000000000000000000000000000000000000000000000815260206004820152601e60248201527f4552433732313a207472616e7366657220746f206164647265737328302900006044820152606401610796565b6000612cbc87868861324e565b90508160005b818114612f26576000858583818110612cdd57612cdd613e90565b602090810292909201356000818152928d90526040909220549192505073ffffffffffffffffffffffffffffffffffffffff8116612d77576040517f08c379a000000000000000000000000000000000000000000000000000000000815260206004820152601a60248201527f4552433732313a206e6f6e2d6578697374696e6720746f6b656e0000000000006044820152606401610796565b73ffffffffffffffffffffffffffffffffffffffff89168173ffffffffffffffffffffffffffffffffffffffff1614612e0c576040517f08c379a000000000000000000000000000000000000000000000000000000000815260206004820152601760248201527f4552433732313a206e6f6e2d6f776e656420746f6b656e0000000000000000006044820152606401610796565b84612ec55774010000000000000000000000000000000000000000811615158015612e5f5750600082815260028c01602052604090205473ffffffffffffffffffffffffffffffffffffffff8b81169116145b612ec5576040517f08c379a000000000000000000000000000000000000000000000000000000000815260206004820152601b60248201527f4552433732313a206e6f6e2d617070726f7665642073656e64657200000000006044820152606401610796565b600082815260208c9052604080822073ffffffffffffffffffffffffffffffffffffffff808c16918290559151859391928d16917fddf252ad1be2c89b69c2b068fc378daa952ba7f163c4a11628f55a4df523b3ef91a45050600101612cc2565b508473ffffffffffffffffffffffffffffffffffffffff168673ffffffffffffffffffffffffffffffffffffffff1614158015612f6257508015155b156108385773ffffffffffffffffffffffffffffffffffffffff808716600090815260018a016020526040808220805485900390559187168152208054820190555050505050505050565b80471015613017576040517f08c379a000000000000000000000000000000000000000000000000000000000815260206004820152601d60248201527f416464726573733a20696e73756666696369656e742062616c616e63650000006044820152606401610796565b60008273ffffffffffffffffffffffffffffffffffffffff168260405160006040518083038185875af1925050503d8060008114613071576040519150601f19603f3d011682016040523d82523d6000602084013e613076565b606091505b50509050806105c2576040517f08c379a000000000000000000000000000000000000000000000000000000000815260206004820152603a60248201527f416464726573733a20756e61626c6520746f2073656e642076616c75652c207260448201527f6563697069656e74206d617920686176652072657665727465640000000000006064820152608401610796565b6000333214806131175750601836105b1561312157503390565b7fffffffffffffffffffffffffffffffffffffffffffffffffffffffffffffffec36013560601c7f000000000000000000000000000000000000000000000000000000000000000073ffffffffffffffffffffffffffffffffffffffff1633148061323d57506040517f8929a8ca00000000000000000000000000000000000000000000000000000000815273ffffffffffffffffffffffffffffffffffffffff82811660048301523360248301527f00000000000000000000000000000000000000000000000000000000000000001690638929a8ca90604401602060405180830381865afa158015613219573d6000803e3d6000fd5b505050506040513d601f19601f8201168201806040525081019061323d919061435b565b1561324757919050565b3391505090565b60008173ffffffffffffffffffffffffffffffffffffffff168373ffffffffffffffffffffffffffffffffffffffff1614806120c557505073ffffffffffffffffffffffffffffffffffffffff9182166000908152600393909301602090815260408085209290931684525290205460ff1690565b606060008290036132e257505060408051602081019091526000815290565b6000826040516020016132f791815260200190565b604080517fffffffffffffffffffffffffffffffffffffffffffffffffffffffffffffffe08184030181529190529050601f5b81818151811061333c5761333c613e90565b01602001517fff0000000000000000000000000000000000000000000000000000000000000016600003613391577fffffffffffffffffffffffffffffffffffffffffffffffffffffffffffffffff0161332a565b60008160010167ffffffffffffffff8111156133af576133af613f01565b6040519080825280601f01601f1916602001820160405280156133d9576020820181803683370190505b50905060005b82811161344c578381815181106133f8576133f8613e90565b602001015160f81c60f81b82828151811061341557613415613e90565b60200101907effffffffffffffffffffffffffffffffffffffffffffffffffffffffffffff1916908160001a9053506001016133df565b50949350505050565b6040517f150b7a02000000000000000000000000000000000000000000000000000000008082529073ffffffffffffffffffffffffffffffffffffffff85169063150b7a02906134af908990899088908890600401614378565b6020604051808303816000875af11580156134ce573d6000803e3d6000fd5b505050506040513d601f19601f820116820180604052508101906134f291906143c1565b7fffffffff000000000000000000000000000000000000000000000000000000001614610a8c576040517f08c379a000000000000000000000000000000000000000000000000000000000815260206004820152601e60248201527f4552433732313a2073616665207472616e736665722072656a656374656400006044820152606401610796565b60006135dd826040518060400160405280602081526020017f5361666545524332303a206c6f772d6c6576656c2063616c6c206661696c65648152508573ffffffffffffffffffffffffffffffffffffffff166137bc9092919063ffffffff16565b8051909150156105c257808060200190518101906135fb919061435b565b6105c2576040517f08c379a000000000000000000000000000000000000000000000000000000000815260206004820152602a60248201527f5361666545524332303a204552433230206f7065726174696f6e20646964206e60448201527f6f742073756363656564000000000000000000000000000000000000000000006064820152608401610796565b6060816000036136ca57505060408051808201909152600181527f3000000000000000000000000000000000000000000000000000000000000000602082015290565b8160005b81156136f457806136de816143de565b91506136ed9050600a83614445565b91506136ce565b60008167ffffffffffffffff81111561370f5761370f613f01565b6040519080825280601f01601f191660200182016040528015613739576020820181803683370190505b5090505b84156120c55761374e600183613eee565b915061375b600a86614459565b61376690603061446d565b60f81b81838151811061377b5761377b613e90565b60200101907effffffffffffffffffffffffffffffffffffffffffffffffffffffffffffff1916908160001a9053506137b5600a86614445565b945061373d565b60606120c584846000858573ffffffffffffffffffffffffffffffffffffffff85163b613845576040517f08c379a000000000000000000000000000000000000000000000000000000000815260206004820152601d60248201527f416464726573733a2063616c6c20746f206e6f6e2d636f6e74726163740000006044820152606401610796565b6000808673ffffffffffffffffffffffffffffffffffffffff16858760405161386e9190614480565b60006040518083038185875af1925050503d80600081146138ab576040519150601f19603f3d011682016040523d82523d6000602084013e6138b0565b606091505b50915091506138c08282866138cb565b979650505050505050565b606083156138da57508161098f565b8251156138ea5782518084602001fd5b816040517f08c379a000000000000000000000000000000000000000000000000000000000815260040161079691906139d7565b7fffffffff000000000000000000000000000000000000000000000000000000008116811461092157600080fd5b60006020828403121561395e57600080fd5b813561098f8161391e565b60005b8381101561398457818101518382015260200161396c565b50506000910152565b600081518084526139a5816020860160208601613969565b601f017fffffffffffffffffffffffffffffffffffffffffffffffffffffffffffffffe0169290920160200192915050565b60208152600061098f602083018461398d565b6000602082840312156139fc57600080fd5b5035919050565b73ffffffffffffffffffffffffffffffffffffffff8116811461092157600080fd5b60008060408385031215613a3857600080fd5b8235613a4381613a03565b946020939093013593505050565b600080600060608486031215613a6657600080fd5b8335613a7181613a03565b92506020840135613a8181613a03565b929592945050506040919091013590565b60008060408385031215613aa557600080fd5b823591506020830135613ab781613a03565b809150509250929050565b60008083601f840112613ad457600080fd5b50813567ffffffffffffffff811115613aec57600080fd5b6020830191508360208260051b8501011115613b0757600080fd5b9250929050565b600080600060408486031215613b2357600080fd5b8335613b2e81613a03565b9250602084013567ffffffffffffffff811115613b4a57600080fd5b613b5686828701613ac2565b9497909650939450505050565b600060208284031215613b7557600080fd5b813561098f81613a03565b60008060008060008060608789031215613b9957600080fd5b863567ffffffffffffffff80821115613bb157600080fd5b613bbd8a838b01613ac2565b90985096506020890135915080821115613bd657600080fd5b613be28a838b01613ac2565b90965094506040890135915080821115613bfb57600080fd5b50613c0889828a01613ac2565b979a9699509497509295939492505050565b60008083601f840112613c2c57600080fd5b50813567ffffffffffffffff811115613c4457600080fd5b602083019150836020828501011115613b0757600080fd5b60008060208385031215613c6f57600080fd5b823567ffffffffffffffff811115613c8657600080fd5b613c9285828601613c1a565b90969095509350505050565b60008060008060608587031215613cb457600080fd5b8435613cbf81613a03565b935060208501359250604085013567ffffffffffffffff811115613ce257600080fd5b613cee87828801613c1a565b95989497509550505050565b60008060008060408587031215613d1057600080fd5b843567ffffffffffffffff80821115613d2857600080fd5b613d3488838901613ac2565b90965094506020870135915080821115613d4d57600080fd5b50613cee87828801613ac2565b801515811461092157600080fd5b60008060408385031215613d7b57600080fd5b8235613d8681613a03565b91506020830135613ab781613d5a565b600080600080600060808688031215613dae57600080fd5b8535613db981613a03565b94506020860135613dc981613a03565b935060408601359250606086013567ffffffffffffffff811115613dec57600080fd5b613df888828901613c1a565b969995985093965092949392505050565b60008060408385031215613e1c57600080fd5b8235613e2781613a03565b91506020830135613ab781613a03565b60008060008060608587031215613e4d57600080fd5b8435613e5881613a03565b93506020850135613e6881613a03565b9250604085013567ffffffffffffffff811115613e8457600080fd5b613cee87828801613ac2565b7f4e487b7100000000000000000000000000000000000000000000000000000000600052603260045260246000fd5b7f4e487b7100000000000000000000000000000000000000000000000000000000600052601160045260246000fd5b8181038181111561055157610551613ebf565b7f4e487b7100000000000000000000000000000000000000000000000000000000600052604160045260246000fd5b600181811c90821680613f4457607f821691505b602082108103613f7d577f4e487b7100000000000000000000000000000000000000000000000000000000600052602260045260246000fd5b50919050565b601f8211156105c257600081815260208120601f850160051c81016020861015613faa5750805b601f850160051c820191505b81811015610e1657828155600101613fb6565b815167ffffffffffffffff811115613fe357613fe3613f01565b613ff781613ff18454613f30565b84613f83565b602080601f83116001811461404a57600084156140145750858301515b7fffffffffffffffffffffffffffffffffffffffffffffffffffffffffffffffff600386901b1c1916600185901b178555610e16565b6000858152602081207fffffffffffffffffffffffffffffffffffffffffffffffffffffffffffffffe08616915b8281101561409757888601518255948401946001909101908401614078565b50858210156140d357878501517fffffffffffffffffffffffffffffffffffffffffffffffffffffffffffffffff600388901b60f8161c191681555b5050505050600190811b01905550565b7f416363657373436f6e74726f6c3a206d697373696e672027000000000000000081526000825161411b816018850160208701613969565b7f2720726f6c6500000000000000000000000000000000000000000000000000006018939091019283015250601e01919050565b67ffffffffffffffff83111561416757614167613f01565b61417b836141758354613f30565b83613f83565b6000601f8411600181146141cd57600085156141975750838201355b7fffffffffffffffffffffffffffffffffffffffffffffffffffffffffffffffff600387901b1c1916600186901b178355610a8c565b6000838152602090207fffffffffffffffffffffffffffffffffffffffffffffffffffffffffffffffe0861690835b8281101561421c57868501358255602094850194600190920191016141fc565b5086821015614257577fffffffffffffffffffffffffffffffffffffffffffffffffffffffffffffffff60f88860031b161c19848701351681555b505060018560011b0183555050505050565b60208152816020820152818360408301376000818301604090810191909152601f9092017fffffffffffffffffffffffffffffffffffffffffffffffffffffffffffffffe0160101919050565b60008084546142c481613f30565b600182811680156142dc576001811461430f5761433e565b7fffffffffffffffffffffffffffffffffffffffffffffffffffffffffffffff008416875282151583028701945061433e565b8860005260208060002060005b858110156143355781548a82015290840190820161431c565b50505082870194505b505050508351614352818360208801613969565b01949350505050565b60006020828403121561436d57600080fd5b815161098f81613d5a565b600073ffffffffffffffffffffffffffffffffffffffff8087168352808616602084015250836040830152608060608301526143b7608083018461398d565b9695505050505050565b6000602082840312156143d357600080fd5b815161098f8161391e565b60007fffffffffffffffffffffffffffffffffffffffffffffffffffffffffffffffff820361440f5761440f613ebf565b5060010190565b7f4e487b7100000000000000000000000000000000000000000000000000000000600052601260045260246000fd5b60008261445457614454614416565b500490565b60008261446857614468614416565b500690565b8082018082111561055157610551613ebf565b60008251614492818460208701613969565b919091019291505056fea26469706673582212207286e0cb5cc7d7eb397b487f44c1fced633a658baad18774e8afda307eb9980b64736f6c63430008110033",
  "linkReferences": {},
  "deployedLinkReferences": {}
}