{
  "_format": "hh-sol-artifact-1",
  "contractName": "REVVRacingNFT",
  "sourceName": "contracts/token/ERC721/REVVRacingNFT.sol",
  "abi": [
    {
      "inputs": [
        {
          "internalType": "contract IOperatorFilterRegistry",
          "name": "filterRegistry",
          "type": "address"
        },
        {
          "internalType": "contract IForwarderRegistry",
          "name": "forwarderRegistry",
          "type": "address"
        }
      ],
      "stateMutability": "nonpayable",
      "type": "constructor"
    },
    {
      "inputs": [
        {
          "internalType": "uint256",
          "name": "percentage",
          "type": "uint256"
        }
      ],
      "name": "IncorrectRoyaltyPercentage",
      "type": "error"
    },
    {
      "inputs": [],
      "name": "IncorrectRoyaltyReceiver",
      "type": "error"
    },
    {
      "inputs": [
        {
          "internalType": "address",
          "name": "operator",
          "type": "address"
        }
      ],
      "name": "OperatorNotAllowed",
      "type": "error"
    },
    {
      "anonymous": false,
      "inputs": [
        {
          "indexed": true,
          "internalType": "address",
          "name": "owner",
          "type": "address"
        },
        {
          "indexed": true,
          "internalType": "address",
          "name": "approved",
          "type": "address"
        },
        {
          "indexed": true,
          "internalType": "uint256",
          "name": "tokenId",
          "type": "uint256"
        }
      ],
      "name": "Approval",
      "type": "event"
    },
    {
      "anonymous": false,
      "inputs": [
        {
          "indexed": true,
          "internalType": "address",
          "name": "owner",
          "type": "address"
        },
        {
          "indexed": true,
          "internalType": "address",
          "name": "operator",
          "type": "address"
        },
        {
          "indexed": false,
          "internalType": "bool",
          "name": "approved",
          "type": "bool"
        }
      ],
      "name": "ApprovalForAll",
      "type": "event"
    },
    {
      "anonymous": false,
      "inputs": [
        {
          "indexed": false,
          "internalType": "string",
          "name": "baseMetadataURI",
          "type": "string"
        }
      ],
      "name": "BaseMetadataURISet",
      "type": "event"
    },
    {
      "anonymous": false,
      "inputs": [
        {
          "indexed": true,
          "internalType": "address",
          "name": "previousOwner",
          "type": "address"
        },
        {
          "indexed": true,
          "internalType": "address",
          "name": "newOwner",
          "type": "address"
        }
      ],
      "name": "OwnershipTransferred",
      "type": "event"
    },
    {
      "anonymous": false,
      "inputs": [
        {
          "indexed": false,
          "internalType": "bytes32",
          "name": "role",
          "type": "bytes32"
        },
        {
          "indexed": false,
          "internalType": "address",
          "name": "account",
          "type": "address"
        },
        {
          "indexed": false,
          "internalType": "address",
          "name": "operator",
          "type": "address"
        }
      ],
      "name": "RoleGranted",
      "type": "event"
    },
    {
      "anonymous": false,
      "inputs": [
        {
          "indexed": false,
          "internalType": "bytes32",
          "name": "role",
          "type": "bytes32"
        },
        {
          "indexed": false,
          "internalType": "address",
          "name": "account",
          "type": "address"
        },
        {
          "indexed": false,
          "internalType": "address",
          "name": "operator",
          "type": "address"
        }
      ],
      "name": "RoleRevoked",
      "type": "event"
    },
    {
      "anonymous": false,
      "inputs": [
        {
          "indexed": true,
          "internalType": "address",
          "name": "from",
          "type": "address"
        },
        {
          "indexed": true,
          "internalType": "address",
          "name": "to",
          "type": "address"
        },
        {
          "indexed": true,
          "internalType": "uint256",
          "name": "tokenId",
          "type": "uint256"
        }
      ],
      "name": "Transfer",
      "type": "event"
    },
    {
      "inputs": [],
      "name": "MINTER_ROLE",
      "outputs": [
        {
          "internalType": "bytes32",
          "name": "",
          "type": "bytes32"
        }
      ],
      "stateMutability": "view",
      "type": "function"
    },
    {
      "inputs": [],
      "name": "ROYALTY_FEE_DENOMINATOR",
      "outputs": [
        {
          "internalType": "uint256",
          "name": "",
          "type": "uint256"
        }
      ],
      "stateMutability": "view",
      "type": "function"
    },
    {
      "inputs": [
        {
          "internalType": "address",
          "name": "to",
          "type": "address"
        },
        {
          "internalType": "uint256",
          "name": "tokenId",
          "type": "uint256"
        }
      ],
      "name": "approve",
      "outputs": [],
      "stateMutability": "nonpayable",
      "type": "function"
    },
    {
      "inputs": [
        {
          "internalType": "address",
          "name": "owner",
          "type": "address"
        }
      ],
      "name": "balanceOf",
      "outputs": [
        {
          "internalType": "uint256",
          "name": "balance",
          "type": "uint256"
        }
      ],
      "stateMutability": "view",
      "type": "function"
    },
    {
      "inputs": [],
      "name": "baseMetadataURI",
      "outputs": [
        {
          "internalType": "string",
          "name": "baseURI",
          "type": "string"
        }
      ],
      "stateMutability": "view",
      "type": "function"
    },
    {
      "inputs": [
        {
          "internalType": "address",
          "name": "from",
          "type": "address"
        },
        {
          "internalType": "uint256[]",
          "name": "tokenIds",
          "type": "uint256[]"
        }
      ],
      "name": "batchBurnFrom",
      "outputs": [],
      "stateMutability": "nonpayable",
      "type": "function"
    },
    {
      "inputs": [
        {
          "internalType": "address",
          "name": "to",
          "type": "address"
        },
        {
          "internalType": "uint256[]",
          "name": "tokenIds",
          "type": "uint256[]"
        }
      ],
      "name": "batchMint",
      "outputs": [],
      "stateMutability": "nonpayable",
      "type": "function"
    },
    {
      "inputs": [
        {
          "internalType": "address",
          "name": "from",
          "type": "address"
        },
        {
          "internalType": "address",
          "name": "to",
          "type": "address"
        },
        {
          "internalType": "uint256[]",
          "name": "tokenIds",
          "type": "uint256[]"
        }
      ],
      "name": "batchTransferFrom",
      "outputs": [],
      "stateMutability": "nonpayable",
      "type": "function"
    },
    {
      "inputs": [
        {
          "internalType": "address",
          "name": "from",
          "type": "address"
        },
        {
          "internalType": "uint256",
          "name": "tokenId",
          "type": "uint256"
        }
      ],
      "name": "burnFrom",
      "outputs": [],
      "stateMutability": "nonpayable",
      "type": "function"
    },
    {
      "inputs": [
        {
          "internalType": "address[]",
          "name": "recipients",
          "type": "address[]"
        },
        {
          "internalType": "uint256[]",
          "name": "tokenIds",
          "type": "uint256[]"
        }
      ],
      "name": "deliver",
      "outputs": [],
      "stateMutability": "nonpayable",
      "type": "function"
    },
    {
      "inputs": [],
      "name": "forwarderRegistry",
      "outputs": [
        {
          "internalType": "contract IForwarderRegistry",
          "name": "",
          "type": "address"
        }
      ],
      "stateMutability": "view",
      "type": "function"
    },
    {
      "inputs": [
        {
          "internalType": "uint256",
          "name": "tokenId",
          "type": "uint256"
        }
      ],
      "name": "getApproved",
      "outputs": [
        {
          "internalType": "address",
          "name": "approved",
          "type": "address"
        }
      ],
      "stateMutability": "view",
      "type": "function"
    },
    {
      "inputs": [
        {
          "internalType": "bytes32",
          "name": "role",
          "type": "bytes32"
        },
        {
          "internalType": "address",
          "name": "account",
          "type": "address"
        }
      ],
      "name": "grantRole",
      "outputs": [],
      "stateMutability": "nonpayable",
      "type": "function"
    },
    {
      "inputs": [
        {
          "internalType": "bytes32",
          "name": "role",
          "type": "bytes32"
        },
        {
          "internalType": "address",
          "name": "account",
          "type": "address"
        }
      ],
      "name": "hasRole",
      "outputs": [
        {
          "internalType": "bool",
          "name": "",
          "type": "bool"
        }
      ],
      "stateMutability": "view",
      "type": "function"
    },
    {
      "inputs": [
        {
          "internalType": "address",
          "name": "owner",
          "type": "address"
        },
        {
          "internalType": "address",
          "name": "operator",
          "type": "address"
        }
      ],
      "name": "isApprovedForAll",
      "outputs": [
        {
          "internalType": "bool",
          "name": "approvedForAll",
          "type": "bool"
        }
      ],
      "stateMutability": "view",
      "type": "function"
    },
    {
      "inputs": [
        {
          "internalType": "address",
          "name": "forwarder",
          "type": "address"
        }
      ],
      "name": "isTrustedForwarder",
      "outputs": [
        {
          "internalType": "bool",
          "name": "",
          "type": "bool"
        }
      ],
      "stateMutability": "view",
      "type": "function"
    },
    {
      "inputs": [
        {
          "internalType": "address",
          "name": "to",
          "type": "address"
        },
        {
          "internalType": "uint256",
          "name": "tokenId",
          "type": "uint256"
        }
      ],
      "name": "mint",
      "outputs": [],
      "stateMutability": "nonpayable",
      "type": "function"
    },
    {
      "inputs": [],
      "name": "name",
      "outputs": [
        {
          "internalType": "string",
          "name": "tokenName",
          "type": "string"
        }
      ],
      "stateMutability": "view",
      "type": "function"
    },
    {
      "inputs": [],
      "name": "operatorFilterRegistry",
      "outputs": [
        {
          "internalType": "contract IOperatorFilterRegistry",
          "name": "",
          "type": "address"
        }
      ],
      "stateMutability": "view",
      "type": "function"
    },
    {
      "inputs": [],
      "name": "owner",
      "outputs": [
        {
          "internalType": "address",
          "name": "",
          "type": "address"
        }
      ],
      "stateMutability": "view",
      "type": "function"
    },
    {
      "inputs": [
        {
          "internalType": "uint256",
          "name": "tokenId",
          "type": "uint256"
        }
      ],
      "name": "ownerOf",
      "outputs": [
        {
          "internalType": "address",
          "name": "tokenOwner",
          "type": "address"
        }
      ],
      "stateMutability": "view",
      "type": "function"
    },
    {
      "inputs": [
        {
          "internalType": "address[]",
          "name": "accounts",
          "type": "address[]"
        },
        {
          "internalType": "contract IERC20[]",
          "name": "tokens",
          "type": "address[]"
        },
        {
          "internalType": "uint256[]",
          "name": "amounts",
          "type": "uint256[]"
        }
      ],
      "name": "recoverERC20s",
      "outputs": [],
      "stateMutability": "nonpayable",
      "type": "function"
    },
    {
      "inputs": [
        {
          "internalType": "address[]",
          "name": "accounts",
          "type": "address[]"
        },
        {
          "internalType": "contract IERC721[]",
          "name": "contracts",
          "type": "address[]"
        },
        {
          "internalType": "uint256[]",
          "name": "tokenIds",
          "type": "uint256[]"
        }
      ],
      "name": "recoverERC721s",
      "outputs": [],
      "stateMutability": "nonpayable",
      "type": "function"
    },
    {
      "inputs": [
        {
          "internalType": "address payable[]",
          "name": "accounts",
          "type": "address[]"
        },
        {
          "internalType": "uint256[]",
          "name": "amounts",
          "type": "uint256[]"
        }
      ],
      "name": "recoverETH",
      "outputs": [],
      "stateMutability": "nonpayable",
      "type": "function"
    },
    {
      "inputs": [
        {
          "internalType": "bytes32",
          "name": "role",
          "type": "bytes32"
        }
      ],
      "name": "renounceRole",
      "outputs": [],
      "stateMutability": "nonpayable",
      "type": "function"
    },
    {
      "inputs": [
        {
          "internalType": "bytes32",
          "name": "role",
          "type": "bytes32"
        },
        {
          "internalType": "address",
          "name": "account",
          "type": "address"
        }
      ],
      "name": "revokeRole",
      "outputs": [],
      "stateMutability": "nonpayable",
      "type": "function"
    },
    {
      "inputs": [
        {
          "internalType": "uint256",
          "name": "tokenId",
          "type": "uint256"
        },
        {
          "internalType": "uint256",
          "name": "salePrice",
          "type": "uint256"
        }
      ],
      "name": "royaltyInfo",
      "outputs": [
        {
          "internalType": "address",
          "name": "receiver",
          "type": "address"
        },
        {
          "internalType": "uint256",
          "name": "royaltyAmount",
          "type": "uint256"
        }
      ],
      "stateMutability": "view",
      "type": "function"
    },
    {
      "inputs": [
        {
          "internalType": "address",
          "name": "to",
          "type": "address"
        },
        {
          "internalType": "uint256",
          "name": "tokenId",
          "type": "uint256"
        },
        {
          "internalType": "bytes",
          "name": "data",
          "type": "bytes"
        }
      ],
      "name": "safeMint",
      "outputs": [],
      "stateMutability": "nonpayable",
      "type": "function"
    },
    {
      "inputs": [
        {
          "internalType": "address",
          "name": "from",
          "type": "address"
        },
        {
          "internalType": "address",
          "name": "to",
          "type": "address"
        },
        {
          "internalType": "uint256",
          "name": "tokenId",
          "type": "uint256"
        }
      ],
      "name": "safeTransferFrom",
      "outputs": [],
      "stateMutability": "nonpayable",
      "type": "function"
    },
    {
      "inputs": [
        {
          "internalType": "address",
          "name": "from",
          "type": "address"
        },
        {
          "internalType": "address",
          "name": "to",
          "type": "address"
        },
        {
          "internalType": "uint256",
          "name": "tokenId",
          "type": "uint256"
        },
        {
          "internalType": "bytes",
          "name": "data",
          "type": "bytes"
        }
      ],
      "name": "safeTransferFrom",
      "outputs": [],
      "stateMutability": "nonpayable",
      "type": "function"
    },
    {
      "inputs": [
        {
          "internalType": "address",
          "name": "operator",
          "type": "address"
        },
        {
          "internalType": "bool",
          "name": "approved",
          "type": "bool"
        }
      ],
      "name": "setApprovalForAll",
      "outputs": [],
      "stateMutability": "nonpayable",
      "type": "function"
    },
    {
      "inputs": [
        {
          "internalType": "string",
          "name": "baseURI",
          "type": "string"
        }
      ],
      "name": "setBaseMetadataURI",
      "outputs": [],
      "stateMutability": "nonpayable",
      "type": "function"
    },
    {
      "inputs": [
        {
          "internalType": "uint256",
          "name": "percentage",
          "type": "uint256"
        }
      ],
      "name": "setRoyaltyPercentage",
      "outputs": [],
      "stateMutability": "nonpayable",
      "type": "function"
    },
    {
      "inputs": [
        {
          "internalType": "address",
          "name": "receiver",
          "type": "address"
        }
      ],
      "name": "setRoyaltyReceiver",
      "outputs": [],
      "stateMutability": "nonpayable",
      "type": "function"
    },
    {
      "inputs": [
        {
          "internalType": "bytes4",
          "name": "interfaceId",
          "type": "bytes4"
        }
      ],
      "name": "supportsInterface",
      "outputs": [
        {
          "internalType": "bool",
          "name": "",
          "type": "bool"
        }
      ],
      "stateMutability": "view",
      "type": "function"
    },
    {
      "inputs": [],
      "name": "symbol",
      "outputs": [
        {
          "internalType": "string",
          "name": "tokenSymbol",
          "type": "string"
        }
      ],
      "stateMutability": "view",
      "type": "function"
    },
    {
      "inputs": [
        {
          "internalType": "uint256",
          "name": "tokenId",
          "type": "uint256"
        }
      ],
      "name": "tokenURI",
      "outputs": [
        {
          "internalType": "string",
          "name": "uri",
          "type": "string"
        }
      ],
      "stateMutability": "view",
      "type": "function"
    },
    {
      "inputs": [
        {
          "internalType": "address",
          "name": "from",
          "type": "address"
        },
        {
          "internalType": "address",
          "name": "to",
          "type": "address"
        },
        {
          "internalType": "uint256",
          "name": "tokenId",
          "type": "uint256"
        }
      ],
      "name": "transferFrom",
      "outputs": [],
      "stateMutability": "nonpayable",
      "type": "function"
    },
    {
      "inputs": [
        {
          "internalType": "address",
          "name": "newOwner",
          "type": "address"
        }
      ],
      "name": "transferOwnership",
      "outputs": [],
      "stateMutability": "nonpayable",
      "type": "function"
    },
    {
      "inputs": [
        {
          "internalType": "contract IOperatorFilterRegistry",
          "name": "registry",
          "type": "address"
        }
      ],
      "name": "updateOperatorFilterRegistry",
      "outputs": [],
      "stateMutability": "nonpayable",
      "type": "function"
    }
  ],
  "bytecode": "0x60a06040523480156200001157600080fd5b5060405162004d8d38038062004d8d8339810160408190526200003491620003e6565b80806040518060400160405280600f81526020016e1491559588149858da5b99c8139195608a1b81525060405180604001604052806002815260200161292960f11b81525085336200009781620000906200013360201b60201c565b9062000169565b50620000a2620001e4565b620000cf81620000b1620001fe565b9081546001600160a01b0319166001600160a01b0391909116179055565b50620000da6200022e565b620000f28282620000ea62000246565b919062000276565b50620000ff9050620002b2565b62000109620002ca565b62000113620002e2565b6200011d620002fa565b6001600160a01b031660805250620005b7915050565b6000806200016360017fc9ed16f33ab3a66c84bfd83099ccb2a8845871e2e1c1928f63797152f0fd54cd62000425565b92915050565b6001600160a01b03811615620001c05781546001600160a01b0319166001600160a01b03821690811783556040516000907f8be0079c531659141344cd1fd0a4f28419497f9722a3daafe3b4186f6b6457e0908290a35b620001e06307f5828d60e41b6001620001d86200030d565b91906200033d565b5050565b620001fc6380ac58cd60e01b6001620001d86200030d565b565b6000806200016360017f609b85bcafa81ecfaf3ff62cdde2c6c9082a68dbe4922f07399c706bdeb7cd3162000425565b620001fc63f3993d1160e01b6001620001d86200030d565b6000806200016360017f9c4269c0f9f430d98876ffe9767fbf3f3232ea91a549beb549e5329532520eb362000425565b82620002838382620004eb565b5060018301620002948282620004eb565b50620002ad635b5e139f60e01b6001620001d86200030d565b505050565b620001fc638b8b4ef560e01b6001620001d86200030d565b620001fc638e773e1360e01b6001620001d86200030d565b620001fc634ed2f41960e11b6001620001d86200030d565b620001fc63152a902d60e11b6001620001d85b6000806200016360017fca9d3e17f264b0f3984e2634e94adb37fa3e6a8103f06aeae6fa59e21c769f5e62000425565b600160e01b6001600160e01b03198316016200039f5760405162461bcd60e51b815260206004820152601f60248201527f496e74657266616365446574656374696f6e3a2077726f6e672076616c756500604482015260640160405180910390fd5b6001600160e01b03199190911660009081526020929092526040909120805460ff1916911515919091179055565b6001600160a01b0381168114620003e357600080fd5b50565b60008060408385031215620003fa57600080fd5b82516200040781620003cd565b60208401519092506200041a81620003cd565b809150509250929050565b818103818111156200016357634e487b7160e01b600052601160045260246000fd5b634e487b7160e01b600052604160045260246000fd5b600181811c908216806200047257607f821691505b6020821081036200049357634e487b7160e01b600052602260045260246000fd5b50919050565b601f821115620002ad57600081815260208120601f850160051c81016020861015620004c25750805b601f850160051c820191505b81811015620004e357828155600101620004ce565b505050505050565b81516001600160401b0381111562000507576200050762000447565b6200051f816200051884546200045d565b8462000499565b602080601f8311600181146200055757600084156200053e5750858301515b600019600386901b1c1916600185901b178555620004e3565b600085815260208120601f198616915b82811015620005885788860151825594840194600190910190840162000567565b5085821015620005a75787850151600019600388901b60f8161c191681555b5050505050600190811b01905550565b6080516147a5620005e8600039600081816103be0152818161043e0152818161345c01526134e401526147a56000f3fe608060405234801561001057600080fd5b50600436106102c85760003560e01c80638832e6e31161017b578063c3666c36116100d8578063e985e9c51161008c578063f2fde38b11610071578063f2fde38b14610630578063f3993d1114610643578063f7ba94bd1461065657600080fd5b8063e985e9c51461060a578063f24729651461061d57600080fd5b8063d5391393116100bd578063d5391393146105c6578063d547741f146105ed578063e1a8bf2c1461060057600080fd5b8063c3666c36146105a0578063c87b56dd146105b357600080fd5b806395d89b411161012f578063a22cb46511610114578063a22cb46514610572578063b0ccc31e14610585578063b88d4fde1461058d57600080fd5b806395d89b41146105575780639da5e8321461055f57600080fd5b80638da5cb5b116101605780638da5cb5b146105295780638dc251e31461053157806391d148541461054457600080fd5b80638832e6e3146105035780638bb9c5bf1461051657600080fd5b806342842e0e116102295780636352211e116101dd57806373c8a958116101c257806373c8a958146104ca57806379cc6790146104dd5780637e518ec8146104f057600080fd5b80636352211e1461049657806370a08231146104a957600080fd5b8063572b6c051161020e578063572b6c051461042e5780635b2bd79e1461047b57806361ba27da1461048357600080fd5b806342842e0e146104085780634684d7e91461041b57600080fd5b806323b872dd116102805780632b4c9f16116102655780632b4c9f16146103bc5780632f2ff15d146103e257806340c10f19146103f557600080fd5b806323b872dd1461036a5780632a55205a1461037d57600080fd5b8063081812fc116102b1578063081812fc1461030a578063095ea7b314610342578063114ba8ee1461035757600080fd5b806301ffc9a7146102cd57806306fdde03146102f5575b600080fd5b6102e06102db366004613d6e565b610669565b60405190151581526020015b60405180910390f35b6102fd610683565b6040516102ec9190613df9565b61031d610318366004613e0c565b61069a565b60405173ffffffffffffffffffffffffffffffffffffffff90911681526020016102ec565b610355610350366004613e47565b6106ae565b005b610355610365366004613e73565b6106fd565b610355610378366004613e90565b610768565b61039061038b366004613ed1565b6107a6565b6040805173ffffffffffffffffffffffffffffffffffffffff90931683526020830191909152016102ec565b7f000000000000000000000000000000000000000000000000000000000000000061031d565b6103556103f0366004613ef3565b6107c9565b610355610403366004613e47565b6107fc565b610355610416366004613e90565b61084b565b610355610429366004613f68565b61087c565b6102e061043c366004613e73565b7f000000000000000000000000000000000000000000000000000000000000000073ffffffffffffffffffffffffffffffffffffffff90811691161490565b6102fd6108f0565b610355610491366004613e0c565b6108fd565b61031d6104a4366004613e0c565b61091a565b6104bc6104b7366004613e73565b61092e565b6040519081526020016102ec565b6103556104d8366004613fbd565b610942565b6103556104eb366004613e47565b610a6a565b6103556104fe366004614099565b610a87565b6103556105113660046140db565b610aa6565b610355610524366004613e0c565b610b28565b61031d610b43565b61035561053f366004613e73565b610b6a565b6102e0610552366004613ef3565b610b87565b6102fd610bd2565b61035561056d366004614137565b610be4565b6103556105803660046141a5565b610c88565b61031d610cb7565b61035561059b3660046141d3565b610cc4565b6103556105ae366004613fbd565b610d01565b6102fd6105c1366004613e0c565b610ea6565b6104bc7f6d696e746572000000000000000000000000000000000000000000000000000081565b6103556105fb366004613ef3565b610ec7565b6104bc620186a081565b6102e0610618366004614246565b610ef5565b61035561062b366004613f68565b610f43565b61035561063e366004613e73565b610f62565b610355610651366004614274565b610f7d565b610355610664366004614137565b610fb7565b600061067d8261067761109d565b906110cb565b92915050565b60606106956106906111a5565b6111d3565b905090565b600061067d826106a8611269565b90611297565b73ffffffffffffffffffffffffffffffffffffffff8216156106dc576106dc826106d6611378565b906113a6565b6106f96106e76113b0565b83836106f1611269565b9291906113ba565b5050565b6107166107086113b0565b610710611683565b906116b1565b61076581610722611378565b9081547fffffffffffffffffffffffff00000000000000000000000000000000000000001673ffffffffffffffffffffffffffffffffffffffff91909116179055565b50565b60006107726113b0565b90506107888185610781611378565b9190611776565b6107a081858585610797611269565b939291906117b3565b50505050565b6000806107bd84846107b6611b08565b9190611b36565b915091505b9250929050565b60006107d36113b0565b90506107e181610710611683565b6107f78383836107ef611be0565b929190611c0e565b505050565b6108377f6d696e74657200000000000000000000000000000000000000000000000000006108286113b0565b610830611be0565b9190611ce4565b6106f98282610844611269565b9190611d90565b60006108556113b0565b90506108648185610781611378565b6107a081858585610873611269565b93929190611f07565b6108a87f6d696e74657200000000000000000000000000000000000000000000000000006108286113b0565b6107f7838383808060200260200160405190810160405280939291908181526020018383602002808284376000920191909152506108e99250611269915050565b9190611f4d565b6060610695610690612121565b6109086107086113b0565b61076581610914611b08565b9061214f565b600061067d82610928611269565b906121d5565b600061067d8261093c611269565b9061226b565b61094d6107086113b0565b84838114801561095c57508082145b6109c7576040517f08c379a000000000000000000000000000000000000000000000000000000000815260206004820152601d60248201527f5265636f766572793a20696e636f6e73697374656e742061727261797300000060448201526064015b60405180910390fd5b60005b818114610a6057610a588888838181106109e6576109e66142cd565b90506020020160208101906109fb9190613e73565b858584818110610a0d57610a0d6142cd565b90506020020135888885818110610a2657610a266142cd565b9050602002016020810190610a3b9190613e73565b73ffffffffffffffffffffffffffffffffffffffff169190612317565b6001016109ca565b5050505050505050565b6106f9610a756113b0565b8383610a7f611269565b9291906123a4565b610a926107086113b0565b6106f98282610a9f612121565b91906125b8565b610ad27f6d696e74657200000000000000000000000000000000000000000000000000006108286113b0565b6107a0610add6113b0565b858585858080601f016020809104026020016040519081016040528093929190818152602001838380828437600092019190915250610b1f9250611269915050565b93929190612603565b610765610b336113b0565b82610b3c611be0565b9190612639565b6000610695610b50611683565b5473ffffffffffffffffffffffffffffffffffffffff1690565b610b756107086113b0565b61076581610b81611b08565b906126d5565b6000610bcb8383610b96611be0565b60009283526020908152604080842073ffffffffffffffffffffffffffffffffffffffff909316845291905290205460ff1690565b9392505050565b6060610695610bdf6111a5565b612722565b610c107f6d696e74657200000000000000000000000000000000000000000000000000006108286113b0565b6107a084848080602002602001604051908101604052809392919081815260200183836020028082843760009201919091525050604080516020808802828101820190935287825290935087925086918291850190849080828437600092019190915250610c819250611269915050565b9190612733565b8015610c9a57610c9a826106d6611378565b6106f9610ca56113b0565b8383610caf611269565b9291906127f8565b6000610695610b50611378565b6000610cce6113b0565b9050610cdd8187610781611378565b610cf9818787878787610cee611269565b959493929190612928565b505050505050565b610d0c6107086113b0565b848381148015610d1b57508082145b610d81576040517f08c379a000000000000000000000000000000000000000000000000000000000815260206004820152601d60248201527f5265636f766572793a20696e636f6e73697374656e742061727261797300000060448201526064016109be565b60005b818114610a6057858582818110610d9d57610d9d6142cd565b9050602002016020810190610db29190613e73565b73ffffffffffffffffffffffffffffffffffffffff166323b872dd308a8a85818110610de057610de06142cd565b9050602002016020810190610df59190613e73565b878786818110610e0757610e076142cd565b6040517fffffffff0000000000000000000000000000000000000000000000000000000060e088901b16815273ffffffffffffffffffffffffffffffffffffffff958616600482015294909316602485015250602090910201356044820152606401600060405180830381600087803b158015610e8357600080fd5b505af1158015610e97573d6000803e3d6000fd5b50505050806001019050610d84565b6060610eb482610928611269565b5061067d82610ec1612121565b9061299e565b6000610ed16113b0565b9050610edf81610710611683565b6107f7838383610eed611be0565b9291906129d2565b6000610bcb8383610f04611269565b919073ffffffffffffffffffffffffffffffffffffffff9182166000908152600393909301602090815260408085209290931684525290205460ff1690565b6107f7610f4e6113b0565b848484610f59611269565b93929190612a9c565b610765610f6d6113b0565b82610f76611683565b9190612cf1565b6000610f876113b0565b9050610f968186610781611378565b610fb08186868686610fa6611269565b9493929190612e1d565b5050505050565b610fc26107086113b0565b8281811461102c576040517f08c379a000000000000000000000000000000000000000000000000000000000815260206004820152601d60248201527f5265636f766572793a20696e636f6e73697374656e742061727261797300000060448201526064016109be565b60005b818114610cf95761109584848381811061104b5761104b6142cd565b90506020020135878784818110611064576110646142cd565b90506020020160208101906110799190613e73565b73ffffffffffffffffffffffffffffffffffffffff1690613198565b60010161102f565b60008061067d60017fca9d3e17f264b0f3984e2634e94adb37fa3e6a8103f06aeae6fa59e21c769f5e61432b565b60007c01000000000000000000000000000000000000000000000000000000007fffffffff0000000000000000000000000000000000000000000000000000000083160161111b5750600061067d565b7ffe003659000000000000000000000000000000000000000000000000000000007fffffffff0000000000000000000000000000000000000000000000000000000083160161116c5750600161067d565b507fffffffff00000000000000000000000000000000000000000000000000000000166000908152602091909152604090205460ff1690565b60008061067d60017f9c4269c0f9f430d98876ffe9767fbf3f3232ea91a549beb549e5329532520eb361432b565b60608160000180546111e49061433e565b80601f01602080910402602001604051908101604052809291908181526020018280546112109061433e565b801561125d5780601f106112325761010080835404028352916020019161125d565b820191906000526020600020905b81548152906001019060200180831161124057829003601f168201915b50505050509050919050565b60008061067d60017fddf3ee18ae6d688373c219468f8be446e7ae82215f4779d821c7ea5e8c13c0c161432b565b60008181526020839052604081205473ffffffffffffffffffffffffffffffffffffffff8116611323576040517f08c379a000000000000000000000000000000000000000000000000000000000815260206004820152601a60248201527f4552433732313a206e6f6e2d6578697374696e6720746f6b656e00000000000060448201526064016109be565b7401000000000000000000000000000000000000000081161561136e575050600081815260028301602052604090205473ffffffffffffffffffffffffffffffffffffffff1661067d565b600091505061067d565b60008061067d60017f609b85bcafa81ecfaf3ff62cdde2c6c9082a68dbe4922f07399c706bdeb7cd3161432b565b6106f982826132f2565b6000610695613419565b60008181526020859052604090205473ffffffffffffffffffffffffffffffffffffffff8116611446576040517f08c379a000000000000000000000000000000000000000000000000000000000815260206004820152601a60248201527f4552433732313a206e6f6e2d6578697374696e6720746f6b656e00000000000060448201526064016109be565b8073ffffffffffffffffffffffffffffffffffffffff808216908516036114c9576040517f08c379a000000000000000000000000000000000000000000000000000000000815260206004820152601560248201527f4552433732313a2073656c662d617070726f76616c000000000000000000000060448201526064016109be565b6114d4868287613560565b61153a576040517f08c379a000000000000000000000000000000000000000000000000000000000815260206004820152601b60248201527f4552433732313a206e6f6e2d617070726f7665642073656e646572000000000060448201526064016109be565b73ffffffffffffffffffffffffffffffffffffffff841661159f577401000000000000000000000000000000000000000082161561159a57600083815260208790526040902073ffffffffffffffffffffffffffffffffffffffff821690555b611620565b7401000000000000000000000000000000000000000082178083146115d05760008481526020889052604090208190555b506000838152600287016020526040902080547fffffffffffffffffffffffff00000000000000000000000000000000000000001673ffffffffffffffffffffffffffffffffffffffff86161790555b828473ffffffffffffffffffffffffffffffffffffffff168273ffffffffffffffffffffffffffffffffffffffff167f8c5be1e5ebec7d5bd14f71427d1e84f3dd0314c0f7b2291e5b200ac8c7c3b92560405160405180910390a4505050505050565b60008061067d60017fc9ed16f33ab3a66c84bfd83099ccb2a8845871e2e1c1928f63797152f0fd54cd61432b565b815473ffffffffffffffffffffffffffffffffffffffff8281169116146106f9576040517f08c379a000000000000000000000000000000000000000000000000000000000815260206004820152601860248201527f4f776e6572736869703a206e6f7420746865206f776e6572000000000000000060448201526064016109be565b81547fffffffffffffffffffffffff00000000000000000000000000000000000000001673ffffffffffffffffffffffffffffffffffffffff91909116179055565b8073ffffffffffffffffffffffffffffffffffffffff168273ffffffffffffffffffffffffffffffffffffffff16146107f7576107f783836132f2565b73ffffffffffffffffffffffffffffffffffffffff8216611830576040517f08c379a000000000000000000000000000000000000000000000000000000000815260206004820152601e60248201527f4552433732313a207472616e7366657220746f2061646472657373283029000060448201526064016109be565b60008181526020869052604090205473ffffffffffffffffffffffffffffffffffffffff81166118bc576040517f08c379a000000000000000000000000000000000000000000000000000000000815260206004820152601a60248201527f4552433732313a206e6f6e2d6578697374696e6720746f6b656e00000000000060448201526064016109be565b73ffffffffffffffffffffffffffffffffffffffff84168173ffffffffffffffffffffffffffffffffffffffff1614611951576040517f08c379a000000000000000000000000000000000000000000000000000000000815260206004820152601760248201527f4552433732313a206e6f6e2d6f776e656420746f6b656e00000000000000000060448201526064016109be565b61195c868587613560565b611a1457740100000000000000000000000000000000000000008116151580156119ae5750600082815260028701602052604090205473ffffffffffffffffffffffffffffffffffffffff8681169116145b611a14576040517f08c379a000000000000000000000000000000000000000000000000000000000815260206004820152601b60248201527f4552433732313a206e6f6e2d617070726f7665642073656e646572000000000060448201526064016109be565b600082815260208790526040902073ffffffffffffffffffffffffffffffffffffffff80851691829055851614611aa55773ffffffffffffffffffffffffffffffffffffffff80851660009081526001808901602052604080832080547fffffffffffffffffffffffffffffffffffffffffffffffffffffffffffffffff0190559286168252919020805490910190555b818373ffffffffffffffffffffffffffffffffffffffff168573ffffffffffffffffffffffffffffffffffffffff167fddf252ad1be2c89b69c2b068fc378daa952ba7f163c4a11628f55a4df523b3ef60405160405180910390a4505050505050565b60008061067d60017f2c0cf10337caabbd02dcf226f05f5fd19a0919a41a8df8958c39b8000782685861432b565b825473ffffffffffffffffffffffffffffffffffffffff8116906000907401000000000000000000000000000000000000000090046bffffffffffffffffffffffff16831580611b84575080155b15611b925760009150611bd7565b620186a0841015611bbc57620186a0611bab8286614391565b611bb591906143a8565b9150611bd7565b80611bca620186a0866143a8565b611bd49190614391565b91505b50935093915050565b60008061067d60017fc8827d3282af6f37b64c3e9e6f3ac9df286ab0bb0fccd6f8661bf19adb368b2361432b565b60008381526020858152604080832073ffffffffffffffffffffffffffffffffffffffff8616845290915290205460ff166107a05760008381526020858152604080832073ffffffffffffffffffffffffffffffffffffffff8681168086529184529382902080547fffffffffffffffffffffffffffffffffffffffffffffffffffffffffffffff00166001179055815187815292830152918316918101919091527f2f8788117e7eff1d82e926ec794901d17c78024a50270940304540a733656f0d906060015b60405180910390a150505050565b60008281526020848152604080832073ffffffffffffffffffffffffffffffffffffffff8516845290915290205460ff166107f757611d22826135d5565b604051602001611d3291906143e3565b604080517fffffffffffffffffffffffffffffffffffffffffffffffffffffffffffffffe0818403018152908290527f08c379a00000000000000000000000000000000000000000000000000000000082526109be91600401613df9565b73ffffffffffffffffffffffffffffffffffffffff8216611e0d576040517f08c379a000000000000000000000000000000000000000000000000000000000815260206004820152601a60248201527f4552433732313a206d696e7420746f206164647265737328302900000000000060448201526064016109be565b60008181526020849052604090205473ffffffffffffffffffffffffffffffffffffffff1615611e99576040517f08c379a000000000000000000000000000000000000000000000000000000000815260206004820152601660248201527f4552433732313a206578697374696e6720746f6b656e0000000000000000000060448201526064016109be565b60008181526020848152604080832073ffffffffffffffffffffffffffffffffffffffff86169081905580845260018088019093528184208054909301909255518392907fddf252ad1be2c89b69c2b068fc378daa952ba7f163c4a11628f55a4df523b3ef908290a4505050565b611f1485858585856117b3565b73ffffffffffffffffffffffffffffffffffffffff82163b15610fb057610fb08484848460405180602001604052806000815250613767565b73ffffffffffffffffffffffffffffffffffffffff8216611fca576040517f08c379a000000000000000000000000000000000000000000000000000000000815260206004820152601a60248201527f4552433732313a206d696e7420746f206164647265737328302900000000000060448201526064016109be565b805160005b8181146120ec576000838281518110611fea57611fea6142cd565b602002602001015190506120288660000160008381526020019081526020016000205473ffffffffffffffffffffffffffffffffffffffff16151590565b1561208f576040517f08c379a000000000000000000000000000000000000000000000000000000000815260206004820152601660248201527f4552433732313a206578697374696e6720746f6b656e0000000000000000000060448201526064016109be565b60008181526020879052604080822073ffffffffffffffffffffffffffffffffffffffff88169081905590518392907fddf252ad1be2c89b69c2b068fc378daa952ba7f163c4a11628f55a4df523b3ef908290a450600101611fcf565b5073ffffffffffffffffffffffffffffffffffffffff9092166000908152600190930160205250604090912080549091019055565b60008061067d60017fe94434e3c6b941c5d90218142fadcc69cb2e13723993540bfa1c131dd1d3475a61432b565b620186a081111561218f576040517f3affc6c4000000000000000000000000000000000000000000000000000000008152600481018290526024016109be565b81546bffffffffffffffffffffffff909116740100000000000000000000000000000000000000000273ffffffffffffffffffffffffffffffffffffffff909116179055565b60008181526020839052604081205473ffffffffffffffffffffffffffffffffffffffff8116612261576040517f08c379a000000000000000000000000000000000000000000000000000000000815260206004820152601a60248201527f4552433732313a206e6f6e2d6578697374696e6720746f6b656e00000000000060448201526064016109be565b805b949350505050565b600073ffffffffffffffffffffffffffffffffffffffff82166122ea576040517f08c379a000000000000000000000000000000000000000000000000000000000815260206004820152601d60248201527f4552433732313a2062616c616e6365206f66206164647265737328302900000060448201526064016109be565b5073ffffffffffffffffffffffffffffffffffffffff166000908152600191909101602052604090205490565b6040805173ffffffffffffffffffffffffffffffffffffffff8416602482015260448082018490528251808303909101815260649091019091526020810180517bffffffffffffffffffffffffffffffffffffffffffffffffffffffff167fa9059cbb000000000000000000000000000000000000000000000000000000001790526107f790849061388d565b6000818152602085905260409020548073ffffffffffffffffffffffffffffffffffffffff168373ffffffffffffffffffffffffffffffffffffffff1614612448576040517f08c379a000000000000000000000000000000000000000000000000000000000815260206004820152601760248201527f4552433732313a206e6f6e2d6f776e656420746f6b656e00000000000000000060448201526064016109be565b612453858486613560565b61250b57740100000000000000000000000000000000000000008116151580156124a55750600082815260028601602052604090205473ffffffffffffffffffffffffffffffffffffffff8581169116145b61250b576040517f08c379a000000000000000000000000000000000000000000000000000000000815260206004820152601b60248201527f4552433732313a206e6f6e2d617070726f7665642073656e646572000000000060448201526064016109be565b6000828152602086815260408083207fdead000000000000000000000000000000000000000000000000000000000000905573ffffffffffffffffffffffffffffffffffffffff86168084526001890190925280832080547fffffffffffffffffffffffffffffffffffffffffffffffffffffffffffffffff01905551849291907fddf252ad1be2c89b69c2b068fc378daa952ba7f163c4a11628f55a4df523b3ef908390a45050505050565b826125c48284836144c4565b507f04b1dc5c136a3ce9fded8db0ce3d3366c58764ec3a8e4c2b9e52e4ddfe5ebbf782826040516125f69291906145de565b60405180910390a1505050565b61260e858484611d90565b73ffffffffffffffffffffffffffffffffffffffff83163b15610fb057610fb0846000858585613767565b612644838284611ce4565b60008181526020848152604080832073ffffffffffffffffffffffffffffffffffffffff86168085529083529281902080547fffffffffffffffffffffffffffffffffffffffffffffffffffffffffffffff0016905580518481529182018390528101919091527ff6391f5c32d9c69d2a47ea670b442974b53935d1edc7fd64eb21e047a839171b906060016125f6565b73ffffffffffffffffffffffffffffffffffffffff8116611734576040517f6fe1b4c800000000000000000000000000000000000000000000000000000000815260040160405180910390fd5b60608160010180546111e49061433e565b81518151811461279f576040517f08c379a000000000000000000000000000000000000000000000000000000000815260206004820152601b60248201527f4552433732313a20696e636f6e73697374656e7420617272617973000000000060448201526064016109be565b60005b818114610fb0576127f08482815181106127be576127be6142cd565b60200260200101518483815181106127d8576127d86142cd565b602002602001015187611d909092919063ffffffff16565b6001016127a2565b8273ffffffffffffffffffffffffffffffffffffffff168273ffffffffffffffffffffffffffffffffffffffff160361288d576040517f08c379a000000000000000000000000000000000000000000000000000000000815260206004820152601d60248201527f4552433732313a2073656c662d617070726f76616c20666f7220616c6c00000060448201526064016109be565b73ffffffffffffffffffffffffffffffffffffffff838116600081815260038701602090815260408083209487168084529482529182902080547fffffffffffffffffffffffffffffffffffffffffffffffffffffffffffffff001686151590811790915591519182527f17307eab39ab6107e8899845ad3d59bd9653f200f220920489ca2b5937696c31910160405180910390a350505050565b61293587878787876117b3565b73ffffffffffffffffffffffffffffffffffffffff84163b15612995576129958686868686868080601f01602080910402602001604051908101604052809392919081815260200183838082843760009201919091525061376792505050565b50505050505050565b6060826129aa83613999565b6040516020016129bb92919061462b565b604051602081830303815290604052905092915050565b60008381526020858152604080832073ffffffffffffffffffffffffffffffffffffffff8616845290915290205460ff16156107a05760008381526020858152604080832073ffffffffffffffffffffffffffffffffffffffff8681168086529184529382902080547fffffffffffffffffffffffffffffffffffffffffffffffffffffffffffffff00169055815187815292830152918316918101919091527ff6391f5c32d9c69d2a47ea670b442974b53935d1edc7fd64eb21e047a839171b90606001611cd6565b6000612aa9868587613560565b90508160005b818114612cb3576000858583818110612aca57612aca6142cd565b602090810292909201356000818152928c905260409092205491925081905073ffffffffffffffffffffffffffffffffffffffff168873ffffffffffffffffffffffffffffffffffffffff1614612b7d576040517f08c379a000000000000000000000000000000000000000000000000000000000815260206004820152601760248201527f4552433732313a206e6f6e2d6f776e656420746f6b656e00000000000000000060448201526064016109be565b84612c365774010000000000000000000000000000000000000000811615158015612bd05750600082815260028b01602052604090205473ffffffffffffffffffffffffffffffffffffffff8a81169116145b612c36576040517f08c379a000000000000000000000000000000000000000000000000000000000815260206004820152601b60248201527f4552433732313a206e6f6e2d617070726f7665642073656e646572000000000060448201526064016109be565b600082815260208b905260408082207fdead00000000000000000000000000000000000000000000000000000000000090555183919073ffffffffffffffffffffffffffffffffffffffff8b16907fddf252ad1be2c89b69c2b068fc378daa952ba7f163c4a11628f55a4df523b3ef908390a45050600101612aaf565b5080156129955773ffffffffffffffffffffffffffffffffffffffff8516600090815260018801602052604090208054829003905550505050505050565b825473ffffffffffffffffffffffffffffffffffffffff9081169083168114612d76576040517f08c379a000000000000000000000000000000000000000000000000000000000815260206004820152601860248201527f4f776e6572736869703a206e6f7420746865206f776e6572000000000000000060448201526064016109be565b8173ffffffffffffffffffffffffffffffffffffffff168173ffffffffffffffffffffffffffffffffffffffff16146107a05783547fffffffffffffffffffffffff00000000000000000000000000000000000000001673ffffffffffffffffffffffffffffffffffffffff8381169182178655604051908316907f8be0079c531659141344cd1fd0a4f28419497f9722a3daafe3b4186f6b6457e090600090a350505050565b73ffffffffffffffffffffffffffffffffffffffff8316612e9a576040517f08c379a000000000000000000000000000000000000000000000000000000000815260206004820152601e60248201527f4552433732313a207472616e7366657220746f2061646472657373283029000060448201526064016109be565b6000612ea7878688613560565b90508160005b818114613111576000858583818110612ec857612ec86142cd565b602090810292909201356000818152928d90526040909220549192505073ffffffffffffffffffffffffffffffffffffffff8116612f62576040517f08c379a000000000000000000000000000000000000000000000000000000000815260206004820152601a60248201527f4552433732313a206e6f6e2d6578697374696e6720746f6b656e00000000000060448201526064016109be565b73ffffffffffffffffffffffffffffffffffffffff89168173ffffffffffffffffffffffffffffffffffffffff1614612ff7576040517f08c379a000000000000000000000000000000000000000000000000000000000815260206004820152601760248201527f4552433732313a206e6f6e2d6f776e656420746f6b656e00000000000000000060448201526064016109be565b846130b0577401000000000000000000000000000000000000000081161515801561304a5750600082815260028c01602052604090205473ffffffffffffffffffffffffffffffffffffffff8b81169116145b6130b0576040517f08c379a000000000000000000000000000000000000000000000000000000000815260206004820152601b60248201527f4552433732313a206e6f6e2d617070726f7665642073656e646572000000000060448201526064016109be565b600082815260208c9052604080822073ffffffffffffffffffffffffffffffffffffffff808c16918290559151859391928d16917fddf252ad1be2c89b69c2b068fc378daa952ba7f163c4a11628f55a4df523b3ef91a45050600101612ead565b508473ffffffffffffffffffffffffffffffffffffffff168673ffffffffffffffffffffffffffffffffffffffff161415801561314d57508015155b15610a605773ffffffffffffffffffffffffffffffffffffffff808716600090815260018a016020526040808220805485900390559187168152208054820190555050505050505050565b80471015613202576040517f08c379a000000000000000000000000000000000000000000000000000000000815260206004820152601d60248201527f416464726573733a20696e73756666696369656e742062616c616e636500000060448201526064016109be565b60008273ffffffffffffffffffffffffffffffffffffffff168260405160006040518083038185875af1925050503d806000811461325c576040519150601f19603f3d011682016040523d82523d6000602084013e613261565b606091505b50509050806107f7576040517f08c379a000000000000000000000000000000000000000000000000000000000815260206004820152603a60248201527f416464726573733a20756e61626c6520746f2073656e642076616c75652c207260448201527f6563697069656e74206d6179206861766520726576657274656400000000000060648201526084016109be565b815473ffffffffffffffffffffffffffffffffffffffff168015801590613330575060008173ffffffffffffffffffffffffffffffffffffffff163b115b156107f7576040517fc617113400000000000000000000000000000000000000000000000000000000815230600482015273ffffffffffffffffffffffffffffffffffffffff838116602483015282169063c617113490604401602060405180830381865afa1580156133a7573d6000803e3d6000fd5b505050506040513d601f19601f820116820180604052508101906133cb91906146d0565b6107f7576040517fede71dcc00000000000000000000000000000000000000000000000000000000815273ffffffffffffffffffffffffffffffffffffffff831660048201526024016109be565b6000333214806134295750601836105b1561343357503390565b7fffffffffffffffffffffffffffffffffffffffffffffffffffffffffffffffec36013560601c7f000000000000000000000000000000000000000000000000000000000000000073ffffffffffffffffffffffffffffffffffffffff1633148061354f57506040517f8929a8ca00000000000000000000000000000000000000000000000000000000815273ffffffffffffffffffffffffffffffffffffffff82811660048301523360248301527f00000000000000000000000000000000000000000000000000000000000000001690638929a8ca90604401602060405180830381865afa15801561352b573d6000803e3d6000fd5b505050506040513d601f19601f8201168201806040525081019061354f91906146d0565b1561355957919050565b3391505090565b60008173ffffffffffffffffffffffffffffffffffffffff168373ffffffffffffffffffffffffffffffffffffffff16148061226357505073ffffffffffffffffffffffffffffffffffffffff9182166000908152600393909301602090815260408085209290931684525290205460ff1690565b606060008290036135f457505060408051602081019091526000815290565b60008260405160200161360991815260200190565b604080517fffffffffffffffffffffffffffffffffffffffffffffffffffffffffffffffe08184030181529190529050601f5b81818151811061364e5761364e6142cd565b01602001517fff00000000000000000000000000000000000000000000000000000000000000166000036136a3577fffffffffffffffffffffffffffffffffffffffffffffffffffffffffffffffff0161363c565b60008160010167ffffffffffffffff8111156136c1576136c161444f565b6040519080825280601f01601f1916602001820160405280156136eb576020820181803683370190505b50905060005b82811161375e5783818151811061370a5761370a6142cd565b602001015160f81c60f81b828281518110613727576137276142cd565b60200101907effffffffffffffffffffffffffffffffffffffffffffffffffffffffffffff1916908160001a9053506001016136f1565b50949350505050565b6040517f150b7a02000000000000000000000000000000000000000000000000000000008082529073ffffffffffffffffffffffffffffffffffffffff85169063150b7a02906137c19089908990889088906004016146ed565b6020604051808303816000875af11580156137e0573d6000803e3d6000fd5b505050506040513d601f19601f820116820180604052508101906138049190614736565b7fffffffff000000000000000000000000000000000000000000000000000000001614610fb0576040517f08c379a000000000000000000000000000000000000000000000000000000000815260206004820152601e60248201527f4552433732313a2073616665207472616e736665722072656a6563746564000060448201526064016109be565b60006138ef826040518060400160405280602081526020017f5361666545524332303a206c6f772d6c6576656c2063616c6c206661696c65648152508573ffffffffffffffffffffffffffffffffffffffff16613a579092919063ffffffff16565b8051909150156107f7578080602001905181019061390d91906146d0565b6107f7576040517f08c379a000000000000000000000000000000000000000000000000000000000815260206004820152602a60248201527f5361666545524332303a204552433230206f7065726174696f6e20646964206e60448201527f6f7420737563636565640000000000000000000000000000000000000000000060648201526084016109be565b606060006139a683613a66565b600101905060008167ffffffffffffffff8111156139c6576139c661444f565b6040519080825280601f01601f1916602001820160405280156139f0576020820181803683370190505b5090508181016020015b7fffffffffffffffffffffffffffffffffffffffffffffffffffffffffffffffff017f3031323334353637383961626364656600000000000000000000000000000000600a86061a8153600a85049450846139fa57509392505050565b60606122638484600085613b48565b6000807a184f03e93ff9f4daa797ed6e38ed64bf6a1f0100000000000000008310613aaf577a184f03e93ff9f4daa797ed6e38ed64bf6a1f010000000000000000830492506040015b6d04ee2d6d415b85acef81000000008310613adb576d04ee2d6d415b85acef8100000000830492506020015b662386f26fc100008310613af957662386f26fc10000830492506010015b6305f5e1008310613b11576305f5e100830492506008015b6127108310613b2557612710830492506004015b60648310613b37576064830492506002015b600a831061067d5760010192915050565b606082471015613bda576040517f08c379a000000000000000000000000000000000000000000000000000000000815260206004820152602660248201527f416464726573733a20696e73756666696369656e742062616c616e636520666f60448201527f722063616c6c000000000000000000000000000000000000000000000000000060648201526084016109be565b6000808673ffffffffffffffffffffffffffffffffffffffff168587604051613c039190614753565b60006040518083038185875af1925050503d8060008114613c40576040519150601f19603f3d011682016040523d82523d6000602084013e613c45565b606091505b5091509150613c5687838387613c61565b979650505050505050565b60608315613cf7578251600003613cf05773ffffffffffffffffffffffffffffffffffffffff85163b613cf0576040517f08c379a000000000000000000000000000000000000000000000000000000000815260206004820152601d60248201527f416464726573733a2063616c6c20746f206e6f6e2d636f6e747261637400000060448201526064016109be565b5081612263565b6122638383815115613d0c5781518083602001fd5b806040517f08c379a00000000000000000000000000000000000000000000000000000000081526004016109be9190613df9565b7fffffffff000000000000000000000000000000000000000000000000000000008116811461076557600080fd5b600060208284031215613d8057600080fd5b8135610bcb81613d40565b60005b83811015613da6578181015183820152602001613d8e565b50506000910152565b60008151808452613dc7816020860160208601613d8b565b601f017fffffffffffffffffffffffffffffffffffffffffffffffffffffffffffffffe0169290920160200192915050565b602081526000610bcb6020830184613daf565b600060208284031215613e1e57600080fd5b5035919050565b73ffffffffffffffffffffffffffffffffffffffff8116811461076557600080fd5b60008060408385031215613e5a57600080fd5b8235613e6581613e25565b946020939093013593505050565b600060208284031215613e8557600080fd5b8135610bcb81613e25565b600080600060608486031215613ea557600080fd5b8335613eb081613e25565b92506020840135613ec081613e25565b929592945050506040919091013590565b60008060408385031215613ee457600080fd5b50508035926020909101359150565b60008060408385031215613f0657600080fd5b823591506020830135613f1881613e25565b809150509250929050565b60008083601f840112613f3557600080fd5b50813567ffffffffffffffff811115613f4d57600080fd5b6020830191508360208260051b85010111156107c257600080fd5b600080600060408486031215613f7d57600080fd5b8335613f8881613e25565b9250602084013567ffffffffffffffff811115613fa457600080fd5b613fb086828701613f23565b9497909650939450505050565b60008060008060008060608789031215613fd657600080fd5b863567ffffffffffffffff80821115613fee57600080fd5b613ffa8a838b01613f23565b9098509650602089013591508082111561401357600080fd5b61401f8a838b01613f23565b9096509450604089013591508082111561403857600080fd5b5061404589828a01613f23565b979a9699509497509295939492505050565b60008083601f84011261406957600080fd5b50813567ffffffffffffffff81111561408157600080fd5b6020830191508360208285010111156107c257600080fd5b600080602083850312156140ac57600080fd5b823567ffffffffffffffff8111156140c357600080fd5b6140cf85828601614057565b90969095509350505050565b600080600080606085870312156140f157600080fd5b84356140fc81613e25565b935060208501359250604085013567ffffffffffffffff81111561411f57600080fd5b61412b87828801614057565b95989497509550505050565b6000806000806040858703121561414d57600080fd5b843567ffffffffffffffff8082111561416557600080fd5b61417188838901613f23565b9096509450602087013591508082111561418a57600080fd5b5061412b87828801613f23565b801515811461076557600080fd5b600080604083850312156141b857600080fd5b82356141c381613e25565b91506020830135613f1881614197565b6000806000806000608086880312156141eb57600080fd5b85356141f681613e25565b9450602086013561420681613e25565b935060408601359250606086013567ffffffffffffffff81111561422957600080fd5b61423588828901614057565b969995985093965092949392505050565b6000806040838503121561425957600080fd5b823561426481613e25565b91506020830135613f1881613e25565b6000806000806060858703121561428a57600080fd5b843561429581613e25565b935060208501356142a581613e25565b9250604085013567ffffffffffffffff8111156142c157600080fd5b61412b87828801613f23565b7f4e487b7100000000000000000000000000000000000000000000000000000000600052603260045260246000fd5b7f4e487b7100000000000000000000000000000000000000000000000000000000600052601160045260246000fd5b8181038181111561067d5761067d6142fc565b600181811c9082168061435257607f821691505b60208210810361438b577f4e487b7100000000000000000000000000000000000000000000000000000000600052602260045260246000fd5b50919050565b808202811582820484141761067d5761067d6142fc565b6000826143de577f4e487b7100000000000000000000000000000000000000000000000000000000600052601260045260246000fd5b500490565b7f416363657373436f6e74726f6c3a206d697373696e672027000000000000000081526000825161441b816018850160208701613d8b565b7f2720726f6c6500000000000000000000000000000000000000000000000000006018939091019283015250601e01919050565b7f4e487b7100000000000000000000000000000000000000000000000000000000600052604160045260246000fd5b601f8211156107f757600081815260208120601f850160051c810160208610156144a55750805b601f850160051c820191505b81811015610cf9578281556001016144b1565b67ffffffffffffffff8311156144dc576144dc61444f565b6144f0836144ea835461433e565b8361447e565b6000601f841160018114614542576000851561450c5750838201355b7fffffffffffffffffffffffffffffffffffffffffffffffffffffffffffffffff600387901b1c1916600186901b178355610fb0565b6000838152602090207fffffffffffffffffffffffffffffffffffffffffffffffffffffffffffffffe0861690835b828110156145915786850135825560209485019460019092019101614571565b50868210156145cc577fffffffffffffffffffffffffffffffffffffffffffffffffffffffffffffffff60f88860031b161c19848701351681555b505060018560011b0183555050505050565b60208152816020820152818360408301376000818301604090810191909152601f9092017fffffffffffffffffffffffffffffffffffffffffffffffffffffffffffffffe0160101919050565b60008084546146398161433e565b600182811680156146515760018114614684576146b3565b7fffffffffffffffffffffffffffffffffffffffffffffffffffffffffffffff00841687528215158302870194506146b3565b8860005260208060002060005b858110156146aa5781548a820152908401908201614691565b50505082870194505b5050505083516146c7818360208801613d8b565b01949350505050565b6000602082840312156146e257600080fd5b8151610bcb81614197565b600073ffffffffffffffffffffffffffffffffffffffff80871683528086166020840152508360408301526080606083015261472c6080830184613daf565b9695505050505050565b60006020828403121561474857600080fd5b8151610bcb81613d40565b60008251614765818460208701613d8b565b919091019291505056fea2646970667358221220eecc3a9cfccaa905a548a694e4df8a61d67def2915b9e610f6b3afd526a5596f64736f6c63430008130033",
  "linkReferences": {},
  "deployedLinkReferences": {}
}