{
  "_format": "hh-sol-artifact-1",
  "contractName": "REVVRacingNFT",
  "sourceName": "contracts/token/ERC721/REVVRacingNFT.sol",
  "abi": [
    {
      "inputs": [
        {
          "internalType": "contract IForwarderRegistry",
          "name": "forwarderRegistry",
          "type": "address"
        }
      ],
      "stateMutability": "nonpayable",
      "type": "constructor"
    },
    {
      "anonymous": false,
      "inputs": [
        {
          "indexed": true,
          "internalType": "address",
          "name": "owner",
          "type": "address"
        },
        {
          "indexed": true,
          "internalType": "address",
          "name": "approved",
          "type": "address"
        },
        {
          "indexed": true,
          "internalType": "uint256",
          "name": "tokenId",
          "type": "uint256"
        }
      ],
      "name": "Approval",
      "type": "event"
    },
    {
      "anonymous": false,
      "inputs": [
        {
          "indexed": true,
          "internalType": "address",
          "name": "owner",
          "type": "address"
        },
        {
          "indexed": true,
          "internalType": "address",
          "name": "operator",
          "type": "address"
        },
        {
          "indexed": false,
          "internalType": "bool",
          "name": "approved",
          "type": "bool"
        }
      ],
      "name": "ApprovalForAll",
      "type": "event"
    },
    {
      "anonymous": false,
      "inputs": [
        {
          "indexed": false,
          "internalType": "string",
          "name": "baseMetadataURI",
          "type": "string"
        }
      ],
      "name": "BaseMetadataURISet",
      "type": "event"
    },
    {
      "anonymous": false,
      "inputs": [
        {
          "indexed": true,
          "internalType": "address",
          "name": "previousOwner",
          "type": "address"
        },
        {
          "indexed": true,
          "internalType": "address",
          "name": "newOwner",
          "type": "address"
        }
      ],
      "name": "OwnershipTransferred",
      "type": "event"
    },
    {
      "anonymous": false,
      "inputs": [
        {
          "indexed": false,
          "internalType": "bytes32",
          "name": "role",
          "type": "bytes32"
        },
        {
          "indexed": false,
          "internalType": "address",
          "name": "account",
          "type": "address"
        },
        {
          "indexed": false,
          "internalType": "address",
          "name": "operator",
          "type": "address"
        }
      ],
      "name": "RoleGranted",
      "type": "event"
    },
    {
      "anonymous": false,
      "inputs": [
        {
          "indexed": false,
          "internalType": "bytes32",
          "name": "role",
          "type": "bytes32"
        },
        {
          "indexed": false,
          "internalType": "address",
          "name": "account",
          "type": "address"
        },
        {
          "indexed": false,
          "internalType": "address",
          "name": "operator",
          "type": "address"
        }
      ],
      "name": "RoleRevoked",
      "type": "event"
    },
    {
      "anonymous": false,
      "inputs": [
        {
          "indexed": true,
          "internalType": "address",
          "name": "from",
          "type": "address"
        },
        {
          "indexed": true,
          "internalType": "address",
          "name": "to",
          "type": "address"
        },
        {
          "indexed": true,
          "internalType": "uint256",
          "name": "tokenId",
          "type": "uint256"
        }
      ],
      "name": "Transfer",
      "type": "event"
    },
    {
      "inputs": [],
      "name": "MINTER_ROLE",
      "outputs": [
        {
          "internalType": "bytes32",
          "name": "",
          "type": "bytes32"
        }
      ],
      "stateMutability": "view",
      "type": "function"
    },
    {
      "inputs": [
        {
          "internalType": "address",
          "name": "to",
          "type": "address"
        },
        {
          "internalType": "uint256",
          "name": "tokenId",
          "type": "uint256"
        }
      ],
      "name": "approve",
      "outputs": [],
      "stateMutability": "nonpayable",
      "type": "function"
    },
    {
      "inputs": [
        {
          "internalType": "address",
          "name": "owner",
          "type": "address"
        }
      ],
      "name": "balanceOf",
      "outputs": [
        {
          "internalType": "uint256",
          "name": "balance",
          "type": "uint256"
        }
      ],
      "stateMutability": "view",
      "type": "function"
    },
    {
      "inputs": [],
      "name": "baseMetadataURI",
      "outputs": [
        {
          "internalType": "string",
          "name": "baseURI",
          "type": "string"
        }
      ],
      "stateMutability": "view",
      "type": "function"
    },
    {
      "inputs": [
        {
          "internalType": "address",
          "name": "from",
          "type": "address"
        },
        {
          "internalType": "uint256[]",
          "name": "tokenIds",
          "type": "uint256[]"
        }
      ],
      "name": "batchBurnFrom",
      "outputs": [],
      "stateMutability": "nonpayable",
      "type": "function"
    },
    {
      "inputs": [
        {
          "internalType": "address",
          "name": "to",
          "type": "address"
        },
        {
          "internalType": "uint256[]",
          "name": "tokenIds",
          "type": "uint256[]"
        }
      ],
      "name": "batchMint",
      "outputs": [],
      "stateMutability": "nonpayable",
      "type": "function"
    },
    {
      "inputs": [
        {
          "internalType": "address",
          "name": "from",
          "type": "address"
        },
        {
          "internalType": "address",
          "name": "to",
          "type": "address"
        },
        {
          "internalType": "uint256[]",
          "name": "tokenIds",
          "type": "uint256[]"
        }
      ],
      "name": "batchTransferFrom",
      "outputs": [],
      "stateMutability": "nonpayable",
      "type": "function"
    },
    {
      "inputs": [
        {
          "internalType": "address",
          "name": "from",
          "type": "address"
        },
        {
          "internalType": "uint256",
          "name": "tokenId",
          "type": "uint256"
        }
      ],
      "name": "burnFrom",
      "outputs": [],
      "stateMutability": "nonpayable",
      "type": "function"
    },
    {
      "inputs": [
        {
          "internalType": "address[]",
          "name": "recipients",
          "type": "address[]"
        },
        {
          "internalType": "uint256[]",
          "name": "tokenIds",
          "type": "uint256[]"
        }
      ],
      "name": "deliver",
      "outputs": [],
      "stateMutability": "nonpayable",
      "type": "function"
    },
    {
      "inputs": [],
      "name": "forwarderRegistry",
      "outputs": [
        {
          "internalType": "contract IForwarderRegistry",
          "name": "",
          "type": "address"
        }
      ],
      "stateMutability": "view",
      "type": "function"
    },
    {
      "inputs": [
        {
          "internalType": "uint256",
          "name": "tokenId",
          "type": "uint256"
        }
      ],
      "name": "getApproved",
      "outputs": [
        {
          "internalType": "address",
          "name": "approved",
          "type": "address"
        }
      ],
      "stateMutability": "view",
      "type": "function"
    },
    {
      "inputs": [
        {
          "internalType": "bytes32",
          "name": "role",
          "type": "bytes32"
        },
        {
          "internalType": "address",
          "name": "account",
          "type": "address"
        }
      ],
      "name": "grantRole",
      "outputs": [],
      "stateMutability": "nonpayable",
      "type": "function"
    },
    {
      "inputs": [
        {
          "internalType": "bytes32",
          "name": "role",
          "type": "bytes32"
        },
        {
          "internalType": "address",
          "name": "account",
          "type": "address"
        }
      ],
      "name": "hasRole",
      "outputs": [
        {
          "internalType": "bool",
          "name": "",
          "type": "bool"
        }
      ],
      "stateMutability": "view",
      "type": "function"
    },
    {
      "inputs": [
        {
          "internalType": "address",
          "name": "owner",
          "type": "address"
        },
        {
          "internalType": "address",
          "name": "operator",
          "type": "address"
        }
      ],
      "name": "isApprovedForAll",
      "outputs": [
        {
          "internalType": "bool",
          "name": "approvedForAll",
          "type": "bool"
        }
      ],
      "stateMutability": "view",
      "type": "function"
    },
    {
      "inputs": [
        {
          "internalType": "address",
          "name": "forwarder",
          "type": "address"
        }
      ],
      "name": "isTrustedForwarder",
      "outputs": [
        {
          "internalType": "bool",
          "name": "",
          "type": "bool"
        }
      ],
      "stateMutability": "view",
      "type": "function"
    },
    {
      "inputs": [
        {
          "internalType": "address",
          "name": "to",
          "type": "address"
        },
        {
          "internalType": "uint256",
          "name": "tokenId",
          "type": "uint256"
        }
      ],
      "name": "mint",
      "outputs": [],
      "stateMutability": "nonpayable",
      "type": "function"
    },
    {
      "inputs": [],
      "name": "name",
      "outputs": [
        {
          "internalType": "string",
          "name": "tokenName",
          "type": "string"
        }
      ],
      "stateMutability": "view",
      "type": "function"
    },
    {
      "inputs": [],
      "name": "owner",
      "outputs": [
        {
          "internalType": "address",
          "name": "",
          "type": "address"
        }
      ],
      "stateMutability": "view",
      "type": "function"
    },
    {
      "inputs": [
        {
          "internalType": "uint256",
          "name": "tokenId",
          "type": "uint256"
        }
      ],
      "name": "ownerOf",
      "outputs": [
        {
          "internalType": "address",
          "name": "tokenOwner",
          "type": "address"
        }
      ],
      "stateMutability": "view",
      "type": "function"
    },
    {
      "inputs": [
        {
          "internalType": "address[]",
          "name": "accounts",
          "type": "address[]"
        },
        {
          "internalType": "contract IERC20[]",
          "name": "tokens",
          "type": "address[]"
        },
        {
          "internalType": "uint256[]",
          "name": "amounts",
          "type": "uint256[]"
        }
      ],
      "name": "recoverERC20s",
      "outputs": [],
      "stateMutability": "nonpayable",
      "type": "function"
    },
    {
      "inputs": [
        {
          "internalType": "address[]",
          "name": "accounts",
          "type": "address[]"
        },
        {
          "internalType": "contract IERC721[]",
          "name": "contracts",
          "type": "address[]"
        },
        {
          "internalType": "uint256[]",
          "name": "tokenIds",
          "type": "uint256[]"
        }
      ],
      "name": "recoverERC721s",
      "outputs": [],
      "stateMutability": "nonpayable",
      "type": "function"
    },
    {
      "inputs": [
        {
          "internalType": "address payable[]",
          "name": "accounts",
          "type": "address[]"
        },
        {
          "internalType": "uint256[]",
          "name": "amounts",
          "type": "uint256[]"
        }
      ],
      "name": "recoverETH",
      "outputs": [],
      "stateMutability": "nonpayable",
      "type": "function"
    },
    {
      "inputs": [
        {
          "internalType": "bytes32",
          "name": "role",
          "type": "bytes32"
        }
      ],
      "name": "renounceRole",
      "outputs": [],
      "stateMutability": "nonpayable",
      "type": "function"
    },
    {
      "inputs": [
        {
          "internalType": "bytes32",
          "name": "role",
          "type": "bytes32"
        },
        {
          "internalType": "address",
          "name": "account",
          "type": "address"
        }
      ],
      "name": "revokeRole",
      "outputs": [],
      "stateMutability": "nonpayable",
      "type": "function"
    },
    {
      "inputs": [
        {
          "internalType": "address",
          "name": "to",
          "type": "address"
        },
        {
          "internalType": "uint256",
          "name": "tokenId",
          "type": "uint256"
        },
        {
          "internalType": "bytes",
          "name": "data",
          "type": "bytes"
        }
      ],
      "name": "safeMint",
      "outputs": [],
      "stateMutability": "nonpayable",
      "type": "function"
    },
    {
      "inputs": [
        {
          "internalType": "address",
          "name": "from",
          "type": "address"
        },
        {
          "internalType": "address",
          "name": "to",
          "type": "address"
        },
        {
          "internalType": "uint256",
          "name": "tokenId",
          "type": "uint256"
        }
      ],
      "name": "safeTransferFrom",
      "outputs": [],
      "stateMutability": "nonpayable",
      "type": "function"
    },
    {
      "inputs": [
        {
          "internalType": "address",
          "name": "from",
          "type": "address"
        },
        {
          "internalType": "address",
          "name": "to",
          "type": "address"
        },
        {
          "internalType": "uint256",
          "name": "tokenId",
          "type": "uint256"
        },
        {
          "internalType": "bytes",
          "name": "data",
          "type": "bytes"
        }
      ],
      "name": "safeTransferFrom",
      "outputs": [],
      "stateMutability": "nonpayable",
      "type": "function"
    },
    {
      "inputs": [
        {
          "internalType": "address",
          "name": "operator",
          "type": "address"
        },
        {
          "internalType": "bool",
          "name": "approved",
          "type": "bool"
        }
      ],
      "name": "setApprovalForAll",
      "outputs": [],
      "stateMutability": "nonpayable",
      "type": "function"
    },
    {
      "inputs": [
        {
          "internalType": "string",
          "name": "baseURI",
          "type": "string"
        }
      ],
      "name": "setBaseMetadataURI",
      "outputs": [],
      "stateMutability": "nonpayable",
      "type": "function"
    },
    {
      "inputs": [
        {
          "internalType": "bytes4",
          "name": "interfaceId",
          "type": "bytes4"
        }
      ],
      "name": "supportsInterface",
      "outputs": [
        {
          "internalType": "bool",
          "name": "",
          "type": "bool"
        }
      ],
      "stateMutability": "view",
      "type": "function"
    },
    {
      "inputs": [],
      "name": "symbol",
      "outputs": [
        {
          "internalType": "string",
          "name": "tokenSymbol",
          "type": "string"
        }
      ],
      "stateMutability": "view",
      "type": "function"
    },
    {
      "inputs": [
        {
          "internalType": "uint256",
          "name": "tokenId",
          "type": "uint256"
        }
      ],
      "name": "tokenURI",
      "outputs": [
        {
          "internalType": "string",
          "name": "uri",
          "type": "string"
        }
      ],
      "stateMutability": "view",
      "type": "function"
    },
    {
      "inputs": [
        {
          "internalType": "address",
          "name": "from",
          "type": "address"
        },
        {
          "internalType": "address",
          "name": "to",
          "type": "address"
        },
        {
          "internalType": "uint256",
          "name": "tokenId",
          "type": "uint256"
        }
      ],
      "name": "transferFrom",
      "outputs": [],
      "stateMutability": "nonpayable",
      "type": "function"
    },
    {
      "inputs": [
        {
          "internalType": "address",
          "name": "newOwner",
          "type": "address"
        }
      ],
      "name": "transferOwnership",
      "outputs": [],
      "stateMutability": "nonpayable",
      "type": "function"
    }
  ],
  "bytecode": "0x60a06040523480156200001157600080fd5b5060405162004ad138038062004ad18339810160408190526200003491620004de565b80806040518060400160405280600f81526020016e1491559588149858da5b99c8139195608a1b81525060405180604001604052806002815260200161292960f11b81525060405180602001604052806000815250336200009f6200019860201b62000e531760201c565b620000b4620001d260201b62000e8a1760201c565b620000e281620000ce620001f560201b62000eb81760201c565b6200022b60201b62000ee61790919060201c565b50620001138383620000fe620002a960201b62000f9c1760201c565b620002d960201b62000fca179092919060201c565b62000141816200012d6200032060201b620010131760201c565b6200035060201b620010411790919060201c565b505050620001596200036a60201b6200104b1760201c565b6200016e6200038d60201b620010791760201c565b62000183620003b060201b620010a71760201c565b6001600160a01b031660805250620006f29050565b620001d06380ac58cd60e01b6001620001bb620003d360201b620010d11760201c565b6200040360201b620010ff179092919060201c565b565b620001d063f3993d1160e01b6001620001bb620003d360201b620010d11760201c565b6000806200022560017fc9ed16f33ab3a66c84bfd83099ccb2a8845871e2e1c1928f63797152f0fd54cd62000510565b92915050565b6001600160a01b03811615620002825781546001600160a01b0319166001600160a01b03821690811783556040516000907f8be0079c531659141344cd1fd0a4f28419497f9722a3daafe3b4186f6b6457e0908290a35b620002a56307f5828d60e41b6001620001bb620003d360201b620010d11760201c565b5050565b6000806200022560017f9c4269c0f9f430d98876ffe9767fbf3f3232ea91a549beb549e5329532520eb362000510565b82620002e68382620005d6565b5060018301620002f78282620005d6565b506200031b635b5e139f60e01b6001620001bb620003d360201b620010d11760201c565b505050565b6000806200022560017fe94434e3c6b941c5d90218142fadcc69cb2e13723993540bfa1c131dd1d3475a62000510565b620002a581836200049360201b6200120b1790919060201c565b620001d0638b8b4ef560e01b6001620001bb620003d360201b620010d11760201c565b620001d0638e773e1360e01b6001620001bb620003d360201b620010d11760201c565b620001d0634ed2f41960e11b6001620001bb620003d360201b620010d11760201c565b6000806200022560017fca9d3e17f264b0f3984e2634e94adb37fa3e6a8103f06aeae6fa59e21c769f5e62000510565b600160e01b6001600160e01b0319831601620004655760405162461bcd60e51b815260206004820152601f60248201527f496e74657266616365446574656374696f6e3a2077726f6e672076616c756500604482015260640160405180910390fd5b6001600160e01b03199190911660009081526020929092526040909120805460ff1916911515919091179055565b81620004a08282620005d6565b507f04b1dc5c136a3ce9fded8db0ce3d3366c58764ec3a8e4c2b9e52e4ddfe5ebbf781604051620004d29190620006a2565b60405180910390a15050565b600060208284031215620004f157600080fd5b81516001600160a01b03811681146200050957600080fd5b9392505050565b818103818111156200022557634e487b7160e01b600052601160045260246000fd5b634e487b7160e01b600052604160045260246000fd5b600181811c908216806200055d57607f821691505b6020821081036200057e57634e487b7160e01b600052602260045260246000fd5b50919050565b601f8211156200031b57600081815260208120601f850160051c81016020861015620005ad5750805b601f850160051c820191505b81811015620005ce57828155600101620005b9565b505050505050565b81516001600160401b03811115620005f257620005f262000532565b6200060a8162000603845462000548565b8462000584565b602080601f831160018114620006425760008415620006295750858301515b600019600386901b1c1916600185901b178555620005ce565b600085815260208120601f198616915b82811015620006735788860151825594840194600190910190840162000652565b5085821015620006925787850151600019600388901b60f8161c191681555b5050505050600190811b01905550565b600060208083528351808285015260005b81811015620006d157858101830151858201604001528201620006b3565b506000604082860101526040601f19601f8301168501019250505092915050565b6080516143ae62000723600039600081816102ca0152818161034a0152818161318d015261321501526143ae6000f3fe608060405234801561001057600080fd5b50600436106102265760003560e01c80638832e6e31161012a578063c3666c36116100bd578063e985e9c51161008c578063f2fde38b11610071578063f2fde38b14610504578063f3993d1114610517578063f7ba94bd1461052a57600080fd5b8063e985e9c5146104de578063f2472965146104f157600080fd5b8063c3666c361461047e578063c87b56dd14610491578063d5391393146104a4578063d547741f146104cb57600080fd5b806395d89b41116100f957806395d89b411461043d5780639da5e83214610445578063a22cb46514610458578063b88d4fde1461046b57600080fd5b80638832e6e3146103fc5780638bb9c5bf1461040f5780638da5cb5b1461042257806391d148541461042a57600080fd5b806342842e0e116101bd5780636352211e1161018c57806373c8a9581161017157806373c8a958146103c357806379cc6790146103d65780637e518ec8146103e957600080fd5b80636352211e1461038f57806370a08231146103a257600080fd5b806342842e0e146103145780634684d7e914610327578063572b6c051461033a5780635b2bd79e1461038757600080fd5b806323b872dd116101f957806323b872dd146102b55780632b4c9f16146102c85780632f2ff15d146102ee57806340c10f191461030157600080fd5b806301ffc9a71461022b57806306fdde0314610253578063081812fc14610268578063095ea7b3146102a0575b600080fd5b61023e61023936600461398f565b61053d565b60405190151581526020015b60405180910390f35b61025b610557565b60405161024a9190613a1a565b61027b610276366004613a2d565b61056e565b60405173ffffffffffffffffffffffffffffffffffffffff909116815260200161024a565b6102b36102ae366004613a68565b610582565b005b6102b36102c3366004613a94565b6105a3565b7f000000000000000000000000000000000000000000000000000000000000000061027b565b6102b36102fc366004613ad5565b6105c7565b6102b361030f366004613a68565b6105fb565b6102b3610322366004613a94565b61064a565b6102b3610335366004613b51565b610669565b61023e610348366004613ba6565b7f000000000000000000000000000000000000000000000000000000000000000073ffffffffffffffffffffffffffffffffffffffff90811691161490565b61025b6106dd565b61027b61039d366004613a2d565b6106ea565b6103b56103b0366004613ba6565b6106fe565b60405190815260200161024a565b6102b36103d1366004613bc3565b610712565b6102b36103e4366004613a68565b610842565b6102b36103f7366004613c9f565b61085f565b6102b361040a366004613ce1565b6108b3565b6102b361041d366004613a2d565b61093b565b61027b610959565b61023e610438366004613ad5565b610980565b61025b6109cb565b6102b3610453366004613d3d565b6109dd565b6102b3610466366004613dab565b610a81565b6102b3610479366004613dd9565b610a9e565b6102b361048c366004613bc3565b610ac8565b61025b61049f366004613a2d565b610c6d565b6103b57f6d696e746572000000000000000000000000000000000000000000000000000081565b6102b36104d9366004613ad5565b610c8e565b61023e6104ec366004613e4c565b610cbc565b6102b36104ff366004613b51565b610d0a565b6102b3610512366004613ba6565b610d29565b6102b3610525366004613e7a565b610d44565b6102b3610538366004613d3d565b610d65565b60006105518261054b6110d1565b90611252565b92915050565b6060610569610564610f9c565b61132c565b905090565b60006105518261057c6113c2565b906113f0565b61059f61058d6114d1565b83836105976113c2565b9291906114db565b5050565b6105c26105ae6114d1565b8484846105b96113c2565b939291906117a4565b505050565b60006105d16114d1565b90506105e5816105df610eb8565b90611af9565b6105c28383836105f3611b7c565b929190611baa565b6106367f6d696e74657200000000000000000000000000000000000000000000000000006106276114d1565b61062f611b7c565b9190611c80565b61059f82826106436113c2565b9190611d2c565b6105c26106556114d1565b8484846106606113c2565b93929190611ea3565b6106957f6d696e74657200000000000000000000000000000000000000000000000000006106276114d1565b6105c2838383808060200260200160405190810160405280939291908181526020018383602002808284376000920191909152506106d692506113c2915050565b9190611ee9565b6060610569610564611013565b6000610551826106f86113c2565b906120bd565b60006105518261070c6113c2565b90612153565b61072561071d6114d1565b6105df610eb8565b84838114801561073457508082145b61079f576040517f08c379a000000000000000000000000000000000000000000000000000000000815260206004820152601d60248201527f5265636f766572793a20696e636f6e73697374656e742061727261797300000060448201526064015b60405180910390fd5b60005b818114610838576108308888838181106107be576107be613ed3565b90506020020160208101906107d39190613ba6565b8585848181106107e5576107e5613ed3565b905060200201358888858181106107fe576107fe613ed3565b90506020020160208101906108139190613ba6565b73ffffffffffffffffffffffffffffffffffffffff1691906121ff565b6001016107a2565b5050505050505050565b61059f61084d6114d1565b83836108576113c2565b92919061228c565b61086a61071d6114d1565b61059f82828080601f0160208091040260200160405190810160405280939291908181526020018383808284376000920191909152506108ad9250611013915050565b9061120b565b6108df7f6d696e74657200000000000000000000000000000000000000000000000000006106276114d1565b6109356108ea6114d1565b858585858080601f01602080910402602001604051908101604052809392919081815260200183838082843760009201919091525061092c92506113c2915050565b939291906124a0565b50505050565b6109566109466114d1565b8261094f611b7c565b91906124d6565b50565b6000610569610966610eb8565b5473ffffffffffffffffffffffffffffffffffffffff1690565b60006109c4838361098f611b7c565b60009283526020908152604080842073ffffffffffffffffffffffffffffffffffffffff909316845291905290205460ff1690565b9392505050565b60606105696109d8610f9c565b61257a565b610a097f6d696e74657200000000000000000000000000000000000000000000000000006106276114d1565b61093584848080602002602001604051908101604052809392919081815260200183836020028082843760009201919091525050604080516020808802828101820190935287825290935087925086918291850190849080828437600092019190915250610a7a92506113c2915050565b919061258b565b61059f610a8c6114d1565b8383610a966113c2565b929190612650565b610ac1610aa96114d1565b8686868686610ab66113c2565b959493929190612780565b5050505050565b610ad361071d6114d1565b848381148015610ae257508082145b610b48576040517f08c379a000000000000000000000000000000000000000000000000000000000815260206004820152601d60248201527f5265636f766572793a20696e636f6e73697374656e74206172726179730000006044820152606401610796565b60005b81811461083857858582818110610b6457610b64613ed3565b9050602002016020810190610b799190613ba6565b73ffffffffffffffffffffffffffffffffffffffff166323b872dd308a8a85818110610ba757610ba7613ed3565b9050602002016020810190610bbc9190613ba6565b878786818110610bce57610bce613ed3565b6040517fffffffff0000000000000000000000000000000000000000000000000000000060e088901b16815273ffffffffffffffffffffffffffffffffffffffff958616600482015294909316602485015250602090910201356044820152606401600060405180830381600087803b158015610c4a57600080fd5b505af1158015610c5e573d6000803e3d6000fd5b50505050806001019050610b4b565b6060610c7b826106f86113c2565b5061055182610c88611013565b906127f6565b6000610c986114d1565b9050610ca6816105df610eb8565b6105c2838383610cb4611b7c565b92919061282a565b60006109c48383610ccb6113c2565b919073ffffffffffffffffffffffffffffffffffffffff9182166000908152600393909301602090815260408085209290931684525290205460ff1690565b6105c2610d156114d1565b848484610d206113c2565b939291906128f4565b610956610d346114d1565b82610d3d610eb8565b9190612b49565b610935610d4f6114d1565b85858585610d5b6113c2565b9493929190612c75565b610d7061071d6114d1565b82818114610dda576040517f08c379a000000000000000000000000000000000000000000000000000000000815260206004820152601d60248201527f5265636f766572793a20696e636f6e73697374656e74206172726179730000006044820152606401610796565b60005b818114610e4b57610e43848483818110610df957610df9613ed3565b90506020020135878784818110610e1257610e12613ed3565b9050602002016020810190610e279190613ba6565b73ffffffffffffffffffffffffffffffffffffffff1690612ff0565b600101610ddd565b505050505050565b610e887f80ac58cd000000000000000000000000000000000000000000000000000000006001610e816110d1565b91906110ff565b565b610e887ff3993d11000000000000000000000000000000000000000000000000000000006001610e816110d1565b60008061055160017fc9ed16f33ab3a66c84bfd83099ccb2a8845871e2e1c1928f63797152f0fd54cd613f31565b73ffffffffffffffffffffffffffffffffffffffff811615610f6e5781547fffffffffffffffffffffffff00000000000000000000000000000000000000001673ffffffffffffffffffffffffffffffffffffffff821690811783556040516000907f8be0079c531659141344cd1fd0a4f28419497f9722a3daafe3b4186f6b6457e0908290a35b61059f7f7f5828d0000000000000000000000000000000000000000000000000000000006001610e816110d1565b60008061055160017f9c4269c0f9f430d98876ffe9767fbf3f3232ea91a549beb549e5329532520eb3613f31565b82610fd5838261400c565b5060018301610fe4828261400c565b506105c27f5b5e139f000000000000000000000000000000000000000000000000000000006001610e816110d1565b60008061055160017fe94434e3c6b941c5d90218142fadcc69cb2e13723993540bfa1c131dd1d3475a613f31565b61059f828261120b565b610e887f8b8b4ef5000000000000000000000000000000000000000000000000000000006001610e816110d1565b610e887f8e773e13000000000000000000000000000000000000000000000000000000006001610e816110d1565b610e887f9da5e832000000000000000000000000000000000000000000000000000000006001610e815b60008061055160017fca9d3e17f264b0f3984e2634e94adb37fa3e6a8103f06aeae6fa59e21c769f5e613f31565b7c01000000000000000000000000000000000000000000000000000000007fffffffff000000000000000000000000000000000000000000000000000000008316016111a7576040517f08c379a000000000000000000000000000000000000000000000000000000000815260206004820152601f60248201527f496e74657266616365446574656374696f6e3a2077726f6e672076616c7565006044820152606401610796565b7fffffffff00000000000000000000000000000000000000000000000000000000919091166000908152602092909252604090912080547fffffffffffffffffffffffffffffffffffffffffffffffffffffffffffffff0016911515919091179055565b81611216828261400c565b507f04b1dc5c136a3ce9fded8db0ce3d3366c58764ec3a8e4c2b9e52e4ddfe5ebbf7816040516112469190613a1a565b60405180910390a15050565b60007c01000000000000000000000000000000000000000000000000000000007fffffffff000000000000000000000000000000000000000000000000000000008316016112a257506000610551565b7ffe003659000000000000000000000000000000000000000000000000000000007fffffffff000000000000000000000000000000000000000000000000000000008316016112f357506001610551565b507fffffffff00000000000000000000000000000000000000000000000000000000166000908152602091909152604090205460ff1690565b606081600001805461133d90613f73565b80601f016020809104026020016040519081016040528092919081815260200182805461136990613f73565b80156113b65780601f1061138b576101008083540402835291602001916113b6565b820191906000526020600020905b81548152906001019060200180831161139957829003601f168201915b50505050509050919050565b60008061055160017fddf3ee18ae6d688373c219468f8be446e7ae82215f4779d821c7ea5e8c13c0c1613f31565b60008181526020839052604081205473ffffffffffffffffffffffffffffffffffffffff811661147c576040517f08c379a000000000000000000000000000000000000000000000000000000000815260206004820152601a60248201527f4552433732313a206e6f6e2d6578697374696e6720746f6b656e0000000000006044820152606401610796565b740100000000000000000000000000000000000000008116156114c7575050600081815260028301602052604090205473ffffffffffffffffffffffffffffffffffffffff16610551565b6000915050610551565b600061056961314a565b60008181526020859052604090205473ffffffffffffffffffffffffffffffffffffffff8116611567576040517f08c379a000000000000000000000000000000000000000000000000000000000815260206004820152601a60248201527f4552433732313a206e6f6e2d6578697374696e6720746f6b656e0000000000006044820152606401610796565b8073ffffffffffffffffffffffffffffffffffffffff808216908516036115ea576040517f08c379a000000000000000000000000000000000000000000000000000000000815260206004820152601560248201527f4552433732313a2073656c662d617070726f76616c00000000000000000000006044820152606401610796565b6115f5868287613291565b61165b576040517f08c379a000000000000000000000000000000000000000000000000000000000815260206004820152601b60248201527f4552433732313a206e6f6e2d617070726f7665642073656e64657200000000006044820152606401610796565b73ffffffffffffffffffffffffffffffffffffffff84166116c057740100000000000000000000000000000000000000008216156116bb57600083815260208790526040902073ffffffffffffffffffffffffffffffffffffffff821690555b611741565b7401000000000000000000000000000000000000000082178083146116f15760008481526020889052604090208190555b506000838152600287016020526040902080547fffffffffffffffffffffffff00000000000000000000000000000000000000001673ffffffffffffffffffffffffffffffffffffffff86161790555b828473ffffffffffffffffffffffffffffffffffffffff168273ffffffffffffffffffffffffffffffffffffffff167f8c5be1e5ebec7d5bd14f71427d1e84f3dd0314c0f7b2291e5b200ac8c7c3b92560405160405180910390a4505050505050565b73ffffffffffffffffffffffffffffffffffffffff8216611821576040517f08c379a000000000000000000000000000000000000000000000000000000000815260206004820152601e60248201527f4552433732313a207472616e7366657220746f206164647265737328302900006044820152606401610796565b60008181526020869052604090205473ffffffffffffffffffffffffffffffffffffffff81166118ad576040517f08c379a000000000000000000000000000000000000000000000000000000000815260206004820152601a60248201527f4552433732313a206e6f6e2d6578697374696e6720746f6b656e0000000000006044820152606401610796565b73ffffffffffffffffffffffffffffffffffffffff84168173ffffffffffffffffffffffffffffffffffffffff1614611942576040517f08c379a000000000000000000000000000000000000000000000000000000000815260206004820152601760248201527f4552433732313a206e6f6e2d6f776e656420746f6b656e0000000000000000006044820152606401610796565b61194d868587613291565b611a05577401000000000000000000000000000000000000000081161515801561199f5750600082815260028701602052604090205473ffffffffffffffffffffffffffffffffffffffff8681169116145b611a05576040517f08c379a000000000000000000000000000000000000000000000000000000000815260206004820152601b60248201527f4552433732313a206e6f6e2d617070726f7665642073656e64657200000000006044820152606401610796565b600082815260208790526040902073ffffffffffffffffffffffffffffffffffffffff80851691829055851614611a965773ffffffffffffffffffffffffffffffffffffffff80851660009081526001808901602052604080832080547fffffffffffffffffffffffffffffffffffffffffffffffffffffffffffffffff0190559286168252919020805490910190555b818373ffffffffffffffffffffffffffffffffffffffff168573ffffffffffffffffffffffffffffffffffffffff167fddf252ad1be2c89b69c2b068fc378daa952ba7f163c4a11628f55a4df523b3ef60405160405180910390a4505050505050565b815473ffffffffffffffffffffffffffffffffffffffff82811691161461059f576040517f08c379a000000000000000000000000000000000000000000000000000000000815260206004820152601860248201527f4f776e6572736869703a206e6f7420746865206f776e657200000000000000006044820152606401610796565b60008061055160017fc8827d3282af6f37b64c3e9e6f3ac9df286ab0bb0fccd6f8661bf19adb368b23613f31565b60008381526020858152604080832073ffffffffffffffffffffffffffffffffffffffff8616845290915290205460ff166109355760008381526020858152604080832073ffffffffffffffffffffffffffffffffffffffff8681168086529184529382902080547fffffffffffffffffffffffffffffffffffffffffffffffffffffffffffffff00166001179055815187815292830152918316918101919091527f2f8788117e7eff1d82e926ec794901d17c78024a50270940304540a733656f0d906060015b60405180910390a150505050565b60008281526020848152604080832073ffffffffffffffffffffffffffffffffffffffff8516845290915290205460ff166105c257611cbe82613306565b604051602001611cce9190614126565b604080517fffffffffffffffffffffffffffffffffffffffffffffffffffffffffffffffe0818403018152908290527f08c379a000000000000000000000000000000000000000000000000000000000825261079691600401613a1a565b73ffffffffffffffffffffffffffffffffffffffff8216611da9576040517f08c379a000000000000000000000000000000000000000000000000000000000815260206004820152601a60248201527f4552433732313a206d696e7420746f20616464726573732830290000000000006044820152606401610796565b60008181526020849052604090205473ffffffffffffffffffffffffffffffffffffffff1615611e35576040517f08c379a000000000000000000000000000000000000000000000000000000000815260206004820152601660248201527f4552433732313a206578697374696e6720746f6b656e000000000000000000006044820152606401610796565b60008181526020848152604080832073ffffffffffffffffffffffffffffffffffffffff86169081905580845260018088019093528184208054909301909255518392907fddf252ad1be2c89b69c2b068fc378daa952ba7f163c4a11628f55a4df523b3ef908290a4505050565b611eb085858585856117a4565b73ffffffffffffffffffffffffffffffffffffffff82163b15610ac157610ac18484848460405180602001604052806000815250613498565b73ffffffffffffffffffffffffffffffffffffffff8216611f66576040517f08c379a000000000000000000000000000000000000000000000000000000000815260206004820152601a60248201527f4552433732313a206d696e7420746f20616464726573732830290000000000006044820152606401610796565b805160005b818114612088576000838281518110611f8657611f86613ed3565b60200260200101519050611fc48660000160008381526020019081526020016000205473ffffffffffffffffffffffffffffffffffffffff16151590565b1561202b576040517f08c379a000000000000000000000000000000000000000000000000000000000815260206004820152601660248201527f4552433732313a206578697374696e6720746f6b656e000000000000000000006044820152606401610796565b60008181526020879052604080822073ffffffffffffffffffffffffffffffffffffffff88169081905590518392907fddf252ad1be2c89b69c2b068fc378daa952ba7f163c4a11628f55a4df523b3ef908290a450600101611f6b565b5073ffffffffffffffffffffffffffffffffffffffff9092166000908152600190930160205250604090912080549091019055565b60008181526020839052604081205473ffffffffffffffffffffffffffffffffffffffff8116612149576040517f08c379a000000000000000000000000000000000000000000000000000000000815260206004820152601a60248201527f4552433732313a206e6f6e2d6578697374696e6720746f6b656e0000000000006044820152606401610796565b805b949350505050565b600073ffffffffffffffffffffffffffffffffffffffff82166121d2576040517f08c379a000000000000000000000000000000000000000000000000000000000815260206004820152601d60248201527f4552433732313a2062616c616e6365206f6620616464726573732830290000006044820152606401610796565b5073ffffffffffffffffffffffffffffffffffffffff166000908152600191909101602052604090205490565b6040805173ffffffffffffffffffffffffffffffffffffffff8416602482015260448082018490528251808303909101815260649091019091526020810180517bffffffffffffffffffffffffffffffffffffffffffffffffffffffff167fa9059cbb000000000000000000000000000000000000000000000000000000001790526105c29084906135be565b6000818152602085905260409020548073ffffffffffffffffffffffffffffffffffffffff168373ffffffffffffffffffffffffffffffffffffffff1614612330576040517f08c379a000000000000000000000000000000000000000000000000000000000815260206004820152601760248201527f4552433732313a206e6f6e2d6f776e656420746f6b656e0000000000000000006044820152606401610796565b61233b858486613291565b6123f3577401000000000000000000000000000000000000000081161515801561238d5750600082815260028601602052604090205473ffffffffffffffffffffffffffffffffffffffff8581169116145b6123f3576040517f08c379a000000000000000000000000000000000000000000000000000000000815260206004820152601b60248201527f4552433732313a206e6f6e2d617070726f7665642073656e64657200000000006044820152606401610796565b6000828152602086815260408083207fdead000000000000000000000000000000000000000000000000000000000000905573ffffffffffffffffffffffffffffffffffffffff86168084526001890190925280832080547fffffffffffffffffffffffffffffffffffffffffffffffffffffffffffffffff01905551849291907fddf252ad1be2c89b69c2b068fc378daa952ba7f163c4a11628f55a4df523b3ef908390a45050505050565b6124ab858484611d2c565b73ffffffffffffffffffffffffffffffffffffffff83163b15610ac157610ac1846000858585613498565b6124e1838284611c80565b60008181526020848152604080832073ffffffffffffffffffffffffffffffffffffffff86168085529083529281902080547fffffffffffffffffffffffffffffffffffffffffffffffffffffffffffffff0016905580518481529182018390528101919091527ff6391f5c32d9c69d2a47ea670b442974b53935d1edc7fd64eb21e047a839171b9060600160405180910390a1505050565b606081600101805461133d90613f73565b8151815181146125f7576040517f08c379a000000000000000000000000000000000000000000000000000000000815260206004820152601b60248201527f4552433732313a20696e636f6e73697374656e742061727261797300000000006044820152606401610796565b60005b818114610ac15761264884828151811061261657612616613ed3565b602002602001015184838151811061263057612630613ed3565b602002602001015187611d2c9092919063ffffffff16565b6001016125fa565b8273ffffffffffffffffffffffffffffffffffffffff168273ffffffffffffffffffffffffffffffffffffffff16036126e5576040517f08c379a000000000000000000000000000000000000000000000000000000000815260206004820152601d60248201527f4552433732313a2073656c662d617070726f76616c20666f7220616c6c0000006044820152606401610796565b73ffffffffffffffffffffffffffffffffffffffff838116600081815260038701602090815260408083209487168084529482529182902080547fffffffffffffffffffffffffffffffffffffffffffffffffffffffffffffff001686151590811790915591519182527f17307eab39ab6107e8899845ad3d59bd9653f200f220920489ca2b5937696c31910160405180910390a350505050565b61278d87878787876117a4565b73ffffffffffffffffffffffffffffffffffffffff84163b156127ed576127ed8686868686868080601f01602080910402602001604051908101604052809392919081815260200183838082843760009201919091525061349892505050565b50505050505050565b606082612802836136ca565b604051602001612813929190614192565b604051602081830303815290604052905092915050565b60008381526020858152604080832073ffffffffffffffffffffffffffffffffffffffff8616845290915290205460ff16156109355760008381526020858152604080832073ffffffffffffffffffffffffffffffffffffffff8681168086529184529382902080547fffffffffffffffffffffffffffffffffffffffffffffffffffffffffffffff00169055815187815292830152918316918101919091527ff6391f5c32d9c69d2a47ea670b442974b53935d1edc7fd64eb21e047a839171b90606001611c72565b6000612901868587613291565b90508160005b818114612b0b57600085858381811061292257612922613ed3565b602090810292909201356000818152928c905260409092205491925081905073ffffffffffffffffffffffffffffffffffffffff168873ffffffffffffffffffffffffffffffffffffffff16146129d5576040517f08c379a000000000000000000000000000000000000000000000000000000000815260206004820152601760248201527f4552433732313a206e6f6e2d6f776e656420746f6b656e0000000000000000006044820152606401610796565b84612a8e5774010000000000000000000000000000000000000000811615158015612a285750600082815260028b01602052604090205473ffffffffffffffffffffffffffffffffffffffff8a81169116145b612a8e576040517f08c379a000000000000000000000000000000000000000000000000000000000815260206004820152601b60248201527f4552433732313a206e6f6e2d617070726f7665642073656e64657200000000006044820152606401610796565b600082815260208b905260408082207fdead00000000000000000000000000000000000000000000000000000000000090555183919073ffffffffffffffffffffffffffffffffffffffff8b16907fddf252ad1be2c89b69c2b068fc378daa952ba7f163c4a11628f55a4df523b3ef908390a45050600101612907565b5080156127ed5773ffffffffffffffffffffffffffffffffffffffff8516600090815260018801602052604090208054829003905550505050505050565b825473ffffffffffffffffffffffffffffffffffffffff9081169083168114612bce576040517f08c379a000000000000000000000000000000000000000000000000000000000815260206004820152601860248201527f4f776e6572736869703a206e6f7420746865206f776e657200000000000000006044820152606401610796565b8173ffffffffffffffffffffffffffffffffffffffff168173ffffffffffffffffffffffffffffffffffffffff16146109355783547fffffffffffffffffffffffff00000000000000000000000000000000000000001673ffffffffffffffffffffffffffffffffffffffff8381169182178655604051908316907f8be0079c531659141344cd1fd0a4f28419497f9722a3daafe3b4186f6b6457e090600090a350505050565b73ffffffffffffffffffffffffffffffffffffffff8316612cf2576040517f08c379a000000000000000000000000000000000000000000000000000000000815260206004820152601e60248201527f4552433732313a207472616e7366657220746f206164647265737328302900006044820152606401610796565b6000612cff878688613291565b90508160005b818114612f69576000858583818110612d2057612d20613ed3565b602090810292909201356000818152928d90526040909220549192505073ffffffffffffffffffffffffffffffffffffffff8116612dba576040517f08c379a000000000000000000000000000000000000000000000000000000000815260206004820152601a60248201527f4552433732313a206e6f6e2d6578697374696e6720746f6b656e0000000000006044820152606401610796565b73ffffffffffffffffffffffffffffffffffffffff89168173ffffffffffffffffffffffffffffffffffffffff1614612e4f576040517f08c379a000000000000000000000000000000000000000000000000000000000815260206004820152601760248201527f4552433732313a206e6f6e2d6f776e656420746f6b656e0000000000000000006044820152606401610796565b84612f085774010000000000000000000000000000000000000000811615158015612ea25750600082815260028c01602052604090205473ffffffffffffffffffffffffffffffffffffffff8b81169116145b612f08576040517f08c379a000000000000000000000000000000000000000000000000000000000815260206004820152601b60248201527f4552433732313a206e6f6e2d617070726f7665642073656e64657200000000006044820152606401610796565b600082815260208c9052604080822073ffffffffffffffffffffffffffffffffffffffff808c16918290559151859391928d16917fddf252ad1be2c89b69c2b068fc378daa952ba7f163c4a11628f55a4df523b3ef91a45050600101612d05565b508473ffffffffffffffffffffffffffffffffffffffff168673ffffffffffffffffffffffffffffffffffffffff1614158015612fa557508015155b156108385773ffffffffffffffffffffffffffffffffffffffff808716600090815260018a016020526040808220805485900390559187168152208054820190555050505050505050565b8047101561305a576040517f08c379a000000000000000000000000000000000000000000000000000000000815260206004820152601d60248201527f416464726573733a20696e73756666696369656e742062616c616e63650000006044820152606401610796565b60008273ffffffffffffffffffffffffffffffffffffffff168260405160006040518083038185875af1925050503d80600081146130b4576040519150601f19603f3d011682016040523d82523d6000602084013e6130b9565b606091505b50509050806105c2576040517f08c379a000000000000000000000000000000000000000000000000000000000815260206004820152603a60248201527f416464726573733a20756e61626c6520746f2073656e642076616c75652c207260448201527f6563697069656e74206d617920686176652072657665727465640000000000006064820152608401610796565b60003332148061315a5750601836105b1561316457503390565b7fffffffffffffffffffffffffffffffffffffffffffffffffffffffffffffffec36013560601c7f000000000000000000000000000000000000000000000000000000000000000073ffffffffffffffffffffffffffffffffffffffff1633148061328057506040517f8929a8ca00000000000000000000000000000000000000000000000000000000815273ffffffffffffffffffffffffffffffffffffffff82811660048301523360248301527f00000000000000000000000000000000000000000000000000000000000000001690638929a8ca90604401602060405180830381865afa15801561325c573d6000803e3d6000fd5b505050506040513d601f19601f820116820180604052508101906132809190614237565b1561328a57919050565b3391505090565b60008173ffffffffffffffffffffffffffffffffffffffff168373ffffffffffffffffffffffffffffffffffffffff16148061214b57505073ffffffffffffffffffffffffffffffffffffffff9182166000908152600393909301602090815260408085209290931684525290205460ff1690565b6060600082900361332557505060408051602081019091526000815290565b60008260405160200161333a91815260200190565b604080517fffffffffffffffffffffffffffffffffffffffffffffffffffffffffffffffe08184030181529190529050601f5b81818151811061337f5761337f613ed3565b01602001517fff00000000000000000000000000000000000000000000000000000000000000166000036133d4577fffffffffffffffffffffffffffffffffffffffffffffffffffffffffffffffff0161336d565b60008160010167ffffffffffffffff8111156133f2576133f2613f44565b6040519080825280601f01601f19166020018201604052801561341c576020820181803683370190505b50905060005b82811161348f5783818151811061343b5761343b613ed3565b602001015160f81c60f81b82828151811061345857613458613ed3565b60200101907effffffffffffffffffffffffffffffffffffffffffffffffffffffffffffff1916908160001a905350600101613422565b50949350505050565b6040517f150b7a02000000000000000000000000000000000000000000000000000000008082529073ffffffffffffffffffffffffffffffffffffffff85169063150b7a02906134f2908990899088908890600401614254565b6020604051808303816000875af1158015613511573d6000803e3d6000fd5b505050506040513d601f19601f82011682018060405250810190613535919061429d565b7fffffffff000000000000000000000000000000000000000000000000000000001614610ac1576040517f08c379a000000000000000000000000000000000000000000000000000000000815260206004820152601e60248201527f4552433732313a2073616665207472616e736665722072656a656374656400006044820152606401610796565b6000613620826040518060400160405280602081526020017f5361666545524332303a206c6f772d6c6576656c2063616c6c206661696c65648152508573ffffffffffffffffffffffffffffffffffffffff166137ff9092919063ffffffff16565b8051909150156105c2578080602001905181019061363e9190614237565b6105c2576040517f08c379a000000000000000000000000000000000000000000000000000000000815260206004820152602a60248201527f5361666545524332303a204552433230206f7065726174696f6e20646964206e60448201527f6f742073756363656564000000000000000000000000000000000000000000006064820152608401610796565b60608160000361370d57505060408051808201909152600181527f3000000000000000000000000000000000000000000000000000000000000000602082015290565b8160005b81156137375780613721816142ba565b91506137309050600a83614321565b9150613711565b60008167ffffffffffffffff81111561375257613752613f44565b6040519080825280601f01601f19166020018201604052801561377c576020820181803683370190505b5090505b841561214b57613791600183613f31565b915061379e600a86614335565b6137a9906030614349565b60f81b8183815181106137be576137be613ed3565b60200101907effffffffffffffffffffffffffffffffffffffffffffffffffffffffffffff1916908160001a9053506137f8600a86614321565b9450613780565b606061214b84846000858573ffffffffffffffffffffffffffffffffffffffff85163b613888576040517f08c379a000000000000000000000000000000000000000000000000000000000815260206004820152601d60248201527f416464726573733a2063616c6c20746f206e6f6e2d636f6e74726163740000006044820152606401610796565b6000808673ffffffffffffffffffffffffffffffffffffffff1685876040516138b1919061435c565b60006040518083038185875af1925050503d80600081146138ee576040519150601f19603f3d011682016040523d82523d6000602084013e6138f3565b606091505b509150915061390382828661390e565b979650505050505050565b6060831561391d5750816109c4565b82511561392d5782518084602001fd5b816040517f08c379a00000000000000000000000000000000000000000000000000000000081526004016107969190613a1a565b7fffffffff000000000000000000000000000000000000000000000000000000008116811461095657600080fd5b6000602082840312156139a157600080fd5b81356109c481613961565b60005b838110156139c75781810151838201526020016139af565b50506000910152565b600081518084526139e88160208601602086016139ac565b601f017fffffffffffffffffffffffffffffffffffffffffffffffffffffffffffffffe0169290920160200192915050565b6020815260006109c460208301846139d0565b600060208284031215613a3f57600080fd5b5035919050565b73ffffffffffffffffffffffffffffffffffffffff8116811461095657600080fd5b60008060408385031215613a7b57600080fd5b8235613a8681613a46565b946020939093013593505050565b600080600060608486031215613aa957600080fd5b8335613ab481613a46565b92506020840135613ac481613a46565b929592945050506040919091013590565b60008060408385031215613ae857600080fd5b823591506020830135613afa81613a46565b809150509250929050565b60008083601f840112613b1757600080fd5b50813567ffffffffffffffff811115613b2f57600080fd5b6020830191508360208260051b8501011115613b4a57600080fd5b9250929050565b600080600060408486031215613b6657600080fd5b8335613b7181613a46565b9250602084013567ffffffffffffffff811115613b8d57600080fd5b613b9986828701613b05565b9497909650939450505050565b600060208284031215613bb857600080fd5b81356109c481613a46565b60008060008060008060608789031215613bdc57600080fd5b863567ffffffffffffffff80821115613bf457600080fd5b613c008a838b01613b05565b90985096506020890135915080821115613c1957600080fd5b613c258a838b01613b05565b90965094506040890135915080821115613c3e57600080fd5b50613c4b89828a01613b05565b979a9699509497509295939492505050565b60008083601f840112613c6f57600080fd5b50813567ffffffffffffffff811115613c8757600080fd5b602083019150836020828501011115613b4a57600080fd5b60008060208385031215613cb257600080fd5b823567ffffffffffffffff811115613cc957600080fd5b613cd585828601613c5d565b90969095509350505050565b60008060008060608587031215613cf757600080fd5b8435613d0281613a46565b935060208501359250604085013567ffffffffffffffff811115613d2557600080fd5b613d3187828801613c5d565b95989497509550505050565b60008060008060408587031215613d5357600080fd5b843567ffffffffffffffff80821115613d6b57600080fd5b613d7788838901613b05565b90965094506020870135915080821115613d9057600080fd5b50613d3187828801613b05565b801515811461095657600080fd5b60008060408385031215613dbe57600080fd5b8235613dc981613a46565b91506020830135613afa81613d9d565b600080600080600060808688031215613df157600080fd5b8535613dfc81613a46565b94506020860135613e0c81613a46565b935060408601359250606086013567ffffffffffffffff811115613e2f57600080fd5b613e3b88828901613c5d565b969995985093965092949392505050565b60008060408385031215613e5f57600080fd5b8235613e6a81613a46565b91506020830135613afa81613a46565b60008060008060608587031215613e9057600080fd5b8435613e9b81613a46565b93506020850135613eab81613a46565b9250604085013567ffffffffffffffff811115613ec757600080fd5b613d3187828801613b05565b7f4e487b7100000000000000000000000000000000000000000000000000000000600052603260045260246000fd5b7f4e487b7100000000000000000000000000000000000000000000000000000000600052601160045260246000fd5b8181038181111561055157610551613f02565b7f4e487b7100000000000000000000000000000000000000000000000000000000600052604160045260246000fd5b600181811c90821680613f8757607f821691505b602082108103613fc0577f4e487b7100000000000000000000000000000000000000000000000000000000600052602260045260246000fd5b50919050565b601f8211156105c257600081815260208120601f850160051c81016020861015613fed5750805b601f850160051c820191505b81811015610e4b57828155600101613ff9565b815167ffffffffffffffff81111561402657614026613f44565b61403a816140348454613f73565b84613fc6565b602080601f83116001811461408d57600084156140575750858301515b7fffffffffffffffffffffffffffffffffffffffffffffffffffffffffffffffff600386901b1c1916600185901b178555610e4b565b6000858152602081207fffffffffffffffffffffffffffffffffffffffffffffffffffffffffffffffe08616915b828110156140da578886015182559484019460019091019084016140bb565b508582101561411657878501517fffffffffffffffffffffffffffffffffffffffffffffffffffffffffffffffff600388901b60f8161c191681555b5050505050600190811b01905550565b7f416363657373436f6e74726f6c3a206d697373696e672027000000000000000081526000825161415e8160188501602087016139ac565b7f2720726f6c6500000000000000000000000000000000000000000000000000006018939091019283015250601e01919050565b60008084546141a081613f73565b600182811680156141b857600181146141eb5761421a565b7fffffffffffffffffffffffffffffffffffffffffffffffffffffffffffffff008416875282151583028701945061421a565b8860005260208060002060005b858110156142115781548a8201529084019082016141f8565b50505082870194505b50505050835161422e8183602088016139ac565b01949350505050565b60006020828403121561424957600080fd5b81516109c481613d9d565b600073ffffffffffffffffffffffffffffffffffffffff80871683528086166020840152508360408301526080606083015261429360808301846139d0565b9695505050505050565b6000602082840312156142af57600080fd5b81516109c481613961565b60007fffffffffffffffffffffffffffffffffffffffffffffffffffffffffffffffff82036142eb576142eb613f02565b5060010190565b7f4e487b7100000000000000000000000000000000000000000000000000000000600052601260045260246000fd5b600082614330576143306142f2565b500490565b600082614344576143446142f2565b500690565b8082018082111561055157610551613f02565b6000825161436e8184602087016139ac565b919091019291505056fea26469706673582212202317cdd25b011f536671194bf17355cbb5e4592c96c2ce17447b45e3918b4ed164736f6c63430008110033",
  "linkReferences": {},
  "deployedLinkReferences": {}
}