{
  "_format": "hh-sol-artifact-1",
  "contractName": "BlueprintFacet1Mock",
  "sourceName": "contracts/mocks/token/fusion/blueprints/BlueprintFacet1Mock.sol",
  "abi": [
    {
      "inputs": [
        {
          "internalType": "address",
          "name": "cars",
          "type": "address"
        },
        {
          "internalType": "address",
          "name": "revv",
          "type": "address"
        },
        {
          "internalType": "address",
          "name": "cata",
          "type": "address"
        },
        {
          "internalType": "contract IForwarderRegistry",
          "name": "forwarderRegistry",
          "type": "address"
        }
      ],
      "stateMutability": "nonpayable",
      "type": "constructor"
    },
    {
      "inputs": [],
      "name": "__msgData",
      "outputs": [
        {
          "internalType": "bytes",
          "name": "",
          "type": "bytes"
        }
      ],
      "stateMutability": "view",
      "type": "function"
    },
    {
      "inputs": [
        {
          "internalType": "uint256",
          "name": "id",
          "type": "uint256"
        }
      ],
      "name": "fuse_NAME1",
      "outputs": [],
      "stateMutability": "nonpayable",
      "type": "function"
    },
    {
      "inputs": [
        {
          "internalType": "uint256",
          "name": "id1",
          "type": "uint256"
        },
        {
          "internalType": "uint256",
          "name": "id2",
          "type": "uint256"
        }
      ],
      "name": "fuse_NAME10",
      "outputs": [],
      "stateMutability": "nonpayable",
      "type": "function"
    },
    {
      "inputs": [
        {
          "internalType": "uint256",
          "name": "id1",
          "type": "uint256"
        },
        {
          "internalType": "uint256",
          "name": "id2",
          "type": "uint256"
        }
      ],
      "name": "fuse_NAME11",
      "outputs": [],
      "stateMutability": "nonpayable",
      "type": "function"
    },
    {
      "inputs": [
        {
          "internalType": "uint256",
          "name": "id",
          "type": "uint256"
        }
      ],
      "name": "fuse_NAME2",
      "outputs": [],
      "stateMutability": "nonpayable",
      "type": "function"
    },
    {
      "inputs": [
        {
          "internalType": "uint256",
          "name": "id",
          "type": "uint256"
        }
      ],
      "name": "fuse_NAME3",
      "outputs": [],
      "stateMutability": "nonpayable",
      "type": "function"
    },
    {
      "inputs": [
        {
          "internalType": "uint256",
          "name": "id",
          "type": "uint256"
        }
      ],
      "name": "fuse_NAME4",
      "outputs": [],
      "stateMutability": "nonpayable",
      "type": "function"
    },
    {
      "inputs": [
        {
          "internalType": "uint256",
          "name": "id",
          "type": "uint256"
        }
      ],
      "name": "fuse_NAME5",
      "outputs": [],
      "stateMutability": "nonpayable",
      "type": "function"
    },
    {
      "inputs": [
        {
          "internalType": "uint256",
          "name": "id",
          "type": "uint256"
        }
      ],
      "name": "fuse_NAME6",
      "outputs": [],
      "stateMutability": "nonpayable",
      "type": "function"
    },
    {
      "inputs": [
        {
          "internalType": "uint256",
          "name": "id",
          "type": "uint256"
        }
      ],
      "name": "fuse_NAME7",
      "outputs": [],
      "stateMutability": "nonpayable",
      "type": "function"
    },
    {
      "inputs": [
        {
          "internalType": "uint256",
          "name": "id1",
          "type": "uint256"
        },
        {
          "internalType": "uint256",
          "name": "id2",
          "type": "uint256"
        }
      ],
      "name": "fuse_NAME8",
      "outputs": [],
      "stateMutability": "nonpayable",
      "type": "function"
    },
    {
      "inputs": [
        {
          "internalType": "uint256",
          "name": "id1",
          "type": "uint256"
        },
        {
          "internalType": "uint256",
          "name": "id2",
          "type": "uint256"
        }
      ],
      "name": "fuse_NAME9",
      "outputs": [],
      "stateMutability": "nonpayable",
      "type": "function"
    }
  ],
  "bytecode": "0x6101006040523480156200001257600080fd5b506040516200129e3803806200129e833981016040819052620000359162000072565b6001600160a01b0390811660805292831660a05290821660c0521660e052620000da565b6001600160a01b03811681146200006f57600080fd5b50565b600080600080608085870312156200008957600080fd5b8451620000968162000059565b6020860151909450620000a98162000059565b6040860151909350620000bc8162000059565b6060860151909250620000cf8162000059565b939692955090935050565b60805160a05160c05160e0516111526200014c60003960008181610656015261079001526000818161062b01526107650152600081816106a3015281816106cf0152818161083d01526108690152600081816108b20152818161091c01528181610a5a0152610afa01526111526000f3fe608060405234801561001057600080fd5b50600436106100d45760003560e01c80636c10ca9d11610081578063ba71f3301161005b578063ba71f33014610192578063c4546fbc146101a5578063efeb4075146101b857600080fd5b80636c10ca9d14610159578063863f90bc1461016c578063b5397b2a1461017f57600080fd5b806341356c2e116100b257806341356c2e14610120578063467f9948146101335780635bb7db8f1461014657600080fd5b80630561d579146100d95780632cc3214a146100ee57806331e66e1e14610101575b600080fd5b6100ec6100e7366004610f24565b6101cb565b005b6100ec6100fc366004610f3d565b61022c565b61010961028f565b604051610117929190610f5f565b60405180910390f35b6100ec61012e366004610f24565b6102a2565b6100ec610141366004610f24565b610300565b6100ec610154366004610f24565b61035e565b6100ec610167366004610f24565b6103bc565b6100ec61017a366004610f24565b61041a565b6100ec61018d366004610f3d565b610478565b6100ec6101a0366004610f3d565b6104d7565b6100ec6101b3366004610f3d565b610536565b6100ec6101c6366004610f24565b610595565b6102297f80080008000000400000000105790000000000000000000000080001000000007f80080008000000400000000504795a60e60d20d200000000000500040000000083680821ab0d4414980000670de0b6b3a76400006105ef565b50565b61028b7f80080008000006400000000105790000000000000000000000270002000000007f80080008000006400000000504795540c80f00f00000000000060005000000008484680821ab0d4414980000670de0b6b3a76400006106fe565b5050565b36600061029a61089a565b915091509091565b6102297f800800080000018000000001057900000000000000000000001a0001000000007f80080008000001800000000504795a60e60d20d200000000000400040000000083680821ab0d4414980000670de0b6b3a76400006105ef565b6102297f80080008000004e00000000105790000000000000000000000110002000000007f80080008000004e00000000504795540c80f00f000000000000200050000000083680821ab0d4414980000670de0b6b3a76400006105ef565b6102297f80080008000000300000000105790000000000000000000000070001000000007f80080008000000300000000504795a60e60d20d200000000000200040000000083680821ab0d4414980000670de0b6b3a76400006105ef565b6102297f80080008000000200000000105790000000000000000000000040001000000007f80080008000000200000000504795a60e60d20d200000000000100040000000083680821ab0d4414980000670de0b6b3a76400006105ef565b6102297f80080008000001100000000105790000000000000000000000130001000000007f80080008000001100000000504795a60e60d20d200000000000300040000000083680821ab0d4414980000670de0b6b3a76400006105ef565b61028b7f80080008000006100000000105790000000000000000000000240002000000007f80080008000006100000000504795540c80f00f00000000000040005000000008484680821ab0d4414980000670de0b6b3a76400006106fe565b61028b7f80080008000005e00000000105790000000000000000000000210002000000007f80080008000005e00000000504795540c80f00f00000000000030005000000008484680821ab0d4414980000670de0b6b3a76400006106fe565b61028b7f80080008000006200000000105790000000000000000000000250002000000007f80080008000006200000000504795540c80f00f00000000000050005000000008484680821ab0d4414980000670de0b6b3a76400006106fe565b6102297f80080008000004500000000105790000000000000000000000080002000000007f80080008000004500000000504795540c80f00f000000000000100050000000083680821ab0d4414980000670de0b6b3a76400005b60006105f9610a1e565b9050610626847ffffffff80000fff000000fffffff000000000000000000000fffffff0000000088610b76565b6106517f00000000000000000000000000000000000000000000000000000000000000008285610bea565b61067c7f00000000000000000000000000000000000000000000000000000000000000008284610cb4565b7fe9f115eb6863a5710ccbcd50786f226816925aee1eb1fe925aafb2687d4695606106c9817f00000000000000000000000000000000000000000000000000000000000000008488610d0f565b6106f5817f00000000000000000000000000000000000000000000000000000000000000008489610dac565b50505050505050565b6000610708610a1e565b9050610735857ffffffff80000fff000000fffffff000000000000000000000fffffff0000000089610b76565b610760847ffffffff80000fff000000fffffff000000000000000000000fffffff0000000089610b76565b61078b7f00000000000000000000000000000000000000000000000000000000000000008285610bea565b6107b67f00000000000000000000000000000000000000000000000000000000000000008284610cb4565b60408051600280825260608201835260009260208301908036833701905050905085816000815181106107eb576107eb610fac565b602002602001018181525050848160018151811061080b5761080b610fac565b60209081029190910101527fe9f115eb6863a5710ccbcd50786f226816925aee1eb1fe925aafb2687d469560610863817f00000000000000000000000000000000000000000000000000000000000000008585610e29565b61088f817f0000000000000000000000000000000000000000000000000000000000000000858b610dac565b505050505050505050565b366000333281036108b057506000923692509050565b7f000000000000000000000000000000000000000000000000000000000000000073ffffffffffffffffffffffffffffffffffffffff168173ffffffffffffffffffffffffffffffffffffffff1614806109fd575073ffffffffffffffffffffffffffffffffffffffff7f00000000000000000000000000000000000000000000000000000000000000001663e60125d6367fffffffffffffffffffffffffffffffffffffffffffffffffffffffffffffffec013560601c6040517fffffffff0000000000000000000000000000000000000000000000000000000060e084901b16815273ffffffffffffffffffffffffffffffffffffffff91821660048201529084166024820152604401602060405180830381865afa1580156109d9573d6000803e3d6000fd5b505050506040513d601f19601f820116820180604052508101906109fd9190610fdb565b15610a1357610a0a610e85565b92509250509091565b506000923692509050565b600033328103610a2d57919050565b6000367fffffffffffffffffffffffffffffffffffffffffffffffffffffffffffffffec013560601c90507f000000000000000000000000000000000000000000000000000000000000000073ffffffffffffffffffffffffffffffffffffffff168273ffffffffffffffffffffffffffffffffffffffff161480610b6557506040517fe60125d600000000000000000000000000000000000000000000000000000000815273ffffffffffffffffffffffffffffffffffffffff828116600483015283811660248301527f0000000000000000000000000000000000000000000000000000000000000000169063e60125d690604401602060405180830381865afa158015610b41573d6000803e3d6000fd5b505050506040513d601f19601f82011682018060405250810190610b659190610fdb565b15610b705792915050565b50919050565b8082841614610be5576040517f08c379a000000000000000000000000000000000000000000000000000000000815260206004820152601660248201527f467573696f6e3a2077726f6e6720636172207479706500000000000000000000604482015260640160405180910390fd5b505050565b8273ffffffffffffffffffffffffffffffffffffffff166323b872dd83610c0f610ea3565b5460405160e084901b7fffffffff0000000000000000000000000000000000000000000000000000000016815273ffffffffffffffffffffffffffffffffffffffff928316600482015291166024820152604481018490526064015b6020604051808303816000875af1158015610c8a573d6000803e3d6000fd5b505050506040513d601f19601f82011682018060405250810190610cae9190610fdb565b50505050565b6040517f79cc679000000000000000000000000000000000000000000000000000000000815273ffffffffffffffffffffffffffffffffffffffff8381166004830152602482018390528416906379cc679090604401610c6b565b60018401546040517f23b872dd00000000000000000000000000000000000000000000000000000000815273ffffffffffffffffffffffffffffffffffffffff8481166004830152918216602482015260448101839052908416906323b872dd906064015b600060405180830381600087803b158015610d8e57600080fd5b505af1158015610da2573d6000803e3d6000fd5b5050505050505050565b73ffffffffffffffffffffffffffffffffffffffff83166340c10f1983610dd38785610ed7565b6040517fffffffff0000000000000000000000000000000000000000000000000000000060e085901b16815273ffffffffffffffffffffffffffffffffffffffff90921660048301526024820152604401610d74565b60018401546040517ff3993d1100000000000000000000000000000000000000000000000000000000815273ffffffffffffffffffffffffffffffffffffffff8086169263f3993d1192610d7492879216908690600401611004565b366000808083610e966014826110a3565b9261029a939291906110ba565b600080610ed160017f89eb436ee4870c51a38e2f0153cc874917c373f6d1129026cdc184ead19d107d6110a3565b92915050565b7ffffffff80000000000000000ff00000000000000000000000000ffff000000008116600090815260208390526040812080548290610f15906110e4565b91829055508217905092915050565b600060208284031215610f3657600080fd5b5035919050565b60008060408385031215610f5057600080fd5b50508035926020909101359150565b60208152816020820152818360408301376000818301604090810191909152601f9092017fffffffffffffffffffffffffffffffffffffffffffffffffffffffffffffffe0160101919050565b7f4e487b7100000000000000000000000000000000000000000000000000000000600052603260045260246000fd5b600060208284031215610fed57600080fd5b81518015158114610ffd57600080fd5b9392505050565b60006060820173ffffffffffffffffffffffffffffffffffffffff8087168452602081871681860152606060408601528291508551808452608086019250818701935060005b818110156110665784518452938201939282019260010161104a565b509198975050505050505050565b7f4e487b7100000000000000000000000000000000000000000000000000000000600052601160045260246000fd5b6000828210156110b5576110b5611074565b500390565b600080858511156110ca57600080fd5b838611156110d757600080fd5b5050820193919092039150565b60007fffffffffffffffffffffffffffffffffffffffffffffffffffffffffffffffff820361111557611115611074565b506001019056fea2646970667358221220f4e0c21e84806b1b6fd97783f0f1445f26e2f9835991decb2b6ed3ed3749d8b264736f6c634300080e0033",
  "linkReferences": {},
  "deployedLinkReferences": {}
}