{
  "_format": "hh-sol-artifact-1",
  "contractName": "ERC20MintBurn",
  "sourceName": "contracts/token/ERC20/ERC20MintBurn.sol",
  "abi": [
    {
      "inputs": [
        {
          "internalType": "string",
          "name": "tokenName",
          "type": "string"
        },
        {
          "internalType": "string",
          "name": "tokenSymbol",
          "type": "string"
        },
        {
          "internalType": "uint8",
          "name": "tokenDecimals",
          "type": "uint8"
        },
        {
          "internalType": "string",
          "name": "uri",
          "type": "string"
        },
        {
          "internalType": "contract IForwarderRegistry",
          "name": "forwarderRegistry",
          "type": "address"
        }
      ],
      "stateMutability": "nonpayable",
      "type": "constructor"
    },
    {
      "anonymous": false,
      "inputs": [
        {
          "indexed": true,
          "internalType": "address",
          "name": "owner",
          "type": "address"
        },
        {
          "indexed": true,
          "internalType": "address",
          "name": "spender",
          "type": "address"
        },
        {
          "indexed": false,
          "internalType": "uint256",
          "name": "value",
          "type": "uint256"
        }
      ],
      "name": "Approval",
      "type": "event"
    },
    {
      "anonymous": false,
      "inputs": [
        {
          "indexed": true,
          "internalType": "address",
          "name": "previousOwner",
          "type": "address"
        },
        {
          "indexed": true,
          "internalType": "address",
          "name": "newOwner",
          "type": "address"
        }
      ],
      "name": "OwnershipTransferred",
      "type": "event"
    },
    {
      "anonymous": false,
      "inputs": [
        {
          "indexed": false,
          "internalType": "bytes32",
          "name": "role",
          "type": "bytes32"
        },
        {
          "indexed": false,
          "internalType": "address",
          "name": "account",
          "type": "address"
        },
        {
          "indexed": false,
          "internalType": "address",
          "name": "operator",
          "type": "address"
        }
      ],
      "name": "RoleGranted",
      "type": "event"
    },
    {
      "anonymous": false,
      "inputs": [
        {
          "indexed": false,
          "internalType": "bytes32",
          "name": "role",
          "type": "bytes32"
        },
        {
          "indexed": false,
          "internalType": "address",
          "name": "account",
          "type": "address"
        },
        {
          "indexed": false,
          "internalType": "address",
          "name": "operator",
          "type": "address"
        }
      ],
      "name": "RoleRevoked",
      "type": "event"
    },
    {
      "anonymous": false,
      "inputs": [
        {
          "indexed": true,
          "internalType": "address",
          "name": "from",
          "type": "address"
        },
        {
          "indexed": true,
          "internalType": "address",
          "name": "to",
          "type": "address"
        },
        {
          "indexed": false,
          "internalType": "uint256",
          "name": "value",
          "type": "uint256"
        }
      ],
      "name": "Transfer",
      "type": "event"
    },
    {
      "inputs": [],
      "name": "DOMAIN_SEPARATOR",
      "outputs": [
        {
          "internalType": "bytes32",
          "name": "",
          "type": "bytes32"
        }
      ],
      "stateMutability": "view",
      "type": "function"
    },
    {
      "inputs": [],
      "name": "MINTER_ROLE",
      "outputs": [
        {
          "internalType": "bytes32",
          "name": "",
          "type": "bytes32"
        }
      ],
      "stateMutability": "view",
      "type": "function"
    },
    {
      "inputs": [
        {
          "internalType": "address",
          "name": "owner",
          "type": "address"
        },
        {
          "internalType": "address",
          "name": "spender",
          "type": "address"
        }
      ],
      "name": "allowance",
      "outputs": [
        {
          "internalType": "uint256",
          "name": "value",
          "type": "uint256"
        }
      ],
      "stateMutability": "view",
      "type": "function"
    },
    {
      "inputs": [
        {
          "internalType": "address",
          "name": "spender",
          "type": "address"
        },
        {
          "internalType": "uint256",
          "name": "value",
          "type": "uint256"
        }
      ],
      "name": "approve",
      "outputs": [
        {
          "internalType": "bool",
          "name": "result",
          "type": "bool"
        }
      ],
      "stateMutability": "nonpayable",
      "type": "function"
    },
    {
      "inputs": [
        {
          "internalType": "address",
          "name": "owner",
          "type": "address"
        }
      ],
      "name": "balanceOf",
      "outputs": [
        {
          "internalType": "uint256",
          "name": "balance",
          "type": "uint256"
        }
      ],
      "stateMutability": "view",
      "type": "function"
    },
    {
      "inputs": [
        {
          "internalType": "address[]",
          "name": "owners",
          "type": "address[]"
        },
        {
          "internalType": "uint256[]",
          "name": "values",
          "type": "uint256[]"
        }
      ],
      "name": "batchBurnFrom",
      "outputs": [
        {
          "internalType": "bool",
          "name": "",
          "type": "bool"
        }
      ],
      "stateMutability": "nonpayable",
      "type": "function"
    },
    {
      "inputs": [
        {
          "internalType": "address[]",
          "name": "recipients",
          "type": "address[]"
        },
        {
          "internalType": "uint256[]",
          "name": "values",
          "type": "uint256[]"
        }
      ],
      "name": "batchMint",
      "outputs": [],
      "stateMutability": "nonpayable",
      "type": "function"
    },
    {
      "inputs": [
        {
          "internalType": "address[]",
          "name": "recipients",
          "type": "address[]"
        },
        {
          "internalType": "uint256[]",
          "name": "values",
          "type": "uint256[]"
        }
      ],
      "name": "batchTransfer",
      "outputs": [
        {
          "internalType": "bool",
          "name": "",
          "type": "bool"
        }
      ],
      "stateMutability": "nonpayable",
      "type": "function"
    },
    {
      "inputs": [
        {
          "internalType": "address",
          "name": "from",
          "type": "address"
        },
        {
          "internalType": "address[]",
          "name": "recipients",
          "type": "address[]"
        },
        {
          "internalType": "uint256[]",
          "name": "values",
          "type": "uint256[]"
        }
      ],
      "name": "batchTransferFrom",
      "outputs": [
        {
          "internalType": "bool",
          "name": "",
          "type": "bool"
        }
      ],
      "stateMutability": "nonpayable",
      "type": "function"
    },
    {
      "inputs": [
        {
          "internalType": "uint256",
          "name": "value",
          "type": "uint256"
        }
      ],
      "name": "burn",
      "outputs": [
        {
          "internalType": "bool",
          "name": "",
          "type": "bool"
        }
      ],
      "stateMutability": "nonpayable",
      "type": "function"
    },
    {
      "inputs": [
        {
          "internalType": "address",
          "name": "from",
          "type": "address"
        },
        {
          "internalType": "uint256",
          "name": "value",
          "type": "uint256"
        }
      ],
      "name": "burnFrom",
      "outputs": [
        {
          "internalType": "bool",
          "name": "",
          "type": "bool"
        }
      ],
      "stateMutability": "nonpayable",
      "type": "function"
    },
    {
      "inputs": [],
      "name": "decimals",
      "outputs": [
        {
          "internalType": "uint8",
          "name": "",
          "type": "uint8"
        }
      ],
      "stateMutability": "view",
      "type": "function"
    },
    {
      "inputs": [
        {
          "internalType": "address",
          "name": "spender",
          "type": "address"
        },
        {
          "internalType": "uint256",
          "name": "subtractedValue",
          "type": "uint256"
        }
      ],
      "name": "decreaseAllowance",
      "outputs": [
        {
          "internalType": "bool",
          "name": "result",
          "type": "bool"
        }
      ],
      "stateMutability": "nonpayable",
      "type": "function"
    },
    {
      "inputs": [],
      "name": "forwarderRegistry",
      "outputs": [
        {
          "internalType": "contract IForwarderRegistry",
          "name": "",
          "type": "address"
        }
      ],
      "stateMutability": "view",
      "type": "function"
    },
    {
      "inputs": [
        {
          "internalType": "bytes32",
          "name": "role",
          "type": "bytes32"
        },
        {
          "internalType": "address",
          "name": "account",
          "type": "address"
        }
      ],
      "name": "grantRole",
      "outputs": [],
      "stateMutability": "nonpayable",
      "type": "function"
    },
    {
      "inputs": [
        {
          "internalType": "bytes32",
          "name": "role",
          "type": "bytes32"
        },
        {
          "internalType": "address",
          "name": "account",
          "type": "address"
        }
      ],
      "name": "hasRole",
      "outputs": [
        {
          "internalType": "bool",
          "name": "",
          "type": "bool"
        }
      ],
      "stateMutability": "view",
      "type": "function"
    },
    {
      "inputs": [
        {
          "internalType": "address",
          "name": "spender",
          "type": "address"
        },
        {
          "internalType": "uint256",
          "name": "addedValue",
          "type": "uint256"
        }
      ],
      "name": "increaseAllowance",
      "outputs": [
        {
          "internalType": "bool",
          "name": "result",
          "type": "bool"
        }
      ],
      "stateMutability": "nonpayable",
      "type": "function"
    },
    {
      "inputs": [
        {
          "internalType": "address",
          "name": "forwarder",
          "type": "address"
        }
      ],
      "name": "isTrustedForwarder",
      "outputs": [
        {
          "internalType": "bool",
          "name": "",
          "type": "bool"
        }
      ],
      "stateMutability": "view",
      "type": "function"
    },
    {
      "inputs": [
        {
          "internalType": "address",
          "name": "to",
          "type": "address"
        },
        {
          "internalType": "uint256",
          "name": "value",
          "type": "uint256"
        }
      ],
      "name": "mint",
      "outputs": [],
      "stateMutability": "nonpayable",
      "type": "function"
    },
    {
      "inputs": [],
      "name": "name",
      "outputs": [
        {
          "internalType": "string",
          "name": "",
          "type": "string"
        }
      ],
      "stateMutability": "view",
      "type": "function"
    },
    {
      "inputs": [
        {
          "internalType": "address",
          "name": "owner",
          "type": "address"
        }
      ],
      "name": "nonces",
      "outputs": [
        {
          "internalType": "uint256",
          "name": "",
          "type": "uint256"
        }
      ],
      "stateMutability": "view",
      "type": "function"
    },
    {
      "inputs": [],
      "name": "owner",
      "outputs": [
        {
          "internalType": "address",
          "name": "",
          "type": "address"
        }
      ],
      "stateMutability": "view",
      "type": "function"
    },
    {
      "inputs": [
        {
          "internalType": "address",
          "name": "owner",
          "type": "address"
        },
        {
          "internalType": "address",
          "name": "spender",
          "type": "address"
        },
        {
          "internalType": "uint256",
          "name": "value",
          "type": "uint256"
        },
        {
          "internalType": "uint256",
          "name": "deadline",
          "type": "uint256"
        },
        {
          "internalType": "uint8",
          "name": "v",
          "type": "uint8"
        },
        {
          "internalType": "bytes32",
          "name": "r",
          "type": "bytes32"
        },
        {
          "internalType": "bytes32",
          "name": "s",
          "type": "bytes32"
        }
      ],
      "name": "permit",
      "outputs": [],
      "stateMutability": "nonpayable",
      "type": "function"
    },
    {
      "inputs": [
        {
          "internalType": "address[]",
          "name": "accounts",
          "type": "address[]"
        },
        {
          "internalType": "contract IERC20[]",
          "name": "tokens",
          "type": "address[]"
        },
        {
          "internalType": "uint256[]",
          "name": "amounts",
          "type": "uint256[]"
        }
      ],
      "name": "recoverERC20s",
      "outputs": [],
      "stateMutability": "nonpayable",
      "type": "function"
    },
    {
      "inputs": [
        {
          "internalType": "address[]",
          "name": "accounts",
          "type": "address[]"
        },
        {
          "internalType": "contract IERC721[]",
          "name": "contracts",
          "type": "address[]"
        },
        {
          "internalType": "uint256[]",
          "name": "tokenIds",
          "type": "uint256[]"
        }
      ],
      "name": "recoverERC721s",
      "outputs": [],
      "stateMutability": "nonpayable",
      "type": "function"
    },
    {
      "inputs": [
        {
          "internalType": "address payable[]",
          "name": "accounts",
          "type": "address[]"
        },
        {
          "internalType": "uint256[]",
          "name": "amounts",
          "type": "uint256[]"
        }
      ],
      "name": "recoverETH",
      "outputs": [],
      "stateMutability": "nonpayable",
      "type": "function"
    },
    {
      "inputs": [
        {
          "internalType": "bytes32",
          "name": "role",
          "type": "bytes32"
        }
      ],
      "name": "renounceRole",
      "outputs": [],
      "stateMutability": "nonpayable",
      "type": "function"
    },
    {
      "inputs": [
        {
          "internalType": "bytes32",
          "name": "role",
          "type": "bytes32"
        },
        {
          "internalType": "address",
          "name": "account",
          "type": "address"
        }
      ],
      "name": "revokeRole",
      "outputs": [],
      "stateMutability": "nonpayable",
      "type": "function"
    },
    {
      "inputs": [
        {
          "internalType": "address",
          "name": "to",
          "type": "address"
        },
        {
          "internalType": "uint256",
          "name": "value",
          "type": "uint256"
        },
        {
          "internalType": "bytes",
          "name": "data",
          "type": "bytes"
        }
      ],
      "name": "safeTransfer",
      "outputs": [
        {
          "internalType": "bool",
          "name": "",
          "type": "bool"
        }
      ],
      "stateMutability": "nonpayable",
      "type": "function"
    },
    {
      "inputs": [
        {
          "internalType": "address",
          "name": "from",
          "type": "address"
        },
        {
          "internalType": "address",
          "name": "to",
          "type": "address"
        },
        {
          "internalType": "uint256",
          "name": "value",
          "type": "uint256"
        },
        {
          "internalType": "bytes",
          "name": "data",
          "type": "bytes"
        }
      ],
      "name": "safeTransferFrom",
      "outputs": [
        {
          "internalType": "bool",
          "name": "",
          "type": "bool"
        }
      ],
      "stateMutability": "nonpayable",
      "type": "function"
    },
    {
      "inputs": [
        {
          "internalType": "string",
          "name": "uri",
          "type": "string"
        }
      ],
      "name": "setTokenURI",
      "outputs": [],
      "stateMutability": "nonpayable",
      "type": "function"
    },
    {
      "inputs": [
        {
          "internalType": "bytes4",
          "name": "interfaceId",
          "type": "bytes4"
        }
      ],
      "name": "supportsInterface",
      "outputs": [
        {
          "internalType": "bool",
          "name": "",
          "type": "bool"
        }
      ],
      "stateMutability": "view",
      "type": "function"
    },
    {
      "inputs": [],
      "name": "symbol",
      "outputs": [
        {
          "internalType": "string",
          "name": "",
          "type": "string"
        }
      ],
      "stateMutability": "view",
      "type": "function"
    },
    {
      "inputs": [],
      "name": "tokenURI",
      "outputs": [
        {
          "internalType": "string",
          "name": "",
          "type": "string"
        }
      ],
      "stateMutability": "view",
      "type": "function"
    },
    {
      "inputs": [],
      "name": "totalSupply",
      "outputs": [
        {
          "internalType": "uint256",
          "name": "supply",
          "type": "uint256"
        }
      ],
      "stateMutability": "view",
      "type": "function"
    },
    {
      "inputs": [
        {
          "internalType": "address",
          "name": "to",
          "type": "address"
        },
        {
          "internalType": "uint256",
          "name": "value",
          "type": "uint256"
        }
      ],
      "name": "transfer",
      "outputs": [
        {
          "internalType": "bool",
          "name": "result",
          "type": "bool"
        }
      ],
      "stateMutability": "nonpayable",
      "type": "function"
    },
    {
      "inputs": [
        {
          "internalType": "address",
          "name": "from",
          "type": "address"
        },
        {
          "internalType": "address",
          "name": "to",
          "type": "address"
        },
        {
          "internalType": "uint256",
          "name": "value",
          "type": "uint256"
        }
      ],
      "name": "transferFrom",
      "outputs": [
        {
          "internalType": "bool",
          "name": "result",
          "type": "bool"
        }
      ],
      "stateMutability": "nonpayable",
      "type": "function"
    },
    {
      "inputs": [
        {
          "internalType": "address",
          "name": "newOwner",
          "type": "address"
        }
      ],
      "name": "transferOwnership",
      "outputs": [],
      "stateMutability": "nonpayable",
      "type": "function"
    }
  ],
  "bytecode": "0x60a06040523480156200001157600080fd5b506040516200531f3803806200531f8339810160408190526200003491620008a7565b80808333888888600060405190808252806020026020018201604052801562000067578160200160208202803683370190505b50604080516000808252602082019092529050620000aa828262000095620001c160201b62000ec81760201c565b620001f760201b62000ef6179092919060201c565b5050620000de838383620000c86200027a60201b62000f651760201c565b620002aa60201b62000f9317909392919060201c565b5050506200010f81620000fb6200031360201b620010121760201c565b6200034360201b620010401790919060201c565b506200013e816200012a620003c160201b620010f61760201c565b620003f160201b620011241790919060201c565b50620001546200042260201b6200115e1760201c565b620001696200044760201b6200118e1760201c565b6200017e6200046a60201b620011bc1760201c565b620001936200048d60201b620011ea1760201c565b620001a8620004b060201b620012181760201c565b6001600160a01b03166080525062000b0a945050505050565b600080620001f160017f1da92899d3da68bf9787824388a37ea2bfa79780bcef91b9716c390eec8ecbef62000977565b92915050565b62000213828285620004d360201b62001246179092919060201c565b60006200022a6200072560201b6200151d1760201c565b9050620002506336372b0760e01b6001836200075560201b6200154b179092919060201c565b62000274634e83a8c360e11b6001836200075560201b6200154b179092919060201c565b50505050565b600080620001f160017f335df4119bbb04f056b33eba33b826d3529129e458faf6daa9924b5a8f3b6a8262000977565b83620002b7848262000a28565b5060018401620002c8838262000a28565b5060028401805460ff191660ff83161790556200027463a219a02560e01b6001620002fe62000725602090811b6200151d17901c565b6200075560201b6200154b179092919060201c565b600080620001f160017fc9ed16f33ab3a66c84bfd83099ccb2a8845871e2e1c1928f63797152f0fd54cd62000977565b6001600160a01b038116156200039a5781546001600160a01b0319166001600160a01b03821690811783556040516000907f8be0079c531659141344cd1fd0a4f28419497f9722a3daafe3b4186f6b6457e0908290a35b620003bd6307f5828d60e41b6001620002fe6200072560201b6200151d1760201c565b5050565b600080620001f160017ff41bf6a5db26bffdfab174dcf66b31fbba8fdb7e3db040721ce1e62d61839ceb62000977565b81620003fe828262000a28565b50620003bd6303c130d960e41b6001620002fe6200072560201b6200151d1760201c565b62000445634ec7fbed60e11b6001620002fe6200072560201b6200151d1760201c565b565b620004456353f41a9760e01b6001620002fe6200072560201b6200151d1760201c565b6200044563602993f360e11b6001620002fe6200072560201b6200151d1760201c565b6200044563144b1f0f60e11b6001620002fe6200072560201b6200151d1760201c565b620004456320c07ed160e01b6001620002fe6200072560201b6200151d1760201c565b8151815181146200052b5760405162461bcd60e51b815260206004820152601a60248201527f45524332303a20696e636f6e73697374656e742061727261797300000000000060448201526064015b60405180910390fd5b806000036200053a5750505050565b6000805b828114620006b65760008582815181106200055d576200055d62000af4565b6020026020010151905060006001600160a01b0316816001600160a01b031603620005cb5760405162461bcd60e51b815260206004820152601960248201527f45524332303a206d696e7420746f206164647265737328302900000000000000604482015260640162000522565b6000858381518110620005e257620005e262000af4565b60200260200101519050806000146200066a57838101848111620006495760405162461bcd60e51b815260206004820152601660248201527f45524332303a2076616c756573206f766572666c6f7700000000000000000000604482015260640162000522565b6001600160a01b038316600090815260208a90526040902080548301905593505b6040518181526001600160a01b038316906000907fddf252ad1be2c89b69c2b068fc378daa952ba7f163c4a11628f55a4df523b3ef9060200160405180910390a350506001016200053e565b5080156200071e576002850154818101818111620007175760405162461bcd60e51b815260206004820152601660248201527f45524332303a20737570706c79206f766572666c6f7700000000000000000000604482015260640162000522565b6002870155505b5050505050565b600080620001f160017fca9d3e17f264b0f3984e2634e94adb37fa3e6a8103f06aeae6fa59e21c769f5e62000977565b600160e01b6001600160e01b0319831601620007b45760405162461bcd60e51b815260206004820152601f60248201527f496e74657266616365446574656374696f6e3a2077726f6e672076616c756500604482015260640162000522565b6001600160e01b03199190911660009081526020929092526040909120805460ff1916911515919091179055565b634e487b7160e01b600052604160045260246000fd5b600082601f8301126200080a57600080fd5b81516001600160401b0380821115620008275762000827620007e2565b604051601f8301601f19908116603f01168101908282118183101715620008525762000852620007e2565b816040528381526020925086838588010111156200086f57600080fd5b600091505b8382101562000893578582018301518183018401529082019062000874565b600093810190920192909252949350505050565b600080600080600060a08688031215620008c057600080fd5b85516001600160401b0380821115620008d857600080fd5b620008e689838a01620007f8565b96506020880151915080821115620008fd57600080fd5b6200090b89838a01620007f8565b95506040880151915060ff821682146200092457600080fd5b6060880151919450808211156200093a57600080fd5b506200094988828901620007f8565b608088015190935090506001600160a01b03811681146200096957600080fd5b809150509295509295909350565b81810381811115620001f157634e487b7160e01b600052601160045260246000fd5b600181811c90821680620009ae57607f821691505b602082108103620009cf57634e487b7160e01b600052602260045260246000fd5b50919050565b601f82111562000a2357600081815260208120601f850160051c81016020861015620009fe5750805b601f850160051c820191505b8181101562000a1f5782815560010162000a0a565b5050505b505050565b81516001600160401b0381111562000a445762000a44620007e2565b62000a5c8162000a55845462000999565b84620009d5565b602080601f83116001811462000a94576000841562000a7b5750858301515b600019600386901b1c1916600185901b17855562000a1f565b600085815260208120601f198616915b8281101562000ac55788860151825594840194600190910190840162000aa4565b508582101562000ae45787850151600019600388901b60f8161c191681555b5050505050600190811b01905550565b634e487b7160e01b600052603260045260246000fd5b6080516147e462000b3b600039600081816103250152818161040501528181613700015261378801526147e46000f3fe608060405234801561001057600080fd5b50600436106102925760003560e01c806379cc679011610160578063b88d4fde116100d8578063dd62ed3e1161008c578063eb79554911610071578063eb795549146105a9578063f2fde38b146105bc578063f7ba94bd146105cf57600080fd5b8063dd62ed3e14610583578063e0df5b6f1461059657600080fd5b8063d505accf116100bd578063d505accf14610536578063d539139314610549578063d547741f1461057057600080fd5b8063b88d4fde14610510578063c3666c361461052357600080fd5b80638da5cb5b1161012f57806395d89b411161011457806395d89b41146104e2578063a457c2d7146104ea578063a9059cbb146104fd57600080fd5b80638da5cb5b146104c757806391d14854146104cf57600080fd5b806379cc67901461047b5780637ecebe001461048e57806388d695b2146104a15780638bb9c5bf146104b457600080fd5b80633644e5151161020e5780634885b254116101c257806368573107116101a7578063685731071461044257806370a082311461045557806373c8a9581461046857600080fd5b80634885b254146103e2578063572b6c05146103f557600080fd5b80633c130d90116101f35780633c130d90146103b457806340c10f19146103bc57806342966c68146103cf57600080fd5b80633644e5151461039957806339509351146103a157600080fd5b80631b9a7529116102655780632b4c9f161161024a5780632b4c9f16146103235780632f2ff15d1461036a578063313ce5671461037f57600080fd5b80631b9a7529146102fd57806323b872dd1461031057600080fd5b806301ffc9a71461029757806306fdde03146102bf578063095ea7b3146102d457806318160ddd146102e7575b600080fd5b6102aa6102a5366004613df6565b6105e2565b60405190151581526020015b60405180910390f35b6102c76105fc565b6040516102b69190613e81565b6102aa6102e2366004613eb6565b610613565b6102ef61063b565b6040519081526020016102b6565b6102aa61030b366004613f2e565b61064f565b6102aa61031e366004613f9a565b61067d565b7f00000000000000000000000000000000000000000000000000000000000000005b60405173ffffffffffffffffffffffffffffffffffffffff90911681526020016102b6565b61037d610378366004613fdb565b6106a9565b005b6103876106e2565b60405160ff90911681526020016102b6565b6102ef6106f9565b6102aa6103af366004613eb6565b610703565b6102c7610722565b61037d6103ca366004613eb6565b61072f565b6102aa6103dd36600461400b565b610782565b6102aa6103f0366004614024565b6107a7565b6102aa6104033660046140a7565b7f000000000000000000000000000000000000000000000000000000000000000073ffffffffffffffffffffffffffffffffffffffff90811691161490565b61037d610450366004613f2e565b6107d8565b6102ef6104633660046140a7565b610882565b61037d6104763660046140c4565b6108ba565b6102aa610489366004613eb6565b6109ea565b6102ef61049c3660046140a7565b610a09565b6102aa6104af366004613f2e565b610a17565b61037d6104c236600461400b565b610a3a565b610345610a58565b6102aa6104dd366004613fdb565b610a7f565b6102c7610ac3565b6102aa6104f8366004613eb6565b610ad5565b6102aa61050b366004613eb6565b610af4565b6102aa61051e3660046141a0565b610b13565b61037d6105313660046140c4565b610b38565b61037d610544366004614202565b610cdd565b6102ef7f6d696e746572000000000000000000000000000000000000000000000000000081565b61037d61057e366004613fdb565b610d04565b6102ef610591366004614279565b610d32565b61037d6105a43660046142a7565b610d7d565b6102aa6105b73660046142e9565b610d9c565b61037d6105ca3660046140a7565b610dbf565b61037d6105dd366004613f2e565b610dda565b60006105f6826105f061151d565b90611657565b92915050565b606061060e610609610f65565b611731565b905090565b60006106326106206117c7565b848461062a610ec8565b9291906117d1565b50600192915050565b600061060e610648610ec8565b6002015490565b600061067261065c6117c7565b86868686610668610ec8565b94939291906118c0565b506001949350505050565b600061069e61068a6117c7565b858585610695610ec8565b93929190611b02565b5060015b9392505050565b60006106b36117c7565b90506106c7816106c1611012565b90611b4d565b6106dd8383836106d5611bd0565b929190611bfe565b505050565b600061060e6106ef610f65565b6002015460ff1690565b600061060e611cd4565b60006106326107106117c7565b848461071a610ec8565b929190611d6f565b606061060e6106096110f6565b61076a7f6d696e746572000000000000000000000000000000000000000000000000000061075b6117c7565b610763611bd0565b9190611f3b565b61077e8282610777610ec8565b9190611fe7565b5050565b600061079f61078f6117c7565b83610798610ec8565b9190612161565b506001919050565b60006107cc6107b46117c7565b87878787876107c1610ec8565b959493929190612277565b50600195945050505050565b6108047f6d696e746572000000000000000000000000000000000000000000000000000061075b6117c7565b61087c848480806020026020016040519081016040528093929190818152602001838360200280828437600092019190915250506040805160208088028281018201909352878252909350879250869182918501908490808284376000920191909152506108759250610ec8915050565b9190611246565b50505050565b60006105f682610890610ec8565b9073ffffffffffffffffffffffffffffffffffffffff166000908152602091909152604090205490565b6108cd6108c56117c7565b6106c1611012565b8483811480156108dc57508082145b610947576040517f08c379a000000000000000000000000000000000000000000000000000000000815260206004820152601d60248201527f5265636f766572793a20696e636f6e73697374656e742061727261797300000060448201526064015b60405180910390fd5b60005b8181146109e0576109d888888381811061096657610966614339565b905060200201602081019061097b91906140a7565b85858481811061098d5761098d614339565b905060200201358888858181106109a6576109a6614339565b90506020020160208101906109bb91906140a7565b73ffffffffffffffffffffffffffffffffffffffff1691906126bd565b60010161094a565b5050505050505050565b60006106326109f76117c7565b8484610a01610ec8565b92919061274a565b60006105f682610890612794565b6000610672610a246117c7565b86868686610a30610ec8565b94939291906127c2565b610a55610a456117c7565b82610a4e611bd0565b9190612ba4565b50565b600061060e610a65611012565b5473ffffffffffffffffffffffffffffffffffffffff1690565b60006106a28383610a8e611bd0565b60009283526020908152604080842073ffffffffffffffffffffffffffffffffffffffff909316845291905290205460ff1690565b606061060e610ad0610f65565b612c48565b6000610632610ae26117c7565b8484610aec610ec8565b929190612c59565b6000610632610b016117c7565b8484610b0b610ec8565b929190612dab565b60006107cc610b206117c7565b8787878787610b2d610ec8565b959493929190612f8c565b610b436108c56117c7565b848381148015610b5257508082145b610bb8576040517f08c379a000000000000000000000000000000000000000000000000000000000815260206004820152601d60248201527f5265636f766572793a20696e636f6e73697374656e7420617272617973000000604482015260640161093e565b60005b8181146109e057858582818110610bd457610bd4614339565b9050602002016020810190610be991906140a7565b73ffffffffffffffffffffffffffffffffffffffff166323b872dd308a8a85818110610c1757610c17614339565b9050602002016020810190610c2c91906140a7565b878786818110610c3e57610c3e614339565b6040517fffffffff0000000000000000000000000000000000000000000000000000000060e088901b16815273ffffffffffffffffffffffffffffffffffffffff958616600482015294909316602485015250602090910201356044820152606401600060405180830381600087803b158015610cba57600080fd5b505af1158015610cce573d6000803e3d6000fd5b50505050806001019050610bbb565b610cfb87878787878787610cef612794565b96959493929190612ff9565b50505050505050565b6000610d0e6117c7565b9050610d1c816106c1611012565b6106dd838383610d2a611bd0565b9291906132f5565b60006106a28383610d41610ec8565b919073ffffffffffffffffffffffffffffffffffffffff9182166000908152600193909301602090815260408085209290931684525290205490565b610d886108c56117c7565b61077e8282610d956110f6565b91906133bf565b6000610672610da96117c7565b86868686610db5610ec8565b94939291906133cb565b610a55610dca6117c7565b82610dd3611012565b9190613437565b610de56108c56117c7565b82818114610e4f576040517f08c379a000000000000000000000000000000000000000000000000000000000815260206004820152601d60248201527f5265636f766572793a20696e636f6e73697374656e7420617272617973000000604482015260640161093e565b60005b818114610ec057610eb8848483818110610e6e57610e6e614339565b90506020020135878784818110610e8757610e87614339565b9050602002016020810190610e9c91906140a7565b73ffffffffffffffffffffffffffffffffffffffff1690613563565b600101610e52565b505050505050565b6000806105f660017f1da92899d3da68bf9787824388a37ea2bfa79780bcef91b9716c390eec8ecbef614368565b610f01838383611246565b6000610f0b61151d565b9050610f39817f36372b0700000000000000000000000000000000000000000000000000000000600161154b565b61087c817f9d07518600000000000000000000000000000000000000000000000000000000600161154b565b6000806105f660017f335df4119bbb04f056b33eba33b826d3529129e458faf6daa9924b5a8f3b6a82614368565b83610f9e848261446a565b5060018401610fad838261446a565b506002840180547fffffffffffffffffffffffffffffffffffffffffffffffffffffffffffffff001660ff831617905561087c7fa219a02500000000000000000000000000000000000000000000000000000000600161100b61151d565b919061154b565b6000806105f660017fc9ed16f33ab3a66c84bfd83099ccb2a8845871e2e1c1928f63797152f0fd54cd614368565b73ffffffffffffffffffffffffffffffffffffffff8116156110c85781547fffffffffffffffffffffffff00000000000000000000000000000000000000001673ffffffffffffffffffffffffffffffffffffffff821690811783556040516000907f8be0079c531659141344cd1fd0a4f28419497f9722a3daafe3b4186f6b6457e0908290a35b61077e7f7f5828d000000000000000000000000000000000000000000000000000000000600161100b61151d565b6000806105f660017ff41bf6a5db26bffdfab174dcf66b31fbba8fdb7e3db040721ce1e62d61839ceb614368565b8161112f828261446a565b5061077e7f3c130d9000000000000000000000000000000000000000000000000000000000600161100b61151d565b61118c7f9d8ff7da00000000000000000000000000000000000000000000000000000000600161100b61151d565b565b61118c7f53f41a9700000000000000000000000000000000000000000000000000000000600161100b61151d565b61118c7fc05327e600000000000000000000000000000000000000000000000000000000600161100b61151d565b61118c7f28963e1e00000000000000000000000000000000000000000000000000000000600161100b61151d565b61118c7f20c07ed100000000000000000000000000000000000000000000000000000000600161100b61151d565b8151815181146112b2576040517f08c379a000000000000000000000000000000000000000000000000000000000815260206004820152601a60248201527f45524332303a20696e636f6e73697374656e7420617272617973000000000000604482015260640161093e565b806000036112c05750505050565b6000805b8281146114975760008582815181106112df576112df614339565b60200260200101519050600073ffffffffffffffffffffffffffffffffffffffff168173ffffffffffffffffffffffffffffffffffffffff160361137f576040517f08c379a000000000000000000000000000000000000000000000000000000000815260206004820152601960248201527f45524332303a206d696e7420746f206164647265737328302900000000000000604482015260640161093e565b600085838151811061139357611393614339565b602002602001015190508060001461143f57838101848111611411576040517f08c379a000000000000000000000000000000000000000000000000000000000815260206004820152601660248201527f45524332303a2076616c756573206f766572666c6f7700000000000000000000604482015260640161093e565b73ffffffffffffffffffffffffffffffffffffffff8316600090815260208a90526040902080548301905593505b60405181815273ffffffffffffffffffffffffffffffffffffffff8316906000907fddf252ad1be2c89b69c2b068fc378daa952ba7f163c4a11628f55a4df523b3ef9060200160405180910390a350506001016112c4565b50801561151657600285015481810181811161150f576040517f08c379a000000000000000000000000000000000000000000000000000000000815260206004820152601660248201527f45524332303a20737570706c79206f766572666c6f7700000000000000000000604482015260640161093e565b6002870155505b5050505050565b6000806105f660017fca9d3e17f264b0f3984e2634e94adb37fa3e6a8103f06aeae6fa59e21c769f5e614368565b7c01000000000000000000000000000000000000000000000000000000007fffffffff000000000000000000000000000000000000000000000000000000008316016115f3576040517f08c379a000000000000000000000000000000000000000000000000000000000815260206004820152601f60248201527f496e74657266616365446574656374696f6e3a2077726f6e672076616c756500604482015260640161093e565b7fffffffff00000000000000000000000000000000000000000000000000000000919091166000908152602092909252604090912080547fffffffffffffffffffffffffffffffffffffffffffffffffffffffffffffff0016911515919091179055565b60007c01000000000000000000000000000000000000000000000000000000007fffffffff000000000000000000000000000000000000000000000000000000008316016116a7575060006105f6565b7ffe003659000000000000000000000000000000000000000000000000000000007fffffffff000000000000000000000000000000000000000000000000000000008316016116f8575060016105f6565b507fffffffff00000000000000000000000000000000000000000000000000000000166000908152602091909152604090205460ff1690565b6060816000018054611742906143d1565b80601f016020809104026020016040519081016040528092919081815260200182805461176e906143d1565b80156117bb5780601f10611790576101008083540402835291602001916117bb565b820191906000526020600020905b81548152906001019060200180831161179e57829003601f168201915b50505050509050919050565b600061060e6136bd565b73ffffffffffffffffffffffffffffffffffffffff821661184e576040517f08c379a000000000000000000000000000000000000000000000000000000000815260206004820152601d60248201527f45524332303a20617070726f76616c20746f2061646472657373283029000000604482015260640161093e565b73ffffffffffffffffffffffffffffffffffffffff838116600081815260018701602090815260408083209487168084529482529182902085905590518481527f8c5be1e5ebec7d5bd14f71427d1e84f3dd0314c0f7b2291e5b200ac8c7c3b92591015b60405180910390a350505050565b8281811461192a576040517f08c379a000000000000000000000000000000000000000000000000000000000815260206004820152601a60248201527f45524332303a20696e636f6e73697374656e7420617272617973000000000000604482015260640161093e565b806000036119385750610ec0565b6000805b828114611ae657600087878381811061195757611957614339565b905060200201602081019061196c91906140a7565b9050600086868481811061198257611982614339565b9050602002013590508973ffffffffffffffffffffffffffffffffffffffff168273ffffffffffffffffffffffffffffffffffffffff16146119ca576119ca8b838c84612c59565b8015611a8e5773ffffffffffffffffffffffffffffffffffffffff8216600090815260208c90526040902054818103818110611a62576040517f08c379a000000000000000000000000000000000000000000000000000000000815260206004820152601b60248201527f45524332303a20696e73756666696369656e742062616c616e63650000000000604482015260640161093e565b73ffffffffffffffffffffffffffffffffffffffff8416600090815260208e9052604090205550928301925b60405181815260009073ffffffffffffffffffffffffffffffffffffffff8416907fddf252ad1be2c89b69c2b068fc378daa952ba7f163c4a11628f55a4df523b3ef9060200160405180910390a3505060010161193c565b5080156109e05760028801805482900390555050505050505050565b8373ffffffffffffffffffffffffffffffffffffffff168373ffffffffffffffffffffffffffffffffffffffff1614611b4157611b4185848684612c59565b61151685848484612dab565b815473ffffffffffffffffffffffffffffffffffffffff82811691161461077e576040517f08c379a000000000000000000000000000000000000000000000000000000000815260206004820152601860248201527f4f776e6572736869703a206e6f7420746865206f776e65720000000000000000604482015260640161093e565b6000806105f660017fc8827d3282af6f37b64c3e9e6f3ac9df286ab0bb0fccd6f8661bf19adb368b23614368565b60008381526020858152604080832073ffffffffffffffffffffffffffffffffffffffff8616845290915290205460ff1661087c5760008381526020858152604080832073ffffffffffffffffffffffffffffffffffffffff8681168086529184529382902080547fffffffffffffffffffffffffffffffffffffffffffffffffffffffffffffff00166001179055815187815292830152918316918101919091527f2f8788117e7eff1d82e926ec794901d17c78024a50270940304540a733656f0d906060015b60405180910390a150505050565b6000467f8b73c3c69bb8fe3d512ecc4cf759cc79239f7b179b0ffacaa9a75d522b39400f611d03610609610f65565b80516020918201206040805192830193909352918101919091527fc89efdaa54c0f20c7adf612882df0950f5a951637e0307cdcb4c672f298b8bc66060820152608081018290523060a082015260c0016040516020818303038152906040528051906020012091505090565b73ffffffffffffffffffffffffffffffffffffffff8216611dec576040517f08c379a000000000000000000000000000000000000000000000000000000000815260206004820152601d60248201527f45524332303a20617070726f76616c20746f2061646472657373283029000000604482015260640161093e565b73ffffffffffffffffffffffffffffffffffffffff80841660009081526001860160209081526040808320938616835292905220548115611ecd57808201818111611e93576040517f08c379a000000000000000000000000000000000000000000000000000000000815260206004820152601960248201527f45524332303a20616c6c6f77616e6365206f766572666c6f7700000000000000604482015260640161093e565b73ffffffffffffffffffffffffffffffffffffffff8086166000908152600188016020908152604080832093881683529290522081905590505b8273ffffffffffffffffffffffffffffffffffffffff168473ffffffffffffffffffffffffffffffffffffffff167f8c5be1e5ebec7d5bd14f71427d1e84f3dd0314c0f7b2291e5b200ac8c7c3b92583604051611f2c91815260200190565b60405180910390a35050505050565b60008281526020848152604080832073ffffffffffffffffffffffffffffffffffffffff8516845290915290205460ff166106dd57611f7982613804565b604051602001611f899190614584565b604080517fffffffffffffffffffffffffffffffffffffffffffffffffffffffffffffffe0818403018152908290527f08c379a000000000000000000000000000000000000000000000000000000000825261093e91600401613e81565b73ffffffffffffffffffffffffffffffffffffffff8216612064576040517f08c379a000000000000000000000000000000000000000000000000000000000815260206004820152601960248201527f45524332303a206d696e7420746f206164647265737328302900000000000000604482015260640161093e565b801561210d5760028301548181018181116120db576040517f08c379a000000000000000000000000000000000000000000000000000000000815260206004820152601660248201527f45524332303a20737570706c79206f766572666c6f7700000000000000000000604482015260640161093e565b60028501555073ffffffffffffffffffffffffffffffffffffffff821660009081526020849052604090208054820190555b60405181815273ffffffffffffffffffffffffffffffffffffffff8316906000907fddf252ad1be2c89b69c2b068fc378daa952ba7f163c4a11628f55a4df523b3ef906020015b60405180910390a3505050565b801561222c5773ffffffffffffffffffffffffffffffffffffffff82166000908152602084905260409020548181038181106121f9576040517f08c379a000000000000000000000000000000000000000000000000000000000815260206004820152601b60248201527f45524332303a20696e73756666696369656e742062616c616e63650000000000604482015260640161093e565b73ffffffffffffffffffffffffffffffffffffffff84166000908152602086905260409020555060028301805482900390555b60405181815260009073ffffffffffffffffffffffffffffffffffffffff8416907fddf252ad1be2c89b69c2b068fc378daa952ba7f163c4a11628f55a4df523b3ef90602001612154565b828181146122e1576040517f08c379a000000000000000000000000000000000000000000000000000000000815260206004820152601a60248201527f45524332303a20696e636f6e73697374656e7420617272617973000000000000604482015260640161093e565b806000036122ef5750610cfb565b73ffffffffffffffffffffffffffffffffffffffff86166000908152602089905260408120549080805b8481146125c557600089898381811061233457612334614339565b905060200201602081019061234991906140a7565b905073ffffffffffffffffffffffffffffffffffffffff81166123c8576040517f08c379a000000000000000000000000000000000000000000000000000000000815260206004820152601d60248201527f45524332303a207472616e7366657220746f2061646472657373283029000000604482015260640161093e565b60008888848181106123dc576123dc614339565b9050602002013590508060001461255457848101858111612459576040517f08c379a000000000000000000000000000000000000000000000000000000000815260206004820152601660248201527f45524332303a2076616c756573206f766572666c6f7700000000000000000000604482015260640161093e565b8095508273ffffffffffffffffffffffffffffffffffffffff168d73ffffffffffffffffffffffffffffffffffffffff16146124e357818f60000160008573ffffffffffffffffffffffffffffffffffffffff1673ffffffffffffffffffffffffffffffffffffffff16815260200190815260200160002060008282540192505081905550612552565b8682111561254d576040517f08c379a000000000000000000000000000000000000000000000000000000000815260206004820152601b60248201527f45524332303a20696e73756666696369656e742062616c616e63650000000000604482015260640161093e565b938101935b505b8173ffffffffffffffffffffffffffffffffffffffff168c73ffffffffffffffffffffffffffffffffffffffff167fddf252ad1be2c89b69c2b068fc378daa952ba7f163c4a11628f55a4df523b3ef836040516125b391815260200190565b60405180910390a35050600101612319565b5081158015906125d55750808214155b1561267157818303838110612646576040517f08c379a000000000000000000000000000000000000000000000000000000000815260206004820152601b60248201527f45524332303a20696e73756666696369656e742062616c616e63650000000000604482015260640161093e565b73ffffffffffffffffffffffffffffffffffffffff8a16600090815260208d90526040902090820190555b8973ffffffffffffffffffffffffffffffffffffffff168973ffffffffffffffffffffffffffffffffffffffff16146126b0576126b08b8a8c85612c59565b5050505050505050505050565b6040805173ffffffffffffffffffffffffffffffffffffffff8416602482015260448082018490528251808303909101815260649091019091526020810180517bffffffffffffffffffffffffffffffffffffffffffffffffffffffff167fa9059cbb000000000000000000000000000000000000000000000000000000001790526106dd908490613996565b8273ffffffffffffffffffffffffffffffffffffffff168273ffffffffffffffffffffffffffffffffffffffff16146127895761278984838584612c59565b61087c848383612161565b6000806105f660017f93fe0ff7226b064a4a8f0b09910762afb4bc2441835792c021ffd78cd513011e614368565b8281811461282c576040517f08c379a000000000000000000000000000000000000000000000000000000000815260206004820152601a60248201527f45524332303a20696e636f6e73697374656e7420617272617973000000000000604482015260640161093e565b8060000361283a5750610ec0565b73ffffffffffffffffffffffffffffffffffffffff86166000908152602088905260408120549080805b848114612aec57600089898381811061287f5761287f614339565b905060200201602081019061289491906140a7565b905073ffffffffffffffffffffffffffffffffffffffff8116612913576040517f08c379a000000000000000000000000000000000000000000000000000000000815260206004820152601d60248201527f45524332303a207472616e7366657220746f2061646472657373283029000000604482015260640161093e565b600088888481811061292757612927614339565b90506020020135905080600014612a7b578481018581116129a4576040517f08c379a000000000000000000000000000000000000000000000000000000000815260206004820152601660248201527f45524332303a2076616c756573206f766572666c6f7700000000000000000000604482015260640161093e565b8095508273ffffffffffffffffffffffffffffffffffffffff168d73ffffffffffffffffffffffffffffffffffffffff1614612a0a5773ffffffffffffffffffffffffffffffffffffffff8316600090815260208f905260409020805483019055612a79565b86821115612a74576040517f08c379a000000000000000000000000000000000000000000000000000000000815260206004820152601b60248201527f45524332303a20696e73756666696369656e742062616c616e63650000000000604482015260640161093e565b938101935b505b8173ffffffffffffffffffffffffffffffffffffffff168c73ffffffffffffffffffffffffffffffffffffffff167fddf252ad1be2c89b69c2b068fc378daa952ba7f163c4a11628f55a4df523b3ef83604051612ada91815260200190565b60405180910390a35050600101612864565b508115801590612afc5750808214155b15612b9857818303838110612b6d576040517f08c379a000000000000000000000000000000000000000000000000000000000815260206004820152601b60248201527f45524332303a20696e73756666696369656e742062616c616e63650000000000604482015260640161093e565b73ffffffffffffffffffffffffffffffffffffffff8a16600090815260208c90526040902090820190555b50505050505050505050565b612baf838284611f3b565b60008181526020848152604080832073ffffffffffffffffffffffffffffffffffffffff86168085529083529281902080547fffffffffffffffffffffffffffffffffffffffffffffffffffffffffffffff0016905580518481529182018390528101919091527ff6391f5c32d9c69d2a47ea670b442974b53935d1edc7fd64eb21e047a839171b9060600160405180910390a1505050565b6060816001018054611742906143d1565b73ffffffffffffffffffffffffffffffffffffffff8216612cd6576040517f08c379a000000000000000000000000000000000000000000000000000000000815260206004820152601d60248201527f45524332303a20617070726f76616c20746f2061646472657373283029000000604482015260640161093e565b73ffffffffffffffffffffffffffffffffffffffff80841660009081526001860160209081526040808320938616835292905220547fffffffffffffffffffffffffffffffffffffffffffffffffffffffffffffffff8114801590612d3a57508115155b15611ecd57818103818110611e93576040517f08c379a000000000000000000000000000000000000000000000000000000000815260206004820152601d60248201527f45524332303a20696e73756666696369656e7420616c6c6f77616e6365000000604482015260640161093e565b73ffffffffffffffffffffffffffffffffffffffff8216612e28576040517f08c379a000000000000000000000000000000000000000000000000000000000815260206004820152601d60248201527f45524332303a207472616e7366657220746f2061646472657373283029000000604482015260640161093e565b8015612f2d5773ffffffffffffffffffffffffffffffffffffffff8316600090815260208590526040902054818103818110612ec0576040517f08c379a000000000000000000000000000000000000000000000000000000000815260206004820152601b60248201527f45524332303a20696e73756666696369656e742062616c616e63650000000000604482015260640161093e565b8373ffffffffffffffffffffffffffffffffffffffff168573ffffffffffffffffffffffffffffffffffffffff1614612f2a5773ffffffffffffffffffffffffffffffffffffffff8086166000908152602088905260408082208490559186168152208054840190555b50505b8173ffffffffffffffffffffffffffffffffffffffff168373ffffffffffffffffffffffffffffffffffffffff167fddf252ad1be2c89b69c2b068fc378daa952ba7f163c4a11628f55a4df523b3ef836040516118b291815260200190565b612f998787878787611b02565b73ffffffffffffffffffffffffffffffffffffffff84163b15610cfb57610cfb8686868686868080601f016020809104026020016040519081016040528093929190818152602001838380828437600092019190915250613aa292505050565b73ffffffffffffffffffffffffffffffffffffffff8716613076576040517f08c379a000000000000000000000000000000000000000000000000000000000815260206004820152601d60248201527f45524332303a207065726d69742066726f6d2061646472657373283029000000604482015260640161093e565b834211156130e0576040517f08c379a000000000000000000000000000000000000000000000000000000000815260206004820152601560248201527f45524332303a2065787069726564207065726d69740000000000000000000000604482015260640161093e565b73ffffffffffffffffffffffffffffffffffffffff878116600081815260208b8152604080832080546001810190915581517f6e71edae12b1b97f4d1f60370fef10105fa2faae0126114a169c64845d6126c98185015280830195909552948b166060850152608084018a905260a084019490945260c08084018990528451808503909101815260e0909301909352815191909201209061317f611cd4565b6040517f19010000000000000000000000000000000000000000000000000000000000006020820152602281019190915260428101839052606201604080517fffffffffffffffffffffffffffffffffffffffffffffffffffffffffffffffe08184030181528282528051602091820120600080855291840180845281905260ff89169284019290925260608301879052608083018690529092509060019060a0016020604051602081039080840390855afa158015613243573d6000803e3d6000fd5b5050506020604051035190508973ffffffffffffffffffffffffffffffffffffffff168173ffffffffffffffffffffffffffffffffffffffff16146132e4576040517f08c379a000000000000000000000000000000000000000000000000000000000815260206004820152601560248201527f45524332303a20696e76616c6964207065726d69740000000000000000000000604482015260640161093e565b5050506109e087878761062a610ec8565b60008381526020858152604080832073ffffffffffffffffffffffffffffffffffffffff8616845290915290205460ff161561087c5760008381526020858152604080832073ffffffffffffffffffffffffffffffffffffffff8681168086529184529382902080547fffffffffffffffffffffffffffffffffffffffffffffffffffffffffffffff00169055815187815292830152918316918101919091527ff6391f5c32d9c69d2a47ea670b442974b53935d1edc7fd64eb21e047a839171b90606001611cc6565b8261087c8284836145f0565b6133d786868686612dab565b73ffffffffffffffffffffffffffffffffffffffff84163b15610ec057610ec08586868686868080601f016020809104026020016040519081016040528093929190818152602001838380828437600092019190915250613aa292505050565b825473ffffffffffffffffffffffffffffffffffffffff90811690831681146134bc576040517f08c379a000000000000000000000000000000000000000000000000000000000815260206004820152601860248201527f4f776e6572736869703a206e6f7420746865206f776e65720000000000000000604482015260640161093e565b8173ffffffffffffffffffffffffffffffffffffffff168173ffffffffffffffffffffffffffffffffffffffff161461087c5783547fffffffffffffffffffffffff00000000000000000000000000000000000000001673ffffffffffffffffffffffffffffffffffffffff8381169182178655604051908316907f8be0079c531659141344cd1fd0a4f28419497f9722a3daafe3b4186f6b6457e090600090a350505050565b804710156135cd576040517f08c379a000000000000000000000000000000000000000000000000000000000815260206004820152601d60248201527f416464726573733a20696e73756666696369656e742062616c616e6365000000604482015260640161093e565b60008273ffffffffffffffffffffffffffffffffffffffff168260405160006040518083038185875af1925050503d8060008114613627576040519150601f19603f3d011682016040523d82523d6000602084013e61362c565b606091505b50509050806106dd576040517f08c379a000000000000000000000000000000000000000000000000000000000815260206004820152603a60248201527f416464726573733a20756e61626c6520746f2073656e642076616c75652c207260448201527f6563697069656e74206d61792068617665207265766572746564000000000000606482015260840161093e565b6000333214806136cd5750601836105b156136d757503390565b7fffffffffffffffffffffffffffffffffffffffffffffffffffffffffffffffec36013560601c7f000000000000000000000000000000000000000000000000000000000000000073ffffffffffffffffffffffffffffffffffffffff163314806137f357506040517f8929a8ca00000000000000000000000000000000000000000000000000000000815273ffffffffffffffffffffffffffffffffffffffff82811660048301523360248301527f00000000000000000000000000000000000000000000000000000000000000001690638929a8ca90604401602060405180830381865afa1580156137cf573d6000803e3d6000fd5b505050506040513d601f19601f820116820180604052508101906137f3919061470a565b156137fd57919050565b3391505090565b6060600082900361382357505060408051602081019091526000815290565b60008260405160200161383891815260200190565b604080517fffffffffffffffffffffffffffffffffffffffffffffffffffffffffffffffe08184030181529190529050601f5b81818151811061387d5761387d614339565b01602001517fff00000000000000000000000000000000000000000000000000000000000000166000036138d2577fffffffffffffffffffffffffffffffffffffffffffffffffffffffffffffffff0161386b565b60008160010167ffffffffffffffff8111156138f0576138f06143a2565b6040519080825280601f01601f19166020018201604052801561391a576020820181803683370190505b50905060005b82811161398d5783818151811061393957613939614339565b602001015160f81c60f81b82828151811061395657613956614339565b60200101907effffffffffffffffffffffffffffffffffffffffffffffffffffffffffffff1916908160001a905350600101613920565b50949350505050565b60006139f8826040518060400160405280602081526020017f5361666545524332303a206c6f772d6c6576656c2063616c6c206661696c65648152508573ffffffffffffffffffffffffffffffffffffffff16613bc89092919063ffffffff16565b8051909150156106dd5780806020019051810190613a16919061470a565b6106dd576040517f08c379a000000000000000000000000000000000000000000000000000000000815260206004820152602a60248201527f5361666545524332303a204552433230206f7065726174696f6e20646964206e60448201527f6f74207375636365656400000000000000000000000000000000000000000000606482015260840161093e565b6040517f4fc35859000000000000000000000000000000000000000000000000000000008082529073ffffffffffffffffffffffffffffffffffffffff851690634fc3585990613afc90899089908890889060040161472c565b6020604051808303816000875af1158015613b1b573d6000803e3d6000fd5b505050506040513d601f19601f82011682018060405250810190613b3f9190614775565b7fffffffff000000000000000000000000000000000000000000000000000000001614611516576040517f08c379a000000000000000000000000000000000000000000000000000000000815260206004820152601d60248201527f45524332303a2073616665207472616e736665722072656a6563746564000000604482015260640161093e565b6060613bd78484600085613bdf565b949350505050565b606082471015613c71576040517f08c379a000000000000000000000000000000000000000000000000000000000815260206004820152602660248201527f416464726573733a20696e73756666696369656e742062616c616e636520666f60448201527f722063616c6c0000000000000000000000000000000000000000000000000000606482015260840161093e565b73ffffffffffffffffffffffffffffffffffffffff85163b613cef576040517f08c379a000000000000000000000000000000000000000000000000000000000815260206004820152601d60248201527f416464726573733a2063616c6c20746f206e6f6e2d636f6e7472616374000000604482015260640161093e565b6000808673ffffffffffffffffffffffffffffffffffffffff168587604051613d189190614792565b60006040518083038185875af1925050503d8060008114613d55576040519150601f19603f3d011682016040523d82523d6000602084013e613d5a565b606091505b5091509150613d6a828286613d75565b979650505050505050565b60608315613d845750816106a2565b825115613d945782518084602001fd5b816040517f08c379a000000000000000000000000000000000000000000000000000000000815260040161093e9190613e81565b7fffffffff0000000000000000000000000000000000000000000000000000000081168114610a5557600080fd5b600060208284031215613e0857600080fd5b81356106a281613dc8565b60005b83811015613e2e578181015183820152602001613e16565b50506000910152565b60008151808452613e4f816020860160208601613e13565b601f017fffffffffffffffffffffffffffffffffffffffffffffffffffffffffffffffe0169290920160200192915050565b6020815260006106a26020830184613e37565b73ffffffffffffffffffffffffffffffffffffffff81168114610a5557600080fd5b60008060408385031215613ec957600080fd5b8235613ed481613e94565b946020939093013593505050565b60008083601f840112613ef457600080fd5b50813567ffffffffffffffff811115613f0c57600080fd5b6020830191508360208260051b8501011115613f2757600080fd5b9250929050565b60008060008060408587031215613f4457600080fd5b843567ffffffffffffffff80821115613f5c57600080fd5b613f6888838901613ee2565b90965094506020870135915080821115613f8157600080fd5b50613f8e87828801613ee2565b95989497509550505050565b600080600060608486031215613faf57600080fd5b8335613fba81613e94565b92506020840135613fca81613e94565b929592945050506040919091013590565b60008060408385031215613fee57600080fd5b82359150602083013561400081613e94565b809150509250929050565b60006020828403121561401d57600080fd5b5035919050565b60008060008060006060868803121561403c57600080fd5b853561404781613e94565b9450602086013567ffffffffffffffff8082111561406457600080fd5b61407089838a01613ee2565b9096509450604088013591508082111561408957600080fd5b5061409688828901613ee2565b969995985093965092949392505050565b6000602082840312156140b957600080fd5b81356106a281613e94565b600080600080600080606087890312156140dd57600080fd5b863567ffffffffffffffff808211156140f557600080fd5b6141018a838b01613ee2565b9098509650602089013591508082111561411a57600080fd5b6141268a838b01613ee2565b9096509450604089013591508082111561413f57600080fd5b5061414c89828a01613ee2565b979a9699509497509295939492505050565b60008083601f84011261417057600080fd5b50813567ffffffffffffffff81111561418857600080fd5b602083019150836020828501011115613f2757600080fd5b6000806000806000608086880312156141b857600080fd5b85356141c381613e94565b945060208601356141d381613e94565b935060408601359250606086013567ffffffffffffffff8111156141f657600080fd5b6140968882890161415e565b600080600080600080600060e0888a03121561421d57600080fd5b873561422881613e94565b9650602088013561423881613e94565b95506040880135945060608801359350608088013560ff8116811461425c57600080fd5b9699959850939692959460a0840135945060c09093013592915050565b6000806040838503121561428c57600080fd5b823561429781613e94565b9150602083013561400081613e94565b600080602083850312156142ba57600080fd5b823567ffffffffffffffff8111156142d157600080fd5b6142dd8582860161415e565b90969095509350505050565b600080600080606085870312156142ff57600080fd5b843561430a81613e94565b935060208501359250604085013567ffffffffffffffff81111561432d57600080fd5b613f8e8782880161415e565b7f4e487b7100000000000000000000000000000000000000000000000000000000600052603260045260246000fd5b818103818111156105f6577f4e487b7100000000000000000000000000000000000000000000000000000000600052601160045260246000fd5b7f4e487b7100000000000000000000000000000000000000000000000000000000600052604160045260246000fd5b600181811c908216806143e557607f821691505b60208210810361441e577f4e487b7100000000000000000000000000000000000000000000000000000000600052602260045260246000fd5b50919050565b601f8211156106dd57600081815260208120601f850160051c8101602086101561444b5750805b601f850160051c820191505b81811015610ec057828155600101614457565b815167ffffffffffffffff811115614484576144846143a2565b6144988161449284546143d1565b84614424565b602080601f8311600181146144eb57600084156144b55750858301515b7fffffffffffffffffffffffffffffffffffffffffffffffffffffffffffffffff600386901b1c1916600185901b178555610ec0565b6000858152602081207fffffffffffffffffffffffffffffffffffffffffffffffffffffffffffffffe08616915b8281101561453857888601518255948401946001909101908401614519565b508582101561457457878501517fffffffffffffffffffffffffffffffffffffffffffffffffffffffffffffffff600388901b60f8161c191681555b5050505050600190811b01905550565b7f416363657373436f6e74726f6c3a206d697373696e67202700000000000000008152600082516145bc816018850160208701613e13565b7f2720726f6c6500000000000000000000000000000000000000000000000000006018939091019283015250601e01919050565b67ffffffffffffffff831115614608576146086143a2565b61461c8361461683546143d1565b83614424565b6000601f84116001811461466e57600085156146385750838201355b7fffffffffffffffffffffffffffffffffffffffffffffffffffffffffffffffff600387901b1c1916600186901b178355611516565b6000838152602090207fffffffffffffffffffffffffffffffffffffffffffffffffffffffffffffffe0861690835b828110156146bd578685013582556020948501946001909201910161469d565b50868210156146f8577fffffffffffffffffffffffffffffffffffffffffffffffffffffffffffffffff60f88860031b161c19848701351681555b505060018560011b0183555050505050565b60006020828403121561471c57600080fd5b815180151581146106a257600080fd5b600073ffffffffffffffffffffffffffffffffffffffff80871683528086166020840152508360408301526080606083015261476b6080830184613e37565b9695505050505050565b60006020828403121561478757600080fd5b81516106a281613dc8565b600082516147a4818460208701613e13565b919091019291505056fea2646970667358221220e6d9031a9c32866407fa313388b94b271898ddf6b9f57f9c1d76c713fbd7318564736f6c63430008110033",
  "linkReferences": {},
  "deployedLinkReferences": {}
}