{
  "_format": "hh-sol-artifact-1",
  "contractName": "FusionFacet",
  "sourceName": "contracts/token/fusion/facets/FusionFacet.sol",
  "abi": [
    {
      "inputs": [
        {
          "internalType": "uint256",
          "name": "blueprintId",
          "type": "uint256"
        }
      ],
      "name": "blueprint",
      "outputs": [
        {
          "internalType": "address",
          "name": "",
          "type": "address"
        }
      ],
      "stateMutability": "view",
      "type": "function"
    },
    {
      "inputs": [],
      "name": "cars",
      "outputs": [
        {
          "internalType": "contract IREVVRacingCar",
          "name": "",
          "type": "address"
        }
      ],
      "stateMutability": "view",
      "type": "function"
    },
    {
      "inputs": [],
      "name": "catalysts",
      "outputs": [
        {
          "internalType": "contract IREVVMotorsportCatalyst",
          "name": "",
          "type": "address"
        }
      ],
      "stateMutability": "view",
      "type": "function"
    },
    {
      "inputs": [],
      "name": "counters",
      "outputs": [
        {
          "internalType": "contract IChassisCounters",
          "name": "",
          "type": "address"
        }
      ],
      "stateMutability": "view",
      "type": "function"
    },
    {
      "inputs": [
        {
          "internalType": "contract IREVVRacingCar",
          "name": "cars_",
          "type": "address"
        },
        {
          "internalType": "contract IREVVMotorsportCatalyst",
          "name": "catalysts_",
          "type": "address"
        },
        {
          "internalType": "contract IREVV",
          "name": "revv_",
          "type": "address"
        },
        {
          "internalType": "contract IChassisCounters",
          "name": "counters_",
          "type": "address"
        },
        {
          "internalType": "address",
          "name": "payoutWallet_",
          "type": "address"
        },
        {
          "internalType": "address",
          "name": "yard_",
          "type": "address"
        }
      ],
      "name": "initFusionStorage",
      "outputs": [],
      "stateMutability": "nonpayable",
      "type": "function"
    },
    {
      "inputs": [
        {
          "internalType": "address",
          "name": "",
          "type": "address"
        },
        {
          "internalType": "address",
          "name": "",
          "type": "address"
        },
        {
          "internalType": "uint256[]",
          "name": "",
          "type": "uint256[]"
        },
        {
          "internalType": "uint256[]",
          "name": "",
          "type": "uint256[]"
        },
        {
          "internalType": "bytes",
          "name": "data",
          "type": "bytes"
        }
      ],
      "name": "onERC1155BatchReceived",
      "outputs": [
        {
          "internalType": "bytes4",
          "name": "",
          "type": "bytes4"
        }
      ],
      "stateMutability": "nonpayable",
      "type": "function"
    },
    {
      "inputs": [
        {
          "internalType": "address",
          "name": "",
          "type": "address"
        },
        {
          "internalType": "address",
          "name": "",
          "type": "address"
        },
        {
          "internalType": "uint256",
          "name": "",
          "type": "uint256"
        },
        {
          "internalType": "uint256",
          "name": "",
          "type": "uint256"
        },
        {
          "internalType": "bytes",
          "name": "data",
          "type": "bytes"
        }
      ],
      "name": "onERC1155Received",
      "outputs": [
        {
          "internalType": "bytes4",
          "name": "",
          "type": "bytes4"
        }
      ],
      "stateMutability": "nonpayable",
      "type": "function"
    },
    {
      "inputs": [],
      "name": "payoutWallet",
      "outputs": [
        {
          "internalType": "address",
          "name": "",
          "type": "address"
        }
      ],
      "stateMutability": "view",
      "type": "function"
    },
    {
      "inputs": [],
      "name": "revv",
      "outputs": [
        {
          "internalType": "contract IREVV",
          "name": "",
          "type": "address"
        }
      ],
      "stateMutability": "view",
      "type": "function"
    },
    {
      "inputs": [
        {
          "internalType": "uint256",
          "name": "blueprintId",
          "type": "uint256"
        },
        {
          "internalType": "address",
          "name": "blueprint_",
          "type": "address"
        }
      ],
      "name": "setBlueprint",
      "outputs": [],
      "stateMutability": "nonpayable",
      "type": "function"
    },
    {
      "inputs": [
        {
          "internalType": "address",
          "name": "payoutWallet_",
          "type": "address"
        }
      ],
      "name": "setPayoutWallet",
      "outputs": [],
      "stateMutability": "nonpayable",
      "type": "function"
    },
    {
      "inputs": [],
      "name": "yard",
      "outputs": [
        {
          "internalType": "address",
          "name": "",
          "type": "address"
        }
      ],
      "stateMutability": "view",
      "type": "function"
    }
  ],
  "bytecode": "0x608060405234801561001057600080fd5b506108c6806100206000396000f3fe608060405234801561001057600080fd5b50600436106100d45760003560e01c80639b09835211610081578063d0e546721161005b578063d0e5467214610336578063f23a6e611461033e578063f7210633146103d3576100d4565b80639b0983521461017e578063bc197c8114610186578063c3a1250c146102e8576100d4565b80636b8f9c43116100b25780636b8f9c43146101485780638488bb4e1461016e5780639a7ffc5714610176576100d4565b806343dfd0b8146100d95780634d7e1da61461010757806363df8f8f1461012b575b600080fd5b610105600480360360408110156100ef57600080fd5b50803590602001356001600160a01b03166103db565b005b61010f6103f1565b604080516001600160a01b039092168252519081900360200190f35b61010f6004803603602081101561014157600080fd5b503561040f565b6101056004803603602081101561015e57600080fd5b50356001600160a01b0316610438565b61010f61044c565b61010f61046a565b61010f610488565b6102b3600480360360a081101561019c57600080fd5b6001600160a01b0382358116926020810135909116918101906060810160408201356401000000008111156101d057600080fd5b8201836020820111156101e257600080fd5b8035906020019184602083028401116401000000008311171561020457600080fd5b91939092909160208101903564010000000081111561022257600080fd5b82018360208201111561023457600080fd5b8035906020019184602083028401116401000000008311171561025657600080fd5b91939092909160208101903564010000000081111561027457600080fd5b82018360208201111561028657600080fd5b803590602001918460018302840111640100000000831117156102a857600080fd5b5090925090506104a6565b604080517fffffffff000000000000000000000000000000000000000000000000000000009092168252519081900360200190f35b610105600480360360c08110156102fe57600080fd5b506001600160a01b038135811691602081013582169160408201358116916060810135821691608082013581169160a00135166104cf565b61010f610536565b6102b3600480360360a081101561035457600080fd5b6001600160a01b03823581169260208101359091169160408201359160608101359181019060a08101608082013564010000000081111561039457600080fd5b8201836020820111156103a657600080fd5b803590602001918460018302840111640100000000831117156103c857600080fd5b509092509050610554565b61010f610574565b6103e3610592565b6103ed82826105d0565b5050565b6000806103fc610617565b600401546001600160a01b031691505090565b60008061041a610617565b6000938452600101602052505060409020546001600160a01b031690565b610440610592565b6104498161063b565b50565b600080610457610617565b600601546001600160a01b031691505090565b600080610475610617565b600201546001600160a01b031691505090565b600080610493610617565b600701546001600160a01b031691505090565b60006104c2838360208110156104bb57600080fd5b5035610677565b9998505050505050505050565b6104d7610592565b60006104e1610715565b7f4e2312e00000000000000000000000000000000000000000000000000000000060009081526003820160205260409020805460ff19166001179055905061052d878787878787610739565b50505050505050565b600080610541610617565b600301546001600160a01b031691505090565b6000610569838360208110156104bb57600080fd5b979650505050505050565b60008061057f610617565b600501546001600160a01b031691505090565b61059a610715565b600401546001600160a01b031633146105ce5760405162461bcd60e51b81526004016105c590610833565b60405180910390fd5b565b60006105da610617565b6000938452600101602052506040909120805473ffffffffffffffffffffffffffffffffffffffff19166001600160a01b03909216919091179055565b7f017c151499bd0a073c21e62300fb5d151700bdb9cadb076d36eb827db755ced690565b6000610645610617565b600601805473ffffffffffffffffffffffffffffffffffffffff19166001600160a01b03939093169290921790915550565b600080610682610617565b60008481526001820160205260409020549091506001600160a01b0316806106f1576040805162461bcd60e51b815260206004820152601e60248201527f467573696f6e3a206e6f6e2d6578697374656e7420626c75657072696e740000604482015290519081900360640190fd5b3660008037600080366000845af43d6000803e808015610710573d6000f35b3d6000fd5b7fc8fcad8db84d3cc18b4c41d551ea0ee66dd599cde068d998e57d5e09332c131c90565b6000610743610617565b805490915060ff161561079d576040805162461bcd60e51b815260206004820152601b60248201527f467573696f6e3a2073746f7261676520696e697469616c697365640000000000604482015290519081900360640190fd5b805460ff191660011781556002810180546001600160a01b0398891673ffffffffffffffffffffffffffffffffffffffff199182161790915560038201805497891697821697909717909655600481018054958816958716959095179094556005840180549387169386169390931790925560068301805491861691851691909117905560079091018054919093169116179055565b60208082526022908201527f4c69624469616d6f6e643a204d75737420626520636f6e7472616374206f776e60408201527f657200000000000000000000000000000000000000000000000000000000000060608201526080019056fea2646970667358221220c33fbf4abf9216b9aab8a1756522ef072d019b1008cffc243f8e391a8bd87faf64736f6c63430007060033",
  "linkReferences": {},
  "deployedLinkReferences": {}
}