{
  "_format": "hh-sol-artifact-1",
  "contractName": "REVVMotorsportVouchersMock",
  "sourceName": "contracts/mocks/token/ERC1155/REVVMotorsportVouchersMock.sol",
  "abi": [
    {
      "inputs": [
        {
          "internalType": "contract IForwarderRegistry",
          "name": "forwarderRegistry",
          "type": "address"
        }
      ],
      "stateMutability": "nonpayable",
      "type": "constructor"
    },
    {
      "anonymous": false,
      "inputs": [
        {
          "indexed": true,
          "internalType": "address",
          "name": "owner",
          "type": "address"
        },
        {
          "indexed": true,
          "internalType": "address",
          "name": "operator",
          "type": "address"
        },
        {
          "indexed": false,
          "internalType": "bool",
          "name": "approved",
          "type": "bool"
        }
      ],
      "name": "ApprovalForAll",
      "type": "event"
    },
    {
      "anonymous": false,
      "inputs": [
        {
          "indexed": false,
          "internalType": "string",
          "name": "baseMetadataURI",
          "type": "string"
        }
      ],
      "name": "BaseMetadataURISet",
      "type": "event"
    },
    {
      "anonymous": false,
      "inputs": [
        {
          "indexed": true,
          "internalType": "address",
          "name": "previousOwner",
          "type": "address"
        },
        {
          "indexed": true,
          "internalType": "address",
          "name": "newOwner",
          "type": "address"
        }
      ],
      "name": "OwnershipTransferred",
      "type": "event"
    },
    {
      "anonymous": false,
      "inputs": [
        {
          "indexed": false,
          "internalType": "bytes32",
          "name": "role",
          "type": "bytes32"
        },
        {
          "indexed": false,
          "internalType": "address",
          "name": "account",
          "type": "address"
        },
        {
          "indexed": false,
          "internalType": "address",
          "name": "operator",
          "type": "address"
        }
      ],
      "name": "RoleGranted",
      "type": "event"
    },
    {
      "anonymous": false,
      "inputs": [
        {
          "indexed": false,
          "internalType": "bytes32",
          "name": "role",
          "type": "bytes32"
        },
        {
          "indexed": false,
          "internalType": "address",
          "name": "account",
          "type": "address"
        },
        {
          "indexed": false,
          "internalType": "address",
          "name": "operator",
          "type": "address"
        }
      ],
      "name": "RoleRevoked",
      "type": "event"
    },
    {
      "anonymous": false,
      "inputs": [
        {
          "indexed": true,
          "internalType": "address",
          "name": "operator",
          "type": "address"
        },
        {
          "indexed": true,
          "internalType": "address",
          "name": "from",
          "type": "address"
        },
        {
          "indexed": true,
          "internalType": "address",
          "name": "to",
          "type": "address"
        },
        {
          "indexed": false,
          "internalType": "uint256[]",
          "name": "ids",
          "type": "uint256[]"
        },
        {
          "indexed": false,
          "internalType": "uint256[]",
          "name": "values",
          "type": "uint256[]"
        }
      ],
      "name": "TransferBatch",
      "type": "event"
    },
    {
      "anonymous": false,
      "inputs": [
        {
          "indexed": true,
          "internalType": "address",
          "name": "operator",
          "type": "address"
        },
        {
          "indexed": true,
          "internalType": "address",
          "name": "from",
          "type": "address"
        },
        {
          "indexed": true,
          "internalType": "address",
          "name": "to",
          "type": "address"
        },
        {
          "indexed": false,
          "internalType": "uint256",
          "name": "id",
          "type": "uint256"
        },
        {
          "indexed": false,
          "internalType": "uint256",
          "name": "value",
          "type": "uint256"
        }
      ],
      "name": "TransferSingle",
      "type": "event"
    },
    {
      "anonymous": false,
      "inputs": [
        {
          "indexed": false,
          "internalType": "string",
          "name": "value",
          "type": "string"
        },
        {
          "indexed": true,
          "internalType": "uint256",
          "name": "id",
          "type": "uint256"
        }
      ],
      "name": "URI",
      "type": "event"
    },
    {
      "inputs": [],
      "name": "MINTER_ROLE",
      "outputs": [
        {
          "internalType": "bytes32",
          "name": "",
          "type": "bytes32"
        }
      ],
      "stateMutability": "view",
      "type": "function"
    },
    {
      "inputs": [],
      "name": "__msgData",
      "outputs": [
        {
          "internalType": "bytes",
          "name": "",
          "type": "bytes"
        }
      ],
      "stateMutability": "view",
      "type": "function"
    },
    {
      "inputs": [
        {
          "internalType": "address",
          "name": "owner",
          "type": "address"
        },
        {
          "internalType": "uint256",
          "name": "id",
          "type": "uint256"
        }
      ],
      "name": "balanceOf",
      "outputs": [
        {
          "internalType": "uint256",
          "name": "balance",
          "type": "uint256"
        }
      ],
      "stateMutability": "view",
      "type": "function"
    },
    {
      "inputs": [
        {
          "internalType": "address[]",
          "name": "owners",
          "type": "address[]"
        },
        {
          "internalType": "uint256[]",
          "name": "ids",
          "type": "uint256[]"
        }
      ],
      "name": "balanceOfBatch",
      "outputs": [
        {
          "internalType": "uint256[]",
          "name": "balances",
          "type": "uint256[]"
        }
      ],
      "stateMutability": "view",
      "type": "function"
    },
    {
      "inputs": [],
      "name": "baseMetadataURI",
      "outputs": [
        {
          "internalType": "string",
          "name": "baseURI",
          "type": "string"
        }
      ],
      "stateMutability": "view",
      "type": "function"
    },
    {
      "inputs": [
        {
          "internalType": "address",
          "name": "from",
          "type": "address"
        },
        {
          "internalType": "uint256[]",
          "name": "ids",
          "type": "uint256[]"
        },
        {
          "internalType": "uint256[]",
          "name": "values",
          "type": "uint256[]"
        }
      ],
      "name": "batchBurnFrom",
      "outputs": [],
      "stateMutability": "nonpayable",
      "type": "function"
    },
    {
      "inputs": [
        {
          "internalType": "address",
          "name": "from",
          "type": "address"
        },
        {
          "internalType": "uint256",
          "name": "id",
          "type": "uint256"
        },
        {
          "internalType": "uint256",
          "name": "value",
          "type": "uint256"
        }
      ],
      "name": "burnFrom",
      "outputs": [],
      "stateMutability": "nonpayable",
      "type": "function"
    },
    {
      "inputs": [],
      "name": "forwarderRegistry",
      "outputs": [
        {
          "internalType": "contract IForwarderRegistry",
          "name": "",
          "type": "address"
        }
      ],
      "stateMutability": "view",
      "type": "function"
    },
    {
      "inputs": [
        {
          "internalType": "bytes32",
          "name": "role",
          "type": "bytes32"
        },
        {
          "internalType": "address",
          "name": "account",
          "type": "address"
        }
      ],
      "name": "grantRole",
      "outputs": [],
      "stateMutability": "nonpayable",
      "type": "function"
    },
    {
      "inputs": [
        {
          "internalType": "bytes32",
          "name": "role",
          "type": "bytes32"
        },
        {
          "internalType": "address",
          "name": "account",
          "type": "address"
        }
      ],
      "name": "hasRole",
      "outputs": [
        {
          "internalType": "bool",
          "name": "",
          "type": "bool"
        }
      ],
      "stateMutability": "view",
      "type": "function"
    },
    {
      "inputs": [
        {
          "internalType": "address",
          "name": "owner",
          "type": "address"
        },
        {
          "internalType": "address",
          "name": "operator",
          "type": "address"
        }
      ],
      "name": "isApprovedForAll",
      "outputs": [
        {
          "internalType": "bool",
          "name": "approvedForAll",
          "type": "bool"
        }
      ],
      "stateMutability": "view",
      "type": "function"
    },
    {
      "inputs": [
        {
          "internalType": "address",
          "name": "forwarder",
          "type": "address"
        }
      ],
      "name": "isTrustedForwarder",
      "outputs": [
        {
          "internalType": "bool",
          "name": "",
          "type": "bool"
        }
      ],
      "stateMutability": "view",
      "type": "function"
    },
    {
      "inputs": [],
      "name": "owner",
      "outputs": [
        {
          "internalType": "address",
          "name": "",
          "type": "address"
        }
      ],
      "stateMutability": "view",
      "type": "function"
    },
    {
      "inputs": [
        {
          "internalType": "address[]",
          "name": "accounts",
          "type": "address[]"
        },
        {
          "internalType": "contract IERC20[]",
          "name": "tokens",
          "type": "address[]"
        },
        {
          "internalType": "uint256[]",
          "name": "amounts",
          "type": "uint256[]"
        }
      ],
      "name": "recoverERC20s",
      "outputs": [],
      "stateMutability": "nonpayable",
      "type": "function"
    },
    {
      "inputs": [
        {
          "internalType": "address[]",
          "name": "accounts",
          "type": "address[]"
        },
        {
          "internalType": "contract IERC721[]",
          "name": "contracts",
          "type": "address[]"
        },
        {
          "internalType": "uint256[]",
          "name": "tokenIds",
          "type": "uint256[]"
        }
      ],
      "name": "recoverERC721s",
      "outputs": [],
      "stateMutability": "nonpayable",
      "type": "function"
    },
    {
      "inputs": [
        {
          "internalType": "address payable[]",
          "name": "accounts",
          "type": "address[]"
        },
        {
          "internalType": "uint256[]",
          "name": "amounts",
          "type": "uint256[]"
        }
      ],
      "name": "recoverETH",
      "outputs": [],
      "stateMutability": "nonpayable",
      "type": "function"
    },
    {
      "inputs": [
        {
          "internalType": "bytes32",
          "name": "role",
          "type": "bytes32"
        }
      ],
      "name": "renounceRole",
      "outputs": [],
      "stateMutability": "nonpayable",
      "type": "function"
    },
    {
      "inputs": [
        {
          "internalType": "bytes32",
          "name": "role",
          "type": "bytes32"
        },
        {
          "internalType": "address",
          "name": "account",
          "type": "address"
        }
      ],
      "name": "revokeRole",
      "outputs": [],
      "stateMutability": "nonpayable",
      "type": "function"
    },
    {
      "inputs": [
        {
          "internalType": "address",
          "name": "to",
          "type": "address"
        },
        {
          "internalType": "uint256[]",
          "name": "ids",
          "type": "uint256[]"
        },
        {
          "internalType": "uint256[]",
          "name": "values",
          "type": "uint256[]"
        },
        {
          "internalType": "bytes",
          "name": "data",
          "type": "bytes"
        }
      ],
      "name": "safeBatchMint",
      "outputs": [],
      "stateMutability": "nonpayable",
      "type": "function"
    },
    {
      "inputs": [
        {
          "internalType": "address",
          "name": "from",
          "type": "address"
        },
        {
          "internalType": "address",
          "name": "to",
          "type": "address"
        },
        {
          "internalType": "uint256[]",
          "name": "ids",
          "type": "uint256[]"
        },
        {
          "internalType": "uint256[]",
          "name": "values",
          "type": "uint256[]"
        },
        {
          "internalType": "bytes",
          "name": "data",
          "type": "bytes"
        }
      ],
      "name": "safeBatchTransferFrom",
      "outputs": [],
      "stateMutability": "nonpayable",
      "type": "function"
    },
    {
      "inputs": [
        {
          "internalType": "address[]",
          "name": "recipients",
          "type": "address[]"
        },
        {
          "internalType": "uint256[]",
          "name": "ids",
          "type": "uint256[]"
        },
        {
          "internalType": "uint256[]",
          "name": "values",
          "type": "uint256[]"
        },
        {
          "internalType": "bytes",
          "name": "data",
          "type": "bytes"
        }
      ],
      "name": "safeDeliver",
      "outputs": [],
      "stateMutability": "nonpayable",
      "type": "function"
    },
    {
      "inputs": [
        {
          "internalType": "address",
          "name": "to",
          "type": "address"
        },
        {
          "internalType": "uint256",
          "name": "id",
          "type": "uint256"
        },
        {
          "internalType": "uint256",
          "name": "value",
          "type": "uint256"
        },
        {
          "internalType": "bytes",
          "name": "data",
          "type": "bytes"
        }
      ],
      "name": "safeMint",
      "outputs": [],
      "stateMutability": "nonpayable",
      "type": "function"
    },
    {
      "inputs": [
        {
          "internalType": "address",
          "name": "from",
          "type": "address"
        },
        {
          "internalType": "address",
          "name": "to",
          "type": "address"
        },
        {
          "internalType": "uint256",
          "name": "id",
          "type": "uint256"
        },
        {
          "internalType": "uint256",
          "name": "value",
          "type": "uint256"
        },
        {
          "internalType": "bytes",
          "name": "data",
          "type": "bytes"
        }
      ],
      "name": "safeTransferFrom",
      "outputs": [],
      "stateMutability": "nonpayable",
      "type": "function"
    },
    {
      "inputs": [
        {
          "internalType": "address",
          "name": "operator",
          "type": "address"
        },
        {
          "internalType": "bool",
          "name": "approved",
          "type": "bool"
        }
      ],
      "name": "setApprovalForAll",
      "outputs": [],
      "stateMutability": "nonpayable",
      "type": "function"
    },
    {
      "inputs": [
        {
          "internalType": "string",
          "name": "baseURI",
          "type": "string"
        }
      ],
      "name": "setBaseMetadataURI",
      "outputs": [],
      "stateMutability": "nonpayable",
      "type": "function"
    },
    {
      "inputs": [
        {
          "internalType": "bytes4",
          "name": "interfaceId",
          "type": "bytes4"
        }
      ],
      "name": "supportsInterface",
      "outputs": [
        {
          "internalType": "bool",
          "name": "",
          "type": "bool"
        }
      ],
      "stateMutability": "view",
      "type": "function"
    },
    {
      "inputs": [
        {
          "internalType": "address",
          "name": "newOwner",
          "type": "address"
        }
      ],
      "name": "transferOwnership",
      "outputs": [],
      "stateMutability": "nonpayable",
      "type": "function"
    },
    {
      "inputs": [
        {
          "internalType": "uint256",
          "name": "id",
          "type": "uint256"
        }
      ],
      "name": "uri",
      "outputs": [
        {
          "internalType": "string",
          "name": "metadataURI",
          "type": "string"
        }
      ],
      "stateMutability": "view",
      "type": "function"
    }
  ],
  "bytecode": "0x60a06040523480156200001157600080fd5b506040516200473038038062004730833981016040819052620000349162000320565b808080336200004d620000e660201b62000db11760201c565b6200007b81620000676200012060201b62000de81760201c565b6200015660201b62000e161790919060201c565b5062000091620001d460201b62000ecc1760201c565b620000a6620001f760201b62000efa1760201c565b620000bb6200021a60201b62000f281760201c565b620000d06200023d60201b62000f561760201c565b6001600160a01b03166080525062000374915050565b6200011e636cdb3d1360e11b6001620001096200026060201b62000f801760201c565b6200029060201b62000fae179092919060201c565b565b6000806200015060017fc9ed16f33ab3a66c84bfd83099ccb2a8845871e2e1c1928f63797152f0fd54cd62000352565b92915050565b6001600160a01b03811615620001ad5781546001600160a01b0319166001600160a01b03821690811783556040516000907f8be0079c531659141344cd1fd0a4f28419497f9722a3daafe3b4186f6b6457e0908290a35b620001d06307f5828d60e41b6001620001096200026060201b62000f801760201c565b5050565b6200011e631464324b60e21b6001620001096200026060201b62000f801760201c565b6200011e633a2ae73360e21b6001620001096200026060201b62000f801760201c565b6200011e6303a24d0760e21b6001620001096200026060201b62000f801760201c565b6200011e63921ed8d160e01b6001620001096200026060201b62000f801760201c565b6000806200015060017fca9d3e17f264b0f3984e2634e94adb37fa3e6a8103f06aeae6fa59e21c769f5e62000352565b600160e01b6001600160e01b0319831601620002f25760405162461bcd60e51b815260206004820152601f60248201527f496e74657266616365446574656374696f6e3a2077726f6e672076616c756500604482015260640160405180910390fd5b6001600160e01b03199190911660009081526020929092526040909120805460ff1916911515919091179055565b6000602082840312156200033357600080fd5b81516001600160a01b03811681146200034b57600080fd5b9392505050565b818103818111156200015057634e487b7160e01b600052601160045260246000fd5b60805161437d620003b36000396000818161025b0152818161030c0152818161288901528181612911015281816131570152613195015261437d6000f3fe608060405234801561001057600080fd5b50600436106101c35760003560e01c80637e518ec8116100f9578063d539139311610097578063e985e9c511610071578063e985e9c51461043e578063f242432a14610451578063f2fde38b14610464578063f7ba94bd1461047757600080fd5b8063d5391393146103f1578063d547741f14610418578063e8ab9ccc1461042b57600080fd5b80638da5cb5b116100d35780638da5cb5b146103b057806391d14854146103b8578063a22cb465146103cb578063c3666c36146103de57600080fd5b80637e518ec814610377578063805349341461038a5780638bb9c5bf1461039d57600080fd5b80632f2ff15d11610166578063572b6c0511610140578063572b6c05146102fc5780635b2bd79e146103495780635cfa92971461035157806373c8a9581461036457600080fd5b80632f2ff15d146102b357806331e66e1e146102c65780634e1273f4146102dc57600080fd5b80630e89341c116101a25780630e89341c14610226578063124d91e5146102465780632b4c9f16146102595780632eb2c2d6146102a057600080fd5b8062fdd58e146101c857806301ffc9a7146101ee5780630d6a5bbb14610211575b600080fd5b6101db6101d63660046135a7565b61048a565b6040519081526020015b60405180910390f35b6102016101fc366004613601565b6104a9565b60405190151581526020016101e5565b61022461021f3660046136ac565b6104bd565b005b610239610234366004613759565b6105b8565b6040516101e591906137e0565b6102246102543660046137f3565b6105cc565b7f00000000000000000000000000000000000000000000000000000000000000005b60405173ffffffffffffffffffffffffffffffffffffffff90911681526020016101e5565b6102246102ae366004613828565b6105f0565b6102246102c13660046138e7565b610619565b6102ce61064d565b6040516101e5929190613960565b6102ef6102ea366004613974565b610660565b6040516101e59190613a1b565b61020161030a366004613a2e565b7f000000000000000000000000000000000000000000000000000000000000000073ffffffffffffffffffffffffffffffffffffffff90811691161490565b610239610683565b61022461035f366004613a4b565b61069a565b610224610372366004613ab5565b61072c565b610224610385366004613b4f565b610852565b610224610398366004613b91565b610875565b6102246103ab366004613759565b61089f565b61027b6108bd565b6102016103c63660046138e7565b6108e4565b6102246103d9366004613c11565b610928565b6102246103ec366004613ab5565b610945565b6101db7f6d696e746572000000000000000000000000000000000000000000000000000081565b6102246104263660046138e7565b610aea565b610224610439366004613c3f565b610b18565b61020161044c366004613ce2565b610c3d565b61022461045f366004613d10565b610c8b565b610224610472366004613a2e565b610cb0565b610224610485366004613974565b610ccb565b60006104a083836104996110ba565b91906110e8565b90505b92915050565b60006104a3826104b7610f80565b9061119e565b60006104c7611278565b90506104fd7f6d696e7465720000000000000000000000000000000000000000000000000000826104f6611282565b91906112b0565b6105ae818989898080602002602001604051908101604052809392919081815260200183836020028082843760009201919091525050604080516020808d0282810182019093528c82529093508c92508b91829185019084908082843760009201919091525050604080516020601f8c018190048102820181019092528a815292508a91508990819084018382808284376000920191909152506105a492506110ba915050565b949392919061135c565b5050505050505050565b60606104a3826105c661154a565b90611578565b6105eb6105d7611278565b8484846105e26110ba565b939291906115ac565b505050565b6105ae6105fb611278565b898989898989898961060b6110ba565b989796959493929190611689565b6000610623611278565b905061063781610631610de8565b90611981565b6105eb838383610645611282565b929190611a04565b366000610658611adb565b915091509091565b606061067a858585856106716110ba565b93929190611ae6565b95945050505050565b606061069561069061154a565b611c24565b905090565b60006106a4611278565b90506106d37f6d696e7465720000000000000000000000000000000000000000000000000000826104f6611282565b6107248187878787878080601f01602080910402602001604051908101604052809392919081815260200183838082843760009201919091525061071a92506110ba915050565b9493929190611cba565b505050505050565b61073f610737611278565b610631610de8565b84838114801561074e57508082145b6107b9576040517f08c379a000000000000000000000000000000000000000000000000000000000815260206004820152601d60248201527f5265636f766572793a20696e636f6e73697374656e742061727261797300000060448201526064015b60405180910390fd5b60005b8181146105ae5761084a8888838181106107d8576107d8613d7a565b90506020020160208101906107ed9190613a2e565b8585848181106107ff576107ff613d7a565b9050602002013588888581811061081857610818613d7a565b905060200201602081019061082d9190613a2e565b73ffffffffffffffffffffffffffffffffffffffff169190611dc8565b6001016107bc565b61085d610737611278565b610871828261086a61154a565b9190611e55565b5050565b610898610880611278565b868686868661088d6110ba565b959493929190611ea0565b5050505050565b6108ba6108aa611278565b826108b3611282565b9190612057565b50565b60006106956108ca610de8565b5473ffffffffffffffffffffffffffffffffffffffff1690565b60006104a083836108f3611282565b60009283526020908152604080842073ffffffffffffffffffffffffffffffffffffffff909316845291905290205460ff1690565b610871610933611278565b838361093d6110ba565b9291906120f3565b610950610737611278565b84838114801561095f57508082145b6109c5576040517f08c379a000000000000000000000000000000000000000000000000000000000815260206004820152601d60248201527f5265636f766572793a20696e636f6e73697374656e742061727261797300000060448201526064016107b0565b60005b8181146105ae578585828181106109e1576109e1613d7a565b90506020020160208101906109f69190613a2e565b73ffffffffffffffffffffffffffffffffffffffff166323b872dd308a8a85818110610a2457610a24613d7a565b9050602002016020810190610a399190613a2e565b878786818110610a4b57610a4b613d7a565b6040517fffffffff0000000000000000000000000000000000000000000000000000000060e088901b16815273ffffffffffffffffffffffffffffffffffffffff958616600482015294909316602485015250602090910201356044820152606401600060405180830381600087803b158015610ac757600080fd5b505af1158015610adb573d6000803e3d6000fd5b505050508060010190506109c8565b6000610af4611278565b9050610b0281610631610de8565b6105eb838383610b10611282565b929190612223565b6000610b22611278565b9050610b517f6d696e7465720000000000000000000000000000000000000000000000000000826104f6611282565b610c32818a8a8080602002602001604051908101604052809392919081815260200183836020028082843760009201919091525050604080516020808e0282810182019093528d82529093508d92508c91829185019084908082843760009201919091525050604080516020808d0282810182019093528c82529093508c92508b91829185019084908082843760009201919091525050604080516020601f8c018190048102820181019092528a815292508a9150899081908401838280828437600092019190915250610c2892506110ba915050565b94939291906122ed565b505050505050505050565b60006104a08383610c4c6110ba565b919073ffffffffffffffffffffffffffffffffffffffff9182166000908152600193909301602090815260408085209290931684525290205460ff1690565b610724610c96611278565b878787878787610ca46110ba565b969594939291906123dd565b6108ba610cbb611278565b82610cc4610de8565b91906125c0565b610cd6610737611278565b82818114610d40576040517f08c379a000000000000000000000000000000000000000000000000000000000815260206004820152601d60248201527f5265636f766572793a20696e636f6e73697374656e742061727261797300000060448201526064016107b0565b60005b81811461072457610da9848483818110610d5f57610d5f613d7a565b90506020020135878784818110610d7857610d78613d7a565b9050602002016020810190610d8d9190613a2e565b73ffffffffffffffffffffffffffffffffffffffff16906126ec565b600101610d43565b610de67fd9b67a26000000000000000000000000000000000000000000000000000000006001610ddf610f80565b9190610fae565b565b6000806104a360017fc9ed16f33ab3a66c84bfd83099ccb2a8845871e2e1c1928f63797152f0fd54cd613dd8565b73ffffffffffffffffffffffffffffffffffffffff811615610e9e5781547fffffffffffffffffffffffff00000000000000000000000000000000000000001673ffffffffffffffffffffffffffffffffffffffff821690811783556040516000907f8be0079c531659141344cd1fd0a4f28419497f9722a3daafe3b4186f6b6457e0908290a35b6108717f7f5828d0000000000000000000000000000000000000000000000000000000006001610ddf610f80565b610de67f5190c92c000000000000000000000000000000000000000000000000000000006001610ddf610f80565b610de67fe8ab9ccc000000000000000000000000000000000000000000000000000000006001610ddf610f80565b610de67f0e89341c000000000000000000000000000000000000000000000000000000006001610ddf610f80565b610de67f921ed8d1000000000000000000000000000000000000000000000000000000006001610ddf5b6000806104a360017fca9d3e17f264b0f3984e2634e94adb37fa3e6a8103f06aeae6fa59e21c769f5e613dd8565b7c01000000000000000000000000000000000000000000000000000000007fffffffff00000000000000000000000000000000000000000000000000000000831601611056576040517f08c379a000000000000000000000000000000000000000000000000000000000815260206004820152601f60248201527f496e74657266616365446574656374696f6e3a2077726f6e672076616c75650060448201526064016107b0565b7fffffffff00000000000000000000000000000000000000000000000000000000919091166000908152602092909252604090912080547fffffffffffffffffffffffffffffffffffffffffffffffffffffffffffffff0016911515919091179055565b6000806104a360017f5ccf5846fa27a68fafc8e588671a68f5e67c2f9b56af4263806a4d71735e8613613dd8565b600073ffffffffffffffffffffffffffffffffffffffff8316611167576040517f08c379a000000000000000000000000000000000000000000000000000000000815260206004820152601e60248201527f455243313135353a2062616c616e6365206f662061646472657373283029000060448201526064016107b0565b5060008181526020848152604080832073ffffffffffffffffffffffffffffffffffffffff861684529091529020545b9392505050565b60007c01000000000000000000000000000000000000000000000000000000007fffffffff000000000000000000000000000000000000000000000000000000008316016111ee575060006104a3565b7ffe003659000000000000000000000000000000000000000000000000000000007fffffffff0000000000000000000000000000000000000000000000000000000083160161123f575060016104a3565b507fffffffff00000000000000000000000000000000000000000000000000000000166000908152602091909152604090205460ff1690565b6000610695612846565b6000806104a360017fc8827d3282af6f37b64c3e9e6f3ac9df286ab0bb0fccd6f8661bf19adb368b23613dd8565b60008281526020848152604080832073ffffffffffffffffffffffffffffffffffffffff8516845290915290205460ff166105eb576112ee8261298d565b6040516020016112fe9190613deb565b604080517fffffffffffffffffffffffffffffffffffffffffffffffffffffffffffffffe0818403018152908290527f08c379a00000000000000000000000000000000000000000000000000000000082526107b0916004016137e0565b73ffffffffffffffffffffffffffffffffffffffff84166113d9576040517f08c379a000000000000000000000000000000000000000000000000000000000815260206004820152601b60248201527f455243313135353a206d696e7420746f2061646472657373283029000000000060448201526064016107b0565b825182518114611445576040517f08c379a000000000000000000000000000000000000000000000000000000000815260206004820152601c60248201527f455243313135353a20696e636f6e73697374656e74206172726179730000000060448201526064016107b0565b60005b8181146114955761148d888787848151811061146657611466613d7a565b602002602001015187858151811061148057611480613d7a565b6020026020010151612b1f565b600101611448565b508473ffffffffffffffffffffffffffffffffffffffff16600073ffffffffffffffffffffffffffffffffffffffff168773ffffffffffffffffffffffffffffffffffffffff167f4a39dc06d4c0dbc64b70af90fd698a233a518aa5d07e595d983b8c0526c8f7fb878760405161150d929190613e57565b60405180910390a473ffffffffffffffffffffffffffffffffffffffff85163b156115415761154186600087878787612bf3565b50505050505050565b6000806104a360017fe94434e3c6b941c5d90218142fadcc69cb2e13723993540bfa1c131dd1d3475a613dd8565b60608261158483612d1b565b604051602001611595929190613ecf565b604051602081830303815290604052905092915050565b6115b7858486612e58565b61161d576040517f08c379a000000000000000000000000000000000000000000000000000000000815260206004820152601c60248201527f455243313135353a206e6f6e2d617070726f7665642073656e6465720000000060448201526064016107b0565b61162985848484612ecd565b604080518381526020810183905260009173ffffffffffffffffffffffffffffffffffffffff86811692908816917fc3d58168c5ae7397731d063d5bbf3d657854427343f4c083240f7aacaa2d0f62910160405180910390a45050505050565b73ffffffffffffffffffffffffffffffffffffffff8716611706576040517f08c379a000000000000000000000000000000000000000000000000000000000815260206004820152601f60248201527f455243313135353a207472616e7366657220746f20616464726573732830290060448201526064016107b0565b84838114611770576040517f08c379a000000000000000000000000000000000000000000000000000000000815260206004820152601c60248201527f455243313135353a20696e636f6e73697374656e74206172726179730000000060448201526064016107b0565b61177b8b8a8c612e58565b6117e1576040517f08c379a000000000000000000000000000000000000000000000000000000000815260206004820152601c60248201527f455243313135353a206e6f6e2d617070726f7665642073656e6465720000000060448201526064016107b0565b60005b818114611830576118288c8b8b8b8b8681811061180357611803613d7a565b905060200201358a8a8781811061181c5761181c613d7a565b90506020020135612f6d565b6001016117e4565b508773ffffffffffffffffffffffffffffffffffffffff168973ffffffffffffffffffffffffffffffffffffffff168b73ffffffffffffffffffffffffffffffffffffffff167f4a39dc06d4c0dbc64b70af90fd698a233a518aa5d07e595d983b8c0526c8f7fb8a8a8a8a6040516118ab9493929190613fbf565b60405180910390a473ffffffffffffffffffffffffffffffffffffffff88163b15611974576119748a8a8a8a8a8080602002602001604051908101604052809392919081815260200183836020028082843760009201919091525050604080516020808e0282810182019093528d82529093508d92508c91829185019084908082843760009201919091525050604080516020601f8d018190048102820181019092528b815292508b91508a9081908401838280828437600092019190915250612bf392505050565b5050505050505050505050565b815473ffffffffffffffffffffffffffffffffffffffff828116911614610871576040517f08c379a000000000000000000000000000000000000000000000000000000000815260206004820152601860248201527f4f776e6572736869703a206e6f7420746865206f776e6572000000000000000060448201526064016107b0565b60008381526020858152604080832073ffffffffffffffffffffffffffffffffffffffff8616845290915290205460ff16611ad55760008381526020858152604080832073ffffffffffffffffffffffffffffffffffffffff8681168086529184529382902080547fffffffffffffffffffffffffffffffffffffffffffffffffffffffffffffff00166001179055815187815292830152918316918101919091527f2f8788117e7eff1d82e926ec794901d17c78024a50270940304540a733656f0d906060015b60405180910390a15b50505050565b366000610658613120565b606083828114611b52576040517f08c379a000000000000000000000000000000000000000000000000000000000815260206004820152601c60248201527f455243313135353a20696e636f6e73697374656e74206172726179730000000060448201526064016107b0565b8467ffffffffffffffff811115611b6b57611b6b613fe6565b604051908082528060200260200182016040528015611b94578160200160208202803683370190505b50915060005b818114611c1957611bf4878783818110611bb657611bb6613d7a565b9050602002016020810190611bcb9190613a2e565b868684818110611bdd57611bdd613d7a565b905060200201358a6110e89092919063ffffffff16565b838281518110611c0657611c06613d7a565b6020908102919091010152600101611b9a565b505095945050505050565b6060816000018054611c3590613e7c565b80601f0160208091040260200160405190810160405280929190818152602001828054611c6190613e7c565b8015611cae5780601f10611c8357610100808354040283529160200191611cae565b820191906000526020600020905b815481529060010190602001808311611c9157829003601f168201915b50505050509050919050565b73ffffffffffffffffffffffffffffffffffffffff8416611d37576040517f08c379a000000000000000000000000000000000000000000000000000000000815260206004820152601b60248201527f455243313135353a206d696e7420746f2061646472657373283029000000000060448201526064016107b0565b611d4386858585612b1f565b604080518481526020810184905273ffffffffffffffffffffffffffffffffffffffff80871692600092918916917fc3d58168c5ae7397731d063d5bbf3d657854427343f4c083240f7aacaa2d0f62910160405180910390a473ffffffffffffffffffffffffffffffffffffffff84163b15610724576107248560008686868661328a565b6040805173ffffffffffffffffffffffffffffffffffffffff8416602482015260448082018490528251808303909101815260649091019091526020810180517bffffffffffffffffffffffffffffffffffffffffffffffffffffffff167fa9059cbb000000000000000000000000000000000000000000000000000000001790526105eb9084906132e6565b82611e6182848361405b565b507f04b1dc5c136a3ce9fded8db0ce3d3366c58764ec3a8e4c2b9e52e4ddfe5ebbf78282604051611e93929190613960565b60405180910390a1505050565b82818114611f0a576040517f08c379a000000000000000000000000000000000000000000000000000000000815260206004820152601c60248201527f455243313135353a20696e636f6e73697374656e74206172726179730000000060448201526064016107b0565b611f15888789612e58565b611f7b576040517f08c379a000000000000000000000000000000000000000000000000000000000815260206004820152601c60248201527f455243313135353a206e6f6e2d617070726f7665642073656e6465720000000060448201526064016107b0565b60005b818114611fc957611fc18988888885818110611f9c57611f9c613d7a565b90506020020135878786818110611fb557611fb5613d7a565b90506020020135612ecd565b600101611f7e565b50600073ffffffffffffffffffffffffffffffffffffffff168673ffffffffffffffffffffffffffffffffffffffff168873ffffffffffffffffffffffffffffffffffffffff167f4a39dc06d4c0dbc64b70af90fd698a233a518aa5d07e595d983b8c0526c8f7fb888888886040516120459493929190613fbf565b60405180910390a45050505050505050565b6120628382846112b0565b60008181526020848152604080832073ffffffffffffffffffffffffffffffffffffffff86168085529083529281902080547fffffffffffffffffffffffffffffffffffffffffffffffffffffffffffffff0016905580518481529182018390528101919091527ff6391f5c32d9c69d2a47ea670b442974b53935d1edc7fd64eb21e047a839171b90606001611e93565b8273ffffffffffffffffffffffffffffffffffffffff168273ffffffffffffffffffffffffffffffffffffffff1603612188576040517f08c379a000000000000000000000000000000000000000000000000000000000815260206004820152601e60248201527f455243313135353a2073656c662d617070726f76616c20666f7220616c6c000060448201526064016107b0565b73ffffffffffffffffffffffffffffffffffffffff838116600081815260018701602090815260408083209487168084529482529182902080547fffffffffffffffffffffffffffffffffffffffffffffffffffffffffffffff001686151590811790915591519182527f17307eab39ab6107e8899845ad3d59bd9653f200f220920489ca2b5937696c31910160405180910390a350505050565b60008381526020858152604080832073ffffffffffffffffffffffffffffffffffffffff8616845290915290205460ff1615611ad55760008381526020858152604080832073ffffffffffffffffffffffffffffffffffffffff8681168086529184529382902080547fffffffffffffffffffffffffffffffffffffffffffffffffffffffffffffff00169055815187815292830152918316918101919091527ff6391f5c32d9c69d2a47ea670b442974b53935d1edc7fd64eb21e047a839171b90606001611acc565b83518351811480156122ff5750825181145b612365576040517f08c379a000000000000000000000000000000000000000000000000000000000815260206004820152601c60248201527f455243313135353a20696e636f6e73697374656e74206172726179730000000060448201526064016107b0565b60005b8181146105ae576123d58787838151811061238557612385613d7a565b602002602001015187848151811061239f5761239f613d7a565b60200260200101518785815181106123b9576123b9613d7a565b6020026020010151878d611cba9095949392919063ffffffff16565b600101612368565b73ffffffffffffffffffffffffffffffffffffffff851661245a576040517f08c379a000000000000000000000000000000000000000000000000000000000815260206004820152601f60248201527f455243313135353a207472616e7366657220746f20616464726573732830290060448201526064016107b0565b612465888789612e58565b6124cb576040517f08c379a000000000000000000000000000000000000000000000000000000000815260206004820152601c60248201527f455243313135353a206e6f6e2d617070726f7665642073656e6465720000000060448201526064016107b0565b6124d88887878787612f6d565b8473ffffffffffffffffffffffffffffffffffffffff168673ffffffffffffffffffffffffffffffffffffffff168873ffffffffffffffffffffffffffffffffffffffff167fc3d58168c5ae7397731d063d5bbf3d657854427343f4c083240f7aacaa2d0f628787604051612557929190918252602082015260400190565b60405180910390a473ffffffffffffffffffffffffffffffffffffffff85163b156105ae576105ae878787878787878080601f01602080910402602001604051908101604052809392919081815260200183838082843760009201919091525061328a92505050565b825473ffffffffffffffffffffffffffffffffffffffff9081169083168114612645576040517f08c379a000000000000000000000000000000000000000000000000000000000815260206004820152601860248201527f4f776e6572736869703a206e6f7420746865206f776e6572000000000000000060448201526064016107b0565b8173ffffffffffffffffffffffffffffffffffffffff168173ffffffffffffffffffffffffffffffffffffffff1614611ad55783547fffffffffffffffffffffffff00000000000000000000000000000000000000001673ffffffffffffffffffffffffffffffffffffffff8381169182178655604051908316907f8be0079c531659141344cd1fd0a4f28419497f9722a3daafe3b4186f6b6457e090600090a350505050565b80471015612756576040517f08c379a000000000000000000000000000000000000000000000000000000000815260206004820152601d60248201527f416464726573733a20696e73756666696369656e742062616c616e636500000060448201526064016107b0565b60008273ffffffffffffffffffffffffffffffffffffffff168260405160006040518083038185875af1925050503d80600081146127b0576040519150601f19603f3d011682016040523d82523d6000602084013e6127b5565b606091505b50509050806105eb576040517f08c379a000000000000000000000000000000000000000000000000000000000815260206004820152603a60248201527f416464726573733a20756e61626c6520746f2073656e642076616c75652c207260448201527f6563697069656e74206d6179206861766520726576657274656400000000000060648201526084016107b0565b6000333214806128565750601836105b1561286057503390565b7fffffffffffffffffffffffffffffffffffffffffffffffffffffffffffffffec36013560601c7f000000000000000000000000000000000000000000000000000000000000000073ffffffffffffffffffffffffffffffffffffffff1633148061297c57506040517f8929a8ca00000000000000000000000000000000000000000000000000000000815273ffffffffffffffffffffffffffffffffffffffff82811660048301523360248301527f00000000000000000000000000000000000000000000000000000000000000001690638929a8ca90604401602060405180830381865afa158015612958573d6000803e3d6000fd5b505050506040513d601f19601f8201168201806040525081019061297c9190614175565b1561298657919050565b3391505090565b606060008290036129ac57505060408051602081019091526000815290565b6000826040516020016129c191815260200190565b604080517fffffffffffffffffffffffffffffffffffffffffffffffffffffffffffffffe08184030181529190529050601f5b818181518110612a0657612a06613d7a565b01602001517fff0000000000000000000000000000000000000000000000000000000000000016600003612a5b577fffffffffffffffffffffffffffffffffffffffffffffffffffffffffffffffff016129f4565b60008160010167ffffffffffffffff811115612a7957612a79613fe6565b6040519080825280601f01601f191660200182016040528015612aa3576020820181803683370190505b50905060005b828111612b1657838181518110612ac257612ac2613d7a565b602001015160f81c60f81b828281518110612adf57612adf613d7a565b60200101907effffffffffffffffffffffffffffffffffffffffffffffffffffffffffffff1916908160001a905350600101612aa9565b50949350505050565b8015611ad55760008281526020858152604080832073ffffffffffffffffffffffffffffffffffffffff87168452909152902054818101818111612bbf576040517f08c379a000000000000000000000000000000000000000000000000000000000815260206004820152601960248201527f455243313135353a2062616c616e6365206f766572666c6f770000000000000060448201526064016107b0565b60009384526020958652604080852073ffffffffffffffffffffffffffffffffffffffff9690961685529490955250502055565b6040517fbc197c81000000000000000000000000000000000000000000000000000000008082529073ffffffffffffffffffffffffffffffffffffffff86169063bc197c8190612c4f908a908a90899089908990600401614192565b6020604051808303816000875af1158015612c6e573d6000803e3d6000fd5b505050506040513d601f19601f82011682018060405250810190612c9291906141fd565b7fffffffff000000000000000000000000000000000000000000000000000000001614610724576040517f08c379a000000000000000000000000000000000000000000000000000000000815260206004820152601a60248201527f455243313135353a207472616e736665722072656a656374656400000000000060448201526064016107b0565b606081600003612d5e57505060408051808201909152600181527f3000000000000000000000000000000000000000000000000000000000000000602082015290565b8160005b8115612d885780612d728161421a565b9150612d819050600a83614281565b9150612d62565b60008167ffffffffffffffff811115612da357612da3613fe6565b6040519080825280601f01601f191660200182016040528015612dcd576020820181803683370190505b5090505b8415612e5057612de2600183613dd8565b9150612def600a86614295565b612dfa9060306142a9565b60f81b818381518110612e0f57612e0f613d7a565b60200101907effffffffffffffffffffffffffffffffffffffffffffffffffffffffffffff1916908160001a905350612e49600a86614281565b9450612dd1565b949350505050565b60008173ffffffffffffffffffffffffffffffffffffffff168373ffffffffffffffffffffffffffffffffffffffff161480612e5057505073ffffffffffffffffffffffffffffffffffffffff9182166000908152600193909301602090815260408085209290931684525290205460ff1690565b8015611ad55760008281526020858152604080832073ffffffffffffffffffffffffffffffffffffffff87168452909152902054818103818110612bbf576040517f08c379a000000000000000000000000000000000000000000000000000000000815260206004820152601d60248201527f455243313135353a20696e73756666696369656e742062616c616e636500000060448201526064016107b0565b80156108985760008281526020868152604080832073ffffffffffffffffffffffffffffffffffffffff8816845290915290205481810381811061300d576040517f08c379a000000000000000000000000000000000000000000000000000000000815260206004820152601d60248201527f455243313135353a20696e73756666696369656e742062616c616e636500000060448201526064016107b0565b8473ffffffffffffffffffffffffffffffffffffffff168673ffffffffffffffffffffffffffffffffffffffff16146115415760008481526020888152604080832073ffffffffffffffffffffffffffffffffffffffff891684529091529020548381018181116130da576040517f08c379a000000000000000000000000000000000000000000000000000000000815260206004820152601960248201527f455243313135353a2062616c616e6365206f766572666c6f770000000000000060448201526064016107b0565b600086815260208a8152604080832073ffffffffffffffffffffffffffffffffffffffff808d1685528184528285208890558b1684529091529020555050505050505050565b366000333214806131315750601836105b1561313f5750600091369150565b3373ffffffffffffffffffffffffffffffffffffffff7f0000000000000000000000000000000000000000000000000000000000000000161480613274575073ffffffffffffffffffffffffffffffffffffffff7f000000000000000000000000000000000000000000000000000000000000000016638929a8ca367fffffffffffffffffffffffffffffffffffffffffffffffffffffffffffffffec013560601c6040517fffffffff0000000000000000000000000000000000000000000000000000000060e084901b16815273ffffffffffffffffffffffffffffffffffffffff9091166004820152336024820152604401602060405180830381865afa158015613250573d6000803e3d6000fd5b505050506040513d601f19601f820116820180604052508101906132749190614175565b15613281576106586133f2565b50600091369150565b6040517ff23a6e61000000000000000000000000000000000000000000000000000000008082529073ffffffffffffffffffffffffffffffffffffffff86169063f23a6e6190612c4f908a908a908990899089906004016142bc565b6000613348826040518060400160405280602081526020017f5361666545524332303a206c6f772d6c6576656c2063616c6c206661696c65648152508573ffffffffffffffffffffffffffffffffffffffff166134239092919063ffffffff16565b8051909150156105eb57808060200190518101906133669190614175565b6105eb576040517f08c379a000000000000000000000000000000000000000000000000000000000815260206004820152602a60248201527f5361666545524332303a204552433230206f7065726174696f6e20646964206e60448201527f6f7420737563636565640000000000000000000000000000000000000000000060648201526084016107b0565b3660006106587fffffffffffffffffffffffffffffffffffffffffffffffffffffffffffffffec8301828481614301565b6060612e5084846000858573ffffffffffffffffffffffffffffffffffffffff85163b6134ac576040517f08c379a000000000000000000000000000000000000000000000000000000000815260206004820152601d60248201527f416464726573733a2063616c6c20746f206e6f6e2d636f6e747261637400000060448201526064016107b0565b6000808673ffffffffffffffffffffffffffffffffffffffff1685876040516134d5919061432b565b60006040518083038185875af1925050503d8060008114613512576040519150601f19603f3d011682016040523d82523d6000602084013e613517565b606091505b5091509150613527828286613532565b979650505050505050565b60608315613541575081611197565b8251156135515782518084602001fd5b816040517f08c379a00000000000000000000000000000000000000000000000000000000081526004016107b091906137e0565b73ffffffffffffffffffffffffffffffffffffffff811681146108ba57600080fd5b600080604083850312156135ba57600080fd5b82356135c581613585565b946020939093013593505050565b7fffffffff00000000000000000000000000000000000000000000000000000000811681146108ba57600080fd5b60006020828403121561361357600080fd5b8135611197816135d3565b60008083601f84011261363057600080fd5b50813567ffffffffffffffff81111561364857600080fd5b6020830191508360208260051b850101111561366357600080fd5b9250929050565b60008083601f84011261367c57600080fd5b50813567ffffffffffffffff81111561369457600080fd5b60208301915083602082850101111561366357600080fd5b60008060008060008060006080888a0312156136c757600080fd5b87356136d281613585565b9650602088013567ffffffffffffffff808211156136ef57600080fd5b6136fb8b838c0161361e565b909850965060408a013591508082111561371457600080fd5b6137208b838c0161361e565b909650945060608a013591508082111561373957600080fd5b506137468a828b0161366a565b989b979a50959850939692959293505050565b60006020828403121561376b57600080fd5b5035919050565b60005b8381101561378d578181015183820152602001613775565b50506000910152565b600081518084526137ae816020860160208601613772565b601f017fffffffffffffffffffffffffffffffffffffffffffffffffffffffffffffffe0169290920160200192915050565b6020815260006104a06020830184613796565b60008060006060848603121561380857600080fd5b833561381381613585565b95602085013595506040909401359392505050565b60008060008060008060008060a0898b03121561384457600080fd5b883561384f81613585565b9750602089013561385f81613585565b9650604089013567ffffffffffffffff8082111561387c57600080fd5b6138888c838d0161361e565b909850965060608b01359150808211156138a157600080fd5b6138ad8c838d0161361e565b909650945060808b01359150808211156138c657600080fd5b506138d38b828c0161366a565b999c989b5096995094979396929594505050565b600080604083850312156138fa57600080fd5b82359150602083013561390c81613585565b809150509250929050565b8183528181602085013750600060208284010152600060207fffffffffffffffffffffffffffffffffffffffffffffffffffffffffffffffe0601f840116840101905092915050565b602081526000612e50602083018486613917565b6000806000806040858703121561398a57600080fd5b843567ffffffffffffffff808211156139a257600080fd5b6139ae8883890161361e565b909650945060208701359150808211156139c757600080fd5b506139d48782880161361e565b95989497509550505050565b600081518084526020808501945080840160005b83811015613a10578151875295820195908201906001016139f4565b509495945050505050565b6020815260006104a060208301846139e0565b600060208284031215613a4057600080fd5b813561119781613585565b600080600080600060808688031215613a6357600080fd5b8535613a6e81613585565b94506020860135935060408601359250606086013567ffffffffffffffff811115613a9857600080fd5b613aa48882890161366a565b969995985093965092949392505050565b60008060008060008060608789031215613ace57600080fd5b863567ffffffffffffffff80821115613ae657600080fd5b613af28a838b0161361e565b90985096506020890135915080821115613b0b57600080fd5b613b178a838b0161361e565b90965094506040890135915080821115613b3057600080fd5b50613b3d89828a0161361e565b979a9699509497509295939492505050565b60008060208385031215613b6257600080fd5b823567ffffffffffffffff811115613b7957600080fd5b613b858582860161366a565b90969095509350505050565b600080600080600060608688031215613ba957600080fd5b8535613bb481613585565b9450602086013567ffffffffffffffff80821115613bd157600080fd5b613bdd89838a0161361e565b90965094506040880135915080821115613bf657600080fd5b50613aa48882890161361e565b80151581146108ba57600080fd5b60008060408385031215613c2457600080fd5b8235613c2f81613585565b9150602083013561390c81613c03565b6000806000806000806000806080898b031215613c5b57600080fd5b883567ffffffffffffffff80821115613c7357600080fd5b613c7f8c838d0161361e565b909a50985060208b0135915080821115613c9857600080fd5b613ca48c838d0161361e565b909850965060408b0135915080821115613cbd57600080fd5b613cc98c838d0161361e565b909650945060608b01359150808211156138c657600080fd5b60008060408385031215613cf557600080fd5b8235613d0081613585565b9150602083013561390c81613585565b60008060008060008060a08789031215613d2957600080fd5b8635613d3481613585565b95506020870135613d4481613585565b94506040870135935060608701359250608087013567ffffffffffffffff811115613d6e57600080fd5b613b3d89828a0161366a565b7f4e487b7100000000000000000000000000000000000000000000000000000000600052603260045260246000fd5b7f4e487b7100000000000000000000000000000000000000000000000000000000600052601160045260246000fd5b818103818111156104a3576104a3613da9565b7f416363657373436f6e74726f6c3a206d697373696e6720270000000000000000815260008251613e23816018850160208701613772565b7f2720726f6c6500000000000000000000000000000000000000000000000000006018939091019283015250601e01919050565b604081526000613e6a60408301856139e0565b828103602084015261067a81856139e0565b600181811c90821680613e9057607f821691505b602082108103613ec9577f4e487b7100000000000000000000000000000000000000000000000000000000600052602260045260246000fd5b50919050565b6000808454613edd81613e7c565b60018281168015613ef55760018114613f2857613f57565b7fffffffffffffffffffffffffffffffffffffffffffffffffffffffffffffff0084168752821515830287019450613f57565b8860005260208060002060005b85811015613f4e5781548a820152908401908201613f35565b50505082870194505b505050508351613f6b818360208801613772565b01949350505050565b81835260007f07ffffffffffffffffffffffffffffffffffffffffffffffffffffffffffffff831115613fa657600080fd5b8260051b80836020870137939093016020019392505050565b604081526000613fd3604083018688613f74565b8281036020840152613527818587613f74565b7f4e487b7100000000000000000000000000000000000000000000000000000000600052604160045260246000fd5b601f8211156105eb57600081815260208120601f850160051c8101602086101561403c5750805b601f850160051c820191505b8181101561072457828155600101614048565b67ffffffffffffffff83111561407357614073613fe6565b614087836140818354613e7c565b83614015565b6000601f8411600181146140d957600085156140a35750838201355b7fffffffffffffffffffffffffffffffffffffffffffffffffffffffffffffffff600387901b1c1916600186901b178355610898565b6000838152602090207fffffffffffffffffffffffffffffffffffffffffffffffffffffffffffffffe0861690835b828110156141285786850135825560209485019460019092019101614108565b5086821015614163577fffffffffffffffffffffffffffffffffffffffffffffffffffffffffffffffff60f88860031b161c19848701351681555b505060018560011b0183555050505050565b60006020828403121561418757600080fd5b815161119781613c03565b600073ffffffffffffffffffffffffffffffffffffffff808816835280871660208401525060a060408301526141cb60a08301866139e0565b82810360608401526141dd81866139e0565b905082810360808401526141f18185613796565b98975050505050505050565b60006020828403121561420f57600080fd5b8151611197816135d3565b60007fffffffffffffffffffffffffffffffffffffffffffffffffffffffffffffffff820361424b5761424b613da9565b5060010190565b7f4e487b7100000000000000000000000000000000000000000000000000000000600052601260045260246000fd5b60008261429057614290614252565b500490565b6000826142a4576142a4614252565b500690565b808201808211156104a3576104a3613da9565b600073ffffffffffffffffffffffffffffffffffffffff808816835280871660208401525084604083015283606083015260a0608083015261352760a0830184613796565b6000808585111561431157600080fd5b8386111561431e57600080fd5b5050820193919092039150565b6000825161433d818460208701613772565b919091019291505056fea2646970667358221220a29452050b328862ad1998804e105149ebaaf6463de5d1097e60c0bfc64c85b064736f6c63430008110033",
  "linkReferences": {},
  "deployedLinkReferences": {}
}