{
  "_format": "hh-sol-artifact-1",
  "contractName": "REVVMotorsportVouchersMock",
  "sourceName": "contracts/mocks/token/ERC1155/REVVMotorsportVouchersMock.sol",
  "abi": [
    {
      "inputs": [
        {
          "internalType": "contract IForwarderRegistry",
          "name": "forwarderRegistry",
          "type": "address"
        }
      ],
      "stateMutability": "nonpayable",
      "type": "constructor"
    },
    {
      "anonymous": false,
      "inputs": [
        {
          "indexed": true,
          "internalType": "address",
          "name": "owner",
          "type": "address"
        },
        {
          "indexed": true,
          "internalType": "address",
          "name": "operator",
          "type": "address"
        },
        {
          "indexed": false,
          "internalType": "bool",
          "name": "approved",
          "type": "bool"
        }
      ],
      "name": "ApprovalForAll",
      "type": "event"
    },
    {
      "anonymous": false,
      "inputs": [
        {
          "indexed": false,
          "internalType": "string",
          "name": "baseMetadataURI",
          "type": "string"
        }
      ],
      "name": "BaseMetadataURISet",
      "type": "event"
    },
    {
      "anonymous": false,
      "inputs": [
        {
          "indexed": true,
          "internalType": "address",
          "name": "previousOwner",
          "type": "address"
        },
        {
          "indexed": true,
          "internalType": "address",
          "name": "newOwner",
          "type": "address"
        }
      ],
      "name": "OwnershipTransferred",
      "type": "event"
    },
    {
      "anonymous": false,
      "inputs": [
        {
          "indexed": false,
          "internalType": "bytes32",
          "name": "role",
          "type": "bytes32"
        },
        {
          "indexed": false,
          "internalType": "address",
          "name": "account",
          "type": "address"
        },
        {
          "indexed": false,
          "internalType": "address",
          "name": "operator",
          "type": "address"
        }
      ],
      "name": "RoleGranted",
      "type": "event"
    },
    {
      "anonymous": false,
      "inputs": [
        {
          "indexed": false,
          "internalType": "bytes32",
          "name": "role",
          "type": "bytes32"
        },
        {
          "indexed": false,
          "internalType": "address",
          "name": "account",
          "type": "address"
        },
        {
          "indexed": false,
          "internalType": "address",
          "name": "operator",
          "type": "address"
        }
      ],
      "name": "RoleRevoked",
      "type": "event"
    },
    {
      "anonymous": false,
      "inputs": [
        {
          "indexed": true,
          "internalType": "address",
          "name": "operator",
          "type": "address"
        },
        {
          "indexed": true,
          "internalType": "address",
          "name": "from",
          "type": "address"
        },
        {
          "indexed": true,
          "internalType": "address",
          "name": "to",
          "type": "address"
        },
        {
          "indexed": false,
          "internalType": "uint256[]",
          "name": "ids",
          "type": "uint256[]"
        },
        {
          "indexed": false,
          "internalType": "uint256[]",
          "name": "values",
          "type": "uint256[]"
        }
      ],
      "name": "TransferBatch",
      "type": "event"
    },
    {
      "anonymous": false,
      "inputs": [
        {
          "indexed": true,
          "internalType": "address",
          "name": "operator",
          "type": "address"
        },
        {
          "indexed": true,
          "internalType": "address",
          "name": "from",
          "type": "address"
        },
        {
          "indexed": true,
          "internalType": "address",
          "name": "to",
          "type": "address"
        },
        {
          "indexed": false,
          "internalType": "uint256",
          "name": "id",
          "type": "uint256"
        },
        {
          "indexed": false,
          "internalType": "uint256",
          "name": "value",
          "type": "uint256"
        }
      ],
      "name": "TransferSingle",
      "type": "event"
    },
    {
      "anonymous": false,
      "inputs": [
        {
          "indexed": false,
          "internalType": "string",
          "name": "value",
          "type": "string"
        },
        {
          "indexed": true,
          "internalType": "uint256",
          "name": "id",
          "type": "uint256"
        }
      ],
      "name": "URI",
      "type": "event"
    },
    {
      "inputs": [],
      "name": "MINTER_ROLE",
      "outputs": [
        {
          "internalType": "bytes32",
          "name": "",
          "type": "bytes32"
        }
      ],
      "stateMutability": "view",
      "type": "function"
    },
    {
      "inputs": [],
      "name": "__msgData",
      "outputs": [
        {
          "internalType": "bytes",
          "name": "",
          "type": "bytes"
        }
      ],
      "stateMutability": "view",
      "type": "function"
    },
    {
      "inputs": [
        {
          "internalType": "address",
          "name": "owner",
          "type": "address"
        },
        {
          "internalType": "uint256",
          "name": "id",
          "type": "uint256"
        }
      ],
      "name": "balanceOf",
      "outputs": [
        {
          "internalType": "uint256",
          "name": "balance",
          "type": "uint256"
        }
      ],
      "stateMutability": "view",
      "type": "function"
    },
    {
      "inputs": [
        {
          "internalType": "address[]",
          "name": "owners",
          "type": "address[]"
        },
        {
          "internalType": "uint256[]",
          "name": "ids",
          "type": "uint256[]"
        }
      ],
      "name": "balanceOfBatch",
      "outputs": [
        {
          "internalType": "uint256[]",
          "name": "balances",
          "type": "uint256[]"
        }
      ],
      "stateMutability": "view",
      "type": "function"
    },
    {
      "inputs": [],
      "name": "baseMetadataURI",
      "outputs": [
        {
          "internalType": "string",
          "name": "baseURI",
          "type": "string"
        }
      ],
      "stateMutability": "view",
      "type": "function"
    },
    {
      "inputs": [
        {
          "internalType": "address",
          "name": "from",
          "type": "address"
        },
        {
          "internalType": "uint256[]",
          "name": "ids",
          "type": "uint256[]"
        },
        {
          "internalType": "uint256[]",
          "name": "values",
          "type": "uint256[]"
        }
      ],
      "name": "batchBurnFrom",
      "outputs": [],
      "stateMutability": "nonpayable",
      "type": "function"
    },
    {
      "inputs": [
        {
          "internalType": "address",
          "name": "from",
          "type": "address"
        },
        {
          "internalType": "uint256",
          "name": "id",
          "type": "uint256"
        },
        {
          "internalType": "uint256",
          "name": "value",
          "type": "uint256"
        }
      ],
      "name": "burnFrom",
      "outputs": [],
      "stateMutability": "nonpayable",
      "type": "function"
    },
    {
      "inputs": [],
      "name": "forwarderRegistry",
      "outputs": [
        {
          "internalType": "contract IForwarderRegistry",
          "name": "",
          "type": "address"
        }
      ],
      "stateMutability": "view",
      "type": "function"
    },
    {
      "inputs": [
        {
          "internalType": "bytes32",
          "name": "role",
          "type": "bytes32"
        },
        {
          "internalType": "address",
          "name": "account",
          "type": "address"
        }
      ],
      "name": "grantRole",
      "outputs": [],
      "stateMutability": "nonpayable",
      "type": "function"
    },
    {
      "inputs": [
        {
          "internalType": "bytes32",
          "name": "role",
          "type": "bytes32"
        },
        {
          "internalType": "address",
          "name": "account",
          "type": "address"
        }
      ],
      "name": "hasRole",
      "outputs": [
        {
          "internalType": "bool",
          "name": "",
          "type": "bool"
        }
      ],
      "stateMutability": "view",
      "type": "function"
    },
    {
      "inputs": [
        {
          "internalType": "string",
          "name": "baseMetadataURI",
          "type": "string"
        }
      ],
      "name": "init",
      "outputs": [],
      "stateMutability": "nonpayable",
      "type": "function"
    },
    {
      "inputs": [
        {
          "internalType": "address",
          "name": "owner",
          "type": "address"
        },
        {
          "internalType": "address",
          "name": "operator",
          "type": "address"
        }
      ],
      "name": "isApprovedForAll",
      "outputs": [
        {
          "internalType": "bool",
          "name": "approvedForAll",
          "type": "bool"
        }
      ],
      "stateMutability": "view",
      "type": "function"
    },
    {
      "inputs": [
        {
          "internalType": "address",
          "name": "forwarder",
          "type": "address"
        }
      ],
      "name": "isTrustedForwarder",
      "outputs": [
        {
          "internalType": "bool",
          "name": "",
          "type": "bool"
        }
      ],
      "stateMutability": "view",
      "type": "function"
    },
    {
      "inputs": [],
      "name": "owner",
      "outputs": [
        {
          "internalType": "address",
          "name": "",
          "type": "address"
        }
      ],
      "stateMutability": "view",
      "type": "function"
    },
    {
      "inputs": [
        {
          "internalType": "address[]",
          "name": "accounts",
          "type": "address[]"
        },
        {
          "internalType": "contract IERC20[]",
          "name": "tokens",
          "type": "address[]"
        },
        {
          "internalType": "uint256[]",
          "name": "amounts",
          "type": "uint256[]"
        }
      ],
      "name": "recoverERC20s",
      "outputs": [],
      "stateMutability": "nonpayable",
      "type": "function"
    },
    {
      "inputs": [
        {
          "internalType": "address[]",
          "name": "accounts",
          "type": "address[]"
        },
        {
          "internalType": "contract IERC721[]",
          "name": "contracts",
          "type": "address[]"
        },
        {
          "internalType": "uint256[]",
          "name": "tokenIds",
          "type": "uint256[]"
        }
      ],
      "name": "recoverERC721s",
      "outputs": [],
      "stateMutability": "nonpayable",
      "type": "function"
    },
    {
      "inputs": [
        {
          "internalType": "address payable[]",
          "name": "accounts",
          "type": "address[]"
        },
        {
          "internalType": "uint256[]",
          "name": "amounts",
          "type": "uint256[]"
        }
      ],
      "name": "recoverETH",
      "outputs": [],
      "stateMutability": "nonpayable",
      "type": "function"
    },
    {
      "inputs": [
        {
          "internalType": "bytes32",
          "name": "role",
          "type": "bytes32"
        }
      ],
      "name": "renounceRole",
      "outputs": [],
      "stateMutability": "nonpayable",
      "type": "function"
    },
    {
      "inputs": [
        {
          "internalType": "bytes32",
          "name": "role",
          "type": "bytes32"
        },
        {
          "internalType": "address",
          "name": "account",
          "type": "address"
        }
      ],
      "name": "revokeRole",
      "outputs": [],
      "stateMutability": "nonpayable",
      "type": "function"
    },
    {
      "inputs": [
        {
          "internalType": "address",
          "name": "to",
          "type": "address"
        },
        {
          "internalType": "uint256[]",
          "name": "ids",
          "type": "uint256[]"
        },
        {
          "internalType": "uint256[]",
          "name": "values",
          "type": "uint256[]"
        },
        {
          "internalType": "bytes",
          "name": "data",
          "type": "bytes"
        }
      ],
      "name": "safeBatchMint",
      "outputs": [],
      "stateMutability": "nonpayable",
      "type": "function"
    },
    {
      "inputs": [
        {
          "internalType": "address",
          "name": "from",
          "type": "address"
        },
        {
          "internalType": "address",
          "name": "to",
          "type": "address"
        },
        {
          "internalType": "uint256[]",
          "name": "ids",
          "type": "uint256[]"
        },
        {
          "internalType": "uint256[]",
          "name": "values",
          "type": "uint256[]"
        },
        {
          "internalType": "bytes",
          "name": "data",
          "type": "bytes"
        }
      ],
      "name": "safeBatchTransferFrom",
      "outputs": [],
      "stateMutability": "nonpayable",
      "type": "function"
    },
    {
      "inputs": [
        {
          "internalType": "address[]",
          "name": "recipients",
          "type": "address[]"
        },
        {
          "internalType": "uint256[]",
          "name": "ids",
          "type": "uint256[]"
        },
        {
          "internalType": "uint256[]",
          "name": "values",
          "type": "uint256[]"
        },
        {
          "internalType": "bytes",
          "name": "data",
          "type": "bytes"
        }
      ],
      "name": "safeDeliver",
      "outputs": [],
      "stateMutability": "nonpayable",
      "type": "function"
    },
    {
      "inputs": [
        {
          "internalType": "address",
          "name": "to",
          "type": "address"
        },
        {
          "internalType": "uint256",
          "name": "id",
          "type": "uint256"
        },
        {
          "internalType": "uint256",
          "name": "value",
          "type": "uint256"
        },
        {
          "internalType": "bytes",
          "name": "data",
          "type": "bytes"
        }
      ],
      "name": "safeMint",
      "outputs": [],
      "stateMutability": "nonpayable",
      "type": "function"
    },
    {
      "inputs": [
        {
          "internalType": "address",
          "name": "from",
          "type": "address"
        },
        {
          "internalType": "address",
          "name": "to",
          "type": "address"
        },
        {
          "internalType": "uint256",
          "name": "id",
          "type": "uint256"
        },
        {
          "internalType": "uint256",
          "name": "value",
          "type": "uint256"
        },
        {
          "internalType": "bytes",
          "name": "data",
          "type": "bytes"
        }
      ],
      "name": "safeTransferFrom",
      "outputs": [],
      "stateMutability": "nonpayable",
      "type": "function"
    },
    {
      "inputs": [
        {
          "internalType": "address",
          "name": "operator",
          "type": "address"
        },
        {
          "internalType": "bool",
          "name": "approved",
          "type": "bool"
        }
      ],
      "name": "setApprovalForAll",
      "outputs": [],
      "stateMutability": "nonpayable",
      "type": "function"
    },
    {
      "inputs": [
        {
          "internalType": "string",
          "name": "baseURI",
          "type": "string"
        }
      ],
      "name": "setBaseMetadataURI",
      "outputs": [],
      "stateMutability": "nonpayable",
      "type": "function"
    },
    {
      "inputs": [
        {
          "internalType": "bytes4",
          "name": "interfaceId",
          "type": "bytes4"
        }
      ],
      "name": "supportsInterface",
      "outputs": [
        {
          "internalType": "bool",
          "name": "",
          "type": "bool"
        }
      ],
      "stateMutability": "view",
      "type": "function"
    },
    {
      "inputs": [
        {
          "internalType": "address",
          "name": "newOwner",
          "type": "address"
        }
      ],
      "name": "transferOwnership",
      "outputs": [],
      "stateMutability": "nonpayable",
      "type": "function"
    },
    {
      "inputs": [
        {
          "internalType": "uint256",
          "name": "id",
          "type": "uint256"
        }
      ],
      "name": "uri",
      "outputs": [
        {
          "internalType": "string",
          "name": "metadataURI",
          "type": "string"
        }
      ],
      "stateMutability": "view",
      "type": "function"
    }
  ],
  "bytecode": "0x60a06040523480156200001157600080fd5b506040516200465938038062004659833981016040819052620000349162000046565b6001600160a01b031660805262000078565b6000602082840312156200005957600080fd5b81516001600160a01b03811681146200007157600080fd5b9392505050565b6080516145a2620000b76000396000818161026601528181610317015281816128820152818161290a01528181613150015261318e01526145a26000f3fe608060405234801561001057600080fd5b50600436106101ce5760003560e01c80637e518ec811610104578063d5391393116100a2578063f242432a11610071578063f242432a1461045c578063f2fde38b1461046f578063f7ba94bd14610482578063f9fbdb9e1461049557600080fd5b8063d5391393146103fc578063d547741f14610423578063e8ab9ccc14610436578063e985e9c51461044957600080fd5b80638da5cb5b116100de5780638da5cb5b146103bb57806391d14854146103c3578063a22cb465146103d6578063c3666c36146103e957600080fd5b80637e518ec81461038257806380534934146103955780638bb9c5bf146103a857600080fd5b80632f2ff15d11610171578063572b6c051161014b578063572b6c05146103075780635b2bd79e146103545780635cfa92971461035c57806373c8a9581461036f57600080fd5b80632f2ff15d146102be57806331e66e1e146102d15780634e1273f4146102e757600080fd5b80630e89341c116101ad5780630e89341c14610231578063124d91e5146102515780632b4c9f16146102645780632eb2c2d6146102ab57600080fd5b8062fdd58e146101d357806301ffc9a7146101f95780630d6a5bbb1461021c575b600080fd5b6101e66101e13660046137dc565b6104a8565b6040519081526020015b60405180910390f35b61020c610207366004613836565b6104c7565b60405190151581526020016101f0565b61022f61022a3660046138e1565b6104db565b005b61024461023f36600461398e565b6105d6565b6040516101f09190613a15565b61022f61025f366004613a28565b6105ea565b7f00000000000000000000000000000000000000000000000000000000000000005b60405173ffffffffffffffffffffffffffffffffffffffff90911681526020016101f0565b61022f6102b9366004613a5d565b61060e565b61022f6102cc366004613b1c565b610637565b6102d961066b565b6040516101f0929190613b4c565b6102fa6102f5366004613b99565b61067e565b6040516101f09190613c40565b61020c610315366004613c53565b7f000000000000000000000000000000000000000000000000000000000000000073ffffffffffffffffffffffffffffffffffffffff90811691161490565b610244610701565b61022f61036a366004613c70565b610718565b61022f61037d366004613cda565b6107aa565b61022f610390366004613d74565b6108d0565b61022f6103a3366004613db6565b610928565b61022f6103b636600461398e565b610952565b610286610970565b61020c6103d1366004613b1c565b610997565b61022f6103e4366004613e36565b6109db565b61022f6103f7366004613cda565b6109f8565b6101e67f6d696e746572000000000000000000000000000000000000000000000000000081565b61022f610431366004613b1c565b610b9d565b61022f610444366004613e64565b610bcb565b61020c610457366004613f07565b610cf0565b61022f61046a366004613f35565b610d3e565b61022f61047d366004613c53565b610d63565b61022f610490366004613b99565b610d7e565b61022f6104a3366004613d74565b610e64565b60006104be83836104b7610ebe565b9190610eec565b90505b92915050565b60006104c1826104d5610fa2565b90610fd0565b60006104e56110aa565b905061051b7f6d696e7465720000000000000000000000000000000000000000000000000000826105146110b4565b91906110e2565b6105cc818989898080602002602001604051908101604052809392919081815260200183836020028082843760009201919091525050604080516020808d0282810182019093528c82529093508c92508b91829185019084908082843760009201919091525050604080516020601f8c018190048102820181019092528a815292508a91508990819084018382808284376000920191909152506105c29250610ebe915050565b949392919061118e565b5050505050505050565b60606104c1826105e461137c565b906113aa565b6106096105f56110aa565b848484610600610ebe565b939291906113de565b505050565b6105cc6106196110aa565b8989898989898989610629610ebe565b9897969594939291906114bb565b60006106416110aa565b90506106558161064f6117b3565b906117e1565b6106098383836106636110b4565b929190611864565b36600061067661193b565b915091509091565b60606106f8858580806020026020016040519081016040528093929190818152602001838360200280828437600092019190915250506040805160208089028281018201909352888252909350889250879182918501908490808284376000920191909152506106f19250610ebe915050565b9190611946565b95945050505050565b606061071361070e61137c565b611a7b565b905090565b60006107226110aa565b90506107517f6d696e7465720000000000000000000000000000000000000000000000000000826105146110b4565b6107a28187878787878080601f0160208091040260200160405190810160405280939291908181526020018383808284376000920191909152506107989250610ebe915050565b9493929190611b11565b505050505050565b6107bd6107b56110aa565b61064f6117b3565b8483811480156107cc57508082145b610837576040517f08c379a000000000000000000000000000000000000000000000000000000000815260206004820152601d60248201527f5265636f766572793a20696e636f6e73697374656e742061727261797300000060448201526064015b60405180910390fd5b60005b8181146105cc576108c888888381811061085657610856613f9f565b905060200201602081019061086b9190613c53565b85858481811061087d5761087d613f9f565b9050602002013588888581811061089657610896613f9f565b90506020020160208101906108ab9190613c53565b73ffffffffffffffffffffffffffffffffffffffff169190611c1f565b60010161083a565b6108db6107b56110aa565b61092482828080601f01602080910402602001604051908101604052809392919081815260200183838082843760009201919091525061091e925061137c915050565b90611cac565b5050565b61094b6109336110aa565b8686868686610940610ebe565b959493929190611cf3565b5050505050565b61096d61095d6110aa565b826109666110b4565b9190611eaa565b50565b600061071361097d6117b3565b5473ffffffffffffffffffffffffffffffffffffffff1690565b60006104be83836109a66110b4565b60009283526020908152604080842073ffffffffffffffffffffffffffffffffffffffff909316845291905290205460ff1690565b6109246109e66110aa565b83836109f0610ebe565b929190611f4e565b610a036107b56110aa565b848381148015610a1257508082145b610a78576040517f08c379a000000000000000000000000000000000000000000000000000000000815260206004820152601d60248201527f5265636f766572793a20696e636f6e73697374656e7420617272617973000000604482015260640161082e565b60005b8181146105cc57858582818110610a9457610a94613f9f565b9050602002016020810190610aa99190613c53565b73ffffffffffffffffffffffffffffffffffffffff166323b872dd308a8a85818110610ad757610ad7613f9f565b9050602002016020810190610aec9190613c53565b878786818110610afe57610afe613f9f565b6040517fffffffff0000000000000000000000000000000000000000000000000000000060e088901b16815273ffffffffffffffffffffffffffffffffffffffff958616600482015294909316602485015250602090910201356044820152606401600060405180830381600087803b158015610b7a57600080fd5b505af1158015610b8e573d6000803e3d6000fd5b50505050806001019050610a7b565b6000610ba76110aa565b9050610bb58161064f6117b3565b610609838383610bc36110b4565b92919061207e565b6000610bd56110aa565b9050610c047f6d696e7465720000000000000000000000000000000000000000000000000000826105146110b4565b610ce5818a8a8080602002602001604051908101604052809392919081815260200183836020028082843760009201919091525050604080516020808e0282810182019093528d82529093508d92508c91829185019084908082843760009201919091525050604080516020808d0282810182019093528c82529093508c92508b91829185019084908082843760009201919091525050604080516020601f8c018190048102820181019092528a815292508a9150899081908401838280828437600092019190915250610cdb9250610ebe915050565b9493929190612148565b505050505050505050565b60006104be8383610cff610ebe565b919073ffffffffffffffffffffffffffffffffffffffff9182166000908152600193909301602090815260408085209290931684525290205460ff1690565b6107a2610d496110aa565b878787878787610d57610ebe565b96959493929190612238565b61096d610d6e6110aa565b82610d776117b3565b919061241b565b610d896107b56110aa565b82818114610df3576040517f08c379a000000000000000000000000000000000000000000000000000000000815260206004820152601d60248201527f5265636f766572793a20696e636f6e73697374656e7420617272617973000000604482015260640161082e565b60005b8181146107a257610e5c848483818110610e1257610e12613f9f565b90506020020135878784818110610e2b57610e2b613f9f565b9050602002016020810190610e409190613c53565b73ffffffffffffffffffffffffffffffffffffffff1690612547565b600101610df6565b6000610e6e6110aa565b9050610e8281610e7c6117b3565b906126a1565b610e8a6126e0565b610e92612717565b610e9a612745565b610ea2612773565b610eaa6127a1565b6106098383610eb761137c565b91906127cf565b6000806104c160017f5ccf5846fa27a68fafc8e588671a68f5e67c2f9b56af4263806a4d71735e8613613ffd565b600073ffffffffffffffffffffffffffffffffffffffff8316610f6b576040517f08c379a000000000000000000000000000000000000000000000000000000000815260206004820152601e60248201527f455243313135353a2062616c616e6365206f6620616464726573732830290000604482015260640161082e565b5060008181526020848152604080832073ffffffffffffffffffffffffffffffffffffffff861684529091529020545b9392505050565b6000806104c160017fca9d3e17f264b0f3984e2634e94adb37fa3e6a8103f06aeae6fa59e21c769f5e613ffd565b60007c01000000000000000000000000000000000000000000000000000000007fffffffff00000000000000000000000000000000000000000000000000000000831601611020575060006104c1565b7ffe003659000000000000000000000000000000000000000000000000000000007fffffffff00000000000000000000000000000000000000000000000000000000831601611071575060016104c1565b507fffffffff00000000000000000000000000000000000000000000000000000000166000908152602091909152604090205460ff1690565b600061071361283f565b6000806104c160017fc8827d3282af6f37b64c3e9e6f3ac9df286ab0bb0fccd6f8661bf19adb368b23613ffd565b60008281526020848152604080832073ffffffffffffffffffffffffffffffffffffffff8516845290915290205460ff166106095761112082612986565b6040516020016111309190614010565b604080517fffffffffffffffffffffffffffffffffffffffffffffffffffffffffffffffe0818403018152908290527f08c379a000000000000000000000000000000000000000000000000000000000825261082e91600401613a15565b73ffffffffffffffffffffffffffffffffffffffff841661120b576040517f08c379a000000000000000000000000000000000000000000000000000000000815260206004820152601b60248201527f455243313135353a206d696e7420746f20616464726573732830290000000000604482015260640161082e565b825182518114611277576040517f08c379a000000000000000000000000000000000000000000000000000000000815260206004820152601c60248201527f455243313135353a20696e636f6e73697374656e742061727261797300000000604482015260640161082e565b60005b8181146112c7576112bf888787848151811061129857611298613f9f565b60200260200101518785815181106112b2576112b2613f9f565b6020026020010151612b18565b60010161127a565b508473ffffffffffffffffffffffffffffffffffffffff16600073ffffffffffffffffffffffffffffffffffffffff168773ffffffffffffffffffffffffffffffffffffffff167f4a39dc06d4c0dbc64b70af90fd698a233a518aa5d07e595d983b8c0526c8f7fb878760405161133f92919061407c565b60405180910390a473ffffffffffffffffffffffffffffffffffffffff85163b156113735761137386600087878787612bec565b50505050505050565b6000806104c160017fe94434e3c6b941c5d90218142fadcc69cb2e13723993540bfa1c131dd1d3475a613ffd565b6060826113b683612d14565b6040516020016113c79291906140f4565b604051602081830303815290604052905092915050565b6113e9858486612e51565b61144f576040517f08c379a000000000000000000000000000000000000000000000000000000000815260206004820152601c60248201527f455243313135353a206e6f6e2d617070726f7665642073656e64657200000000604482015260640161082e565b61145b85848484612ec6565b604080518381526020810183905260009173ffffffffffffffffffffffffffffffffffffffff86811692908816917fc3d58168c5ae7397731d063d5bbf3d657854427343f4c083240f7aacaa2d0f62910160405180910390a45050505050565b73ffffffffffffffffffffffffffffffffffffffff8716611538576040517f08c379a000000000000000000000000000000000000000000000000000000000815260206004820152601f60248201527f455243313135353a207472616e7366657220746f206164647265737328302900604482015260640161082e565b848381146115a2576040517f08c379a000000000000000000000000000000000000000000000000000000000815260206004820152601c60248201527f455243313135353a20696e636f6e73697374656e742061727261797300000000604482015260640161082e565b6115ad8b8a8c612e51565b611613576040517f08c379a000000000000000000000000000000000000000000000000000000000815260206004820152601c60248201527f455243313135353a206e6f6e2d617070726f7665642073656e64657200000000604482015260640161082e565b60005b8181146116625761165a8c8b8b8b8b8681811061163557611635613f9f565b905060200201358a8a8781811061164e5761164e613f9f565b90506020020135612f66565b600101611616565b508773ffffffffffffffffffffffffffffffffffffffff168973ffffffffffffffffffffffffffffffffffffffff168b73ffffffffffffffffffffffffffffffffffffffff167f4a39dc06d4c0dbc64b70af90fd698a233a518aa5d07e595d983b8c0526c8f7fb8a8a8a8a6040516116dd94939291906141e4565b60405180910390a473ffffffffffffffffffffffffffffffffffffffff88163b156117a6576117a68a8a8a8a8a8080602002602001604051908101604052809392919081815260200183836020028082843760009201919091525050604080516020808e0282810182019093528d82529093508d92508c91829185019084908082843760009201919091525050604080516020601f8d018190048102820181019092528b815292508b91508a9081908401838280828437600092019190915250612bec92505050565b5050505050505050505050565b6000806104c160017fc9ed16f33ab3a66c84bfd83099ccb2a8845871e2e1c1928f63797152f0fd54cd613ffd565b815473ffffffffffffffffffffffffffffffffffffffff828116911614610924576040517f08c379a000000000000000000000000000000000000000000000000000000000815260206004820152601860248201527f4f776e6572736869703a206e6f7420746865206f776e65720000000000000000604482015260640161082e565b60008381526020858152604080832073ffffffffffffffffffffffffffffffffffffffff8616845290915290205460ff166119355760008381526020858152604080832073ffffffffffffffffffffffffffffffffffffffff8681168086529184529382902080547fffffffffffffffffffffffffffffffffffffffffffffffffffffffffffffff00166001179055815187815292830152918316918101919091527f2f8788117e7eff1d82e926ec794901d17c78024a50270940304540a733656f0d906060015b60405180910390a15b50505050565b366000610676613119565b815181516060919081146119b6576040517f08c379a000000000000000000000000000000000000000000000000000000000815260206004820152601c60248201527f455243313135353a20696e636f6e73697374656e742061727261797300000000604482015260640161082e565b835167ffffffffffffffff8111156119d0576119d061420b565b6040519080825280602002602001820160405280156119f9578160200160208202803683370190505b50915060005b818114611a7257611a4d858281518110611a1b57611a1b613f9f565b6020026020010151858381518110611a3557611a35613f9f565b602002602001015188610eec9092919063ffffffff16565b838281518110611a5f57611a5f613f9f565b60209081029190910101526001016119ff565b50509392505050565b6060816000018054611a8c906140a1565b80601f0160208091040260200160405190810160405280929190818152602001828054611ab8906140a1565b8015611b055780601f10611ada57610100808354040283529160200191611b05565b820191906000526020600020905b815481529060010190602001808311611ae857829003601f168201915b50505050509050919050565b73ffffffffffffffffffffffffffffffffffffffff8416611b8e576040517f08c379a000000000000000000000000000000000000000000000000000000000815260206004820152601b60248201527f455243313135353a206d696e7420746f20616464726573732830290000000000604482015260640161082e565b611b9a86858585612b18565b604080518481526020810184905273ffffffffffffffffffffffffffffffffffffffff80871692600092918916917fc3d58168c5ae7397731d063d5bbf3d657854427343f4c083240f7aacaa2d0f62910160405180910390a473ffffffffffffffffffffffffffffffffffffffff84163b156107a2576107a285600086868686613283565b6040805173ffffffffffffffffffffffffffffffffffffffff8416602482015260448082018490528251808303909101815260649091019091526020810180517bffffffffffffffffffffffffffffffffffffffffffffffffffffffff167fa9059cbb000000000000000000000000000000000000000000000000000000001790526106099084906132df565b81611cb78282614280565b507f04b1dc5c136a3ce9fded8db0ce3d3366c58764ec3a8e4c2b9e52e4ddfe5ebbf781604051611ce79190613a15565b60405180910390a15050565b82818114611d5d576040517f08c379a000000000000000000000000000000000000000000000000000000000815260206004820152601c60248201527f455243313135353a20696e636f6e73697374656e742061727261797300000000604482015260640161082e565b611d68888789612e51565b611dce576040517f08c379a000000000000000000000000000000000000000000000000000000000815260206004820152601c60248201527f455243313135353a206e6f6e2d617070726f7665642073656e64657200000000604482015260640161082e565b60005b818114611e1c57611e148988888885818110611def57611def613f9f565b90506020020135878786818110611e0857611e08613f9f565b90506020020135612ec6565b600101611dd1565b50600073ffffffffffffffffffffffffffffffffffffffff168673ffffffffffffffffffffffffffffffffffffffff168873ffffffffffffffffffffffffffffffffffffffff167f4a39dc06d4c0dbc64b70af90fd698a233a518aa5d07e595d983b8c0526c8f7fb88888888604051611e9894939291906141e4565b60405180910390a45050505050505050565b611eb58382846110e2565b60008181526020848152604080832073ffffffffffffffffffffffffffffffffffffffff86168085529083529281902080547fffffffffffffffffffffffffffffffffffffffffffffffffffffffffffffff0016905580518481529182018390528101919091527ff6391f5c32d9c69d2a47ea670b442974b53935d1edc7fd64eb21e047a839171b9060600160405180910390a1505050565b8273ffffffffffffffffffffffffffffffffffffffff168273ffffffffffffffffffffffffffffffffffffffff1603611fe3576040517f08c379a000000000000000000000000000000000000000000000000000000000815260206004820152601e60248201527f455243313135353a2073656c662d617070726f76616c20666f7220616c6c0000604482015260640161082e565b73ffffffffffffffffffffffffffffffffffffffff838116600081815260018701602090815260408083209487168084529482529182902080547fffffffffffffffffffffffffffffffffffffffffffffffffffffffffffffff001686151590811790915591519182527f17307eab39ab6107e8899845ad3d59bd9653f200f220920489ca2b5937696c31910160405180910390a350505050565b60008381526020858152604080832073ffffffffffffffffffffffffffffffffffffffff8616845290915290205460ff16156119355760008381526020858152604080832073ffffffffffffffffffffffffffffffffffffffff8681168086529184529382902080547fffffffffffffffffffffffffffffffffffffffffffffffffffffffffffffff00169055815187815292830152918316918101919091527ff6391f5c32d9c69d2a47ea670b442974b53935d1edc7fd64eb21e047a839171b9060600161192c565b835183518114801561215a5750825181145b6121c0576040517f08c379a000000000000000000000000000000000000000000000000000000000815260206004820152601c60248201527f455243313135353a20696e636f6e73697374656e742061727261797300000000604482015260640161082e565b60005b8181146105cc57612230878783815181106121e0576121e0613f9f565b60200260200101518784815181106121fa576121fa613f9f565b602002602001015187858151811061221457612214613f9f565b6020026020010151878d611b119095949392919063ffffffff16565b6001016121c3565b73ffffffffffffffffffffffffffffffffffffffff85166122b5576040517f08c379a000000000000000000000000000000000000000000000000000000000815260206004820152601f60248201527f455243313135353a207472616e7366657220746f206164647265737328302900604482015260640161082e565b6122c0888789612e51565b612326576040517f08c379a000000000000000000000000000000000000000000000000000000000815260206004820152601c60248201527f455243313135353a206e6f6e2d617070726f7665642073656e64657200000000604482015260640161082e565b6123338887878787612f66565b8473ffffffffffffffffffffffffffffffffffffffff168673ffffffffffffffffffffffffffffffffffffffff168873ffffffffffffffffffffffffffffffffffffffff167fc3d58168c5ae7397731d063d5bbf3d657854427343f4c083240f7aacaa2d0f6287876040516123b2929190918252602082015260400190565b60405180910390a473ffffffffffffffffffffffffffffffffffffffff85163b156105cc576105cc878787878787878080601f01602080910402602001604051908101604052809392919081815260200183838082843760009201919091525061328392505050565b825473ffffffffffffffffffffffffffffffffffffffff90811690831681146124a0576040517f08c379a000000000000000000000000000000000000000000000000000000000815260206004820152601860248201527f4f776e6572736869703a206e6f7420746865206f776e65720000000000000000604482015260640161082e565b8173ffffffffffffffffffffffffffffffffffffffff168173ffffffffffffffffffffffffffffffffffffffff16146119355783547fffffffffffffffffffffffff00000000000000000000000000000000000000001673ffffffffffffffffffffffffffffffffffffffff8381169182178655604051908316907f8be0079c531659141344cd1fd0a4f28419497f9722a3daafe3b4186f6b6457e090600090a350505050565b804710156125b1576040517f08c379a000000000000000000000000000000000000000000000000000000000815260206004820152601d60248201527f416464726573733a20696e73756666696369656e742062616c616e6365000000604482015260640161082e565b60008273ffffffffffffffffffffffffffffffffffffffff168260405160006040518083038185875af1925050503d806000811461260b576040519150601f19603f3d011682016040523d82523d6000602084013e612610565b606091505b5050905080610609576040517f08c379a000000000000000000000000000000000000000000000000000000000815260206004820152603a60248201527f416464726573733a20756e61626c6520746f2073656e642076616c75652c207260448201527f6563697069656e74206d61792068617665207265766572746564000000000000606482015260840161082e565b6126d66126cf60017f5b388d90dc1312ba799f321972f13311234fa1163bcabec7cf66101c4876eb84613ffd565b60016133eb565b610924828261345b565b6127157fd9b67a2600000000000000000000000000000000000000000000000000000000600161270e610fa2565b9190613511565b565b6127157f0e89341c00000000000000000000000000000000000000000000000000000000600161270e610fa2565b6127157f5190c92c00000000000000000000000000000000000000000000000000000000600161270e610fa2565b6127157fe8ab9ccc00000000000000000000000000000000000000000000000000000000600161270e610fa2565b6127157f921ed8d100000000000000000000000000000000000000000000000000000000600161270e610fa2565b6127fd6126cf60017f4906b284a41a4863b44f418156dc67ff218ba42abca1a1c41f180669c98a302f613ffd565b61060982828080601f016020809104026020016040519081016040528093929190818152602001838380828437600092019190915250879392505061361d9050565b60003332148061284f5750601836105b1561285957503390565b7fffffffffffffffffffffffffffffffffffffffffffffffffffffffffffffffec36013560601c7f000000000000000000000000000000000000000000000000000000000000000073ffffffffffffffffffffffffffffffffffffffff1633148061297557506040517f8929a8ca00000000000000000000000000000000000000000000000000000000815273ffffffffffffffffffffffffffffffffffffffff82811660048301523360248301527f00000000000000000000000000000000000000000000000000000000000000001690638929a8ca90604401602060405180830381865afa158015612951573d6000803e3d6000fd5b505050506040513d601f19601f82011682018060405250810190612975919061439a565b1561297f57919050565b3391505090565b606060008290036129a557505060408051602081019091526000815290565b6000826040516020016129ba91815260200190565b604080517fffffffffffffffffffffffffffffffffffffffffffffffffffffffffffffffe08184030181529190529050601f5b8181815181106129ff576129ff613f9f565b01602001517fff0000000000000000000000000000000000000000000000000000000000000016600003612a54577fffffffffffffffffffffffffffffffffffffffffffffffffffffffffffffffff016129ed565b60008160010167ffffffffffffffff811115612a7257612a7261420b565b6040519080825280601f01601f191660200182016040528015612a9c576020820181803683370190505b50905060005b828111612b0f57838181518110612abb57612abb613f9f565b602001015160f81c60f81b828281518110612ad857612ad8613f9f565b60200101907effffffffffffffffffffffffffffffffffffffffffffffffffffffffffffff1916908160001a905350600101612aa2565b50949350505050565b80156119355760008281526020858152604080832073ffffffffffffffffffffffffffffffffffffffff87168452909152902054818101818111612bb8576040517f08c379a000000000000000000000000000000000000000000000000000000000815260206004820152601960248201527f455243313135353a2062616c616e6365206f766572666c6f7700000000000000604482015260640161082e565b60009384526020958652604080852073ffffffffffffffffffffffffffffffffffffffff9690961685529490955250502055565b6040517fbc197c81000000000000000000000000000000000000000000000000000000008082529073ffffffffffffffffffffffffffffffffffffffff86169063bc197c8190612c48908a908a908990899089906004016143b7565b6020604051808303816000875af1158015612c67573d6000803e3d6000fd5b505050506040513d601f19601f82011682018060405250810190612c8b9190614422565b7fffffffff0000000000000000000000000000000000000000000000000000000016146107a2576040517f08c379a000000000000000000000000000000000000000000000000000000000815260206004820152601a60248201527f455243313135353a207472616e736665722072656a6563746564000000000000604482015260640161082e565b606081600003612d5757505060408051808201909152600181527f3000000000000000000000000000000000000000000000000000000000000000602082015290565b8160005b8115612d815780612d6b8161443f565b9150612d7a9050600a836144a6565b9150612d5b565b60008167ffffffffffffffff811115612d9c57612d9c61420b565b6040519080825280601f01601f191660200182016040528015612dc6576020820181803683370190505b5090505b8415612e4957612ddb600183613ffd565b9150612de8600a866144ba565b612df39060306144ce565b60f81b818381518110612e0857612e08613f9f565b60200101907effffffffffffffffffffffffffffffffffffffffffffffffffffffffffffff1916908160001a905350612e42600a866144a6565b9450612dca565b949350505050565b60008173ffffffffffffffffffffffffffffffffffffffff168373ffffffffffffffffffffffffffffffffffffffff161480612e4957505073ffffffffffffffffffffffffffffffffffffffff9182166000908152600193909301602090815260408085209290931684525290205460ff1690565b80156119355760008281526020858152604080832073ffffffffffffffffffffffffffffffffffffffff87168452909152902054818103818110612bb8576040517f08c379a000000000000000000000000000000000000000000000000000000000815260206004820152601d60248201527f455243313135353a20696e73756666696369656e742062616c616e6365000000604482015260640161082e565b801561094b5760008281526020868152604080832073ffffffffffffffffffffffffffffffffffffffff88168452909152902054818103818110613006576040517f08c379a000000000000000000000000000000000000000000000000000000000815260206004820152601d60248201527f455243313135353a20696e73756666696369656e742062616c616e6365000000604482015260640161082e565b8473ffffffffffffffffffffffffffffffffffffffff168673ffffffffffffffffffffffffffffffffffffffff16146113735760008481526020888152604080832073ffffffffffffffffffffffffffffffffffffffff891684529091529020548381018181116130d3576040517f08c379a000000000000000000000000000000000000000000000000000000000815260206004820152601960248201527f455243313135353a2062616c616e6365206f766572666c6f7700000000000000604482015260640161082e565b600086815260208a8152604080832073ffffffffffffffffffffffffffffffffffffffff808d1685528184528285208890558b1684529091529020555050505050505050565b3660003332148061312a5750601836105b156131385750600091369150565b3373ffffffffffffffffffffffffffffffffffffffff7f000000000000000000000000000000000000000000000000000000000000000016148061326d575073ffffffffffffffffffffffffffffffffffffffff7f000000000000000000000000000000000000000000000000000000000000000016638929a8ca367fffffffffffffffffffffffffffffffffffffffffffffffffffffffffffffffec013560601c6040517fffffffff0000000000000000000000000000000000000000000000000000000060e084901b16815273ffffffffffffffffffffffffffffffffffffffff9091166004820152336024820152604401602060405180830381865afa158015613249573d6000803e3d6000fd5b505050506040513d601f19601f8201168201806040525081019061326d919061439a565b1561327a57610676613627565b50600091369150565b6040517ff23a6e61000000000000000000000000000000000000000000000000000000008082529073ffffffffffffffffffffffffffffffffffffffff86169063f23a6e6190612c48908a908a908990899089906004016144e1565b6000613341826040518060400160405280602081526020017f5361666545524332303a206c6f772d6c6576656c2063616c6c206661696c65648152508573ffffffffffffffffffffffffffffffffffffffff166136589092919063ffffffff16565b805190915015610609578080602001905181019061335f919061439a565b610609576040517f08c379a000000000000000000000000000000000000000000000000000000000815260206004820152602a60248201527f5361666545524332303a204552433230206f7065726174696f6e20646964206e60448201527f6f74207375636365656400000000000000000000000000000000000000000000606482015260840161082e565b815482908211613457576040517f08c379a000000000000000000000000000000000000000000000000000000000815260206004820152601660248201527f53746f726167653a207068617365207265616368656400000000000000000000604482015260640161082e565b5550565b73ffffffffffffffffffffffffffffffffffffffff8116156134e35781547fffffffffffffffffffffffff00000000000000000000000000000000000000001673ffffffffffffffffffffffffffffffffffffffff821690811783556040516000907f8be0079c531659141344cd1fd0a4f28419497f9722a3daafe3b4186f6b6457e0908290a35b6109247f7f5828d000000000000000000000000000000000000000000000000000000000600161270e610fa2565b7c01000000000000000000000000000000000000000000000000000000007fffffffff000000000000000000000000000000000000000000000000000000008316016135b9576040517f08c379a000000000000000000000000000000000000000000000000000000000815260206004820152601f60248201527f496e74657266616365446574656374696f6e3a2077726f6e672076616c756500604482015260640161082e565b7fffffffff00000000000000000000000000000000000000000000000000000000919091166000908152602092909252604090912080547fffffffffffffffffffffffffffffffffffffffffffffffffffffffffffffff0016911515919091179055565b6109248282611cac565b3660006106767fffffffffffffffffffffffffffffffffffffffffffffffffffffffffffffffec8301828481614526565b6060612e4984846000858573ffffffffffffffffffffffffffffffffffffffff85163b6136e1576040517f08c379a000000000000000000000000000000000000000000000000000000000815260206004820152601d60248201527f416464726573733a2063616c6c20746f206e6f6e2d636f6e7472616374000000604482015260640161082e565b6000808673ffffffffffffffffffffffffffffffffffffffff16858760405161370a9190614550565b60006040518083038185875af1925050503d8060008114613747576040519150601f19603f3d011682016040523d82523d6000602084013e61374c565b606091505b509150915061375c828286613767565b979650505050505050565b60608315613776575081610f9b565b8251156137865782518084602001fd5b816040517f08c379a000000000000000000000000000000000000000000000000000000000815260040161082e9190613a15565b73ffffffffffffffffffffffffffffffffffffffff8116811461096d57600080fd5b600080604083850312156137ef57600080fd5b82356137fa816137ba565b946020939093013593505050565b7fffffffff000000000000000000000000000000000000000000000000000000008116811461096d57600080fd5b60006020828403121561384857600080fd5b8135610f9b81613808565b60008083601f84011261386557600080fd5b50813567ffffffffffffffff81111561387d57600080fd5b6020830191508360208260051b850101111561389857600080fd5b9250929050565b60008083601f8401126138b157600080fd5b50813567ffffffffffffffff8111156138c957600080fd5b60208301915083602082850101111561389857600080fd5b60008060008060008060006080888a0312156138fc57600080fd5b8735613907816137ba565b9650602088013567ffffffffffffffff8082111561392457600080fd5b6139308b838c01613853565b909850965060408a013591508082111561394957600080fd5b6139558b838c01613853565b909650945060608a013591508082111561396e57600080fd5b5061397b8a828b0161389f565b989b979a50959850939692959293505050565b6000602082840312156139a057600080fd5b5035919050565b60005b838110156139c25781810151838201526020016139aa565b50506000910152565b600081518084526139e38160208601602086016139a7565b601f017fffffffffffffffffffffffffffffffffffffffffffffffffffffffffffffffe0169290920160200192915050565b6020815260006104be60208301846139cb565b600080600060608486031215613a3d57600080fd5b8335613a48816137ba565b95602085013595506040909401359392505050565b60008060008060008060008060a0898b031215613a7957600080fd5b8835613a84816137ba565b97506020890135613a94816137ba565b9650604089013567ffffffffffffffff80821115613ab157600080fd5b613abd8c838d01613853565b909850965060608b0135915080821115613ad657600080fd5b613ae28c838d01613853565b909650945060808b0135915080821115613afb57600080fd5b50613b088b828c0161389f565b999c989b5096995094979396929594505050565b60008060408385031215613b2f57600080fd5b823591506020830135613b41816137ba565b809150509250929050565b60208152816020820152818360408301376000818301604090810191909152601f9092017fffffffffffffffffffffffffffffffffffffffffffffffffffffffffffffffe0160101919050565b60008060008060408587031215613baf57600080fd5b843567ffffffffffffffff80821115613bc757600080fd5b613bd388838901613853565b90965094506020870135915080821115613bec57600080fd5b50613bf987828801613853565b95989497509550505050565b600081518084526020808501945080840160005b83811015613c3557815187529582019590820190600101613c19565b509495945050505050565b6020815260006104be6020830184613c05565b600060208284031215613c6557600080fd5b8135610f9b816137ba565b600080600080600060808688031215613c8857600080fd5b8535613c93816137ba565b94506020860135935060408601359250606086013567ffffffffffffffff811115613cbd57600080fd5b613cc98882890161389f565b969995985093965092949392505050565b60008060008060008060608789031215613cf357600080fd5b863567ffffffffffffffff80821115613d0b57600080fd5b613d178a838b01613853565b90985096506020890135915080821115613d3057600080fd5b613d3c8a838b01613853565b90965094506040890135915080821115613d5557600080fd5b50613d6289828a01613853565b979a9699509497509295939492505050565b60008060208385031215613d8757600080fd5b823567ffffffffffffffff811115613d9e57600080fd5b613daa8582860161389f565b90969095509350505050565b600080600080600060608688031215613dce57600080fd5b8535613dd9816137ba565b9450602086013567ffffffffffffffff80821115613df657600080fd5b613e0289838a01613853565b90965094506040880135915080821115613e1b57600080fd5b50613cc988828901613853565b801515811461096d57600080fd5b60008060408385031215613e4957600080fd5b8235613e54816137ba565b91506020830135613b4181613e28565b6000806000806000806000806080898b031215613e8057600080fd5b883567ffffffffffffffff80821115613e9857600080fd5b613ea48c838d01613853565b909a50985060208b0135915080821115613ebd57600080fd5b613ec98c838d01613853565b909850965060408b0135915080821115613ee257600080fd5b613eee8c838d01613853565b909650945060608b0135915080821115613afb57600080fd5b60008060408385031215613f1a57600080fd5b8235613f25816137ba565b91506020830135613b41816137ba565b60008060008060008060a08789031215613f4e57600080fd5b8635613f59816137ba565b95506020870135613f69816137ba565b94506040870135935060608701359250608087013567ffffffffffffffff811115613f9357600080fd5b613d6289828a0161389f565b7f4e487b7100000000000000000000000000000000000000000000000000000000600052603260045260246000fd5b7f4e487b7100000000000000000000000000000000000000000000000000000000600052601160045260246000fd5b818103818111156104c1576104c1613fce565b7f416363657373436f6e74726f6c3a206d697373696e67202700000000000000008152600082516140488160188501602087016139a7565b7f2720726f6c6500000000000000000000000000000000000000000000000000006018939091019283015250601e01919050565b60408152600061408f6040830185613c05565b82810360208401526106f88185613c05565b600181811c908216806140b557607f821691505b6020821081036140ee577f4e487b7100000000000000000000000000000000000000000000000000000000600052602260045260246000fd5b50919050565b6000808454614102816140a1565b6001828116801561411a576001811461414d5761417c565b7fffffffffffffffffffffffffffffffffffffffffffffffffffffffffffffff008416875282151583028701945061417c565b8860005260208060002060005b858110156141735781548a82015290840190820161415a565b50505082870194505b5050505083516141908183602088016139a7565b01949350505050565b81835260007f07ffffffffffffffffffffffffffffffffffffffffffffffffffffffffffffff8311156141cb57600080fd5b8260051b80836020870137939093016020019392505050565b6040815260006141f8604083018688614199565b828103602084015261375c818587614199565b7f4e487b7100000000000000000000000000000000000000000000000000000000600052604160045260246000fd5b601f82111561060957600081815260208120601f850160051c810160208610156142615750805b601f850160051c820191505b818110156107a25782815560010161426d565b815167ffffffffffffffff81111561429a5761429a61420b565b6142ae816142a884546140a1565b8461423a565b602080601f83116001811461430157600084156142cb5750858301515b7fffffffffffffffffffffffffffffffffffffffffffffffffffffffffffffffff600386901b1c1916600185901b1785556107a2565b6000858152602081207fffffffffffffffffffffffffffffffffffffffffffffffffffffffffffffffe08616915b8281101561434e5788860151825594840194600190910190840161432f565b508582101561438a57878501517fffffffffffffffffffffffffffffffffffffffffffffffffffffffffffffffff600388901b60f8161c191681555b5050505050600190811b01905550565b6000602082840312156143ac57600080fd5b8151610f9b81613e28565b600073ffffffffffffffffffffffffffffffffffffffff808816835280871660208401525060a060408301526143f060a0830186613c05565b82810360608401526144028186613c05565b9050828103608084015261441681856139cb565b98975050505050505050565b60006020828403121561443457600080fd5b8151610f9b81613808565b60007fffffffffffffffffffffffffffffffffffffffffffffffffffffffffffffffff820361447057614470613fce565b5060010190565b7f4e487b7100000000000000000000000000000000000000000000000000000000600052601260045260246000fd5b6000826144b5576144b5614477565b500490565b6000826144c9576144c9614477565b500690565b808201808211156104c1576104c1613fce565b600073ffffffffffffffffffffffffffffffffffffffff808816835280871660208401525084604083015283606083015260a0608083015261375c60a08301846139cb565b6000808585111561453657600080fd5b8386111561454357600080fd5b5050820193919092039150565b600082516145628184602087016139a7565b919091019291505056fea26469706673582212209262943c09ff2dd54891103dbd2b36f4f68c7b00aa63273de4d084cf4816cafc64736f6c63430008110033",
  "linkReferences": {},
  "deployedLinkReferences": {}
}