{
  "_format": "hh-sol-artifact-1",
  "contractName": "REVVMotorsportVouchersMock",
  "sourceName": "contracts/mocks/token/ERC1155/REVVMotorsportVouchersMock.sol",
  "abi": [
    {
      "inputs": [
        {
          "internalType": "contract IOperatorFilterRegistry",
          "name": "filterRegistry",
          "type": "address"
        },
        {
          "internalType": "contract IForwarderRegistry",
          "name": "forwarderRegistry",
          "type": "address"
        }
      ],
      "stateMutability": "nonpayable",
      "type": "constructor"
    },
    {
      "inputs": [
        {
          "internalType": "uint256",
          "name": "percentage",
          "type": "uint256"
        }
      ],
      "name": "IncorrectRoyaltyPercentage",
      "type": "error"
    },
    {
      "inputs": [],
      "name": "IncorrectRoyaltyReceiver",
      "type": "error"
    },
    {
      "inputs": [
        {
          "internalType": "address",
          "name": "operator",
          "type": "address"
        }
      ],
      "name": "OperatorNotAllowed",
      "type": "error"
    },
    {
      "anonymous": false,
      "inputs": [
        {
          "indexed": true,
          "internalType": "address",
          "name": "owner",
          "type": "address"
        },
        {
          "indexed": true,
          "internalType": "address",
          "name": "operator",
          "type": "address"
        },
        {
          "indexed": false,
          "internalType": "bool",
          "name": "approved",
          "type": "bool"
        }
      ],
      "name": "ApprovalForAll",
      "type": "event"
    },
    {
      "anonymous": false,
      "inputs": [
        {
          "indexed": false,
          "internalType": "string",
          "name": "baseMetadataURI",
          "type": "string"
        }
      ],
      "name": "BaseMetadataURISet",
      "type": "event"
    },
    {
      "anonymous": false,
      "inputs": [
        {
          "indexed": true,
          "internalType": "address",
          "name": "previousOwner",
          "type": "address"
        },
        {
          "indexed": true,
          "internalType": "address",
          "name": "newOwner",
          "type": "address"
        }
      ],
      "name": "OwnershipTransferred",
      "type": "event"
    },
    {
      "anonymous": false,
      "inputs": [
        {
          "indexed": false,
          "internalType": "bytes32",
          "name": "role",
          "type": "bytes32"
        },
        {
          "indexed": false,
          "internalType": "address",
          "name": "account",
          "type": "address"
        },
        {
          "indexed": false,
          "internalType": "address",
          "name": "operator",
          "type": "address"
        }
      ],
      "name": "RoleGranted",
      "type": "event"
    },
    {
      "anonymous": false,
      "inputs": [
        {
          "indexed": false,
          "internalType": "bytes32",
          "name": "role",
          "type": "bytes32"
        },
        {
          "indexed": false,
          "internalType": "address",
          "name": "account",
          "type": "address"
        },
        {
          "indexed": false,
          "internalType": "address",
          "name": "operator",
          "type": "address"
        }
      ],
      "name": "RoleRevoked",
      "type": "event"
    },
    {
      "anonymous": false,
      "inputs": [
        {
          "indexed": true,
          "internalType": "address",
          "name": "operator",
          "type": "address"
        },
        {
          "indexed": true,
          "internalType": "address",
          "name": "from",
          "type": "address"
        },
        {
          "indexed": true,
          "internalType": "address",
          "name": "to",
          "type": "address"
        },
        {
          "indexed": false,
          "internalType": "uint256[]",
          "name": "ids",
          "type": "uint256[]"
        },
        {
          "indexed": false,
          "internalType": "uint256[]",
          "name": "values",
          "type": "uint256[]"
        }
      ],
      "name": "TransferBatch",
      "type": "event"
    },
    {
      "anonymous": false,
      "inputs": [
        {
          "indexed": true,
          "internalType": "address",
          "name": "operator",
          "type": "address"
        },
        {
          "indexed": true,
          "internalType": "address",
          "name": "from",
          "type": "address"
        },
        {
          "indexed": true,
          "internalType": "address",
          "name": "to",
          "type": "address"
        },
        {
          "indexed": false,
          "internalType": "uint256",
          "name": "id",
          "type": "uint256"
        },
        {
          "indexed": false,
          "internalType": "uint256",
          "name": "value",
          "type": "uint256"
        }
      ],
      "name": "TransferSingle",
      "type": "event"
    },
    {
      "anonymous": false,
      "inputs": [
        {
          "indexed": false,
          "internalType": "string",
          "name": "value",
          "type": "string"
        },
        {
          "indexed": true,
          "internalType": "uint256",
          "name": "id",
          "type": "uint256"
        }
      ],
      "name": "URI",
      "type": "event"
    },
    {
      "inputs": [],
      "name": "MINTER_ROLE",
      "outputs": [
        {
          "internalType": "bytes32",
          "name": "",
          "type": "bytes32"
        }
      ],
      "stateMutability": "view",
      "type": "function"
    },
    {
      "inputs": [],
      "name": "ROYALTY_FEE_DENOMINATOR",
      "outputs": [
        {
          "internalType": "uint256",
          "name": "",
          "type": "uint256"
        }
      ],
      "stateMutability": "view",
      "type": "function"
    },
    {
      "inputs": [],
      "name": "__msgData",
      "outputs": [
        {
          "internalType": "bytes",
          "name": "",
          "type": "bytes"
        }
      ],
      "stateMutability": "view",
      "type": "function"
    },
    {
      "inputs": [
        {
          "internalType": "address",
          "name": "owner",
          "type": "address"
        },
        {
          "internalType": "uint256",
          "name": "id",
          "type": "uint256"
        }
      ],
      "name": "balanceOf",
      "outputs": [
        {
          "internalType": "uint256",
          "name": "balance",
          "type": "uint256"
        }
      ],
      "stateMutability": "view",
      "type": "function"
    },
    {
      "inputs": [
        {
          "internalType": "address[]",
          "name": "owners",
          "type": "address[]"
        },
        {
          "internalType": "uint256[]",
          "name": "ids",
          "type": "uint256[]"
        }
      ],
      "name": "balanceOfBatch",
      "outputs": [
        {
          "internalType": "uint256[]",
          "name": "balances",
          "type": "uint256[]"
        }
      ],
      "stateMutability": "view",
      "type": "function"
    },
    {
      "inputs": [],
      "name": "baseMetadataURI",
      "outputs": [
        {
          "internalType": "string",
          "name": "baseURI",
          "type": "string"
        }
      ],
      "stateMutability": "view",
      "type": "function"
    },
    {
      "inputs": [
        {
          "internalType": "address",
          "name": "from",
          "type": "address"
        },
        {
          "internalType": "uint256[]",
          "name": "ids",
          "type": "uint256[]"
        },
        {
          "internalType": "uint256[]",
          "name": "values",
          "type": "uint256[]"
        }
      ],
      "name": "batchBurnFrom",
      "outputs": [],
      "stateMutability": "nonpayable",
      "type": "function"
    },
    {
      "inputs": [
        {
          "internalType": "address",
          "name": "from",
          "type": "address"
        },
        {
          "internalType": "uint256",
          "name": "id",
          "type": "uint256"
        },
        {
          "internalType": "uint256",
          "name": "value",
          "type": "uint256"
        }
      ],
      "name": "burnFrom",
      "outputs": [],
      "stateMutability": "nonpayable",
      "type": "function"
    },
    {
      "inputs": [],
      "name": "forwarderRegistry",
      "outputs": [
        {
          "internalType": "contract IForwarderRegistry",
          "name": "",
          "type": "address"
        }
      ],
      "stateMutability": "view",
      "type": "function"
    },
    {
      "inputs": [
        {
          "internalType": "bytes32",
          "name": "role",
          "type": "bytes32"
        },
        {
          "internalType": "address",
          "name": "account",
          "type": "address"
        }
      ],
      "name": "grantRole",
      "outputs": [],
      "stateMutability": "nonpayable",
      "type": "function"
    },
    {
      "inputs": [
        {
          "internalType": "bytes32",
          "name": "role",
          "type": "bytes32"
        },
        {
          "internalType": "address",
          "name": "account",
          "type": "address"
        }
      ],
      "name": "hasRole",
      "outputs": [
        {
          "internalType": "bool",
          "name": "",
          "type": "bool"
        }
      ],
      "stateMutability": "view",
      "type": "function"
    },
    {
      "inputs": [
        {
          "internalType": "address",
          "name": "owner",
          "type": "address"
        },
        {
          "internalType": "address",
          "name": "operator",
          "type": "address"
        }
      ],
      "name": "isApprovedForAll",
      "outputs": [
        {
          "internalType": "bool",
          "name": "approvedForAll",
          "type": "bool"
        }
      ],
      "stateMutability": "view",
      "type": "function"
    },
    {
      "inputs": [
        {
          "internalType": "address",
          "name": "forwarder",
          "type": "address"
        }
      ],
      "name": "isTrustedForwarder",
      "outputs": [
        {
          "internalType": "bool",
          "name": "",
          "type": "bool"
        }
      ],
      "stateMutability": "view",
      "type": "function"
    },
    {
      "inputs": [],
      "name": "operatorFilterRegistry",
      "outputs": [
        {
          "internalType": "contract IOperatorFilterRegistry",
          "name": "",
          "type": "address"
        }
      ],
      "stateMutability": "view",
      "type": "function"
    },
    {
      "inputs": [],
      "name": "owner",
      "outputs": [
        {
          "internalType": "address",
          "name": "",
          "type": "address"
        }
      ],
      "stateMutability": "view",
      "type": "function"
    },
    {
      "inputs": [
        {
          "internalType": "address[]",
          "name": "accounts",
          "type": "address[]"
        },
        {
          "internalType": "contract IERC20[]",
          "name": "tokens",
          "type": "address[]"
        },
        {
          "internalType": "uint256[]",
          "name": "amounts",
          "type": "uint256[]"
        }
      ],
      "name": "recoverERC20s",
      "outputs": [],
      "stateMutability": "nonpayable",
      "type": "function"
    },
    {
      "inputs": [
        {
          "internalType": "address[]",
          "name": "accounts",
          "type": "address[]"
        },
        {
          "internalType": "contract IERC721[]",
          "name": "contracts",
          "type": "address[]"
        },
        {
          "internalType": "uint256[]",
          "name": "tokenIds",
          "type": "uint256[]"
        }
      ],
      "name": "recoverERC721s",
      "outputs": [],
      "stateMutability": "nonpayable",
      "type": "function"
    },
    {
      "inputs": [
        {
          "internalType": "address payable[]",
          "name": "accounts",
          "type": "address[]"
        },
        {
          "internalType": "uint256[]",
          "name": "amounts",
          "type": "uint256[]"
        }
      ],
      "name": "recoverETH",
      "outputs": [],
      "stateMutability": "nonpayable",
      "type": "function"
    },
    {
      "inputs": [
        {
          "internalType": "bytes32",
          "name": "role",
          "type": "bytes32"
        }
      ],
      "name": "renounceRole",
      "outputs": [],
      "stateMutability": "nonpayable",
      "type": "function"
    },
    {
      "inputs": [
        {
          "internalType": "bytes32",
          "name": "role",
          "type": "bytes32"
        },
        {
          "internalType": "address",
          "name": "account",
          "type": "address"
        }
      ],
      "name": "revokeRole",
      "outputs": [],
      "stateMutability": "nonpayable",
      "type": "function"
    },
    {
      "inputs": [
        {
          "internalType": "uint256",
          "name": "tokenId",
          "type": "uint256"
        },
        {
          "internalType": "uint256",
          "name": "salePrice",
          "type": "uint256"
        }
      ],
      "name": "royaltyInfo",
      "outputs": [
        {
          "internalType": "address",
          "name": "receiver",
          "type": "address"
        },
        {
          "internalType": "uint256",
          "name": "royaltyAmount",
          "type": "uint256"
        }
      ],
      "stateMutability": "view",
      "type": "function"
    },
    {
      "inputs": [
        {
          "internalType": "address",
          "name": "to",
          "type": "address"
        },
        {
          "internalType": "uint256[]",
          "name": "ids",
          "type": "uint256[]"
        },
        {
          "internalType": "uint256[]",
          "name": "values",
          "type": "uint256[]"
        },
        {
          "internalType": "bytes",
          "name": "data",
          "type": "bytes"
        }
      ],
      "name": "safeBatchMint",
      "outputs": [],
      "stateMutability": "nonpayable",
      "type": "function"
    },
    {
      "inputs": [
        {
          "internalType": "address",
          "name": "from",
          "type": "address"
        },
        {
          "internalType": "address",
          "name": "to",
          "type": "address"
        },
        {
          "internalType": "uint256[]",
          "name": "ids",
          "type": "uint256[]"
        },
        {
          "internalType": "uint256[]",
          "name": "values",
          "type": "uint256[]"
        },
        {
          "internalType": "bytes",
          "name": "data",
          "type": "bytes"
        }
      ],
      "name": "safeBatchTransferFrom",
      "outputs": [],
      "stateMutability": "nonpayable",
      "type": "function"
    },
    {
      "inputs": [
        {
          "internalType": "address[]",
          "name": "recipients",
          "type": "address[]"
        },
        {
          "internalType": "uint256[]",
          "name": "ids",
          "type": "uint256[]"
        },
        {
          "internalType": "uint256[]",
          "name": "values",
          "type": "uint256[]"
        },
        {
          "internalType": "bytes",
          "name": "data",
          "type": "bytes"
        }
      ],
      "name": "safeDeliver",
      "outputs": [],
      "stateMutability": "nonpayable",
      "type": "function"
    },
    {
      "inputs": [
        {
          "internalType": "address",
          "name": "to",
          "type": "address"
        },
        {
          "internalType": "uint256",
          "name": "id",
          "type": "uint256"
        },
        {
          "internalType": "uint256",
          "name": "value",
          "type": "uint256"
        },
        {
          "internalType": "bytes",
          "name": "data",
          "type": "bytes"
        }
      ],
      "name": "safeMint",
      "outputs": [],
      "stateMutability": "nonpayable",
      "type": "function"
    },
    {
      "inputs": [
        {
          "internalType": "address",
          "name": "from",
          "type": "address"
        },
        {
          "internalType": "address",
          "name": "to",
          "type": "address"
        },
        {
          "internalType": "uint256",
          "name": "id",
          "type": "uint256"
        },
        {
          "internalType": "uint256",
          "name": "value",
          "type": "uint256"
        },
        {
          "internalType": "bytes",
          "name": "data",
          "type": "bytes"
        }
      ],
      "name": "safeTransferFrom",
      "outputs": [],
      "stateMutability": "nonpayable",
      "type": "function"
    },
    {
      "inputs": [
        {
          "internalType": "address",
          "name": "operator",
          "type": "address"
        },
        {
          "internalType": "bool",
          "name": "approved",
          "type": "bool"
        }
      ],
      "name": "setApprovalForAll",
      "outputs": [],
      "stateMutability": "nonpayable",
      "type": "function"
    },
    {
      "inputs": [
        {
          "internalType": "string",
          "name": "baseURI",
          "type": "string"
        }
      ],
      "name": "setBaseMetadataURI",
      "outputs": [],
      "stateMutability": "nonpayable",
      "type": "function"
    },
    {
      "inputs": [
        {
          "internalType": "uint256",
          "name": "percentage",
          "type": "uint256"
        }
      ],
      "name": "setRoyaltyPercentage",
      "outputs": [],
      "stateMutability": "nonpayable",
      "type": "function"
    },
    {
      "inputs": [
        {
          "internalType": "address",
          "name": "receiver",
          "type": "address"
        }
      ],
      "name": "setRoyaltyReceiver",
      "outputs": [],
      "stateMutability": "nonpayable",
      "type": "function"
    },
    {
      "inputs": [
        {
          "internalType": "bytes4",
          "name": "interfaceId",
          "type": "bytes4"
        }
      ],
      "name": "supportsInterface",
      "outputs": [
        {
          "internalType": "bool",
          "name": "",
          "type": "bool"
        }
      ],
      "stateMutability": "view",
      "type": "function"
    },
    {
      "inputs": [
        {
          "internalType": "address",
          "name": "newOwner",
          "type": "address"
        }
      ],
      "name": "transferOwnership",
      "outputs": [],
      "stateMutability": "nonpayable",
      "type": "function"
    },
    {
      "inputs": [
        {
          "internalType": "contract IOperatorFilterRegistry",
          "name": "registry",
          "type": "address"
        }
      ],
      "name": "updateOperatorFilterRegistry",
      "outputs": [],
      "stateMutability": "nonpayable",
      "type": "function"
    },
    {
      "inputs": [
        {
          "internalType": "uint256",
          "name": "id",
          "type": "uint256"
        }
      ],
      "name": "uri",
      "outputs": [
        {
          "internalType": "string",
          "name": "metadataURI",
          "type": "string"
        }
      ],
      "stateMutability": "view",
      "type": "function"
    }
  ],
  "bytecode": "0x60a06040523480156200001157600080fd5b5060405162004e0538038062004e058339810160408190526200003491620003f1565b8181808083336200006881620000546200012e60201b62000faf1760201c565b6200016460201b62000fdd1790919060201c565b506200007e620001f760201b6200109a1760201c565b620000ac81620000986200021c60201b620010ca1760201c565b6200024c60201b620010f81790919060201c565b50620000c26200026960201b6200113a1760201c565b620000d76200028c60201b620011681760201c565b620000ec620002af60201b620011961760201c565b62000101620002d260201b620011c41760201c565b62000116620002f560201b620011f21760201c565b6001600160a01b031660805250620004529350505050565b6000806200015e60017fc9ed16f33ab3a66c84bfd83099ccb2a8845871e2e1c1928f63797152f0fd54cd62000430565b92915050565b6001600160a01b03811615620001bb5781546001600160a01b0319166001600160a01b03821690811783556040516000907f8be0079c531659141344cd1fd0a4f28419497f9722a3daafe3b4186f6b6457e0908290a35b620001f36307f5828d60e41b6001620001de6200031860201b6200121c1760201c565b6200034860201b6200124a179092919060201c565b5050565b6200021a636cdb3d1360e11b6001620001de6200031860201b6200121c1760201c565b565b6000806200015e60017f609b85bcafa81ecfaf3ff62cdde2c6c9082a68dbe4922f07399c706bdeb7cd3162000430565b81546001600160a01b0319166001600160a01b0391909116179055565b6200021a631464324b60e21b6001620001de6200031860201b6200121c1760201c565b6200021a633a2ae73360e21b6001620001de6200031860201b6200121c1760201c565b6200021a6303a24d0760e21b6001620001de6200031860201b6200121c1760201c565b6200021a63921ed8d160e01b6001620001de6200031860201b6200121c1760201c565b6200021a63152a902d60e11b6001620001de6200031860201b6200121c1760201c565b6000806200015e60017fca9d3e17f264b0f3984e2634e94adb37fa3e6a8103f06aeae6fa59e21c769f5e62000430565b600160e01b6001600160e01b0319831601620003aa5760405162461bcd60e51b815260206004820152601f60248201527f496e74657266616365446574656374696f6e3a2077726f6e672076616c756500604482015260640160405180910390fd5b6001600160e01b03199190911660009081526020929092526040909120805460ff1916911515919091179055565b6001600160a01b0381168114620003ee57600080fd5b50565b600080604083850312156200040557600080fd5b82516200041281620003d8565b60208401519092506200042581620003d8565b809150509250929050565b818103818111156200015e57634e487b7160e01b600052601160045260246000fd5b608051614974620004916000396000818161030f015281816103c001528181612d0c01528181612d940152818161368201526136c001526149746000f3fe608060405234801561001057600080fd5b50600436106102255760003560e01c80637e518ec81161012a578063c3666c36116100bd578063e8ab9ccc1161008c578063f242432a11610071578063f242432a1461053d578063f2fde38b14610550578063f7ba94bd1461056357600080fd5b8063e8ab9ccc14610517578063e985e9c51461052a57600080fd5b8063c3666c36146104c0578063d5391393146104d3578063d547741f146104fa578063e1a8bf2c1461050d57600080fd5b80638dc251e3116100f95780638dc251e31461047f57806391d1485414610492578063a22cb465146104a5578063b0ccc31e146104b857600080fd5b80637e518ec81461043e57806380534934146104515780638bb9c5bf146104645780638da5cb5b1461047757600080fd5b80632eb2c2d6116101bd578063572b6c051161018c5780635cfa9297116101715780635cfa92971461040557806361ba27da1461041857806373c8a9581461042b57600080fd5b8063572b6c05146103b05780635b2bd79e146103fd57600080fd5b80632eb2c2d6146103545780632f2ff15d1461036757806331e66e1e1461037a5780634e1273f41461039057600080fd5b8063114ba8ee116101f9578063114ba8ee146102a8578063124d91e5146102bb5780632a55205a146102ce5780632b4c9f161461030d57600080fd5b8062fdd58e1461022a57806301ffc9a7146102505780630d6a5bbb146102735780630e89341c14610288575b600080fd5b61023d610238366004613bc3565b610576565b6040519081526020015b60405180910390f35b61026361025e366004613c1d565b610595565b6040519015158152602001610247565b610286610281366004613cc8565b6105a9565b005b61029b610296366004613d75565b6106a4565b6040516102479190613dfc565b6102866102b6366004613e0f565b6106b8565b6102866102c9366004613e2c565b610723565b6102e16102dc366004613e61565b610747565b6040805173ffffffffffffffffffffffffffffffffffffffff9093168352602083019190915201610247565b7f00000000000000000000000000000000000000000000000000000000000000005b60405173ffffffffffffffffffffffffffffffffffffffff9091168152602001610247565b610286610362366004613e83565b61076a565b610286610375366004613f42565b6107b7565b6103826107e5565b604051610247929190613fbb565b6103a361039e366004613fcf565b6107f8565b6040516102479190614076565b6102636103be366004613e0f565b7f000000000000000000000000000000000000000000000000000000000000000073ffffffffffffffffffffffffffffffffffffffff90811691161490565b61029b61081d565b610286610413366004614089565b610834565b610286610426366004613d75565b6108c6565b6102866104393660046140f3565b6108e3565b61028661044c36600461418d565b610a01565b61028661045f3660046141cf565b610a24565b610286610472366004613d75565b610a4e565b61032f610a69565b61028661048d366004613e0f565b610a90565b6102636104a0366004613f42565b610aad565b6102866104b336600461424f565b610af1565b61032f610b26565b6102866104ce3660046140f3565b610b33565b61023d7f6d696e746572000000000000000000000000000000000000000000000000000081565b610286610508366004613f42565b610cd8565b61023d620186a081565b61028661052536600461427d565b610d06565b610263610538366004614320565b610e20565b61028661054b36600461434e565b610e6e565b61028661055e366004613e0f565b610eae565b610286610571366004613fcf565b610ec9565b600061058c8383610585611356565b9190611384565b90505b92915050565b600061058f826105a361121c565b90611438565b60006105b3611512565b90506105e97f6d696e7465720000000000000000000000000000000000000000000000000000826105e261151c565b919061154a565b61069a818989898080602002602001604051908101604052809392919081815260200183836020028082843760009201919091525050604080516020808d0282810182019093528c82529093508c92508b91829185019084908082843760009201919091525050604080516020601f8c018190048102820181019092528a815292508a91508990819084018382808284376000920191909152506106909250611356915050565b94939291906115f6565b5050505050505050565b606061058f826106b26117db565b90611809565b6106d16106c3611512565b6106cb610faf565b9061183d565b610720816106dd6110ca565b9081547fffffffffffffffffffffffff00000000000000000000000000000000000000001673ffffffffffffffffffffffffffffffffffffffff91909116179055565b50565b61074261072e611512565b848484610739611356565b939291906118c0565b505050565b60008061075e848461075761199d565b91906119cb565b915091505b9250929050565b6000610774611512565b905061078a818a6107836110ca565b9190611a75565b6107ac818a8a8a8a8a8a8a8a61079e611356565b989796959493929190611ab2565b505050505050505050565b60006107c1611512565b90506107cf816106cb610faf565b6107428383836107dd61151c565b929190611daa565b3660006107f0611e81565b915091509091565b606061081285858585610809611356565b93929190611e8c565b90505b949350505050565b606061082f61082a6117db565b611fca565b905090565b600061083e611512565b905061086d7f6d696e7465720000000000000000000000000000000000000000000000000000826105e261151c565b6108be8187878787878080601f0160208091040260200160405190810160405280939291908181526020018383808284376000920191909152506108b49250611356915050565b9493929190612060565b505050505050565b6108d16106c3611512565b610720816108dd61199d565b9061216e565b6108ee6106c3611512565b8483811480156108fd57508082145b610968576040517f08c379a000000000000000000000000000000000000000000000000000000000815260206004820152601d60248201527f5265636f766572793a20696e636f6e73697374656e742061727261797300000060448201526064015b60405180910390fd5b60005b81811461069a576109f9888883818110610987576109876143b8565b905060200201602081019061099c9190613e0f565b8585848181106109ae576109ae6143b8565b905060200201358888858181106109c7576109c76143b8565b90506020020160208101906109dc9190613e0f565b73ffffffffffffffffffffffffffffffffffffffff1691906121f4565b60010161096b565b610a0c6106c3611512565b610a208282610a196117db565b9190612281565b5050565b610a47610a2f611512565b8686868686610a3c611356565b9594939291906122cc565b5050505050565b610720610a59611512565b82610a6261151c565b9190612483565b600061082f610a76610faf565b5473ffffffffffffffffffffffffffffffffffffffff1690565b610a9b6106c3611512565b61072081610aa761199d565b9061251f565b600061058c8383610abc61151c565b60009283526020908152604080842073ffffffffffffffffffffffffffffffffffffffff909316845291905290205460ff1690565b8015610b0957610b0982610b036110ca565b9061256c565b610a20610b14611512565b8383610b1e611356565b929190612576565b600061082f610a766110ca565b610b3e6106c3611512565b848381148015610b4d57508082145b610bb3576040517f08c379a000000000000000000000000000000000000000000000000000000000815260206004820152601d60248201527f5265636f766572793a20696e636f6e73697374656e7420617272617973000000604482015260640161095f565b60005b81811461069a57858582818110610bcf57610bcf6143b8565b9050602002016020810190610be49190613e0f565b73ffffffffffffffffffffffffffffffffffffffff166323b872dd308a8a85818110610c1257610c126143b8565b9050602002016020810190610c279190613e0f565b878786818110610c3957610c396143b8565b6040517fffffffff0000000000000000000000000000000000000000000000000000000060e088901b16815273ffffffffffffffffffffffffffffffffffffffff958616600482015294909316602485015250602090910201356044820152606401600060405180830381600087803b158015610cb557600080fd5b505af1158015610cc9573d6000803e3d6000fd5b50505050806001019050610bb6565b6000610ce2611512565b9050610cf0816106cb610faf565b610742838383610cfe61151c565b9291906126a6565b6000610d10611512565b9050610d3f7f6d696e7465720000000000000000000000000000000000000000000000000000826105e261151c565b6107ac818a8a8080602002602001604051908101604052809392919081815260200183836020028082843760009201919091525050604080516020808e0282810182019093528d82529093508d92508c91829185019084908082843760009201919091525050604080516020808d0282810182019093528c82529093508c92508b91829185019084908082843760009201919091525050604080516020601f8c018190048102820181019092528a815292508a9150899081908401838280828437600092019190915250610e169250611356915050565b9493929190612770565b600061058c8383610e2f611356565b919073ffffffffffffffffffffffffffffffffffffffff9182166000908152600193909301602090815260408085209290931684525290205460ff1690565b6000610e78611512565b9050610e8781886107836110ca565b610ea581888888888888610e99611356565b96959493929190612860565b50505050505050565b610720610eb9611512565b82610ec2610faf565b9190612a43565b610ed46106c3611512565b82818114610f3e576040517f08c379a000000000000000000000000000000000000000000000000000000000815260206004820152601d60248201527f5265636f766572793a20696e636f6e73697374656e7420617272617973000000604482015260640161095f565b60005b8181146108be57610fa7848483818110610f5d57610f5d6143b8565b90506020020135878784818110610f7657610f766143b8565b9050602002016020810190610f8b9190613e0f565b73ffffffffffffffffffffffffffffffffffffffff1690612b6f565b600101610f41565b60008061058f60017fc9ed16f33ab3a66c84bfd83099ccb2a8845871e2e1c1928f63797152f0fd54cd614416565b73ffffffffffffffffffffffffffffffffffffffff8116156110655781547fffffffffffffffffffffffff00000000000000000000000000000000000000001673ffffffffffffffffffffffffffffffffffffffff821690811783556040516000907f8be0079c531659141344cd1fd0a4f28419497f9722a3daafe3b4186f6b6457e0908290a35b610a207f7f5828d000000000000000000000000000000000000000000000000000000000600161109361121c565b919061124a565b6110c87fd9b67a2600000000000000000000000000000000000000000000000000000000600161109361121c565b565b60008061058f60017f609b85bcafa81ecfaf3ff62cdde2c6c9082a68dbe4922f07399c706bdeb7cd31614416565b81547fffffffffffffffffffffffff00000000000000000000000000000000000000001673ffffffffffffffffffffffffffffffffffffffff91909116179055565b6110c87f5190c92c00000000000000000000000000000000000000000000000000000000600161109361121c565b6110c87fe8ab9ccc00000000000000000000000000000000000000000000000000000000600161109361121c565b6110c87f0e89341c00000000000000000000000000000000000000000000000000000000600161109361121c565b6110c87f921ed8d100000000000000000000000000000000000000000000000000000000600161109361121c565b6110c87f2a55205a0000000000000000000000000000000000000000000000000000000060016110935b60008061058f60017fca9d3e17f264b0f3984e2634e94adb37fa3e6a8103f06aeae6fa59e21c769f5e614416565b7c01000000000000000000000000000000000000000000000000000000007fffffffff000000000000000000000000000000000000000000000000000000008316016112f2576040517f08c379a000000000000000000000000000000000000000000000000000000000815260206004820152601f60248201527f496e74657266616365446574656374696f6e3a2077726f6e672076616c756500604482015260640161095f565b7fffffffff00000000000000000000000000000000000000000000000000000000919091166000908152602092909252604090912080547fffffffffffffffffffffffffffffffffffffffffffffffffffffffffffffff0016911515919091179055565b60008061058f60017f5ccf5846fa27a68fafc8e588671a68f5e67c2f9b56af4263806a4d71735e8613614416565b600073ffffffffffffffffffffffffffffffffffffffff8316611403576040517f08c379a000000000000000000000000000000000000000000000000000000000815260206004820152601e60248201527f455243313135353a2062616c616e6365206f6620616464726573732830290000604482015260640161095f565b5060009081526020928352604080822073ffffffffffffffffffffffffffffffffffffffff9390931682529190925290205490565b60007c01000000000000000000000000000000000000000000000000000000007fffffffff000000000000000000000000000000000000000000000000000000008316016114885750600061058f565b7ffe003659000000000000000000000000000000000000000000000000000000007fffffffff000000000000000000000000000000000000000000000000000000008316016114d95750600161058f565b507fffffffff00000000000000000000000000000000000000000000000000000000166000908152602091909152604090205460ff1690565b600061082f612cc9565b60008061058f60017fc8827d3282af6f37b64c3e9e6f3ac9df286ab0bb0fccd6f8661bf19adb368b23614416565b60008281526020848152604080832073ffffffffffffffffffffffffffffffffffffffff8516845290915290205460ff166107425761158882612e10565b6040516020016115989190614429565b604080517fffffffffffffffffffffffffffffffffffffffffffffffffffffffffffffffe0818403018152908290527f08c379a000000000000000000000000000000000000000000000000000000000825261095f91600401613dfc565b73ffffffffffffffffffffffffffffffffffffffff8416611673576040517f08c379a000000000000000000000000000000000000000000000000000000000815260206004820152601b60248201527f455243313135353a206d696e7420746f20616464726573732830290000000000604482015260640161095f565b8251825181146116df576040517f08c379a000000000000000000000000000000000000000000000000000000000815260206004820152601c60248201527f455243313135353a20696e636f6e73697374656e742061727261797300000000604482015260640161095f565b60005b81811461172f576117278887878481518110611700576117006143b8565b602002602001015187858151811061171a5761171a6143b8565b6020026020010151612fa2565b6001016116e2565b508473ffffffffffffffffffffffffffffffffffffffff16600073ffffffffffffffffffffffffffffffffffffffff168773ffffffffffffffffffffffffffffffffffffffff167f4a39dc06d4c0dbc64b70af90fd698a233a518aa5d07e595d983b8c0526c8f7fb87876040516117a7929190614495565b60405180910390a473ffffffffffffffffffffffffffffffffffffffff85163b15610ea557610ea586600087878787613076565b60008061058f60017fe94434e3c6b941c5d90218142fadcc69cb2e13723993540bfa1c131dd1d3475a614416565b6060826118158361319e565b604051602001611826929190614516565b604051602081830303815290604052905092915050565b815473ffffffffffffffffffffffffffffffffffffffff828116911614610a20576040517f08c379a000000000000000000000000000000000000000000000000000000000815260206004820152601860248201527f4f776e6572736869703a206e6f7420746865206f776e65720000000000000000604482015260640161095f565b6118cb85848661325c565b611931576040517f08c379a000000000000000000000000000000000000000000000000000000000815260206004820152601c60248201527f455243313135353a206e6f6e2d617070726f7665642073656e64657200000000604482015260640161095f565b61193d858484846132d1565b604080518381526020810183905260009173ffffffffffffffffffffffffffffffffffffffff86811692908816917fc3d58168c5ae7397731d063d5bbf3d657854427343f4c083240f7aacaa2d0f62910160405180910390a45050505050565b60008061058f60017f2c0cf10337caabbd02dcf226f05f5fd19a0919a41a8df8958c39b80007826858614416565b825473ffffffffffffffffffffffffffffffffffffffff8116906000907401000000000000000000000000000000000000000090046bffffffffffffffffffffffff16831580611a19575080155b15611a275760009150611a6c565b620186a0841015611a5157620186a0611a4082866145bb565b611a4a91906145d2565b9150611a6c565b80611a5f620186a0866145d2565b611a6991906145bb565b91505b50935093915050565b8073ffffffffffffffffffffffffffffffffffffffff168273ffffffffffffffffffffffffffffffffffffffff1614610742576107428383613371565b73ffffffffffffffffffffffffffffffffffffffff8716611b2f576040517f08c379a000000000000000000000000000000000000000000000000000000000815260206004820152601f60248201527f455243313135353a207472616e7366657220746f206164647265737328302900604482015260640161095f565b84838114611b99576040517f08c379a000000000000000000000000000000000000000000000000000000000815260206004820152601c60248201527f455243313135353a20696e636f6e73697374656e742061727261797300000000604482015260640161095f565b611ba48b8a8c61325c565b611c0a576040517f08c379a000000000000000000000000000000000000000000000000000000000815260206004820152601c60248201527f455243313135353a206e6f6e2d617070726f7665642073656e64657200000000604482015260640161095f565b60005b818114611c5957611c518c8b8b8b8b86818110611c2c57611c2c6143b8565b905060200201358a8a87818110611c4557611c456143b8565b90506020020135613498565b600101611c0d565b508773ffffffffffffffffffffffffffffffffffffffff168973ffffffffffffffffffffffffffffffffffffffff168b73ffffffffffffffffffffffffffffffffffffffff167f4a39dc06d4c0dbc64b70af90fd698a233a518aa5d07e595d983b8c0526c8f7fb8a8a8a8a604051611cd49493929190614658565b60405180910390a473ffffffffffffffffffffffffffffffffffffffff88163b15611d9d57611d9d8a8a8a8a8a8080602002602001604051908101604052809392919081815260200183836020028082843760009201919091525050604080516020808e0282810182019093528d82529093508d92508c91829185019084908082843760009201919091525050604080516020601f8d018190048102820181019092528b815292508b91508a908190840183828082843760009201919091525061307692505050565b5050505050505050505050565b60008381526020858152604080832073ffffffffffffffffffffffffffffffffffffffff8616845290915290205460ff16611e7b5760008381526020858152604080832073ffffffffffffffffffffffffffffffffffffffff8681168086529184529382902080547fffffffffffffffffffffffffffffffffffffffffffffffffffffffffffffff00166001179055815187815292830152918316918101919091527f2f8788117e7eff1d82e926ec794901d17c78024a50270940304540a733656f0d906060015b60405180910390a15b50505050565b3660006107f061364b565b606083828114611ef8576040517f08c379a000000000000000000000000000000000000000000000000000000000815260206004820152601c60248201527f455243313135353a20696e636f6e73697374656e742061727261797300000000604482015260640161095f565b8467ffffffffffffffff811115611f1157611f1161467f565b604051908082528060200260200182016040528015611f3a578160200160208202803683370190505b50915060005b818114611fbf57611f9a878783818110611f5c57611f5c6143b8565b9050602002016020810190611f719190613e0f565b868684818110611f8357611f836143b8565b905060200201358a6113849092919063ffffffff16565b838281518110611fac57611fac6143b8565b6020908102919091010152600101611f40565b505095945050505050565b6060816000018054611fdb906144c3565b80601f0160208091040260200160405190810160405280929190818152602001828054612007906144c3565b80156120545780601f1061202957610100808354040283529160200191612054565b820191906000526020600020905b81548152906001019060200180831161203757829003601f168201915b50505050509050919050565b73ffffffffffffffffffffffffffffffffffffffff84166120dd576040517f08c379a000000000000000000000000000000000000000000000000000000000815260206004820152601b60248201527f455243313135353a206d696e7420746f20616464726573732830290000000000604482015260640161095f565b6120e986858585612fa2565b604080518481526020810184905273ffffffffffffffffffffffffffffffffffffffff80871692600092918916917fc3d58168c5ae7397731d063d5bbf3d657854427343f4c083240f7aacaa2d0f62910160405180910390a473ffffffffffffffffffffffffffffffffffffffff84163b156108be576108be856000868686866137b5565b620186a08111156121ae576040517f3affc6c40000000000000000000000000000000000000000000000000000000081526004810182905260240161095f565b81546bffffffffffffffffffffffff909116740100000000000000000000000000000000000000000273ffffffffffffffffffffffffffffffffffffffff909116179055565b6040805173ffffffffffffffffffffffffffffffffffffffff8416602482015260448082018490528251808303909101815260649091019091526020810180517bffffffffffffffffffffffffffffffffffffffffffffffffffffffff167fa9059cbb00000000000000000000000000000000000000000000000000000000179052610742908490613811565b8261228d8284836146f4565b507f04b1dc5c136a3ce9fded8db0ce3d3366c58764ec3a8e4c2b9e52e4ddfe5ebbf782826040516122bf929190613fbb565b60405180910390a1505050565b82818114612336576040517f08c379a000000000000000000000000000000000000000000000000000000000815260206004820152601c60248201527f455243313135353a20696e636f6e73697374656e742061727261797300000000604482015260640161095f565b61234188878961325c565b6123a7576040517f08c379a000000000000000000000000000000000000000000000000000000000815260206004820152601c60248201527f455243313135353a206e6f6e2d617070726f7665642073656e64657200000000604482015260640161095f565b60005b8181146123f5576123ed89888888858181106123c8576123c86143b8565b905060200201358787868181106123e1576123e16143b8565b905060200201356132d1565b6001016123aa565b50600073ffffffffffffffffffffffffffffffffffffffff168673ffffffffffffffffffffffffffffffffffffffff168873ffffffffffffffffffffffffffffffffffffffff167f4a39dc06d4c0dbc64b70af90fd698a233a518aa5d07e595d983b8c0526c8f7fb888888886040516124719493929190614658565b60405180910390a45050505050505050565b61248e83828461154a565b60008181526020848152604080832073ffffffffffffffffffffffffffffffffffffffff86168085529083529281902080547fffffffffffffffffffffffffffffffffffffffffffffffffffffffffffffff0016905580518481529182018390528101919091527ff6391f5c32d9c69d2a47ea670b442974b53935d1edc7fd64eb21e047a839171b906060016122bf565b73ffffffffffffffffffffffffffffffffffffffff81166110f8576040517f6fe1b4c800000000000000000000000000000000000000000000000000000000815260040160405180910390fd5b610a208282613371565b8273ffffffffffffffffffffffffffffffffffffffff168273ffffffffffffffffffffffffffffffffffffffff160361260b576040517f08c379a000000000000000000000000000000000000000000000000000000000815260206004820152601e60248201527f455243313135353a2073656c662d617070726f76616c20666f7220616c6c0000604482015260640161095f565b73ffffffffffffffffffffffffffffffffffffffff838116600081815260018701602090815260408083209487168084529482529182902080547fffffffffffffffffffffffffffffffffffffffffffffffffffffffffffffff001686151590811790915591519182527f17307eab39ab6107e8899845ad3d59bd9653f200f220920489ca2b5937696c31910160405180910390a350505050565b60008381526020858152604080832073ffffffffffffffffffffffffffffffffffffffff8616845290915290205460ff1615611e7b5760008381526020858152604080832073ffffffffffffffffffffffffffffffffffffffff8681168086529184529382902080547fffffffffffffffffffffffffffffffffffffffffffffffffffffffffffffff00169055815187815292830152918316918101919091527ff6391f5c32d9c69d2a47ea670b442974b53935d1edc7fd64eb21e047a839171b90606001611e72565b83518351811480156127825750825181145b6127e8576040517f08c379a000000000000000000000000000000000000000000000000000000000815260206004820152601c60248201527f455243313135353a20696e636f6e73697374656e742061727261797300000000604482015260640161095f565b60005b81811461069a5761285887878381518110612808576128086143b8565b6020026020010151878481518110612822576128226143b8565b602002602001015187858151811061283c5761283c6143b8565b6020026020010151878d6120609095949392919063ffffffff16565b6001016127eb565b73ffffffffffffffffffffffffffffffffffffffff85166128dd576040517f08c379a000000000000000000000000000000000000000000000000000000000815260206004820152601f60248201527f455243313135353a207472616e7366657220746f206164647265737328302900604482015260640161095f565b6128e888878961325c565b61294e576040517f08c379a000000000000000000000000000000000000000000000000000000000815260206004820152601c60248201527f455243313135353a206e6f6e2d617070726f7665642073656e64657200000000604482015260640161095f565b61295b8887878787613498565b8473ffffffffffffffffffffffffffffffffffffffff168673ffffffffffffffffffffffffffffffffffffffff168873ffffffffffffffffffffffffffffffffffffffff167fc3d58168c5ae7397731d063d5bbf3d657854427343f4c083240f7aacaa2d0f6287876040516129da929190918252602082015260400190565b60405180910390a473ffffffffffffffffffffffffffffffffffffffff85163b1561069a5761069a878787878787878080601f0160208091040260200160405190810160405280939291908181526020018383808284376000920191909152506137b592505050565b825473ffffffffffffffffffffffffffffffffffffffff9081169083168114612ac8576040517f08c379a000000000000000000000000000000000000000000000000000000000815260206004820152601860248201527f4f776e6572736869703a206e6f7420746865206f776e65720000000000000000604482015260640161095f565b8173ffffffffffffffffffffffffffffffffffffffff168173ffffffffffffffffffffffffffffffffffffffff1614611e7b5783547fffffffffffffffffffffffff00000000000000000000000000000000000000001673ffffffffffffffffffffffffffffffffffffffff8381169182178655604051908316907f8be0079c531659141344cd1fd0a4f28419497f9722a3daafe3b4186f6b6457e090600090a350505050565b80471015612bd9576040517f08c379a000000000000000000000000000000000000000000000000000000000815260206004820152601d60248201527f416464726573733a20696e73756666696369656e742062616c616e6365000000604482015260640161095f565b60008273ffffffffffffffffffffffffffffffffffffffff168260405160006040518083038185875af1925050503d8060008114612c33576040519150601f19603f3d011682016040523d82523d6000602084013e612c38565b606091505b5050905080610742576040517f08c379a000000000000000000000000000000000000000000000000000000000815260206004820152603a60248201527f416464726573733a20756e61626c6520746f2073656e642076616c75652c207260448201527f6563697069656e74206d61792068617665207265766572746564000000000000606482015260840161095f565b600033321480612cd95750601836105b15612ce357503390565b7fffffffffffffffffffffffffffffffffffffffffffffffffffffffffffffffec36013560601c7f000000000000000000000000000000000000000000000000000000000000000073ffffffffffffffffffffffffffffffffffffffff16331480612dff57506040517f8929a8ca00000000000000000000000000000000000000000000000000000000815273ffffffffffffffffffffffffffffffffffffffff82811660048301523360248301527f00000000000000000000000000000000000000000000000000000000000000001690638929a8ca90604401602060405180830381865afa158015612ddb573d6000803e3d6000fd5b505050506040513d601f19601f82011682018060405250810190612dff919061480e565b15612e0957919050565b3391505090565b60606000829003612e2f57505060408051602081019091526000815290565b600082604051602001612e4491815260200190565b604080517fffffffffffffffffffffffffffffffffffffffffffffffffffffffffffffffe08184030181529190529050601f5b818181518110612e8957612e896143b8565b01602001517fff0000000000000000000000000000000000000000000000000000000000000016600003612ede577fffffffffffffffffffffffffffffffffffffffffffffffffffffffffffffffff01612e77565b60008160010167ffffffffffffffff811115612efc57612efc61467f565b6040519080825280601f01601f191660200182016040528015612f26576020820181803683370190505b50905060005b828111612f9957838181518110612f4557612f456143b8565b602001015160f81c60f81b828281518110612f6257612f626143b8565b60200101907effffffffffffffffffffffffffffffffffffffffffffffffffffffffffffff1916908160001a905350600101612f2c565b50949350505050565b8015611e7b5760008281526020858152604080832073ffffffffffffffffffffffffffffffffffffffff87168452909152902054818101818111613042576040517f08c379a000000000000000000000000000000000000000000000000000000000815260206004820152601960248201527f455243313135353a2062616c616e6365206f766572666c6f7700000000000000604482015260640161095f565b60009384526020958652604080852073ffffffffffffffffffffffffffffffffffffffff9690961685529490955250502055565b6040517fbc197c81000000000000000000000000000000000000000000000000000000008082529073ffffffffffffffffffffffffffffffffffffffff86169063bc197c81906130d2908a908a9089908990899060040161482b565b6020604051808303816000875af11580156130f1573d6000803e3d6000fd5b505050506040513d601f19601f820116820180604052508101906131159190614896565b7fffffffff0000000000000000000000000000000000000000000000000000000016146108be576040517f08c379a000000000000000000000000000000000000000000000000000000000815260206004820152601a60248201527f455243313135353a207472616e736665722072656a6563746564000000000000604482015260640161095f565b606060006131ab8361391d565b600101905060008167ffffffffffffffff8111156131cb576131cb61467f565b6040519080825280601f01601f1916602001820160405280156131f5576020820181803683370190505b5090508181016020015b7fffffffffffffffffffffffffffffffffffffffffffffffffffffffffffffffff017f3031323334353637383961626364656600000000000000000000000000000000600a86061a8153600a85049450846131ff57509392505050565b60008173ffffffffffffffffffffffffffffffffffffffff168373ffffffffffffffffffffffffffffffffffffffff16148061081557505073ffffffffffffffffffffffffffffffffffffffff9182166000908152600193909301602090815260408085209290931684525290205460ff1690565b8015611e7b5760008281526020858152604080832073ffffffffffffffffffffffffffffffffffffffff87168452909152902054818103818110613042576040517f08c379a000000000000000000000000000000000000000000000000000000000815260206004820152601d60248201527f455243313135353a20696e73756666696369656e742062616c616e6365000000604482015260640161095f565b815473ffffffffffffffffffffffffffffffffffffffff1680158015906133af575060008173ffffffffffffffffffffffffffffffffffffffff163b115b15610742576040517fc617113400000000000000000000000000000000000000000000000000000000815230600482015273ffffffffffffffffffffffffffffffffffffffff838116602483015282169063c617113490604401602060405180830381865afa158015613426573d6000803e3d6000fd5b505050506040513d601f19601f8201168201806040525081019061344a919061480e565b610742576040517fede71dcc00000000000000000000000000000000000000000000000000000000815273ffffffffffffffffffffffffffffffffffffffff8316600482015260240161095f565b8015610a475760008281526020868152604080832073ffffffffffffffffffffffffffffffffffffffff88168452909152902054818103818110613538576040517f08c379a000000000000000000000000000000000000000000000000000000000815260206004820152601d60248201527f455243313135353a20696e73756666696369656e742062616c616e6365000000604482015260640161095f565b8473ffffffffffffffffffffffffffffffffffffffff168673ffffffffffffffffffffffffffffffffffffffff1614610ea55760008481526020888152604080832073ffffffffffffffffffffffffffffffffffffffff89168452909152902054838101818111613605576040517f08c379a000000000000000000000000000000000000000000000000000000000815260206004820152601960248201527f455243313135353a2062616c616e6365206f766572666c6f7700000000000000604482015260640161095f565b600086815260208a8152604080832073ffffffffffffffffffffffffffffffffffffffff808d1685528184528285208890558b1684529091529020555050505050505050565b3660003332148061365c5750601836105b1561366a5750600091369150565b3373ffffffffffffffffffffffffffffffffffffffff7f000000000000000000000000000000000000000000000000000000000000000016148061379f575073ffffffffffffffffffffffffffffffffffffffff7f000000000000000000000000000000000000000000000000000000000000000016638929a8ca367fffffffffffffffffffffffffffffffffffffffffffffffffffffffffffffffec013560601c6040517fffffffff0000000000000000000000000000000000000000000000000000000060e084901b16815273ffffffffffffffffffffffffffffffffffffffff9091166004820152336024820152604401602060405180830381865afa15801561377b573d6000803e3d6000fd5b505050506040513d601f19601f8201168201806040525081019061379f919061480e565b156137ac576107f06139ff565b50600091369150565b6040517ff23a6e61000000000000000000000000000000000000000000000000000000008082529073ffffffffffffffffffffffffffffffffffffffff86169063f23a6e61906130d2908a908a908990899089906004016148b3565b6000613873826040518060400160405280602081526020017f5361666545524332303a206c6f772d6c6576656c2063616c6c206661696c65648152508573ffffffffffffffffffffffffffffffffffffffff16613a309092919063ffffffff16565b8051909150156107425780806020019051810190613891919061480e565b610742576040517f08c379a000000000000000000000000000000000000000000000000000000000815260206004820152602a60248201527f5361666545524332303a204552433230206f7065726174696f6e20646964206e60448201527f6f74207375636365656400000000000000000000000000000000000000000000606482015260840161095f565b6000807a184f03e93ff9f4daa797ed6e38ed64bf6a1f0100000000000000008310613966577a184f03e93ff9f4daa797ed6e38ed64bf6a1f010000000000000000830492506040015b6d04ee2d6d415b85acef81000000008310613992576d04ee2d6d415b85acef8100000000830492506020015b662386f26fc1000083106139b057662386f26fc10000830492506010015b6305f5e10083106139c8576305f5e100830492506008015b61271083106139dc57612710830492506004015b606483106139ee576064830492506002015b600a831061058f5760010192915050565b3660006107f07fffffffffffffffffffffffffffffffffffffffffffffffffffffffffffffffec83018284816148f8565b60606108158484600085856000808673ffffffffffffffffffffffffffffffffffffffff168587604051613a649190614922565b60006040518083038185875af1925050503d8060008114613aa1576040519150601f19603f3d011682016040523d82523d6000602084013e613aa6565b606091505b5091509150613ab787838387613ac2565b979650505050505050565b60608315613b58578251600003613b515773ffffffffffffffffffffffffffffffffffffffff85163b613b51576040517f08c379a000000000000000000000000000000000000000000000000000000000815260206004820152601d60248201527f416464726573733a2063616c6c20746f206e6f6e2d636f6e7472616374000000604482015260640161095f565b5081610815565b6108158383815115613b6d5781518083602001fd5b806040517f08c379a000000000000000000000000000000000000000000000000000000000815260040161095f9190613dfc565b73ffffffffffffffffffffffffffffffffffffffff8116811461072057600080fd5b60008060408385031215613bd657600080fd5b8235613be181613ba1565b946020939093013593505050565b7fffffffff000000000000000000000000000000000000000000000000000000008116811461072057600080fd5b600060208284031215613c2f57600080fd5b8135613c3a81613bef565b9392505050565b60008083601f840112613c5357600080fd5b50813567ffffffffffffffff811115613c6b57600080fd5b6020830191508360208260051b850101111561076357600080fd5b60008083601f840112613c9857600080fd5b50813567ffffffffffffffff811115613cb057600080fd5b60208301915083602082850101111561076357600080fd5b60008060008060008060006080888a031215613ce357600080fd5b8735613cee81613ba1565b9650602088013567ffffffffffffffff80821115613d0b57600080fd5b613d178b838c01613c41565b909850965060408a0135915080821115613d3057600080fd5b613d3c8b838c01613c41565b909650945060608a0135915080821115613d5557600080fd5b50613d628a828b01613c86565b989b979a50959850939692959293505050565b600060208284031215613d8757600080fd5b5035919050565b60005b83811015613da9578181015183820152602001613d91565b50506000910152565b60008151808452613dca816020860160208601613d8e565b601f017fffffffffffffffffffffffffffffffffffffffffffffffffffffffffffffffe0169290920160200192915050565b60208152600061058c6020830184613db2565b600060208284031215613e2157600080fd5b8135613c3a81613ba1565b600080600060608486031215613e4157600080fd5b8335613e4c81613ba1565b95602085013595506040909401359392505050565b60008060408385031215613e7457600080fd5b50508035926020909101359150565b60008060008060008060008060a0898b031215613e9f57600080fd5b8835613eaa81613ba1565b97506020890135613eba81613ba1565b9650604089013567ffffffffffffffff80821115613ed757600080fd5b613ee38c838d01613c41565b909850965060608b0135915080821115613efc57600080fd5b613f088c838d01613c41565b909650945060808b0135915080821115613f2157600080fd5b50613f2e8b828c01613c86565b999c989b5096995094979396929594505050565b60008060408385031215613f5557600080fd5b823591506020830135613f6781613ba1565b809150509250929050565b8183528181602085013750600060208284010152600060207fffffffffffffffffffffffffffffffffffffffffffffffffffffffffffffffe0601f840116840101905092915050565b602081526000610815602083018486613f72565b60008060008060408587031215613fe557600080fd5b843567ffffffffffffffff80821115613ffd57600080fd5b61400988838901613c41565b9096509450602087013591508082111561402257600080fd5b5061402f87828801613c41565b95989497509550505050565b600081518084526020808501945080840160005b8381101561406b5781518752958201959082019060010161404f565b509495945050505050565b60208152600061058c602083018461403b565b6000806000806000608086880312156140a157600080fd5b85356140ac81613ba1565b94506020860135935060408601359250606086013567ffffffffffffffff8111156140d657600080fd5b6140e288828901613c86565b969995985093965092949392505050565b6000806000806000806060878903121561410c57600080fd5b863567ffffffffffffffff8082111561412457600080fd5b6141308a838b01613c41565b9098509650602089013591508082111561414957600080fd5b6141558a838b01613c41565b9096509450604089013591508082111561416e57600080fd5b5061417b89828a01613c41565b979a9699509497509295939492505050565b600080602083850312156141a057600080fd5b823567ffffffffffffffff8111156141b757600080fd5b6141c385828601613c86565b90969095509350505050565b6000806000806000606086880312156141e757600080fd5b85356141f281613ba1565b9450602086013567ffffffffffffffff8082111561420f57600080fd5b61421b89838a01613c41565b9096509450604088013591508082111561423457600080fd5b506140e288828901613c41565b801515811461072057600080fd5b6000806040838503121561426257600080fd5b823561426d81613ba1565b91506020830135613f6781614241565b6000806000806000806000806080898b03121561429957600080fd5b883567ffffffffffffffff808211156142b157600080fd5b6142bd8c838d01613c41565b909a50985060208b01359150808211156142d657600080fd5b6142e28c838d01613c41565b909850965060408b01359150808211156142fb57600080fd5b6143078c838d01613c41565b909650945060608b0135915080821115613f2157600080fd5b6000806040838503121561433357600080fd5b823561433e81613ba1565b91506020830135613f6781613ba1565b60008060008060008060a0878903121561436757600080fd5b863561437281613ba1565b9550602087013561438281613ba1565b94506040870135935060608701359250608087013567ffffffffffffffff8111156143ac57600080fd5b61417b89828a01613c86565b7f4e487b7100000000000000000000000000000000000000000000000000000000600052603260045260246000fd5b7f4e487b7100000000000000000000000000000000000000000000000000000000600052601160045260246000fd5b8181038181111561058f5761058f6143e7565b7f416363657373436f6e74726f6c3a206d697373696e6720270000000000000000815260008251614461816018850160208701613d8e565b7f2720726f6c6500000000000000000000000000000000000000000000000000006018939091019283015250601e01919050565b6040815260006144a8604083018561403b565b82810360208401526144ba818561403b565b95945050505050565b600181811c908216806144d757607f821691505b602082108103614510577f4e487b7100000000000000000000000000000000000000000000000000000000600052602260045260246000fd5b50919050565b6000808454614524816144c3565b6001828116801561453c576001811461456f5761459e565b7fffffffffffffffffffffffffffffffffffffffffffffffffffffffffffffff008416875282151583028701945061459e565b8860005260208060002060005b858110156145955781548a82015290840190820161457c565b50505082870194505b5050505083516145b2818360208801613d8e565b01949350505050565b808202811582820484141761058f5761058f6143e7565b600082614608577f4e487b7100000000000000000000000000000000000000000000000000000000600052601260045260246000fd5b500490565b81835260007f07ffffffffffffffffffffffffffffffffffffffffffffffffffffffffffffff83111561463f57600080fd5b8260051b80836020870137939093016020019392505050565b60408152600061466c60408301868861460d565b8281036020840152613ab781858761460d565b7f4e487b7100000000000000000000000000000000000000000000000000000000600052604160045260246000fd5b601f82111561074257600081815260208120601f850160051c810160208610156146d55750805b601f850160051c820191505b818110156108be578281556001016146e1565b67ffffffffffffffff83111561470c5761470c61467f565b6147208361471a83546144c3565b836146ae565b6000601f841160018114614772576000851561473c5750838201355b7fffffffffffffffffffffffffffffffffffffffffffffffffffffffffffffffff600387901b1c1916600186901b178355610a47565b6000838152602090207fffffffffffffffffffffffffffffffffffffffffffffffffffffffffffffffe0861690835b828110156147c157868501358255602094850194600190920191016147a1565b50868210156147fc577fffffffffffffffffffffffffffffffffffffffffffffffffffffffffffffffff60f88860031b161c19848701351681555b505060018560011b0183555050505050565b60006020828403121561482057600080fd5b8151613c3a81614241565b600073ffffffffffffffffffffffffffffffffffffffff808816835280871660208401525060a0604083015261486460a083018661403b565b8281036060840152614876818661403b565b9050828103608084015261488a8185613db2565b98975050505050505050565b6000602082840312156148a857600080fd5b8151613c3a81613bef565b600073ffffffffffffffffffffffffffffffffffffffff808816835280871660208401525084604083015283606083015260a06080830152613ab760a0830184613db2565b6000808585111561490857600080fd5b8386111561491557600080fd5b5050820193919092039150565b60008251614934818460208701613d8e565b919091019291505056fea26469706673582212200ead9fcc8ea0b77ccdd8201d583f11636303de3c75773758e17dfcbeaef7073164736f6c63430008110033",
  "linkReferences": {},
  "deployedLinkReferences": {}
}