{
  "_format": "hh-sol-artifact-1",
  "contractName": "REVVMotorsportVouchersMock",
  "sourceName": "contracts/mocks/token/ERC1155/REVVMotorsportVouchersMock.sol",
  "abi": [
    {
      "inputs": [
        {
          "internalType": "contract IForwarderRegistry",
          "name": "forwarderRegistry",
          "type": "address"
        }
      ],
      "stateMutability": "nonpayable",
      "type": "constructor"
    },
    {
      "anonymous": false,
      "inputs": [
        {
          "indexed": true,
          "internalType": "address",
          "name": "owner",
          "type": "address"
        },
        {
          "indexed": true,
          "internalType": "address",
          "name": "operator",
          "type": "address"
        },
        {
          "indexed": false,
          "internalType": "bool",
          "name": "approved",
          "type": "bool"
        }
      ],
      "name": "ApprovalForAll",
      "type": "event"
    },
    {
      "anonymous": false,
      "inputs": [
        {
          "indexed": false,
          "internalType": "string",
          "name": "baseMetadataURI",
          "type": "string"
        }
      ],
      "name": "BaseMetadataURISet",
      "type": "event"
    },
    {
      "anonymous": false,
      "inputs": [
        {
          "indexed": true,
          "internalType": "address",
          "name": "previousOwner",
          "type": "address"
        },
        {
          "indexed": true,
          "internalType": "address",
          "name": "newOwner",
          "type": "address"
        }
      ],
      "name": "OwnershipTransferred",
      "type": "event"
    },
    {
      "anonymous": false,
      "inputs": [
        {
          "indexed": false,
          "internalType": "bytes32",
          "name": "role",
          "type": "bytes32"
        },
        {
          "indexed": false,
          "internalType": "address",
          "name": "account",
          "type": "address"
        },
        {
          "indexed": false,
          "internalType": "address",
          "name": "operator",
          "type": "address"
        }
      ],
      "name": "RoleGranted",
      "type": "event"
    },
    {
      "anonymous": false,
      "inputs": [
        {
          "indexed": false,
          "internalType": "bytes32",
          "name": "role",
          "type": "bytes32"
        },
        {
          "indexed": false,
          "internalType": "address",
          "name": "account",
          "type": "address"
        },
        {
          "indexed": false,
          "internalType": "address",
          "name": "operator",
          "type": "address"
        }
      ],
      "name": "RoleRevoked",
      "type": "event"
    },
    {
      "anonymous": false,
      "inputs": [
        {
          "indexed": true,
          "internalType": "address",
          "name": "operator",
          "type": "address"
        },
        {
          "indexed": true,
          "internalType": "address",
          "name": "from",
          "type": "address"
        },
        {
          "indexed": true,
          "internalType": "address",
          "name": "to",
          "type": "address"
        },
        {
          "indexed": false,
          "internalType": "uint256[]",
          "name": "ids",
          "type": "uint256[]"
        },
        {
          "indexed": false,
          "internalType": "uint256[]",
          "name": "values",
          "type": "uint256[]"
        }
      ],
      "name": "TransferBatch",
      "type": "event"
    },
    {
      "anonymous": false,
      "inputs": [
        {
          "indexed": true,
          "internalType": "address",
          "name": "operator",
          "type": "address"
        },
        {
          "indexed": true,
          "internalType": "address",
          "name": "from",
          "type": "address"
        },
        {
          "indexed": true,
          "internalType": "address",
          "name": "to",
          "type": "address"
        },
        {
          "indexed": false,
          "internalType": "uint256",
          "name": "id",
          "type": "uint256"
        },
        {
          "indexed": false,
          "internalType": "uint256",
          "name": "value",
          "type": "uint256"
        }
      ],
      "name": "TransferSingle",
      "type": "event"
    },
    {
      "anonymous": false,
      "inputs": [
        {
          "indexed": false,
          "internalType": "string",
          "name": "value",
          "type": "string"
        },
        {
          "indexed": true,
          "internalType": "uint256",
          "name": "id",
          "type": "uint256"
        }
      ],
      "name": "URI",
      "type": "event"
    },
    {
      "inputs": [],
      "name": "MINTER_ROLE",
      "outputs": [
        {
          "internalType": "bytes32",
          "name": "",
          "type": "bytes32"
        }
      ],
      "stateMutability": "view",
      "type": "function"
    },
    {
      "inputs": [],
      "name": "__msgData",
      "outputs": [
        {
          "internalType": "bytes",
          "name": "",
          "type": "bytes"
        }
      ],
      "stateMutability": "view",
      "type": "function"
    },
    {
      "inputs": [
        {
          "internalType": "address",
          "name": "owner",
          "type": "address"
        },
        {
          "internalType": "uint256",
          "name": "id",
          "type": "uint256"
        }
      ],
      "name": "balanceOf",
      "outputs": [
        {
          "internalType": "uint256",
          "name": "balance",
          "type": "uint256"
        }
      ],
      "stateMutability": "view",
      "type": "function"
    },
    {
      "inputs": [
        {
          "internalType": "address[]",
          "name": "owners",
          "type": "address[]"
        },
        {
          "internalType": "uint256[]",
          "name": "ids",
          "type": "uint256[]"
        }
      ],
      "name": "balanceOfBatch",
      "outputs": [
        {
          "internalType": "uint256[]",
          "name": "balances",
          "type": "uint256[]"
        }
      ],
      "stateMutability": "view",
      "type": "function"
    },
    {
      "inputs": [],
      "name": "baseMetadataURI",
      "outputs": [
        {
          "internalType": "string",
          "name": "baseURI",
          "type": "string"
        }
      ],
      "stateMutability": "view",
      "type": "function"
    },
    {
      "inputs": [
        {
          "internalType": "address",
          "name": "from",
          "type": "address"
        },
        {
          "internalType": "uint256[]",
          "name": "ids",
          "type": "uint256[]"
        },
        {
          "internalType": "uint256[]",
          "name": "values",
          "type": "uint256[]"
        }
      ],
      "name": "batchBurnFrom",
      "outputs": [],
      "stateMutability": "nonpayable",
      "type": "function"
    },
    {
      "inputs": [
        {
          "internalType": "address",
          "name": "from",
          "type": "address"
        },
        {
          "internalType": "uint256",
          "name": "id",
          "type": "uint256"
        },
        {
          "internalType": "uint256",
          "name": "value",
          "type": "uint256"
        }
      ],
      "name": "burnFrom",
      "outputs": [],
      "stateMutability": "nonpayable",
      "type": "function"
    },
    {
      "inputs": [],
      "name": "forwarderRegistry",
      "outputs": [
        {
          "internalType": "contract IForwarderRegistry",
          "name": "",
          "type": "address"
        }
      ],
      "stateMutability": "view",
      "type": "function"
    },
    {
      "inputs": [
        {
          "internalType": "bytes32",
          "name": "role",
          "type": "bytes32"
        },
        {
          "internalType": "address",
          "name": "account",
          "type": "address"
        }
      ],
      "name": "grantRole",
      "outputs": [],
      "stateMutability": "nonpayable",
      "type": "function"
    },
    {
      "inputs": [
        {
          "internalType": "bytes32",
          "name": "role",
          "type": "bytes32"
        },
        {
          "internalType": "address",
          "name": "account",
          "type": "address"
        }
      ],
      "name": "hasRole",
      "outputs": [
        {
          "internalType": "bool",
          "name": "",
          "type": "bool"
        }
      ],
      "stateMutability": "view",
      "type": "function"
    },
    {
      "inputs": [
        {
          "internalType": "string",
          "name": "baseMetadataURI",
          "type": "string"
        }
      ],
      "name": "init",
      "outputs": [],
      "stateMutability": "nonpayable",
      "type": "function"
    },
    {
      "inputs": [
        {
          "internalType": "address",
          "name": "owner",
          "type": "address"
        },
        {
          "internalType": "address",
          "name": "operator",
          "type": "address"
        }
      ],
      "name": "isApprovedForAll",
      "outputs": [
        {
          "internalType": "bool",
          "name": "approvedForAll",
          "type": "bool"
        }
      ],
      "stateMutability": "view",
      "type": "function"
    },
    {
      "inputs": [
        {
          "internalType": "address",
          "name": "forwarder",
          "type": "address"
        }
      ],
      "name": "isTrustedForwarder",
      "outputs": [
        {
          "internalType": "bool",
          "name": "",
          "type": "bool"
        }
      ],
      "stateMutability": "view",
      "type": "function"
    },
    {
      "inputs": [],
      "name": "owner",
      "outputs": [
        {
          "internalType": "address",
          "name": "",
          "type": "address"
        }
      ],
      "stateMutability": "view",
      "type": "function"
    },
    {
      "inputs": [
        {
          "internalType": "address[]",
          "name": "accounts",
          "type": "address[]"
        },
        {
          "internalType": "contract IERC20[]",
          "name": "tokens",
          "type": "address[]"
        },
        {
          "internalType": "uint256[]",
          "name": "amounts",
          "type": "uint256[]"
        }
      ],
      "name": "recoverERC20s",
      "outputs": [],
      "stateMutability": "nonpayable",
      "type": "function"
    },
    {
      "inputs": [
        {
          "internalType": "address[]",
          "name": "accounts",
          "type": "address[]"
        },
        {
          "internalType": "contract IERC721[]",
          "name": "contracts",
          "type": "address[]"
        },
        {
          "internalType": "uint256[]",
          "name": "tokenIds",
          "type": "uint256[]"
        }
      ],
      "name": "recoverERC721s",
      "outputs": [],
      "stateMutability": "nonpayable",
      "type": "function"
    },
    {
      "inputs": [
        {
          "internalType": "address payable[]",
          "name": "accounts",
          "type": "address[]"
        },
        {
          "internalType": "uint256[]",
          "name": "amounts",
          "type": "uint256[]"
        }
      ],
      "name": "recoverETH",
      "outputs": [],
      "stateMutability": "nonpayable",
      "type": "function"
    },
    {
      "inputs": [
        {
          "internalType": "bytes32",
          "name": "role",
          "type": "bytes32"
        }
      ],
      "name": "renounceRole",
      "outputs": [],
      "stateMutability": "nonpayable",
      "type": "function"
    },
    {
      "inputs": [
        {
          "internalType": "bytes32",
          "name": "role",
          "type": "bytes32"
        },
        {
          "internalType": "address",
          "name": "account",
          "type": "address"
        }
      ],
      "name": "revokeRole",
      "outputs": [],
      "stateMutability": "nonpayable",
      "type": "function"
    },
    {
      "inputs": [
        {
          "internalType": "address",
          "name": "to",
          "type": "address"
        },
        {
          "internalType": "uint256[]",
          "name": "ids",
          "type": "uint256[]"
        },
        {
          "internalType": "uint256[]",
          "name": "values",
          "type": "uint256[]"
        },
        {
          "internalType": "bytes",
          "name": "data",
          "type": "bytes"
        }
      ],
      "name": "safeBatchMint",
      "outputs": [],
      "stateMutability": "nonpayable",
      "type": "function"
    },
    {
      "inputs": [
        {
          "internalType": "address",
          "name": "from",
          "type": "address"
        },
        {
          "internalType": "address",
          "name": "to",
          "type": "address"
        },
        {
          "internalType": "uint256[]",
          "name": "ids",
          "type": "uint256[]"
        },
        {
          "internalType": "uint256[]",
          "name": "values",
          "type": "uint256[]"
        },
        {
          "internalType": "bytes",
          "name": "data",
          "type": "bytes"
        }
      ],
      "name": "safeBatchTransferFrom",
      "outputs": [],
      "stateMutability": "nonpayable",
      "type": "function"
    },
    {
      "inputs": [
        {
          "internalType": "address[]",
          "name": "recipients",
          "type": "address[]"
        },
        {
          "internalType": "uint256[]",
          "name": "ids",
          "type": "uint256[]"
        },
        {
          "internalType": "uint256[]",
          "name": "values",
          "type": "uint256[]"
        },
        {
          "internalType": "bytes",
          "name": "data",
          "type": "bytes"
        }
      ],
      "name": "safeDeliver",
      "outputs": [],
      "stateMutability": "nonpayable",
      "type": "function"
    },
    {
      "inputs": [
        {
          "internalType": "address",
          "name": "to",
          "type": "address"
        },
        {
          "internalType": "uint256",
          "name": "id",
          "type": "uint256"
        },
        {
          "internalType": "uint256",
          "name": "value",
          "type": "uint256"
        },
        {
          "internalType": "bytes",
          "name": "data",
          "type": "bytes"
        }
      ],
      "name": "safeMint",
      "outputs": [],
      "stateMutability": "nonpayable",
      "type": "function"
    },
    {
      "inputs": [
        {
          "internalType": "address",
          "name": "from",
          "type": "address"
        },
        {
          "internalType": "address",
          "name": "to",
          "type": "address"
        },
        {
          "internalType": "uint256",
          "name": "id",
          "type": "uint256"
        },
        {
          "internalType": "uint256",
          "name": "value",
          "type": "uint256"
        },
        {
          "internalType": "bytes",
          "name": "data",
          "type": "bytes"
        }
      ],
      "name": "safeTransferFrom",
      "outputs": [],
      "stateMutability": "nonpayable",
      "type": "function"
    },
    {
      "inputs": [
        {
          "internalType": "address",
          "name": "operator",
          "type": "address"
        },
        {
          "internalType": "bool",
          "name": "approved",
          "type": "bool"
        }
      ],
      "name": "setApprovalForAll",
      "outputs": [],
      "stateMutability": "nonpayable",
      "type": "function"
    },
    {
      "inputs": [
        {
          "internalType": "string",
          "name": "baseURI",
          "type": "string"
        }
      ],
      "name": "setBaseMetadataURI",
      "outputs": [],
      "stateMutability": "nonpayable",
      "type": "function"
    },
    {
      "inputs": [
        {
          "internalType": "bytes4",
          "name": "interfaceId",
          "type": "bytes4"
        }
      ],
      "name": "supportsInterface",
      "outputs": [
        {
          "internalType": "bool",
          "name": "",
          "type": "bool"
        }
      ],
      "stateMutability": "view",
      "type": "function"
    },
    {
      "inputs": [
        {
          "internalType": "address",
          "name": "newOwner",
          "type": "address"
        }
      ],
      "name": "transferOwnership",
      "outputs": [],
      "stateMutability": "nonpayable",
      "type": "function"
    },
    {
      "inputs": [
        {
          "internalType": "uint256",
          "name": "id",
          "type": "uint256"
        }
      ],
      "name": "uri",
      "outputs": [
        {
          "internalType": "string",
          "name": "metadataURI",
          "type": "string"
        }
      ],
      "stateMutability": "view",
      "type": "function"
    }
  ],
  "bytecode": "0x60a06040523480156200001157600080fd5b506040516200465638038062004656833981016040819052620000349162000046565b6001600160a01b031660805262000078565b6000602082840312156200005957600080fd5b81516001600160a01b03811681146200007157600080fd5b9392505050565b60805161459f620000b76000396000818161026601528181610317015281816128c3015281816129630152818161318e01526131f8015261459f6000f3fe608060405234801561001057600080fd5b50600436106101ce5760003560e01c80637e518ec811610104578063d5391393116100a2578063f242432a11610071578063f242432a1461045c578063f2fde38b1461046f578063f7ba94bd14610482578063f9fbdb9e1461049557600080fd5b8063d5391393146103fc578063d547741f14610423578063e8ab9ccc14610436578063e985e9c51461044957600080fd5b80638da5cb5b116100de5780638da5cb5b146103bb57806391d14854146103c3578063a22cb465146103d6578063c3666c36146103e957600080fd5b80637e518ec81461038257806380534934146103955780638bb9c5bf146103a857600080fd5b80632f2ff15d11610171578063572b6c051161014b578063572b6c05146103075780635b2bd79e146103545780635cfa92971461035c57806373c8a9581461036f57600080fd5b80632f2ff15d146102be57806331e66e1e146102d15780634e1273f4146102e757600080fd5b80630e89341c116101ad5780630e89341c14610231578063124d91e5146102515780632b4c9f16146102645780632eb2c2d6146102ab57600080fd5b8062fdd58e146101d357806301ffc9a7146101f95780630d6a5bbb1461021c575b600080fd5b6101e66101e1366004613840565b6104a8565b6040519081526020015b60405180910390f35b61020c61020736600461389a565b6104c7565b60405190151581526020016101f0565b61022f61022a366004613945565b6104db565b005b61024461023f3660046139f2565b6105d6565b6040516101f09190613a81565b61022f61025f366004613a94565b6105ea565b7f00000000000000000000000000000000000000000000000000000000000000005b60405173ffffffffffffffffffffffffffffffffffffffff90911681526020016101f0565b61022f6102b9366004613ac9565b61060e565b61022f6102cc366004613b88565b6106c8565b6102d96106fc565b6040516101f0929190613bb8565b6102fa6102f5366004613c05565b61070f565b6040516101f09190613cac565b61020c610315366004613cbf565b7f000000000000000000000000000000000000000000000000000000000000000073ffffffffffffffffffffffffffffffffffffffff90811691161490565b610244610792565b61022f61036a366004613cdc565b6107a9565b61022f61037d366004613d46565b61083b565b61022f610390366004613de0565b610961565b61022f6103a3366004613e22565b6109b9565b61022f6103b63660046139f2565b610a43565b610286610a61565b61020c6103d1366004613b88565b610a88565b61022f6103e4366004613ea2565b610acc565b61022f6103f7366004613d46565b610ae9565b6101e67f6d696e746572000000000000000000000000000000000000000000000000000081565b61022f610431366004613b88565b610c8e565b61022f610444366004613ed0565b610cbc565b61020c610457366004613f73565b610de1565b61022f61046a366004613fa1565b610e2f565b61022f61047d366004613cbf565b610e89565b61022f610490366004613c05565b610ea4565b61022f6104a3366004613de0565b610f8a565b60006104be83836104b7611019565b9190611047565b90505b92915050565b60006104c1826104d56110fd565b9061112b565b60006104e5611205565b905061051b7f6d696e74657200000000000000000000000000000000000000000000000000008261051461120f565b919061123d565b6105cc818989898080602002602001604051908101604052809392919081815260200183836020028082843760009201919091525050604080516020808d0282810182019093528c82529093508c92508b91829185019084908082843760009201919091525050604080516020601f8c018190048102820181019092528a815292508a91508990819084018382808284376000920191909152506105c29250611019915050565b94939291906112e9565b5050505050505050565b60606104c1826105e46114d7565b90611505565b6106096105f5611205565b848484610600611019565b93929190611539565b505050565b6105cc610619611205565b898989898080602002602001604051908101604052809392919081815260200183836020028082843760009201919091525050604080516020808d0282810182019093528c82529093508c92508b91829185019084908082843760009201919091525050604080516020601f8c018190048102820181019092528a815292508a91508990819084018382808284376000920191909152506106bd9250611019915050565b959493929190611616565b60006106d2611205565b90506106e6816106e061186b565b90611899565b6106098383836106f461120f565b92919061191c565b3660006107076119f3565b915091509091565b6060610789858580806020026020016040519081016040528093929190818152602001838360200280828437600092019190915250506040805160208089028281018201909352888252909350889250879182918501908490808284376000920191909152506107829250611019915050565b91906119fe565b95945050505050565b60606107a461079f6114d7565b611b33565b905090565b60006107b3611205565b90506107e27f6d696e74657200000000000000000000000000000000000000000000000000008261051461120f565b6108338187878787878080601f0160208091040260200160405190810160405280939291908181526020018383808284376000920191909152506108299250611019915050565b9493929190611bc9565b505050505050565b61084e610846611205565b6106e061186b565b84838114801561085d57508082145b6108c8576040517f08c379a000000000000000000000000000000000000000000000000000000000815260206004820152601d60248201527f5265636f766572793a20696e636f6e73697374656e742061727261797300000060448201526064015b60405180910390fd5b60005b8181146105cc576109598888838181106108e7576108e761400b565b90506020020160208101906108fc9190613cbf565b85858481811061090e5761090e61400b565b905060200201358888858181106109275761092761400b565b905060200201602081019061093c9190613cbf565b73ffffffffffffffffffffffffffffffffffffffff169190611cd7565b6001016108cb565b61096c610846611205565b6109b582828080601f0160208091040260200160405190810160405280939291908181526020018383808284376000920191909152506109af92506114d7915050565b90611d64565b5050565b610a3c6109c4611205565b8686868080602002602001604051908101604052809392919081815260200183836020028082843760009201919091525050604080516020808a02828101820190935289825290935089925088918291850190849080828437600092019190915250610a339250611019915050565b93929190611dab565b5050505050565b610a5e610a4e611205565b82610a5761120f565b9190611f60565b50565b60006107a4610a6e61186b565b5473ffffffffffffffffffffffffffffffffffffffff1690565b60006104be8383610a9761120f565b60009283526020908152604080842073ffffffffffffffffffffffffffffffffffffffff909316845291905290205460ff1690565b6109b5610ad7611205565b8383610ae1611019565b929190612004565b610af4610846611205565b848381148015610b0357508082145b610b69576040517f08c379a000000000000000000000000000000000000000000000000000000000815260206004820152601d60248201527f5265636f766572793a20696e636f6e73697374656e742061727261797300000060448201526064016108bf565b60005b8181146105cc57858582818110610b8557610b8561400b565b9050602002016020810190610b9a9190613cbf565b73ffffffffffffffffffffffffffffffffffffffff166323b872dd308a8a85818110610bc857610bc861400b565b9050602002016020810190610bdd9190613cbf565b878786818110610bef57610bef61400b565b6040517fffffffff0000000000000000000000000000000000000000000000000000000060e088901b16815273ffffffffffffffffffffffffffffffffffffffff958616600482015294909316602485015250602090910201356044820152606401600060405180830381600087803b158015610c6b57600080fd5b505af1158015610c7f573d6000803e3d6000fd5b50505050806001019050610b6c565b6000610c98611205565b9050610ca6816106e061186b565b610609838383610cb461120f565b929190612134565b6000610cc6611205565b9050610cf57f6d696e74657200000000000000000000000000000000000000000000000000008261051461120f565b610dd6818a8a8080602002602001604051908101604052809392919081815260200183836020028082843760009201919091525050604080516020808e0282810182019093528d82529093508d92508c91829185019084908082843760009201919091525050604080516020808d0282810182019093528c82529093508c92508b91829185019084908082843760009201919091525050604080516020601f8c018190048102820181019092528a815292508a9150899081908401838280828437600092019190915250610dcc9250611019915050565b94939291906121fe565b505050505050505050565b60006104be8383610df0611019565b919073ffffffffffffffffffffffffffffffffffffffff9182166000908152600193909301602090815260408085209290931684525290205460ff1690565b610833610e3a611205565b8787878787878080601f016020809104026020016040519081016040528093929190818152602001838380828437600092019190915250610e7e9250611019915050565b9594939291906122ee565b610a5e610e94611205565b82610e9d61186b565b919061249b565b610eaf610846611205565b82818114610f19576040517f08c379a000000000000000000000000000000000000000000000000000000000815260206004820152601d60248201527f5265636f766572793a20696e636f6e73697374656e742061727261797300000060448201526064016108bf565b60005b81811461083357610f82848483818110610f3857610f3861400b565b90506020020135878784818110610f5157610f5161400b565b9050602002016020810190610f669190613cbf565b73ffffffffffffffffffffffffffffffffffffffff16906125c7565b600101610f1c565b6000610f94611205565b9050610fa881610fa261186b565b90612721565b610fb0612760565b610fb8612797565b610fc06127c5565b610fc86127f3565b610fd0612821565b61060983838080601f01602080910402602001604051908101604052809392919081815260200183838082843760009201919091525061101392506114d7915050565b9061284f565b6000806104c160017f5ccf5846fa27a68fafc8e588671a68f5e67c2f9b56af4263806a4d71735e8613614069565b600073ffffffffffffffffffffffffffffffffffffffff83166110c6576040517f08c379a000000000000000000000000000000000000000000000000000000000815260206004820152601e60248201527f455243313135353a2062616c616e6365206f662061646472657373283029000060448201526064016108bf565b5060008181526020848152604080832073ffffffffffffffffffffffffffffffffffffffff861684529091529020545b9392505050565b6000806104c160017fca9d3e17f264b0f3984e2634e94adb37fa3e6a8103f06aeae6fa59e21c769f5e614069565b60007c01000000000000000000000000000000000000000000000000000000007fffffffff0000000000000000000000000000000000000000000000000000000083160161117b575060006104c1565b7ffe003659000000000000000000000000000000000000000000000000000000007fffffffff000000000000000000000000000000000000000000000000000000008316016111cc575060016104c1565b507fffffffff00000000000000000000000000000000000000000000000000000000166000908152602091909152604090205460ff1690565b60006107a4612887565b6000806104c160017fc8827d3282af6f37b64c3e9e6f3ac9df286ab0bb0fccd6f8661bf19adb368b23614069565b60008281526020848152604080832073ffffffffffffffffffffffffffffffffffffffff8516845290915290205460ff166106095761127b826129df565b60405160200161128b9190614080565b604080517fffffffffffffffffffffffffffffffffffffffffffffffffffffffffffffffe0818403018152908290527f08c379a00000000000000000000000000000000000000000000000000000000082526108bf91600401613a81565b73ffffffffffffffffffffffffffffffffffffffff8416611366576040517f08c379a000000000000000000000000000000000000000000000000000000000815260206004820152601b60248201527f455243313135353a206d696e7420746f2061646472657373283029000000000060448201526064016108bf565b8251825181146113d2576040517f08c379a000000000000000000000000000000000000000000000000000000000815260206004820152601c60248201527f455243313135353a20696e636f6e73697374656e74206172726179730000000060448201526064016108bf565b60005b8181146114225761141a88878784815181106113f3576113f361400b565b602002602001015187858151811061140d5761140d61400b565b6020026020010151612b71565b6001016113d5565b508473ffffffffffffffffffffffffffffffffffffffff16600073ffffffffffffffffffffffffffffffffffffffff168773ffffffffffffffffffffffffffffffffffffffff167f4a39dc06d4c0dbc64b70af90fd698a233a518aa5d07e595d983b8c0526c8f7fb878760405161149a9291906140ec565b60405180910390a473ffffffffffffffffffffffffffffffffffffffff85163b156114ce576114ce86600087878787612c45565b50505050505050565b6000806104c160017fe94434e3c6b941c5d90218142fadcc69cb2e13723993540bfa1c131dd1d3475a614069565b60608261151183612d6d565b60405160200161152292919061415e565b604051602081830303815290604052905092915050565b611544858486612eaa565b6115aa576040517f08c379a000000000000000000000000000000000000000000000000000000000815260206004820152601c60248201527f455243313135353a206e6f6e2d617070726f7665642073656e6465720000000060448201526064016108bf565b6115b685848484612f1f565b604080518381526020810183905260009173ffffffffffffffffffffffffffffffffffffffff86811692908816917fc3d58168c5ae7397731d063d5bbf3d657854427343f4c083240f7aacaa2d0f62910160405180910390a45050505050565b73ffffffffffffffffffffffffffffffffffffffff8416611693576040517f08c379a000000000000000000000000000000000000000000000000000000000815260206004820152601f60248201527f455243313135353a207472616e7366657220746f20616464726573732830290060448201526064016108bf565b8251825181146116ff576040517f08c379a000000000000000000000000000000000000000000000000000000000815260206004820152601c60248201527f455243313135353a20696e636f6e73697374656e74206172726179730000000060448201526064016108bf565b61170a888789612eaa565b611770576040517f08c379a000000000000000000000000000000000000000000000000000000000815260206004820152601c60248201527f455243313135353a206e6f6e2d617070726f7665642073656e6465720000000060448201526064016108bf565b60005b8181146117c1576117b98988888885815181106117925761179261400b565b60200260200101518886815181106117ac576117ac61400b565b6020026020010151612fbf565b600101611773565b508473ffffffffffffffffffffffffffffffffffffffff168673ffffffffffffffffffffffffffffffffffffffff168873ffffffffffffffffffffffffffffffffffffffff167f4a39dc06d4c0dbc64b70af90fd698a233a518aa5d07e595d983b8c0526c8f7fb87876040516118389291906140ec565b60405180910390a473ffffffffffffffffffffffffffffffffffffffff85163b156105cc576105cc878787878787612c45565b6000806104c160017fc9ed16f33ab3a66c84bfd83099ccb2a8845871e2e1c1928f63797152f0fd54cd614069565b815473ffffffffffffffffffffffffffffffffffffffff8281169116146109b5576040517f08c379a000000000000000000000000000000000000000000000000000000000815260206004820152601860248201527f4f776e6572736869703a206e6f7420746865206f776e6572000000000000000060448201526064016108bf565b60008381526020858152604080832073ffffffffffffffffffffffffffffffffffffffff8616845290915290205460ff166119ed5760008381526020858152604080832073ffffffffffffffffffffffffffffffffffffffff8681168086529184529382902080547fffffffffffffffffffffffffffffffffffffffffffffffffffffffffffffff00166001179055815187815292830152918316918101919091527f2f8788117e7eff1d82e926ec794901d17c78024a50270940304540a733656f0d906060015b60405180910390a15b50505050565b366000610707613176565b81518151606091908114611a6e576040517f08c379a000000000000000000000000000000000000000000000000000000000815260206004820152601c60248201527f455243313135353a20696e636f6e73697374656e74206172726179730000000060448201526064016108bf565b835167ffffffffffffffff811115611a8857611a88614203565b604051908082528060200260200182016040528015611ab1578160200160208202803683370190505b50915060005b818114611b2a57611b05858281518110611ad357611ad361400b565b6020026020010151858381518110611aed57611aed61400b565b6020026020010151886110479092919063ffffffff16565b838281518110611b1757611b1761400b565b6020908102919091010152600101611ab7565b50509392505050565b6060816000018054611b4490614111565b80601f0160208091040260200160405190810160405280929190818152602001828054611b7090614111565b8015611bbd5780601f10611b9257610100808354040283529160200191611bbd565b820191906000526020600020905b815481529060010190602001808311611ba057829003601f168201915b50505050509050919050565b73ffffffffffffffffffffffffffffffffffffffff8416611c46576040517f08c379a000000000000000000000000000000000000000000000000000000000815260206004820152601b60248201527f455243313135353a206d696e7420746f2061646472657373283029000000000060448201526064016108bf565b611c5286858585612b71565b604080518481526020810184905273ffffffffffffffffffffffffffffffffffffffff80871692600092918916917fc3d58168c5ae7397731d063d5bbf3d657854427343f4c083240f7aacaa2d0f62910160405180910390a473ffffffffffffffffffffffffffffffffffffffff84163b1561083357610833856000868686866132fa565b6040805173ffffffffffffffffffffffffffffffffffffffff8416602482015260448082018490528251808303909101815260649091019091526020810180517bffffffffffffffffffffffffffffffffffffffffffffffffffffffff167fa9059cbb00000000000000000000000000000000000000000000000000000000179052610609908490613356565b81611d6f8282614278565b507f04b1dc5c136a3ce9fded8db0ce3d3366c58764ec3a8e4c2b9e52e4ddfe5ebbf781604051611d9f9190613a81565b60405180910390a15050565b815181518114611e17576040517f08c379a000000000000000000000000000000000000000000000000000000000815260206004820152601c60248201527f455243313135353a20696e636f6e73697374656e74206172726179730000000060448201526064016108bf565b611e22868587612eaa565b611e88576040517f08c379a000000000000000000000000000000000000000000000000000000000815260206004820152601c60248201527f455243313135353a206e6f6e2d617070726f7665642073656e6465720000000060448201526064016108bf565b60005b818114611ed857611ed08786868481518110611ea957611ea961400b565b6020026020010151868581518110611ec357611ec361400b565b6020026020010151612f1f565b600101611e8b565b50600073ffffffffffffffffffffffffffffffffffffffff168473ffffffffffffffffffffffffffffffffffffffff168673ffffffffffffffffffffffffffffffffffffffff167f4a39dc06d4c0dbc64b70af90fd698a233a518aa5d07e595d983b8c0526c8f7fb8686604051611f509291906140ec565b60405180910390a4505050505050565b611f6b83828461123d565b60008181526020848152604080832073ffffffffffffffffffffffffffffffffffffffff86168085529083529281902080547fffffffffffffffffffffffffffffffffffffffffffffffffffffffffffffff0016905580518481529182018390528101919091527ff6391f5c32d9c69d2a47ea670b442974b53935d1edc7fd64eb21e047a839171b9060600160405180910390a1505050565b8273ffffffffffffffffffffffffffffffffffffffff168273ffffffffffffffffffffffffffffffffffffffff1603612099576040517f08c379a000000000000000000000000000000000000000000000000000000000815260206004820152601e60248201527f455243313135353a2073656c662d617070726f76616c20666f7220616c6c000060448201526064016108bf565b73ffffffffffffffffffffffffffffffffffffffff838116600081815260018701602090815260408083209487168084529482529182902080547fffffffffffffffffffffffffffffffffffffffffffffffffffffffffffffff001686151590811790915591519182527f17307eab39ab6107e8899845ad3d59bd9653f200f220920489ca2b5937696c31910160405180910390a350505050565b60008381526020858152604080832073ffffffffffffffffffffffffffffffffffffffff8616845290915290205460ff16156119ed5760008381526020858152604080832073ffffffffffffffffffffffffffffffffffffffff8681168086529184529382902080547fffffffffffffffffffffffffffffffffffffffffffffffffffffffffffffff00169055815187815292830152918316918101919091527ff6391f5c32d9c69d2a47ea670b442974b53935d1edc7fd64eb21e047a839171b906060016119e4565b83518351811480156122105750825181145b612276576040517f08c379a000000000000000000000000000000000000000000000000000000000815260206004820152601c60248201527f455243313135353a20696e636f6e73697374656e74206172726179730000000060448201526064016108bf565b60005b8181146105cc576122e6878783815181106122965761229661400b565b60200260200101518784815181106122b0576122b061400b565b60200260200101518785815181106122ca576122ca61400b565b6020026020010151878d611bc99095949392919063ffffffff16565b600101612279565b73ffffffffffffffffffffffffffffffffffffffff841661236b576040517f08c379a000000000000000000000000000000000000000000000000000000000815260206004820152601f60248201527f455243313135353a207472616e7366657220746f20616464726573732830290060448201526064016108bf565b612376878688612eaa565b6123dc576040517f08c379a000000000000000000000000000000000000000000000000000000000815260206004820152601c60248201527f455243313135353a206e6f6e2d617070726f7665642073656e6465720000000060448201526064016108bf565b6123e98786868686612fbf565b8373ffffffffffffffffffffffffffffffffffffffff168573ffffffffffffffffffffffffffffffffffffffff168773ffffffffffffffffffffffffffffffffffffffff167fc3d58168c5ae7397731d063d5bbf3d657854427343f4c083240f7aacaa2d0f628686604051612468929190918252602082015260400190565b60405180910390a473ffffffffffffffffffffffffffffffffffffffff84163b156114ce576114ce8686868686866132fa565b825473ffffffffffffffffffffffffffffffffffffffff9081169083168114612520576040517f08c379a000000000000000000000000000000000000000000000000000000000815260206004820152601860248201527f4f776e6572736869703a206e6f7420746865206f776e6572000000000000000060448201526064016108bf565b8173ffffffffffffffffffffffffffffffffffffffff168173ffffffffffffffffffffffffffffffffffffffff16146119ed5783547fffffffffffffffffffffffff00000000000000000000000000000000000000001673ffffffffffffffffffffffffffffffffffffffff8381169182178655604051908316907f8be0079c531659141344cd1fd0a4f28419497f9722a3daafe3b4186f6b6457e090600090a350505050565b80471015612631576040517f08c379a000000000000000000000000000000000000000000000000000000000815260206004820152601d60248201527f416464726573733a20696e73756666696369656e742062616c616e636500000060448201526064016108bf565b60008273ffffffffffffffffffffffffffffffffffffffff168260405160006040518083038185875af1925050503d806000811461268b576040519150601f19603f3d011682016040523d82523d6000602084013e612690565b606091505b5050905080610609576040517f08c379a000000000000000000000000000000000000000000000000000000000815260206004820152603a60248201527f416464726573733a20756e61626c6520746f2073656e642076616c75652c207260448201527f6563697069656e74206d6179206861766520726576657274656400000000000060648201526084016108bf565b61275661274f60017f5b388d90dc1312ba799f321972f13311234fa1163bcabec7cf66101c4876eb84614069565b6001613462565b6109b582826134d2565b6127957fd9b67a2600000000000000000000000000000000000000000000000000000000600161278e6110fd565b9190613588565b565b6127957f0e89341c00000000000000000000000000000000000000000000000000000000600161278e6110fd565b6127957f5190c92c00000000000000000000000000000000000000000000000000000000600161278e6110fd565b6127957fe8ab9ccc00000000000000000000000000000000000000000000000000000000600161278e6110fd565b6127957f921ed8d100000000000000000000000000000000000000000000000000000000600161278e6110fd565b61287d61274f60017f4906b284a41a4863b44f418156dc67ff218ba42abca1a1c41f180669c98a302f614069565b6109b58282613694565b60003332810361289657919050565b6000367fffffffffffffffffffffffffffffffffffffffffffffffffffffffffffffffec013560601c90507f000000000000000000000000000000000000000000000000000000000000000073ffffffffffffffffffffffffffffffffffffffff168273ffffffffffffffffffffffffffffffffffffffff1614806129ce57506040517fe60125d600000000000000000000000000000000000000000000000000000000815273ffffffffffffffffffffffffffffffffffffffff828116600483015283811660248301527f0000000000000000000000000000000000000000000000000000000000000000169063e60125d690604401602060405180830381865afa1580156129aa573d6000803e3d6000fd5b505050506040513d601f19601f820116820180604052508101906129ce9190614392565b156129d95792915050565b50919050565b606060008290036129fe57505060408051602081019091526000815290565b600082604051602001612a1391815260200190565b604080517fffffffffffffffffffffffffffffffffffffffffffffffffffffffffffffffe08184030181529190529050601f5b818181518110612a5857612a5861400b565b01602001517fff0000000000000000000000000000000000000000000000000000000000000016600003612aad577fffffffffffffffffffffffffffffffffffffffffffffffffffffffffffffffff01612a46565b60008160010167ffffffffffffffff811115612acb57612acb614203565b6040519080825280601f01601f191660200182016040528015612af5576020820181803683370190505b50905060005b828111612b6857838181518110612b1457612b1461400b565b602001015160f81c60f81b828281518110612b3157612b3161400b565b60200101907effffffffffffffffffffffffffffffffffffffffffffffffffffffffffffff1916908160001a905350600101612afb565b50949350505050565b80156119ed5760008281526020858152604080832073ffffffffffffffffffffffffffffffffffffffff87168452909152902054818101818111612c11576040517f08c379a000000000000000000000000000000000000000000000000000000000815260206004820152601960248201527f455243313135353a2062616c616e6365206f766572666c6f770000000000000060448201526064016108bf565b60009384526020958652604080852073ffffffffffffffffffffffffffffffffffffffff9690961685529490955250502055565b6040517fbc197c81000000000000000000000000000000000000000000000000000000008082529073ffffffffffffffffffffffffffffffffffffffff86169063bc197c8190612ca1908a908a908990899089906004016143af565b6020604051808303816000875af1158015612cc0573d6000803e3d6000fd5b505050506040513d601f19601f82011682018060405250810190612ce4919061441a565b7fffffffff000000000000000000000000000000000000000000000000000000001614610833576040517f08c379a000000000000000000000000000000000000000000000000000000000815260206004820152601a60248201527f455243313135353a207472616e736665722072656a656374656400000000000060448201526064016108bf565b606081600003612db057505060408051808201909152600181527f3000000000000000000000000000000000000000000000000000000000000000602082015290565b8160005b8115612dda5780612dc481614437565b9150612dd39050600a8361449e565b9150612db4565b60008167ffffffffffffffff811115612df557612df5614203565b6040519080825280601f01601f191660200182016040528015612e1f576020820181803683370190505b5090505b8415612ea257612e34600183614069565b9150612e41600a866144b2565b612e4c9060306144c6565b60f81b818381518110612e6157612e6161400b565b60200101907effffffffffffffffffffffffffffffffffffffffffffffffffffffffffffff1916908160001a905350612e9b600a8661449e565b9450612e23565b949350505050565b60008173ffffffffffffffffffffffffffffffffffffffff168373ffffffffffffffffffffffffffffffffffffffff161480612ea257505073ffffffffffffffffffffffffffffffffffffffff9182166000908152600193909301602090815260408085209290931684525290205460ff1690565b80156119ed5760008281526020858152604080832073ffffffffffffffffffffffffffffffffffffffff87168452909152902054818103818110612c11576040517f08c379a000000000000000000000000000000000000000000000000000000000815260206004820152601d60248201527f455243313135353a20696e73756666696369656e742062616c616e636500000060448201526064016108bf565b8015610a3c5760008281526020868152604080832073ffffffffffffffffffffffffffffffffffffffff8816845290915290205481810381811061305f576040517f08c379a000000000000000000000000000000000000000000000000000000000815260206004820152601d60248201527f455243313135353a20696e73756666696369656e742062616c616e636500000060448201526064016108bf565b8473ffffffffffffffffffffffffffffffffffffffff168673ffffffffffffffffffffffffffffffffffffffff16146114ce5760008481526020888152604080832073ffffffffffffffffffffffffffffffffffffffff8916845290915290205483810181811161312c576040517f08c379a000000000000000000000000000000000000000000000000000000000815260206004820152601960248201527f455243313135353a2062616c616e6365206f766572666c6f770000000000000060448201526064016108bf565b60009586526020988952604080872073ffffffffffffffffffffffffffffffffffffffff998a16885290995288862092909255509390941682525092909220805490920190915550565b3660003332810361318c57506000923692509050565b7f000000000000000000000000000000000000000000000000000000000000000073ffffffffffffffffffffffffffffffffffffffff168173ffffffffffffffffffffffffffffffffffffffff1614806132d9575073ffffffffffffffffffffffffffffffffffffffff7f00000000000000000000000000000000000000000000000000000000000000001663e60125d6367fffffffffffffffffffffffffffffffffffffffffffffffffffffffffffffffec013560601c6040517fffffffff0000000000000000000000000000000000000000000000000000000060e084901b16815273ffffffffffffffffffffffffffffffffffffffff91821660048201529084166024820152604401602060405180830381865afa1580156132b5573d6000803e3d6000fd5b505050506040513d601f19601f820116820180604052508101906132d99190614392565b156132ef576132e661369e565b92509250509091565b506000923692509050565b6040517ff23a6e61000000000000000000000000000000000000000000000000000000008082529073ffffffffffffffffffffffffffffffffffffffff86169063f23a6e6190612ca1908a908a908990899089906004016144de565b60006133b8826040518060400160405280602081526020017f5361666545524332303a206c6f772d6c6576656c2063616c6c206661696c65648152508573ffffffffffffffffffffffffffffffffffffffff166136bc9092919063ffffffff16565b80519091501561060957808060200190518101906133d69190614392565b610609576040517f08c379a000000000000000000000000000000000000000000000000000000000815260206004820152602a60248201527f5361666545524332303a204552433230206f7065726174696f6e20646964206e60448201527f6f7420737563636565640000000000000000000000000000000000000000000060648201526084016108bf565b8154829082116134ce576040517f08c379a000000000000000000000000000000000000000000000000000000000815260206004820152601660248201527f53746f726167653a20706861736520726561636865640000000000000000000060448201526064016108bf565b5550565b73ffffffffffffffffffffffffffffffffffffffff81161561355a5781547fffffffffffffffffffffffff00000000000000000000000000000000000000001673ffffffffffffffffffffffffffffffffffffffff821690811783556040516000907f8be0079c531659141344cd1fd0a4f28419497f9722a3daafe3b4186f6b6457e0908290a35b6109b57f7f5828d000000000000000000000000000000000000000000000000000000000600161278e6110fd565b7c01000000000000000000000000000000000000000000000000000000007fffffffff00000000000000000000000000000000000000000000000000000000831601613630576040517f08c379a000000000000000000000000000000000000000000000000000000000815260206004820152601f60248201527f496e74657266616365446574656374696f6e3a2077726f6e672076616c75650060448201526064016108bf565b7fffffffff00000000000000000000000000000000000000000000000000000000919091166000908152602092909252604090912080547fffffffffffffffffffffffffffffffffffffffffffffffffffffffffffffff0016911515919091179055565b6109b58282611d64565b3660008080836136af601482614069565b9261070793929190614523565b6060612ea284846000858573ffffffffffffffffffffffffffffffffffffffff85163b613745576040517f08c379a000000000000000000000000000000000000000000000000000000000815260206004820152601d60248201527f416464726573733a2063616c6c20746f206e6f6e2d636f6e747261637400000060448201526064016108bf565b6000808673ffffffffffffffffffffffffffffffffffffffff16858760405161376e919061454d565b60006040518083038185875af1925050503d80600081146137ab576040519150601f19603f3d011682016040523d82523d6000602084013e6137b0565b606091505b50915091506137c08282866137cb565b979650505050505050565b606083156137da5750816110f6565b8251156137ea5782518084602001fd5b816040517f08c379a00000000000000000000000000000000000000000000000000000000081526004016108bf9190613a81565b73ffffffffffffffffffffffffffffffffffffffff81168114610a5e57600080fd5b6000806040838503121561385357600080fd5b823561385e8161381e565b946020939093013593505050565b7fffffffff0000000000000000000000000000000000000000000000000000000081168114610a5e57600080fd5b6000602082840312156138ac57600080fd5b81356110f68161386c565b60008083601f8401126138c957600080fd5b50813567ffffffffffffffff8111156138e157600080fd5b6020830191508360208260051b85010111156138fc57600080fd5b9250929050565b60008083601f84011261391557600080fd5b50813567ffffffffffffffff81111561392d57600080fd5b6020830191508360208285010111156138fc57600080fd5b60008060008060008060006080888a03121561396057600080fd5b873561396b8161381e565b9650602088013567ffffffffffffffff8082111561398857600080fd5b6139948b838c016138b7565b909850965060408a01359150808211156139ad57600080fd5b6139b98b838c016138b7565b909650945060608a01359150808211156139d257600080fd5b506139df8a828b01613903565b989b979a50959850939692959293505050565b600060208284031215613a0457600080fd5b5035919050565b60005b83811015613a26578181015183820152602001613a0e565b838111156119ed5750506000910152565b60008151808452613a4f816020860160208601613a0b565b601f017fffffffffffffffffffffffffffffffffffffffffffffffffffffffffffffffe0169290920160200192915050565b6020815260006104be6020830184613a37565b600080600060608486031215613aa957600080fd5b8335613ab48161381e565b95602085013595506040909401359392505050565b60008060008060008060008060a0898b031215613ae557600080fd5b8835613af08161381e565b97506020890135613b008161381e565b9650604089013567ffffffffffffffff80821115613b1d57600080fd5b613b298c838d016138b7565b909850965060608b0135915080821115613b4257600080fd5b613b4e8c838d016138b7565b909650945060808b0135915080821115613b6757600080fd5b50613b748b828c01613903565b999c989b5096995094979396929594505050565b60008060408385031215613b9b57600080fd5b823591506020830135613bad8161381e565b809150509250929050565b60208152816020820152818360408301376000818301604090810191909152601f9092017fffffffffffffffffffffffffffffffffffffffffffffffffffffffffffffffe0160101919050565b60008060008060408587031215613c1b57600080fd5b843567ffffffffffffffff80821115613c3357600080fd5b613c3f888389016138b7565b90965094506020870135915080821115613c5857600080fd5b50613c65878288016138b7565b95989497509550505050565b600081518084526020808501945080840160005b83811015613ca157815187529582019590820190600101613c85565b509495945050505050565b6020815260006104be6020830184613c71565b600060208284031215613cd157600080fd5b81356110f68161381e565b600080600080600060808688031215613cf457600080fd5b8535613cff8161381e565b94506020860135935060408601359250606086013567ffffffffffffffff811115613d2957600080fd5b613d3588828901613903565b969995985093965092949392505050565b60008060008060008060608789031215613d5f57600080fd5b863567ffffffffffffffff80821115613d7757600080fd5b613d838a838b016138b7565b90985096506020890135915080821115613d9c57600080fd5b613da88a838b016138b7565b90965094506040890135915080821115613dc157600080fd5b50613dce89828a016138b7565b979a9699509497509295939492505050565b60008060208385031215613df357600080fd5b823567ffffffffffffffff811115613e0a57600080fd5b613e1685828601613903565b90969095509350505050565b600080600080600060608688031215613e3a57600080fd5b8535613e458161381e565b9450602086013567ffffffffffffffff80821115613e6257600080fd5b613e6e89838a016138b7565b90965094506040880135915080821115613e8757600080fd5b50613d35888289016138b7565b8015158114610a5e57600080fd5b60008060408385031215613eb557600080fd5b8235613ec08161381e565b91506020830135613bad81613e94565b6000806000806000806000806080898b031215613eec57600080fd5b883567ffffffffffffffff80821115613f0457600080fd5b613f108c838d016138b7565b909a50985060208b0135915080821115613f2957600080fd5b613f358c838d016138b7565b909850965060408b0135915080821115613f4e57600080fd5b613f5a8c838d016138b7565b909650945060608b0135915080821115613b6757600080fd5b60008060408385031215613f8657600080fd5b8235613f918161381e565b91506020830135613bad8161381e565b60008060008060008060a08789031215613fba57600080fd5b8635613fc58161381e565b95506020870135613fd58161381e565b94506040870135935060608701359250608087013567ffffffffffffffff811115613fff57600080fd5b613dce89828a01613903565b7f4e487b7100000000000000000000000000000000000000000000000000000000600052603260045260246000fd5b7f4e487b7100000000000000000000000000000000000000000000000000000000600052601160045260246000fd5b60008282101561407b5761407b61403a565b500390565b7f416363657373436f6e74726f6c3a206d697373696e67202700000000000000008152600082516140b8816018850160208701613a0b565b7f2720726f6c6500000000000000000000000000000000000000000000000000006018939091019283015250601e01919050565b6040815260006140ff6040830185613c71565b82810360208401526107898185613c71565b600181811c9082168061412557607f821691505b6020821081036129d9577f4e487b7100000000000000000000000000000000000000000000000000000000600052602260045260246000fd5b600080845461416c81614111565b6001828116801561418457600181146141b7576141e6565b7fffffffffffffffffffffffffffffffffffffffffffffffffffffffffffffff00841687528215158302870194506141e6565b8860005260208060002060005b858110156141dd5781548a8201529084019082016141c4565b50505082870194505b5050505083516141fa818360208801613a0b565b01949350505050565b7f4e487b7100000000000000000000000000000000000000000000000000000000600052604160045260246000fd5b601f82111561060957600081815260208120601f850160051c810160208610156142595750805b601f850160051c820191505b8181101561083357828155600101614265565b815167ffffffffffffffff81111561429257614292614203565b6142a6816142a08454614111565b84614232565b602080601f8311600181146142f957600084156142c35750858301515b7fffffffffffffffffffffffffffffffffffffffffffffffffffffffffffffffff600386901b1c1916600185901b178555610833565b6000858152602081207fffffffffffffffffffffffffffffffffffffffffffffffffffffffffffffffe08616915b8281101561434657888601518255948401946001909101908401614327565b508582101561438257878501517fffffffffffffffffffffffffffffffffffffffffffffffffffffffffffffffff600388901b60f8161c191681555b5050505050600190811b01905550565b6000602082840312156143a457600080fd5b81516110f681613e94565b600073ffffffffffffffffffffffffffffffffffffffff808816835280871660208401525060a060408301526143e860a0830186613c71565b82810360608401526143fa8186613c71565b9050828103608084015261440e8185613a37565b98975050505050505050565b60006020828403121561442c57600080fd5b81516110f68161386c565b60007fffffffffffffffffffffffffffffffffffffffffffffffffffffffffffffffff82036144685761446861403a565b5060010190565b7f4e487b7100000000000000000000000000000000000000000000000000000000600052601260045260246000fd5b6000826144ad576144ad61446f565b500490565b6000826144c1576144c161446f565b500690565b600082198211156144d9576144d961403a565b500190565b600073ffffffffffffffffffffffffffffffffffffffff808816835280871660208401525084604083015283606083015260a060808301526137c060a0830184613a37565b6000808585111561453357600080fd5b8386111561454057600080fd5b5050820193919092039150565b6000825161455f818460208701613a0b565b919091019291505056fea26469706673582212207b811caef6c856dedbc48464bb1503b32855522434e7cfacfaff06c6722ddbdd64736f6c634300080f0033",
  "linkReferences": {},
  "deployedLinkReferences": {}
}