{
  "_format": "hh-sol-artifact-1",
  "contractName": "REVVMotorsportVouchersMock",
  "sourceName": "contracts/mocks/token/ERC1155/REVVMotorsportVouchersMock.sol",
  "abi": [
    {
      "inputs": [
        {
          "internalType": "contract IOperatorFilterRegistry",
          "name": "filterRegistry",
          "type": "address"
        },
        {
          "internalType": "contract IForwarderRegistry",
          "name": "forwarderRegistry",
          "type": "address"
        }
      ],
      "stateMutability": "nonpayable",
      "type": "constructor"
    },
    {
      "inputs": [
        {
          "internalType": "uint256",
          "name": "percentage",
          "type": "uint256"
        }
      ],
      "name": "IncorrectRoyaltyPercentage",
      "type": "error"
    },
    {
      "inputs": [],
      "name": "IncorrectRoyaltyReceiver",
      "type": "error"
    },
    {
      "inputs": [
        {
          "internalType": "address",
          "name": "operator",
          "type": "address"
        }
      ],
      "name": "OperatorNotAllowed",
      "type": "error"
    },
    {
      "anonymous": false,
      "inputs": [
        {
          "indexed": true,
          "internalType": "address",
          "name": "owner",
          "type": "address"
        },
        {
          "indexed": true,
          "internalType": "address",
          "name": "operator",
          "type": "address"
        },
        {
          "indexed": false,
          "internalType": "bool",
          "name": "approved",
          "type": "bool"
        }
      ],
      "name": "ApprovalForAll",
      "type": "event"
    },
    {
      "anonymous": false,
      "inputs": [
        {
          "indexed": false,
          "internalType": "string",
          "name": "baseMetadataURI",
          "type": "string"
        }
      ],
      "name": "BaseMetadataURISet",
      "type": "event"
    },
    {
      "anonymous": false,
      "inputs": [
        {
          "indexed": true,
          "internalType": "address",
          "name": "previousOwner",
          "type": "address"
        },
        {
          "indexed": true,
          "internalType": "address",
          "name": "newOwner",
          "type": "address"
        }
      ],
      "name": "OwnershipTransferred",
      "type": "event"
    },
    {
      "anonymous": false,
      "inputs": [
        {
          "indexed": false,
          "internalType": "bytes32",
          "name": "role",
          "type": "bytes32"
        },
        {
          "indexed": false,
          "internalType": "address",
          "name": "account",
          "type": "address"
        },
        {
          "indexed": false,
          "internalType": "address",
          "name": "operator",
          "type": "address"
        }
      ],
      "name": "RoleGranted",
      "type": "event"
    },
    {
      "anonymous": false,
      "inputs": [
        {
          "indexed": false,
          "internalType": "bytes32",
          "name": "role",
          "type": "bytes32"
        },
        {
          "indexed": false,
          "internalType": "address",
          "name": "account",
          "type": "address"
        },
        {
          "indexed": false,
          "internalType": "address",
          "name": "operator",
          "type": "address"
        }
      ],
      "name": "RoleRevoked",
      "type": "event"
    },
    {
      "anonymous": false,
      "inputs": [
        {
          "indexed": true,
          "internalType": "address",
          "name": "operator",
          "type": "address"
        },
        {
          "indexed": true,
          "internalType": "address",
          "name": "from",
          "type": "address"
        },
        {
          "indexed": true,
          "internalType": "address",
          "name": "to",
          "type": "address"
        },
        {
          "indexed": false,
          "internalType": "uint256[]",
          "name": "ids",
          "type": "uint256[]"
        },
        {
          "indexed": false,
          "internalType": "uint256[]",
          "name": "values",
          "type": "uint256[]"
        }
      ],
      "name": "TransferBatch",
      "type": "event"
    },
    {
      "anonymous": false,
      "inputs": [
        {
          "indexed": true,
          "internalType": "address",
          "name": "operator",
          "type": "address"
        },
        {
          "indexed": true,
          "internalType": "address",
          "name": "from",
          "type": "address"
        },
        {
          "indexed": true,
          "internalType": "address",
          "name": "to",
          "type": "address"
        },
        {
          "indexed": false,
          "internalType": "uint256",
          "name": "id",
          "type": "uint256"
        },
        {
          "indexed": false,
          "internalType": "uint256",
          "name": "value",
          "type": "uint256"
        }
      ],
      "name": "TransferSingle",
      "type": "event"
    },
    {
      "anonymous": false,
      "inputs": [
        {
          "indexed": false,
          "internalType": "string",
          "name": "value",
          "type": "string"
        },
        {
          "indexed": true,
          "internalType": "uint256",
          "name": "id",
          "type": "uint256"
        }
      ],
      "name": "URI",
      "type": "event"
    },
    {
      "inputs": [],
      "name": "MINTER_ROLE",
      "outputs": [
        {
          "internalType": "bytes32",
          "name": "",
          "type": "bytes32"
        }
      ],
      "stateMutability": "view",
      "type": "function"
    },
    {
      "inputs": [],
      "name": "ROYALTY_FEE_DENOMINATOR",
      "outputs": [
        {
          "internalType": "uint256",
          "name": "",
          "type": "uint256"
        }
      ],
      "stateMutability": "view",
      "type": "function"
    },
    {
      "inputs": [],
      "name": "__msgData",
      "outputs": [
        {
          "internalType": "bytes",
          "name": "",
          "type": "bytes"
        }
      ],
      "stateMutability": "view",
      "type": "function"
    },
    {
      "inputs": [
        {
          "internalType": "address",
          "name": "owner",
          "type": "address"
        },
        {
          "internalType": "uint256",
          "name": "id",
          "type": "uint256"
        }
      ],
      "name": "balanceOf",
      "outputs": [
        {
          "internalType": "uint256",
          "name": "balance",
          "type": "uint256"
        }
      ],
      "stateMutability": "view",
      "type": "function"
    },
    {
      "inputs": [
        {
          "internalType": "address[]",
          "name": "owners",
          "type": "address[]"
        },
        {
          "internalType": "uint256[]",
          "name": "ids",
          "type": "uint256[]"
        }
      ],
      "name": "balanceOfBatch",
      "outputs": [
        {
          "internalType": "uint256[]",
          "name": "balances",
          "type": "uint256[]"
        }
      ],
      "stateMutability": "view",
      "type": "function"
    },
    {
      "inputs": [],
      "name": "baseMetadataURI",
      "outputs": [
        {
          "internalType": "string",
          "name": "baseURI",
          "type": "string"
        }
      ],
      "stateMutability": "view",
      "type": "function"
    },
    {
      "inputs": [
        {
          "internalType": "address",
          "name": "from",
          "type": "address"
        },
        {
          "internalType": "uint256[]",
          "name": "ids",
          "type": "uint256[]"
        },
        {
          "internalType": "uint256[]",
          "name": "values",
          "type": "uint256[]"
        }
      ],
      "name": "batchBurnFrom",
      "outputs": [],
      "stateMutability": "nonpayable",
      "type": "function"
    },
    {
      "inputs": [
        {
          "internalType": "address",
          "name": "from",
          "type": "address"
        },
        {
          "internalType": "uint256",
          "name": "id",
          "type": "uint256"
        },
        {
          "internalType": "uint256",
          "name": "value",
          "type": "uint256"
        }
      ],
      "name": "burnFrom",
      "outputs": [],
      "stateMutability": "nonpayable",
      "type": "function"
    },
    {
      "inputs": [],
      "name": "forwarderRegistry",
      "outputs": [
        {
          "internalType": "contract IForwarderRegistry",
          "name": "",
          "type": "address"
        }
      ],
      "stateMutability": "view",
      "type": "function"
    },
    {
      "inputs": [
        {
          "internalType": "bytes32",
          "name": "role",
          "type": "bytes32"
        },
        {
          "internalType": "address",
          "name": "account",
          "type": "address"
        }
      ],
      "name": "grantRole",
      "outputs": [],
      "stateMutability": "nonpayable",
      "type": "function"
    },
    {
      "inputs": [
        {
          "internalType": "bytes32",
          "name": "role",
          "type": "bytes32"
        },
        {
          "internalType": "address",
          "name": "account",
          "type": "address"
        }
      ],
      "name": "hasRole",
      "outputs": [
        {
          "internalType": "bool",
          "name": "",
          "type": "bool"
        }
      ],
      "stateMutability": "view",
      "type": "function"
    },
    {
      "inputs": [
        {
          "internalType": "address",
          "name": "owner",
          "type": "address"
        },
        {
          "internalType": "address",
          "name": "operator",
          "type": "address"
        }
      ],
      "name": "isApprovedForAll",
      "outputs": [
        {
          "internalType": "bool",
          "name": "approvedForAll",
          "type": "bool"
        }
      ],
      "stateMutability": "view",
      "type": "function"
    },
    {
      "inputs": [
        {
          "internalType": "address",
          "name": "forwarder",
          "type": "address"
        }
      ],
      "name": "isTrustedForwarder",
      "outputs": [
        {
          "internalType": "bool",
          "name": "",
          "type": "bool"
        }
      ],
      "stateMutability": "view",
      "type": "function"
    },
    {
      "inputs": [],
      "name": "operatorFilterRegistry",
      "outputs": [
        {
          "internalType": "contract IOperatorFilterRegistry",
          "name": "",
          "type": "address"
        }
      ],
      "stateMutability": "view",
      "type": "function"
    },
    {
      "inputs": [],
      "name": "owner",
      "outputs": [
        {
          "internalType": "address",
          "name": "",
          "type": "address"
        }
      ],
      "stateMutability": "view",
      "type": "function"
    },
    {
      "inputs": [
        {
          "internalType": "address[]",
          "name": "accounts",
          "type": "address[]"
        },
        {
          "internalType": "contract IERC20[]",
          "name": "tokens",
          "type": "address[]"
        },
        {
          "internalType": "uint256[]",
          "name": "amounts",
          "type": "uint256[]"
        }
      ],
      "name": "recoverERC20s",
      "outputs": [],
      "stateMutability": "nonpayable",
      "type": "function"
    },
    {
      "inputs": [
        {
          "internalType": "address[]",
          "name": "accounts",
          "type": "address[]"
        },
        {
          "internalType": "contract IERC721[]",
          "name": "contracts",
          "type": "address[]"
        },
        {
          "internalType": "uint256[]",
          "name": "tokenIds",
          "type": "uint256[]"
        }
      ],
      "name": "recoverERC721s",
      "outputs": [],
      "stateMutability": "nonpayable",
      "type": "function"
    },
    {
      "inputs": [
        {
          "internalType": "address payable[]",
          "name": "accounts",
          "type": "address[]"
        },
        {
          "internalType": "uint256[]",
          "name": "amounts",
          "type": "uint256[]"
        }
      ],
      "name": "recoverETH",
      "outputs": [],
      "stateMutability": "nonpayable",
      "type": "function"
    },
    {
      "inputs": [
        {
          "internalType": "bytes32",
          "name": "role",
          "type": "bytes32"
        }
      ],
      "name": "renounceRole",
      "outputs": [],
      "stateMutability": "nonpayable",
      "type": "function"
    },
    {
      "inputs": [
        {
          "internalType": "bytes32",
          "name": "role",
          "type": "bytes32"
        },
        {
          "internalType": "address",
          "name": "account",
          "type": "address"
        }
      ],
      "name": "revokeRole",
      "outputs": [],
      "stateMutability": "nonpayable",
      "type": "function"
    },
    {
      "inputs": [
        {
          "internalType": "uint256",
          "name": "tokenId",
          "type": "uint256"
        },
        {
          "internalType": "uint256",
          "name": "salePrice",
          "type": "uint256"
        }
      ],
      "name": "royaltyInfo",
      "outputs": [
        {
          "internalType": "address",
          "name": "receiver",
          "type": "address"
        },
        {
          "internalType": "uint256",
          "name": "royaltyAmount",
          "type": "uint256"
        }
      ],
      "stateMutability": "view",
      "type": "function"
    },
    {
      "inputs": [
        {
          "internalType": "address",
          "name": "to",
          "type": "address"
        },
        {
          "internalType": "uint256[]",
          "name": "ids",
          "type": "uint256[]"
        },
        {
          "internalType": "uint256[]",
          "name": "values",
          "type": "uint256[]"
        },
        {
          "internalType": "bytes",
          "name": "data",
          "type": "bytes"
        }
      ],
      "name": "safeBatchMint",
      "outputs": [],
      "stateMutability": "nonpayable",
      "type": "function"
    },
    {
      "inputs": [
        {
          "internalType": "address",
          "name": "from",
          "type": "address"
        },
        {
          "internalType": "address",
          "name": "to",
          "type": "address"
        },
        {
          "internalType": "uint256[]",
          "name": "ids",
          "type": "uint256[]"
        },
        {
          "internalType": "uint256[]",
          "name": "values",
          "type": "uint256[]"
        },
        {
          "internalType": "bytes",
          "name": "data",
          "type": "bytes"
        }
      ],
      "name": "safeBatchTransferFrom",
      "outputs": [],
      "stateMutability": "nonpayable",
      "type": "function"
    },
    {
      "inputs": [
        {
          "internalType": "address[]",
          "name": "recipients",
          "type": "address[]"
        },
        {
          "internalType": "uint256[]",
          "name": "ids",
          "type": "uint256[]"
        },
        {
          "internalType": "uint256[]",
          "name": "values",
          "type": "uint256[]"
        },
        {
          "internalType": "bytes",
          "name": "data",
          "type": "bytes"
        }
      ],
      "name": "safeDeliver",
      "outputs": [],
      "stateMutability": "nonpayable",
      "type": "function"
    },
    {
      "inputs": [
        {
          "internalType": "address",
          "name": "to",
          "type": "address"
        },
        {
          "internalType": "uint256",
          "name": "id",
          "type": "uint256"
        },
        {
          "internalType": "uint256",
          "name": "value",
          "type": "uint256"
        },
        {
          "internalType": "bytes",
          "name": "data",
          "type": "bytes"
        }
      ],
      "name": "safeMint",
      "outputs": [],
      "stateMutability": "nonpayable",
      "type": "function"
    },
    {
      "inputs": [
        {
          "internalType": "address",
          "name": "from",
          "type": "address"
        },
        {
          "internalType": "address",
          "name": "to",
          "type": "address"
        },
        {
          "internalType": "uint256",
          "name": "id",
          "type": "uint256"
        },
        {
          "internalType": "uint256",
          "name": "value",
          "type": "uint256"
        },
        {
          "internalType": "bytes",
          "name": "data",
          "type": "bytes"
        }
      ],
      "name": "safeTransferFrom",
      "outputs": [],
      "stateMutability": "nonpayable",
      "type": "function"
    },
    {
      "inputs": [
        {
          "internalType": "address",
          "name": "operator",
          "type": "address"
        },
        {
          "internalType": "bool",
          "name": "approved",
          "type": "bool"
        }
      ],
      "name": "setApprovalForAll",
      "outputs": [],
      "stateMutability": "nonpayable",
      "type": "function"
    },
    {
      "inputs": [
        {
          "internalType": "string",
          "name": "baseURI",
          "type": "string"
        }
      ],
      "name": "setBaseMetadataURI",
      "outputs": [],
      "stateMutability": "nonpayable",
      "type": "function"
    },
    {
      "inputs": [
        {
          "internalType": "uint256",
          "name": "percentage",
          "type": "uint256"
        }
      ],
      "name": "setRoyaltyPercentage",
      "outputs": [],
      "stateMutability": "nonpayable",
      "type": "function"
    },
    {
      "inputs": [
        {
          "internalType": "address",
          "name": "receiver",
          "type": "address"
        }
      ],
      "name": "setRoyaltyReceiver",
      "outputs": [],
      "stateMutability": "nonpayable",
      "type": "function"
    },
    {
      "inputs": [
        {
          "internalType": "bytes4",
          "name": "interfaceId",
          "type": "bytes4"
        }
      ],
      "name": "supportsInterface",
      "outputs": [
        {
          "internalType": "bool",
          "name": "",
          "type": "bool"
        }
      ],
      "stateMutability": "view",
      "type": "function"
    },
    {
      "inputs": [
        {
          "internalType": "address",
          "name": "newOwner",
          "type": "address"
        }
      ],
      "name": "transferOwnership",
      "outputs": [],
      "stateMutability": "nonpayable",
      "type": "function"
    },
    {
      "inputs": [
        {
          "internalType": "contract IOperatorFilterRegistry",
          "name": "registry",
          "type": "address"
        }
      ],
      "name": "updateOperatorFilterRegistry",
      "outputs": [],
      "stateMutability": "nonpayable",
      "type": "function"
    },
    {
      "inputs": [
        {
          "internalType": "uint256",
          "name": "id",
          "type": "uint256"
        }
      ],
      "name": "uri",
      "outputs": [
        {
          "internalType": "string",
          "name": "metadataURI",
          "type": "string"
        }
      ],
      "stateMutability": "view",
      "type": "function"
    }
  ],
  "bytecode": "0x60a06040523480156200001157600080fd5b5060405162004a5338038062004a5383398101604081905262000034916200031a565b818180808333620000508162000049620000d3565b9062000109565b506200005b62000184565b62000088816200006a6200019e565b9081546001600160a01b0319166001600160a01b0391909116179055565b5062000093620001ce565b6200009d620001e6565b620000a7620001fe565b620000b162000216565b620000bb6200022e565b6001600160a01b0316608052506200037b9350505050565b6000806200010360017fc9ed16f33ab3a66c84bfd83099ccb2a8845871e2e1c1928f63797152f0fd54cd62000359565b92915050565b6001600160a01b03811615620001605781546001600160a01b0319166001600160a01b03821690811783556040516000907f8be0079c531659141344cd1fd0a4f28419497f9722a3daafe3b4186f6b6457e0908290a35b620001806307f5828d60e41b60016200017862000241565b919062000271565b5050565b6200019c636cdb3d1360e11b60016200017862000241565b565b6000806200010360017f609b85bcafa81ecfaf3ff62cdde2c6c9082a68dbe4922f07399c706bdeb7cd3162000359565b6200019c631464324b60e21b60016200017862000241565b6200019c633a2ae73360e21b60016200017862000241565b6200019c6303a24d0760e21b60016200017862000241565b6200019c63921ed8d160e01b60016200017862000241565b6200019c63152a902d60e11b6001620001785b6000806200010360017fca9d3e17f264b0f3984e2634e94adb37fa3e6a8103f06aeae6fa59e21c769f5e62000359565b600160e01b6001600160e01b0319831601620002d35760405162461bcd60e51b815260206004820152601f60248201527f496e74657266616365446574656374696f6e3a2077726f6e672076616c756500604482015260640160405180910390fd5b6001600160e01b03199190911660009081526020929092526040909120805460ff1916911515919091179055565b6001600160a01b03811681146200031757600080fd5b50565b600080604083850312156200032e57600080fd5b82516200033b8162000301565b60208401519092506200034e8162000301565b809150509250929050565b818103818111156200010357634e487b7160e01b600052601160045260246000fd5b608051614699620003ba6000396000818161030f015281816103c001528181612a3101528181612ab9015281816133a701526133e501526146996000f3fe608060405234801561001057600080fd5b50600436106102255760003560e01c80637e518ec81161012a578063c3666c36116100bd578063e8ab9ccc1161008c578063f242432a11610071578063f242432a1461053d578063f2fde38b14610550578063f7ba94bd1461056357600080fd5b8063e8ab9ccc14610517578063e985e9c51461052a57600080fd5b8063c3666c36146104c0578063d5391393146104d3578063d547741f146104fa578063e1a8bf2c1461050d57600080fd5b80638dc251e3116100f95780638dc251e31461047f57806391d1485414610492578063a22cb465146104a5578063b0ccc31e146104b857600080fd5b80637e518ec81461043e57806380534934146104515780638bb9c5bf146104645780638da5cb5b1461047757600080fd5b80632eb2c2d6116101bd578063572b6c051161018c5780635cfa9297116101715780635cfa92971461040557806361ba27da1461041857806373c8a9581461042b57600080fd5b8063572b6c05146103b05780635b2bd79e146103fd57600080fd5b80632eb2c2d6146103545780632f2ff15d1461036757806331e66e1e1461037a5780634e1273f41461039057600080fd5b8063114ba8ee116101f9578063114ba8ee146102a8578063124d91e5146102bb5780632a55205a146102ce5780632b4c9f161461030d57600080fd5b8062fdd58e1461022a57806301ffc9a7146102505780630d6a5bbb146102735780630e89341c14610288575b600080fd5b61023d6102383660046138e8565b610576565b6040519081526020015b60405180910390f35b61026361025e366004613942565b610595565b6040519015158152602001610247565b6102866102813660046139ed565b6105a9565b005b61029b610296366004613a9a565b6106a4565b6040516102479190613b21565b6102866102b6366004613b34565b6106b8565b6102866102c9366004613b51565b610723565b6102e16102dc366004613b86565b610747565b6040805173ffffffffffffffffffffffffffffffffffffffff9093168352602083019190915201610247565b7f00000000000000000000000000000000000000000000000000000000000000005b60405173ffffffffffffffffffffffffffffffffffffffff9091168152602001610247565b610286610362366004613ba8565b61076a565b610286610375366004613c67565b6107b7565b6103826107e5565b604051610247929190613ce0565b6103a361039e366004613cf4565b6107f8565b6040516102479190613d9b565b6102636103be366004613b34565b7f000000000000000000000000000000000000000000000000000000000000000073ffffffffffffffffffffffffffffffffffffffff90811691161490565b61029b61081d565b610286610413366004613dae565b610834565b610286610426366004613a9a565b6108c6565b610286610439366004613e18565b6108e3565b61028661044c366004613eb2565b610a01565b61028661045f366004613ef4565b610a24565b610286610472366004613a9a565b610a4e565b61032f610a69565b61028661048d366004613b34565b610a90565b6102636104a0366004613c67565b610aad565b6102866104b3366004613f74565b610af1565b61032f610b26565b6102866104ce366004613e18565b610b33565b61023d7f6d696e746572000000000000000000000000000000000000000000000000000081565b610286610508366004613c67565b610cd8565b61023d620186a081565b610286610525366004613fa2565b610d06565b610263610538366004614045565b610e20565b61028661054b366004614073565b610e6e565b61028661055e366004613b34565b610eae565b610286610571366004613cf4565b610ec9565b600061058c8383610585610faf565b9190610fdd565b90505b92915050565b600061058f826105a3611091565b906110bf565b60006105b3611199565b90506105e97f6d696e7465720000000000000000000000000000000000000000000000000000826105e26111a3565b91906111d1565b61069a818989898080602002602001604051908101604052809392919081815260200183836020028082843760009201919091525050604080516020808d0282810182019093528c82529093508c92508b91829185019084908082843760009201919091525050604080516020601f8c018190048102820181019092528a815292508a91508990819084018382808284376000920191909152506106909250610faf915050565b949392919061127d565b5050505050505050565b606061058f826106b2611462565b90611490565b6106d16106c3611199565b6106cb6114c4565b906114f2565b610720816106dd611575565b9081547fffffffffffffffffffffffff00000000000000000000000000000000000000001673ffffffffffffffffffffffffffffffffffffffff91909116179055565b50565b61074261072e611199565b848484610739610faf565b939291906115e5565b505050565b60008061075e84846107576116c2565b91906116f0565b915091505b9250929050565b6000610774611199565b905061078a818a610783611575565b919061179a565b6107ac818a8a8a8a8a8a8a8a61079e610faf565b9897969594939291906117d7565b505050505050505050565b60006107c1611199565b90506107cf816106cb6114c4565b6107428383836107dd6111a3565b929190611acf565b3660006107f0611ba6565b915091509091565b606061081285858585610809610faf565b93929190611bb1565b90505b949350505050565b606061082f61082a611462565b611cef565b905090565b600061083e611199565b905061086d7f6d696e7465720000000000000000000000000000000000000000000000000000826105e26111a3565b6108be8187878787878080601f0160208091040260200160405190810160405280939291908181526020018383808284376000920191909152506108b49250610faf915050565b9493929190611d85565b505050505050565b6108d16106c3611199565b610720816108dd6116c2565b90611e93565b6108ee6106c3611199565b8483811480156108fd57508082145b610968576040517f08c379a000000000000000000000000000000000000000000000000000000000815260206004820152601d60248201527f5265636f766572793a20696e636f6e73697374656e742061727261797300000060448201526064015b60405180910390fd5b60005b81811461069a576109f9888883818110610987576109876140dd565b905060200201602081019061099c9190613b34565b8585848181106109ae576109ae6140dd565b905060200201358888858181106109c7576109c76140dd565b90506020020160208101906109dc9190613b34565b73ffffffffffffffffffffffffffffffffffffffff169190611f19565b60010161096b565b610a0c6106c3611199565b610a208282610a19611462565b9190611fa6565b5050565b610a47610a2f611199565b8686868686610a3c610faf565b959493929190611ff1565b5050505050565b610720610a59611199565b82610a626111a3565b91906121a8565b600061082f610a766114c4565b5473ffffffffffffffffffffffffffffffffffffffff1690565b610a9b6106c3611199565b61072081610aa76116c2565b90612244565b600061058c8383610abc6111a3565b60009283526020908152604080842073ffffffffffffffffffffffffffffffffffffffff909316845291905290205460ff1690565b8015610b0957610b0982610b03611575565b90612291565b610a20610b14611199565b8383610b1e610faf565b92919061229b565b600061082f610a76611575565b610b3e6106c3611199565b848381148015610b4d57508082145b610bb3576040517f08c379a000000000000000000000000000000000000000000000000000000000815260206004820152601d60248201527f5265636f766572793a20696e636f6e73697374656e7420617272617973000000604482015260640161095f565b60005b81811461069a57858582818110610bcf57610bcf6140dd565b9050602002016020810190610be49190613b34565b73ffffffffffffffffffffffffffffffffffffffff166323b872dd308a8a85818110610c1257610c126140dd565b9050602002016020810190610c279190613b34565b878786818110610c3957610c396140dd565b6040517fffffffff0000000000000000000000000000000000000000000000000000000060e088901b16815273ffffffffffffffffffffffffffffffffffffffff958616600482015294909316602485015250602090910201356044820152606401600060405180830381600087803b158015610cb557600080fd5b505af1158015610cc9573d6000803e3d6000fd5b50505050806001019050610bb6565b6000610ce2611199565b9050610cf0816106cb6114c4565b610742838383610cfe6111a3565b9291906123cb565b6000610d10611199565b9050610d3f7f6d696e7465720000000000000000000000000000000000000000000000000000826105e26111a3565b6107ac818a8a8080602002602001604051908101604052809392919081815260200183836020028082843760009201919091525050604080516020808e0282810182019093528d82529093508d92508c91829185019084908082843760009201919091525050604080516020808d0282810182019093528c82529093508c92508b91829185019084908082843760009201919091525050604080516020601f8c018190048102820181019092528a815292508a9150899081908401838280828437600092019190915250610e169250610faf915050565b9493929190612495565b600061058c8383610e2f610faf565b919073ffffffffffffffffffffffffffffffffffffffff9182166000908152600193909301602090815260408085209290931684525290205460ff1690565b6000610e78611199565b9050610e878188610783611575565b610ea581888888888888610e99610faf565b96959493929190612585565b50505050505050565b610720610eb9611199565b82610ec26114c4565b9190612768565b610ed46106c3611199565b82818114610f3e576040517f08c379a000000000000000000000000000000000000000000000000000000000815260206004820152601d60248201527f5265636f766572793a20696e636f6e73697374656e7420617272617973000000604482015260640161095f565b60005b8181146108be57610fa7848483818110610f5d57610f5d6140dd565b90506020020135878784818110610f7657610f766140dd565b9050602002016020810190610f8b9190613b34565b73ffffffffffffffffffffffffffffffffffffffff1690612894565b600101610f41565b60008061058f60017f5ccf5846fa27a68fafc8e588671a68f5e67c2f9b56af4263806a4d71735e861361413b565b600073ffffffffffffffffffffffffffffffffffffffff831661105c576040517f08c379a000000000000000000000000000000000000000000000000000000000815260206004820152601e60248201527f455243313135353a2062616c616e6365206f6620616464726573732830290000604482015260640161095f565b5060009081526020928352604080822073ffffffffffffffffffffffffffffffffffffffff9390931682529190925290205490565b60008061058f60017fca9d3e17f264b0f3984e2634e94adb37fa3e6a8103f06aeae6fa59e21c769f5e61413b565b60007c01000000000000000000000000000000000000000000000000000000007fffffffff0000000000000000000000000000000000000000000000000000000083160161110f5750600061058f565b7ffe003659000000000000000000000000000000000000000000000000000000007fffffffff000000000000000000000000000000000000000000000000000000008316016111605750600161058f565b507fffffffff00000000000000000000000000000000000000000000000000000000166000908152602091909152604090205460ff1690565b600061082f6129ee565b60008061058f60017fc8827d3282af6f37b64c3e9e6f3ac9df286ab0bb0fccd6f8661bf19adb368b2361413b565b60008281526020848152604080832073ffffffffffffffffffffffffffffffffffffffff8516845290915290205460ff166107425761120f82612b35565b60405160200161121f919061414e565b604080517fffffffffffffffffffffffffffffffffffffffffffffffffffffffffffffffe0818403018152908290527f08c379a000000000000000000000000000000000000000000000000000000000825261095f91600401613b21565b73ffffffffffffffffffffffffffffffffffffffff84166112fa576040517f08c379a000000000000000000000000000000000000000000000000000000000815260206004820152601b60248201527f455243313135353a206d696e7420746f20616464726573732830290000000000604482015260640161095f565b825182518114611366576040517f08c379a000000000000000000000000000000000000000000000000000000000815260206004820152601c60248201527f455243313135353a20696e636f6e73697374656e742061727261797300000000604482015260640161095f565b60005b8181146113b6576113ae8887878481518110611387576113876140dd565b60200260200101518785815181106113a1576113a16140dd565b6020026020010151612cc7565b600101611369565b508473ffffffffffffffffffffffffffffffffffffffff16600073ffffffffffffffffffffffffffffffffffffffff168773ffffffffffffffffffffffffffffffffffffffff167f4a39dc06d4c0dbc64b70af90fd698a233a518aa5d07e595d983b8c0526c8f7fb878760405161142e9291906141ba565b60405180910390a473ffffffffffffffffffffffffffffffffffffffff85163b15610ea557610ea586600087878787612d9b565b60008061058f60017fe94434e3c6b941c5d90218142fadcc69cb2e13723993540bfa1c131dd1d3475a61413b565b60608261149c83612ec3565b6040516020016114ad92919061423b565b604051602081830303815290604052905092915050565b60008061058f60017fc9ed16f33ab3a66c84bfd83099ccb2a8845871e2e1c1928f63797152f0fd54cd61413b565b815473ffffffffffffffffffffffffffffffffffffffff828116911614610a20576040517f08c379a000000000000000000000000000000000000000000000000000000000815260206004820152601860248201527f4f776e6572736869703a206e6f7420746865206f776e65720000000000000000604482015260640161095f565b60008061058f60017f609b85bcafa81ecfaf3ff62cdde2c6c9082a68dbe4922f07399c706bdeb7cd3161413b565b81547fffffffffffffffffffffffff00000000000000000000000000000000000000001673ffffffffffffffffffffffffffffffffffffffff91909116179055565b6115f0858486612f81565b611656576040517f08c379a000000000000000000000000000000000000000000000000000000000815260206004820152601c60248201527f455243313135353a206e6f6e2d617070726f7665642073656e64657200000000604482015260640161095f565b61166285848484612ff6565b604080518381526020810183905260009173ffffffffffffffffffffffffffffffffffffffff86811692908816917fc3d58168c5ae7397731d063d5bbf3d657854427343f4c083240f7aacaa2d0f62910160405180910390a45050505050565b60008061058f60017f2c0cf10337caabbd02dcf226f05f5fd19a0919a41a8df8958c39b8000782685861413b565b825473ffffffffffffffffffffffffffffffffffffffff8116906000907401000000000000000000000000000000000000000090046bffffffffffffffffffffffff1683158061173e575080155b1561174c5760009150611791565b620186a084101561177657620186a061176582866142e0565b61176f91906142f7565b9150611791565b80611784620186a0866142f7565b61178e91906142e0565b91505b50935093915050565b8073ffffffffffffffffffffffffffffffffffffffff168273ffffffffffffffffffffffffffffffffffffffff1614610742576107428383613096565b73ffffffffffffffffffffffffffffffffffffffff8716611854576040517f08c379a000000000000000000000000000000000000000000000000000000000815260206004820152601f60248201527f455243313135353a207472616e7366657220746f206164647265737328302900604482015260640161095f565b848381146118be576040517f08c379a000000000000000000000000000000000000000000000000000000000815260206004820152601c60248201527f455243313135353a20696e636f6e73697374656e742061727261797300000000604482015260640161095f565b6118c98b8a8c612f81565b61192f576040517f08c379a000000000000000000000000000000000000000000000000000000000815260206004820152601c60248201527f455243313135353a206e6f6e2d617070726f7665642073656e64657200000000604482015260640161095f565b60005b81811461197e576119768c8b8b8b8b86818110611951576119516140dd565b905060200201358a8a8781811061196a5761196a6140dd565b905060200201356131bd565b600101611932565b508773ffffffffffffffffffffffffffffffffffffffff168973ffffffffffffffffffffffffffffffffffffffff168b73ffffffffffffffffffffffffffffffffffffffff167f4a39dc06d4c0dbc64b70af90fd698a233a518aa5d07e595d983b8c0526c8f7fb8a8a8a8a6040516119f9949392919061437d565b60405180910390a473ffffffffffffffffffffffffffffffffffffffff88163b15611ac257611ac28a8a8a8a8a8080602002602001604051908101604052809392919081815260200183836020028082843760009201919091525050604080516020808e0282810182019093528d82529093508d92508c91829185019084908082843760009201919091525050604080516020601f8d018190048102820181019092528b815292508b91508a9081908401838280828437600092019190915250612d9b92505050565b5050505050505050505050565b60008381526020858152604080832073ffffffffffffffffffffffffffffffffffffffff8616845290915290205460ff16611ba05760008381526020858152604080832073ffffffffffffffffffffffffffffffffffffffff8681168086529184529382902080547fffffffffffffffffffffffffffffffffffffffffffffffffffffffffffffff00166001179055815187815292830152918316918101919091527f2f8788117e7eff1d82e926ec794901d17c78024a50270940304540a733656f0d906060015b60405180910390a15b50505050565b3660006107f0613370565b606083828114611c1d576040517f08c379a000000000000000000000000000000000000000000000000000000000815260206004820152601c60248201527f455243313135353a20696e636f6e73697374656e742061727261797300000000604482015260640161095f565b8467ffffffffffffffff811115611c3657611c366143a4565b604051908082528060200260200182016040528015611c5f578160200160208202803683370190505b50915060005b818114611ce457611cbf878783818110611c8157611c816140dd565b9050602002016020810190611c969190613b34565b868684818110611ca857611ca86140dd565b905060200201358a610fdd9092919063ffffffff16565b838281518110611cd157611cd16140dd565b6020908102919091010152600101611c65565b505095945050505050565b6060816000018054611d00906141e8565b80601f0160208091040260200160405190810160405280929190818152602001828054611d2c906141e8565b8015611d795780601f10611d4e57610100808354040283529160200191611d79565b820191906000526020600020905b815481529060010190602001808311611d5c57829003601f168201915b50505050509050919050565b73ffffffffffffffffffffffffffffffffffffffff8416611e02576040517f08c379a000000000000000000000000000000000000000000000000000000000815260206004820152601b60248201527f455243313135353a206d696e7420746f20616464726573732830290000000000604482015260640161095f565b611e0e86858585612cc7565b604080518481526020810184905273ffffffffffffffffffffffffffffffffffffffff80871692600092918916917fc3d58168c5ae7397731d063d5bbf3d657854427343f4c083240f7aacaa2d0f62910160405180910390a473ffffffffffffffffffffffffffffffffffffffff84163b156108be576108be856000868686866134da565b620186a0811115611ed3576040517f3affc6c40000000000000000000000000000000000000000000000000000000081526004810182905260240161095f565b81546bffffffffffffffffffffffff909116740100000000000000000000000000000000000000000273ffffffffffffffffffffffffffffffffffffffff909116179055565b6040805173ffffffffffffffffffffffffffffffffffffffff8416602482015260448082018490528251808303909101815260649091019091526020810180517bffffffffffffffffffffffffffffffffffffffffffffffffffffffff167fa9059cbb00000000000000000000000000000000000000000000000000000000179052610742908490613536565b82611fb2828483614419565b507f04b1dc5c136a3ce9fded8db0ce3d3366c58764ec3a8e4c2b9e52e4ddfe5ebbf78282604051611fe4929190613ce0565b60405180910390a1505050565b8281811461205b576040517f08c379a000000000000000000000000000000000000000000000000000000000815260206004820152601c60248201527f455243313135353a20696e636f6e73697374656e742061727261797300000000604482015260640161095f565b612066888789612f81565b6120cc576040517f08c379a000000000000000000000000000000000000000000000000000000000815260206004820152601c60248201527f455243313135353a206e6f6e2d617070726f7665642073656e64657200000000604482015260640161095f565b60005b81811461211a5761211289888888858181106120ed576120ed6140dd565b90506020020135878786818110612106576121066140dd565b90506020020135612ff6565b6001016120cf565b50600073ffffffffffffffffffffffffffffffffffffffff168673ffffffffffffffffffffffffffffffffffffffff168873ffffffffffffffffffffffffffffffffffffffff167f4a39dc06d4c0dbc64b70af90fd698a233a518aa5d07e595d983b8c0526c8f7fb88888888604051612196949392919061437d565b60405180910390a45050505050505050565b6121b38382846111d1565b60008181526020848152604080832073ffffffffffffffffffffffffffffffffffffffff86168085529083529281902080547fffffffffffffffffffffffffffffffffffffffffffffffffffffffffffffff0016905580518481529182018390528101919091527ff6391f5c32d9c69d2a47ea670b442974b53935d1edc7fd64eb21e047a839171b90606001611fe4565b73ffffffffffffffffffffffffffffffffffffffff81166115a3576040517f6fe1b4c800000000000000000000000000000000000000000000000000000000815260040160405180910390fd5b610a208282613096565b8273ffffffffffffffffffffffffffffffffffffffff168273ffffffffffffffffffffffffffffffffffffffff1603612330576040517f08c379a000000000000000000000000000000000000000000000000000000000815260206004820152601e60248201527f455243313135353a2073656c662d617070726f76616c20666f7220616c6c0000604482015260640161095f565b73ffffffffffffffffffffffffffffffffffffffff838116600081815260018701602090815260408083209487168084529482529182902080547fffffffffffffffffffffffffffffffffffffffffffffffffffffffffffffff001686151590811790915591519182527f17307eab39ab6107e8899845ad3d59bd9653f200f220920489ca2b5937696c31910160405180910390a350505050565b60008381526020858152604080832073ffffffffffffffffffffffffffffffffffffffff8616845290915290205460ff1615611ba05760008381526020858152604080832073ffffffffffffffffffffffffffffffffffffffff8681168086529184529382902080547fffffffffffffffffffffffffffffffffffffffffffffffffffffffffffffff00169055815187815292830152918316918101919091527ff6391f5c32d9c69d2a47ea670b442974b53935d1edc7fd64eb21e047a839171b90606001611b97565b83518351811480156124a75750825181145b61250d576040517f08c379a000000000000000000000000000000000000000000000000000000000815260206004820152601c60248201527f455243313135353a20696e636f6e73697374656e742061727261797300000000604482015260640161095f565b60005b81811461069a5761257d8787838151811061252d5761252d6140dd565b6020026020010151878481518110612547576125476140dd565b6020026020010151878581518110612561576125616140dd565b6020026020010151878d611d859095949392919063ffffffff16565b600101612510565b73ffffffffffffffffffffffffffffffffffffffff8516612602576040517f08c379a000000000000000000000000000000000000000000000000000000000815260206004820152601f60248201527f455243313135353a207472616e7366657220746f206164647265737328302900604482015260640161095f565b61260d888789612f81565b612673576040517f08c379a000000000000000000000000000000000000000000000000000000000815260206004820152601c60248201527f455243313135353a206e6f6e2d617070726f7665642073656e64657200000000604482015260640161095f565b61268088878787876131bd565b8473ffffffffffffffffffffffffffffffffffffffff168673ffffffffffffffffffffffffffffffffffffffff168873ffffffffffffffffffffffffffffffffffffffff167fc3d58168c5ae7397731d063d5bbf3d657854427343f4c083240f7aacaa2d0f6287876040516126ff929190918252602082015260400190565b60405180910390a473ffffffffffffffffffffffffffffffffffffffff85163b1561069a5761069a878787878787878080601f0160208091040260200160405190810160405280939291908181526020018383808284376000920191909152506134da92505050565b825473ffffffffffffffffffffffffffffffffffffffff90811690831681146127ed576040517f08c379a000000000000000000000000000000000000000000000000000000000815260206004820152601860248201527f4f776e6572736869703a206e6f7420746865206f776e65720000000000000000604482015260640161095f565b8173ffffffffffffffffffffffffffffffffffffffff168173ffffffffffffffffffffffffffffffffffffffff1614611ba05783547fffffffffffffffffffffffff00000000000000000000000000000000000000001673ffffffffffffffffffffffffffffffffffffffff8381169182178655604051908316907f8be0079c531659141344cd1fd0a4f28419497f9722a3daafe3b4186f6b6457e090600090a350505050565b804710156128fe576040517f08c379a000000000000000000000000000000000000000000000000000000000815260206004820152601d60248201527f416464726573733a20696e73756666696369656e742062616c616e6365000000604482015260640161095f565b60008273ffffffffffffffffffffffffffffffffffffffff168260405160006040518083038185875af1925050503d8060008114612958576040519150601f19603f3d011682016040523d82523d6000602084013e61295d565b606091505b5050905080610742576040517f08c379a000000000000000000000000000000000000000000000000000000000815260206004820152603a60248201527f416464726573733a20756e61626c6520746f2073656e642076616c75652c207260448201527f6563697069656e74206d61792068617665207265766572746564000000000000606482015260840161095f565b6000333214806129fe5750601836105b15612a0857503390565b7fffffffffffffffffffffffffffffffffffffffffffffffffffffffffffffffec36013560601c7f000000000000000000000000000000000000000000000000000000000000000073ffffffffffffffffffffffffffffffffffffffff16331480612b2457506040517f8929a8ca00000000000000000000000000000000000000000000000000000000815273ffffffffffffffffffffffffffffffffffffffff82811660048301523360248301527f00000000000000000000000000000000000000000000000000000000000000001690638929a8ca90604401602060405180830381865afa158015612b00573d6000803e3d6000fd5b505050506040513d601f19601f82011682018060405250810190612b249190614533565b15612b2e57919050565b3391505090565b60606000829003612b5457505060408051602081019091526000815290565b600082604051602001612b6991815260200190565b604080517fffffffffffffffffffffffffffffffffffffffffffffffffffffffffffffffe08184030181529190529050601f5b818181518110612bae57612bae6140dd565b01602001517fff0000000000000000000000000000000000000000000000000000000000000016600003612c03577fffffffffffffffffffffffffffffffffffffffffffffffffffffffffffffffff01612b9c565b60008160010167ffffffffffffffff811115612c2157612c216143a4565b6040519080825280601f01601f191660200182016040528015612c4b576020820181803683370190505b50905060005b828111612cbe57838181518110612c6a57612c6a6140dd565b602001015160f81c60f81b828281518110612c8757612c876140dd565b60200101907effffffffffffffffffffffffffffffffffffffffffffffffffffffffffffff1916908160001a905350600101612c51565b50949350505050565b8015611ba05760008281526020858152604080832073ffffffffffffffffffffffffffffffffffffffff87168452909152902054818101818111612d67576040517f08c379a000000000000000000000000000000000000000000000000000000000815260206004820152601960248201527f455243313135353a2062616c616e6365206f766572666c6f7700000000000000604482015260640161095f565b60009384526020958652604080852073ffffffffffffffffffffffffffffffffffffffff9690961685529490955250502055565b6040517fbc197c81000000000000000000000000000000000000000000000000000000008082529073ffffffffffffffffffffffffffffffffffffffff86169063bc197c8190612df7908a908a90899089908990600401614550565b6020604051808303816000875af1158015612e16573d6000803e3d6000fd5b505050506040513d601f19601f82011682018060405250810190612e3a91906145bb565b7fffffffff0000000000000000000000000000000000000000000000000000000016146108be576040517f08c379a000000000000000000000000000000000000000000000000000000000815260206004820152601a60248201527f455243313135353a207472616e736665722072656a6563746564000000000000604482015260640161095f565b60606000612ed083613642565b600101905060008167ffffffffffffffff811115612ef057612ef06143a4565b6040519080825280601f01601f191660200182016040528015612f1a576020820181803683370190505b5090508181016020015b7fffffffffffffffffffffffffffffffffffffffffffffffffffffffffffffffff017f3031323334353637383961626364656600000000000000000000000000000000600a86061a8153600a8504945084612f2457509392505050565b60008173ffffffffffffffffffffffffffffffffffffffff168373ffffffffffffffffffffffffffffffffffffffff16148061081557505073ffffffffffffffffffffffffffffffffffffffff9182166000908152600193909301602090815260408085209290931684525290205460ff1690565b8015611ba05760008281526020858152604080832073ffffffffffffffffffffffffffffffffffffffff87168452909152902054818103818110612d67576040517f08c379a000000000000000000000000000000000000000000000000000000000815260206004820152601d60248201527f455243313135353a20696e73756666696369656e742062616c616e6365000000604482015260640161095f565b815473ffffffffffffffffffffffffffffffffffffffff1680158015906130d4575060008173ffffffffffffffffffffffffffffffffffffffff163b115b15610742576040517fc617113400000000000000000000000000000000000000000000000000000000815230600482015273ffffffffffffffffffffffffffffffffffffffff838116602483015282169063c617113490604401602060405180830381865afa15801561314b573d6000803e3d6000fd5b505050506040513d601f19601f8201168201806040525081019061316f9190614533565b610742576040517fede71dcc00000000000000000000000000000000000000000000000000000000815273ffffffffffffffffffffffffffffffffffffffff8316600482015260240161095f565b8015610a475760008281526020868152604080832073ffffffffffffffffffffffffffffffffffffffff8816845290915290205481810381811061325d576040517f08c379a000000000000000000000000000000000000000000000000000000000815260206004820152601d60248201527f455243313135353a20696e73756666696369656e742062616c616e6365000000604482015260640161095f565b8473ffffffffffffffffffffffffffffffffffffffff168673ffffffffffffffffffffffffffffffffffffffff1614610ea55760008481526020888152604080832073ffffffffffffffffffffffffffffffffffffffff8916845290915290205483810181811161332a576040517f08c379a000000000000000000000000000000000000000000000000000000000815260206004820152601960248201527f455243313135353a2062616c616e6365206f766572666c6f7700000000000000604482015260640161095f565b600086815260208a8152604080832073ffffffffffffffffffffffffffffffffffffffff808d1685528184528285208890558b1684529091529020555050505050505050565b366000333214806133815750601836105b1561338f5750600091369150565b3373ffffffffffffffffffffffffffffffffffffffff7f00000000000000000000000000000000000000000000000000000000000000001614806134c4575073ffffffffffffffffffffffffffffffffffffffff7f000000000000000000000000000000000000000000000000000000000000000016638929a8ca367fffffffffffffffffffffffffffffffffffffffffffffffffffffffffffffffec013560601c6040517fffffffff0000000000000000000000000000000000000000000000000000000060e084901b16815273ffffffffffffffffffffffffffffffffffffffff9091166004820152336024820152604401602060405180830381865afa1580156134a0573d6000803e3d6000fd5b505050506040513d601f19601f820116820180604052508101906134c49190614533565b156134d1576107f0613724565b50600091369150565b6040517ff23a6e61000000000000000000000000000000000000000000000000000000008082529073ffffffffffffffffffffffffffffffffffffffff86169063f23a6e6190612df7908a908a908990899089906004016145d8565b6000613598826040518060400160405280602081526020017f5361666545524332303a206c6f772d6c6576656c2063616c6c206661696c65648152508573ffffffffffffffffffffffffffffffffffffffff166137559092919063ffffffff16565b80519091501561074257808060200190518101906135b69190614533565b610742576040517f08c379a000000000000000000000000000000000000000000000000000000000815260206004820152602a60248201527f5361666545524332303a204552433230206f7065726174696f6e20646964206e60448201527f6f74207375636365656400000000000000000000000000000000000000000000606482015260840161095f565b6000807a184f03e93ff9f4daa797ed6e38ed64bf6a1f010000000000000000831061368b577a184f03e93ff9f4daa797ed6e38ed64bf6a1f010000000000000000830492506040015b6d04ee2d6d415b85acef810000000083106136b7576d04ee2d6d415b85acef8100000000830492506020015b662386f26fc1000083106136d557662386f26fc10000830492506010015b6305f5e10083106136ed576305f5e100830492506008015b612710831061370157612710830492506004015b60648310613713576064830492506002015b600a831061058f5760010192915050565b3660006107f07fffffffffffffffffffffffffffffffffffffffffffffffffffffffffffffffec830182848161461d565b60606108158484600085856000808673ffffffffffffffffffffffffffffffffffffffff1685876040516137899190614647565b60006040518083038185875af1925050503d80600081146137c6576040519150601f19603f3d011682016040523d82523d6000602084013e6137cb565b606091505b50915091506137dc878383876137e7565b979650505050505050565b6060831561387d5782516000036138765773ffffffffffffffffffffffffffffffffffffffff85163b613876576040517f08c379a000000000000000000000000000000000000000000000000000000000815260206004820152601d60248201527f416464726573733a2063616c6c20746f206e6f6e2d636f6e7472616374000000604482015260640161095f565b5081610815565b61081583838151156138925781518083602001fd5b806040517f08c379a000000000000000000000000000000000000000000000000000000000815260040161095f9190613b21565b73ffffffffffffffffffffffffffffffffffffffff8116811461072057600080fd5b600080604083850312156138fb57600080fd5b8235613906816138c6565b946020939093013593505050565b7fffffffff000000000000000000000000000000000000000000000000000000008116811461072057600080fd5b60006020828403121561395457600080fd5b813561395f81613914565b9392505050565b60008083601f84011261397857600080fd5b50813567ffffffffffffffff81111561399057600080fd5b6020830191508360208260051b850101111561076357600080fd5b60008083601f8401126139bd57600080fd5b50813567ffffffffffffffff8111156139d557600080fd5b60208301915083602082850101111561076357600080fd5b60008060008060008060006080888a031215613a0857600080fd5b8735613a13816138c6565b9650602088013567ffffffffffffffff80821115613a3057600080fd5b613a3c8b838c01613966565b909850965060408a0135915080821115613a5557600080fd5b613a618b838c01613966565b909650945060608a0135915080821115613a7a57600080fd5b50613a878a828b016139ab565b989b979a50959850939692959293505050565b600060208284031215613aac57600080fd5b5035919050565b60005b83811015613ace578181015183820152602001613ab6565b50506000910152565b60008151808452613aef816020860160208601613ab3565b601f017fffffffffffffffffffffffffffffffffffffffffffffffffffffffffffffffe0169290920160200192915050565b60208152600061058c6020830184613ad7565b600060208284031215613b4657600080fd5b813561395f816138c6565b600080600060608486031215613b6657600080fd5b8335613b71816138c6565b95602085013595506040909401359392505050565b60008060408385031215613b9957600080fd5b50508035926020909101359150565b60008060008060008060008060a0898b031215613bc457600080fd5b8835613bcf816138c6565b97506020890135613bdf816138c6565b9650604089013567ffffffffffffffff80821115613bfc57600080fd5b613c088c838d01613966565b909850965060608b0135915080821115613c2157600080fd5b613c2d8c838d01613966565b909650945060808b0135915080821115613c4657600080fd5b50613c538b828c016139ab565b999c989b5096995094979396929594505050565b60008060408385031215613c7a57600080fd5b823591506020830135613c8c816138c6565b809150509250929050565b8183528181602085013750600060208284010152600060207fffffffffffffffffffffffffffffffffffffffffffffffffffffffffffffffe0601f840116840101905092915050565b602081526000610815602083018486613c97565b60008060008060408587031215613d0a57600080fd5b843567ffffffffffffffff80821115613d2257600080fd5b613d2e88838901613966565b90965094506020870135915080821115613d4757600080fd5b50613d5487828801613966565b95989497509550505050565b600081518084526020808501945080840160005b83811015613d9057815187529582019590820190600101613d74565b509495945050505050565b60208152600061058c6020830184613d60565b600080600080600060808688031215613dc657600080fd5b8535613dd1816138c6565b94506020860135935060408601359250606086013567ffffffffffffffff811115613dfb57600080fd5b613e07888289016139ab565b969995985093965092949392505050565b60008060008060008060608789031215613e3157600080fd5b863567ffffffffffffffff80821115613e4957600080fd5b613e558a838b01613966565b90985096506020890135915080821115613e6e57600080fd5b613e7a8a838b01613966565b90965094506040890135915080821115613e9357600080fd5b50613ea089828a01613966565b979a9699509497509295939492505050565b60008060208385031215613ec557600080fd5b823567ffffffffffffffff811115613edc57600080fd5b613ee8858286016139ab565b90969095509350505050565b600080600080600060608688031215613f0c57600080fd5b8535613f17816138c6565b9450602086013567ffffffffffffffff80821115613f3457600080fd5b613f4089838a01613966565b90965094506040880135915080821115613f5957600080fd5b50613e0788828901613966565b801515811461072057600080fd5b60008060408385031215613f8757600080fd5b8235613f92816138c6565b91506020830135613c8c81613f66565b6000806000806000806000806080898b031215613fbe57600080fd5b883567ffffffffffffffff80821115613fd657600080fd5b613fe28c838d01613966565b909a50985060208b0135915080821115613ffb57600080fd5b6140078c838d01613966565b909850965060408b013591508082111561402057600080fd5b61402c8c838d01613966565b909650945060608b0135915080821115613c4657600080fd5b6000806040838503121561405857600080fd5b8235614063816138c6565b91506020830135613c8c816138c6565b60008060008060008060a0878903121561408c57600080fd5b8635614097816138c6565b955060208701356140a7816138c6565b94506040870135935060608701359250608087013567ffffffffffffffff8111156140d157600080fd5b613ea089828a016139ab565b7f4e487b7100000000000000000000000000000000000000000000000000000000600052603260045260246000fd5b7f4e487b7100000000000000000000000000000000000000000000000000000000600052601160045260246000fd5b8181038181111561058f5761058f61410c565b7f416363657373436f6e74726f6c3a206d697373696e6720270000000000000000815260008251614186816018850160208701613ab3565b7f2720726f6c6500000000000000000000000000000000000000000000000000006018939091019283015250601e01919050565b6040815260006141cd6040830185613d60565b82810360208401526141df8185613d60565b95945050505050565b600181811c908216806141fc57607f821691505b602082108103614235577f4e487b7100000000000000000000000000000000000000000000000000000000600052602260045260246000fd5b50919050565b6000808454614249816141e8565b600182811680156142615760018114614294576142c3565b7fffffffffffffffffffffffffffffffffffffffffffffffffffffffffffffff00841687528215158302870194506142c3565b8860005260208060002060005b858110156142ba5781548a8201529084019082016142a1565b50505082870194505b5050505083516142d7818360208801613ab3565b01949350505050565b808202811582820484141761058f5761058f61410c565b60008261432d577f4e487b7100000000000000000000000000000000000000000000000000000000600052601260045260246000fd5b500490565b81835260007f07ffffffffffffffffffffffffffffffffffffffffffffffffffffffffffffff83111561436457600080fd5b8260051b80836020870137939093016020019392505050565b604081526000614391604083018688614332565b82810360208401526137dc818587614332565b7f4e487b7100000000000000000000000000000000000000000000000000000000600052604160045260246000fd5b601f82111561074257600081815260208120601f850160051c810160208610156143fa5750805b601f850160051c820191505b818110156108be57828155600101614406565b67ffffffffffffffff831115614431576144316143a4565b6144458361443f83546141e8565b836143d3565b6000601f84116001811461449757600085156144615750838201355b7fffffffffffffffffffffffffffffffffffffffffffffffffffffffffffffffff600387901b1c1916600186901b178355610a47565b6000838152602090207fffffffffffffffffffffffffffffffffffffffffffffffffffffffffffffffe0861690835b828110156144e657868501358255602094850194600190920191016144c6565b5086821015614521577fffffffffffffffffffffffffffffffffffffffffffffffffffffffffffffffff60f88860031b161c19848701351681555b505060018560011b0183555050505050565b60006020828403121561454557600080fd5b815161395f81613f66565b600073ffffffffffffffffffffffffffffffffffffffff808816835280871660208401525060a0604083015261458960a0830186613d60565b828103606084015261459b8186613d60565b905082810360808401526145af8185613ad7565b98975050505050505050565b6000602082840312156145cd57600080fd5b815161395f81613914565b600073ffffffffffffffffffffffffffffffffffffffff808816835280871660208401525084604083015283606083015260a060808301526137dc60a0830184613ad7565b6000808585111561462d57600080fd5b8386111561463a57600080fd5b5050820193919092039150565b60008251614659818460208701613ab3565b919091019291505056fea26469706673582212204527643aab131bc7da2ad17ae811f344eaa14889411d92c6953a71b67cd3e96e64736f6c63430008130033",
  "linkReferences": {},
  "deployedLinkReferences": {}
}