{
  "_format": "hh-sol-artifact-1",
  "contractName": "REVVMotorsportVouchersMock",
  "sourceName": "contracts/mocks/token/ERC1155/REVVMotorsportVouchersMock.sol",
  "abi": [
    {
      "inputs": [
        {
          "internalType": "contract IForwarderRegistry",
          "name": "forwarderRegistry",
          "type": "address"
        }
      ],
      "stateMutability": "nonpayable",
      "type": "constructor"
    },
    {
      "anonymous": false,
      "inputs": [
        {
          "indexed": true,
          "internalType": "address",
          "name": "owner",
          "type": "address"
        },
        {
          "indexed": true,
          "internalType": "address",
          "name": "operator",
          "type": "address"
        },
        {
          "indexed": false,
          "internalType": "bool",
          "name": "approved",
          "type": "bool"
        }
      ],
      "name": "ApprovalForAll",
      "type": "event"
    },
    {
      "anonymous": false,
      "inputs": [
        {
          "indexed": false,
          "internalType": "string",
          "name": "baseMetadataURI",
          "type": "string"
        }
      ],
      "name": "BaseMetadataURISet",
      "type": "event"
    },
    {
      "anonymous": false,
      "inputs": [
        {
          "indexed": true,
          "internalType": "address",
          "name": "previousOwner",
          "type": "address"
        },
        {
          "indexed": true,
          "internalType": "address",
          "name": "newOwner",
          "type": "address"
        }
      ],
      "name": "OwnershipTransferred",
      "type": "event"
    },
    {
      "anonymous": false,
      "inputs": [
        {
          "indexed": false,
          "internalType": "bytes32",
          "name": "role",
          "type": "bytes32"
        },
        {
          "indexed": false,
          "internalType": "address",
          "name": "account",
          "type": "address"
        },
        {
          "indexed": false,
          "internalType": "address",
          "name": "operator",
          "type": "address"
        }
      ],
      "name": "RoleGranted",
      "type": "event"
    },
    {
      "anonymous": false,
      "inputs": [
        {
          "indexed": false,
          "internalType": "bytes32",
          "name": "role",
          "type": "bytes32"
        },
        {
          "indexed": false,
          "internalType": "address",
          "name": "account",
          "type": "address"
        },
        {
          "indexed": false,
          "internalType": "address",
          "name": "operator",
          "type": "address"
        }
      ],
      "name": "RoleRevoked",
      "type": "event"
    },
    {
      "anonymous": false,
      "inputs": [
        {
          "indexed": true,
          "internalType": "address",
          "name": "operator",
          "type": "address"
        },
        {
          "indexed": true,
          "internalType": "address",
          "name": "from",
          "type": "address"
        },
        {
          "indexed": true,
          "internalType": "address",
          "name": "to",
          "type": "address"
        },
        {
          "indexed": false,
          "internalType": "uint256[]",
          "name": "ids",
          "type": "uint256[]"
        },
        {
          "indexed": false,
          "internalType": "uint256[]",
          "name": "values",
          "type": "uint256[]"
        }
      ],
      "name": "TransferBatch",
      "type": "event"
    },
    {
      "anonymous": false,
      "inputs": [
        {
          "indexed": true,
          "internalType": "address",
          "name": "operator",
          "type": "address"
        },
        {
          "indexed": true,
          "internalType": "address",
          "name": "from",
          "type": "address"
        },
        {
          "indexed": true,
          "internalType": "address",
          "name": "to",
          "type": "address"
        },
        {
          "indexed": false,
          "internalType": "uint256",
          "name": "id",
          "type": "uint256"
        },
        {
          "indexed": false,
          "internalType": "uint256",
          "name": "value",
          "type": "uint256"
        }
      ],
      "name": "TransferSingle",
      "type": "event"
    },
    {
      "anonymous": false,
      "inputs": [
        {
          "indexed": false,
          "internalType": "string",
          "name": "value",
          "type": "string"
        },
        {
          "indexed": true,
          "internalType": "uint256",
          "name": "id",
          "type": "uint256"
        }
      ],
      "name": "URI",
      "type": "event"
    },
    {
      "inputs": [],
      "name": "MINTER_ROLE",
      "outputs": [
        {
          "internalType": "bytes32",
          "name": "",
          "type": "bytes32"
        }
      ],
      "stateMutability": "view",
      "type": "function"
    },
    {
      "inputs": [],
      "name": "__msgData",
      "outputs": [
        {
          "internalType": "bytes",
          "name": "",
          "type": "bytes"
        }
      ],
      "stateMutability": "view",
      "type": "function"
    },
    {
      "inputs": [
        {
          "internalType": "address",
          "name": "owner",
          "type": "address"
        },
        {
          "internalType": "uint256",
          "name": "id",
          "type": "uint256"
        }
      ],
      "name": "balanceOf",
      "outputs": [
        {
          "internalType": "uint256",
          "name": "balance",
          "type": "uint256"
        }
      ],
      "stateMutability": "view",
      "type": "function"
    },
    {
      "inputs": [
        {
          "internalType": "address[]",
          "name": "owners",
          "type": "address[]"
        },
        {
          "internalType": "uint256[]",
          "name": "ids",
          "type": "uint256[]"
        }
      ],
      "name": "balanceOfBatch",
      "outputs": [
        {
          "internalType": "uint256[]",
          "name": "balances",
          "type": "uint256[]"
        }
      ],
      "stateMutability": "view",
      "type": "function"
    },
    {
      "inputs": [],
      "name": "baseMetadataURI",
      "outputs": [
        {
          "internalType": "string",
          "name": "baseURI",
          "type": "string"
        }
      ],
      "stateMutability": "view",
      "type": "function"
    },
    {
      "inputs": [
        {
          "internalType": "address",
          "name": "from",
          "type": "address"
        },
        {
          "internalType": "uint256[]",
          "name": "ids",
          "type": "uint256[]"
        },
        {
          "internalType": "uint256[]",
          "name": "values",
          "type": "uint256[]"
        }
      ],
      "name": "batchBurnFrom",
      "outputs": [],
      "stateMutability": "nonpayable",
      "type": "function"
    },
    {
      "inputs": [
        {
          "internalType": "address",
          "name": "from",
          "type": "address"
        },
        {
          "internalType": "uint256",
          "name": "id",
          "type": "uint256"
        },
        {
          "internalType": "uint256",
          "name": "value",
          "type": "uint256"
        }
      ],
      "name": "burnFrom",
      "outputs": [],
      "stateMutability": "nonpayable",
      "type": "function"
    },
    {
      "inputs": [],
      "name": "forwarderRegistry",
      "outputs": [
        {
          "internalType": "contract IForwarderRegistry",
          "name": "",
          "type": "address"
        }
      ],
      "stateMutability": "view",
      "type": "function"
    },
    {
      "inputs": [
        {
          "internalType": "bytes32",
          "name": "role",
          "type": "bytes32"
        },
        {
          "internalType": "address",
          "name": "account",
          "type": "address"
        }
      ],
      "name": "grantRole",
      "outputs": [],
      "stateMutability": "nonpayable",
      "type": "function"
    },
    {
      "inputs": [
        {
          "internalType": "bytes32",
          "name": "role",
          "type": "bytes32"
        },
        {
          "internalType": "address",
          "name": "account",
          "type": "address"
        }
      ],
      "name": "hasRole",
      "outputs": [
        {
          "internalType": "bool",
          "name": "",
          "type": "bool"
        }
      ],
      "stateMutability": "view",
      "type": "function"
    },
    {
      "inputs": [
        {
          "internalType": "address",
          "name": "owner",
          "type": "address"
        },
        {
          "internalType": "address",
          "name": "operator",
          "type": "address"
        }
      ],
      "name": "isApprovedForAll",
      "outputs": [
        {
          "internalType": "bool",
          "name": "approvedForAll",
          "type": "bool"
        }
      ],
      "stateMutability": "view",
      "type": "function"
    },
    {
      "inputs": [
        {
          "internalType": "address",
          "name": "forwarder",
          "type": "address"
        }
      ],
      "name": "isTrustedForwarder",
      "outputs": [
        {
          "internalType": "bool",
          "name": "",
          "type": "bool"
        }
      ],
      "stateMutability": "view",
      "type": "function"
    },
    {
      "inputs": [],
      "name": "owner",
      "outputs": [
        {
          "internalType": "address",
          "name": "",
          "type": "address"
        }
      ],
      "stateMutability": "view",
      "type": "function"
    },
    {
      "inputs": [
        {
          "internalType": "address[]",
          "name": "accounts",
          "type": "address[]"
        },
        {
          "internalType": "contract IERC20[]",
          "name": "tokens",
          "type": "address[]"
        },
        {
          "internalType": "uint256[]",
          "name": "amounts",
          "type": "uint256[]"
        }
      ],
      "name": "recoverERC20s",
      "outputs": [],
      "stateMutability": "nonpayable",
      "type": "function"
    },
    {
      "inputs": [
        {
          "internalType": "address[]",
          "name": "accounts",
          "type": "address[]"
        },
        {
          "internalType": "contract IERC721[]",
          "name": "contracts",
          "type": "address[]"
        },
        {
          "internalType": "uint256[]",
          "name": "tokenIds",
          "type": "uint256[]"
        }
      ],
      "name": "recoverERC721s",
      "outputs": [],
      "stateMutability": "nonpayable",
      "type": "function"
    },
    {
      "inputs": [
        {
          "internalType": "address payable[]",
          "name": "accounts",
          "type": "address[]"
        },
        {
          "internalType": "uint256[]",
          "name": "amounts",
          "type": "uint256[]"
        }
      ],
      "name": "recoverETH",
      "outputs": [],
      "stateMutability": "nonpayable",
      "type": "function"
    },
    {
      "inputs": [
        {
          "internalType": "bytes32",
          "name": "role",
          "type": "bytes32"
        }
      ],
      "name": "renounceRole",
      "outputs": [],
      "stateMutability": "nonpayable",
      "type": "function"
    },
    {
      "inputs": [
        {
          "internalType": "bytes32",
          "name": "role",
          "type": "bytes32"
        },
        {
          "internalType": "address",
          "name": "account",
          "type": "address"
        }
      ],
      "name": "revokeRole",
      "outputs": [],
      "stateMutability": "nonpayable",
      "type": "function"
    },
    {
      "inputs": [
        {
          "internalType": "address",
          "name": "to",
          "type": "address"
        },
        {
          "internalType": "uint256[]",
          "name": "ids",
          "type": "uint256[]"
        },
        {
          "internalType": "uint256[]",
          "name": "values",
          "type": "uint256[]"
        },
        {
          "internalType": "bytes",
          "name": "data",
          "type": "bytes"
        }
      ],
      "name": "safeBatchMint",
      "outputs": [],
      "stateMutability": "nonpayable",
      "type": "function"
    },
    {
      "inputs": [
        {
          "internalType": "address",
          "name": "from",
          "type": "address"
        },
        {
          "internalType": "address",
          "name": "to",
          "type": "address"
        },
        {
          "internalType": "uint256[]",
          "name": "ids",
          "type": "uint256[]"
        },
        {
          "internalType": "uint256[]",
          "name": "values",
          "type": "uint256[]"
        },
        {
          "internalType": "bytes",
          "name": "data",
          "type": "bytes"
        }
      ],
      "name": "safeBatchTransferFrom",
      "outputs": [],
      "stateMutability": "nonpayable",
      "type": "function"
    },
    {
      "inputs": [
        {
          "internalType": "address[]",
          "name": "recipients",
          "type": "address[]"
        },
        {
          "internalType": "uint256[]",
          "name": "ids",
          "type": "uint256[]"
        },
        {
          "internalType": "uint256[]",
          "name": "values",
          "type": "uint256[]"
        },
        {
          "internalType": "bytes",
          "name": "data",
          "type": "bytes"
        }
      ],
      "name": "safeDeliver",
      "outputs": [],
      "stateMutability": "nonpayable",
      "type": "function"
    },
    {
      "inputs": [
        {
          "internalType": "address",
          "name": "to",
          "type": "address"
        },
        {
          "internalType": "uint256",
          "name": "id",
          "type": "uint256"
        },
        {
          "internalType": "uint256",
          "name": "value",
          "type": "uint256"
        },
        {
          "internalType": "bytes",
          "name": "data",
          "type": "bytes"
        }
      ],
      "name": "safeMint",
      "outputs": [],
      "stateMutability": "nonpayable",
      "type": "function"
    },
    {
      "inputs": [
        {
          "internalType": "address",
          "name": "from",
          "type": "address"
        },
        {
          "internalType": "address",
          "name": "to",
          "type": "address"
        },
        {
          "internalType": "uint256",
          "name": "id",
          "type": "uint256"
        },
        {
          "internalType": "uint256",
          "name": "value",
          "type": "uint256"
        },
        {
          "internalType": "bytes",
          "name": "data",
          "type": "bytes"
        }
      ],
      "name": "safeTransferFrom",
      "outputs": [],
      "stateMutability": "nonpayable",
      "type": "function"
    },
    {
      "inputs": [
        {
          "internalType": "address",
          "name": "operator",
          "type": "address"
        },
        {
          "internalType": "bool",
          "name": "approved",
          "type": "bool"
        }
      ],
      "name": "setApprovalForAll",
      "outputs": [],
      "stateMutability": "nonpayable",
      "type": "function"
    },
    {
      "inputs": [
        {
          "internalType": "string",
          "name": "baseURI",
          "type": "string"
        }
      ],
      "name": "setBaseMetadataURI",
      "outputs": [],
      "stateMutability": "nonpayable",
      "type": "function"
    },
    {
      "inputs": [
        {
          "internalType": "bytes4",
          "name": "interfaceId",
          "type": "bytes4"
        }
      ],
      "name": "supportsInterface",
      "outputs": [
        {
          "internalType": "bool",
          "name": "",
          "type": "bool"
        }
      ],
      "stateMutability": "view",
      "type": "function"
    },
    {
      "inputs": [
        {
          "internalType": "address",
          "name": "newOwner",
          "type": "address"
        }
      ],
      "name": "transferOwnership",
      "outputs": [],
      "stateMutability": "nonpayable",
      "type": "function"
    },
    {
      "inputs": [
        {
          "internalType": "uint256",
          "name": "id",
          "type": "uint256"
        }
      ],
      "name": "uri",
      "outputs": [
        {
          "internalType": "string",
          "name": "metadataURI",
          "type": "string"
        }
      ],
      "stateMutability": "view",
      "type": "function"
    }
  ],
  "bytecode": "0x60a06040523480156200001157600080fd5b506040516200470838038062004708833981016040819052620000349162000320565b808080336200004d620000e660201b62000db31760201c565b6200007b81620000676200012060201b62000dea1760201c565b6200015660201b62000e181790919060201c565b5062000091620001d460201b62000ece1760201c565b620000a6620001f760201b62000efc1760201c565b620000bb6200021a60201b62000f2a1760201c565b620000d06200023d60201b62000f581760201c565b6001600160a01b03166080525062000374915050565b6200011e636cdb3d1360e11b6001620001096200026060201b62000f821760201c565b6200029060201b62000fb0179092919060201c565b565b6000806200015060017fc9ed16f33ab3a66c84bfd83099ccb2a8845871e2e1c1928f63797152f0fd54cd62000352565b92915050565b6001600160a01b03811615620001ad5781546001600160a01b0319166001600160a01b03821690811783556040516000907f8be0079c531659141344cd1fd0a4f28419497f9722a3daafe3b4186f6b6457e0908290a35b620001d06307f5828d60e41b6001620001096200026060201b62000f821760201c565b5050565b6200011e631464324b60e21b6001620001096200026060201b62000f821760201c565b6200011e633a2ae73360e21b6001620001096200026060201b62000f821760201c565b6200011e6303a24d0760e21b6001620001096200026060201b62000f821760201c565b6200011e63921ed8d160e01b6001620001096200026060201b62000f821760201c565b6000806200015060017fca9d3e17f264b0f3984e2634e94adb37fa3e6a8103f06aeae6fa59e21c769f5e62000352565b600160e01b6001600160e01b0319831601620002f25760405162461bcd60e51b815260206004820152601f60248201527f496e74657266616365446574656374696f6e3a2077726f6e672076616c756500604482015260640160405180910390fd5b6001600160e01b03199190911660009081526020929092526040909120805460ff1916911515919091179055565b6000602082840312156200033357600080fd5b81516001600160a01b03811681146200034b57600080fd5b9392505050565b818103818111156200015057634e487b7160e01b600052601160045260246000fd5b608051614355620003b36000396000818161025b0152818161030c0152818161288901528181612911015281816130d8015261311601526143556000f3fe608060405234801561001057600080fd5b50600436106101c35760003560e01c80637e518ec8116100f9578063d539139311610097578063e985e9c511610071578063e985e9c51461043e578063f242432a14610451578063f2fde38b14610464578063f7ba94bd1461047757600080fd5b8063d5391393146103f1578063d547741f14610418578063e8ab9ccc1461042b57600080fd5b80638da5cb5b116100d35780638da5cb5b146103b057806391d14854146103b8578063a22cb465146103cb578063c3666c36146103de57600080fd5b80637e518ec814610377578063805349341461038a5780638bb9c5bf1461039d57600080fd5b80632f2ff15d11610166578063572b6c0511610140578063572b6c05146102fc5780635b2bd79e146103495780635cfa92971461035157806373c8a9581461036457600080fd5b80632f2ff15d146102b357806331e66e1e146102c65780634e1273f4146102dc57600080fd5b80630e89341c116101a25780630e89341c14610226578063124d91e5146102465780632b4c9f16146102595780632eb2c2d6146102a057600080fd5b8062fdd58e146101c857806301ffc9a7146101ee5780630d6a5bbb14610211575b600080fd5b6101db6101d6366004613619565b61048a565b6040519081526020015b60405180910390f35b6102016101fc366004613673565b6104a9565b60405190151581526020016101e5565b61022461021f366004613725565b6104bd565b005b6102396102343660046137d2565b6105b8565b6040516101e59190613859565b61022461025436600461386c565b6105cc565b7f00000000000000000000000000000000000000000000000000000000000000005b60405173ffffffffffffffffffffffffffffffffffffffff90911681526020016101e5565b6102246102ae3660046138a1565b6105f0565b6102246102c1366004613960565b610619565b6102ce61064d565b6040516101e59291906139d9565b6102ef6102ea3660046139ed565b610660565b6040516101e59190613a94565b61020161030a366004613aa7565b7f000000000000000000000000000000000000000000000000000000000000000073ffffffffffffffffffffffffffffffffffffffff90811691161490565b610239610685565b61022461035f366004613ac4565b61069c565b610224610372366004613b2e565b61072e565b610224610385366004613bc8565b610854565b610224610398366004613c0a565b610877565b6102246103ab3660046137d2565b6108a1565b61027b6108bf565b6102016103c6366004613960565b6108e6565b6102246103d9366004613c8a565b61092a565b6102246103ec366004613b2e565b610947565b6101db7f6d696e746572000000000000000000000000000000000000000000000000000081565b610224610426366004613960565b610aec565b610224610439366004613cb8565b610b1a565b61020161044c366004613d5b565b610c3f565b61022461045f366004613d89565b610c8d565b610224610472366004613aa7565b610cb2565b6102246104853660046139ed565b610ccd565b60006104a083836104996110bc565b91906110ea565b90505b92915050565b60006104a3826104b7610f82565b9061119e565b60006104c7611278565b90506104fd7f6d696e7465720000000000000000000000000000000000000000000000000000826104f6611282565b91906112b0565b6105ae818989898080602002602001604051908101604052809392919081815260200183836020028082843760009201919091525050604080516020808d0282810182019093528c82529093508c92508b91829185019084908082843760009201919091525050604080516020601f8c018190048102820181019092528a815292508a91508990819084018382808284376000920191909152506105a492506110bc915050565b949392919061135c565b5050505050505050565b60606104a3826105c661154a565b90611578565b6105eb6105d7611278565b8484846105e26110bc565b939291906115ac565b505050565b6105ae6105fb611278565b898989898989898961060b6110bc565b989796959493929190611689565b6000610623611278565b905061063781610631610dea565b90611981565b6105eb838383610645611282565b929190611a04565b366000610658611adb565b915091509091565b606061067a858585856106716110bc565b93929190611ae6565b90505b949350505050565b606061069761069261154a565b611c24565b905090565b60006106a6611278565b90506106d57f6d696e7465720000000000000000000000000000000000000000000000000000826104f6611282565b6107268187878787878080601f01602080910402602001604051908101604052809392919081815260200183838082843760009201919091525061071c92506110bc915050565b9493929190611cba565b505050505050565b610741610739611278565b610631610dea565b84838114801561075057508082145b6107bb576040517f08c379a000000000000000000000000000000000000000000000000000000000815260206004820152601d60248201527f5265636f766572793a20696e636f6e73697374656e742061727261797300000060448201526064015b60405180910390fd5b60005b8181146105ae5761084c8888838181106107da576107da613df3565b90506020020160208101906107ef9190613aa7565b85858481811061080157610801613df3565b9050602002013588888581811061081a5761081a613df3565b905060200201602081019061082f9190613aa7565b73ffffffffffffffffffffffffffffffffffffffff169190611dc8565b6001016107be565b61085f610739611278565b610873828261086c61154a565b9190611e55565b5050565b61089a610882611278565b868686868661088f6110bc565b959493929190611ea0565b5050505050565b6108bc6108ac611278565b826108b5611282565b9190612057565b50565b60006106976108cc610dea565b5473ffffffffffffffffffffffffffffffffffffffff1690565b60006104a083836108f5611282565b60009283526020908152604080842073ffffffffffffffffffffffffffffffffffffffff909316845291905290205460ff1690565b610873610935611278565b838361093f6110bc565b9291906120f3565b610952610739611278565b84838114801561096157508082145b6109c7576040517f08c379a000000000000000000000000000000000000000000000000000000000815260206004820152601d60248201527f5265636f766572793a20696e636f6e73697374656e742061727261797300000060448201526064016107b2565b60005b8181146105ae578585828181106109e3576109e3613df3565b90506020020160208101906109f89190613aa7565b73ffffffffffffffffffffffffffffffffffffffff166323b872dd308a8a85818110610a2657610a26613df3565b9050602002016020810190610a3b9190613aa7565b878786818110610a4d57610a4d613df3565b6040517fffffffff0000000000000000000000000000000000000000000000000000000060e088901b16815273ffffffffffffffffffffffffffffffffffffffff958616600482015294909316602485015250602090910201356044820152606401600060405180830381600087803b158015610ac957600080fd5b505af1158015610add573d6000803e3d6000fd5b505050508060010190506109ca565b6000610af6611278565b9050610b0481610631610dea565b6105eb838383610b12611282565b929190612223565b6000610b24611278565b9050610b537f6d696e7465720000000000000000000000000000000000000000000000000000826104f6611282565b610c34818a8a8080602002602001604051908101604052809392919081815260200183836020028082843760009201919091525050604080516020808e0282810182019093528d82529093508d92508c91829185019084908082843760009201919091525050604080516020808d0282810182019093528c82529093508c92508b91829185019084908082843760009201919091525050604080516020601f8c018190048102820181019092528a815292508a9150899081908401838280828437600092019190915250610c2a92506110bc915050565b94939291906122ed565b505050505050505050565b60006104a08383610c4e6110bc565b919073ffffffffffffffffffffffffffffffffffffffff9182166000908152600193909301602090815260408085209290931684525290205460ff1690565b610726610c98611278565b878787878787610ca66110bc565b969594939291906123dd565b6108bc610cbd611278565b82610cc6610dea565b91906125c0565b610cd8610739611278565b82818114610d42576040517f08c379a000000000000000000000000000000000000000000000000000000000815260206004820152601d60248201527f5265636f766572793a20696e636f6e73697374656e742061727261797300000060448201526064016107b2565b60005b81811461072657610dab848483818110610d6157610d61613df3565b90506020020135878784818110610d7a57610d7a613df3565b9050602002016020810190610d8f9190613aa7565b73ffffffffffffffffffffffffffffffffffffffff16906126ec565b600101610d45565b610de87fd9b67a26000000000000000000000000000000000000000000000000000000006001610de1610f82565b9190610fb0565b565b6000806104a360017fc9ed16f33ab3a66c84bfd83099ccb2a8845871e2e1c1928f63797152f0fd54cd613e22565b73ffffffffffffffffffffffffffffffffffffffff811615610ea05781547fffffffffffffffffffffffff00000000000000000000000000000000000000001673ffffffffffffffffffffffffffffffffffffffff821690811783556040516000907f8be0079c531659141344cd1fd0a4f28419497f9722a3daafe3b4186f6b6457e0908290a35b6108737f7f5828d0000000000000000000000000000000000000000000000000000000006001610de1610f82565b610de87f5190c92c000000000000000000000000000000000000000000000000000000006001610de1610f82565b610de87fe8ab9ccc000000000000000000000000000000000000000000000000000000006001610de1610f82565b610de87f0e89341c000000000000000000000000000000000000000000000000000000006001610de1610f82565b610de87f921ed8d1000000000000000000000000000000000000000000000000000000006001610de15b6000806104a360017fca9d3e17f264b0f3984e2634e94adb37fa3e6a8103f06aeae6fa59e21c769f5e613e22565b7c01000000000000000000000000000000000000000000000000000000007fffffffff00000000000000000000000000000000000000000000000000000000831601611058576040517f08c379a000000000000000000000000000000000000000000000000000000000815260206004820152601f60248201527f496e74657266616365446574656374696f6e3a2077726f6e672076616c75650060448201526064016107b2565b7fffffffff00000000000000000000000000000000000000000000000000000000919091166000908152602092909252604090912080547fffffffffffffffffffffffffffffffffffffffffffffffffffffffffffffff0016911515919091179055565b6000806104a360017f5ccf5846fa27a68fafc8e588671a68f5e67c2f9b56af4263806a4d71735e8613613e22565b600073ffffffffffffffffffffffffffffffffffffffff8316611169576040517f08c379a000000000000000000000000000000000000000000000000000000000815260206004820152601e60248201527f455243313135353a2062616c616e6365206f662061646472657373283029000060448201526064016107b2565b5060009081526020928352604080822073ffffffffffffffffffffffffffffffffffffffff9390931682529190925290205490565b60007c01000000000000000000000000000000000000000000000000000000007fffffffff000000000000000000000000000000000000000000000000000000008316016111ee575060006104a3565b7ffe003659000000000000000000000000000000000000000000000000000000007fffffffff0000000000000000000000000000000000000000000000000000000083160161123f575060016104a3565b507fffffffff00000000000000000000000000000000000000000000000000000000166000908152602091909152604090205460ff1690565b6000610697612846565b6000806104a360017fc8827d3282af6f37b64c3e9e6f3ac9df286ab0bb0fccd6f8661bf19adb368b23613e22565b60008281526020848152604080832073ffffffffffffffffffffffffffffffffffffffff8516845290915290205460ff166105eb576112ee8261298d565b6040516020016112fe9190613e5c565b604080517fffffffffffffffffffffffffffffffffffffffffffffffffffffffffffffffe0818403018152908290527f08c379a00000000000000000000000000000000000000000000000000000000082526107b291600401613859565b73ffffffffffffffffffffffffffffffffffffffff84166113d9576040517f08c379a000000000000000000000000000000000000000000000000000000000815260206004820152601b60248201527f455243313135353a206d696e7420746f2061646472657373283029000000000060448201526064016107b2565b825182518114611445576040517f08c379a000000000000000000000000000000000000000000000000000000000815260206004820152601c60248201527f455243313135353a20696e636f6e73697374656e74206172726179730000000060448201526064016107b2565b60005b8181146114955761148d888787848151811061146657611466613df3565b602002602001015187858151811061148057611480613df3565b6020026020010151612b1f565b600101611448565b508473ffffffffffffffffffffffffffffffffffffffff16600073ffffffffffffffffffffffffffffffffffffffff168773ffffffffffffffffffffffffffffffffffffffff167f4a39dc06d4c0dbc64b70af90fd698a233a518aa5d07e595d983b8c0526c8f7fb878760405161150d929190613ec8565b60405180910390a473ffffffffffffffffffffffffffffffffffffffff85163b156115415761154186600087878787612bf3565b50505050505050565b6000806104a360017fe94434e3c6b941c5d90218142fadcc69cb2e13723993540bfa1c131dd1d3475a613e22565b60608261158483612d1b565b604051602001611595929190613f49565b604051602081830303815290604052905092915050565b6115b7858486612dd9565b61161d576040517f08c379a000000000000000000000000000000000000000000000000000000000815260206004820152601c60248201527f455243313135353a206e6f6e2d617070726f7665642073656e6465720000000060448201526064016107b2565b61162985848484612e4e565b604080518381526020810183905260009173ffffffffffffffffffffffffffffffffffffffff86811692908816917fc3d58168c5ae7397731d063d5bbf3d657854427343f4c083240f7aacaa2d0f62910160405180910390a45050505050565b73ffffffffffffffffffffffffffffffffffffffff8716611706576040517f08c379a000000000000000000000000000000000000000000000000000000000815260206004820152601f60248201527f455243313135353a207472616e7366657220746f20616464726573732830290060448201526064016107b2565b84838114611770576040517f08c379a000000000000000000000000000000000000000000000000000000000815260206004820152601c60248201527f455243313135353a20696e636f6e73697374656e74206172726179730000000060448201526064016107b2565b61177b8b8a8c612dd9565b6117e1576040517f08c379a000000000000000000000000000000000000000000000000000000000815260206004820152601c60248201527f455243313135353a206e6f6e2d617070726f7665642073656e6465720000000060448201526064016107b2565b60005b818114611830576118288c8b8b8b8b8681811061180357611803613df3565b905060200201358a8a8781811061181c5761181c613df3565b90506020020135612eee565b6001016117e4565b508773ffffffffffffffffffffffffffffffffffffffff168973ffffffffffffffffffffffffffffffffffffffff168b73ffffffffffffffffffffffffffffffffffffffff167f4a39dc06d4c0dbc64b70af90fd698a233a518aa5d07e595d983b8c0526c8f7fb8a8a8a8a6040516118ab9493929190614039565b60405180910390a473ffffffffffffffffffffffffffffffffffffffff88163b15611974576119748a8a8a8a8a8080602002602001604051908101604052809392919081815260200183836020028082843760009201919091525050604080516020808e0282810182019093528d82529093508d92508c91829185019084908082843760009201919091525050604080516020601f8d018190048102820181019092528b815292508b91508a9081908401838280828437600092019190915250612bf392505050565b5050505050505050505050565b815473ffffffffffffffffffffffffffffffffffffffff828116911614610873576040517f08c379a000000000000000000000000000000000000000000000000000000000815260206004820152601860248201527f4f776e6572736869703a206e6f7420746865206f776e6572000000000000000060448201526064016107b2565b60008381526020858152604080832073ffffffffffffffffffffffffffffffffffffffff8616845290915290205460ff16611ad55760008381526020858152604080832073ffffffffffffffffffffffffffffffffffffffff8681168086529184529382902080547fffffffffffffffffffffffffffffffffffffffffffffffffffffffffffffff00166001179055815187815292830152918316918101919091527f2f8788117e7eff1d82e926ec794901d17c78024a50270940304540a733656f0d906060015b60405180910390a15b50505050565b3660006106586130a1565b606083828114611b52576040517f08c379a000000000000000000000000000000000000000000000000000000000815260206004820152601c60248201527f455243313135353a20696e636f6e73697374656e74206172726179730000000060448201526064016107b2565b8467ffffffffffffffff811115611b6b57611b6b614060565b604051908082528060200260200182016040528015611b94578160200160208202803683370190505b50915060005b818114611c1957611bf4878783818110611bb657611bb6613df3565b9050602002016020810190611bcb9190613aa7565b868684818110611bdd57611bdd613df3565b905060200201358a6110ea9092919063ffffffff16565b838281518110611c0657611c06613df3565b6020908102919091010152600101611b9a565b505095945050505050565b6060816000018054611c3590613ef6565b80601f0160208091040260200160405190810160405280929190818152602001828054611c6190613ef6565b8015611cae5780601f10611c8357610100808354040283529160200191611cae565b820191906000526020600020905b815481529060010190602001808311611c9157829003601f168201915b50505050509050919050565b73ffffffffffffffffffffffffffffffffffffffff8416611d37576040517f08c379a000000000000000000000000000000000000000000000000000000000815260206004820152601b60248201527f455243313135353a206d696e7420746f2061646472657373283029000000000060448201526064016107b2565b611d4386858585612b1f565b604080518481526020810184905273ffffffffffffffffffffffffffffffffffffffff80871692600092918916917fc3d58168c5ae7397731d063d5bbf3d657854427343f4c083240f7aacaa2d0f62910160405180910390a473ffffffffffffffffffffffffffffffffffffffff84163b15610726576107268560008686868661320b565b6040805173ffffffffffffffffffffffffffffffffffffffff8416602482015260448082018490528251808303909101815260649091019091526020810180517bffffffffffffffffffffffffffffffffffffffffffffffffffffffff167fa9059cbb000000000000000000000000000000000000000000000000000000001790526105eb908490613267565b82611e618284836140d5565b507f04b1dc5c136a3ce9fded8db0ce3d3366c58764ec3a8e4c2b9e52e4ddfe5ebbf78282604051611e939291906139d9565b60405180910390a1505050565b82818114611f0a576040517f08c379a000000000000000000000000000000000000000000000000000000000815260206004820152601c60248201527f455243313135353a20696e636f6e73697374656e74206172726179730000000060448201526064016107b2565b611f15888789612dd9565b611f7b576040517f08c379a000000000000000000000000000000000000000000000000000000000815260206004820152601c60248201527f455243313135353a206e6f6e2d617070726f7665642073656e6465720000000060448201526064016107b2565b60005b818114611fc957611fc18988888885818110611f9c57611f9c613df3565b90506020020135878786818110611fb557611fb5613df3565b90506020020135612e4e565b600101611f7e565b50600073ffffffffffffffffffffffffffffffffffffffff168673ffffffffffffffffffffffffffffffffffffffff168873ffffffffffffffffffffffffffffffffffffffff167f4a39dc06d4c0dbc64b70af90fd698a233a518aa5d07e595d983b8c0526c8f7fb888888886040516120459493929190614039565b60405180910390a45050505050505050565b6120628382846112b0565b60008181526020848152604080832073ffffffffffffffffffffffffffffffffffffffff86168085529083529281902080547fffffffffffffffffffffffffffffffffffffffffffffffffffffffffffffff0016905580518481529182018390528101919091527ff6391f5c32d9c69d2a47ea670b442974b53935d1edc7fd64eb21e047a839171b90606001611e93565b8273ffffffffffffffffffffffffffffffffffffffff168273ffffffffffffffffffffffffffffffffffffffff1603612188576040517f08c379a000000000000000000000000000000000000000000000000000000000815260206004820152601e60248201527f455243313135353a2073656c662d617070726f76616c20666f7220616c6c000060448201526064016107b2565b73ffffffffffffffffffffffffffffffffffffffff838116600081815260018701602090815260408083209487168084529482529182902080547fffffffffffffffffffffffffffffffffffffffffffffffffffffffffffffff001686151590811790915591519182527f17307eab39ab6107e8899845ad3d59bd9653f200f220920489ca2b5937696c31910160405180910390a350505050565b60008381526020858152604080832073ffffffffffffffffffffffffffffffffffffffff8616845290915290205460ff1615611ad55760008381526020858152604080832073ffffffffffffffffffffffffffffffffffffffff8681168086529184529382902080547fffffffffffffffffffffffffffffffffffffffffffffffffffffffffffffff00169055815187815292830152918316918101919091527ff6391f5c32d9c69d2a47ea670b442974b53935d1edc7fd64eb21e047a839171b90606001611acc565b83518351811480156122ff5750825181145b612365576040517f08c379a000000000000000000000000000000000000000000000000000000000815260206004820152601c60248201527f455243313135353a20696e636f6e73697374656e74206172726179730000000060448201526064016107b2565b60005b8181146105ae576123d58787838151811061238557612385613df3565b602002602001015187848151811061239f5761239f613df3565b60200260200101518785815181106123b9576123b9613df3565b6020026020010151878d611cba9095949392919063ffffffff16565b600101612368565b73ffffffffffffffffffffffffffffffffffffffff851661245a576040517f08c379a000000000000000000000000000000000000000000000000000000000815260206004820152601f60248201527f455243313135353a207472616e7366657220746f20616464726573732830290060448201526064016107b2565b612465888789612dd9565b6124cb576040517f08c379a000000000000000000000000000000000000000000000000000000000815260206004820152601c60248201527f455243313135353a206e6f6e2d617070726f7665642073656e6465720000000060448201526064016107b2565b6124d88887878787612eee565b8473ffffffffffffffffffffffffffffffffffffffff168673ffffffffffffffffffffffffffffffffffffffff168873ffffffffffffffffffffffffffffffffffffffff167fc3d58168c5ae7397731d063d5bbf3d657854427343f4c083240f7aacaa2d0f628787604051612557929190918252602082015260400190565b60405180910390a473ffffffffffffffffffffffffffffffffffffffff85163b156105ae576105ae878787878787878080601f01602080910402602001604051908101604052809392919081815260200183838082843760009201919091525061320b92505050565b825473ffffffffffffffffffffffffffffffffffffffff9081169083168114612645576040517f08c379a000000000000000000000000000000000000000000000000000000000815260206004820152601860248201527f4f776e6572736869703a206e6f7420746865206f776e6572000000000000000060448201526064016107b2565b8173ffffffffffffffffffffffffffffffffffffffff168173ffffffffffffffffffffffffffffffffffffffff1614611ad55783547fffffffffffffffffffffffff00000000000000000000000000000000000000001673ffffffffffffffffffffffffffffffffffffffff8381169182178655604051908316907f8be0079c531659141344cd1fd0a4f28419497f9722a3daafe3b4186f6b6457e090600090a350505050565b80471015612756576040517f08c379a000000000000000000000000000000000000000000000000000000000815260206004820152601d60248201527f416464726573733a20696e73756666696369656e742062616c616e636500000060448201526064016107b2565b60008273ffffffffffffffffffffffffffffffffffffffff168260405160006040518083038185875af1925050503d80600081146127b0576040519150601f19603f3d011682016040523d82523d6000602084013e6127b5565b606091505b50509050806105eb576040517f08c379a000000000000000000000000000000000000000000000000000000000815260206004820152603a60248201527f416464726573733a20756e61626c6520746f2073656e642076616c75652c207260448201527f6563697069656e74206d6179206861766520726576657274656400000000000060648201526084016107b2565b6000333214806128565750601836105b1561286057503390565b7fffffffffffffffffffffffffffffffffffffffffffffffffffffffffffffffec36013560601c7f000000000000000000000000000000000000000000000000000000000000000073ffffffffffffffffffffffffffffffffffffffff1633148061297c57506040517f8929a8ca00000000000000000000000000000000000000000000000000000000815273ffffffffffffffffffffffffffffffffffffffff82811660048301523360248301527f00000000000000000000000000000000000000000000000000000000000000001690638929a8ca90604401602060405180830381865afa158015612958573d6000803e3d6000fd5b505050506040513d601f19601f8201168201806040525081019061297c91906141ef565b1561298657919050565b3391505090565b606060008290036129ac57505060408051602081019091526000815290565b6000826040516020016129c191815260200190565b604080517fffffffffffffffffffffffffffffffffffffffffffffffffffffffffffffffe08184030181529190529050601f5b818181518110612a0657612a06613df3565b01602001517fff0000000000000000000000000000000000000000000000000000000000000016600003612a5b577fffffffffffffffffffffffffffffffffffffffffffffffffffffffffffffffff016129f4565b60008160010167ffffffffffffffff811115612a7957612a79614060565b6040519080825280601f01601f191660200182016040528015612aa3576020820181803683370190505b50905060005b828111612b1657838181518110612ac257612ac2613df3565b602001015160f81c60f81b828281518110612adf57612adf613df3565b60200101907effffffffffffffffffffffffffffffffffffffffffffffffffffffffffffff1916908160001a905350600101612aa9565b50949350505050565b8015611ad55760008281526020858152604080832073ffffffffffffffffffffffffffffffffffffffff87168452909152902054818101818111612bbf576040517f08c379a000000000000000000000000000000000000000000000000000000000815260206004820152601960248201527f455243313135353a2062616c616e6365206f766572666c6f770000000000000060448201526064016107b2565b60009384526020958652604080852073ffffffffffffffffffffffffffffffffffffffff9690961685529490955250502055565b6040517fbc197c81000000000000000000000000000000000000000000000000000000008082529073ffffffffffffffffffffffffffffffffffffffff86169063bc197c8190612c4f908a908a9089908990899060040161420c565b6020604051808303816000875af1158015612c6e573d6000803e3d6000fd5b505050506040513d601f19601f82011682018060405250810190612c929190614277565b7fffffffff000000000000000000000000000000000000000000000000000000001614610726576040517f08c379a000000000000000000000000000000000000000000000000000000000815260206004820152601a60248201527f455243313135353a207472616e736665722072656a656374656400000000000060448201526064016107b2565b60606000612d2883613373565b600101905060008167ffffffffffffffff811115612d4857612d48614060565b6040519080825280601f01601f191660200182016040528015612d72576020820181803683370190505b5090508181016020015b7fffffffffffffffffffffffffffffffffffffffffffffffffffffffffffffffff017f3031323334353637383961626364656600000000000000000000000000000000600a86061a8153600a8504945084612d7c57509392505050565b60008173ffffffffffffffffffffffffffffffffffffffff168373ffffffffffffffffffffffffffffffffffffffff16148061067d57505073ffffffffffffffffffffffffffffffffffffffff9182166000908152600193909301602090815260408085209290931684525290205460ff1690565b8015611ad55760008281526020858152604080832073ffffffffffffffffffffffffffffffffffffffff87168452909152902054818103818110612bbf576040517f08c379a000000000000000000000000000000000000000000000000000000000815260206004820152601d60248201527f455243313135353a20696e73756666696369656e742062616c616e636500000060448201526064016107b2565b801561089a5760008281526020868152604080832073ffffffffffffffffffffffffffffffffffffffff88168452909152902054818103818110612f8e576040517f08c379a000000000000000000000000000000000000000000000000000000000815260206004820152601d60248201527f455243313135353a20696e73756666696369656e742062616c616e636500000060448201526064016107b2565b8473ffffffffffffffffffffffffffffffffffffffff168673ffffffffffffffffffffffffffffffffffffffff16146115415760008481526020888152604080832073ffffffffffffffffffffffffffffffffffffffff8916845290915290205483810181811161305b576040517f08c379a000000000000000000000000000000000000000000000000000000000815260206004820152601960248201527f455243313135353a2062616c616e6365206f766572666c6f770000000000000060448201526064016107b2565b600086815260208a8152604080832073ffffffffffffffffffffffffffffffffffffffff808d1685528184528285208890558b1684529091529020555050505050505050565b366000333214806130b25750601836105b156130c05750600091369150565b3373ffffffffffffffffffffffffffffffffffffffff7f00000000000000000000000000000000000000000000000000000000000000001614806131f5575073ffffffffffffffffffffffffffffffffffffffff7f000000000000000000000000000000000000000000000000000000000000000016638929a8ca367fffffffffffffffffffffffffffffffffffffffffffffffffffffffffffffffec013560601c6040517fffffffff0000000000000000000000000000000000000000000000000000000060e084901b16815273ffffffffffffffffffffffffffffffffffffffff9091166004820152336024820152604401602060405180830381865afa1580156131d1573d6000803e3d6000fd5b505050506040513d601f19601f820116820180604052508101906131f591906141ef565b1561320257610658613455565b50600091369150565b6040517ff23a6e61000000000000000000000000000000000000000000000000000000008082529073ffffffffffffffffffffffffffffffffffffffff86169063f23a6e6190612c4f908a908a90899089908990600401614294565b60006132c9826040518060400160405280602081526020017f5361666545524332303a206c6f772d6c6576656c2063616c6c206661696c65648152508573ffffffffffffffffffffffffffffffffffffffff166134869092919063ffffffff16565b8051909150156105eb57808060200190518101906132e791906141ef565b6105eb576040517f08c379a000000000000000000000000000000000000000000000000000000000815260206004820152602a60248201527f5361666545524332303a204552433230206f7065726174696f6e20646964206e60448201527f6f7420737563636565640000000000000000000000000000000000000000000060648201526084016107b2565b6000807a184f03e93ff9f4daa797ed6e38ed64bf6a1f01000000000000000083106133bc577a184f03e93ff9f4daa797ed6e38ed64bf6a1f010000000000000000830492506040015b6d04ee2d6d415b85acef810000000083106133e8576d04ee2d6d415b85acef8100000000830492506020015b662386f26fc10000831061340657662386f26fc10000830492506010015b6305f5e100831061341e576305f5e100830492506008015b612710831061343257612710830492506004015b60648310613444576064830492506002015b600a83106104a35760010192915050565b3660006106587fffffffffffffffffffffffffffffffffffffffffffffffffffffffffffffffec83018284816142d9565b606061067d8484600085856000808673ffffffffffffffffffffffffffffffffffffffff1685876040516134ba9190614303565b60006040518083038185875af1925050503d80600081146134f7576040519150601f19603f3d011682016040523d82523d6000602084013e6134fc565b606091505b509150915061350d87838387613518565b979650505050505050565b606083156135ae5782516000036135a75773ffffffffffffffffffffffffffffffffffffffff85163b6135a7576040517f08c379a000000000000000000000000000000000000000000000000000000000815260206004820152601d60248201527f416464726573733a2063616c6c20746f206e6f6e2d636f6e747261637400000060448201526064016107b2565b508161067d565b61067d83838151156135c35781518083602001fd5b806040517f08c379a00000000000000000000000000000000000000000000000000000000081526004016107b29190613859565b73ffffffffffffffffffffffffffffffffffffffff811681146108bc57600080fd5b6000806040838503121561362c57600080fd5b8235613637816135f7565b946020939093013593505050565b7fffffffff00000000000000000000000000000000000000000000000000000000811681146108bc57600080fd5b60006020828403121561368557600080fd5b813561369081613645565b9392505050565b60008083601f8401126136a957600080fd5b50813567ffffffffffffffff8111156136c157600080fd5b6020830191508360208260051b85010111156136dc57600080fd5b9250929050565b60008083601f8401126136f557600080fd5b50813567ffffffffffffffff81111561370d57600080fd5b6020830191508360208285010111156136dc57600080fd5b60008060008060008060006080888a03121561374057600080fd5b873561374b816135f7565b9650602088013567ffffffffffffffff8082111561376857600080fd5b6137748b838c01613697565b909850965060408a013591508082111561378d57600080fd5b6137998b838c01613697565b909650945060608a01359150808211156137b257600080fd5b506137bf8a828b016136e3565b989b979a50959850939692959293505050565b6000602082840312156137e457600080fd5b5035919050565b60005b838110156138065781810151838201526020016137ee565b50506000910152565b600081518084526138278160208601602086016137eb565b601f017fffffffffffffffffffffffffffffffffffffffffffffffffffffffffffffffe0169290920160200192915050565b6020815260006104a0602083018461380f565b60008060006060848603121561388157600080fd5b833561388c816135f7565b95602085013595506040909401359392505050565b60008060008060008060008060a0898b0312156138bd57600080fd5b88356138c8816135f7565b975060208901356138d8816135f7565b9650604089013567ffffffffffffffff808211156138f557600080fd5b6139018c838d01613697565b909850965060608b013591508082111561391a57600080fd5b6139268c838d01613697565b909650945060808b013591508082111561393f57600080fd5b5061394c8b828c016136e3565b999c989b5096995094979396929594505050565b6000806040838503121561397357600080fd5b823591506020830135613985816135f7565b809150509250929050565b8183528181602085013750600060208284010152600060207fffffffffffffffffffffffffffffffffffffffffffffffffffffffffffffffe0601f840116840101905092915050565b60208152600061067d602083018486613990565b60008060008060408587031215613a0357600080fd5b843567ffffffffffffffff80821115613a1b57600080fd5b613a2788838901613697565b90965094506020870135915080821115613a4057600080fd5b50613a4d87828801613697565b95989497509550505050565b600081518084526020808501945080840160005b83811015613a8957815187529582019590820190600101613a6d565b509495945050505050565b6020815260006104a06020830184613a59565b600060208284031215613ab957600080fd5b8135613690816135f7565b600080600080600060808688031215613adc57600080fd5b8535613ae7816135f7565b94506020860135935060408601359250606086013567ffffffffffffffff811115613b1157600080fd5b613b1d888289016136e3565b969995985093965092949392505050565b60008060008060008060608789031215613b4757600080fd5b863567ffffffffffffffff80821115613b5f57600080fd5b613b6b8a838b01613697565b90985096506020890135915080821115613b8457600080fd5b613b908a838b01613697565b90965094506040890135915080821115613ba957600080fd5b50613bb689828a01613697565b979a9699509497509295939492505050565b60008060208385031215613bdb57600080fd5b823567ffffffffffffffff811115613bf257600080fd5b613bfe858286016136e3565b90969095509350505050565b600080600080600060608688031215613c2257600080fd5b8535613c2d816135f7565b9450602086013567ffffffffffffffff80821115613c4a57600080fd5b613c5689838a01613697565b90965094506040880135915080821115613c6f57600080fd5b50613b1d88828901613697565b80151581146108bc57600080fd5b60008060408385031215613c9d57600080fd5b8235613ca8816135f7565b9150602083013561398581613c7c565b6000806000806000806000806080898b031215613cd457600080fd5b883567ffffffffffffffff80821115613cec57600080fd5b613cf88c838d01613697565b909a50985060208b0135915080821115613d1157600080fd5b613d1d8c838d01613697565b909850965060408b0135915080821115613d3657600080fd5b613d428c838d01613697565b909650945060608b013591508082111561393f57600080fd5b60008060408385031215613d6e57600080fd5b8235613d79816135f7565b91506020830135613985816135f7565b60008060008060008060a08789031215613da257600080fd5b8635613dad816135f7565b95506020870135613dbd816135f7565b94506040870135935060608701359250608087013567ffffffffffffffff811115613de757600080fd5b613bb689828a016136e3565b7f4e487b7100000000000000000000000000000000000000000000000000000000600052603260045260246000fd5b818103818111156104a3577f4e487b7100000000000000000000000000000000000000000000000000000000600052601160045260246000fd5b7f416363657373436f6e74726f6c3a206d697373696e6720270000000000000000815260008251613e948160188501602087016137eb565b7f2720726f6c6500000000000000000000000000000000000000000000000000006018939091019283015250601e01919050565b604081526000613edb6040830185613a59565b8281036020840152613eed8185613a59565b95945050505050565b600181811c90821680613f0a57607f821691505b602082108103613f43577f4e487b7100000000000000000000000000000000000000000000000000000000600052602260045260246000fd5b50919050565b6000808454613f5781613ef6565b60018281168015613f6f5760018114613fa257613fd1565b7fffffffffffffffffffffffffffffffffffffffffffffffffffffffffffffff0084168752821515830287019450613fd1565b8860005260208060002060005b85811015613fc85781548a820152908401908201613faf565b50505082870194505b505050508351613fe58183602088016137eb565b01949350505050565b81835260007f07ffffffffffffffffffffffffffffffffffffffffffffffffffffffffffffff83111561402057600080fd5b8260051b80836020870137939093016020019392505050565b60408152600061404d604083018688613fee565b828103602084015261350d818587613fee565b7f4e487b7100000000000000000000000000000000000000000000000000000000600052604160045260246000fd5b601f8211156105eb57600081815260208120601f850160051c810160208610156140b65750805b601f850160051c820191505b81811015610726578281556001016140c2565b67ffffffffffffffff8311156140ed576140ed614060565b614101836140fb8354613ef6565b8361408f565b6000601f841160018114614153576000851561411d5750838201355b7fffffffffffffffffffffffffffffffffffffffffffffffffffffffffffffffff600387901b1c1916600186901b17835561089a565b6000838152602090207fffffffffffffffffffffffffffffffffffffffffffffffffffffffffffffffe0861690835b828110156141a25786850135825560209485019460019092019101614182565b50868210156141dd577fffffffffffffffffffffffffffffffffffffffffffffffffffffffffffffffff60f88860031b161c19848701351681555b505060018560011b0183555050505050565b60006020828403121561420157600080fd5b815161369081613c7c565b600073ffffffffffffffffffffffffffffffffffffffff808816835280871660208401525060a0604083015261424560a0830186613a59565b82810360608401526142578186613a59565b9050828103608084015261426b818561380f565b98975050505050505050565b60006020828403121561428957600080fd5b815161369081613645565b600073ffffffffffffffffffffffffffffffffffffffff808816835280871660208401525084604083015283606083015260a0608083015261350d60a083018461380f565b600080858511156142e957600080fd5b838611156142f657600080fd5b5050820193919092039150565b600082516143158184602087016137eb565b919091019291505056fea264697066735822122020a691d68f3940985b85ff1a9c829c9c3aa8d7641b802b7aa9d8358c2a9a910164736f6c63430008110033",
  "linkReferences": {},
  "deployedLinkReferences": {}
}