{
  "_format": "hh-sol-artifact-1",
  "contractName": "REVVMotorsportVouchers",
  "sourceName": "contracts/token/ERC1155/REVVMotorsportVouchers.sol",
  "abi": [
    {
      "inputs": [
        {
          "internalType": "contract IOperatorFilterRegistry",
          "name": "filterRegistry",
          "type": "address"
        },
        {
          "internalType": "contract IForwarderRegistry",
          "name": "forwarderRegistry",
          "type": "address"
        }
      ],
      "stateMutability": "nonpayable",
      "type": "constructor"
    },
    {
      "inputs": [
        {
          "internalType": "uint256",
          "name": "percentage",
          "type": "uint256"
        }
      ],
      "name": "IncorrectRoyaltyPercentage",
      "type": "error"
    },
    {
      "inputs": [],
      "name": "IncorrectRoyaltyReceiver",
      "type": "error"
    },
    {
      "inputs": [
        {
          "internalType": "address",
          "name": "operator",
          "type": "address"
        }
      ],
      "name": "OperatorNotAllowed",
      "type": "error"
    },
    {
      "anonymous": false,
      "inputs": [
        {
          "indexed": true,
          "internalType": "address",
          "name": "owner",
          "type": "address"
        },
        {
          "indexed": true,
          "internalType": "address",
          "name": "operator",
          "type": "address"
        },
        {
          "indexed": false,
          "internalType": "bool",
          "name": "approved",
          "type": "bool"
        }
      ],
      "name": "ApprovalForAll",
      "type": "event"
    },
    {
      "anonymous": false,
      "inputs": [
        {
          "indexed": false,
          "internalType": "string",
          "name": "baseMetadataURI",
          "type": "string"
        }
      ],
      "name": "BaseMetadataURISet",
      "type": "event"
    },
    {
      "anonymous": false,
      "inputs": [
        {
          "indexed": true,
          "internalType": "address",
          "name": "previousOwner",
          "type": "address"
        },
        {
          "indexed": true,
          "internalType": "address",
          "name": "newOwner",
          "type": "address"
        }
      ],
      "name": "OwnershipTransferred",
      "type": "event"
    },
    {
      "anonymous": false,
      "inputs": [
        {
          "indexed": false,
          "internalType": "bytes32",
          "name": "role",
          "type": "bytes32"
        },
        {
          "indexed": false,
          "internalType": "address",
          "name": "account",
          "type": "address"
        },
        {
          "indexed": false,
          "internalType": "address",
          "name": "operator",
          "type": "address"
        }
      ],
      "name": "RoleGranted",
      "type": "event"
    },
    {
      "anonymous": false,
      "inputs": [
        {
          "indexed": false,
          "internalType": "bytes32",
          "name": "role",
          "type": "bytes32"
        },
        {
          "indexed": false,
          "internalType": "address",
          "name": "account",
          "type": "address"
        },
        {
          "indexed": false,
          "internalType": "address",
          "name": "operator",
          "type": "address"
        }
      ],
      "name": "RoleRevoked",
      "type": "event"
    },
    {
      "anonymous": false,
      "inputs": [
        {
          "indexed": true,
          "internalType": "address",
          "name": "operator",
          "type": "address"
        },
        {
          "indexed": true,
          "internalType": "address",
          "name": "from",
          "type": "address"
        },
        {
          "indexed": true,
          "internalType": "address",
          "name": "to",
          "type": "address"
        },
        {
          "indexed": false,
          "internalType": "uint256[]",
          "name": "ids",
          "type": "uint256[]"
        },
        {
          "indexed": false,
          "internalType": "uint256[]",
          "name": "values",
          "type": "uint256[]"
        }
      ],
      "name": "TransferBatch",
      "type": "event"
    },
    {
      "anonymous": false,
      "inputs": [
        {
          "indexed": true,
          "internalType": "address",
          "name": "operator",
          "type": "address"
        },
        {
          "indexed": true,
          "internalType": "address",
          "name": "from",
          "type": "address"
        },
        {
          "indexed": true,
          "internalType": "address",
          "name": "to",
          "type": "address"
        },
        {
          "indexed": false,
          "internalType": "uint256",
          "name": "id",
          "type": "uint256"
        },
        {
          "indexed": false,
          "internalType": "uint256",
          "name": "value",
          "type": "uint256"
        }
      ],
      "name": "TransferSingle",
      "type": "event"
    },
    {
      "anonymous": false,
      "inputs": [
        {
          "indexed": false,
          "internalType": "string",
          "name": "value",
          "type": "string"
        },
        {
          "indexed": true,
          "internalType": "uint256",
          "name": "id",
          "type": "uint256"
        }
      ],
      "name": "URI",
      "type": "event"
    },
    {
      "inputs": [],
      "name": "MINTER_ROLE",
      "outputs": [
        {
          "internalType": "bytes32",
          "name": "",
          "type": "bytes32"
        }
      ],
      "stateMutability": "view",
      "type": "function"
    },
    {
      "inputs": [],
      "name": "ROYALTY_FEE_DENOMINATOR",
      "outputs": [
        {
          "internalType": "uint256",
          "name": "",
          "type": "uint256"
        }
      ],
      "stateMutability": "view",
      "type": "function"
    },
    {
      "inputs": [
        {
          "internalType": "address",
          "name": "owner",
          "type": "address"
        },
        {
          "internalType": "uint256",
          "name": "id",
          "type": "uint256"
        }
      ],
      "name": "balanceOf",
      "outputs": [
        {
          "internalType": "uint256",
          "name": "balance",
          "type": "uint256"
        }
      ],
      "stateMutability": "view",
      "type": "function"
    },
    {
      "inputs": [
        {
          "internalType": "address[]",
          "name": "owners",
          "type": "address[]"
        },
        {
          "internalType": "uint256[]",
          "name": "ids",
          "type": "uint256[]"
        }
      ],
      "name": "balanceOfBatch",
      "outputs": [
        {
          "internalType": "uint256[]",
          "name": "balances",
          "type": "uint256[]"
        }
      ],
      "stateMutability": "view",
      "type": "function"
    },
    {
      "inputs": [],
      "name": "baseMetadataURI",
      "outputs": [
        {
          "internalType": "string",
          "name": "baseURI",
          "type": "string"
        }
      ],
      "stateMutability": "view",
      "type": "function"
    },
    {
      "inputs": [
        {
          "internalType": "address",
          "name": "from",
          "type": "address"
        },
        {
          "internalType": "uint256[]",
          "name": "ids",
          "type": "uint256[]"
        },
        {
          "internalType": "uint256[]",
          "name": "values",
          "type": "uint256[]"
        }
      ],
      "name": "batchBurnFrom",
      "outputs": [],
      "stateMutability": "nonpayable",
      "type": "function"
    },
    {
      "inputs": [
        {
          "internalType": "address",
          "name": "from",
          "type": "address"
        },
        {
          "internalType": "uint256",
          "name": "id",
          "type": "uint256"
        },
        {
          "internalType": "uint256",
          "name": "value",
          "type": "uint256"
        }
      ],
      "name": "burnFrom",
      "outputs": [],
      "stateMutability": "nonpayable",
      "type": "function"
    },
    {
      "inputs": [],
      "name": "forwarderRegistry",
      "outputs": [
        {
          "internalType": "contract IForwarderRegistry",
          "name": "",
          "type": "address"
        }
      ],
      "stateMutability": "view",
      "type": "function"
    },
    {
      "inputs": [
        {
          "internalType": "bytes32",
          "name": "role",
          "type": "bytes32"
        },
        {
          "internalType": "address",
          "name": "account",
          "type": "address"
        }
      ],
      "name": "grantRole",
      "outputs": [],
      "stateMutability": "nonpayable",
      "type": "function"
    },
    {
      "inputs": [
        {
          "internalType": "bytes32",
          "name": "role",
          "type": "bytes32"
        },
        {
          "internalType": "address",
          "name": "account",
          "type": "address"
        }
      ],
      "name": "hasRole",
      "outputs": [
        {
          "internalType": "bool",
          "name": "",
          "type": "bool"
        }
      ],
      "stateMutability": "view",
      "type": "function"
    },
    {
      "inputs": [
        {
          "internalType": "address",
          "name": "owner",
          "type": "address"
        },
        {
          "internalType": "address",
          "name": "operator",
          "type": "address"
        }
      ],
      "name": "isApprovedForAll",
      "outputs": [
        {
          "internalType": "bool",
          "name": "approvedForAll",
          "type": "bool"
        }
      ],
      "stateMutability": "view",
      "type": "function"
    },
    {
      "inputs": [
        {
          "internalType": "address",
          "name": "forwarder",
          "type": "address"
        }
      ],
      "name": "isTrustedForwarder",
      "outputs": [
        {
          "internalType": "bool",
          "name": "",
          "type": "bool"
        }
      ],
      "stateMutability": "view",
      "type": "function"
    },
    {
      "inputs": [],
      "name": "operatorFilterRegistry",
      "outputs": [
        {
          "internalType": "contract IOperatorFilterRegistry",
          "name": "",
          "type": "address"
        }
      ],
      "stateMutability": "view",
      "type": "function"
    },
    {
      "inputs": [],
      "name": "owner",
      "outputs": [
        {
          "internalType": "address",
          "name": "",
          "type": "address"
        }
      ],
      "stateMutability": "view",
      "type": "function"
    },
    {
      "inputs": [
        {
          "internalType": "address[]",
          "name": "accounts",
          "type": "address[]"
        },
        {
          "internalType": "contract IERC20[]",
          "name": "tokens",
          "type": "address[]"
        },
        {
          "internalType": "uint256[]",
          "name": "amounts",
          "type": "uint256[]"
        }
      ],
      "name": "recoverERC20s",
      "outputs": [],
      "stateMutability": "nonpayable",
      "type": "function"
    },
    {
      "inputs": [
        {
          "internalType": "address[]",
          "name": "accounts",
          "type": "address[]"
        },
        {
          "internalType": "contract IERC721[]",
          "name": "contracts",
          "type": "address[]"
        },
        {
          "internalType": "uint256[]",
          "name": "tokenIds",
          "type": "uint256[]"
        }
      ],
      "name": "recoverERC721s",
      "outputs": [],
      "stateMutability": "nonpayable",
      "type": "function"
    },
    {
      "inputs": [
        {
          "internalType": "address payable[]",
          "name": "accounts",
          "type": "address[]"
        },
        {
          "internalType": "uint256[]",
          "name": "amounts",
          "type": "uint256[]"
        }
      ],
      "name": "recoverETH",
      "outputs": [],
      "stateMutability": "nonpayable",
      "type": "function"
    },
    {
      "inputs": [
        {
          "internalType": "bytes32",
          "name": "role",
          "type": "bytes32"
        }
      ],
      "name": "renounceRole",
      "outputs": [],
      "stateMutability": "nonpayable",
      "type": "function"
    },
    {
      "inputs": [
        {
          "internalType": "bytes32",
          "name": "role",
          "type": "bytes32"
        },
        {
          "internalType": "address",
          "name": "account",
          "type": "address"
        }
      ],
      "name": "revokeRole",
      "outputs": [],
      "stateMutability": "nonpayable",
      "type": "function"
    },
    {
      "inputs": [
        {
          "internalType": "uint256",
          "name": "tokenId",
          "type": "uint256"
        },
        {
          "internalType": "uint256",
          "name": "salePrice",
          "type": "uint256"
        }
      ],
      "name": "royaltyInfo",
      "outputs": [
        {
          "internalType": "address",
          "name": "receiver",
          "type": "address"
        },
        {
          "internalType": "uint256",
          "name": "royaltyAmount",
          "type": "uint256"
        }
      ],
      "stateMutability": "view",
      "type": "function"
    },
    {
      "inputs": [
        {
          "internalType": "address",
          "name": "to",
          "type": "address"
        },
        {
          "internalType": "uint256[]",
          "name": "ids",
          "type": "uint256[]"
        },
        {
          "internalType": "uint256[]",
          "name": "values",
          "type": "uint256[]"
        },
        {
          "internalType": "bytes",
          "name": "data",
          "type": "bytes"
        }
      ],
      "name": "safeBatchMint",
      "outputs": [],
      "stateMutability": "nonpayable",
      "type": "function"
    },
    {
      "inputs": [
        {
          "internalType": "address",
          "name": "from",
          "type": "address"
        },
        {
          "internalType": "address",
          "name": "to",
          "type": "address"
        },
        {
          "internalType": "uint256[]",
          "name": "ids",
          "type": "uint256[]"
        },
        {
          "internalType": "uint256[]",
          "name": "values",
          "type": "uint256[]"
        },
        {
          "internalType": "bytes",
          "name": "data",
          "type": "bytes"
        }
      ],
      "name": "safeBatchTransferFrom",
      "outputs": [],
      "stateMutability": "nonpayable",
      "type": "function"
    },
    {
      "inputs": [
        {
          "internalType": "address[]",
          "name": "recipients",
          "type": "address[]"
        },
        {
          "internalType": "uint256[]",
          "name": "ids",
          "type": "uint256[]"
        },
        {
          "internalType": "uint256[]",
          "name": "values",
          "type": "uint256[]"
        },
        {
          "internalType": "bytes",
          "name": "data",
          "type": "bytes"
        }
      ],
      "name": "safeDeliver",
      "outputs": [],
      "stateMutability": "nonpayable",
      "type": "function"
    },
    {
      "inputs": [
        {
          "internalType": "address",
          "name": "to",
          "type": "address"
        },
        {
          "internalType": "uint256",
          "name": "id",
          "type": "uint256"
        },
        {
          "internalType": "uint256",
          "name": "value",
          "type": "uint256"
        },
        {
          "internalType": "bytes",
          "name": "data",
          "type": "bytes"
        }
      ],
      "name": "safeMint",
      "outputs": [],
      "stateMutability": "nonpayable",
      "type": "function"
    },
    {
      "inputs": [
        {
          "internalType": "address",
          "name": "from",
          "type": "address"
        },
        {
          "internalType": "address",
          "name": "to",
          "type": "address"
        },
        {
          "internalType": "uint256",
          "name": "id",
          "type": "uint256"
        },
        {
          "internalType": "uint256",
          "name": "value",
          "type": "uint256"
        },
        {
          "internalType": "bytes",
          "name": "data",
          "type": "bytes"
        }
      ],
      "name": "safeTransferFrom",
      "outputs": [],
      "stateMutability": "nonpayable",
      "type": "function"
    },
    {
      "inputs": [
        {
          "internalType": "address",
          "name": "operator",
          "type": "address"
        },
        {
          "internalType": "bool",
          "name": "approved",
          "type": "bool"
        }
      ],
      "name": "setApprovalForAll",
      "outputs": [],
      "stateMutability": "nonpayable",
      "type": "function"
    },
    {
      "inputs": [
        {
          "internalType": "string",
          "name": "baseURI",
          "type": "string"
        }
      ],
      "name": "setBaseMetadataURI",
      "outputs": [],
      "stateMutability": "nonpayable",
      "type": "function"
    },
    {
      "inputs": [
        {
          "internalType": "uint256",
          "name": "percentage",
          "type": "uint256"
        }
      ],
      "name": "setRoyaltyPercentage",
      "outputs": [],
      "stateMutability": "nonpayable",
      "type": "function"
    },
    {
      "inputs": [
        {
          "internalType": "address",
          "name": "receiver",
          "type": "address"
        }
      ],
      "name": "setRoyaltyReceiver",
      "outputs": [],
      "stateMutability": "nonpayable",
      "type": "function"
    },
    {
      "inputs": [
        {
          "internalType": "bytes4",
          "name": "interfaceId",
          "type": "bytes4"
        }
      ],
      "name": "supportsInterface",
      "outputs": [
        {
          "internalType": "bool",
          "name": "",
          "type": "bool"
        }
      ],
      "stateMutability": "view",
      "type": "function"
    },
    {
      "inputs": [
        {
          "internalType": "address",
          "name": "newOwner",
          "type": "address"
        }
      ],
      "name": "transferOwnership",
      "outputs": [],
      "stateMutability": "nonpayable",
      "type": "function"
    },
    {
      "inputs": [
        {
          "internalType": "contract IOperatorFilterRegistry",
          "name": "registry",
          "type": "address"
        }
      ],
      "name": "updateOperatorFilterRegistry",
      "outputs": [],
      "stateMutability": "nonpayable",
      "type": "function"
    },
    {
      "inputs": [
        {
          "internalType": "uint256",
          "name": "id",
          "type": "uint256"
        }
      ],
      "name": "uri",
      "outputs": [
        {
          "internalType": "string",
          "name": "metadataURI",
          "type": "string"
        }
      ],
      "stateMutability": "view",
      "type": "function"
    }
  ],
  "bytecode": "0x60a06040523480156200001157600080fd5b506040516200481d3803806200481d833981016040819052620000349162000316565b808083336200004e8162000047620000cf565b9062000105565b506200005962000180565b6200008681620000686200019a565b9081546001600160a01b0319166001600160a01b0391909116179055565b5062000091620001ca565b6200009b620001e2565b620000a5620001fa565b620000af62000212565b620000b96200022a565b6001600160a01b03166080525062000377915050565b600080620000ff60017fc9ed16f33ab3a66c84bfd83099ccb2a8845871e2e1c1928f63797152f0fd54cd62000355565b92915050565b6001600160a01b038116156200015c5781546001600160a01b0319166001600160a01b03821690811783556040516000907f8be0079c531659141344cd1fd0a4f28419497f9722a3daafe3b4186f6b6457e0908290a35b6200017c6307f5828d60e41b6001620001746200023d565b91906200026d565b5050565b62000198636cdb3d1360e11b6001620001746200023d565b565b600080620000ff60017f609b85bcafa81ecfaf3ff62cdde2c6c9082a68dbe4922f07399c706bdeb7cd3162000355565b62000198631464324b60e21b6001620001746200023d565b62000198633a2ae73360e21b6001620001746200023d565b620001986303a24d0760e21b6001620001746200023d565b6200019863921ed8d160e01b6001620001746200023d565b6200019863152a902d60e11b6001620001745b600080620000ff60017fca9d3e17f264b0f3984e2634e94adb37fa3e6a8103f06aeae6fa59e21c769f5e62000355565b600160e01b6001600160e01b0319831601620002cf5760405162461bcd60e51b815260206004820152601f60248201527f496e74657266616365446574656374696f6e3a2077726f6e672076616c756500604482015260640160405180910390fd5b6001600160e01b03199190911660009081526020929092526040909120805460ff1916911515919091179055565b6001600160a01b03811681146200031357600080fd5b50565b600080604083850312156200032a57600080fd5b82516200033781620002fd565b60208401519092506200034a81620002fd565b809150509250929050565b81810381811115620000ff57634e487b7160e01b600052601160045260246000fd5b608051614475620003a8600039600081816102f40152818161038f015281816129e20152612a6a01526144756000f3fe608060405234801561001057600080fd5b506004361061020a5760003560e01c80637e518ec81161012a578063c3666c36116100bd578063e8ab9ccc1161008c578063f242432a11610071578063f242432a1461050c578063f2fde38b1461051f578063f7ba94bd1461053257600080fd5b8063e8ab9ccc146104e6578063e985e9c5146104f957600080fd5b8063c3666c361461048f578063d5391393146104a2578063d547741f146104c9578063e1a8bf2c146104dc57600080fd5b80638dc251e3116100f95780638dc251e31461044e57806391d1485414610461578063a22cb46514610474578063b0ccc31e1461048757600080fd5b80637e518ec81461040d57806380534934146104205780638bb9c5bf146104335780638da5cb5b1461044657600080fd5b80632eb2c2d6116101a25780635b2bd79e116101715780635b2bd79e146103cc5780635cfa9297146103d457806361ba27da146103e757806373c8a958146103fa57600080fd5b80632eb2c2d6146103395780632f2ff15d1461034c5780634e1273f41461035f578063572b6c051461037f57600080fd5b8063114ba8ee116101de578063114ba8ee1461028d578063124d91e5146102a05780632a55205a146102b35780632b4c9f16146102f257600080fd5b8062fdd58e1461020f57806301ffc9a7146102355780630d6a5bbb146102585780630e89341c1461026d575b600080fd5b61022261021d3660046136fe565b610545565b6040519081526020015b60405180910390f35b610248610243366004613758565b610564565b604051901515815260200161022c565b61026b610266366004613803565b610578565b005b61028061027b3660046138b0565b610673565b60405161022c9190613937565b61026b61029b36600461394a565b610687565b61026b6102ae366004613967565b6106f2565b6102c66102c136600461399c565b610716565b6040805173ffffffffffffffffffffffffffffffffffffffff909316835260208301919091520161022c565b7f00000000000000000000000000000000000000000000000000000000000000005b60405173ffffffffffffffffffffffffffffffffffffffff909116815260200161022c565b61026b6103473660046139be565b610739565b61026b61035a366004613a7d565b610786565b61037261036d366004613aad565b6107b4565b60405161022c9190613b54565b61024861038d36600461394a565b7f000000000000000000000000000000000000000000000000000000000000000073ffffffffffffffffffffffffffffffffffffffff90811691161490565b6102806107d9565b61026b6103e2366004613b67565b6107f0565b61026b6103f53660046138b0565b610882565b61026b610408366004613bd1565b61089f565b61026b61041b366004613c6b565b6109bd565b61026b61042e366004613cad565b6109e0565b61026b6104413660046138b0565b610a0a565b610314610a25565b61026b61045c36600461394a565b610a4c565b61024861046f366004613a7d565b610a69565b61026b610482366004613d2d565b610aad565b610314610ae2565b61026b61049d366004613bd1565b610aef565b6102227f6d696e746572000000000000000000000000000000000000000000000000000081565b61026b6104d7366004613a7d565b610c94565b610222620186a081565b61026b6104f4366004613d5b565b610cc2565b610248610507366004613dfe565b610ddc565b61026b61051a366004613e2c565b610e2a565b61026b61052d36600461394a565b610e6a565b61026b610540366004613aad565b610e85565b600061055b8383610554610f6b565b9190610f99565b90505b92915050565b600061055e8261057261104d565b9061107b565b6000610582611155565b90506105b87f6d696e7465720000000000000000000000000000000000000000000000000000826105b161115f565b919061118d565b610669818989898080602002602001604051908101604052809392919081815260200183836020028082843760009201919091525050604080516020808d0282810182019093528c82529093508c92508b91829185019084908082843760009201919091525050604080516020601f8c018190048102820181019092528a815292508a915089908190840183828082843760009201919091525061065f9250610f6b915050565b9493929190611239565b5050505050505050565b606061055e8261068161141e565b9061144c565b6106a0610692611155565b61069a611480565b906114ae565b6106ef816106ac611531565b9081547fffffffffffffffffffffffff00000000000000000000000000000000000000001673ffffffffffffffffffffffffffffffffffffffff91909116179055565b50565b6107116106fd611155565b848484610708610f6b565b939291906115a1565b505050565b60008061072d848461072661167e565b91906116ac565b915091505b9250929050565b6000610743611155565b9050610759818a610752611531565b9190611756565b61077b818a8a8a8a8a8a8a8a61076d610f6b565b989796959493929190611793565b505050505050505050565b6000610790611155565b905061079e8161069a611480565b6107118383836107ac61115f565b929190611a8b565b60606107ce858585856107c5610f6b565b93929190611b62565b90505b949350505050565b60606107eb6107e661141e565b611ca0565b905090565b60006107fa611155565b90506108297f6d696e7465720000000000000000000000000000000000000000000000000000826105b161115f565b61087a8187878787878080601f0160208091040260200160405190810160405280939291908181526020018383808284376000920191909152506108709250610f6b915050565b9493929190611d36565b505050505050565b61088d610692611155565b6106ef8161089961167e565b90611e44565b6108aa610692611155565b8483811480156108b957508082145b610924576040517f08c379a000000000000000000000000000000000000000000000000000000000815260206004820152601d60248201527f5265636f766572793a20696e636f6e73697374656e742061727261797300000060448201526064015b60405180910390fd5b60005b818114610669576109b588888381811061094357610943613e96565b9050602002016020810190610958919061394a565b85858481811061096a5761096a613e96565b9050602002013588888581811061098357610983613e96565b9050602002016020810190610998919061394a565b73ffffffffffffffffffffffffffffffffffffffff169190611eca565b600101610927565b6109c8610692611155565b6109dc82826109d561141e565b9190611f57565b5050565b610a036109eb611155565b86868686866109f8610f6b565b959493929190611fa2565b5050505050565b6106ef610a15611155565b82610a1e61115f565b9190612159565b60006107eb610a32611480565b5473ffffffffffffffffffffffffffffffffffffffff1690565b610a57610692611155565b6106ef81610a6361167e565b906121f5565b600061055b8383610a7861115f565b60009283526020908152604080842073ffffffffffffffffffffffffffffffffffffffff909316845291905290205460ff1690565b8015610ac557610ac582610abf611531565b90612242565b6109dc610ad0611155565b8383610ada610f6b565b92919061224c565b60006107eb610a32611531565b610afa610692611155565b848381148015610b0957508082145b610b6f576040517f08c379a000000000000000000000000000000000000000000000000000000000815260206004820152601d60248201527f5265636f766572793a20696e636f6e73697374656e7420617272617973000000604482015260640161091b565b60005b81811461066957858582818110610b8b57610b8b613e96565b9050602002016020810190610ba0919061394a565b73ffffffffffffffffffffffffffffffffffffffff166323b872dd308a8a85818110610bce57610bce613e96565b9050602002016020810190610be3919061394a565b878786818110610bf557610bf5613e96565b6040517fffffffff0000000000000000000000000000000000000000000000000000000060e088901b16815273ffffffffffffffffffffffffffffffffffffffff958616600482015294909316602485015250602090910201356044820152606401600060405180830381600087803b158015610c7157600080fd5b505af1158015610c85573d6000803e3d6000fd5b50505050806001019050610b72565b6000610c9e611155565b9050610cac8161069a611480565b610711838383610cba61115f565b92919061237c565b6000610ccc611155565b9050610cfb7f6d696e7465720000000000000000000000000000000000000000000000000000826105b161115f565b61077b818a8a8080602002602001604051908101604052809392919081815260200183836020028082843760009201919091525050604080516020808e0282810182019093528d82529093508d92508c91829185019084908082843760009201919091525050604080516020808d0282810182019093528c82529093508c92508b91829185019084908082843760009201919091525050604080516020601f8c018190048102820181019092528a815292508a9150899081908401838280828437600092019190915250610dd29250610f6b915050565b9493929190612446565b600061055b8383610deb610f6b565b919073ffffffffffffffffffffffffffffffffffffffff9182166000908152600193909301602090815260408085209290931684525290205460ff1690565b6000610e34611155565b9050610e438188610752611531565b610e6181888888888888610e55610f6b565b96959493929190612536565b50505050505050565b6106ef610e75611155565b82610e7e611480565b9190612719565b610e90610692611155565b82818114610efa576040517f08c379a000000000000000000000000000000000000000000000000000000000815260206004820152601d60248201527f5265636f766572793a20696e636f6e73697374656e7420617272617973000000604482015260640161091b565b60005b81811461087a57610f63848483818110610f1957610f19613e96565b90506020020135878784818110610f3257610f32613e96565b9050602002016020810190610f47919061394a565b73ffffffffffffffffffffffffffffffffffffffff1690612845565b600101610efd565b60008061055e60017f5ccf5846fa27a68fafc8e588671a68f5e67c2f9b56af4263806a4d71735e8613613ef4565b600073ffffffffffffffffffffffffffffffffffffffff8316611018576040517f08c379a000000000000000000000000000000000000000000000000000000000815260206004820152601e60248201527f455243313135353a2062616c616e6365206f6620616464726573732830290000604482015260640161091b565b5060009081526020928352604080822073ffffffffffffffffffffffffffffffffffffffff9390931682529190925290205490565b60008061055e60017fca9d3e17f264b0f3984e2634e94adb37fa3e6a8103f06aeae6fa59e21c769f5e613ef4565b60007c01000000000000000000000000000000000000000000000000000000007fffffffff000000000000000000000000000000000000000000000000000000008316016110cb5750600061055e565b7ffe003659000000000000000000000000000000000000000000000000000000007fffffffff0000000000000000000000000000000000000000000000000000000083160161111c5750600161055e565b507fffffffff00000000000000000000000000000000000000000000000000000000166000908152602091909152604090205460ff1690565b60006107eb61299f565b60008061055e60017fc8827d3282af6f37b64c3e9e6f3ac9df286ab0bb0fccd6f8661bf19adb368b23613ef4565b60008281526020848152604080832073ffffffffffffffffffffffffffffffffffffffff8516845290915290205460ff16610711576111cb82612ae6565b6040516020016111db9190613f07565b604080517fffffffffffffffffffffffffffffffffffffffffffffffffffffffffffffffe0818403018152908290527f08c379a000000000000000000000000000000000000000000000000000000000825261091b91600401613937565b73ffffffffffffffffffffffffffffffffffffffff84166112b6576040517f08c379a000000000000000000000000000000000000000000000000000000000815260206004820152601b60248201527f455243313135353a206d696e7420746f20616464726573732830290000000000604482015260640161091b565b825182518114611322576040517f08c379a000000000000000000000000000000000000000000000000000000000815260206004820152601c60248201527f455243313135353a20696e636f6e73697374656e742061727261797300000000604482015260640161091b565b60005b8181146113725761136a888787848151811061134357611343613e96565b602002602001015187858151811061135d5761135d613e96565b6020026020010151612c78565b600101611325565b508473ffffffffffffffffffffffffffffffffffffffff16600073ffffffffffffffffffffffffffffffffffffffff168773ffffffffffffffffffffffffffffffffffffffff167f4a39dc06d4c0dbc64b70af90fd698a233a518aa5d07e595d983b8c0526c8f7fb87876040516113ea929190613f73565b60405180910390a473ffffffffffffffffffffffffffffffffffffffff85163b15610e6157610e6186600087878787612d4c565b60008061055e60017fe94434e3c6b941c5d90218142fadcc69cb2e13723993540bfa1c131dd1d3475a613ef4565b60608261145883612e74565b604051602001611469929190613ff4565b604051602081830303815290604052905092915050565b60008061055e60017fc9ed16f33ab3a66c84bfd83099ccb2a8845871e2e1c1928f63797152f0fd54cd613ef4565b815473ffffffffffffffffffffffffffffffffffffffff8281169116146109dc576040517f08c379a000000000000000000000000000000000000000000000000000000000815260206004820152601860248201527f4f776e6572736869703a206e6f7420746865206f776e65720000000000000000604482015260640161091b565b60008061055e60017f609b85bcafa81ecfaf3ff62cdde2c6c9082a68dbe4922f07399c706bdeb7cd31613ef4565b81547fffffffffffffffffffffffff00000000000000000000000000000000000000001673ffffffffffffffffffffffffffffffffffffffff91909116179055565b6115ac858486612f32565b611612576040517f08c379a000000000000000000000000000000000000000000000000000000000815260206004820152601c60248201527f455243313135353a206e6f6e2d617070726f7665642073656e64657200000000604482015260640161091b565b61161e85848484612fa7565b604080518381526020810183905260009173ffffffffffffffffffffffffffffffffffffffff86811692908816917fc3d58168c5ae7397731d063d5bbf3d657854427343f4c083240f7aacaa2d0f62910160405180910390a45050505050565b60008061055e60017f2c0cf10337caabbd02dcf226f05f5fd19a0919a41a8df8958c39b80007826858613ef4565b825473ffffffffffffffffffffffffffffffffffffffff8116906000907401000000000000000000000000000000000000000090046bffffffffffffffffffffffff168315806116fa575080155b15611708576000915061174d565b620186a084101561173257620186a06117218286614099565b61172b91906140b0565b915061174d565b80611740620186a0866140b0565b61174a9190614099565b91505b50935093915050565b8073ffffffffffffffffffffffffffffffffffffffff168273ffffffffffffffffffffffffffffffffffffffff1614610711576107118383613047565b73ffffffffffffffffffffffffffffffffffffffff8716611810576040517f08c379a000000000000000000000000000000000000000000000000000000000815260206004820152601f60248201527f455243313135353a207472616e7366657220746f206164647265737328302900604482015260640161091b565b8483811461187a576040517f08c379a000000000000000000000000000000000000000000000000000000000815260206004820152601c60248201527f455243313135353a20696e636f6e73697374656e742061727261797300000000604482015260640161091b565b6118858b8a8c612f32565b6118eb576040517f08c379a000000000000000000000000000000000000000000000000000000000815260206004820152601c60248201527f455243313135353a206e6f6e2d617070726f7665642073656e64657200000000604482015260640161091b565b60005b81811461193a576119328c8b8b8b8b8681811061190d5761190d613e96565b905060200201358a8a8781811061192657611926613e96565b9050602002013561316e565b6001016118ee565b508773ffffffffffffffffffffffffffffffffffffffff168973ffffffffffffffffffffffffffffffffffffffff168b73ffffffffffffffffffffffffffffffffffffffff167f4a39dc06d4c0dbc64b70af90fd698a233a518aa5d07e595d983b8c0526c8f7fb8a8a8a8a6040516119b59493929190614136565b60405180910390a473ffffffffffffffffffffffffffffffffffffffff88163b15611a7e57611a7e8a8a8a8a8a8080602002602001604051908101604052809392919081815260200183836020028082843760009201919091525050604080516020808e0282810182019093528d82529093508d92508c91829185019084908082843760009201919091525050604080516020601f8d018190048102820181019092528b815292508b91508a9081908401838280828437600092019190915250612d4c92505050565b5050505050505050505050565b60008381526020858152604080832073ffffffffffffffffffffffffffffffffffffffff8616845290915290205460ff16611b5c5760008381526020858152604080832073ffffffffffffffffffffffffffffffffffffffff8681168086529184529382902080547fffffffffffffffffffffffffffffffffffffffffffffffffffffffffffffff00166001179055815187815292830152918316918101919091527f2f8788117e7eff1d82e926ec794901d17c78024a50270940304540a733656f0d906060015b60405180910390a15b50505050565b606083828114611bce576040517f08c379a000000000000000000000000000000000000000000000000000000000815260206004820152601c60248201527f455243313135353a20696e636f6e73697374656e742061727261797300000000604482015260640161091b565b8467ffffffffffffffff811115611be757611be761415d565b604051908082528060200260200182016040528015611c10578160200160208202803683370190505b50915060005b818114611c9557611c70878783818110611c3257611c32613e96565b9050602002016020810190611c47919061394a565b868684818110611c5957611c59613e96565b905060200201358a610f999092919063ffffffff16565b838281518110611c8257611c82613e96565b6020908102919091010152600101611c16565b505095945050505050565b6060816000018054611cb190613fa1565b80601f0160208091040260200160405190810160405280929190818152602001828054611cdd90613fa1565b8015611d2a5780601f10611cff57610100808354040283529160200191611d2a565b820191906000526020600020905b815481529060010190602001808311611d0d57829003601f168201915b50505050509050919050565b73ffffffffffffffffffffffffffffffffffffffff8416611db3576040517f08c379a000000000000000000000000000000000000000000000000000000000815260206004820152601b60248201527f455243313135353a206d696e7420746f20616464726573732830290000000000604482015260640161091b565b611dbf86858585612c78565b604080518481526020810184905273ffffffffffffffffffffffffffffffffffffffff80871692600092918916917fc3d58168c5ae7397731d063d5bbf3d657854427343f4c083240f7aacaa2d0f62910160405180910390a473ffffffffffffffffffffffffffffffffffffffff84163b1561087a5761087a85600086868686613321565b620186a0811115611e84576040517f3affc6c40000000000000000000000000000000000000000000000000000000081526004810182905260240161091b565b81546bffffffffffffffffffffffff909116740100000000000000000000000000000000000000000273ffffffffffffffffffffffffffffffffffffffff909116179055565b6040805173ffffffffffffffffffffffffffffffffffffffff8416602482015260448082018490528251808303909101815260649091019091526020810180517bffffffffffffffffffffffffffffffffffffffffffffffffffffffff167fa9059cbb0000000000000000000000000000000000000000000000000000000017905261071190849061337d565b82611f638284836141d2565b507f04b1dc5c136a3ce9fded8db0ce3d3366c58764ec3a8e4c2b9e52e4ddfe5ebbf78282604051611f959291906142ec565b60405180910390a1505050565b8281811461200c576040517f08c379a000000000000000000000000000000000000000000000000000000000815260206004820152601c60248201527f455243313135353a20696e636f6e73697374656e742061727261797300000000604482015260640161091b565b612017888789612f32565b61207d576040517f08c379a000000000000000000000000000000000000000000000000000000000815260206004820152601c60248201527f455243313135353a206e6f6e2d617070726f7665642073656e64657200000000604482015260640161091b565b60005b8181146120cb576120c3898888888581811061209e5761209e613e96565b905060200201358787868181106120b7576120b7613e96565b90506020020135612fa7565b600101612080565b50600073ffffffffffffffffffffffffffffffffffffffff168673ffffffffffffffffffffffffffffffffffffffff168873ffffffffffffffffffffffffffffffffffffffff167f4a39dc06d4c0dbc64b70af90fd698a233a518aa5d07e595d983b8c0526c8f7fb888888886040516121479493929190614136565b60405180910390a45050505050505050565b61216483828461118d565b60008181526020848152604080832073ffffffffffffffffffffffffffffffffffffffff86168085529083529281902080547fffffffffffffffffffffffffffffffffffffffffffffffffffffffffffffff0016905580518481529182018390528101919091527ff6391f5c32d9c69d2a47ea670b442974b53935d1edc7fd64eb21e047a839171b90606001611f95565b73ffffffffffffffffffffffffffffffffffffffff811661155f576040517f6fe1b4c800000000000000000000000000000000000000000000000000000000815260040160405180910390fd5b6109dc8282613047565b8273ffffffffffffffffffffffffffffffffffffffff168273ffffffffffffffffffffffffffffffffffffffff16036122e1576040517f08c379a000000000000000000000000000000000000000000000000000000000815260206004820152601e60248201527f455243313135353a2073656c662d617070726f76616c20666f7220616c6c0000604482015260640161091b565b73ffffffffffffffffffffffffffffffffffffffff838116600081815260018701602090815260408083209487168084529482529182902080547fffffffffffffffffffffffffffffffffffffffffffffffffffffffffffffff001686151590811790915591519182527f17307eab39ab6107e8899845ad3d59bd9653f200f220920489ca2b5937696c31910160405180910390a350505050565b60008381526020858152604080832073ffffffffffffffffffffffffffffffffffffffff8616845290915290205460ff1615611b5c5760008381526020858152604080832073ffffffffffffffffffffffffffffffffffffffff8681168086529184529382902080547fffffffffffffffffffffffffffffffffffffffffffffffffffffffffffffff00169055815187815292830152918316918101919091527ff6391f5c32d9c69d2a47ea670b442974b53935d1edc7fd64eb21e047a839171b90606001611b53565b83518351811480156124585750825181145b6124be576040517f08c379a000000000000000000000000000000000000000000000000000000000815260206004820152601c60248201527f455243313135353a20696e636f6e73697374656e742061727261797300000000604482015260640161091b565b60005b8181146106695761252e878783815181106124de576124de613e96565b60200260200101518784815181106124f8576124f8613e96565b602002602001015187858151811061251257612512613e96565b6020026020010151878d611d369095949392919063ffffffff16565b6001016124c1565b73ffffffffffffffffffffffffffffffffffffffff85166125b3576040517f08c379a000000000000000000000000000000000000000000000000000000000815260206004820152601f60248201527f455243313135353a207472616e7366657220746f206164647265737328302900604482015260640161091b565b6125be888789612f32565b612624576040517f08c379a000000000000000000000000000000000000000000000000000000000815260206004820152601c60248201527f455243313135353a206e6f6e2d617070726f7665642073656e64657200000000604482015260640161091b565b612631888787878761316e565b8473ffffffffffffffffffffffffffffffffffffffff168673ffffffffffffffffffffffffffffffffffffffff168873ffffffffffffffffffffffffffffffffffffffff167fc3d58168c5ae7397731d063d5bbf3d657854427343f4c083240f7aacaa2d0f6287876040516126b0929190918252602082015260400190565b60405180910390a473ffffffffffffffffffffffffffffffffffffffff85163b1561066957610669878787878787878080601f01602080910402602001604051908101604052809392919081815260200183838082843760009201919091525061332192505050565b825473ffffffffffffffffffffffffffffffffffffffff908116908316811461279e576040517f08c379a000000000000000000000000000000000000000000000000000000000815260206004820152601860248201527f4f776e6572736869703a206e6f7420746865206f776e65720000000000000000604482015260640161091b565b8173ffffffffffffffffffffffffffffffffffffffff168173ffffffffffffffffffffffffffffffffffffffff1614611b5c5783547fffffffffffffffffffffffff00000000000000000000000000000000000000001673ffffffffffffffffffffffffffffffffffffffff8381169182178655604051908316907f8be0079c531659141344cd1fd0a4f28419497f9722a3daafe3b4186f6b6457e090600090a350505050565b804710156128af576040517f08c379a000000000000000000000000000000000000000000000000000000000815260206004820152601d60248201527f416464726573733a20696e73756666696369656e742062616c616e6365000000604482015260640161091b565b60008273ffffffffffffffffffffffffffffffffffffffff168260405160006040518083038185875af1925050503d8060008114612909576040519150601f19603f3d011682016040523d82523d6000602084013e61290e565b606091505b5050905080610711576040517f08c379a000000000000000000000000000000000000000000000000000000000815260206004820152603a60248201527f416464726573733a20756e61626c6520746f2073656e642076616c75652c207260448201527f6563697069656e74206d61792068617665207265766572746564000000000000606482015260840161091b565b6000333214806129af5750601836105b156129b957503390565b7fffffffffffffffffffffffffffffffffffffffffffffffffffffffffffffffec36013560601c7f000000000000000000000000000000000000000000000000000000000000000073ffffffffffffffffffffffffffffffffffffffff16331480612ad557506040517f8929a8ca00000000000000000000000000000000000000000000000000000000815273ffffffffffffffffffffffffffffffffffffffff82811660048301523360248301527f00000000000000000000000000000000000000000000000000000000000000001690638929a8ca90604401602060405180830381865afa158015612ab1573d6000803e3d6000fd5b505050506040513d601f19601f82011682018060405250810190612ad59190614339565b15612adf57919050565b3391505090565b60606000829003612b0557505060408051602081019091526000815290565b600082604051602001612b1a91815260200190565b604080517fffffffffffffffffffffffffffffffffffffffffffffffffffffffffffffffe08184030181529190529050601f5b818181518110612b5f57612b5f613e96565b01602001517fff0000000000000000000000000000000000000000000000000000000000000016600003612bb4577fffffffffffffffffffffffffffffffffffffffffffffffffffffffffffffffff01612b4d565b60008160010167ffffffffffffffff811115612bd257612bd261415d565b6040519080825280601f01601f191660200182016040528015612bfc576020820181803683370190505b50905060005b828111612c6f57838181518110612c1b57612c1b613e96565b602001015160f81c60f81b828281518110612c3857612c38613e96565b60200101907effffffffffffffffffffffffffffffffffffffffffffffffffffffffffffff1916908160001a905350600101612c02565b50949350505050565b8015611b5c5760008281526020858152604080832073ffffffffffffffffffffffffffffffffffffffff87168452909152902054818101818111612d18576040517f08c379a000000000000000000000000000000000000000000000000000000000815260206004820152601960248201527f455243313135353a2062616c616e6365206f766572666c6f7700000000000000604482015260640161091b565b60009384526020958652604080852073ffffffffffffffffffffffffffffffffffffffff9690961685529490955250502055565b6040517fbc197c81000000000000000000000000000000000000000000000000000000008082529073ffffffffffffffffffffffffffffffffffffffff86169063bc197c8190612da8908a908a90899089908990600401614356565b6020604051808303816000875af1158015612dc7573d6000803e3d6000fd5b505050506040513d601f19601f82011682018060405250810190612deb91906143c1565b7fffffffff00000000000000000000000000000000000000000000000000000000161461087a576040517f08c379a000000000000000000000000000000000000000000000000000000000815260206004820152601a60248201527f455243313135353a207472616e736665722072656a6563746564000000000000604482015260640161091b565b60606000612e8183613489565b600101905060008167ffffffffffffffff811115612ea157612ea161415d565b6040519080825280601f01601f191660200182016040528015612ecb576020820181803683370190505b5090508181016020015b7fffffffffffffffffffffffffffffffffffffffffffffffffffffffffffffffff017f3031323334353637383961626364656600000000000000000000000000000000600a86061a8153600a8504945084612ed557509392505050565b60008173ffffffffffffffffffffffffffffffffffffffff168373ffffffffffffffffffffffffffffffffffffffff1614806107d157505073ffffffffffffffffffffffffffffffffffffffff9182166000908152600193909301602090815260408085209290931684525290205460ff1690565b8015611b5c5760008281526020858152604080832073ffffffffffffffffffffffffffffffffffffffff87168452909152902054818103818110612d18576040517f08c379a000000000000000000000000000000000000000000000000000000000815260206004820152601d60248201527f455243313135353a20696e73756666696369656e742062616c616e6365000000604482015260640161091b565b815473ffffffffffffffffffffffffffffffffffffffff168015801590613085575060008173ffffffffffffffffffffffffffffffffffffffff163b115b15610711576040517fc617113400000000000000000000000000000000000000000000000000000000815230600482015273ffffffffffffffffffffffffffffffffffffffff838116602483015282169063c617113490604401602060405180830381865afa1580156130fc573d6000803e3d6000fd5b505050506040513d601f19601f820116820180604052508101906131209190614339565b610711576040517fede71dcc00000000000000000000000000000000000000000000000000000000815273ffffffffffffffffffffffffffffffffffffffff8316600482015260240161091b565b8015610a035760008281526020868152604080832073ffffffffffffffffffffffffffffffffffffffff8816845290915290205481810381811061320e576040517f08c379a000000000000000000000000000000000000000000000000000000000815260206004820152601d60248201527f455243313135353a20696e73756666696369656e742062616c616e6365000000604482015260640161091b565b8473ffffffffffffffffffffffffffffffffffffffff168673ffffffffffffffffffffffffffffffffffffffff1614610e615760008481526020888152604080832073ffffffffffffffffffffffffffffffffffffffff891684529091529020548381018181116132db576040517f08c379a000000000000000000000000000000000000000000000000000000000815260206004820152601960248201527f455243313135353a2062616c616e6365206f766572666c6f7700000000000000604482015260640161091b565b600086815260208a8152604080832073ffffffffffffffffffffffffffffffffffffffff808d1685528184528285208890558b1684529091529020555050505050505050565b6040517ff23a6e61000000000000000000000000000000000000000000000000000000008082529073ffffffffffffffffffffffffffffffffffffffff86169063f23a6e6190612da8908a908a908990899089906004016143de565b60006133df826040518060400160405280602081526020017f5361666545524332303a206c6f772d6c6576656c2063616c6c206661696c65648152508573ffffffffffffffffffffffffffffffffffffffff1661356b9092919063ffffffff16565b80519091501561071157808060200190518101906133fd9190614339565b610711576040517f08c379a000000000000000000000000000000000000000000000000000000000815260206004820152602a60248201527f5361666545524332303a204552433230206f7065726174696f6e20646964206e60448201527f6f74207375636365656400000000000000000000000000000000000000000000606482015260840161091b565b6000807a184f03e93ff9f4daa797ed6e38ed64bf6a1f01000000000000000083106134d2577a184f03e93ff9f4daa797ed6e38ed64bf6a1f010000000000000000830492506040015b6d04ee2d6d415b85acef810000000083106134fe576d04ee2d6d415b85acef8100000000830492506020015b662386f26fc10000831061351c57662386f26fc10000830492506010015b6305f5e1008310613534576305f5e100830492506008015b612710831061354857612710830492506004015b6064831061355a576064830492506002015b600a831061055e5760010192915050565b60606107d18484600085856000808673ffffffffffffffffffffffffffffffffffffffff16858760405161359f9190614423565b60006040518083038185875af1925050503d80600081146135dc576040519150601f19603f3d011682016040523d82523d6000602084013e6135e1565b606091505b50915091506135f2878383876135fd565b979650505050505050565b6060831561369357825160000361368c5773ffffffffffffffffffffffffffffffffffffffff85163b61368c576040517f08c379a000000000000000000000000000000000000000000000000000000000815260206004820152601d60248201527f416464726573733a2063616c6c20746f206e6f6e2d636f6e7472616374000000604482015260640161091b565b50816107d1565b6107d183838151156136a85781518083602001fd5b806040517f08c379a000000000000000000000000000000000000000000000000000000000815260040161091b9190613937565b73ffffffffffffffffffffffffffffffffffffffff811681146106ef57600080fd5b6000806040838503121561371157600080fd5b823561371c816136dc565b946020939093013593505050565b7fffffffff00000000000000000000000000000000000000000000000000000000811681146106ef57600080fd5b60006020828403121561376a57600080fd5b81356137758161372a565b9392505050565b60008083601f84011261378e57600080fd5b50813567ffffffffffffffff8111156137a657600080fd5b6020830191508360208260051b850101111561073257600080fd5b60008083601f8401126137d357600080fd5b50813567ffffffffffffffff8111156137eb57600080fd5b60208301915083602082850101111561073257600080fd5b60008060008060008060006080888a03121561381e57600080fd5b8735613829816136dc565b9650602088013567ffffffffffffffff8082111561384657600080fd5b6138528b838c0161377c565b909850965060408a013591508082111561386b57600080fd5b6138778b838c0161377c565b909650945060608a013591508082111561389057600080fd5b5061389d8a828b016137c1565b989b979a50959850939692959293505050565b6000602082840312156138c257600080fd5b5035919050565b60005b838110156138e45781810151838201526020016138cc565b50506000910152565b600081518084526139058160208601602086016138c9565b601f017fffffffffffffffffffffffffffffffffffffffffffffffffffffffffffffffe0169290920160200192915050565b60208152600061055b60208301846138ed565b60006020828403121561395c57600080fd5b8135613775816136dc565b60008060006060848603121561397c57600080fd5b8335613987816136dc565b95602085013595506040909401359392505050565b600080604083850312156139af57600080fd5b50508035926020909101359150565b60008060008060008060008060a0898b0312156139da57600080fd5b88356139e5816136dc565b975060208901356139f5816136dc565b9650604089013567ffffffffffffffff80821115613a1257600080fd5b613a1e8c838d0161377c565b909850965060608b0135915080821115613a3757600080fd5b613a438c838d0161377c565b909650945060808b0135915080821115613a5c57600080fd5b50613a698b828c016137c1565b999c989b5096995094979396929594505050565b60008060408385031215613a9057600080fd5b823591506020830135613aa2816136dc565b809150509250929050565b60008060008060408587031215613ac357600080fd5b843567ffffffffffffffff80821115613adb57600080fd5b613ae78883890161377c565b90965094506020870135915080821115613b0057600080fd5b50613b0d8782880161377c565b95989497509550505050565b600081518084526020808501945080840160005b83811015613b4957815187529582019590820190600101613b2d565b509495945050505050565b60208152600061055b6020830184613b19565b600080600080600060808688031215613b7f57600080fd5b8535613b8a816136dc565b94506020860135935060408601359250606086013567ffffffffffffffff811115613bb457600080fd5b613bc0888289016137c1565b969995985093965092949392505050565b60008060008060008060608789031215613bea57600080fd5b863567ffffffffffffffff80821115613c0257600080fd5b613c0e8a838b0161377c565b90985096506020890135915080821115613c2757600080fd5b613c338a838b0161377c565b90965094506040890135915080821115613c4c57600080fd5b50613c5989828a0161377c565b979a9699509497509295939492505050565b60008060208385031215613c7e57600080fd5b823567ffffffffffffffff811115613c9557600080fd5b613ca1858286016137c1565b90969095509350505050565b600080600080600060608688031215613cc557600080fd5b8535613cd0816136dc565b9450602086013567ffffffffffffffff80821115613ced57600080fd5b613cf989838a0161377c565b90965094506040880135915080821115613d1257600080fd5b50613bc08882890161377c565b80151581146106ef57600080fd5b60008060408385031215613d4057600080fd5b8235613d4b816136dc565b91506020830135613aa281613d1f565b6000806000806000806000806080898b031215613d7757600080fd5b883567ffffffffffffffff80821115613d8f57600080fd5b613d9b8c838d0161377c565b909a50985060208b0135915080821115613db457600080fd5b613dc08c838d0161377c565b909850965060408b0135915080821115613dd957600080fd5b613de58c838d0161377c565b909650945060608b0135915080821115613a5c57600080fd5b60008060408385031215613e1157600080fd5b8235613e1c816136dc565b91506020830135613aa2816136dc565b60008060008060008060a08789031215613e4557600080fd5b8635613e50816136dc565b95506020870135613e60816136dc565b94506040870135935060608701359250608087013567ffffffffffffffff811115613e8a57600080fd5b613c5989828a016137c1565b7f4e487b7100000000000000000000000000000000000000000000000000000000600052603260045260246000fd5b7f4e487b7100000000000000000000000000000000000000000000000000000000600052601160045260246000fd5b8181038181111561055e5761055e613ec5565b7f416363657373436f6e74726f6c3a206d697373696e6720270000000000000000815260008251613f3f8160188501602087016138c9565b7f2720726f6c6500000000000000000000000000000000000000000000000000006018939091019283015250601e01919050565b604081526000613f866040830185613b19565b8281036020840152613f988185613b19565b95945050505050565b600181811c90821680613fb557607f821691505b602082108103613fee577f4e487b7100000000000000000000000000000000000000000000000000000000600052602260045260246000fd5b50919050565b600080845461400281613fa1565b6001828116801561401a576001811461404d5761407c565b7fffffffffffffffffffffffffffffffffffffffffffffffffffffffffffffff008416875282151583028701945061407c565b8860005260208060002060005b858110156140735781548a82015290840190820161405a565b50505082870194505b5050505083516140908183602088016138c9565b01949350505050565b808202811582820484141761055e5761055e613ec5565b6000826140e6577f4e487b7100000000000000000000000000000000000000000000000000000000600052601260045260246000fd5b500490565b81835260007f07ffffffffffffffffffffffffffffffffffffffffffffffffffffffffffffff83111561411d57600080fd5b8260051b80836020870137939093016020019392505050565b60408152600061414a6040830186886140eb565b82810360208401526135f28185876140eb565b7f4e487b7100000000000000000000000000000000000000000000000000000000600052604160045260246000fd5b601f82111561071157600081815260208120601f850160051c810160208610156141b35750805b601f850160051c820191505b8181101561087a578281556001016141bf565b67ffffffffffffffff8311156141ea576141ea61415d565b6141fe836141f88354613fa1565b8361418c565b6000601f841160018114614250576000851561421a5750838201355b7fffffffffffffffffffffffffffffffffffffffffffffffffffffffffffffffff600387901b1c1916600186901b178355610a03565b6000838152602090207fffffffffffffffffffffffffffffffffffffffffffffffffffffffffffffffe0861690835b8281101561429f578685013582556020948501946001909201910161427f565b50868210156142da577fffffffffffffffffffffffffffffffffffffffffffffffffffffffffffffffff60f88860031b161c19848701351681555b505060018560011b0183555050505050565b60208152816020820152818360408301376000818301604090810191909152601f9092017fffffffffffffffffffffffffffffffffffffffffffffffffffffffffffffffe0160101919050565b60006020828403121561434b57600080fd5b815161377581613d1f565b600073ffffffffffffffffffffffffffffffffffffffff808816835280871660208401525060a0604083015261438f60a0830186613b19565b82810360608401526143a18186613b19565b905082810360808401526143b581856138ed565b98975050505050505050565b6000602082840312156143d357600080fd5b81516137758161372a565b600073ffffffffffffffffffffffffffffffffffffffff808816835280871660208401525084604083015283606083015260a060808301526135f260a08301846138ed565b600082516144358184602087016138c9565b919091019291505056fea2646970667358221220c2d8c955cb20cf4cac190d7421241b40ae1633f8a93c6129b750540814d692cd64736f6c63430008130033",
  "linkReferences": {},
  "deployedLinkReferences": {}
}