{
  "_format": "hh-sol-artifact-1",
  "contractName": "REVVMotorsportVouchers",
  "sourceName": "contracts/token/ERC1155/REVVMotorsportVouchers.sol",
  "abi": [
    {
      "inputs": [
        {
          "internalType": "contract IForwarderRegistry",
          "name": "forwarderRegistry",
          "type": "address"
        }
      ],
      "stateMutability": "nonpayable",
      "type": "constructor"
    },
    {
      "anonymous": false,
      "inputs": [
        {
          "indexed": true,
          "internalType": "address",
          "name": "owner",
          "type": "address"
        },
        {
          "indexed": true,
          "internalType": "address",
          "name": "operator",
          "type": "address"
        },
        {
          "indexed": false,
          "internalType": "bool",
          "name": "approved",
          "type": "bool"
        }
      ],
      "name": "ApprovalForAll",
      "type": "event"
    },
    {
      "anonymous": false,
      "inputs": [
        {
          "indexed": false,
          "internalType": "string",
          "name": "baseMetadataURI",
          "type": "string"
        }
      ],
      "name": "BaseMetadataURISet",
      "type": "event"
    },
    {
      "anonymous": false,
      "inputs": [
        {
          "indexed": true,
          "internalType": "address",
          "name": "previousOwner",
          "type": "address"
        },
        {
          "indexed": true,
          "internalType": "address",
          "name": "newOwner",
          "type": "address"
        }
      ],
      "name": "OwnershipTransferred",
      "type": "event"
    },
    {
      "anonymous": false,
      "inputs": [
        {
          "indexed": false,
          "internalType": "bytes32",
          "name": "role",
          "type": "bytes32"
        },
        {
          "indexed": false,
          "internalType": "address",
          "name": "account",
          "type": "address"
        },
        {
          "indexed": false,
          "internalType": "address",
          "name": "operator",
          "type": "address"
        }
      ],
      "name": "RoleGranted",
      "type": "event"
    },
    {
      "anonymous": false,
      "inputs": [
        {
          "indexed": false,
          "internalType": "bytes32",
          "name": "role",
          "type": "bytes32"
        },
        {
          "indexed": false,
          "internalType": "address",
          "name": "account",
          "type": "address"
        },
        {
          "indexed": false,
          "internalType": "address",
          "name": "operator",
          "type": "address"
        }
      ],
      "name": "RoleRevoked",
      "type": "event"
    },
    {
      "anonymous": false,
      "inputs": [
        {
          "indexed": true,
          "internalType": "address",
          "name": "operator",
          "type": "address"
        },
        {
          "indexed": true,
          "internalType": "address",
          "name": "from",
          "type": "address"
        },
        {
          "indexed": true,
          "internalType": "address",
          "name": "to",
          "type": "address"
        },
        {
          "indexed": false,
          "internalType": "uint256[]",
          "name": "ids",
          "type": "uint256[]"
        },
        {
          "indexed": false,
          "internalType": "uint256[]",
          "name": "values",
          "type": "uint256[]"
        }
      ],
      "name": "TransferBatch",
      "type": "event"
    },
    {
      "anonymous": false,
      "inputs": [
        {
          "indexed": true,
          "internalType": "address",
          "name": "operator",
          "type": "address"
        },
        {
          "indexed": true,
          "internalType": "address",
          "name": "from",
          "type": "address"
        },
        {
          "indexed": true,
          "internalType": "address",
          "name": "to",
          "type": "address"
        },
        {
          "indexed": false,
          "internalType": "uint256",
          "name": "id",
          "type": "uint256"
        },
        {
          "indexed": false,
          "internalType": "uint256",
          "name": "value",
          "type": "uint256"
        }
      ],
      "name": "TransferSingle",
      "type": "event"
    },
    {
      "anonymous": false,
      "inputs": [
        {
          "indexed": false,
          "internalType": "string",
          "name": "value",
          "type": "string"
        },
        {
          "indexed": true,
          "internalType": "uint256",
          "name": "id",
          "type": "uint256"
        }
      ],
      "name": "URI",
      "type": "event"
    },
    {
      "inputs": [],
      "name": "MINTER_ROLE",
      "outputs": [
        {
          "internalType": "bytes32",
          "name": "",
          "type": "bytes32"
        }
      ],
      "stateMutability": "view",
      "type": "function"
    },
    {
      "inputs": [
        {
          "internalType": "address",
          "name": "owner",
          "type": "address"
        },
        {
          "internalType": "uint256",
          "name": "id",
          "type": "uint256"
        }
      ],
      "name": "balanceOf",
      "outputs": [
        {
          "internalType": "uint256",
          "name": "balance",
          "type": "uint256"
        }
      ],
      "stateMutability": "view",
      "type": "function"
    },
    {
      "inputs": [
        {
          "internalType": "address[]",
          "name": "owners",
          "type": "address[]"
        },
        {
          "internalType": "uint256[]",
          "name": "ids",
          "type": "uint256[]"
        }
      ],
      "name": "balanceOfBatch",
      "outputs": [
        {
          "internalType": "uint256[]",
          "name": "balances",
          "type": "uint256[]"
        }
      ],
      "stateMutability": "view",
      "type": "function"
    },
    {
      "inputs": [],
      "name": "baseMetadataURI",
      "outputs": [
        {
          "internalType": "string",
          "name": "baseURI",
          "type": "string"
        }
      ],
      "stateMutability": "view",
      "type": "function"
    },
    {
      "inputs": [
        {
          "internalType": "address",
          "name": "from",
          "type": "address"
        },
        {
          "internalType": "uint256[]",
          "name": "ids",
          "type": "uint256[]"
        },
        {
          "internalType": "uint256[]",
          "name": "values",
          "type": "uint256[]"
        }
      ],
      "name": "batchBurnFrom",
      "outputs": [],
      "stateMutability": "nonpayable",
      "type": "function"
    },
    {
      "inputs": [
        {
          "internalType": "address",
          "name": "from",
          "type": "address"
        },
        {
          "internalType": "uint256",
          "name": "id",
          "type": "uint256"
        },
        {
          "internalType": "uint256",
          "name": "value",
          "type": "uint256"
        }
      ],
      "name": "burnFrom",
      "outputs": [],
      "stateMutability": "nonpayable",
      "type": "function"
    },
    {
      "inputs": [],
      "name": "forwarderRegistry",
      "outputs": [
        {
          "internalType": "contract IForwarderRegistry",
          "name": "",
          "type": "address"
        }
      ],
      "stateMutability": "view",
      "type": "function"
    },
    {
      "inputs": [
        {
          "internalType": "bytes32",
          "name": "role",
          "type": "bytes32"
        },
        {
          "internalType": "address",
          "name": "account",
          "type": "address"
        }
      ],
      "name": "grantRole",
      "outputs": [],
      "stateMutability": "nonpayable",
      "type": "function"
    },
    {
      "inputs": [
        {
          "internalType": "bytes32",
          "name": "role",
          "type": "bytes32"
        },
        {
          "internalType": "address",
          "name": "account",
          "type": "address"
        }
      ],
      "name": "hasRole",
      "outputs": [
        {
          "internalType": "bool",
          "name": "",
          "type": "bool"
        }
      ],
      "stateMutability": "view",
      "type": "function"
    },
    {
      "inputs": [
        {
          "internalType": "string",
          "name": "baseMetadataURI",
          "type": "string"
        }
      ],
      "name": "init",
      "outputs": [],
      "stateMutability": "nonpayable",
      "type": "function"
    },
    {
      "inputs": [
        {
          "internalType": "address",
          "name": "owner",
          "type": "address"
        },
        {
          "internalType": "address",
          "name": "operator",
          "type": "address"
        }
      ],
      "name": "isApprovedForAll",
      "outputs": [
        {
          "internalType": "bool",
          "name": "approvedForAll",
          "type": "bool"
        }
      ],
      "stateMutability": "view",
      "type": "function"
    },
    {
      "inputs": [
        {
          "internalType": "address",
          "name": "forwarder",
          "type": "address"
        }
      ],
      "name": "isTrustedForwarder",
      "outputs": [
        {
          "internalType": "bool",
          "name": "",
          "type": "bool"
        }
      ],
      "stateMutability": "view",
      "type": "function"
    },
    {
      "inputs": [],
      "name": "owner",
      "outputs": [
        {
          "internalType": "address",
          "name": "",
          "type": "address"
        }
      ],
      "stateMutability": "view",
      "type": "function"
    },
    {
      "inputs": [
        {
          "internalType": "address[]",
          "name": "accounts",
          "type": "address[]"
        },
        {
          "internalType": "contract IERC20[]",
          "name": "tokens",
          "type": "address[]"
        },
        {
          "internalType": "uint256[]",
          "name": "amounts",
          "type": "uint256[]"
        }
      ],
      "name": "recoverERC20s",
      "outputs": [],
      "stateMutability": "nonpayable",
      "type": "function"
    },
    {
      "inputs": [
        {
          "internalType": "address[]",
          "name": "accounts",
          "type": "address[]"
        },
        {
          "internalType": "contract IERC721[]",
          "name": "contracts",
          "type": "address[]"
        },
        {
          "internalType": "uint256[]",
          "name": "tokenIds",
          "type": "uint256[]"
        }
      ],
      "name": "recoverERC721s",
      "outputs": [],
      "stateMutability": "nonpayable",
      "type": "function"
    },
    {
      "inputs": [
        {
          "internalType": "address payable[]",
          "name": "accounts",
          "type": "address[]"
        },
        {
          "internalType": "uint256[]",
          "name": "amounts",
          "type": "uint256[]"
        }
      ],
      "name": "recoverETH",
      "outputs": [],
      "stateMutability": "nonpayable",
      "type": "function"
    },
    {
      "inputs": [
        {
          "internalType": "bytes32",
          "name": "role",
          "type": "bytes32"
        }
      ],
      "name": "renounceRole",
      "outputs": [],
      "stateMutability": "nonpayable",
      "type": "function"
    },
    {
      "inputs": [
        {
          "internalType": "bytes32",
          "name": "role",
          "type": "bytes32"
        },
        {
          "internalType": "address",
          "name": "account",
          "type": "address"
        }
      ],
      "name": "revokeRole",
      "outputs": [],
      "stateMutability": "nonpayable",
      "type": "function"
    },
    {
      "inputs": [
        {
          "internalType": "address",
          "name": "to",
          "type": "address"
        },
        {
          "internalType": "uint256[]",
          "name": "ids",
          "type": "uint256[]"
        },
        {
          "internalType": "uint256[]",
          "name": "values",
          "type": "uint256[]"
        },
        {
          "internalType": "bytes",
          "name": "data",
          "type": "bytes"
        }
      ],
      "name": "safeBatchMint",
      "outputs": [],
      "stateMutability": "nonpayable",
      "type": "function"
    },
    {
      "inputs": [
        {
          "internalType": "address",
          "name": "from",
          "type": "address"
        },
        {
          "internalType": "address",
          "name": "to",
          "type": "address"
        },
        {
          "internalType": "uint256[]",
          "name": "ids",
          "type": "uint256[]"
        },
        {
          "internalType": "uint256[]",
          "name": "values",
          "type": "uint256[]"
        },
        {
          "internalType": "bytes",
          "name": "data",
          "type": "bytes"
        }
      ],
      "name": "safeBatchTransferFrom",
      "outputs": [],
      "stateMutability": "nonpayable",
      "type": "function"
    },
    {
      "inputs": [
        {
          "internalType": "address[]",
          "name": "recipients",
          "type": "address[]"
        },
        {
          "internalType": "uint256[]",
          "name": "ids",
          "type": "uint256[]"
        },
        {
          "internalType": "uint256[]",
          "name": "values",
          "type": "uint256[]"
        },
        {
          "internalType": "bytes",
          "name": "data",
          "type": "bytes"
        }
      ],
      "name": "safeDeliver",
      "outputs": [],
      "stateMutability": "nonpayable",
      "type": "function"
    },
    {
      "inputs": [
        {
          "internalType": "address",
          "name": "to",
          "type": "address"
        },
        {
          "internalType": "uint256",
          "name": "id",
          "type": "uint256"
        },
        {
          "internalType": "uint256",
          "name": "value",
          "type": "uint256"
        },
        {
          "internalType": "bytes",
          "name": "data",
          "type": "bytes"
        }
      ],
      "name": "safeMint",
      "outputs": [],
      "stateMutability": "nonpayable",
      "type": "function"
    },
    {
      "inputs": [
        {
          "internalType": "address",
          "name": "from",
          "type": "address"
        },
        {
          "internalType": "address",
          "name": "to",
          "type": "address"
        },
        {
          "internalType": "uint256",
          "name": "id",
          "type": "uint256"
        },
        {
          "internalType": "uint256",
          "name": "value",
          "type": "uint256"
        },
        {
          "internalType": "bytes",
          "name": "data",
          "type": "bytes"
        }
      ],
      "name": "safeTransferFrom",
      "outputs": [],
      "stateMutability": "nonpayable",
      "type": "function"
    },
    {
      "inputs": [
        {
          "internalType": "address",
          "name": "operator",
          "type": "address"
        },
        {
          "internalType": "bool",
          "name": "approved",
          "type": "bool"
        }
      ],
      "name": "setApprovalForAll",
      "outputs": [],
      "stateMutability": "nonpayable",
      "type": "function"
    },
    {
      "inputs": [
        {
          "internalType": "string",
          "name": "baseURI",
          "type": "string"
        }
      ],
      "name": "setBaseMetadataURI",
      "outputs": [],
      "stateMutability": "nonpayable",
      "type": "function"
    },
    {
      "inputs": [
        {
          "internalType": "bytes4",
          "name": "interfaceId",
          "type": "bytes4"
        }
      ],
      "name": "supportsInterface",
      "outputs": [
        {
          "internalType": "bool",
          "name": "",
          "type": "bool"
        }
      ],
      "stateMutability": "view",
      "type": "function"
    },
    {
      "inputs": [
        {
          "internalType": "address",
          "name": "newOwner",
          "type": "address"
        }
      ],
      "name": "transferOwnership",
      "outputs": [],
      "stateMutability": "nonpayable",
      "type": "function"
    },
    {
      "inputs": [
        {
          "internalType": "uint256",
          "name": "id",
          "type": "uint256"
        }
      ],
      "name": "uri",
      "outputs": [
        {
          "internalType": "string",
          "name": "metadataURI",
          "type": "string"
        }
      ],
      "stateMutability": "view",
      "type": "function"
    }
  ],
  "bytecode": "0x60a06040523480156200001157600080fd5b50604051620043f0380380620043f0833981016040819052620000349162000046565b6001600160a01b031660805262000078565b6000602082840312156200005957600080fd5b81516001600160a01b03811681146200007157600080fd5b9392505050565b608051614347620000a96000396000818161025b015281816102f601528181612884015261292401526143476000f3fe608060405234801561001057600080fd5b50600436106101c35760003560e01c806380534934116100f9578063d547741f11610097578063f242432a11610071578063f242432a1461043b578063f2fde38b1461044e578063f7ba94bd14610461578063f9fbdb9e1461047457600080fd5b8063d547741f14610402578063e8ab9ccc14610415578063e985e9c51461042857600080fd5b806391d14854116100d357806391d14854146103a2578063a22cb465146103b5578063c3666c36146103c8578063d5391393146103db57600080fd5b806380534934146103745780638bb9c5bf146103875780638da5cb5b1461039a57600080fd5b80632f2ff15d116101665780635b2bd79e116101405780635b2bd79e146103335780635cfa92971461033b57806373c8a9581461034e5780637e518ec81461036157600080fd5b80632f2ff15d146102b35780634e1273f4146102c6578063572b6c05146102e657600080fd5b80630e89341c116101a25780630e89341c14610226578063124d91e5146102465780632b4c9f16146102595780632eb2c2d6146102a057600080fd5b8062fdd58e146101c857806301ffc9a7146101ee5780630d6a5bbb14610211575b600080fd5b6101db6101d636600461365f565b610487565b6040519081526020015b60405180910390f35b6102016101fc3660046136b9565b6104a6565b60405190151581526020016101e5565b61022461021f366004613764565b6104ba565b005b610239610234366004613811565b6105b5565b6040516101e591906138a0565b6102246102543660046138b3565b6105c9565b7f00000000000000000000000000000000000000000000000000000000000000005b60405173ffffffffffffffffffffffffffffffffffffffff90911681526020016101e5565b6102246102ae3660046138e8565b6105ed565b6102246102c13660046139a7565b6106a7565b6102d96102d43660046139d7565b6106db565b6040516101e59190613a7e565b6102016102f4366004613a91565b7f000000000000000000000000000000000000000000000000000000000000000073ffffffffffffffffffffffffffffffffffffffff90811691161490565b61023961075e565b610224610349366004613aae565b610775565b61022461035c366004613b18565b610807565b61022461036f366004613bb2565b61092d565b610224610382366004613bf4565b610985565b610224610395366004613811565b610a0f565b61027b610a2d565b6102016103b03660046139a7565b610a54565b6102246103c3366004613c74565b610a98565b6102246103d6366004613b18565b610ab5565b6101db7f6d696e746572000000000000000000000000000000000000000000000000000081565b6102246104103660046139a7565b610c5a565b610224610423366004613ca2565b610c88565b610201610436366004613d45565b610dad565b610224610449366004613d73565b610dfb565b61022461045c366004613a91565b610e55565b61022461046f3660046139d7565b610e70565b610224610482366004613bb2565b610f56565b600061049d8383610496610fe5565b9190611013565b90505b92915050565b60006104a0826104b46110c9565b906110f7565b60006104c46111d1565b90506104fa7f6d696e7465720000000000000000000000000000000000000000000000000000826104f36111db565b9190611209565b6105ab818989898080602002602001604051908101604052809392919081815260200183836020028082843760009201919091525050604080516020808d0282810182019093528c82529093508c92508b91829185019084908082843760009201919091525050604080516020601f8c018190048102820181019092528a815292508a91508990819084018382808284376000920191909152506105a19250610fe5915050565b94939291906112b5565b5050505050505050565b60606104a0826105c36114a3565b906114d1565b6105e86105d46111d1565b8484846105df610fe5565b93929190611505565b505050565b6105ab6105f86111d1565b898989898080602002602001604051908101604052809392919081815260200183836020028082843760009201919091525050604080516020808d0282810182019093528c82529093508c92508b91829185019084908082843760009201919091525050604080516020601f8c018190048102820181019092528a815292508a915089908190840183828082843760009201919091525061069c9250610fe5915050565b9594939291906115e2565b60006106b16111d1565b90506106c5816106bf611837565b90611865565b6105e88383836106d36111db565b9291906118e8565b60606107558585808060200260200160405190810160405280939291908181526020018383602002808284376000920191909152505060408051602080890282810182019093528882529093508892508791829185019084908082843760009201919091525061074e9250610fe5915050565b91906119bf565b95945050505050565b606061077061076b6114a3565b611af4565b905090565b600061077f6111d1565b90506107ae7f6d696e7465720000000000000000000000000000000000000000000000000000826104f36111db565b6107ff8187878787878080601f0160208091040260200160405190810160405280939291908181526020018383808284376000920191909152506107f59250610fe5915050565b9493929190611b8a565b505050505050565b61081a6108126111d1565b6106bf611837565b84838114801561082957508082145b610894576040517f08c379a000000000000000000000000000000000000000000000000000000000815260206004820152601d60248201527f5265636f766572793a20696e636f6e73697374656e742061727261797300000060448201526064015b60405180910390fd5b60005b8181146105ab576109258888838181106108b3576108b3613ddd565b90506020020160208101906108c89190613a91565b8585848181106108da576108da613ddd565b905060200201358888858181106108f3576108f3613ddd565b90506020020160208101906109089190613a91565b73ffffffffffffffffffffffffffffffffffffffff169190611c98565b600101610897565b6109386108126111d1565b61098182828080601f01602080910402602001604051908101604052809392919081815260200183838082843760009201919091525061097b92506114a3915050565b90611d25565b5050565b610a086109906111d1565b8686868080602002602001604051908101604052809392919081815260200183836020028082843760009201919091525050604080516020808a028281018201909352898252909350899250889182918501908490808284376000920191909152506109ff9250610fe5915050565b93929190611d6c565b5050505050565b610a2a610a1a6111d1565b82610a236111db565b9190611f21565b50565b6000610770610a3a611837565b5473ffffffffffffffffffffffffffffffffffffffff1690565b600061049d8383610a636111db565b60009283526020908152604080842073ffffffffffffffffffffffffffffffffffffffff909316845291905290205460ff1690565b610981610aa36111d1565b8383610aad610fe5565b929190611fc5565b610ac06108126111d1565b848381148015610acf57508082145b610b35576040517f08c379a000000000000000000000000000000000000000000000000000000000815260206004820152601d60248201527f5265636f766572793a20696e636f6e73697374656e7420617272617973000000604482015260640161088b565b60005b8181146105ab57858582818110610b5157610b51613ddd565b9050602002016020810190610b669190613a91565b73ffffffffffffffffffffffffffffffffffffffff166323b872dd308a8a85818110610b9457610b94613ddd565b9050602002016020810190610ba99190613a91565b878786818110610bbb57610bbb613ddd565b6040517fffffffff0000000000000000000000000000000000000000000000000000000060e088901b16815273ffffffffffffffffffffffffffffffffffffffff958616600482015294909316602485015250602090910201356044820152606401600060405180830381600087803b158015610c3757600080fd5b505af1158015610c4b573d6000803e3d6000fd5b50505050806001019050610b38565b6000610c646111d1565b9050610c72816106bf611837565b6105e8838383610c806111db565b9291906120f5565b6000610c926111d1565b9050610cc17f6d696e7465720000000000000000000000000000000000000000000000000000826104f36111db565b610da2818a8a8080602002602001604051908101604052809392919081815260200183836020028082843760009201919091525050604080516020808e0282810182019093528d82529093508d92508c91829185019084908082843760009201919091525050604080516020808d0282810182019093528c82529093508c92508b91829185019084908082843760009201919091525050604080516020601f8c018190048102820181019092528a815292508a9150899081908401838280828437600092019190915250610d989250610fe5915050565b94939291906121bf565b505050505050505050565b600061049d8383610dbc610fe5565b919073ffffffffffffffffffffffffffffffffffffffff9182166000908152600193909301602090815260408085209290931684525290205460ff1690565b6107ff610e066111d1565b8787878787878080601f016020809104026020016040519081016040528093929190818152602001838380828437600092019190915250610e4a9250610fe5915050565b9594939291906122af565b610a2a610e606111d1565b82610e69611837565b919061245c565b610e7b6108126111d1565b82818114610ee5576040517f08c379a000000000000000000000000000000000000000000000000000000000815260206004820152601d60248201527f5265636f766572793a20696e636f6e73697374656e7420617272617973000000604482015260640161088b565b60005b8181146107ff57610f4e848483818110610f0457610f04613ddd565b90506020020135878784818110610f1d57610f1d613ddd565b9050602002016020810190610f329190613a91565b73ffffffffffffffffffffffffffffffffffffffff1690612588565b600101610ee8565b6000610f606111d1565b9050610f7481610f6e611837565b906126e2565b610f7c612721565b610f84612758565b610f8c612786565b610f946127b4565b610f9c6127e2565b6105e883838080601f016020809104026020016040519081016040528093929190818152602001838380828437600092019190915250610fdf92506114a3915050565b90612810565b6000806104a060017f5ccf5846fa27a68fafc8e588671a68f5e67c2f9b56af4263806a4d71735e8613613e3b565b600073ffffffffffffffffffffffffffffffffffffffff8316611092576040517f08c379a000000000000000000000000000000000000000000000000000000000815260206004820152601e60248201527f455243313135353a2062616c616e6365206f6620616464726573732830290000604482015260640161088b565b5060008181526020848152604080832073ffffffffffffffffffffffffffffffffffffffff861684529091529020545b9392505050565b6000806104a060017fca9d3e17f264b0f3984e2634e94adb37fa3e6a8103f06aeae6fa59e21c769f5e613e3b565b60007c01000000000000000000000000000000000000000000000000000000007fffffffff00000000000000000000000000000000000000000000000000000000831601611147575060006104a0565b7ffe003659000000000000000000000000000000000000000000000000000000007fffffffff00000000000000000000000000000000000000000000000000000000831601611198575060016104a0565b507fffffffff00000000000000000000000000000000000000000000000000000000166000908152602091909152604090205460ff1690565b6000610770612848565b6000806104a060017fc8827d3282af6f37b64c3e9e6f3ac9df286ab0bb0fccd6f8661bf19adb368b23613e3b565b60008281526020848152604080832073ffffffffffffffffffffffffffffffffffffffff8516845290915290205460ff166105e857611247826129a0565b6040516020016112579190613e52565b604080517fffffffffffffffffffffffffffffffffffffffffffffffffffffffffffffffe0818403018152908290527f08c379a000000000000000000000000000000000000000000000000000000000825261088b916004016138a0565b73ffffffffffffffffffffffffffffffffffffffff8416611332576040517f08c379a000000000000000000000000000000000000000000000000000000000815260206004820152601b60248201527f455243313135353a206d696e7420746f20616464726573732830290000000000604482015260640161088b565b82518251811461139e576040517f08c379a000000000000000000000000000000000000000000000000000000000815260206004820152601c60248201527f455243313135353a20696e636f6e73697374656e742061727261797300000000604482015260640161088b565b60005b8181146113ee576113e688878784815181106113bf576113bf613ddd565b60200260200101518785815181106113d9576113d9613ddd565b6020026020010151612b32565b6001016113a1565b508473ffffffffffffffffffffffffffffffffffffffff16600073ffffffffffffffffffffffffffffffffffffffff168773ffffffffffffffffffffffffffffffffffffffff167f4a39dc06d4c0dbc64b70af90fd698a233a518aa5d07e595d983b8c0526c8f7fb8787604051611466929190613ebe565b60405180910390a473ffffffffffffffffffffffffffffffffffffffff85163b1561149a5761149a86600087878787612c06565b50505050505050565b6000806104a060017fe94434e3c6b941c5d90218142fadcc69cb2e13723993540bfa1c131dd1d3475a613e3b565b6060826114dd83612d2e565b6040516020016114ee929190613f30565b604051602081830303815290604052905092915050565b611510858486612e6b565b611576576040517f08c379a000000000000000000000000000000000000000000000000000000000815260206004820152601c60248201527f455243313135353a206e6f6e2d617070726f7665642073656e64657200000000604482015260640161088b565b61158285848484612ee0565b604080518381526020810183905260009173ffffffffffffffffffffffffffffffffffffffff86811692908816917fc3d58168c5ae7397731d063d5bbf3d657854427343f4c083240f7aacaa2d0f62910160405180910390a45050505050565b73ffffffffffffffffffffffffffffffffffffffff841661165f576040517f08c379a000000000000000000000000000000000000000000000000000000000815260206004820152601f60248201527f455243313135353a207472616e7366657220746f206164647265737328302900604482015260640161088b565b8251825181146116cb576040517f08c379a000000000000000000000000000000000000000000000000000000000815260206004820152601c60248201527f455243313135353a20696e636f6e73697374656e742061727261797300000000604482015260640161088b565b6116d6888789612e6b565b61173c576040517f08c379a000000000000000000000000000000000000000000000000000000000815260206004820152601c60248201527f455243313135353a206e6f6e2d617070726f7665642073656e64657200000000604482015260640161088b565b60005b81811461178d5761178589888888858151811061175e5761175e613ddd565b602002602001015188868151811061177857611778613ddd565b6020026020010151612f80565b60010161173f565b508473ffffffffffffffffffffffffffffffffffffffff168673ffffffffffffffffffffffffffffffffffffffff168873ffffffffffffffffffffffffffffffffffffffff167f4a39dc06d4c0dbc64b70af90fd698a233a518aa5d07e595d983b8c0526c8f7fb8787604051611804929190613ebe565b60405180910390a473ffffffffffffffffffffffffffffffffffffffff85163b156105ab576105ab878787878787612c06565b6000806104a060017fc9ed16f33ab3a66c84bfd83099ccb2a8845871e2e1c1928f63797152f0fd54cd613e3b565b815473ffffffffffffffffffffffffffffffffffffffff828116911614610981576040517f08c379a000000000000000000000000000000000000000000000000000000000815260206004820152601860248201527f4f776e6572736869703a206e6f7420746865206f776e65720000000000000000604482015260640161088b565b60008381526020858152604080832073ffffffffffffffffffffffffffffffffffffffff8616845290915290205460ff166119b95760008381526020858152604080832073ffffffffffffffffffffffffffffffffffffffff8681168086529184529382902080547fffffffffffffffffffffffffffffffffffffffffffffffffffffffffffffff00166001179055815187815292830152918316918101919091527f2f8788117e7eff1d82e926ec794901d17c78024a50270940304540a733656f0d906060015b60405180910390a15b50505050565b81518151606091908114611a2f576040517f08c379a000000000000000000000000000000000000000000000000000000000815260206004820152601c60248201527f455243313135353a20696e636f6e73697374656e742061727261797300000000604482015260640161088b565b835167ffffffffffffffff811115611a4957611a49613fd5565b604051908082528060200260200182016040528015611a72578160200160208202803683370190505b50915060005b818114611aeb57611ac6858281518110611a9457611a94613ddd565b6020026020010151858381518110611aae57611aae613ddd565b6020026020010151886110139092919063ffffffff16565b838281518110611ad857611ad8613ddd565b6020908102919091010152600101611a78565b50509392505050565b6060816000018054611b0590613ee3565b80601f0160208091040260200160405190810160405280929190818152602001828054611b3190613ee3565b8015611b7e5780601f10611b5357610100808354040283529160200191611b7e565b820191906000526020600020905b815481529060010190602001808311611b6157829003601f168201915b50505050509050919050565b73ffffffffffffffffffffffffffffffffffffffff8416611c07576040517f08c379a000000000000000000000000000000000000000000000000000000000815260206004820152601b60248201527f455243313135353a206d696e7420746f20616464726573732830290000000000604482015260640161088b565b611c1386858585612b32565b604080518481526020810184905273ffffffffffffffffffffffffffffffffffffffff80871692600092918916917fc3d58168c5ae7397731d063d5bbf3d657854427343f4c083240f7aacaa2d0f62910160405180910390a473ffffffffffffffffffffffffffffffffffffffff84163b156107ff576107ff85600086868686613137565b6040805173ffffffffffffffffffffffffffffffffffffffff8416602482015260448082018490528251808303909101815260649091019091526020810180517bffffffffffffffffffffffffffffffffffffffffffffffffffffffff167fa9059cbb000000000000000000000000000000000000000000000000000000001790526105e8908490613193565b81611d30828261404a565b507f04b1dc5c136a3ce9fded8db0ce3d3366c58764ec3a8e4c2b9e52e4ddfe5ebbf781604051611d6091906138a0565b60405180910390a15050565b815181518114611dd8576040517f08c379a000000000000000000000000000000000000000000000000000000000815260206004820152601c60248201527f455243313135353a20696e636f6e73697374656e742061727261797300000000604482015260640161088b565b611de3868587612e6b565b611e49576040517f08c379a000000000000000000000000000000000000000000000000000000000815260206004820152601c60248201527f455243313135353a206e6f6e2d617070726f7665642073656e64657200000000604482015260640161088b565b60005b818114611e9957611e918786868481518110611e6a57611e6a613ddd565b6020026020010151868581518110611e8457611e84613ddd565b6020026020010151612ee0565b600101611e4c565b50600073ffffffffffffffffffffffffffffffffffffffff168473ffffffffffffffffffffffffffffffffffffffff168673ffffffffffffffffffffffffffffffffffffffff167f4a39dc06d4c0dbc64b70af90fd698a233a518aa5d07e595d983b8c0526c8f7fb8686604051611f11929190613ebe565b60405180910390a4505050505050565b611f2c838284611209565b60008181526020848152604080832073ffffffffffffffffffffffffffffffffffffffff86168085529083529281902080547fffffffffffffffffffffffffffffffffffffffffffffffffffffffffffffff0016905580518481529182018390528101919091527ff6391f5c32d9c69d2a47ea670b442974b53935d1edc7fd64eb21e047a839171b9060600160405180910390a1505050565b8273ffffffffffffffffffffffffffffffffffffffff168273ffffffffffffffffffffffffffffffffffffffff160361205a576040517f08c379a000000000000000000000000000000000000000000000000000000000815260206004820152601e60248201527f455243313135353a2073656c662d617070726f76616c20666f7220616c6c0000604482015260640161088b565b73ffffffffffffffffffffffffffffffffffffffff838116600081815260018701602090815260408083209487168084529482529182902080547fffffffffffffffffffffffffffffffffffffffffffffffffffffffffffffff001686151590811790915591519182527f17307eab39ab6107e8899845ad3d59bd9653f200f220920489ca2b5937696c31910160405180910390a350505050565b60008381526020858152604080832073ffffffffffffffffffffffffffffffffffffffff8616845290915290205460ff16156119b95760008381526020858152604080832073ffffffffffffffffffffffffffffffffffffffff8681168086529184529382902080547fffffffffffffffffffffffffffffffffffffffffffffffffffffffffffffff00169055815187815292830152918316918101919091527ff6391f5c32d9c69d2a47ea670b442974b53935d1edc7fd64eb21e047a839171b906060016119b0565b83518351811480156121d15750825181145b612237576040517f08c379a000000000000000000000000000000000000000000000000000000000815260206004820152601c60248201527f455243313135353a20696e636f6e73697374656e742061727261797300000000604482015260640161088b565b60005b8181146105ab576122a78787838151811061225757612257613ddd565b602002602001015187848151811061227157612271613ddd565b602002602001015187858151811061228b5761228b613ddd565b6020026020010151878d611b8a9095949392919063ffffffff16565b60010161223a565b73ffffffffffffffffffffffffffffffffffffffff841661232c576040517f08c379a000000000000000000000000000000000000000000000000000000000815260206004820152601f60248201527f455243313135353a207472616e7366657220746f206164647265737328302900604482015260640161088b565b612337878688612e6b565b61239d576040517f08c379a000000000000000000000000000000000000000000000000000000000815260206004820152601c60248201527f455243313135353a206e6f6e2d617070726f7665642073656e64657200000000604482015260640161088b565b6123aa8786868686612f80565b8373ffffffffffffffffffffffffffffffffffffffff168573ffffffffffffffffffffffffffffffffffffffff168773ffffffffffffffffffffffffffffffffffffffff167fc3d58168c5ae7397731d063d5bbf3d657854427343f4c083240f7aacaa2d0f628686604051612429929190918252602082015260400190565b60405180910390a473ffffffffffffffffffffffffffffffffffffffff84163b1561149a5761149a868686868686613137565b825473ffffffffffffffffffffffffffffffffffffffff90811690831681146124e1576040517f08c379a000000000000000000000000000000000000000000000000000000000815260206004820152601860248201527f4f776e6572736869703a206e6f7420746865206f776e65720000000000000000604482015260640161088b565b8173ffffffffffffffffffffffffffffffffffffffff168173ffffffffffffffffffffffffffffffffffffffff16146119b95783547fffffffffffffffffffffffff00000000000000000000000000000000000000001673ffffffffffffffffffffffffffffffffffffffff8381169182178655604051908316907f8be0079c531659141344cd1fd0a4f28419497f9722a3daafe3b4186f6b6457e090600090a350505050565b804710156125f2576040517f08c379a000000000000000000000000000000000000000000000000000000000815260206004820152601d60248201527f416464726573733a20696e73756666696369656e742062616c616e6365000000604482015260640161088b565b60008273ffffffffffffffffffffffffffffffffffffffff168260405160006040518083038185875af1925050503d806000811461264c576040519150601f19603f3d011682016040523d82523d6000602084013e612651565b606091505b50509050806105e8576040517f08c379a000000000000000000000000000000000000000000000000000000000815260206004820152603a60248201527f416464726573733a20756e61626c6520746f2073656e642076616c75652c207260448201527f6563697069656e74206d61792068617665207265766572746564000000000000606482015260840161088b565b61271761271060017f5b388d90dc1312ba799f321972f13311234fa1163bcabec7cf66101c4876eb84613e3b565b600161329f565b610981828261330f565b6127567fd9b67a2600000000000000000000000000000000000000000000000000000000600161274f6110c9565b91906133c5565b565b6127567f0e89341c00000000000000000000000000000000000000000000000000000000600161274f6110c9565b6127567f5190c92c00000000000000000000000000000000000000000000000000000000600161274f6110c9565b6127567fe8ab9ccc00000000000000000000000000000000000000000000000000000000600161274f6110c9565b6127567f921ed8d100000000000000000000000000000000000000000000000000000000600161274f6110c9565b61283e61271060017f4906b284a41a4863b44f418156dc67ff218ba42abca1a1c41f180669c98a302f613e3b565b61098182826134d1565b60003332810361285757919050565b6000367fffffffffffffffffffffffffffffffffffffffffffffffffffffffffffffffec013560601c90507f000000000000000000000000000000000000000000000000000000000000000073ffffffffffffffffffffffffffffffffffffffff168273ffffffffffffffffffffffffffffffffffffffff16148061298f57506040517fe60125d600000000000000000000000000000000000000000000000000000000815273ffffffffffffffffffffffffffffffffffffffff828116600483015283811660248301527f0000000000000000000000000000000000000000000000000000000000000000169063e60125d690604401602060405180830381865afa15801561296b573d6000803e3d6000fd5b505050506040513d601f19601f8201168201806040525081019061298f9190614164565b1561299a5792915050565b50919050565b606060008290036129bf57505060408051602081019091526000815290565b6000826040516020016129d491815260200190565b604080517fffffffffffffffffffffffffffffffffffffffffffffffffffffffffffffffe08184030181529190529050601f5b818181518110612a1957612a19613ddd565b01602001517fff0000000000000000000000000000000000000000000000000000000000000016600003612a6e577fffffffffffffffffffffffffffffffffffffffffffffffffffffffffffffffff01612a07565b60008160010167ffffffffffffffff811115612a8c57612a8c613fd5565b6040519080825280601f01601f191660200182016040528015612ab6576020820181803683370190505b50905060005b828111612b2957838181518110612ad557612ad5613ddd565b602001015160f81c60f81b828281518110612af257612af2613ddd565b60200101907effffffffffffffffffffffffffffffffffffffffffffffffffffffffffffff1916908160001a905350600101612abc565b50949350505050565b80156119b95760008281526020858152604080832073ffffffffffffffffffffffffffffffffffffffff87168452909152902054818101818111612bd2576040517f08c379a000000000000000000000000000000000000000000000000000000000815260206004820152601960248201527f455243313135353a2062616c616e6365206f766572666c6f7700000000000000604482015260640161088b565b60009384526020958652604080852073ffffffffffffffffffffffffffffffffffffffff9690961685529490955250502055565b6040517fbc197c81000000000000000000000000000000000000000000000000000000008082529073ffffffffffffffffffffffffffffffffffffffff86169063bc197c8190612c62908a908a90899089908990600401614181565b6020604051808303816000875af1158015612c81573d6000803e3d6000fd5b505050506040513d601f19601f82011682018060405250810190612ca591906141ec565b7fffffffff0000000000000000000000000000000000000000000000000000000016146107ff576040517f08c379a000000000000000000000000000000000000000000000000000000000815260206004820152601a60248201527f455243313135353a207472616e736665722072656a6563746564000000000000604482015260640161088b565b606081600003612d7157505060408051808201909152600181527f3000000000000000000000000000000000000000000000000000000000000000602082015290565b8160005b8115612d9b5780612d8581614209565b9150612d949050600a83614270565b9150612d75565b60008167ffffffffffffffff811115612db657612db6613fd5565b6040519080825280601f01601f191660200182016040528015612de0576020820181803683370190505b5090505b8415612e6357612df5600183613e3b565b9150612e02600a86614284565b612e0d906030614298565b60f81b818381518110612e2257612e22613ddd565b60200101907effffffffffffffffffffffffffffffffffffffffffffffffffffffffffffff1916908160001a905350612e5c600a86614270565b9450612de4565b949350505050565b60008173ffffffffffffffffffffffffffffffffffffffff168373ffffffffffffffffffffffffffffffffffffffff161480612e6357505073ffffffffffffffffffffffffffffffffffffffff9182166000908152600193909301602090815260408085209290931684525290205460ff1690565b80156119b95760008281526020858152604080832073ffffffffffffffffffffffffffffffffffffffff87168452909152902054818103818110612bd2576040517f08c379a000000000000000000000000000000000000000000000000000000000815260206004820152601d60248201527f455243313135353a20696e73756666696369656e742062616c616e6365000000604482015260640161088b565b8015610a085760008281526020868152604080832073ffffffffffffffffffffffffffffffffffffffff88168452909152902054818103818110613020576040517f08c379a000000000000000000000000000000000000000000000000000000000815260206004820152601d60248201527f455243313135353a20696e73756666696369656e742062616c616e6365000000604482015260640161088b565b8473ffffffffffffffffffffffffffffffffffffffff168673ffffffffffffffffffffffffffffffffffffffff161461149a5760008481526020888152604080832073ffffffffffffffffffffffffffffffffffffffff891684529091529020548381018181116130ed576040517f08c379a000000000000000000000000000000000000000000000000000000000815260206004820152601960248201527f455243313135353a2062616c616e6365206f766572666c6f7700000000000000604482015260640161088b565b60009586526020988952604080872073ffffffffffffffffffffffffffffffffffffffff998a16885290995288862092909255509390941682525092909220805490920190915550565b6040517ff23a6e61000000000000000000000000000000000000000000000000000000008082529073ffffffffffffffffffffffffffffffffffffffff86169063f23a6e6190612c62908a908a908990899089906004016142b0565b60006131f5826040518060400160405280602081526020017f5361666545524332303a206c6f772d6c6576656c2063616c6c206661696c65648152508573ffffffffffffffffffffffffffffffffffffffff166134db9092919063ffffffff16565b8051909150156105e857808060200190518101906132139190614164565b6105e8576040517f08c379a000000000000000000000000000000000000000000000000000000000815260206004820152602a60248201527f5361666545524332303a204552433230206f7065726174696f6e20646964206e60448201527f6f74207375636365656400000000000000000000000000000000000000000000606482015260840161088b565b81548290821161330b576040517f08c379a000000000000000000000000000000000000000000000000000000000815260206004820152601660248201527f53746f726167653a207068617365207265616368656400000000000000000000604482015260640161088b565b5550565b73ffffffffffffffffffffffffffffffffffffffff8116156133975781547fffffffffffffffffffffffff00000000000000000000000000000000000000001673ffffffffffffffffffffffffffffffffffffffff821690811783556040516000907f8be0079c531659141344cd1fd0a4f28419497f9722a3daafe3b4186f6b6457e0908290a35b6109817f7f5828d000000000000000000000000000000000000000000000000000000000600161274f6110c9565b7c01000000000000000000000000000000000000000000000000000000007fffffffff0000000000000000000000000000000000000000000000000000000083160161346d576040517f08c379a000000000000000000000000000000000000000000000000000000000815260206004820152601f60248201527f496e74657266616365446574656374696f6e3a2077726f6e672076616c756500604482015260640161088b565b7fffffffff00000000000000000000000000000000000000000000000000000000919091166000908152602092909252604090912080547fffffffffffffffffffffffffffffffffffffffffffffffffffffffffffffff0016911515919091179055565b6109818282611d25565b6060612e6384846000858573ffffffffffffffffffffffffffffffffffffffff85163b613564576040517f08c379a000000000000000000000000000000000000000000000000000000000815260206004820152601d60248201527f416464726573733a2063616c6c20746f206e6f6e2d636f6e7472616374000000604482015260640161088b565b6000808673ffffffffffffffffffffffffffffffffffffffff16858760405161358d91906142f5565b60006040518083038185875af1925050503d80600081146135ca576040519150601f19603f3d011682016040523d82523d6000602084013e6135cf565b606091505b50915091506135df8282866135ea565b979650505050505050565b606083156135f95750816110c2565b8251156136095782518084602001fd5b816040517f08c379a000000000000000000000000000000000000000000000000000000000815260040161088b91906138a0565b73ffffffffffffffffffffffffffffffffffffffff81168114610a2a57600080fd5b6000806040838503121561367257600080fd5b823561367d8161363d565b946020939093013593505050565b7fffffffff0000000000000000000000000000000000000000000000000000000081168114610a2a57600080fd5b6000602082840312156136cb57600080fd5b81356110c28161368b565b60008083601f8401126136e857600080fd5b50813567ffffffffffffffff81111561370057600080fd5b6020830191508360208260051b850101111561371b57600080fd5b9250929050565b60008083601f84011261373457600080fd5b50813567ffffffffffffffff81111561374c57600080fd5b60208301915083602082850101111561371b57600080fd5b60008060008060008060006080888a03121561377f57600080fd5b873561378a8161363d565b9650602088013567ffffffffffffffff808211156137a757600080fd5b6137b38b838c016136d6565b909850965060408a01359150808211156137cc57600080fd5b6137d88b838c016136d6565b909650945060608a01359150808211156137f157600080fd5b506137fe8a828b01613722565b989b979a50959850939692959293505050565b60006020828403121561382357600080fd5b5035919050565b60005b8381101561384557818101518382015260200161382d565b838111156119b95750506000910152565b6000815180845261386e81602086016020860161382a565b601f017fffffffffffffffffffffffffffffffffffffffffffffffffffffffffffffffe0169290920160200192915050565b60208152600061049d6020830184613856565b6000806000606084860312156138c857600080fd5b83356138d38161363d565b95602085013595506040909401359392505050565b60008060008060008060008060a0898b03121561390457600080fd5b883561390f8161363d565b9750602089013561391f8161363d565b9650604089013567ffffffffffffffff8082111561393c57600080fd5b6139488c838d016136d6565b909850965060608b013591508082111561396157600080fd5b61396d8c838d016136d6565b909650945060808b013591508082111561398657600080fd5b506139938b828c01613722565b999c989b5096995094979396929594505050565b600080604083850312156139ba57600080fd5b8235915060208301356139cc8161363d565b809150509250929050565b600080600080604085870312156139ed57600080fd5b843567ffffffffffffffff80821115613a0557600080fd5b613a11888389016136d6565b90965094506020870135915080821115613a2a57600080fd5b50613a37878288016136d6565b95989497509550505050565b600081518084526020808501945080840160005b83811015613a7357815187529582019590820190600101613a57565b509495945050505050565b60208152600061049d6020830184613a43565b600060208284031215613aa357600080fd5b81356110c28161363d565b600080600080600060808688031215613ac657600080fd5b8535613ad18161363d565b94506020860135935060408601359250606086013567ffffffffffffffff811115613afb57600080fd5b613b0788828901613722565b969995985093965092949392505050565b60008060008060008060608789031215613b3157600080fd5b863567ffffffffffffffff80821115613b4957600080fd5b613b558a838b016136d6565b90985096506020890135915080821115613b6e57600080fd5b613b7a8a838b016136d6565b90965094506040890135915080821115613b9357600080fd5b50613ba089828a016136d6565b979a9699509497509295939492505050565b60008060208385031215613bc557600080fd5b823567ffffffffffffffff811115613bdc57600080fd5b613be885828601613722565b90969095509350505050565b600080600080600060608688031215613c0c57600080fd5b8535613c178161363d565b9450602086013567ffffffffffffffff80821115613c3457600080fd5b613c4089838a016136d6565b90965094506040880135915080821115613c5957600080fd5b50613b07888289016136d6565b8015158114610a2a57600080fd5b60008060408385031215613c8757600080fd5b8235613c928161363d565b915060208301356139cc81613c66565b6000806000806000806000806080898b031215613cbe57600080fd5b883567ffffffffffffffff80821115613cd657600080fd5b613ce28c838d016136d6565b909a50985060208b0135915080821115613cfb57600080fd5b613d078c838d016136d6565b909850965060408b0135915080821115613d2057600080fd5b613d2c8c838d016136d6565b909650945060608b013591508082111561398657600080fd5b60008060408385031215613d5857600080fd5b8235613d638161363d565b915060208301356139cc8161363d565b60008060008060008060a08789031215613d8c57600080fd5b8635613d978161363d565b95506020870135613da78161363d565b94506040870135935060608701359250608087013567ffffffffffffffff811115613dd157600080fd5b613ba089828a01613722565b7f4e487b7100000000000000000000000000000000000000000000000000000000600052603260045260246000fd5b7f4e487b7100000000000000000000000000000000000000000000000000000000600052601160045260246000fd5b600082821015613e4d57613e4d613e0c565b500390565b7f416363657373436f6e74726f6c3a206d697373696e6720270000000000000000815260008251613e8a81601885016020870161382a565b7f2720726f6c6500000000000000000000000000000000000000000000000000006018939091019283015250601e01919050565b604081526000613ed16040830185613a43565b82810360208401526107558185613a43565b600181811c90821680613ef757607f821691505b60208210810361299a577f4e487b7100000000000000000000000000000000000000000000000000000000600052602260045260246000fd5b6000808454613f3e81613ee3565b60018281168015613f565760018114613f8957613fb8565b7fffffffffffffffffffffffffffffffffffffffffffffffffffffffffffffff0084168752821515830287019450613fb8565b8860005260208060002060005b85811015613faf5781548a820152908401908201613f96565b50505082870194505b505050508351613fcc81836020880161382a565b01949350505050565b7f4e487b7100000000000000000000000000000000000000000000000000000000600052604160045260246000fd5b601f8211156105e857600081815260208120601f850160051c8101602086101561402b5750805b601f850160051c820191505b818110156107ff57828155600101614037565b815167ffffffffffffffff81111561406457614064613fd5565b614078816140728454613ee3565b84614004565b602080601f8311600181146140cb57600084156140955750858301515b7fffffffffffffffffffffffffffffffffffffffffffffffffffffffffffffffff600386901b1c1916600185901b1785556107ff565b6000858152602081207fffffffffffffffffffffffffffffffffffffffffffffffffffffffffffffffe08616915b82811015614118578886015182559484019460019091019084016140f9565b508582101561415457878501517fffffffffffffffffffffffffffffffffffffffffffffffffffffffffffffffff600388901b60f8161c191681555b5050505050600190811b01905550565b60006020828403121561417657600080fd5b81516110c281613c66565b600073ffffffffffffffffffffffffffffffffffffffff808816835280871660208401525060a060408301526141ba60a0830186613a43565b82810360608401526141cc8186613a43565b905082810360808401526141e08185613856565b98975050505050505050565b6000602082840312156141fe57600080fd5b81516110c28161368b565b60007fffffffffffffffffffffffffffffffffffffffffffffffffffffffffffffffff820361423a5761423a613e0c565b5060010190565b7f4e487b7100000000000000000000000000000000000000000000000000000000600052601260045260246000fd5b60008261427f5761427f614241565b500490565b60008261429357614293614241565b500690565b600082198211156142ab576142ab613e0c565b500190565b600073ffffffffffffffffffffffffffffffffffffffff808816835280871660208401525084604083015283606083015260a060808301526135df60a0830184613856565b6000825161430781846020870161382a565b919091019291505056fea2646970667358221220c0c5a2c88e26e6aed9871c61a82f85328211ea6cd127108a5a392a0228e44bd464736f6c634300080f0033",
  "linkReferences": {},
  "deployedLinkReferences": {}
}