{
  "_format": "hh-sol-artifact-1",
  "contractName": "REVVMotorsportVouchers",
  "sourceName": "contracts/token/ERC1155/REVVMotorsportVouchers.sol",
  "abi": [
    {
      "inputs": [
        {
          "internalType": "contract IForwarderRegistry",
          "name": "forwarderRegistry",
          "type": "address"
        }
      ],
      "stateMutability": "nonpayable",
      "type": "constructor"
    },
    {
      "anonymous": false,
      "inputs": [
        {
          "indexed": true,
          "internalType": "address",
          "name": "owner",
          "type": "address"
        },
        {
          "indexed": true,
          "internalType": "address",
          "name": "operator",
          "type": "address"
        },
        {
          "indexed": false,
          "internalType": "bool",
          "name": "approved",
          "type": "bool"
        }
      ],
      "name": "ApprovalForAll",
      "type": "event"
    },
    {
      "anonymous": false,
      "inputs": [
        {
          "indexed": false,
          "internalType": "string",
          "name": "baseMetadataURI",
          "type": "string"
        }
      ],
      "name": "BaseMetadataURISet",
      "type": "event"
    },
    {
      "anonymous": false,
      "inputs": [
        {
          "indexed": true,
          "internalType": "address",
          "name": "previousOwner",
          "type": "address"
        },
        {
          "indexed": true,
          "internalType": "address",
          "name": "newOwner",
          "type": "address"
        }
      ],
      "name": "OwnershipTransferred",
      "type": "event"
    },
    {
      "anonymous": false,
      "inputs": [
        {
          "indexed": false,
          "internalType": "bytes32",
          "name": "role",
          "type": "bytes32"
        },
        {
          "indexed": false,
          "internalType": "address",
          "name": "account",
          "type": "address"
        },
        {
          "indexed": false,
          "internalType": "address",
          "name": "operator",
          "type": "address"
        }
      ],
      "name": "RoleGranted",
      "type": "event"
    },
    {
      "anonymous": false,
      "inputs": [
        {
          "indexed": false,
          "internalType": "bytes32",
          "name": "role",
          "type": "bytes32"
        },
        {
          "indexed": false,
          "internalType": "address",
          "name": "account",
          "type": "address"
        },
        {
          "indexed": false,
          "internalType": "address",
          "name": "operator",
          "type": "address"
        }
      ],
      "name": "RoleRevoked",
      "type": "event"
    },
    {
      "anonymous": false,
      "inputs": [
        {
          "indexed": true,
          "internalType": "address",
          "name": "operator",
          "type": "address"
        },
        {
          "indexed": true,
          "internalType": "address",
          "name": "from",
          "type": "address"
        },
        {
          "indexed": true,
          "internalType": "address",
          "name": "to",
          "type": "address"
        },
        {
          "indexed": false,
          "internalType": "uint256[]",
          "name": "ids",
          "type": "uint256[]"
        },
        {
          "indexed": false,
          "internalType": "uint256[]",
          "name": "values",
          "type": "uint256[]"
        }
      ],
      "name": "TransferBatch",
      "type": "event"
    },
    {
      "anonymous": false,
      "inputs": [
        {
          "indexed": true,
          "internalType": "address",
          "name": "operator",
          "type": "address"
        },
        {
          "indexed": true,
          "internalType": "address",
          "name": "from",
          "type": "address"
        },
        {
          "indexed": true,
          "internalType": "address",
          "name": "to",
          "type": "address"
        },
        {
          "indexed": false,
          "internalType": "uint256",
          "name": "id",
          "type": "uint256"
        },
        {
          "indexed": false,
          "internalType": "uint256",
          "name": "value",
          "type": "uint256"
        }
      ],
      "name": "TransferSingle",
      "type": "event"
    },
    {
      "anonymous": false,
      "inputs": [
        {
          "indexed": false,
          "internalType": "string",
          "name": "value",
          "type": "string"
        },
        {
          "indexed": true,
          "internalType": "uint256",
          "name": "id",
          "type": "uint256"
        }
      ],
      "name": "URI",
      "type": "event"
    },
    {
      "inputs": [],
      "name": "MINTER_ROLE",
      "outputs": [
        {
          "internalType": "bytes32",
          "name": "",
          "type": "bytes32"
        }
      ],
      "stateMutability": "view",
      "type": "function"
    },
    {
      "inputs": [
        {
          "internalType": "address",
          "name": "owner",
          "type": "address"
        },
        {
          "internalType": "uint256",
          "name": "id",
          "type": "uint256"
        }
      ],
      "name": "balanceOf",
      "outputs": [
        {
          "internalType": "uint256",
          "name": "balance",
          "type": "uint256"
        }
      ],
      "stateMutability": "view",
      "type": "function"
    },
    {
      "inputs": [
        {
          "internalType": "address[]",
          "name": "owners",
          "type": "address[]"
        },
        {
          "internalType": "uint256[]",
          "name": "ids",
          "type": "uint256[]"
        }
      ],
      "name": "balanceOfBatch",
      "outputs": [
        {
          "internalType": "uint256[]",
          "name": "balances",
          "type": "uint256[]"
        }
      ],
      "stateMutability": "view",
      "type": "function"
    },
    {
      "inputs": [],
      "name": "baseMetadataURI",
      "outputs": [
        {
          "internalType": "string",
          "name": "baseURI",
          "type": "string"
        }
      ],
      "stateMutability": "view",
      "type": "function"
    },
    {
      "inputs": [
        {
          "internalType": "address",
          "name": "from",
          "type": "address"
        },
        {
          "internalType": "uint256[]",
          "name": "ids",
          "type": "uint256[]"
        },
        {
          "internalType": "uint256[]",
          "name": "values",
          "type": "uint256[]"
        }
      ],
      "name": "batchBurnFrom",
      "outputs": [],
      "stateMutability": "nonpayable",
      "type": "function"
    },
    {
      "inputs": [
        {
          "internalType": "address",
          "name": "from",
          "type": "address"
        },
        {
          "internalType": "uint256",
          "name": "id",
          "type": "uint256"
        },
        {
          "internalType": "uint256",
          "name": "value",
          "type": "uint256"
        }
      ],
      "name": "burnFrom",
      "outputs": [],
      "stateMutability": "nonpayable",
      "type": "function"
    },
    {
      "inputs": [],
      "name": "forwarderRegistry",
      "outputs": [
        {
          "internalType": "contract IForwarderRegistry",
          "name": "",
          "type": "address"
        }
      ],
      "stateMutability": "view",
      "type": "function"
    },
    {
      "inputs": [
        {
          "internalType": "bytes32",
          "name": "role",
          "type": "bytes32"
        },
        {
          "internalType": "address",
          "name": "account",
          "type": "address"
        }
      ],
      "name": "grantRole",
      "outputs": [],
      "stateMutability": "nonpayable",
      "type": "function"
    },
    {
      "inputs": [
        {
          "internalType": "bytes32",
          "name": "role",
          "type": "bytes32"
        },
        {
          "internalType": "address",
          "name": "account",
          "type": "address"
        }
      ],
      "name": "hasRole",
      "outputs": [
        {
          "internalType": "bool",
          "name": "",
          "type": "bool"
        }
      ],
      "stateMutability": "view",
      "type": "function"
    },
    {
      "inputs": [
        {
          "internalType": "string",
          "name": "baseMetadataURI",
          "type": "string"
        }
      ],
      "name": "init",
      "outputs": [],
      "stateMutability": "nonpayable",
      "type": "function"
    },
    {
      "inputs": [
        {
          "internalType": "address",
          "name": "owner",
          "type": "address"
        },
        {
          "internalType": "address",
          "name": "operator",
          "type": "address"
        }
      ],
      "name": "isApprovedForAll",
      "outputs": [
        {
          "internalType": "bool",
          "name": "approvedForAll",
          "type": "bool"
        }
      ],
      "stateMutability": "view",
      "type": "function"
    },
    {
      "inputs": [
        {
          "internalType": "address",
          "name": "forwarder",
          "type": "address"
        }
      ],
      "name": "isTrustedForwarder",
      "outputs": [
        {
          "internalType": "bool",
          "name": "",
          "type": "bool"
        }
      ],
      "stateMutability": "view",
      "type": "function"
    },
    {
      "inputs": [],
      "name": "owner",
      "outputs": [
        {
          "internalType": "address",
          "name": "",
          "type": "address"
        }
      ],
      "stateMutability": "view",
      "type": "function"
    },
    {
      "inputs": [
        {
          "internalType": "address[]",
          "name": "accounts",
          "type": "address[]"
        },
        {
          "internalType": "contract IERC20[]",
          "name": "tokens",
          "type": "address[]"
        },
        {
          "internalType": "uint256[]",
          "name": "amounts",
          "type": "uint256[]"
        }
      ],
      "name": "recoverERC20s",
      "outputs": [],
      "stateMutability": "nonpayable",
      "type": "function"
    },
    {
      "inputs": [
        {
          "internalType": "address[]",
          "name": "accounts",
          "type": "address[]"
        },
        {
          "internalType": "contract IERC721[]",
          "name": "contracts",
          "type": "address[]"
        },
        {
          "internalType": "uint256[]",
          "name": "tokenIds",
          "type": "uint256[]"
        }
      ],
      "name": "recoverERC721s",
      "outputs": [],
      "stateMutability": "nonpayable",
      "type": "function"
    },
    {
      "inputs": [
        {
          "internalType": "address payable[]",
          "name": "accounts",
          "type": "address[]"
        },
        {
          "internalType": "uint256[]",
          "name": "amounts",
          "type": "uint256[]"
        }
      ],
      "name": "recoverETH",
      "outputs": [],
      "stateMutability": "nonpayable",
      "type": "function"
    },
    {
      "inputs": [
        {
          "internalType": "bytes32",
          "name": "role",
          "type": "bytes32"
        }
      ],
      "name": "renounceRole",
      "outputs": [],
      "stateMutability": "nonpayable",
      "type": "function"
    },
    {
      "inputs": [
        {
          "internalType": "bytes32",
          "name": "role",
          "type": "bytes32"
        },
        {
          "internalType": "address",
          "name": "account",
          "type": "address"
        }
      ],
      "name": "revokeRole",
      "outputs": [],
      "stateMutability": "nonpayable",
      "type": "function"
    },
    {
      "inputs": [
        {
          "internalType": "address",
          "name": "to",
          "type": "address"
        },
        {
          "internalType": "uint256[]",
          "name": "ids",
          "type": "uint256[]"
        },
        {
          "internalType": "uint256[]",
          "name": "values",
          "type": "uint256[]"
        },
        {
          "internalType": "bytes",
          "name": "data",
          "type": "bytes"
        }
      ],
      "name": "safeBatchMint",
      "outputs": [],
      "stateMutability": "nonpayable",
      "type": "function"
    },
    {
      "inputs": [
        {
          "internalType": "address",
          "name": "from",
          "type": "address"
        },
        {
          "internalType": "address",
          "name": "to",
          "type": "address"
        },
        {
          "internalType": "uint256[]",
          "name": "ids",
          "type": "uint256[]"
        },
        {
          "internalType": "uint256[]",
          "name": "values",
          "type": "uint256[]"
        },
        {
          "internalType": "bytes",
          "name": "data",
          "type": "bytes"
        }
      ],
      "name": "safeBatchTransferFrom",
      "outputs": [],
      "stateMutability": "nonpayable",
      "type": "function"
    },
    {
      "inputs": [
        {
          "internalType": "address[]",
          "name": "recipients",
          "type": "address[]"
        },
        {
          "internalType": "uint256[]",
          "name": "ids",
          "type": "uint256[]"
        },
        {
          "internalType": "uint256[]",
          "name": "values",
          "type": "uint256[]"
        },
        {
          "internalType": "bytes",
          "name": "data",
          "type": "bytes"
        }
      ],
      "name": "safeDeliver",
      "outputs": [],
      "stateMutability": "nonpayable",
      "type": "function"
    },
    {
      "inputs": [
        {
          "internalType": "address",
          "name": "to",
          "type": "address"
        },
        {
          "internalType": "uint256",
          "name": "id",
          "type": "uint256"
        },
        {
          "internalType": "uint256",
          "name": "value",
          "type": "uint256"
        },
        {
          "internalType": "bytes",
          "name": "data",
          "type": "bytes"
        }
      ],
      "name": "safeMint",
      "outputs": [],
      "stateMutability": "nonpayable",
      "type": "function"
    },
    {
      "inputs": [
        {
          "internalType": "address",
          "name": "from",
          "type": "address"
        },
        {
          "internalType": "address",
          "name": "to",
          "type": "address"
        },
        {
          "internalType": "uint256",
          "name": "id",
          "type": "uint256"
        },
        {
          "internalType": "uint256",
          "name": "value",
          "type": "uint256"
        },
        {
          "internalType": "bytes",
          "name": "data",
          "type": "bytes"
        }
      ],
      "name": "safeTransferFrom",
      "outputs": [],
      "stateMutability": "nonpayable",
      "type": "function"
    },
    {
      "inputs": [
        {
          "internalType": "address",
          "name": "operator",
          "type": "address"
        },
        {
          "internalType": "bool",
          "name": "approved",
          "type": "bool"
        }
      ],
      "name": "setApprovalForAll",
      "outputs": [],
      "stateMutability": "nonpayable",
      "type": "function"
    },
    {
      "inputs": [
        {
          "internalType": "string",
          "name": "baseURI",
          "type": "string"
        }
      ],
      "name": "setBaseMetadataURI",
      "outputs": [],
      "stateMutability": "nonpayable",
      "type": "function"
    },
    {
      "inputs": [
        {
          "internalType": "bytes4",
          "name": "interfaceId",
          "type": "bytes4"
        }
      ],
      "name": "supportsInterface",
      "outputs": [
        {
          "internalType": "bool",
          "name": "",
          "type": "bool"
        }
      ],
      "stateMutability": "view",
      "type": "function"
    },
    {
      "inputs": [
        {
          "internalType": "address",
          "name": "newOwner",
          "type": "address"
        }
      ],
      "name": "transferOwnership",
      "outputs": [],
      "stateMutability": "nonpayable",
      "type": "function"
    },
    {
      "inputs": [
        {
          "internalType": "uint256",
          "name": "id",
          "type": "uint256"
        }
      ],
      "name": "uri",
      "outputs": [
        {
          "internalType": "string",
          "name": "metadataURI",
          "type": "string"
        }
      ],
      "stateMutability": "view",
      "type": "function"
    }
  ],
  "bytecode": "0x60a06040523480156200001157600080fd5b50604051620043fa380380620043fa833981016040819052620000349162000046565b6001600160a01b031660805262000078565b6000602082840312156200005957600080fd5b81516001600160a01b03811681146200007157600080fd5b9392505050565b608051614351620000a96000396000818161025b015281816102f60152818161284301526128cb01526143516000f3fe608060405234801561001057600080fd5b50600436106101c35760003560e01c806380534934116100f9578063d547741f11610097578063f242432a11610071578063f242432a1461043b578063f2fde38b1461044e578063f7ba94bd14610461578063f9fbdb9e1461047457600080fd5b8063d547741f14610402578063e8ab9ccc14610415578063e985e9c51461042857600080fd5b806391d14854116100d357806391d14854146103a2578063a22cb465146103b5578063c3666c36146103c8578063d5391393146103db57600080fd5b806380534934146103745780638bb9c5bf146103875780638da5cb5b1461039a57600080fd5b80632f2ff15d116101665780635b2bd79e116101405780635b2bd79e146103335780635cfa92971461033b57806373c8a9581461034e5780637e518ec81461036157600080fd5b80632f2ff15d146102b35780634e1273f4146102c6578063572b6c05146102e657600080fd5b80630e89341c116101a25780630e89341c14610226578063124d91e5146102465780632b4c9f16146102595780632eb2c2d6146102a057600080fd5b8062fdd58e146101c857806301ffc9a7146101ee5780630d6a5bbb14610211575b600080fd5b6101db6101d6366004613602565b610487565b6040519081526020015b60405180910390f35b6102016101fc36600461365c565b6104a6565b60405190151581526020016101e5565b61022461021f366004613707565b6104ba565b005b6102396102343660046137b4565b6105b5565b6040516101e5919061383b565b61022461025436600461384e565b6105c9565b7f00000000000000000000000000000000000000000000000000000000000000005b60405173ffffffffffffffffffffffffffffffffffffffff90911681526020016101e5565b6102246102ae366004613883565b6105ed565b6102246102c1366004613942565b610616565b6102d96102d4366004613972565b61064a565b6040516101e59190613a19565b6102016102f4366004613a2c565b7f000000000000000000000000000000000000000000000000000000000000000073ffffffffffffffffffffffffffffffffffffffff90811691161490565b6102396106cd565b610224610349366004613a49565b6106e4565b61022461035c366004613ab3565b610776565b61022461036f366004613b4d565b61089c565b610224610382366004613b8f565b6108f4565b6102246103953660046137b4565b61091e565b61027b61093c565b6102016103b0366004613942565b610963565b6102246103c3366004613c0f565b6109a7565b6102246103d6366004613ab3565b6109c4565b6101db7f6d696e746572000000000000000000000000000000000000000000000000000081565b610224610410366004613942565b610b69565b610224610423366004613c3d565b610b97565b610201610436366004613ce0565b610cbc565b610224610449366004613d0e565b610d0a565b61022461045c366004613a2c565b610d2f565b61022461046f366004613972565b610d4a565b610224610482366004613b4d565b610e30565b600061049d8383610496610e8a565b9190610eb8565b90505b92915050565b60006104a0826104b4610f6e565b90610f9c565b60006104c4611076565b90506104fa7f6d696e7465720000000000000000000000000000000000000000000000000000826104f3611080565b91906110ae565b6105ab818989898080602002602001604051908101604052809392919081815260200183836020028082843760009201919091525050604080516020808d0282810182019093528c82529093508c92508b91829185019084908082843760009201919091525050604080516020601f8c018190048102820181019092528a815292508a91508990819084018382808284376000920191909152506105a19250610e8a915050565b949392919061115a565b5050505050505050565b60606104a0826105c3611348565b90611376565b6105e86105d4611076565b8484846105df610e8a565b939291906113aa565b505050565b6105ab6105f8611076565b8989898989898989610608610e8a565b989796959493929190611487565b6000610620611076565b90506106348161062e61177f565b906117ad565b6105e8838383610642611080565b929190611830565b60606106c4858580806020026020016040519081016040528093929190818152602001838360200280828437600092019190915250506040805160208089028281018201909352888252909350889250879182918501908490808284376000920191909152506106bd9250610e8a915050565b9190611907565b95945050505050565b60606106df6106da611348565b611a3c565b905090565b60006106ee611076565b905061071d7f6d696e7465720000000000000000000000000000000000000000000000000000826104f3611080565b61076e8187878787878080601f0160208091040260200160405190810160405280939291908181526020018383808284376000920191909152506107649250610e8a915050565b9493929190611ad2565b505050505050565b610789610781611076565b61062e61177f565b84838114801561079857508082145b610803576040517f08c379a000000000000000000000000000000000000000000000000000000000815260206004820152601d60248201527f5265636f766572793a20696e636f6e73697374656e742061727261797300000060448201526064015b60405180910390fd5b60005b8181146105ab5761089488888381811061082257610822613d78565b90506020020160208101906108379190613a2c565b85858481811061084957610849613d78565b9050602002013588888581811061086257610862613d78565b90506020020160208101906108779190613a2c565b73ffffffffffffffffffffffffffffffffffffffff169190611be0565b600101610806565b6108a7610781611076565b6108f082828080601f0160208091040260200160405190810160405280939291908181526020018383808284376000920191909152506108ea9250611348915050565b90611c6d565b5050565b6109176108ff611076565b868686868661090c610e8a565b959493929190611cb4565b5050505050565b610939610929611076565b82610932611080565b9190611e6b565b50565b60006106df61094961177f565b5473ffffffffffffffffffffffffffffffffffffffff1690565b600061049d8383610972611080565b60009283526020908152604080842073ffffffffffffffffffffffffffffffffffffffff909316845291905290205460ff1690565b6108f06109b2611076565b83836109bc610e8a565b929190611f0f565b6109cf610781611076565b8483811480156109de57508082145b610a44576040517f08c379a000000000000000000000000000000000000000000000000000000000815260206004820152601d60248201527f5265636f766572793a20696e636f6e73697374656e742061727261797300000060448201526064016107fa565b60005b8181146105ab57858582818110610a6057610a60613d78565b9050602002016020810190610a759190613a2c565b73ffffffffffffffffffffffffffffffffffffffff166323b872dd308a8a85818110610aa357610aa3613d78565b9050602002016020810190610ab89190613a2c565b878786818110610aca57610aca613d78565b6040517fffffffff0000000000000000000000000000000000000000000000000000000060e088901b16815273ffffffffffffffffffffffffffffffffffffffff958616600482015294909316602485015250602090910201356044820152606401600060405180830381600087803b158015610b4657600080fd5b505af1158015610b5a573d6000803e3d6000fd5b50505050806001019050610a47565b6000610b73611076565b9050610b818161062e61177f565b6105e8838383610b8f611080565b92919061203f565b6000610ba1611076565b9050610bd07f6d696e7465720000000000000000000000000000000000000000000000000000826104f3611080565b610cb1818a8a8080602002602001604051908101604052809392919081815260200183836020028082843760009201919091525050604080516020808e0282810182019093528d82529093508d92508c91829185019084908082843760009201919091525050604080516020808d0282810182019093528c82529093508c92508b91829185019084908082843760009201919091525050604080516020601f8c018190048102820181019092528a815292508a9150899081908401838280828437600092019190915250610ca79250610e8a915050565b9493929190612109565b505050505050505050565b600061049d8383610ccb610e8a565b919073ffffffffffffffffffffffffffffffffffffffff9182166000908152600193909301602090815260408085209290931684525290205460ff1690565b61076e610d15611076565b878787878787610d23610e8a565b969594939291906121f9565b610939610d3a611076565b82610d4361177f565b91906123dc565b610d55610781611076565b82818114610dbf576040517f08c379a000000000000000000000000000000000000000000000000000000000815260206004820152601d60248201527f5265636f766572793a20696e636f6e73697374656e742061727261797300000060448201526064016107fa565b60005b81811461076e57610e28848483818110610dde57610dde613d78565b90506020020135878784818110610df757610df7613d78565b9050602002016020810190610e0c9190613a2c565b73ffffffffffffffffffffffffffffffffffffffff1690612508565b600101610dc2565b6000610e3a611076565b9050610e4e81610e4861177f565b90612662565b610e566126a1565b610e5e6126d8565b610e66612706565b610e6e612734565b610e76612762565b6105e88383610e83611348565b9190612790565b6000806104a060017f5ccf5846fa27a68fafc8e588671a68f5e67c2f9b56af4263806a4d71735e8613613dd6565b600073ffffffffffffffffffffffffffffffffffffffff8316610f37576040517f08c379a000000000000000000000000000000000000000000000000000000000815260206004820152601e60248201527f455243313135353a2062616c616e6365206f662061646472657373283029000060448201526064016107fa565b5060008181526020848152604080832073ffffffffffffffffffffffffffffffffffffffff861684529091529020545b9392505050565b6000806104a060017fca9d3e17f264b0f3984e2634e94adb37fa3e6a8103f06aeae6fa59e21c769f5e613dd6565b60007c01000000000000000000000000000000000000000000000000000000007fffffffff00000000000000000000000000000000000000000000000000000000831601610fec575060006104a0565b7ffe003659000000000000000000000000000000000000000000000000000000007fffffffff0000000000000000000000000000000000000000000000000000000083160161103d575060016104a0565b507fffffffff00000000000000000000000000000000000000000000000000000000166000908152602091909152604090205460ff1690565b60006106df612800565b6000806104a060017fc8827d3282af6f37b64c3e9e6f3ac9df286ab0bb0fccd6f8661bf19adb368b23613dd6565b60008281526020848152604080832073ffffffffffffffffffffffffffffffffffffffff8516845290915290205460ff166105e8576110ec82612947565b6040516020016110fc9190613de9565b604080517fffffffffffffffffffffffffffffffffffffffffffffffffffffffffffffffe0818403018152908290527f08c379a00000000000000000000000000000000000000000000000000000000082526107fa9160040161383b565b73ffffffffffffffffffffffffffffffffffffffff84166111d7576040517f08c379a000000000000000000000000000000000000000000000000000000000815260206004820152601b60248201527f455243313135353a206d696e7420746f2061646472657373283029000000000060448201526064016107fa565b825182518114611243576040517f08c379a000000000000000000000000000000000000000000000000000000000815260206004820152601c60248201527f455243313135353a20696e636f6e73697374656e74206172726179730000000060448201526064016107fa565b60005b8181146112935761128b888787848151811061126457611264613d78565b602002602001015187858151811061127e5761127e613d78565b6020026020010151612ad9565b600101611246565b508473ffffffffffffffffffffffffffffffffffffffff16600073ffffffffffffffffffffffffffffffffffffffff168773ffffffffffffffffffffffffffffffffffffffff167f4a39dc06d4c0dbc64b70af90fd698a233a518aa5d07e595d983b8c0526c8f7fb878760405161130b929190613e55565b60405180910390a473ffffffffffffffffffffffffffffffffffffffff85163b1561133f5761133f86600087878787612bad565b50505050505050565b6000806104a060017fe94434e3c6b941c5d90218142fadcc69cb2e13723993540bfa1c131dd1d3475a613dd6565b60608261138283612cd5565b604051602001611393929190613ecd565b604051602081830303815290604052905092915050565b6113b5858486612e12565b61141b576040517f08c379a000000000000000000000000000000000000000000000000000000000815260206004820152601c60248201527f455243313135353a206e6f6e2d617070726f7665642073656e6465720000000060448201526064016107fa565b61142785848484612e87565b604080518381526020810183905260009173ffffffffffffffffffffffffffffffffffffffff86811692908816917fc3d58168c5ae7397731d063d5bbf3d657854427343f4c083240f7aacaa2d0f62910160405180910390a45050505050565b73ffffffffffffffffffffffffffffffffffffffff8716611504576040517f08c379a000000000000000000000000000000000000000000000000000000000815260206004820152601f60248201527f455243313135353a207472616e7366657220746f20616464726573732830290060448201526064016107fa565b8483811461156e576040517f08c379a000000000000000000000000000000000000000000000000000000000815260206004820152601c60248201527f455243313135353a20696e636f6e73697374656e74206172726179730000000060448201526064016107fa565b6115798b8a8c612e12565b6115df576040517f08c379a000000000000000000000000000000000000000000000000000000000815260206004820152601c60248201527f455243313135353a206e6f6e2d617070726f7665642073656e6465720000000060448201526064016107fa565b60005b81811461162e576116268c8b8b8b8b8681811061160157611601613d78565b905060200201358a8a8781811061161a5761161a613d78565b90506020020135612f27565b6001016115e2565b508773ffffffffffffffffffffffffffffffffffffffff168973ffffffffffffffffffffffffffffffffffffffff168b73ffffffffffffffffffffffffffffffffffffffff167f4a39dc06d4c0dbc64b70af90fd698a233a518aa5d07e595d983b8c0526c8f7fb8a8a8a8a6040516116a99493929190613fbd565b60405180910390a473ffffffffffffffffffffffffffffffffffffffff88163b15611772576117728a8a8a8a8a8080602002602001604051908101604052809392919081815260200183836020028082843760009201919091525050604080516020808e0282810182019093528d82529093508d92508c91829185019084908082843760009201919091525050604080516020601f8d018190048102820181019092528b815292508b91508a9081908401838280828437600092019190915250612bad92505050565b5050505050505050505050565b6000806104a060017fc9ed16f33ab3a66c84bfd83099ccb2a8845871e2e1c1928f63797152f0fd54cd613dd6565b815473ffffffffffffffffffffffffffffffffffffffff8281169116146108f0576040517f08c379a000000000000000000000000000000000000000000000000000000000815260206004820152601860248201527f4f776e6572736869703a206e6f7420746865206f776e6572000000000000000060448201526064016107fa565b60008381526020858152604080832073ffffffffffffffffffffffffffffffffffffffff8616845290915290205460ff166119015760008381526020858152604080832073ffffffffffffffffffffffffffffffffffffffff8681168086529184529382902080547fffffffffffffffffffffffffffffffffffffffffffffffffffffffffffffff00166001179055815187815292830152918316918101919091527f2f8788117e7eff1d82e926ec794901d17c78024a50270940304540a733656f0d906060015b60405180910390a15b50505050565b81518151606091908114611977576040517f08c379a000000000000000000000000000000000000000000000000000000000815260206004820152601c60248201527f455243313135353a20696e636f6e73697374656e74206172726179730000000060448201526064016107fa565b835167ffffffffffffffff81111561199157611991613fe4565b6040519080825280602002602001820160405280156119ba578160200160208202803683370190505b50915060005b818114611a3357611a0e8582815181106119dc576119dc613d78565b60200260200101518583815181106119f6576119f6613d78565b602002602001015188610eb89092919063ffffffff16565b838281518110611a2057611a20613d78565b60209081029190910101526001016119c0565b50509392505050565b6060816000018054611a4d90613e7a565b80601f0160208091040260200160405190810160405280929190818152602001828054611a7990613e7a565b8015611ac65780601f10611a9b57610100808354040283529160200191611ac6565b820191906000526020600020905b815481529060010190602001808311611aa957829003601f168201915b50505050509050919050565b73ffffffffffffffffffffffffffffffffffffffff8416611b4f576040517f08c379a000000000000000000000000000000000000000000000000000000000815260206004820152601b60248201527f455243313135353a206d696e7420746f2061646472657373283029000000000060448201526064016107fa565b611b5b86858585612ad9565b604080518481526020810184905273ffffffffffffffffffffffffffffffffffffffff80871692600092918916917fc3d58168c5ae7397731d063d5bbf3d657854427343f4c083240f7aacaa2d0f62910160405180910390a473ffffffffffffffffffffffffffffffffffffffff84163b1561076e5761076e856000868686866130da565b6040805173ffffffffffffffffffffffffffffffffffffffff8416602482015260448082018490528251808303909101815260649091019091526020810180517bffffffffffffffffffffffffffffffffffffffffffffffffffffffff167fa9059cbb000000000000000000000000000000000000000000000000000000001790526105e8908490613136565b81611c788282614059565b507f04b1dc5c136a3ce9fded8db0ce3d3366c58764ec3a8e4c2b9e52e4ddfe5ebbf781604051611ca8919061383b565b60405180910390a15050565b82818114611d1e576040517f08c379a000000000000000000000000000000000000000000000000000000000815260206004820152601c60248201527f455243313135353a20696e636f6e73697374656e74206172726179730000000060448201526064016107fa565b611d29888789612e12565b611d8f576040517f08c379a000000000000000000000000000000000000000000000000000000000815260206004820152601c60248201527f455243313135353a206e6f6e2d617070726f7665642073656e6465720000000060448201526064016107fa565b60005b818114611ddd57611dd58988888885818110611db057611db0613d78565b90506020020135878786818110611dc957611dc9613d78565b90506020020135612e87565b600101611d92565b50600073ffffffffffffffffffffffffffffffffffffffff168673ffffffffffffffffffffffffffffffffffffffff168873ffffffffffffffffffffffffffffffffffffffff167f4a39dc06d4c0dbc64b70af90fd698a233a518aa5d07e595d983b8c0526c8f7fb88888888604051611e599493929190613fbd565b60405180910390a45050505050505050565b611e768382846110ae565b60008181526020848152604080832073ffffffffffffffffffffffffffffffffffffffff86168085529083529281902080547fffffffffffffffffffffffffffffffffffffffffffffffffffffffffffffff0016905580518481529182018390528101919091527ff6391f5c32d9c69d2a47ea670b442974b53935d1edc7fd64eb21e047a839171b9060600160405180910390a1505050565b8273ffffffffffffffffffffffffffffffffffffffff168273ffffffffffffffffffffffffffffffffffffffff1603611fa4576040517f08c379a000000000000000000000000000000000000000000000000000000000815260206004820152601e60248201527f455243313135353a2073656c662d617070726f76616c20666f7220616c6c000060448201526064016107fa565b73ffffffffffffffffffffffffffffffffffffffff838116600081815260018701602090815260408083209487168084529482529182902080547fffffffffffffffffffffffffffffffffffffffffffffffffffffffffffffff001686151590811790915591519182527f17307eab39ab6107e8899845ad3d59bd9653f200f220920489ca2b5937696c31910160405180910390a350505050565b60008381526020858152604080832073ffffffffffffffffffffffffffffffffffffffff8616845290915290205460ff16156119015760008381526020858152604080832073ffffffffffffffffffffffffffffffffffffffff8681168086529184529382902080547fffffffffffffffffffffffffffffffffffffffffffffffffffffffffffffff00169055815187815292830152918316918101919091527ff6391f5c32d9c69d2a47ea670b442974b53935d1edc7fd64eb21e047a839171b906060016118f8565b835183518114801561211b5750825181145b612181576040517f08c379a000000000000000000000000000000000000000000000000000000000815260206004820152601c60248201527f455243313135353a20696e636f6e73697374656e74206172726179730000000060448201526064016107fa565b60005b8181146105ab576121f1878783815181106121a1576121a1613d78565b60200260200101518784815181106121bb576121bb613d78565b60200260200101518785815181106121d5576121d5613d78565b6020026020010151878d611ad29095949392919063ffffffff16565b600101612184565b73ffffffffffffffffffffffffffffffffffffffff8516612276576040517f08c379a000000000000000000000000000000000000000000000000000000000815260206004820152601f60248201527f455243313135353a207472616e7366657220746f20616464726573732830290060448201526064016107fa565b612281888789612e12565b6122e7576040517f08c379a000000000000000000000000000000000000000000000000000000000815260206004820152601c60248201527f455243313135353a206e6f6e2d617070726f7665642073656e6465720000000060448201526064016107fa565b6122f48887878787612f27565b8473ffffffffffffffffffffffffffffffffffffffff168673ffffffffffffffffffffffffffffffffffffffff168873ffffffffffffffffffffffffffffffffffffffff167fc3d58168c5ae7397731d063d5bbf3d657854427343f4c083240f7aacaa2d0f628787604051612373929190918252602082015260400190565b60405180910390a473ffffffffffffffffffffffffffffffffffffffff85163b156105ab576105ab878787878787878080601f0160208091040260200160405190810160405280939291908181526020018383808284376000920191909152506130da92505050565b825473ffffffffffffffffffffffffffffffffffffffff9081169083168114612461576040517f08c379a000000000000000000000000000000000000000000000000000000000815260206004820152601860248201527f4f776e6572736869703a206e6f7420746865206f776e6572000000000000000060448201526064016107fa565b8173ffffffffffffffffffffffffffffffffffffffff168173ffffffffffffffffffffffffffffffffffffffff16146119015783547fffffffffffffffffffffffff00000000000000000000000000000000000000001673ffffffffffffffffffffffffffffffffffffffff8381169182178655604051908316907f8be0079c531659141344cd1fd0a4f28419497f9722a3daafe3b4186f6b6457e090600090a350505050565b80471015612572576040517f08c379a000000000000000000000000000000000000000000000000000000000815260206004820152601d60248201527f416464726573733a20696e73756666696369656e742062616c616e636500000060448201526064016107fa565b60008273ffffffffffffffffffffffffffffffffffffffff168260405160006040518083038185875af1925050503d80600081146125cc576040519150601f19603f3d011682016040523d82523d6000602084013e6125d1565b606091505b50509050806105e8576040517f08c379a000000000000000000000000000000000000000000000000000000000815260206004820152603a60248201527f416464726573733a20756e61626c6520746f2073656e642076616c75652c207260448201527f6563697069656e74206d6179206861766520726576657274656400000000000060648201526084016107fa565b61269761269060017f5b388d90dc1312ba799f321972f13311234fa1163bcabec7cf66101c4876eb84613dd6565b6001613242565b6108f082826132b2565b6126d67fd9b67a260000000000000000000000000000000000000000000000000000000060016126cf610f6e565b9190613368565b565b6126d67f0e89341c0000000000000000000000000000000000000000000000000000000060016126cf610f6e565b6126d67f5190c92c0000000000000000000000000000000000000000000000000000000060016126cf610f6e565b6126d67fe8ab9ccc0000000000000000000000000000000000000000000000000000000060016126cf610f6e565b6126d67f921ed8d10000000000000000000000000000000000000000000000000000000060016126cf610f6e565b6127be61269060017f4906b284a41a4863b44f418156dc67ff218ba42abca1a1c41f180669c98a302f613dd6565b6105e882828080601f01602080910402602001604051908101604052809392919081815260200183838082843760009201919091525087939250506134749050565b6000333214806128105750601836105b1561281a57503390565b7fffffffffffffffffffffffffffffffffffffffffffffffffffffffffffffffec36013560601c7f000000000000000000000000000000000000000000000000000000000000000073ffffffffffffffffffffffffffffffffffffffff1633148061293657506040517f8929a8ca00000000000000000000000000000000000000000000000000000000815273ffffffffffffffffffffffffffffffffffffffff82811660048301523360248301527f00000000000000000000000000000000000000000000000000000000000000001690638929a8ca90604401602060405180830381865afa158015612912573d6000803e3d6000fd5b505050506040513d601f19601f820116820180604052508101906129369190614173565b1561294057919050565b3391505090565b6060600082900361296657505060408051602081019091526000815290565b60008260405160200161297b91815260200190565b604080517fffffffffffffffffffffffffffffffffffffffffffffffffffffffffffffffe08184030181529190529050601f5b8181815181106129c0576129c0613d78565b01602001517fff0000000000000000000000000000000000000000000000000000000000000016600003612a15577fffffffffffffffffffffffffffffffffffffffffffffffffffffffffffffffff016129ae565b60008160010167ffffffffffffffff811115612a3357612a33613fe4565b6040519080825280601f01601f191660200182016040528015612a5d576020820181803683370190505b50905060005b828111612ad057838181518110612a7c57612a7c613d78565b602001015160f81c60f81b828281518110612a9957612a99613d78565b60200101907effffffffffffffffffffffffffffffffffffffffffffffffffffffffffffff1916908160001a905350600101612a63565b50949350505050565b80156119015760008281526020858152604080832073ffffffffffffffffffffffffffffffffffffffff87168452909152902054818101818111612b79576040517f08c379a000000000000000000000000000000000000000000000000000000000815260206004820152601960248201527f455243313135353a2062616c616e6365206f766572666c6f770000000000000060448201526064016107fa565b60009384526020958652604080852073ffffffffffffffffffffffffffffffffffffffff9690961685529490955250502055565b6040517fbc197c81000000000000000000000000000000000000000000000000000000008082529073ffffffffffffffffffffffffffffffffffffffff86169063bc197c8190612c09908a908a90899089908990600401614190565b6020604051808303816000875af1158015612c28573d6000803e3d6000fd5b505050506040513d601f19601f82011682018060405250810190612c4c91906141fb565b7fffffffff00000000000000000000000000000000000000000000000000000000161461076e576040517f08c379a000000000000000000000000000000000000000000000000000000000815260206004820152601a60248201527f455243313135353a207472616e736665722072656a656374656400000000000060448201526064016107fa565b606081600003612d1857505060408051808201909152600181527f3000000000000000000000000000000000000000000000000000000000000000602082015290565b8160005b8115612d425780612d2c81614218565b9150612d3b9050600a8361427f565b9150612d1c565b60008167ffffffffffffffff811115612d5d57612d5d613fe4565b6040519080825280601f01601f191660200182016040528015612d87576020820181803683370190505b5090505b8415612e0a57612d9c600183613dd6565b9150612da9600a86614293565b612db49060306142a7565b60f81b818381518110612dc957612dc9613d78565b60200101907effffffffffffffffffffffffffffffffffffffffffffffffffffffffffffff1916908160001a905350612e03600a8661427f565b9450612d8b565b949350505050565b60008173ffffffffffffffffffffffffffffffffffffffff168373ffffffffffffffffffffffffffffffffffffffff161480612e0a57505073ffffffffffffffffffffffffffffffffffffffff9182166000908152600193909301602090815260408085209290931684525290205460ff1690565b80156119015760008281526020858152604080832073ffffffffffffffffffffffffffffffffffffffff87168452909152902054818103818110612b79576040517f08c379a000000000000000000000000000000000000000000000000000000000815260206004820152601d60248201527f455243313135353a20696e73756666696369656e742062616c616e636500000060448201526064016107fa565b80156109175760008281526020868152604080832073ffffffffffffffffffffffffffffffffffffffff88168452909152902054818103818110612fc7576040517f08c379a000000000000000000000000000000000000000000000000000000000815260206004820152601d60248201527f455243313135353a20696e73756666696369656e742062616c616e636500000060448201526064016107fa565b8473ffffffffffffffffffffffffffffffffffffffff168673ffffffffffffffffffffffffffffffffffffffff161461133f5760008481526020888152604080832073ffffffffffffffffffffffffffffffffffffffff89168452909152902054838101818111613094576040517f08c379a000000000000000000000000000000000000000000000000000000000815260206004820152601960248201527f455243313135353a2062616c616e6365206f766572666c6f770000000000000060448201526064016107fa565b600086815260208a8152604080832073ffffffffffffffffffffffffffffffffffffffff808d1685528184528285208890558b1684529091529020555050505050505050565b6040517ff23a6e61000000000000000000000000000000000000000000000000000000008082529073ffffffffffffffffffffffffffffffffffffffff86169063f23a6e6190612c09908a908a908990899089906004016142ba565b6000613198826040518060400160405280602081526020017f5361666545524332303a206c6f772d6c6576656c2063616c6c206661696c65648152508573ffffffffffffffffffffffffffffffffffffffff1661347e9092919063ffffffff16565b8051909150156105e857808060200190518101906131b69190614173565b6105e8576040517f08c379a000000000000000000000000000000000000000000000000000000000815260206004820152602a60248201527f5361666545524332303a204552433230206f7065726174696f6e20646964206e60448201527f6f7420737563636565640000000000000000000000000000000000000000000060648201526084016107fa565b8154829082116132ae576040517f08c379a000000000000000000000000000000000000000000000000000000000815260206004820152601660248201527f53746f726167653a20706861736520726561636865640000000000000000000060448201526064016107fa565b5550565b73ffffffffffffffffffffffffffffffffffffffff81161561333a5781547fffffffffffffffffffffffff00000000000000000000000000000000000000001673ffffffffffffffffffffffffffffffffffffffff821690811783556040516000907f8be0079c531659141344cd1fd0a4f28419497f9722a3daafe3b4186f6b6457e0908290a35b6108f07f7f5828d00000000000000000000000000000000000000000000000000000000060016126cf610f6e565b7c01000000000000000000000000000000000000000000000000000000007fffffffff00000000000000000000000000000000000000000000000000000000831601613410576040517f08c379a000000000000000000000000000000000000000000000000000000000815260206004820152601f60248201527f496e74657266616365446574656374696f6e3a2077726f6e672076616c75650060448201526064016107fa565b7fffffffff00000000000000000000000000000000000000000000000000000000919091166000908152602092909252604090912080547fffffffffffffffffffffffffffffffffffffffffffffffffffffffffffffff0016911515919091179055565b6108f08282611c6d565b6060612e0a84846000858573ffffffffffffffffffffffffffffffffffffffff85163b613507576040517f08c379a000000000000000000000000000000000000000000000000000000000815260206004820152601d60248201527f416464726573733a2063616c6c20746f206e6f6e2d636f6e747261637400000060448201526064016107fa565b6000808673ffffffffffffffffffffffffffffffffffffffff16858760405161353091906142ff565b60006040518083038185875af1925050503d806000811461356d576040519150601f19603f3d011682016040523d82523d6000602084013e613572565b606091505b509150915061358282828661358d565b979650505050505050565b6060831561359c575081610f67565b8251156135ac5782518084602001fd5b816040517f08c379a00000000000000000000000000000000000000000000000000000000081526004016107fa919061383b565b73ffffffffffffffffffffffffffffffffffffffff8116811461093957600080fd5b6000806040838503121561361557600080fd5b8235613620816135e0565b946020939093013593505050565b7fffffffff000000000000000000000000000000000000000000000000000000008116811461093957600080fd5b60006020828403121561366e57600080fd5b8135610f678161362e565b60008083601f84011261368b57600080fd5b50813567ffffffffffffffff8111156136a357600080fd5b6020830191508360208260051b85010111156136be57600080fd5b9250929050565b60008083601f8401126136d757600080fd5b50813567ffffffffffffffff8111156136ef57600080fd5b6020830191508360208285010111156136be57600080fd5b60008060008060008060006080888a03121561372257600080fd5b873561372d816135e0565b9650602088013567ffffffffffffffff8082111561374a57600080fd5b6137568b838c01613679565b909850965060408a013591508082111561376f57600080fd5b61377b8b838c01613679565b909650945060608a013591508082111561379457600080fd5b506137a18a828b016136c5565b989b979a50959850939692959293505050565b6000602082840312156137c657600080fd5b5035919050565b60005b838110156137e85781810151838201526020016137d0565b50506000910152565b600081518084526138098160208601602086016137cd565b601f017fffffffffffffffffffffffffffffffffffffffffffffffffffffffffffffffe0169290920160200192915050565b60208152600061049d60208301846137f1565b60008060006060848603121561386357600080fd5b833561386e816135e0565b95602085013595506040909401359392505050565b60008060008060008060008060a0898b03121561389f57600080fd5b88356138aa816135e0565b975060208901356138ba816135e0565b9650604089013567ffffffffffffffff808211156138d757600080fd5b6138e38c838d01613679565b909850965060608b01359150808211156138fc57600080fd5b6139088c838d01613679565b909650945060808b013591508082111561392157600080fd5b5061392e8b828c016136c5565b999c989b5096995094979396929594505050565b6000806040838503121561395557600080fd5b823591506020830135613967816135e0565b809150509250929050565b6000806000806040858703121561398857600080fd5b843567ffffffffffffffff808211156139a057600080fd5b6139ac88838901613679565b909650945060208701359150808211156139c557600080fd5b506139d287828801613679565b95989497509550505050565b600081518084526020808501945080840160005b83811015613a0e578151875295820195908201906001016139f2565b509495945050505050565b60208152600061049d60208301846139de565b600060208284031215613a3e57600080fd5b8135610f67816135e0565b600080600080600060808688031215613a6157600080fd5b8535613a6c816135e0565b94506020860135935060408601359250606086013567ffffffffffffffff811115613a9657600080fd5b613aa2888289016136c5565b969995985093965092949392505050565b60008060008060008060608789031215613acc57600080fd5b863567ffffffffffffffff80821115613ae457600080fd5b613af08a838b01613679565b90985096506020890135915080821115613b0957600080fd5b613b158a838b01613679565b90965094506040890135915080821115613b2e57600080fd5b50613b3b89828a01613679565b979a9699509497509295939492505050565b60008060208385031215613b6057600080fd5b823567ffffffffffffffff811115613b7757600080fd5b613b83858286016136c5565b90969095509350505050565b600080600080600060608688031215613ba757600080fd5b8535613bb2816135e0565b9450602086013567ffffffffffffffff80821115613bcf57600080fd5b613bdb89838a01613679565b90965094506040880135915080821115613bf457600080fd5b50613aa288828901613679565b801515811461093957600080fd5b60008060408385031215613c2257600080fd5b8235613c2d816135e0565b9150602083013561396781613c01565b6000806000806000806000806080898b031215613c5957600080fd5b883567ffffffffffffffff80821115613c7157600080fd5b613c7d8c838d01613679565b909a50985060208b0135915080821115613c9657600080fd5b613ca28c838d01613679565b909850965060408b0135915080821115613cbb57600080fd5b613cc78c838d01613679565b909650945060608b013591508082111561392157600080fd5b60008060408385031215613cf357600080fd5b8235613cfe816135e0565b91506020830135613967816135e0565b60008060008060008060a08789031215613d2757600080fd5b8635613d32816135e0565b95506020870135613d42816135e0565b94506040870135935060608701359250608087013567ffffffffffffffff811115613d6c57600080fd5b613b3b89828a016136c5565b7f4e487b7100000000000000000000000000000000000000000000000000000000600052603260045260246000fd5b7f4e487b7100000000000000000000000000000000000000000000000000000000600052601160045260246000fd5b818103818111156104a0576104a0613da7565b7f416363657373436f6e74726f6c3a206d697373696e6720270000000000000000815260008251613e218160188501602087016137cd565b7f2720726f6c6500000000000000000000000000000000000000000000000000006018939091019283015250601e01919050565b604081526000613e6860408301856139de565b82810360208401526106c481856139de565b600181811c90821680613e8e57607f821691505b602082108103613ec7577f4e487b7100000000000000000000000000000000000000000000000000000000600052602260045260246000fd5b50919050565b6000808454613edb81613e7a565b60018281168015613ef35760018114613f2657613f55565b7fffffffffffffffffffffffffffffffffffffffffffffffffffffffffffffff0084168752821515830287019450613f55565b8860005260208060002060005b85811015613f4c5781548a820152908401908201613f33565b50505082870194505b505050508351613f698183602088016137cd565b01949350505050565b81835260007f07ffffffffffffffffffffffffffffffffffffffffffffffffffffffffffffff831115613fa457600080fd5b8260051b80836020870137939093016020019392505050565b604081526000613fd1604083018688613f72565b8281036020840152613582818587613f72565b7f4e487b7100000000000000000000000000000000000000000000000000000000600052604160045260246000fd5b601f8211156105e857600081815260208120601f850160051c8101602086101561403a5750805b601f850160051c820191505b8181101561076e57828155600101614046565b815167ffffffffffffffff81111561407357614073613fe4565b614087816140818454613e7a565b84614013565b602080601f8311600181146140da57600084156140a45750858301515b7fffffffffffffffffffffffffffffffffffffffffffffffffffffffffffffffff600386901b1c1916600185901b17855561076e565b6000858152602081207fffffffffffffffffffffffffffffffffffffffffffffffffffffffffffffffe08616915b8281101561412757888601518255948401946001909101908401614108565b508582101561416357878501517fffffffffffffffffffffffffffffffffffffffffffffffffffffffffffffffff600388901b60f8161c191681555b5050505050600190811b01905550565b60006020828403121561418557600080fd5b8151610f6781613c01565b600073ffffffffffffffffffffffffffffffffffffffff808816835280871660208401525060a060408301526141c960a08301866139de565b82810360608401526141db81866139de565b905082810360808401526141ef81856137f1565b98975050505050505050565b60006020828403121561420d57600080fd5b8151610f678161362e565b60007fffffffffffffffffffffffffffffffffffffffffffffffffffffffffffffffff820361424957614249613da7565b5060010190565b7f4e487b7100000000000000000000000000000000000000000000000000000000600052601260045260246000fd5b60008261428e5761428e614250565b500490565b6000826142a2576142a2614250565b500690565b808201808211156104a0576104a0613da7565b600073ffffffffffffffffffffffffffffffffffffffff808816835280871660208401525084604083015283606083015260a0608083015261358260a08301846137f1565b600082516143118184602087016137cd565b919091019291505056fea264697066735822122020bbc21f28b8382c61322cee85e7491ded6bbb32bbf7ed5fe21c01005064607b64736f6c63430008110033",
  "linkReferences": {},
  "deployedLinkReferences": {}
}