{
  "_format": "hh-sol-artifact-1",
  "contractName": "REVVMotorsportVouchers",
  "sourceName": "contracts/token/ERC1155/REVVMotorsportVouchers.sol",
  "abi": [
    {
      "inputs": [
        {
          "internalType": "contract IForwarderRegistry",
          "name": "forwarderRegistry",
          "type": "address"
        }
      ],
      "stateMutability": "nonpayable",
      "type": "constructor"
    },
    {
      "anonymous": false,
      "inputs": [
        {
          "indexed": true,
          "internalType": "address",
          "name": "owner",
          "type": "address"
        },
        {
          "indexed": true,
          "internalType": "address",
          "name": "operator",
          "type": "address"
        },
        {
          "indexed": false,
          "internalType": "bool",
          "name": "approved",
          "type": "bool"
        }
      ],
      "name": "ApprovalForAll",
      "type": "event"
    },
    {
      "anonymous": false,
      "inputs": [
        {
          "indexed": false,
          "internalType": "string",
          "name": "baseMetadataURI",
          "type": "string"
        }
      ],
      "name": "BaseMetadataURISet",
      "type": "event"
    },
    {
      "anonymous": false,
      "inputs": [
        {
          "indexed": true,
          "internalType": "address",
          "name": "previousOwner",
          "type": "address"
        },
        {
          "indexed": true,
          "internalType": "address",
          "name": "newOwner",
          "type": "address"
        }
      ],
      "name": "OwnershipTransferred",
      "type": "event"
    },
    {
      "anonymous": false,
      "inputs": [
        {
          "indexed": false,
          "internalType": "bytes32",
          "name": "role",
          "type": "bytes32"
        },
        {
          "indexed": false,
          "internalType": "address",
          "name": "account",
          "type": "address"
        },
        {
          "indexed": false,
          "internalType": "address",
          "name": "operator",
          "type": "address"
        }
      ],
      "name": "RoleGranted",
      "type": "event"
    },
    {
      "anonymous": false,
      "inputs": [
        {
          "indexed": false,
          "internalType": "bytes32",
          "name": "role",
          "type": "bytes32"
        },
        {
          "indexed": false,
          "internalType": "address",
          "name": "account",
          "type": "address"
        },
        {
          "indexed": false,
          "internalType": "address",
          "name": "operator",
          "type": "address"
        }
      ],
      "name": "RoleRevoked",
      "type": "event"
    },
    {
      "anonymous": false,
      "inputs": [
        {
          "indexed": true,
          "internalType": "address",
          "name": "operator",
          "type": "address"
        },
        {
          "indexed": true,
          "internalType": "address",
          "name": "from",
          "type": "address"
        },
        {
          "indexed": true,
          "internalType": "address",
          "name": "to",
          "type": "address"
        },
        {
          "indexed": false,
          "internalType": "uint256[]",
          "name": "ids",
          "type": "uint256[]"
        },
        {
          "indexed": false,
          "internalType": "uint256[]",
          "name": "values",
          "type": "uint256[]"
        }
      ],
      "name": "TransferBatch",
      "type": "event"
    },
    {
      "anonymous": false,
      "inputs": [
        {
          "indexed": true,
          "internalType": "address",
          "name": "operator",
          "type": "address"
        },
        {
          "indexed": true,
          "internalType": "address",
          "name": "from",
          "type": "address"
        },
        {
          "indexed": true,
          "internalType": "address",
          "name": "to",
          "type": "address"
        },
        {
          "indexed": false,
          "internalType": "uint256",
          "name": "id",
          "type": "uint256"
        },
        {
          "indexed": false,
          "internalType": "uint256",
          "name": "value",
          "type": "uint256"
        }
      ],
      "name": "TransferSingle",
      "type": "event"
    },
    {
      "anonymous": false,
      "inputs": [
        {
          "indexed": false,
          "internalType": "string",
          "name": "value",
          "type": "string"
        },
        {
          "indexed": true,
          "internalType": "uint256",
          "name": "id",
          "type": "uint256"
        }
      ],
      "name": "URI",
      "type": "event"
    },
    {
      "inputs": [],
      "name": "MINTER_ROLE",
      "outputs": [
        {
          "internalType": "bytes32",
          "name": "",
          "type": "bytes32"
        }
      ],
      "stateMutability": "view",
      "type": "function"
    },
    {
      "inputs": [
        {
          "internalType": "address",
          "name": "owner",
          "type": "address"
        },
        {
          "internalType": "uint256",
          "name": "id",
          "type": "uint256"
        }
      ],
      "name": "balanceOf",
      "outputs": [
        {
          "internalType": "uint256",
          "name": "balance",
          "type": "uint256"
        }
      ],
      "stateMutability": "view",
      "type": "function"
    },
    {
      "inputs": [
        {
          "internalType": "address[]",
          "name": "owners",
          "type": "address[]"
        },
        {
          "internalType": "uint256[]",
          "name": "ids",
          "type": "uint256[]"
        }
      ],
      "name": "balanceOfBatch",
      "outputs": [
        {
          "internalType": "uint256[]",
          "name": "balances",
          "type": "uint256[]"
        }
      ],
      "stateMutability": "view",
      "type": "function"
    },
    {
      "inputs": [],
      "name": "baseMetadataURI",
      "outputs": [
        {
          "internalType": "string",
          "name": "baseURI",
          "type": "string"
        }
      ],
      "stateMutability": "view",
      "type": "function"
    },
    {
      "inputs": [
        {
          "internalType": "address",
          "name": "from",
          "type": "address"
        },
        {
          "internalType": "uint256[]",
          "name": "ids",
          "type": "uint256[]"
        },
        {
          "internalType": "uint256[]",
          "name": "values",
          "type": "uint256[]"
        }
      ],
      "name": "batchBurnFrom",
      "outputs": [],
      "stateMutability": "nonpayable",
      "type": "function"
    },
    {
      "inputs": [
        {
          "internalType": "address",
          "name": "from",
          "type": "address"
        },
        {
          "internalType": "uint256",
          "name": "id",
          "type": "uint256"
        },
        {
          "internalType": "uint256",
          "name": "value",
          "type": "uint256"
        }
      ],
      "name": "burnFrom",
      "outputs": [],
      "stateMutability": "nonpayable",
      "type": "function"
    },
    {
      "inputs": [],
      "name": "forwarderRegistry",
      "outputs": [
        {
          "internalType": "contract IForwarderRegistry",
          "name": "",
          "type": "address"
        }
      ],
      "stateMutability": "view",
      "type": "function"
    },
    {
      "inputs": [
        {
          "internalType": "bytes32",
          "name": "role",
          "type": "bytes32"
        },
        {
          "internalType": "address",
          "name": "account",
          "type": "address"
        }
      ],
      "name": "grantRole",
      "outputs": [],
      "stateMutability": "nonpayable",
      "type": "function"
    },
    {
      "inputs": [
        {
          "internalType": "bytes32",
          "name": "role",
          "type": "bytes32"
        },
        {
          "internalType": "address",
          "name": "account",
          "type": "address"
        }
      ],
      "name": "hasRole",
      "outputs": [
        {
          "internalType": "bool",
          "name": "",
          "type": "bool"
        }
      ],
      "stateMutability": "view",
      "type": "function"
    },
    {
      "inputs": [
        {
          "internalType": "address",
          "name": "owner",
          "type": "address"
        },
        {
          "internalType": "address",
          "name": "operator",
          "type": "address"
        }
      ],
      "name": "isApprovedForAll",
      "outputs": [
        {
          "internalType": "bool",
          "name": "approvedForAll",
          "type": "bool"
        }
      ],
      "stateMutability": "view",
      "type": "function"
    },
    {
      "inputs": [
        {
          "internalType": "address",
          "name": "forwarder",
          "type": "address"
        }
      ],
      "name": "isTrustedForwarder",
      "outputs": [
        {
          "internalType": "bool",
          "name": "",
          "type": "bool"
        }
      ],
      "stateMutability": "view",
      "type": "function"
    },
    {
      "inputs": [],
      "name": "owner",
      "outputs": [
        {
          "internalType": "address",
          "name": "",
          "type": "address"
        }
      ],
      "stateMutability": "view",
      "type": "function"
    },
    {
      "inputs": [
        {
          "internalType": "address[]",
          "name": "accounts",
          "type": "address[]"
        },
        {
          "internalType": "contract IERC20[]",
          "name": "tokens",
          "type": "address[]"
        },
        {
          "internalType": "uint256[]",
          "name": "amounts",
          "type": "uint256[]"
        }
      ],
      "name": "recoverERC20s",
      "outputs": [],
      "stateMutability": "nonpayable",
      "type": "function"
    },
    {
      "inputs": [
        {
          "internalType": "address[]",
          "name": "accounts",
          "type": "address[]"
        },
        {
          "internalType": "contract IERC721[]",
          "name": "contracts",
          "type": "address[]"
        },
        {
          "internalType": "uint256[]",
          "name": "tokenIds",
          "type": "uint256[]"
        }
      ],
      "name": "recoverERC721s",
      "outputs": [],
      "stateMutability": "nonpayable",
      "type": "function"
    },
    {
      "inputs": [
        {
          "internalType": "address payable[]",
          "name": "accounts",
          "type": "address[]"
        },
        {
          "internalType": "uint256[]",
          "name": "amounts",
          "type": "uint256[]"
        }
      ],
      "name": "recoverETH",
      "outputs": [],
      "stateMutability": "nonpayable",
      "type": "function"
    },
    {
      "inputs": [
        {
          "internalType": "bytes32",
          "name": "role",
          "type": "bytes32"
        }
      ],
      "name": "renounceRole",
      "outputs": [],
      "stateMutability": "nonpayable",
      "type": "function"
    },
    {
      "inputs": [
        {
          "internalType": "bytes32",
          "name": "role",
          "type": "bytes32"
        },
        {
          "internalType": "address",
          "name": "account",
          "type": "address"
        }
      ],
      "name": "revokeRole",
      "outputs": [],
      "stateMutability": "nonpayable",
      "type": "function"
    },
    {
      "inputs": [
        {
          "internalType": "address",
          "name": "to",
          "type": "address"
        },
        {
          "internalType": "uint256[]",
          "name": "ids",
          "type": "uint256[]"
        },
        {
          "internalType": "uint256[]",
          "name": "values",
          "type": "uint256[]"
        },
        {
          "internalType": "bytes",
          "name": "data",
          "type": "bytes"
        }
      ],
      "name": "safeBatchMint",
      "outputs": [],
      "stateMutability": "nonpayable",
      "type": "function"
    },
    {
      "inputs": [
        {
          "internalType": "address",
          "name": "from",
          "type": "address"
        },
        {
          "internalType": "address",
          "name": "to",
          "type": "address"
        },
        {
          "internalType": "uint256[]",
          "name": "ids",
          "type": "uint256[]"
        },
        {
          "internalType": "uint256[]",
          "name": "values",
          "type": "uint256[]"
        },
        {
          "internalType": "bytes",
          "name": "data",
          "type": "bytes"
        }
      ],
      "name": "safeBatchTransferFrom",
      "outputs": [],
      "stateMutability": "nonpayable",
      "type": "function"
    },
    {
      "inputs": [
        {
          "internalType": "address[]",
          "name": "recipients",
          "type": "address[]"
        },
        {
          "internalType": "uint256[]",
          "name": "ids",
          "type": "uint256[]"
        },
        {
          "internalType": "uint256[]",
          "name": "values",
          "type": "uint256[]"
        },
        {
          "internalType": "bytes",
          "name": "data",
          "type": "bytes"
        }
      ],
      "name": "safeDeliver",
      "outputs": [],
      "stateMutability": "nonpayable",
      "type": "function"
    },
    {
      "inputs": [
        {
          "internalType": "address",
          "name": "to",
          "type": "address"
        },
        {
          "internalType": "uint256",
          "name": "id",
          "type": "uint256"
        },
        {
          "internalType": "uint256",
          "name": "value",
          "type": "uint256"
        },
        {
          "internalType": "bytes",
          "name": "data",
          "type": "bytes"
        }
      ],
      "name": "safeMint",
      "outputs": [],
      "stateMutability": "nonpayable",
      "type": "function"
    },
    {
      "inputs": [
        {
          "internalType": "address",
          "name": "from",
          "type": "address"
        },
        {
          "internalType": "address",
          "name": "to",
          "type": "address"
        },
        {
          "internalType": "uint256",
          "name": "id",
          "type": "uint256"
        },
        {
          "internalType": "uint256",
          "name": "value",
          "type": "uint256"
        },
        {
          "internalType": "bytes",
          "name": "data",
          "type": "bytes"
        }
      ],
      "name": "safeTransferFrom",
      "outputs": [],
      "stateMutability": "nonpayable",
      "type": "function"
    },
    {
      "inputs": [
        {
          "internalType": "address",
          "name": "operator",
          "type": "address"
        },
        {
          "internalType": "bool",
          "name": "approved",
          "type": "bool"
        }
      ],
      "name": "setApprovalForAll",
      "outputs": [],
      "stateMutability": "nonpayable",
      "type": "function"
    },
    {
      "inputs": [
        {
          "internalType": "string",
          "name": "baseURI",
          "type": "string"
        }
      ],
      "name": "setBaseMetadataURI",
      "outputs": [],
      "stateMutability": "nonpayable",
      "type": "function"
    },
    {
      "inputs": [
        {
          "internalType": "bytes4",
          "name": "interfaceId",
          "type": "bytes4"
        }
      ],
      "name": "supportsInterface",
      "outputs": [
        {
          "internalType": "bool",
          "name": "",
          "type": "bool"
        }
      ],
      "stateMutability": "view",
      "type": "function"
    },
    {
      "inputs": [
        {
          "internalType": "address",
          "name": "newOwner",
          "type": "address"
        }
      ],
      "name": "transferOwnership",
      "outputs": [],
      "stateMutability": "nonpayable",
      "type": "function"
    },
    {
      "inputs": [
        {
          "internalType": "uint256",
          "name": "id",
          "type": "uint256"
        }
      ],
      "name": "uri",
      "outputs": [
        {
          "internalType": "string",
          "name": "metadataURI",
          "type": "string"
        }
      ],
      "stateMutability": "view",
      "type": "function"
    }
  ],
  "bytecode": "0x60a06040523480156200001157600080fd5b50604051620044e4380380620044e483398101604081905262000034916200031e565b8080336200004c620000e460201b62000d7f1760201c565b6200007a81620000666200011e60201b62000db61760201c565b6200015460201b62000de41790919060201c565b5062000090620001d260201b62000e9a1760201c565b620000a5620001f560201b62000ec81760201c565b620000ba6200021860201b62000ef61760201c565b620000cf6200023b60201b62000f241760201c565b6001600160a01b031660805250620003729050565b6200011c636cdb3d1360e11b6001620001076200025e60201b62000f4e1760201c565b6200028e60201b62000f7c179092919060201c565b565b6000806200014e60017fc9ed16f33ab3a66c84bfd83099ccb2a8845871e2e1c1928f63797152f0fd54cd62000350565b92915050565b6001600160a01b03811615620001ab5781546001600160a01b0319166001600160a01b03821690811783556040516000907f8be0079c531659141344cd1fd0a4f28419497f9722a3daafe3b4186f6b6457e0908290a35b620001ce6307f5828d60e41b6001620001076200025e60201b62000f4e1760201c565b5050565b6200011c631464324b60e21b6001620001076200025e60201b62000f4e1760201c565b6200011c633a2ae73360e21b6001620001076200025e60201b62000f4e1760201c565b6200011c6303a24d0760e21b6001620001076200025e60201b62000f4e1760201c565b6200011c63921ed8d160e01b6001620001076200025e60201b62000f4e1760201c565b6000806200014e60017fca9d3e17f264b0f3984e2634e94adb37fa3e6a8103f06aeae6fa59e21c769f5e62000350565b600160e01b6001600160e01b0319831601620002f05760405162461bcd60e51b815260206004820152601f60248201527f496e74657266616365446574656374696f6e3a2077726f6e672076616c756500604482015260640160405180910390fd5b6001600160e01b03199190911660009081526020929092526040909120805460ff1916911515919091179055565b6000602082840312156200033157600080fd5b81516001600160a01b03811681146200034957600080fd5b9392505050565b818103818111156200014e57634e487b7160e01b600052601160045260246000fd5b608051614141620003a360003960008181610250015281816102eb0152818161284a01526128d201526141416000f3fe608060405234801561001057600080fd5b50600436106101b85760003560e01c80637e518ec8116100f9578063d539139311610097578063e985e9c511610071578063e985e9c51461041d578063f242432a14610430578063f2fde38b14610443578063f7ba94bd1461045657600080fd5b8063d5391393146103d0578063d547741f146103f7578063e8ab9ccc1461040a57600080fd5b80638da5cb5b116100d35780638da5cb5b1461038f57806391d1485414610397578063a22cb465146103aa578063c3666c36146103bd57600080fd5b80637e518ec81461035657806380534934146103695780638bb9c5bf1461037c57600080fd5b80632eb2c2d611610166578063572b6c0511610140578063572b6c05146102db5780635b2bd79e146103285780635cfa92971461033057806373c8a9581461034357600080fd5b80632eb2c2d6146102955780632f2ff15d146102a85780634e1273f4146102bb57600080fd5b80630e89341c116101975780630e89341c1461021b578063124d91e51461023b5780632b4c9f161461024e57600080fd5b8062fdd58e146101bd57806301ffc9a7146101e35780630d6a5bbb14610206575b600080fd5b6101d06101cb36600461343f565b610469565b6040519081526020015b60405180910390f35b6101f66101f1366004613499565b610488565b60405190151581526020016101da565b61021961021436600461354b565b61049c565b005b61022e6102293660046135f8565b610597565b6040516101da919061367f565b610219610249366004613692565b6105ab565b7f00000000000000000000000000000000000000000000000000000000000000005b60405173ffffffffffffffffffffffffffffffffffffffff90911681526020016101da565b6102196102a33660046136c7565b6105cf565b6102196102b6366004613786565b6105f8565b6102ce6102c93660046137b6565b61062c565b6040516101da919061385d565b6101f66102e9366004613870565b7f000000000000000000000000000000000000000000000000000000000000000073ffffffffffffffffffffffffffffffffffffffff90811691161490565b61022e610651565b61021961033e36600461388d565b610668565b6102196103513660046138f7565b6106fa565b610219610364366004613991565b610820565b6102196103773660046139d3565b610843565b61021961038a3660046135f8565b61086d565b61027061088b565b6101f66103a5366004613786565b6108b2565b6102196103b8366004613a53565b6108f6565b6102196103cb3660046138f7565b610913565b6101d07f6d696e746572000000000000000000000000000000000000000000000000000081565b610219610405366004613786565b610ab8565b610219610418366004613a81565b610ae6565b6101f661042b366004613b24565b610c0b565b61021961043e366004613b52565b610c59565b610219610451366004613870565b610c7e565b6102196104643660046137b6565b610c99565b600061047f8383610478611088565b91906110b6565b90505b92915050565b600061048282610496610f4e565b9061116a565b60006104a6611244565b90506104dc7f6d696e7465720000000000000000000000000000000000000000000000000000826104d561124e565b919061127c565b61058d818989898080602002602001604051908101604052809392919081815260200183836020028082843760009201919091525050604080516020808d0282810182019093528c82529093508c92508b91829185019084908082843760009201919091525050604080516020601f8c018190048102820181019092528a815292508a91508990819084018382808284376000920191909152506105839250611088915050565b9493929190611328565b5050505050505050565b6060610482826105a5611516565b90611544565b6105ca6105b6611244565b8484846105c1611088565b93929190611578565b505050565b61058d6105da611244565b89898989898989896105ea611088565b989796959493929190611655565b6000610602611244565b905061061681610610610db6565b9061194d565b6105ca83838361062461124e565b9291906119d0565b60606106468585858561063d611088565b93929190611aa7565b90505b949350505050565b606061066361065e611516565b611be5565b905090565b6000610672611244565b90506106a17f6d696e7465720000000000000000000000000000000000000000000000000000826104d561124e565b6106f28187878787878080601f0160208091040260200160405190810160405280939291908181526020018383808284376000920191909152506106e89250611088915050565b9493929190611c7b565b505050505050565b61070d610705611244565b610610610db6565b84838114801561071c57508082145b610787576040517f08c379a000000000000000000000000000000000000000000000000000000000815260206004820152601d60248201527f5265636f766572793a20696e636f6e73697374656e742061727261797300000060448201526064015b60405180910390fd5b60005b81811461058d576108188888838181106107a6576107a6613bbc565b90506020020160208101906107bb9190613870565b8585848181106107cd576107cd613bbc565b905060200201358888858181106107e6576107e6613bbc565b90506020020160208101906107fb9190613870565b73ffffffffffffffffffffffffffffffffffffffff169190611d89565b60010161078a565b61082b610705611244565b61083f8282610838611516565b9190611e16565b5050565b61086661084e611244565b868686868661085b611088565b959493929190611e61565b5050505050565b610888610878611244565b8261088161124e565b9190612018565b50565b6000610663610898610db6565b5473ffffffffffffffffffffffffffffffffffffffff1690565b600061047f83836108c161124e565b60009283526020908152604080842073ffffffffffffffffffffffffffffffffffffffff909316845291905290205460ff1690565b61083f610901611244565b838361090b611088565b9291906120b4565b61091e610705611244565b84838114801561092d57508082145b610993576040517f08c379a000000000000000000000000000000000000000000000000000000000815260206004820152601d60248201527f5265636f766572793a20696e636f6e73697374656e7420617272617973000000604482015260640161077e565b60005b81811461058d578585828181106109af576109af613bbc565b90506020020160208101906109c49190613870565b73ffffffffffffffffffffffffffffffffffffffff166323b872dd308a8a858181106109f2576109f2613bbc565b9050602002016020810190610a079190613870565b878786818110610a1957610a19613bbc565b6040517fffffffff0000000000000000000000000000000000000000000000000000000060e088901b16815273ffffffffffffffffffffffffffffffffffffffff958616600482015294909316602485015250602090910201356044820152606401600060405180830381600087803b158015610a9557600080fd5b505af1158015610aa9573d6000803e3d6000fd5b50505050806001019050610996565b6000610ac2611244565b9050610ad081610610610db6565b6105ca838383610ade61124e565b9291906121e4565b6000610af0611244565b9050610b1f7f6d696e7465720000000000000000000000000000000000000000000000000000826104d561124e565b610c00818a8a8080602002602001604051908101604052809392919081815260200183836020028082843760009201919091525050604080516020808e0282810182019093528d82529093508d92508c91829185019084908082843760009201919091525050604080516020808d0282810182019093528c82529093508c92508b91829185019084908082843760009201919091525050604080516020601f8c018190048102820181019092528a815292508a9150899081908401838280828437600092019190915250610bf69250611088915050565b94939291906122ae565b505050505050505050565b600061047f8383610c1a611088565b919073ffffffffffffffffffffffffffffffffffffffff9182166000908152600193909301602090815260408085209290931684525290205460ff1690565b6106f2610c64611244565b878787878787610c72611088565b9695949392919061239e565b610888610c89611244565b82610c92610db6565b9190612581565b610ca4610705611244565b82818114610d0e576040517f08c379a000000000000000000000000000000000000000000000000000000000815260206004820152601d60248201527f5265636f766572793a20696e636f6e73697374656e7420617272617973000000604482015260640161077e565b60005b8181146106f257610d77848483818110610d2d57610d2d613bbc565b90506020020135878784818110610d4657610d46613bbc565b9050602002016020810190610d5b9190613870565b73ffffffffffffffffffffffffffffffffffffffff16906126ad565b600101610d11565b610db47fd9b67a26000000000000000000000000000000000000000000000000000000006001610dad610f4e565b9190610f7c565b565b60008061048260017fc9ed16f33ab3a66c84bfd83099ccb2a8845871e2e1c1928f63797152f0fd54cd613beb565b73ffffffffffffffffffffffffffffffffffffffff811615610e6c5781547fffffffffffffffffffffffff00000000000000000000000000000000000000001673ffffffffffffffffffffffffffffffffffffffff821690811783556040516000907f8be0079c531659141344cd1fd0a4f28419497f9722a3daafe3b4186f6b6457e0908290a35b61083f7f7f5828d0000000000000000000000000000000000000000000000000000000006001610dad610f4e565b610db47f5190c92c000000000000000000000000000000000000000000000000000000006001610dad610f4e565b610db47fe8ab9ccc000000000000000000000000000000000000000000000000000000006001610dad610f4e565b610db47f0e89341c000000000000000000000000000000000000000000000000000000006001610dad610f4e565b610db47f921ed8d1000000000000000000000000000000000000000000000000000000006001610dad5b60008061048260017fca9d3e17f264b0f3984e2634e94adb37fa3e6a8103f06aeae6fa59e21c769f5e613beb565b7c01000000000000000000000000000000000000000000000000000000007fffffffff00000000000000000000000000000000000000000000000000000000831601611024576040517f08c379a000000000000000000000000000000000000000000000000000000000815260206004820152601f60248201527f496e74657266616365446574656374696f6e3a2077726f6e672076616c756500604482015260640161077e565b7fffffffff00000000000000000000000000000000000000000000000000000000919091166000908152602092909252604090912080547fffffffffffffffffffffffffffffffffffffffffffffffffffffffffffffff0016911515919091179055565b60008061048260017f5ccf5846fa27a68fafc8e588671a68f5e67c2f9b56af4263806a4d71735e8613613beb565b600073ffffffffffffffffffffffffffffffffffffffff8316611135576040517f08c379a000000000000000000000000000000000000000000000000000000000815260206004820152601e60248201527f455243313135353a2062616c616e6365206f6620616464726573732830290000604482015260640161077e565b5060009081526020928352604080822073ffffffffffffffffffffffffffffffffffffffff9390931682529190925290205490565b60007c01000000000000000000000000000000000000000000000000000000007fffffffff000000000000000000000000000000000000000000000000000000008316016111ba57506000610482565b7ffe003659000000000000000000000000000000000000000000000000000000007fffffffff0000000000000000000000000000000000000000000000000000000083160161120b57506001610482565b507fffffffff00000000000000000000000000000000000000000000000000000000166000908152602091909152604090205460ff1690565b6000610663612807565b60008061048260017fc8827d3282af6f37b64c3e9e6f3ac9df286ab0bb0fccd6f8661bf19adb368b23613beb565b60008281526020848152604080832073ffffffffffffffffffffffffffffffffffffffff8516845290915290205460ff166105ca576112ba8261294e565b6040516020016112ca9190613c25565b604080517fffffffffffffffffffffffffffffffffffffffffffffffffffffffffffffffe0818403018152908290527f08c379a000000000000000000000000000000000000000000000000000000000825261077e9160040161367f565b73ffffffffffffffffffffffffffffffffffffffff84166113a5576040517f08c379a000000000000000000000000000000000000000000000000000000000815260206004820152601b60248201527f455243313135353a206d696e7420746f20616464726573732830290000000000604482015260640161077e565b825182518114611411576040517f08c379a000000000000000000000000000000000000000000000000000000000815260206004820152601c60248201527f455243313135353a20696e636f6e73697374656e742061727261797300000000604482015260640161077e565b60005b81811461146157611459888787848151811061143257611432613bbc565b602002602001015187858151811061144c5761144c613bbc565b6020026020010151612ae0565b600101611414565b508473ffffffffffffffffffffffffffffffffffffffff16600073ffffffffffffffffffffffffffffffffffffffff168773ffffffffffffffffffffffffffffffffffffffff167f4a39dc06d4c0dbc64b70af90fd698a233a518aa5d07e595d983b8c0526c8f7fb87876040516114d9929190613c91565b60405180910390a473ffffffffffffffffffffffffffffffffffffffff85163b1561150d5761150d86600087878787612bb4565b50505050505050565b60008061048260017fe94434e3c6b941c5d90218142fadcc69cb2e13723993540bfa1c131dd1d3475a613beb565b60608261155083612cdc565b604051602001611561929190613d12565b604051602081830303815290604052905092915050565b611583858486612d9a565b6115e9576040517f08c379a000000000000000000000000000000000000000000000000000000000815260206004820152601c60248201527f455243313135353a206e6f6e2d617070726f7665642073656e64657200000000604482015260640161077e565b6115f585848484612e0f565b604080518381526020810183905260009173ffffffffffffffffffffffffffffffffffffffff86811692908816917fc3d58168c5ae7397731d063d5bbf3d657854427343f4c083240f7aacaa2d0f62910160405180910390a45050505050565b73ffffffffffffffffffffffffffffffffffffffff87166116d2576040517f08c379a000000000000000000000000000000000000000000000000000000000815260206004820152601f60248201527f455243313135353a207472616e7366657220746f206164647265737328302900604482015260640161077e565b8483811461173c576040517f08c379a000000000000000000000000000000000000000000000000000000000815260206004820152601c60248201527f455243313135353a20696e636f6e73697374656e742061727261797300000000604482015260640161077e565b6117478b8a8c612d9a565b6117ad576040517f08c379a000000000000000000000000000000000000000000000000000000000815260206004820152601c60248201527f455243313135353a206e6f6e2d617070726f7665642073656e64657200000000604482015260640161077e565b60005b8181146117fc576117f48c8b8b8b8b868181106117cf576117cf613bbc565b905060200201358a8a878181106117e8576117e8613bbc565b90506020020135612eaf565b6001016117b0565b508773ffffffffffffffffffffffffffffffffffffffff168973ffffffffffffffffffffffffffffffffffffffff168b73ffffffffffffffffffffffffffffffffffffffff167f4a39dc06d4c0dbc64b70af90fd698a233a518aa5d07e595d983b8c0526c8f7fb8a8a8a8a6040516118779493929190613e02565b60405180910390a473ffffffffffffffffffffffffffffffffffffffff88163b15611940576119408a8a8a8a8a8080602002602001604051908101604052809392919081815260200183836020028082843760009201919091525050604080516020808e0282810182019093528d82529093508d92508c91829185019084908082843760009201919091525050604080516020601f8d018190048102820181019092528b815292508b91508a9081908401838280828437600092019190915250612bb492505050565b5050505050505050505050565b815473ffffffffffffffffffffffffffffffffffffffff82811691161461083f576040517f08c379a000000000000000000000000000000000000000000000000000000000815260206004820152601860248201527f4f776e6572736869703a206e6f7420746865206f776e65720000000000000000604482015260640161077e565b60008381526020858152604080832073ffffffffffffffffffffffffffffffffffffffff8616845290915290205460ff16611aa15760008381526020858152604080832073ffffffffffffffffffffffffffffffffffffffff8681168086529184529382902080547fffffffffffffffffffffffffffffffffffffffffffffffffffffffffffffff00166001179055815187815292830152918316918101919091527f2f8788117e7eff1d82e926ec794901d17c78024a50270940304540a733656f0d906060015b60405180910390a15b50505050565b606083828114611b13576040517f08c379a000000000000000000000000000000000000000000000000000000000815260206004820152601c60248201527f455243313135353a20696e636f6e73697374656e742061727261797300000000604482015260640161077e565b8467ffffffffffffffff811115611b2c57611b2c613e29565b604051908082528060200260200182016040528015611b55578160200160208202803683370190505b50915060005b818114611bda57611bb5878783818110611b7757611b77613bbc565b9050602002016020810190611b8c9190613870565b868684818110611b9e57611b9e613bbc565b905060200201358a6110b69092919063ffffffff16565b838281518110611bc757611bc7613bbc565b6020908102919091010152600101611b5b565b505095945050505050565b6060816000018054611bf690613cbf565b80601f0160208091040260200160405190810160405280929190818152602001828054611c2290613cbf565b8015611c6f5780601f10611c4457610100808354040283529160200191611c6f565b820191906000526020600020905b815481529060010190602001808311611c5257829003601f168201915b50505050509050919050565b73ffffffffffffffffffffffffffffffffffffffff8416611cf8576040517f08c379a000000000000000000000000000000000000000000000000000000000815260206004820152601b60248201527f455243313135353a206d696e7420746f20616464726573732830290000000000604482015260640161077e565b611d0486858585612ae0565b604080518481526020810184905273ffffffffffffffffffffffffffffffffffffffff80871692600092918916917fc3d58168c5ae7397731d063d5bbf3d657854427343f4c083240f7aacaa2d0f62910160405180910390a473ffffffffffffffffffffffffffffffffffffffff84163b156106f2576106f285600086868686613062565b6040805173ffffffffffffffffffffffffffffffffffffffff8416602482015260448082018490528251808303909101815260649091019091526020810180517bffffffffffffffffffffffffffffffffffffffffffffffffffffffff167fa9059cbb000000000000000000000000000000000000000000000000000000001790526105ca9084906130be565b82611e22828483613e9e565b507f04b1dc5c136a3ce9fded8db0ce3d3366c58764ec3a8e4c2b9e52e4ddfe5ebbf78282604051611e54929190613fb8565b60405180910390a1505050565b82818114611ecb576040517f08c379a000000000000000000000000000000000000000000000000000000000815260206004820152601c60248201527f455243313135353a20696e636f6e73697374656e742061727261797300000000604482015260640161077e565b611ed6888789612d9a565b611f3c576040517f08c379a000000000000000000000000000000000000000000000000000000000815260206004820152601c60248201527f455243313135353a206e6f6e2d617070726f7665642073656e64657200000000604482015260640161077e565b60005b818114611f8a57611f828988888885818110611f5d57611f5d613bbc565b90506020020135878786818110611f7657611f76613bbc565b90506020020135612e0f565b600101611f3f565b50600073ffffffffffffffffffffffffffffffffffffffff168673ffffffffffffffffffffffffffffffffffffffff168873ffffffffffffffffffffffffffffffffffffffff167f4a39dc06d4c0dbc64b70af90fd698a233a518aa5d07e595d983b8c0526c8f7fb888888886040516120069493929190613e02565b60405180910390a45050505050505050565b61202383828461127c565b60008181526020848152604080832073ffffffffffffffffffffffffffffffffffffffff86168085529083529281902080547fffffffffffffffffffffffffffffffffffffffffffffffffffffffffffffff0016905580518481529182018390528101919091527ff6391f5c32d9c69d2a47ea670b442974b53935d1edc7fd64eb21e047a839171b90606001611e54565b8273ffffffffffffffffffffffffffffffffffffffff168273ffffffffffffffffffffffffffffffffffffffff1603612149576040517f08c379a000000000000000000000000000000000000000000000000000000000815260206004820152601e60248201527f455243313135353a2073656c662d617070726f76616c20666f7220616c6c0000604482015260640161077e565b73ffffffffffffffffffffffffffffffffffffffff838116600081815260018701602090815260408083209487168084529482529182902080547fffffffffffffffffffffffffffffffffffffffffffffffffffffffffffffff001686151590811790915591519182527f17307eab39ab6107e8899845ad3d59bd9653f200f220920489ca2b5937696c31910160405180910390a350505050565b60008381526020858152604080832073ffffffffffffffffffffffffffffffffffffffff8616845290915290205460ff1615611aa15760008381526020858152604080832073ffffffffffffffffffffffffffffffffffffffff8681168086529184529382902080547fffffffffffffffffffffffffffffffffffffffffffffffffffffffffffffff00169055815187815292830152918316918101919091527ff6391f5c32d9c69d2a47ea670b442974b53935d1edc7fd64eb21e047a839171b90606001611a98565b83518351811480156122c05750825181145b612326576040517f08c379a000000000000000000000000000000000000000000000000000000000815260206004820152601c60248201527f455243313135353a20696e636f6e73697374656e742061727261797300000000604482015260640161077e565b60005b81811461058d576123968787838151811061234657612346613bbc565b602002602001015187848151811061236057612360613bbc565b602002602001015187858151811061237a5761237a613bbc565b6020026020010151878d611c7b9095949392919063ffffffff16565b600101612329565b73ffffffffffffffffffffffffffffffffffffffff851661241b576040517f08c379a000000000000000000000000000000000000000000000000000000000815260206004820152601f60248201527f455243313135353a207472616e7366657220746f206164647265737328302900604482015260640161077e565b612426888789612d9a565b61248c576040517f08c379a000000000000000000000000000000000000000000000000000000000815260206004820152601c60248201527f455243313135353a206e6f6e2d617070726f7665642073656e64657200000000604482015260640161077e565b6124998887878787612eaf565b8473ffffffffffffffffffffffffffffffffffffffff168673ffffffffffffffffffffffffffffffffffffffff168873ffffffffffffffffffffffffffffffffffffffff167fc3d58168c5ae7397731d063d5bbf3d657854427343f4c083240f7aacaa2d0f628787604051612518929190918252602082015260400190565b60405180910390a473ffffffffffffffffffffffffffffffffffffffff85163b1561058d5761058d878787878787878080601f01602080910402602001604051908101604052809392919081815260200183838082843760009201919091525061306292505050565b825473ffffffffffffffffffffffffffffffffffffffff9081169083168114612606576040517f08c379a000000000000000000000000000000000000000000000000000000000815260206004820152601860248201527f4f776e6572736869703a206e6f7420746865206f776e65720000000000000000604482015260640161077e565b8173ffffffffffffffffffffffffffffffffffffffff168173ffffffffffffffffffffffffffffffffffffffff1614611aa15783547fffffffffffffffffffffffff00000000000000000000000000000000000000001673ffffffffffffffffffffffffffffffffffffffff8381169182178655604051908316907f8be0079c531659141344cd1fd0a4f28419497f9722a3daafe3b4186f6b6457e090600090a350505050565b80471015612717576040517f08c379a000000000000000000000000000000000000000000000000000000000815260206004820152601d60248201527f416464726573733a20696e73756666696369656e742062616c616e6365000000604482015260640161077e565b60008273ffffffffffffffffffffffffffffffffffffffff168260405160006040518083038185875af1925050503d8060008114612771576040519150601f19603f3d011682016040523d82523d6000602084013e612776565b606091505b50509050806105ca576040517f08c379a000000000000000000000000000000000000000000000000000000000815260206004820152603a60248201527f416464726573733a20756e61626c6520746f2073656e642076616c75652c207260448201527f6563697069656e74206d61792068617665207265766572746564000000000000606482015260840161077e565b6000333214806128175750601836105b1561282157503390565b7fffffffffffffffffffffffffffffffffffffffffffffffffffffffffffffffec36013560601c7f000000000000000000000000000000000000000000000000000000000000000073ffffffffffffffffffffffffffffffffffffffff1633148061293d57506040517f8929a8ca00000000000000000000000000000000000000000000000000000000815273ffffffffffffffffffffffffffffffffffffffff82811660048301523360248301527f00000000000000000000000000000000000000000000000000000000000000001690638929a8ca90604401602060405180830381865afa158015612919573d6000803e3d6000fd5b505050506040513d601f19601f8201168201806040525081019061293d9190614005565b1561294757919050565b3391505090565b6060600082900361296d57505060408051602081019091526000815290565b60008260405160200161298291815260200190565b604080517fffffffffffffffffffffffffffffffffffffffffffffffffffffffffffffffe08184030181529190529050601f5b8181815181106129c7576129c7613bbc565b01602001517fff0000000000000000000000000000000000000000000000000000000000000016600003612a1c577fffffffffffffffffffffffffffffffffffffffffffffffffffffffffffffffff016129b5565b60008160010167ffffffffffffffff811115612a3a57612a3a613e29565b6040519080825280601f01601f191660200182016040528015612a64576020820181803683370190505b50905060005b828111612ad757838181518110612a8357612a83613bbc565b602001015160f81c60f81b828281518110612aa057612aa0613bbc565b60200101907effffffffffffffffffffffffffffffffffffffffffffffffffffffffffffff1916908160001a905350600101612a6a565b50949350505050565b8015611aa15760008281526020858152604080832073ffffffffffffffffffffffffffffffffffffffff87168452909152902054818101818111612b80576040517f08c379a000000000000000000000000000000000000000000000000000000000815260206004820152601960248201527f455243313135353a2062616c616e6365206f766572666c6f7700000000000000604482015260640161077e565b60009384526020958652604080852073ffffffffffffffffffffffffffffffffffffffff9690961685529490955250502055565b6040517fbc197c81000000000000000000000000000000000000000000000000000000008082529073ffffffffffffffffffffffffffffffffffffffff86169063bc197c8190612c10908a908a90899089908990600401614022565b6020604051808303816000875af1158015612c2f573d6000803e3d6000fd5b505050506040513d601f19601f82011682018060405250810190612c53919061408d565b7fffffffff0000000000000000000000000000000000000000000000000000000016146106f2576040517f08c379a000000000000000000000000000000000000000000000000000000000815260206004820152601a60248201527f455243313135353a207472616e736665722072656a6563746564000000000000604482015260640161077e565b60606000612ce9836131ca565b600101905060008167ffffffffffffffff811115612d0957612d09613e29565b6040519080825280601f01601f191660200182016040528015612d33576020820181803683370190505b5090508181016020015b7fffffffffffffffffffffffffffffffffffffffffffffffffffffffffffffffff017f3031323334353637383961626364656600000000000000000000000000000000600a86061a8153600a8504945084612d3d57509392505050565b60008173ffffffffffffffffffffffffffffffffffffffff168373ffffffffffffffffffffffffffffffffffffffff16148061064957505073ffffffffffffffffffffffffffffffffffffffff9182166000908152600193909301602090815260408085209290931684525290205460ff1690565b8015611aa15760008281526020858152604080832073ffffffffffffffffffffffffffffffffffffffff87168452909152902054818103818110612b80576040517f08c379a000000000000000000000000000000000000000000000000000000000815260206004820152601d60248201527f455243313135353a20696e73756666696369656e742062616c616e6365000000604482015260640161077e565b80156108665760008281526020868152604080832073ffffffffffffffffffffffffffffffffffffffff88168452909152902054818103818110612f4f576040517f08c379a000000000000000000000000000000000000000000000000000000000815260206004820152601d60248201527f455243313135353a20696e73756666696369656e742062616c616e6365000000604482015260640161077e565b8473ffffffffffffffffffffffffffffffffffffffff168673ffffffffffffffffffffffffffffffffffffffff161461150d5760008481526020888152604080832073ffffffffffffffffffffffffffffffffffffffff8916845290915290205483810181811161301c576040517f08c379a000000000000000000000000000000000000000000000000000000000815260206004820152601960248201527f455243313135353a2062616c616e6365206f766572666c6f7700000000000000604482015260640161077e565b600086815260208a8152604080832073ffffffffffffffffffffffffffffffffffffffff808d1685528184528285208890558b1684529091529020555050505050505050565b6040517ff23a6e61000000000000000000000000000000000000000000000000000000008082529073ffffffffffffffffffffffffffffffffffffffff86169063f23a6e6190612c10908a908a908990899089906004016140aa565b6000613120826040518060400160405280602081526020017f5361666545524332303a206c6f772d6c6576656c2063616c6c206661696c65648152508573ffffffffffffffffffffffffffffffffffffffff166132ac9092919063ffffffff16565b8051909150156105ca578080602001905181019061313e9190614005565b6105ca576040517f08c379a000000000000000000000000000000000000000000000000000000000815260206004820152602a60248201527f5361666545524332303a204552433230206f7065726174696f6e20646964206e60448201527f6f74207375636365656400000000000000000000000000000000000000000000606482015260840161077e565b6000807a184f03e93ff9f4daa797ed6e38ed64bf6a1f0100000000000000008310613213577a184f03e93ff9f4daa797ed6e38ed64bf6a1f010000000000000000830492506040015b6d04ee2d6d415b85acef8100000000831061323f576d04ee2d6d415b85acef8100000000830492506020015b662386f26fc10000831061325d57662386f26fc10000830492506010015b6305f5e1008310613275576305f5e100830492506008015b612710831061328957612710830492506004015b6064831061329b576064830492506002015b600a83106104825760010192915050565b60606106498484600085856000808673ffffffffffffffffffffffffffffffffffffffff1685876040516132e091906140ef565b60006040518083038185875af1925050503d806000811461331d576040519150601f19603f3d011682016040523d82523d6000602084013e613322565b606091505b50915091506133338783838761333e565b979650505050505050565b606083156133d45782516000036133cd5773ffffffffffffffffffffffffffffffffffffffff85163b6133cd576040517f08c379a000000000000000000000000000000000000000000000000000000000815260206004820152601d60248201527f416464726573733a2063616c6c20746f206e6f6e2d636f6e7472616374000000604482015260640161077e565b5081610649565b61064983838151156133e95781518083602001fd5b806040517f08c379a000000000000000000000000000000000000000000000000000000000815260040161077e919061367f565b73ffffffffffffffffffffffffffffffffffffffff8116811461088857600080fd5b6000806040838503121561345257600080fd5b823561345d8161341d565b946020939093013593505050565b7fffffffff000000000000000000000000000000000000000000000000000000008116811461088857600080fd5b6000602082840312156134ab57600080fd5b81356134b68161346b565b9392505050565b60008083601f8401126134cf57600080fd5b50813567ffffffffffffffff8111156134e757600080fd5b6020830191508360208260051b850101111561350257600080fd5b9250929050565b60008083601f84011261351b57600080fd5b50813567ffffffffffffffff81111561353357600080fd5b60208301915083602082850101111561350257600080fd5b60008060008060008060006080888a03121561356657600080fd5b87356135718161341d565b9650602088013567ffffffffffffffff8082111561358e57600080fd5b61359a8b838c016134bd565b909850965060408a01359150808211156135b357600080fd5b6135bf8b838c016134bd565b909650945060608a01359150808211156135d857600080fd5b506135e58a828b01613509565b989b979a50959850939692959293505050565b60006020828403121561360a57600080fd5b5035919050565b60005b8381101561362c578181015183820152602001613614565b50506000910152565b6000815180845261364d816020860160208601613611565b601f017fffffffffffffffffffffffffffffffffffffffffffffffffffffffffffffffe0169290920160200192915050565b60208152600061047f6020830184613635565b6000806000606084860312156136a757600080fd5b83356136b28161341d565b95602085013595506040909401359392505050565b60008060008060008060008060a0898b0312156136e357600080fd5b88356136ee8161341d565b975060208901356136fe8161341d565b9650604089013567ffffffffffffffff8082111561371b57600080fd5b6137278c838d016134bd565b909850965060608b013591508082111561374057600080fd5b61374c8c838d016134bd565b909650945060808b013591508082111561376557600080fd5b506137728b828c01613509565b999c989b5096995094979396929594505050565b6000806040838503121561379957600080fd5b8235915060208301356137ab8161341d565b809150509250929050565b600080600080604085870312156137cc57600080fd5b843567ffffffffffffffff808211156137e457600080fd5b6137f0888389016134bd565b9096509450602087013591508082111561380957600080fd5b50613816878288016134bd565b95989497509550505050565b600081518084526020808501945080840160005b8381101561385257815187529582019590820190600101613836565b509495945050505050565b60208152600061047f6020830184613822565b60006020828403121561388257600080fd5b81356134b68161341d565b6000806000806000608086880312156138a557600080fd5b85356138b08161341d565b94506020860135935060408601359250606086013567ffffffffffffffff8111156138da57600080fd5b6138e688828901613509565b969995985093965092949392505050565b6000806000806000806060878903121561391057600080fd5b863567ffffffffffffffff8082111561392857600080fd5b6139348a838b016134bd565b9098509650602089013591508082111561394d57600080fd5b6139598a838b016134bd565b9096509450604089013591508082111561397257600080fd5b5061397f89828a016134bd565b979a9699509497509295939492505050565b600080602083850312156139a457600080fd5b823567ffffffffffffffff8111156139bb57600080fd5b6139c785828601613509565b90969095509350505050565b6000806000806000606086880312156139eb57600080fd5b85356139f68161341d565b9450602086013567ffffffffffffffff80821115613a1357600080fd5b613a1f89838a016134bd565b90965094506040880135915080821115613a3857600080fd5b506138e6888289016134bd565b801515811461088857600080fd5b60008060408385031215613a6657600080fd5b8235613a718161341d565b915060208301356137ab81613a45565b6000806000806000806000806080898b031215613a9d57600080fd5b883567ffffffffffffffff80821115613ab557600080fd5b613ac18c838d016134bd565b909a50985060208b0135915080821115613ada57600080fd5b613ae68c838d016134bd565b909850965060408b0135915080821115613aff57600080fd5b613b0b8c838d016134bd565b909650945060608b013591508082111561376557600080fd5b60008060408385031215613b3757600080fd5b8235613b428161341d565b915060208301356137ab8161341d565b60008060008060008060a08789031215613b6b57600080fd5b8635613b768161341d565b95506020870135613b868161341d565b94506040870135935060608701359250608087013567ffffffffffffffff811115613bb057600080fd5b61397f89828a01613509565b7f4e487b7100000000000000000000000000000000000000000000000000000000600052603260045260246000fd5b81810381811115610482577f4e487b7100000000000000000000000000000000000000000000000000000000600052601160045260246000fd5b7f416363657373436f6e74726f6c3a206d697373696e6720270000000000000000815260008251613c5d816018850160208701613611565b7f2720726f6c6500000000000000000000000000000000000000000000000000006018939091019283015250601e01919050565b604081526000613ca46040830185613822565b8281036020840152613cb68185613822565b95945050505050565b600181811c90821680613cd357607f821691505b602082108103613d0c577f4e487b7100000000000000000000000000000000000000000000000000000000600052602260045260246000fd5b50919050565b6000808454613d2081613cbf565b60018281168015613d385760018114613d6b57613d9a565b7fffffffffffffffffffffffffffffffffffffffffffffffffffffffffffffff0084168752821515830287019450613d9a565b8860005260208060002060005b85811015613d915781548a820152908401908201613d78565b50505082870194505b505050508351613dae818360208801613611565b01949350505050565b81835260007f07ffffffffffffffffffffffffffffffffffffffffffffffffffffffffffffff831115613de957600080fd5b8260051b80836020870137939093016020019392505050565b604081526000613e16604083018688613db7565b8281036020840152613333818587613db7565b7f4e487b7100000000000000000000000000000000000000000000000000000000600052604160045260246000fd5b601f8211156105ca57600081815260208120601f850160051c81016020861015613e7f5750805b601f850160051c820191505b818110156106f257828155600101613e8b565b67ffffffffffffffff831115613eb657613eb6613e29565b613eca83613ec48354613cbf565b83613e58565b6000601f841160018114613f1c5760008515613ee65750838201355b7fffffffffffffffffffffffffffffffffffffffffffffffffffffffffffffffff600387901b1c1916600186901b178355610866565b6000838152602090207fffffffffffffffffffffffffffffffffffffffffffffffffffffffffffffffe0861690835b82811015613f6b5786850135825560209485019460019092019101613f4b565b5086821015613fa6577fffffffffffffffffffffffffffffffffffffffffffffffffffffffffffffffff60f88860031b161c19848701351681555b505060018560011b0183555050505050565b60208152816020820152818360408301376000818301604090810191909152601f9092017fffffffffffffffffffffffffffffffffffffffffffffffffffffffffffffffe0160101919050565b60006020828403121561401757600080fd5b81516134b681613a45565b600073ffffffffffffffffffffffffffffffffffffffff808816835280871660208401525060a0604083015261405b60a0830186613822565b828103606084015261406d8186613822565b905082810360808401526140818185613635565b98975050505050505050565b60006020828403121561409f57600080fd5b81516134b68161346b565b600073ffffffffffffffffffffffffffffffffffffffff808816835280871660208401525084604083015283606083015260a0608083015261333360a0830184613635565b60008251614101818460208701613611565b919091019291505056fea26469706673582212207646f3cdf528b55bca47fe4351495b3d7d36437c48ae61e48b35842bcc398fe164736f6c63430008110033",
  "linkReferences": {},
  "deployedLinkReferences": {}
}