{
  "_format": "hh-sol-artifact-1",
  "contractName": "REVVMotorsportVouchers",
  "sourceName": "contracts/token/ERC1155/REVVMotorsportVouchers.sol",
  "abi": [
    {
      "inputs": [
        {
          "internalType": "contract IOperatorFilterRegistry",
          "name": "filterRegistry",
          "type": "address"
        },
        {
          "internalType": "contract IForwarderRegistry",
          "name": "forwarderRegistry",
          "type": "address"
        }
      ],
      "stateMutability": "nonpayable",
      "type": "constructor"
    },
    {
      "inputs": [
        {
          "internalType": "uint256",
          "name": "percentage",
          "type": "uint256"
        }
      ],
      "name": "IncorrectRoyaltyPercentage",
      "type": "error"
    },
    {
      "inputs": [],
      "name": "IncorrectRoyaltyReceiver",
      "type": "error"
    },
    {
      "inputs": [
        {
          "internalType": "address",
          "name": "operator",
          "type": "address"
        }
      ],
      "name": "OperatorNotAllowed",
      "type": "error"
    },
    {
      "anonymous": false,
      "inputs": [
        {
          "indexed": true,
          "internalType": "address",
          "name": "owner",
          "type": "address"
        },
        {
          "indexed": true,
          "internalType": "address",
          "name": "operator",
          "type": "address"
        },
        {
          "indexed": false,
          "internalType": "bool",
          "name": "approved",
          "type": "bool"
        }
      ],
      "name": "ApprovalForAll",
      "type": "event"
    },
    {
      "anonymous": false,
      "inputs": [
        {
          "indexed": false,
          "internalType": "string",
          "name": "baseMetadataURI",
          "type": "string"
        }
      ],
      "name": "BaseMetadataURISet",
      "type": "event"
    },
    {
      "anonymous": false,
      "inputs": [
        {
          "indexed": true,
          "internalType": "address",
          "name": "previousOwner",
          "type": "address"
        },
        {
          "indexed": true,
          "internalType": "address",
          "name": "newOwner",
          "type": "address"
        }
      ],
      "name": "OwnershipTransferred",
      "type": "event"
    },
    {
      "anonymous": false,
      "inputs": [
        {
          "indexed": false,
          "internalType": "bytes32",
          "name": "role",
          "type": "bytes32"
        },
        {
          "indexed": false,
          "internalType": "address",
          "name": "account",
          "type": "address"
        },
        {
          "indexed": false,
          "internalType": "address",
          "name": "operator",
          "type": "address"
        }
      ],
      "name": "RoleGranted",
      "type": "event"
    },
    {
      "anonymous": false,
      "inputs": [
        {
          "indexed": false,
          "internalType": "bytes32",
          "name": "role",
          "type": "bytes32"
        },
        {
          "indexed": false,
          "internalType": "address",
          "name": "account",
          "type": "address"
        },
        {
          "indexed": false,
          "internalType": "address",
          "name": "operator",
          "type": "address"
        }
      ],
      "name": "RoleRevoked",
      "type": "event"
    },
    {
      "anonymous": false,
      "inputs": [
        {
          "indexed": true,
          "internalType": "address",
          "name": "operator",
          "type": "address"
        },
        {
          "indexed": true,
          "internalType": "address",
          "name": "from",
          "type": "address"
        },
        {
          "indexed": true,
          "internalType": "address",
          "name": "to",
          "type": "address"
        },
        {
          "indexed": false,
          "internalType": "uint256[]",
          "name": "ids",
          "type": "uint256[]"
        },
        {
          "indexed": false,
          "internalType": "uint256[]",
          "name": "values",
          "type": "uint256[]"
        }
      ],
      "name": "TransferBatch",
      "type": "event"
    },
    {
      "anonymous": false,
      "inputs": [
        {
          "indexed": true,
          "internalType": "address",
          "name": "operator",
          "type": "address"
        },
        {
          "indexed": true,
          "internalType": "address",
          "name": "from",
          "type": "address"
        },
        {
          "indexed": true,
          "internalType": "address",
          "name": "to",
          "type": "address"
        },
        {
          "indexed": false,
          "internalType": "uint256",
          "name": "id",
          "type": "uint256"
        },
        {
          "indexed": false,
          "internalType": "uint256",
          "name": "value",
          "type": "uint256"
        }
      ],
      "name": "TransferSingle",
      "type": "event"
    },
    {
      "anonymous": false,
      "inputs": [
        {
          "indexed": false,
          "internalType": "string",
          "name": "value",
          "type": "string"
        },
        {
          "indexed": true,
          "internalType": "uint256",
          "name": "id",
          "type": "uint256"
        }
      ],
      "name": "URI",
      "type": "event"
    },
    {
      "inputs": [],
      "name": "MINTER_ROLE",
      "outputs": [
        {
          "internalType": "bytes32",
          "name": "",
          "type": "bytes32"
        }
      ],
      "stateMutability": "view",
      "type": "function"
    },
    {
      "inputs": [],
      "name": "ROYALTY_FEE_DENOMINATOR",
      "outputs": [
        {
          "internalType": "uint256",
          "name": "",
          "type": "uint256"
        }
      ],
      "stateMutability": "view",
      "type": "function"
    },
    {
      "inputs": [
        {
          "internalType": "address",
          "name": "owner",
          "type": "address"
        },
        {
          "internalType": "uint256",
          "name": "id",
          "type": "uint256"
        }
      ],
      "name": "balanceOf",
      "outputs": [
        {
          "internalType": "uint256",
          "name": "balance",
          "type": "uint256"
        }
      ],
      "stateMutability": "view",
      "type": "function"
    },
    {
      "inputs": [
        {
          "internalType": "address[]",
          "name": "owners",
          "type": "address[]"
        },
        {
          "internalType": "uint256[]",
          "name": "ids",
          "type": "uint256[]"
        }
      ],
      "name": "balanceOfBatch",
      "outputs": [
        {
          "internalType": "uint256[]",
          "name": "balances",
          "type": "uint256[]"
        }
      ],
      "stateMutability": "view",
      "type": "function"
    },
    {
      "inputs": [],
      "name": "baseMetadataURI",
      "outputs": [
        {
          "internalType": "string",
          "name": "baseURI",
          "type": "string"
        }
      ],
      "stateMutability": "view",
      "type": "function"
    },
    {
      "inputs": [
        {
          "internalType": "address",
          "name": "from",
          "type": "address"
        },
        {
          "internalType": "uint256[]",
          "name": "ids",
          "type": "uint256[]"
        },
        {
          "internalType": "uint256[]",
          "name": "values",
          "type": "uint256[]"
        }
      ],
      "name": "batchBurnFrom",
      "outputs": [],
      "stateMutability": "nonpayable",
      "type": "function"
    },
    {
      "inputs": [
        {
          "internalType": "address",
          "name": "from",
          "type": "address"
        },
        {
          "internalType": "uint256",
          "name": "id",
          "type": "uint256"
        },
        {
          "internalType": "uint256",
          "name": "value",
          "type": "uint256"
        }
      ],
      "name": "burnFrom",
      "outputs": [],
      "stateMutability": "nonpayable",
      "type": "function"
    },
    {
      "inputs": [],
      "name": "forwarderRegistry",
      "outputs": [
        {
          "internalType": "contract IForwarderRegistry",
          "name": "",
          "type": "address"
        }
      ],
      "stateMutability": "view",
      "type": "function"
    },
    {
      "inputs": [
        {
          "internalType": "bytes32",
          "name": "role",
          "type": "bytes32"
        },
        {
          "internalType": "address",
          "name": "account",
          "type": "address"
        }
      ],
      "name": "grantRole",
      "outputs": [],
      "stateMutability": "nonpayable",
      "type": "function"
    },
    {
      "inputs": [
        {
          "internalType": "bytes32",
          "name": "role",
          "type": "bytes32"
        },
        {
          "internalType": "address",
          "name": "account",
          "type": "address"
        }
      ],
      "name": "hasRole",
      "outputs": [
        {
          "internalType": "bool",
          "name": "",
          "type": "bool"
        }
      ],
      "stateMutability": "view",
      "type": "function"
    },
    {
      "inputs": [
        {
          "internalType": "address",
          "name": "owner",
          "type": "address"
        },
        {
          "internalType": "address",
          "name": "operator",
          "type": "address"
        }
      ],
      "name": "isApprovedForAll",
      "outputs": [
        {
          "internalType": "bool",
          "name": "approvedForAll",
          "type": "bool"
        }
      ],
      "stateMutability": "view",
      "type": "function"
    },
    {
      "inputs": [
        {
          "internalType": "address",
          "name": "forwarder",
          "type": "address"
        }
      ],
      "name": "isTrustedForwarder",
      "outputs": [
        {
          "internalType": "bool",
          "name": "",
          "type": "bool"
        }
      ],
      "stateMutability": "view",
      "type": "function"
    },
    {
      "inputs": [],
      "name": "operatorFilterRegistry",
      "outputs": [
        {
          "internalType": "contract IOperatorFilterRegistry",
          "name": "",
          "type": "address"
        }
      ],
      "stateMutability": "view",
      "type": "function"
    },
    {
      "inputs": [],
      "name": "owner",
      "outputs": [
        {
          "internalType": "address",
          "name": "",
          "type": "address"
        }
      ],
      "stateMutability": "view",
      "type": "function"
    },
    {
      "inputs": [
        {
          "internalType": "address[]",
          "name": "accounts",
          "type": "address[]"
        },
        {
          "internalType": "contract IERC20[]",
          "name": "tokens",
          "type": "address[]"
        },
        {
          "internalType": "uint256[]",
          "name": "amounts",
          "type": "uint256[]"
        }
      ],
      "name": "recoverERC20s",
      "outputs": [],
      "stateMutability": "nonpayable",
      "type": "function"
    },
    {
      "inputs": [
        {
          "internalType": "address[]",
          "name": "accounts",
          "type": "address[]"
        },
        {
          "internalType": "contract IERC721[]",
          "name": "contracts",
          "type": "address[]"
        },
        {
          "internalType": "uint256[]",
          "name": "tokenIds",
          "type": "uint256[]"
        }
      ],
      "name": "recoverERC721s",
      "outputs": [],
      "stateMutability": "nonpayable",
      "type": "function"
    },
    {
      "inputs": [
        {
          "internalType": "address payable[]",
          "name": "accounts",
          "type": "address[]"
        },
        {
          "internalType": "uint256[]",
          "name": "amounts",
          "type": "uint256[]"
        }
      ],
      "name": "recoverETH",
      "outputs": [],
      "stateMutability": "nonpayable",
      "type": "function"
    },
    {
      "inputs": [
        {
          "internalType": "bytes32",
          "name": "role",
          "type": "bytes32"
        }
      ],
      "name": "renounceRole",
      "outputs": [],
      "stateMutability": "nonpayable",
      "type": "function"
    },
    {
      "inputs": [
        {
          "internalType": "bytes32",
          "name": "role",
          "type": "bytes32"
        },
        {
          "internalType": "address",
          "name": "account",
          "type": "address"
        }
      ],
      "name": "revokeRole",
      "outputs": [],
      "stateMutability": "nonpayable",
      "type": "function"
    },
    {
      "inputs": [
        {
          "internalType": "uint256",
          "name": "tokenId",
          "type": "uint256"
        },
        {
          "internalType": "uint256",
          "name": "salePrice",
          "type": "uint256"
        }
      ],
      "name": "royaltyInfo",
      "outputs": [
        {
          "internalType": "address",
          "name": "receiver",
          "type": "address"
        },
        {
          "internalType": "uint256",
          "name": "royaltyAmount",
          "type": "uint256"
        }
      ],
      "stateMutability": "view",
      "type": "function"
    },
    {
      "inputs": [
        {
          "internalType": "address",
          "name": "to",
          "type": "address"
        },
        {
          "internalType": "uint256[]",
          "name": "ids",
          "type": "uint256[]"
        },
        {
          "internalType": "uint256[]",
          "name": "values",
          "type": "uint256[]"
        },
        {
          "internalType": "bytes",
          "name": "data",
          "type": "bytes"
        }
      ],
      "name": "safeBatchMint",
      "outputs": [],
      "stateMutability": "nonpayable",
      "type": "function"
    },
    {
      "inputs": [
        {
          "internalType": "address",
          "name": "from",
          "type": "address"
        },
        {
          "internalType": "address",
          "name": "to",
          "type": "address"
        },
        {
          "internalType": "uint256[]",
          "name": "ids",
          "type": "uint256[]"
        },
        {
          "internalType": "uint256[]",
          "name": "values",
          "type": "uint256[]"
        },
        {
          "internalType": "bytes",
          "name": "data",
          "type": "bytes"
        }
      ],
      "name": "safeBatchTransferFrom",
      "outputs": [],
      "stateMutability": "nonpayable",
      "type": "function"
    },
    {
      "inputs": [
        {
          "internalType": "address[]",
          "name": "recipients",
          "type": "address[]"
        },
        {
          "internalType": "uint256[]",
          "name": "ids",
          "type": "uint256[]"
        },
        {
          "internalType": "uint256[]",
          "name": "values",
          "type": "uint256[]"
        },
        {
          "internalType": "bytes",
          "name": "data",
          "type": "bytes"
        }
      ],
      "name": "safeDeliver",
      "outputs": [],
      "stateMutability": "nonpayable",
      "type": "function"
    },
    {
      "inputs": [
        {
          "internalType": "address",
          "name": "to",
          "type": "address"
        },
        {
          "internalType": "uint256",
          "name": "id",
          "type": "uint256"
        },
        {
          "internalType": "uint256",
          "name": "value",
          "type": "uint256"
        },
        {
          "internalType": "bytes",
          "name": "data",
          "type": "bytes"
        }
      ],
      "name": "safeMint",
      "outputs": [],
      "stateMutability": "nonpayable",
      "type": "function"
    },
    {
      "inputs": [
        {
          "internalType": "address",
          "name": "from",
          "type": "address"
        },
        {
          "internalType": "address",
          "name": "to",
          "type": "address"
        },
        {
          "internalType": "uint256",
          "name": "id",
          "type": "uint256"
        },
        {
          "internalType": "uint256",
          "name": "value",
          "type": "uint256"
        },
        {
          "internalType": "bytes",
          "name": "data",
          "type": "bytes"
        }
      ],
      "name": "safeTransferFrom",
      "outputs": [],
      "stateMutability": "nonpayable",
      "type": "function"
    },
    {
      "inputs": [
        {
          "internalType": "address",
          "name": "operator",
          "type": "address"
        },
        {
          "internalType": "bool",
          "name": "approved",
          "type": "bool"
        }
      ],
      "name": "setApprovalForAll",
      "outputs": [],
      "stateMutability": "nonpayable",
      "type": "function"
    },
    {
      "inputs": [
        {
          "internalType": "string",
          "name": "baseURI",
          "type": "string"
        }
      ],
      "name": "setBaseMetadataURI",
      "outputs": [],
      "stateMutability": "nonpayable",
      "type": "function"
    },
    {
      "inputs": [
        {
          "internalType": "uint256",
          "name": "percentage",
          "type": "uint256"
        }
      ],
      "name": "setRoyaltyPercentage",
      "outputs": [],
      "stateMutability": "nonpayable",
      "type": "function"
    },
    {
      "inputs": [
        {
          "internalType": "address",
          "name": "receiver",
          "type": "address"
        }
      ],
      "name": "setRoyaltyReceiver",
      "outputs": [],
      "stateMutability": "nonpayable",
      "type": "function"
    },
    {
      "inputs": [
        {
          "internalType": "bytes4",
          "name": "interfaceId",
          "type": "bytes4"
        }
      ],
      "name": "supportsInterface",
      "outputs": [
        {
          "internalType": "bool",
          "name": "",
          "type": "bool"
        }
      ],
      "stateMutability": "view",
      "type": "function"
    },
    {
      "inputs": [
        {
          "internalType": "address",
          "name": "newOwner",
          "type": "address"
        }
      ],
      "name": "transferOwnership",
      "outputs": [],
      "stateMutability": "nonpayable",
      "type": "function"
    },
    {
      "inputs": [
        {
          "internalType": "contract IOperatorFilterRegistry",
          "name": "registry",
          "type": "address"
        }
      ],
      "name": "updateOperatorFilterRegistry",
      "outputs": [],
      "stateMutability": "nonpayable",
      "type": "function"
    },
    {
      "inputs": [
        {
          "internalType": "uint256",
          "name": "id",
          "type": "uint256"
        }
      ],
      "name": "uri",
      "outputs": [
        {
          "internalType": "string",
          "name": "metadataURI",
          "type": "string"
        }
      ],
      "stateMutability": "view",
      "type": "function"
    }
  ],
  "bytecode": "0x60a06040523480156200001157600080fd5b5060405162004bcf38038062004bcf8339810160408190526200003491620003ed565b808083336200006681620000526200012a60201b62000f6b1760201c565b6200016060201b62000f991790919060201c565b506200007c620001f360201b620010561760201c565b620000aa81620000966200021860201b620010861760201c565b6200024860201b620010b41790919060201c565b50620000c06200026560201b620010f61760201c565b620000d56200028860201b620011241760201c565b620000ea620002ab60201b620011521760201c565b620000ff620002ce60201b620011801760201c565b62000114620002f160201b620011ae1760201c565b6001600160a01b0316608052506200044e915050565b6000806200015a60017fc9ed16f33ab3a66c84bfd83099ccb2a8845871e2e1c1928f63797152f0fd54cd6200042c565b92915050565b6001600160a01b03811615620001b75781546001600160a01b0319166001600160a01b03821690811783556040516000907f8be0079c531659141344cd1fd0a4f28419497f9722a3daafe3b4186f6b6457e0908290a35b620001ef6307f5828d60e41b6001620001da6200031460201b620011d81760201c565b6200034460201b62001206179092919060201c565b5050565b62000216636cdb3d1360e11b6001620001da6200031460201b620011d81760201c565b565b6000806200015a60017f609b85bcafa81ecfaf3ff62cdde2c6c9082a68dbe4922f07399c706bdeb7cd316200042c565b81546001600160a01b0319166001600160a01b0391909116179055565b62000216631464324b60e21b6001620001da6200031460201b620011d81760201c565b62000216633a2ae73360e21b6001620001da6200031460201b620011d81760201c565b620002166303a24d0760e21b6001620001da6200031460201b620011d81760201c565b6200021663921ed8d160e01b6001620001da6200031460201b620011d81760201c565b6200021663152a902d60e11b6001620001da6200031460201b620011d81760201c565b6000806200015a60017fca9d3e17f264b0f3984e2634e94adb37fa3e6a8103f06aeae6fa59e21c769f5e6200042c565b600160e01b6001600160e01b0319831601620003a65760405162461bcd60e51b815260206004820152601f60248201527f496e74657266616365446574656374696f6e3a2077726f6e672076616c756500604482015260640160405180910390fd5b6001600160e01b03199190911660009081526020929092526040909120805460ff1916911515919091179055565b6001600160a01b0381168114620003ea57600080fd5b50565b600080604083850312156200040157600080fd5b82516200040e81620003d4565b60208401519092506200042181620003d4565b809150509250929050565b818103818111156200015a57634e487b7160e01b600052601160045260246000fd5b6080516147506200047f600039600081816102f40152818161038f01528181612cbd0152612d4501526147506000f3fe608060405234801561001057600080fd5b506004361061020a5760003560e01c80637e518ec81161012a578063c3666c36116100bd578063e8ab9ccc1161008c578063f242432a11610071578063f242432a1461050c578063f2fde38b1461051f578063f7ba94bd1461053257600080fd5b8063e8ab9ccc146104e6578063e985e9c5146104f957600080fd5b8063c3666c361461048f578063d5391393146104a2578063d547741f146104c9578063e1a8bf2c146104dc57600080fd5b80638dc251e3116100f95780638dc251e31461044e57806391d1485414610461578063a22cb46514610474578063b0ccc31e1461048757600080fd5b80637e518ec81461040d57806380534934146104205780638bb9c5bf146104335780638da5cb5b1461044657600080fd5b80632eb2c2d6116101a25780635b2bd79e116101715780635b2bd79e146103cc5780635cfa9297146103d457806361ba27da146103e757806373c8a958146103fa57600080fd5b80632eb2c2d6146103395780632f2ff15d1461034c5780634e1273f41461035f578063572b6c051461037f57600080fd5b8063114ba8ee116101de578063114ba8ee1461028d578063124d91e5146102a05780632a55205a146102b35780632b4c9f16146102f257600080fd5b8062fdd58e1461020f57806301ffc9a7146102355780630d6a5bbb146102585780630e89341c1461026d575b600080fd5b61022261021d3660046139d9565b610545565b6040519081526020015b60405180910390f35b610248610243366004613a33565b610564565b604051901515815260200161022c565b61026b610266366004613ade565b610578565b005b61028061027b366004613b8b565b610673565b60405161022c9190613c12565b61026b61029b366004613c25565b610687565b61026b6102ae366004613c42565b6106f2565b6102c66102c1366004613c77565b610716565b6040805173ffffffffffffffffffffffffffffffffffffffff909316835260208301919091520161022c565b7f00000000000000000000000000000000000000000000000000000000000000005b60405173ffffffffffffffffffffffffffffffffffffffff909116815260200161022c565b61026b610347366004613c99565b610739565b61026b61035a366004613d58565b610786565b61037261036d366004613d88565b6107b4565b60405161022c9190613e2f565b61024861038d366004613c25565b7f000000000000000000000000000000000000000000000000000000000000000073ffffffffffffffffffffffffffffffffffffffff90811691161490565b6102806107d9565b61026b6103e2366004613e42565b6107f0565b61026b6103f5366004613b8b565b610882565b61026b610408366004613eac565b61089f565b61026b61041b366004613f46565b6109bd565b61026b61042e366004613f88565b6109e0565b61026b610441366004613b8b565b610a0a565b610314610a25565b61026b61045c366004613c25565b610a4c565b61024861046f366004613d58565b610a69565b61026b610482366004614008565b610aad565b610314610ae2565b61026b61049d366004613eac565b610aef565b6102227f6d696e746572000000000000000000000000000000000000000000000000000081565b61026b6104d7366004613d58565b610c94565b610222620186a081565b61026b6104f4366004614036565b610cc2565b6102486105073660046140d9565b610ddc565b61026b61051a366004614107565b610e2a565b61026b61052d366004613c25565b610e6a565b61026b610540366004613d88565b610e85565b600061055b8383610554611312565b9190611340565b90505b92915050565b600061055e826105726111d8565b906113f4565b60006105826114ce565b90506105b87f6d696e7465720000000000000000000000000000000000000000000000000000826105b16114d8565b9190611506565b610669818989898080602002602001604051908101604052809392919081815260200183836020028082843760009201919091525050604080516020808d0282810182019093528c82529093508c92508b91829185019084908082843760009201919091525050604080516020601f8c018190048102820181019092528a815292508a915089908190840183828082843760009201919091525061065f9250611312915050565b94939291906115b2565b5050505050505050565b606061055e82610681611797565b906117c5565b6106a06106926114ce565b61069a610f6b565b906117f9565b6106ef816106ac611086565b9081547fffffffffffffffffffffffff00000000000000000000000000000000000000001673ffffffffffffffffffffffffffffffffffffffff91909116179055565b50565b6107116106fd6114ce565b848484610708611312565b9392919061187c565b505050565b60008061072d8484610726611959565b9190611987565b915091505b9250929050565b60006107436114ce565b9050610759818a610752611086565b9190611a31565b61077b818a8a8a8a8a8a8a8a61076d611312565b989796959493929190611a6e565b505050505050505050565b60006107906114ce565b905061079e8161069a610f6b565b6107118383836107ac6114d8565b929190611d66565b60606107ce858585856107c5611312565b93929190611e3d565b90505b949350505050565b60606107eb6107e6611797565b611f7b565b905090565b60006107fa6114ce565b90506108297f6d696e7465720000000000000000000000000000000000000000000000000000826105b16114d8565b61087a8187878787878080601f0160208091040260200160405190810160405280939291908181526020018383808284376000920191909152506108709250611312915050565b9493929190612011565b505050505050565b61088d6106926114ce565b6106ef81610899611959565b9061211f565b6108aa6106926114ce565b8483811480156108b957508082145b610924576040517f08c379a000000000000000000000000000000000000000000000000000000000815260206004820152601d60248201527f5265636f766572793a20696e636f6e73697374656e742061727261797300000060448201526064015b60405180910390fd5b60005b818114610669576109b588888381811061094357610943614171565b90506020020160208101906109589190613c25565b85858481811061096a5761096a614171565b9050602002013588888581811061098357610983614171565b90506020020160208101906109989190613c25565b73ffffffffffffffffffffffffffffffffffffffff1691906121a5565b600101610927565b6109c86106926114ce565b6109dc82826109d5611797565b9190612232565b5050565b610a036109eb6114ce565b86868686866109f8611312565b95949392919061227d565b5050505050565b6106ef610a156114ce565b82610a1e6114d8565b9190612434565b60006107eb610a32610f6b565b5473ffffffffffffffffffffffffffffffffffffffff1690565b610a576106926114ce565b6106ef81610a63611959565b906124d0565b600061055b8383610a786114d8565b60009283526020908152604080842073ffffffffffffffffffffffffffffffffffffffff909316845291905290205460ff1690565b8015610ac557610ac582610abf611086565b9061251d565b6109dc610ad06114ce565b8383610ada611312565b929190612527565b60006107eb610a32611086565b610afa6106926114ce565b848381148015610b0957508082145b610b6f576040517f08c379a000000000000000000000000000000000000000000000000000000000815260206004820152601d60248201527f5265636f766572793a20696e636f6e73697374656e7420617272617973000000604482015260640161091b565b60005b81811461066957858582818110610b8b57610b8b614171565b9050602002016020810190610ba09190613c25565b73ffffffffffffffffffffffffffffffffffffffff166323b872dd308a8a85818110610bce57610bce614171565b9050602002016020810190610be39190613c25565b878786818110610bf557610bf5614171565b6040517fffffffff0000000000000000000000000000000000000000000000000000000060e088901b16815273ffffffffffffffffffffffffffffffffffffffff958616600482015294909316602485015250602090910201356044820152606401600060405180830381600087803b158015610c7157600080fd5b505af1158015610c85573d6000803e3d6000fd5b50505050806001019050610b72565b6000610c9e6114ce565b9050610cac8161069a610f6b565b610711838383610cba6114d8565b929190612657565b6000610ccc6114ce565b9050610cfb7f6d696e7465720000000000000000000000000000000000000000000000000000826105b16114d8565b61077b818a8a8080602002602001604051908101604052809392919081815260200183836020028082843760009201919091525050604080516020808e0282810182019093528d82529093508d92508c91829185019084908082843760009201919091525050604080516020808d0282810182019093528c82529093508c92508b91829185019084908082843760009201919091525050604080516020601f8c018190048102820181019092528a815292508a9150899081908401838280828437600092019190915250610dd29250611312915050565b9493929190612721565b600061055b8383610deb611312565b919073ffffffffffffffffffffffffffffffffffffffff9182166000908152600193909301602090815260408085209290931684525290205460ff1690565b6000610e346114ce565b9050610e438188610752611086565b610e6181888888888888610e55611312565b96959493929190612811565b50505050505050565b6106ef610e756114ce565b82610e7e610f6b565b91906129f4565b610e906106926114ce565b82818114610efa576040517f08c379a000000000000000000000000000000000000000000000000000000000815260206004820152601d60248201527f5265636f766572793a20696e636f6e73697374656e7420617272617973000000604482015260640161091b565b60005b81811461087a57610f63848483818110610f1957610f19614171565b90506020020135878784818110610f3257610f32614171565b9050602002016020810190610f479190613c25565b73ffffffffffffffffffffffffffffffffffffffff1690612b20565b600101610efd565b60008061055e60017fc9ed16f33ab3a66c84bfd83099ccb2a8845871e2e1c1928f63797152f0fd54cd6141cf565b73ffffffffffffffffffffffffffffffffffffffff8116156110215781547fffffffffffffffffffffffff00000000000000000000000000000000000000001673ffffffffffffffffffffffffffffffffffffffff821690811783556040516000907f8be0079c531659141344cd1fd0a4f28419497f9722a3daafe3b4186f6b6457e0908290a35b6109dc7f7f5828d000000000000000000000000000000000000000000000000000000000600161104f6111d8565b9190611206565b6110847fd9b67a2600000000000000000000000000000000000000000000000000000000600161104f6111d8565b565b60008061055e60017f609b85bcafa81ecfaf3ff62cdde2c6c9082a68dbe4922f07399c706bdeb7cd316141cf565b81547fffffffffffffffffffffffff00000000000000000000000000000000000000001673ffffffffffffffffffffffffffffffffffffffff91909116179055565b6110847f5190c92c00000000000000000000000000000000000000000000000000000000600161104f6111d8565b6110847fe8ab9ccc00000000000000000000000000000000000000000000000000000000600161104f6111d8565b6110847f0e89341c00000000000000000000000000000000000000000000000000000000600161104f6111d8565b6110847f921ed8d100000000000000000000000000000000000000000000000000000000600161104f6111d8565b6110847f2a55205a00000000000000000000000000000000000000000000000000000000600161104f5b60008061055e60017fca9d3e17f264b0f3984e2634e94adb37fa3e6a8103f06aeae6fa59e21c769f5e6141cf565b7c01000000000000000000000000000000000000000000000000000000007fffffffff000000000000000000000000000000000000000000000000000000008316016112ae576040517f08c379a000000000000000000000000000000000000000000000000000000000815260206004820152601f60248201527f496e74657266616365446574656374696f6e3a2077726f6e672076616c756500604482015260640161091b565b7fffffffff00000000000000000000000000000000000000000000000000000000919091166000908152602092909252604090912080547fffffffffffffffffffffffffffffffffffffffffffffffffffffffffffffff0016911515919091179055565b60008061055e60017f5ccf5846fa27a68fafc8e588671a68f5e67c2f9b56af4263806a4d71735e86136141cf565b600073ffffffffffffffffffffffffffffffffffffffff83166113bf576040517f08c379a000000000000000000000000000000000000000000000000000000000815260206004820152601e60248201527f455243313135353a2062616c616e6365206f6620616464726573732830290000604482015260640161091b565b5060009081526020928352604080822073ffffffffffffffffffffffffffffffffffffffff9390931682529190925290205490565b60007c01000000000000000000000000000000000000000000000000000000007fffffffff000000000000000000000000000000000000000000000000000000008316016114445750600061055e565b7ffe003659000000000000000000000000000000000000000000000000000000007fffffffff000000000000000000000000000000000000000000000000000000008316016114955750600161055e565b507fffffffff00000000000000000000000000000000000000000000000000000000166000908152602091909152604090205460ff1690565b60006107eb612c7a565b60008061055e60017fc8827d3282af6f37b64c3e9e6f3ac9df286ab0bb0fccd6f8661bf19adb368b236141cf565b60008281526020848152604080832073ffffffffffffffffffffffffffffffffffffffff8516845290915290205460ff166107115761154482612dc1565b60405160200161155491906141e2565b604080517fffffffffffffffffffffffffffffffffffffffffffffffffffffffffffffffe0818403018152908290527f08c379a000000000000000000000000000000000000000000000000000000000825261091b91600401613c12565b73ffffffffffffffffffffffffffffffffffffffff841661162f576040517f08c379a000000000000000000000000000000000000000000000000000000000815260206004820152601b60248201527f455243313135353a206d696e7420746f20616464726573732830290000000000604482015260640161091b565b82518251811461169b576040517f08c379a000000000000000000000000000000000000000000000000000000000815260206004820152601c60248201527f455243313135353a20696e636f6e73697374656e742061727261797300000000604482015260640161091b565b60005b8181146116eb576116e388878784815181106116bc576116bc614171565b60200260200101518785815181106116d6576116d6614171565b6020026020010151612f53565b60010161169e565b508473ffffffffffffffffffffffffffffffffffffffff16600073ffffffffffffffffffffffffffffffffffffffff168773ffffffffffffffffffffffffffffffffffffffff167f4a39dc06d4c0dbc64b70af90fd698a233a518aa5d07e595d983b8c0526c8f7fb878760405161176392919061424e565b60405180910390a473ffffffffffffffffffffffffffffffffffffffff85163b15610e6157610e6186600087878787613027565b60008061055e60017fe94434e3c6b941c5d90218142fadcc69cb2e13723993540bfa1c131dd1d3475a6141cf565b6060826117d18361314f565b6040516020016117e29291906142cf565b604051602081830303815290604052905092915050565b815473ffffffffffffffffffffffffffffffffffffffff8281169116146109dc576040517f08c379a000000000000000000000000000000000000000000000000000000000815260206004820152601860248201527f4f776e6572736869703a206e6f7420746865206f776e65720000000000000000604482015260640161091b565b61188785848661320d565b6118ed576040517f08c379a000000000000000000000000000000000000000000000000000000000815260206004820152601c60248201527f455243313135353a206e6f6e2d617070726f7665642073656e64657200000000604482015260640161091b565b6118f985848484613282565b604080518381526020810183905260009173ffffffffffffffffffffffffffffffffffffffff86811692908816917fc3d58168c5ae7397731d063d5bbf3d657854427343f4c083240f7aacaa2d0f62910160405180910390a45050505050565b60008061055e60017f2c0cf10337caabbd02dcf226f05f5fd19a0919a41a8df8958c39b800078268586141cf565b825473ffffffffffffffffffffffffffffffffffffffff8116906000907401000000000000000000000000000000000000000090046bffffffffffffffffffffffff168315806119d5575080155b156119e35760009150611a28565b620186a0841015611a0d57620186a06119fc8286614374565b611a06919061438b565b9150611a28565b80611a1b620186a08661438b565b611a259190614374565b91505b50935093915050565b8073ffffffffffffffffffffffffffffffffffffffff168273ffffffffffffffffffffffffffffffffffffffff1614610711576107118383613322565b73ffffffffffffffffffffffffffffffffffffffff8716611aeb576040517f08c379a000000000000000000000000000000000000000000000000000000000815260206004820152601f60248201527f455243313135353a207472616e7366657220746f206164647265737328302900604482015260640161091b565b84838114611b55576040517f08c379a000000000000000000000000000000000000000000000000000000000815260206004820152601c60248201527f455243313135353a20696e636f6e73697374656e742061727261797300000000604482015260640161091b565b611b608b8a8c61320d565b611bc6576040517f08c379a000000000000000000000000000000000000000000000000000000000815260206004820152601c60248201527f455243313135353a206e6f6e2d617070726f7665642073656e64657200000000604482015260640161091b565b60005b818114611c1557611c0d8c8b8b8b8b86818110611be857611be8614171565b905060200201358a8a87818110611c0157611c01614171565b90506020020135613449565b600101611bc9565b508773ffffffffffffffffffffffffffffffffffffffff168973ffffffffffffffffffffffffffffffffffffffff168b73ffffffffffffffffffffffffffffffffffffffff167f4a39dc06d4c0dbc64b70af90fd698a233a518aa5d07e595d983b8c0526c8f7fb8a8a8a8a604051611c909493929190614411565b60405180910390a473ffffffffffffffffffffffffffffffffffffffff88163b15611d5957611d598a8a8a8a8a8080602002602001604051908101604052809392919081815260200183836020028082843760009201919091525050604080516020808e0282810182019093528d82529093508d92508c91829185019084908082843760009201919091525050604080516020601f8d018190048102820181019092528b815292508b91508a908190840183828082843760009201919091525061302792505050565b5050505050505050505050565b60008381526020858152604080832073ffffffffffffffffffffffffffffffffffffffff8616845290915290205460ff16611e375760008381526020858152604080832073ffffffffffffffffffffffffffffffffffffffff8681168086529184529382902080547fffffffffffffffffffffffffffffffffffffffffffffffffffffffffffffff00166001179055815187815292830152918316918101919091527f2f8788117e7eff1d82e926ec794901d17c78024a50270940304540a733656f0d906060015b60405180910390a15b50505050565b606083828114611ea9576040517f08c379a000000000000000000000000000000000000000000000000000000000815260206004820152601c60248201527f455243313135353a20696e636f6e73697374656e742061727261797300000000604482015260640161091b565b8467ffffffffffffffff811115611ec257611ec2614438565b604051908082528060200260200182016040528015611eeb578160200160208202803683370190505b50915060005b818114611f7057611f4b878783818110611f0d57611f0d614171565b9050602002016020810190611f229190613c25565b868684818110611f3457611f34614171565b905060200201358a6113409092919063ffffffff16565b838281518110611f5d57611f5d614171565b6020908102919091010152600101611ef1565b505095945050505050565b6060816000018054611f8c9061427c565b80601f0160208091040260200160405190810160405280929190818152602001828054611fb89061427c565b80156120055780601f10611fda57610100808354040283529160200191612005565b820191906000526020600020905b815481529060010190602001808311611fe857829003601f168201915b50505050509050919050565b73ffffffffffffffffffffffffffffffffffffffff841661208e576040517f08c379a000000000000000000000000000000000000000000000000000000000815260206004820152601b60248201527f455243313135353a206d696e7420746f20616464726573732830290000000000604482015260640161091b565b61209a86858585612f53565b604080518481526020810184905273ffffffffffffffffffffffffffffffffffffffff80871692600092918916917fc3d58168c5ae7397731d063d5bbf3d657854427343f4c083240f7aacaa2d0f62910160405180910390a473ffffffffffffffffffffffffffffffffffffffff84163b1561087a5761087a856000868686866135fc565b620186a081111561215f576040517f3affc6c40000000000000000000000000000000000000000000000000000000081526004810182905260240161091b565b81546bffffffffffffffffffffffff909116740100000000000000000000000000000000000000000273ffffffffffffffffffffffffffffffffffffffff909116179055565b6040805173ffffffffffffffffffffffffffffffffffffffff8416602482015260448082018490528251808303909101815260649091019091526020810180517bffffffffffffffffffffffffffffffffffffffffffffffffffffffff167fa9059cbb00000000000000000000000000000000000000000000000000000000179052610711908490613658565b8261223e8284836144ad565b507f04b1dc5c136a3ce9fded8db0ce3d3366c58764ec3a8e4c2b9e52e4ddfe5ebbf782826040516122709291906145c7565b60405180910390a1505050565b828181146122e7576040517f08c379a000000000000000000000000000000000000000000000000000000000815260206004820152601c60248201527f455243313135353a20696e636f6e73697374656e742061727261797300000000604482015260640161091b565b6122f288878961320d565b612358576040517f08c379a000000000000000000000000000000000000000000000000000000000815260206004820152601c60248201527f455243313135353a206e6f6e2d617070726f7665642073656e64657200000000604482015260640161091b565b60005b8181146123a65761239e898888888581811061237957612379614171565b9050602002013587878681811061239257612392614171565b90506020020135613282565b60010161235b565b50600073ffffffffffffffffffffffffffffffffffffffff168673ffffffffffffffffffffffffffffffffffffffff168873ffffffffffffffffffffffffffffffffffffffff167f4a39dc06d4c0dbc64b70af90fd698a233a518aa5d07e595d983b8c0526c8f7fb888888886040516124229493929190614411565b60405180910390a45050505050505050565b61243f838284611506565b60008181526020848152604080832073ffffffffffffffffffffffffffffffffffffffff86168085529083529281902080547fffffffffffffffffffffffffffffffffffffffffffffffffffffffffffffff0016905580518481529182018390528101919091527ff6391f5c32d9c69d2a47ea670b442974b53935d1edc7fd64eb21e047a839171b90606001612270565b73ffffffffffffffffffffffffffffffffffffffff81166110b4576040517f6fe1b4c800000000000000000000000000000000000000000000000000000000815260040160405180910390fd5b6109dc8282613322565b8273ffffffffffffffffffffffffffffffffffffffff168273ffffffffffffffffffffffffffffffffffffffff16036125bc576040517f08c379a000000000000000000000000000000000000000000000000000000000815260206004820152601e60248201527f455243313135353a2073656c662d617070726f76616c20666f7220616c6c0000604482015260640161091b565b73ffffffffffffffffffffffffffffffffffffffff838116600081815260018701602090815260408083209487168084529482529182902080547fffffffffffffffffffffffffffffffffffffffffffffffffffffffffffffff001686151590811790915591519182527f17307eab39ab6107e8899845ad3d59bd9653f200f220920489ca2b5937696c31910160405180910390a350505050565b60008381526020858152604080832073ffffffffffffffffffffffffffffffffffffffff8616845290915290205460ff1615611e375760008381526020858152604080832073ffffffffffffffffffffffffffffffffffffffff8681168086529184529382902080547fffffffffffffffffffffffffffffffffffffffffffffffffffffffffffffff00169055815187815292830152918316918101919091527ff6391f5c32d9c69d2a47ea670b442974b53935d1edc7fd64eb21e047a839171b90606001611e2e565b83518351811480156127335750825181145b612799576040517f08c379a000000000000000000000000000000000000000000000000000000000815260206004820152601c60248201527f455243313135353a20696e636f6e73697374656e742061727261797300000000604482015260640161091b565b60005b81811461066957612809878783815181106127b9576127b9614171565b60200260200101518784815181106127d3576127d3614171565b60200260200101518785815181106127ed576127ed614171565b6020026020010151878d6120119095949392919063ffffffff16565b60010161279c565b73ffffffffffffffffffffffffffffffffffffffff851661288e576040517f08c379a000000000000000000000000000000000000000000000000000000000815260206004820152601f60248201527f455243313135353a207472616e7366657220746f206164647265737328302900604482015260640161091b565b61289988878961320d565b6128ff576040517f08c379a000000000000000000000000000000000000000000000000000000000815260206004820152601c60248201527f455243313135353a206e6f6e2d617070726f7665642073656e64657200000000604482015260640161091b565b61290c8887878787613449565b8473ffffffffffffffffffffffffffffffffffffffff168673ffffffffffffffffffffffffffffffffffffffff168873ffffffffffffffffffffffffffffffffffffffff167fc3d58168c5ae7397731d063d5bbf3d657854427343f4c083240f7aacaa2d0f62878760405161298b929190918252602082015260400190565b60405180910390a473ffffffffffffffffffffffffffffffffffffffff85163b1561066957610669878787878787878080601f0160208091040260200160405190810160405280939291908181526020018383808284376000920191909152506135fc92505050565b825473ffffffffffffffffffffffffffffffffffffffff9081169083168114612a79576040517f08c379a000000000000000000000000000000000000000000000000000000000815260206004820152601860248201527f4f776e6572736869703a206e6f7420746865206f776e65720000000000000000604482015260640161091b565b8173ffffffffffffffffffffffffffffffffffffffff168173ffffffffffffffffffffffffffffffffffffffff1614611e375783547fffffffffffffffffffffffff00000000000000000000000000000000000000001673ffffffffffffffffffffffffffffffffffffffff8381169182178655604051908316907f8be0079c531659141344cd1fd0a4f28419497f9722a3daafe3b4186f6b6457e090600090a350505050565b80471015612b8a576040517f08c379a000000000000000000000000000000000000000000000000000000000815260206004820152601d60248201527f416464726573733a20696e73756666696369656e742062616c616e6365000000604482015260640161091b565b60008273ffffffffffffffffffffffffffffffffffffffff168260405160006040518083038185875af1925050503d8060008114612be4576040519150601f19603f3d011682016040523d82523d6000602084013e612be9565b606091505b5050905080610711576040517f08c379a000000000000000000000000000000000000000000000000000000000815260206004820152603a60248201527f416464726573733a20756e61626c6520746f2073656e642076616c75652c207260448201527f6563697069656e74206d61792068617665207265766572746564000000000000606482015260840161091b565b600033321480612c8a5750601836105b15612c9457503390565b7fffffffffffffffffffffffffffffffffffffffffffffffffffffffffffffffec36013560601c7f000000000000000000000000000000000000000000000000000000000000000073ffffffffffffffffffffffffffffffffffffffff16331480612db057506040517f8929a8ca00000000000000000000000000000000000000000000000000000000815273ffffffffffffffffffffffffffffffffffffffff82811660048301523360248301527f00000000000000000000000000000000000000000000000000000000000000001690638929a8ca90604401602060405180830381865afa158015612d8c573d6000803e3d6000fd5b505050506040513d601f19601f82011682018060405250810190612db09190614614565b15612dba57919050565b3391505090565b60606000829003612de057505060408051602081019091526000815290565b600082604051602001612df591815260200190565b604080517fffffffffffffffffffffffffffffffffffffffffffffffffffffffffffffffe08184030181529190529050601f5b818181518110612e3a57612e3a614171565b01602001517fff0000000000000000000000000000000000000000000000000000000000000016600003612e8f577fffffffffffffffffffffffffffffffffffffffffffffffffffffffffffffffff01612e28565b60008160010167ffffffffffffffff811115612ead57612ead614438565b6040519080825280601f01601f191660200182016040528015612ed7576020820181803683370190505b50905060005b828111612f4a57838181518110612ef657612ef6614171565b602001015160f81c60f81b828281518110612f1357612f13614171565b60200101907effffffffffffffffffffffffffffffffffffffffffffffffffffffffffffff1916908160001a905350600101612edd565b50949350505050565b8015611e375760008281526020858152604080832073ffffffffffffffffffffffffffffffffffffffff87168452909152902054818101818111612ff3576040517f08c379a000000000000000000000000000000000000000000000000000000000815260206004820152601960248201527f455243313135353a2062616c616e6365206f766572666c6f7700000000000000604482015260640161091b565b60009384526020958652604080852073ffffffffffffffffffffffffffffffffffffffff9690961685529490955250502055565b6040517fbc197c81000000000000000000000000000000000000000000000000000000008082529073ffffffffffffffffffffffffffffffffffffffff86169063bc197c8190613083908a908a90899089908990600401614631565b6020604051808303816000875af11580156130a2573d6000803e3d6000fd5b505050506040513d601f19601f820116820180604052508101906130c6919061469c565b7fffffffff00000000000000000000000000000000000000000000000000000000161461087a576040517f08c379a000000000000000000000000000000000000000000000000000000000815260206004820152601a60248201527f455243313135353a207472616e736665722072656a6563746564000000000000604482015260640161091b565b6060600061315c83613764565b600101905060008167ffffffffffffffff81111561317c5761317c614438565b6040519080825280601f01601f1916602001820160405280156131a6576020820181803683370190505b5090508181016020015b7fffffffffffffffffffffffffffffffffffffffffffffffffffffffffffffffff017f3031323334353637383961626364656600000000000000000000000000000000600a86061a8153600a85049450846131b057509392505050565b60008173ffffffffffffffffffffffffffffffffffffffff168373ffffffffffffffffffffffffffffffffffffffff1614806107d157505073ffffffffffffffffffffffffffffffffffffffff9182166000908152600193909301602090815260408085209290931684525290205460ff1690565b8015611e375760008281526020858152604080832073ffffffffffffffffffffffffffffffffffffffff87168452909152902054818103818110612ff3576040517f08c379a000000000000000000000000000000000000000000000000000000000815260206004820152601d60248201527f455243313135353a20696e73756666696369656e742062616c616e6365000000604482015260640161091b565b815473ffffffffffffffffffffffffffffffffffffffff168015801590613360575060008173ffffffffffffffffffffffffffffffffffffffff163b115b15610711576040517fc617113400000000000000000000000000000000000000000000000000000000815230600482015273ffffffffffffffffffffffffffffffffffffffff838116602483015282169063c617113490604401602060405180830381865afa1580156133d7573d6000803e3d6000fd5b505050506040513d601f19601f820116820180604052508101906133fb9190614614565b610711576040517fede71dcc00000000000000000000000000000000000000000000000000000000815273ffffffffffffffffffffffffffffffffffffffff8316600482015260240161091b565b8015610a035760008281526020868152604080832073ffffffffffffffffffffffffffffffffffffffff881684529091529020548181038181106134e9576040517f08c379a000000000000000000000000000000000000000000000000000000000815260206004820152601d60248201527f455243313135353a20696e73756666696369656e742062616c616e6365000000604482015260640161091b565b8473ffffffffffffffffffffffffffffffffffffffff168673ffffffffffffffffffffffffffffffffffffffff1614610e615760008481526020888152604080832073ffffffffffffffffffffffffffffffffffffffff891684529091529020548381018181116135b6576040517f08c379a000000000000000000000000000000000000000000000000000000000815260206004820152601960248201527f455243313135353a2062616c616e6365206f766572666c6f7700000000000000604482015260640161091b565b600086815260208a8152604080832073ffffffffffffffffffffffffffffffffffffffff808d1685528184528285208890558b1684529091529020555050505050505050565b6040517ff23a6e61000000000000000000000000000000000000000000000000000000008082529073ffffffffffffffffffffffffffffffffffffffff86169063f23a6e6190613083908a908a908990899089906004016146b9565b60006136ba826040518060400160405280602081526020017f5361666545524332303a206c6f772d6c6576656c2063616c6c206661696c65648152508573ffffffffffffffffffffffffffffffffffffffff166138469092919063ffffffff16565b80519091501561071157808060200190518101906136d89190614614565b610711576040517f08c379a000000000000000000000000000000000000000000000000000000000815260206004820152602a60248201527f5361666545524332303a204552433230206f7065726174696f6e20646964206e60448201527f6f74207375636365656400000000000000000000000000000000000000000000606482015260840161091b565b6000807a184f03e93ff9f4daa797ed6e38ed64bf6a1f01000000000000000083106137ad577a184f03e93ff9f4daa797ed6e38ed64bf6a1f010000000000000000830492506040015b6d04ee2d6d415b85acef810000000083106137d9576d04ee2d6d415b85acef8100000000830492506020015b662386f26fc1000083106137f757662386f26fc10000830492506010015b6305f5e100831061380f576305f5e100830492506008015b612710831061382357612710830492506004015b60648310613835576064830492506002015b600a831061055e5760010192915050565b60606107d18484600085856000808673ffffffffffffffffffffffffffffffffffffffff16858760405161387a91906146fe565b60006040518083038185875af1925050503d80600081146138b7576040519150601f19603f3d011682016040523d82523d6000602084013e6138bc565b606091505b50915091506138cd878383876138d8565b979650505050505050565b6060831561396e5782516000036139675773ffffffffffffffffffffffffffffffffffffffff85163b613967576040517f08c379a000000000000000000000000000000000000000000000000000000000815260206004820152601d60248201527f416464726573733a2063616c6c20746f206e6f6e2d636f6e7472616374000000604482015260640161091b565b50816107d1565b6107d183838151156139835781518083602001fd5b806040517f08c379a000000000000000000000000000000000000000000000000000000000815260040161091b9190613c12565b73ffffffffffffffffffffffffffffffffffffffff811681146106ef57600080fd5b600080604083850312156139ec57600080fd5b82356139f7816139b7565b946020939093013593505050565b7fffffffff00000000000000000000000000000000000000000000000000000000811681146106ef57600080fd5b600060208284031215613a4557600080fd5b8135613a5081613a05565b9392505050565b60008083601f840112613a6957600080fd5b50813567ffffffffffffffff811115613a8157600080fd5b6020830191508360208260051b850101111561073257600080fd5b60008083601f840112613aae57600080fd5b50813567ffffffffffffffff811115613ac657600080fd5b60208301915083602082850101111561073257600080fd5b60008060008060008060006080888a031215613af957600080fd5b8735613b04816139b7565b9650602088013567ffffffffffffffff80821115613b2157600080fd5b613b2d8b838c01613a57565b909850965060408a0135915080821115613b4657600080fd5b613b528b838c01613a57565b909650945060608a0135915080821115613b6b57600080fd5b50613b788a828b01613a9c565b989b979a50959850939692959293505050565b600060208284031215613b9d57600080fd5b5035919050565b60005b83811015613bbf578181015183820152602001613ba7565b50506000910152565b60008151808452613be0816020860160208601613ba4565b601f017fffffffffffffffffffffffffffffffffffffffffffffffffffffffffffffffe0169290920160200192915050565b60208152600061055b6020830184613bc8565b600060208284031215613c3757600080fd5b8135613a50816139b7565b600080600060608486031215613c5757600080fd5b8335613c62816139b7565b95602085013595506040909401359392505050565b60008060408385031215613c8a57600080fd5b50508035926020909101359150565b60008060008060008060008060a0898b031215613cb557600080fd5b8835613cc0816139b7565b97506020890135613cd0816139b7565b9650604089013567ffffffffffffffff80821115613ced57600080fd5b613cf98c838d01613a57565b909850965060608b0135915080821115613d1257600080fd5b613d1e8c838d01613a57565b909650945060808b0135915080821115613d3757600080fd5b50613d448b828c01613a9c565b999c989b5096995094979396929594505050565b60008060408385031215613d6b57600080fd5b823591506020830135613d7d816139b7565b809150509250929050565b60008060008060408587031215613d9e57600080fd5b843567ffffffffffffffff80821115613db657600080fd5b613dc288838901613a57565b90965094506020870135915080821115613ddb57600080fd5b50613de887828801613a57565b95989497509550505050565b600081518084526020808501945080840160005b83811015613e2457815187529582019590820190600101613e08565b509495945050505050565b60208152600061055b6020830184613df4565b600080600080600060808688031215613e5a57600080fd5b8535613e65816139b7565b94506020860135935060408601359250606086013567ffffffffffffffff811115613e8f57600080fd5b613e9b88828901613a9c565b969995985093965092949392505050565b60008060008060008060608789031215613ec557600080fd5b863567ffffffffffffffff80821115613edd57600080fd5b613ee98a838b01613a57565b90985096506020890135915080821115613f0257600080fd5b613f0e8a838b01613a57565b90965094506040890135915080821115613f2757600080fd5b50613f3489828a01613a57565b979a9699509497509295939492505050565b60008060208385031215613f5957600080fd5b823567ffffffffffffffff811115613f7057600080fd5b613f7c85828601613a9c565b90969095509350505050565b600080600080600060608688031215613fa057600080fd5b8535613fab816139b7565b9450602086013567ffffffffffffffff80821115613fc857600080fd5b613fd489838a01613a57565b90965094506040880135915080821115613fed57600080fd5b50613e9b88828901613a57565b80151581146106ef57600080fd5b6000806040838503121561401b57600080fd5b8235614026816139b7565b91506020830135613d7d81613ffa565b6000806000806000806000806080898b03121561405257600080fd5b883567ffffffffffffffff8082111561406a57600080fd5b6140768c838d01613a57565b909a50985060208b013591508082111561408f57600080fd5b61409b8c838d01613a57565b909850965060408b01359150808211156140b457600080fd5b6140c08c838d01613a57565b909650945060608b0135915080821115613d3757600080fd5b600080604083850312156140ec57600080fd5b82356140f7816139b7565b91506020830135613d7d816139b7565b60008060008060008060a0878903121561412057600080fd5b863561412b816139b7565b9550602087013561413b816139b7565b94506040870135935060608701359250608087013567ffffffffffffffff81111561416557600080fd5b613f3489828a01613a9c565b7f4e487b7100000000000000000000000000000000000000000000000000000000600052603260045260246000fd5b7f4e487b7100000000000000000000000000000000000000000000000000000000600052601160045260246000fd5b8181038181111561055e5761055e6141a0565b7f416363657373436f6e74726f6c3a206d697373696e672027000000000000000081526000825161421a816018850160208701613ba4565b7f2720726f6c6500000000000000000000000000000000000000000000000000006018939091019283015250601e01919050565b6040815260006142616040830185613df4565b82810360208401526142738185613df4565b95945050505050565b600181811c9082168061429057607f821691505b6020821081036142c9577f4e487b7100000000000000000000000000000000000000000000000000000000600052602260045260246000fd5b50919050565b60008084546142dd8161427c565b600182811680156142f5576001811461432857614357565b7fffffffffffffffffffffffffffffffffffffffffffffffffffffffffffffff0084168752821515830287019450614357565b8860005260208060002060005b8581101561434e5781548a820152908401908201614335565b50505082870194505b50505050835161436b818360208801613ba4565b01949350505050565b808202811582820484141761055e5761055e6141a0565b6000826143c1577f4e487b7100000000000000000000000000000000000000000000000000000000600052601260045260246000fd5b500490565b81835260007f07ffffffffffffffffffffffffffffffffffffffffffffffffffffffffffffff8311156143f857600080fd5b8260051b80836020870137939093016020019392505050565b6040815260006144256040830186886143c6565b82810360208401526138cd8185876143c6565b7f4e487b7100000000000000000000000000000000000000000000000000000000600052604160045260246000fd5b601f82111561071157600081815260208120601f850160051c8101602086101561448e5750805b601f850160051c820191505b8181101561087a5782815560010161449a565b67ffffffffffffffff8311156144c5576144c5614438565b6144d9836144d3835461427c565b83614467565b6000601f84116001811461452b57600085156144f55750838201355b7fffffffffffffffffffffffffffffffffffffffffffffffffffffffffffffffff600387901b1c1916600186901b178355610a03565b6000838152602090207fffffffffffffffffffffffffffffffffffffffffffffffffffffffffffffffe0861690835b8281101561457a578685013582556020948501946001909201910161455a565b50868210156145b5577fffffffffffffffffffffffffffffffffffffffffffffffffffffffffffffffff60f88860031b161c19848701351681555b505060018560011b0183555050505050565b60208152816020820152818360408301376000818301604090810191909152601f9092017fffffffffffffffffffffffffffffffffffffffffffffffffffffffffffffffe0160101919050565b60006020828403121561462657600080fd5b8151613a5081613ffa565b600073ffffffffffffffffffffffffffffffffffffffff808816835280871660208401525060a0604083015261466a60a0830186613df4565b828103606084015261467c8186613df4565b905082810360808401526146908185613bc8565b98975050505050505050565b6000602082840312156146ae57600080fd5b8151613a5081613a05565b600073ffffffffffffffffffffffffffffffffffffffff808816835280871660208401525084604083015283606083015260a060808301526138cd60a0830184613bc8565b60008251614710818460208701613ba4565b919091019291505056fea2646970667358221220b326e9b0544581696400e783ac9625fade8ce0f9997ef95661f7293018bb3ef664736f6c63430008110033",
  "linkReferences": {},
  "deployedLinkReferences": {}
}