{
  "_format": "hh-sol-artifact-1",
  "contractName": "FusionFacet",
  "sourceName": "contracts/token/fusion/FusionFacet.sol",
  "abi": [
    {
      "inputs": [
        {
          "internalType": "contract IForwarderRegistry",
          "name": "forwarderRegistry",
          "type": "address"
        }
      ],
      "stateMutability": "nonpayable",
      "type": "constructor"
    },
    {
      "inputs": [
        {
          "internalType": "uint256",
          "name": "carModel",
          "type": "uint256"
        }
      ],
      "name": "chassisNumber",
      "outputs": [
        {
          "internalType": "uint256",
          "name": "",
          "type": "uint256"
        }
      ],
      "stateMutability": "view",
      "type": "function"
    },
    {
      "inputs": [
        {
          "internalType": "address",
          "name": "yard_",
          "type": "address"
        }
      ],
      "name": "initFusionStorage",
      "outputs": [],
      "stateMutability": "nonpayable",
      "type": "function"
    },
    {
      "inputs": [
        {
          "internalType": "address",
          "name": "yard_",
          "type": "address"
        }
      ],
      "name": "setYard",
      "outputs": [],
      "stateMutability": "nonpayable",
      "type": "function"
    },
    {
      "inputs": [],
      "name": "yard",
      "outputs": [
        {
          "internalType": "address",
          "name": "",
          "type": "address"
        }
      ],
      "stateMutability": "view",
      "type": "function"
    }
  ],
  "bytecode": "0x60a060405234801561001057600080fd5b5060405161070338038061070383398101604081905261002f91610040565b6001600160a01b0316608052610070565b60006020828403121561005257600080fd5b81516001600160a01b038116811461006957600080fd5b9392505050565b6080516106716100926000396000818161021301526102b301526106716000f3fe608060405234801561001057600080fd5b506004361061004c5760003560e01c806315f35515146100515780639b098352146100a3578063dd03316a146100ea578063e8f1b543146100ff575b600080fd5b61009061005f366004610585565b60009081527fe9f115eb6863a5710ccbcd50786f226816925aee1eb1fe925aafb2687d469560602052604090205490565b6040519081526020015b60405180910390f35b7fe9f115eb6863a5710ccbcd50786f226816925aee1eb1fe925aafb2687d4695615460405173ffffffffffffffffffffffffffffffffffffffff909116815260200161009a565b6100fd6100f836600461059e565b610112565b005b6100fd61010d36600461059e565b610191565b61012b61011d6101d7565b61012561032f565b90610363565b7fe9f115eb6863a5710ccbcd50786f226816925aee1eb1fe925aafb2687d46956180547fffffffffffffffffffffffff00000000000000000000000000000000000000001673ffffffffffffffffffffffffffffffffffffffff92909216919091179055565b6101aa61019c6101d7565b6101a46103ef565b9061041d565b6101d47fe9f115eb6863a5710ccbcd50786f226816925aee1eb1fe925aafb2687d469560826104a0565b50565b6000333281036101e657919050565b6000367fffffffffffffffffffffffffffffffffffffffffffffffffffffffffffffffec013560601c90507f000000000000000000000000000000000000000000000000000000000000000073ffffffffffffffffffffffffffffffffffffffff168273ffffffffffffffffffffffffffffffffffffffff16148061031e57506040517fe60125d600000000000000000000000000000000000000000000000000000000815273ffffffffffffffffffffffffffffffffffffffff828116600483015283811660248301527f0000000000000000000000000000000000000000000000000000000000000000169063e60125d690604401602060405180830381865afa1580156102fa573d6000803e3d6000fd5b505050506040513d601f19601f8201168201806040525081019061031e91906105db565b156103295792915050565b50919050565b60008061035d60017f6a1da6973104ff7dedb9b4f5cab5830b3f4a0284ed754366cfc45568bd2d38df6105fd565b92915050565b815473ffffffffffffffffffffffffffffffffffffffff8281169116146103eb576040517f08c379a000000000000000000000000000000000000000000000000000000000815260206004820152601860248201527f4f776e6572736869703a206e6f7420746865206f776e6572000000000000000060448201526064015b60405180910390fd5b5050565b60008061035d60017fb53127684a568b3173ae13b9f8a6016e243e63b6e8ee1178d6a717850b5d61046105fd565b815473ffffffffffffffffffffffffffffffffffffffff8281169116146103eb576040517f08c379a000000000000000000000000000000000000000000000000000000000815260206004820152601960248201527f50726f787941646d696e3a206e6f74207468652061646d696e0000000000000060448201526064016103e2565b6104cb7f139a82e4d23c950a1f75022572675c36e54d9acb2d9afa474c2855ee7a3af76f6001610515565b60019190910180547fffffffffffffffffffffffff00000000000000000000000000000000000000001673ffffffffffffffffffffffffffffffffffffffff909216919091179055565b815482908211610581576040517f08c379a000000000000000000000000000000000000000000000000000000000815260206004820152601860248201527f53746f726167653a2076657273696f6e2072656163686564000000000000000060448201526064016103e2565b5550565b60006020828403121561059757600080fd5b5035919050565b6000602082840312156105b057600080fd5b813573ffffffffffffffffffffffffffffffffffffffff811681146105d457600080fd5b9392505050565b6000602082840312156105ed57600080fd5b815180151581146105d457600080fd5b600082821015610636577f4e487b7100000000000000000000000000000000000000000000000000000000600052601160045260246000fd5b50039056fea2646970667358221220ab7646496200f5fd82c3d91f60e5a3ae1e606621513f395b38132d8aa05ef4f964736f6c634300080d0033",
  "linkReferences": {},
  "deployedLinkReferences": {}
}