{
  "_format": "hh-sol-artifact-1",
  "contractName": "FusionFacet",
  "sourceName": "contracts/token/fusion/FusionFacet.sol",
  "abi": [
    {
      "inputs": [
        {
          "internalType": "contract IForwarderRegistry",
          "name": "forwarderRegistry",
          "type": "address"
        }
      ],
      "stateMutability": "nonpayable",
      "type": "constructor"
    },
    {
      "inputs": [
        {
          "internalType": "uint256",
          "name": "carModel",
          "type": "uint256"
        }
      ],
      "name": "chassisNumber",
      "outputs": [
        {
          "internalType": "uint256",
          "name": "",
          "type": "uint256"
        }
      ],
      "stateMutability": "view",
      "type": "function"
    },
    {
      "inputs": [
        {
          "internalType": "address",
          "name": "yard_",
          "type": "address"
        }
      ],
      "name": "initFusionStorage",
      "outputs": [],
      "stateMutability": "nonpayable",
      "type": "function"
    },
    {
      "inputs": [
        {
          "internalType": "address",
          "name": "yard_",
          "type": "address"
        }
      ],
      "name": "setYard",
      "outputs": [],
      "stateMutability": "nonpayable",
      "type": "function"
    },
    {
      "inputs": [],
      "name": "yard",
      "outputs": [
        {
          "internalType": "address",
          "name": "",
          "type": "address"
        }
      ],
      "stateMutability": "view",
      "type": "function"
    }
  ],
  "bytecode": "0x60a060405234801561001057600080fd5b5060405161070d38038061070d83398101604081905261002f91610040565b6001600160a01b0316608052610070565b60006020828403121561005257600080fd5b81516001600160a01b038116811461006957600080fd5b9392505050565b60805161067b6100926000396000818161021901526102b9015261067b6000f3fe608060405234801561001057600080fd5b506004361061004c5760003560e01c806315f35515146100515780639b09835214610077578063dd03316a146100a4578063e8f1b543146100b9575b600080fd5b61006461005f36600461058f565b6100cc565b6040519081526020015b60405180910390f35b61007f6100e7565b60405173ffffffffffffffffffffffffffffffffffffffff909116815260200161006e565b6100b76100b23660046105a8565b610110565b005b6100b76100c73660046105a8565b61017b565b60006100d66101a9565b600092835260205250604090205490565b60006100f16101a9565b6001015473ffffffffffffffffffffffffffffffffffffffff16919050565b61012961011b6101dd565b610123610335565b90610363565b806101326101a9565b60010180547fffffffffffffffffffffffff00000000000000000000000000000000000000001673ffffffffffffffffffffffffffffffffffffffff9290921691909117905550565b6101946101866101dd565b61018e6103ef565b9061041d565b6101a6816101a06101a9565b906104a0565b50565b6000806101d760017ffdd1e5f90c72e791d4ca71fbea62cc3e8ef871745290759e9db5336acb7f8bb06105e5565b92915050565b6000333281036101ec57919050565b6000367fffffffffffffffffffffffffffffffffffffffffffffffffffffffffffffffec013560601c90507f000000000000000000000000000000000000000000000000000000000000000073ffffffffffffffffffffffffffffffffffffffff168273ffffffffffffffffffffffffffffffffffffffff16148061032457506040517fe60125d600000000000000000000000000000000000000000000000000000000815273ffffffffffffffffffffffffffffffffffffffff828116600483015283811660248301527f0000000000000000000000000000000000000000000000000000000000000000169063e60125d690604401602060405180830381865afa158015610300573d6000803e3d6000fd5b505050506040513d601f19601f820116820180604052508101906103249190610623565b1561032f5792915050565b50919050565b6000806101d760017fbbb5d9542f7a98b323b5aeba2ecddfa10d73251c23dd96dda0031c8675c64b986105e5565b815473ffffffffffffffffffffffffffffffffffffffff8281169116146103eb576040517f08c379a000000000000000000000000000000000000000000000000000000000815260206004820152601860248201527f4f776e6572736869703a206e6f7420746865206f776e6572000000000000000060448201526064015b60405180910390fd5b5050565b6000806101d760017fb53127684a568b3173ae13b9f8a6016e243e63b6e8ee1178d6a717850b5d61046105e5565b815473ffffffffffffffffffffffffffffffffffffffff8281169116146103eb576040517f08c379a000000000000000000000000000000000000000000000000000000000815260206004820152601960248201527f50726f787941646d696e3a206e6f74207468652061646d696e0000000000000060448201526064016103e2565b6104d56104ce60017f2ba8ea016bf634705b0a239ad8b508355b497cc7438b4c1509c358b665bd6ff46105e5565b600161051f565b60019190910180547fffffffffffffffffffffffff00000000000000000000000000000000000000001673ffffffffffffffffffffffffffffffffffffffff909216919091179055565b81548290821161058b576040517f08c379a000000000000000000000000000000000000000000000000000000000815260206004820152601860248201527f53746f726167653a2076657273696f6e2072656163686564000000000000000060448201526064016103e2565b5550565b6000602082840312156105a157600080fd5b5035919050565b6000602082840312156105ba57600080fd5b813573ffffffffffffffffffffffffffffffffffffffff811681146105de57600080fd5b9392505050565b60008282101561061e577f4e487b7100000000000000000000000000000000000000000000000000000000600052601160045260246000fd5b500390565b60006020828403121561063557600080fd5b815180151581146105de57600080fdfea2646970667358221220b0301812d64fc783d83e9e9d21f62b3ae2218c2b732889b8d49b355b0b14dd3d64736f6c634300080e0033",
  "linkReferences": {},
  "deployedLinkReferences": {}
}