{
  "_format": "hh-sol-artifact-1",
  "contractName": "FusionStorage",
  "sourceName": "contracts/token/fusion/libraries/FusionStorage.sol",
  "abi": [
    {
      "inputs": [],
      "name": "CHASSIS_MASK",
      "outputs": [
        {
          "internalType": "uint256",
          "name": "",
          "type": "uint256"
        }
      ],
      "stateMutability": "view",
      "type": "function"
    },
    {
      "inputs": [],
      "name": "FUSION_STORAGE_POSITION",
      "outputs": [
        {
          "internalType": "bytes32",
          "name": "",
          "type": "bytes32"
        }
      ],
      "stateMutability": "view",
      "type": "function"
    },
    {
      "inputs": [],
      "name": "FUSION_VERSION_SLOT",
      "outputs": [
        {
          "internalType": "bytes32",
          "name": "",
          "type": "bytes32"
        }
      ],
      "stateMutability": "view",
      "type": "function"
    }
  ],
  "bytecode": "0x61016261003a600b82828239805160001a60731461002d57634e487b7160e01b600052600060045260246000fd5b30600052607381538281f3fe730000000000000000000000000000000000000000301460806040526004361061004b5760003560e01c80630cd70d78146100505780637a54436b1461006a5780639847dce614610072575b600080fd5b610058610099565b60405190815260200160405180910390f35b6100586100c7565b6100587ffffffff80000000000000000ff00000000000000000000000000ffff0000000081565b6100c460017f2ba8ea016bf634705b0a239ad8b508355b497cc7438b4c1509c358b665bd6ff46100ee565b81565b6100c460017ffdd1e5f90c72e791d4ca71fbea62cc3e8ef871745290759e9db5336acb7f8bb05b600082821015610127577f4e487b7100000000000000000000000000000000000000000000000000000000600052601160045260246000fd5b50039056fea2646970667358221220714f54e36789a80a79b9302a334e45980d0b91ce01ee07ca38ec28c756fb4acc64736f6c634300080e0033",
  "linkReferences": {},
  "deployedLinkReferences": {}
}