{
  "_format": "hh-sol-artifact-1",
  "contractName": "CatalystBuilder",
  "sourceName": "contracts/token/ERC20/CatalystBuilder.sol",
  "abi": [
    {
      "inputs": [
        {
          "internalType": "contract IERC20Burnable",
          "name": "shards_",
          "type": "address"
        },
        {
          "internalType": "contract IERC20Mintable",
          "name": "catalysts_",
          "type": "address"
        }
      ],
      "stateMutability": "nonpayable",
      "type": "constructor"
    },
    {
      "anonymous": false,
      "inputs": [
        {
          "indexed": false,
          "internalType": "uint256",
          "name": "conversionRate",
          "type": "uint256"
        }
      ],
      "name": "ConversionRateUpdated",
      "type": "event"
    },
    {
      "anonymous": false,
      "inputs": [
        {
          "indexed": true,
          "internalType": "address",
          "name": "account",
          "type": "address"
        }
      ],
      "name": "MinterAdded",
      "type": "event"
    },
    {
      "anonymous": false,
      "inputs": [
        {
          "indexed": true,
          "internalType": "address",
          "name": "account",
          "type": "address"
        }
      ],
      "name": "MinterRemoved",
      "type": "event"
    },
    {
      "anonymous": false,
      "inputs": [
        {
          "indexed": true,
          "internalType": "address",
          "name": "previousOwner",
          "type": "address"
        },
        {
          "indexed": true,
          "internalType": "address",
          "name": "newOwner",
          "type": "address"
        }
      ],
      "name": "OwnershipTransferred",
      "type": "event"
    },
    {
      "inputs": [
        {
          "internalType": "address",
          "name": "account",
          "type": "address"
        }
      ],
      "name": "addMinter",
      "outputs": [],
      "stateMutability": "nonpayable",
      "type": "function"
    },
    {
      "inputs": [],
      "name": "catalysts",
      "outputs": [
        {
          "internalType": "contract IERC20Mintable",
          "name": "",
          "type": "address"
        }
      ],
      "stateMutability": "view",
      "type": "function"
    },
    {
      "inputs": [],
      "name": "conversionRate",
      "outputs": [
        {
          "internalType": "uint256",
          "name": "",
          "type": "uint256"
        }
      ],
      "stateMutability": "view",
      "type": "function"
    },
    {
      "inputs": [
        {
          "internalType": "address",
          "name": "",
          "type": "address"
        }
      ],
      "name": "isMinter",
      "outputs": [
        {
          "internalType": "bool",
          "name": "",
          "type": "bool"
        }
      ],
      "stateMutability": "view",
      "type": "function"
    },
    {
      "inputs": [
        {
          "internalType": "address",
          "name": "",
          "type": "address"
        },
        {
          "internalType": "address",
          "name": "from",
          "type": "address"
        },
        {
          "internalType": "uint256",
          "name": "value",
          "type": "uint256"
        },
        {
          "internalType": "bytes",
          "name": "",
          "type": "bytes"
        }
      ],
      "name": "onERC20Received",
      "outputs": [
        {
          "internalType": "bytes4",
          "name": "",
          "type": "bytes4"
        }
      ],
      "stateMutability": "nonpayable",
      "type": "function"
    },
    {
      "inputs": [],
      "name": "owner",
      "outputs": [
        {
          "internalType": "address",
          "name": "",
          "type": "address"
        }
      ],
      "stateMutability": "view",
      "type": "function"
    },
    {
      "inputs": [
        {
          "internalType": "address[]",
          "name": "accounts",
          "type": "address[]"
        },
        {
          "internalType": "address[]",
          "name": "tokens",
          "type": "address[]"
        },
        {
          "internalType": "uint256[]",
          "name": "amounts",
          "type": "uint256[]"
        }
      ],
      "name": "recoverERC20s",
      "outputs": [],
      "stateMutability": "nonpayable",
      "type": "function"
    },
    {
      "inputs": [
        {
          "internalType": "address[]",
          "name": "accounts",
          "type": "address[]"
        },
        {
          "internalType": "address[]",
          "name": "contracts",
          "type": "address[]"
        },
        {
          "internalType": "uint256[]",
          "name": "tokenIds",
          "type": "uint256[]"
        }
      ],
      "name": "recoverERC721s",
      "outputs": [],
      "stateMutability": "nonpayable",
      "type": "function"
    },
    {
      "inputs": [],
      "name": "renounceMinter",
      "outputs": [],
      "stateMutability": "nonpayable",
      "type": "function"
    },
    {
      "inputs": [
        {
          "internalType": "uint256",
          "name": "conversionRate_",
          "type": "uint256"
        }
      ],
      "name": "setConversionRate",
      "outputs": [],
      "stateMutability": "nonpayable",
      "type": "function"
    },
    {
      "inputs": [],
      "name": "shards",
      "outputs": [
        {
          "internalType": "contract IERC20Burnable",
          "name": "",
          "type": "address"
        }
      ],
      "stateMutability": "view",
      "type": "function"
    },
    {
      "inputs": [
        {
          "internalType": "bytes4",
          "name": "interfaceId",
          "type": "bytes4"
        }
      ],
      "name": "supportsInterface",
      "outputs": [
        {
          "internalType": "bool",
          "name": "",
          "type": "bool"
        }
      ],
      "stateMutability": "view",
      "type": "function"
    },
    {
      "inputs": [
        {
          "internalType": "address",
          "name": "newOwner",
          "type": "address"
        }
      ],
      "name": "transferOwnership",
      "outputs": [],
      "stateMutability": "nonpayable",
      "type": "function"
    }
  ],
  "bytecode": "0x60c060405234801561001057600080fd5b506040516111913803806111918339818101604052604081101561003357600080fd5b508051602090910151600080546001600160a01b031916339081178255604051909182918291907f8be0079c531659141344cd1fd0a4f28419497f9722a3daafe3b4186f6b6457e0908290a350610089816100de565b506001600160601b0319606083811b821660805282901b1660a052604080516000815290517eb22dee8d85ff5215d4c68cdb3f5864f9e51f23b5c76363187afaacab3906e79181900360200190a1505061012d565b6001600160a01b0381166000818152600160208190526040808320805460ff1916909217909155517f6ae172837ea30b801fbfcdd4108aa1d5bf8ff775444fd70256b44e6bf3dfc3f69190a250565b60805160601c60a05160601c61102c6101656000398061074a5280610b025250806105e752806106b05280610805525061102c6000f3fe608060405234801561001057600080fd5b50600436106100df5760003560e01c8063983b2d561161008c578063c3666c3611610066578063c3666c36146103e2578063d0e54672146104f6578063d2e80494146104fe578063f2fde38b1461051b576100df565b8063983b2d561461038e57806398650275146103b4578063aa271e1a146103bc576100df565b806373c8a958116100bd57806373c8a958146102565780637ffdf53e1461036c5780638da5cb5b14610386576100df565b806301ffc9a7146100e45780634fc35859146101375780636d53ae1e14610232575b600080fd5b610123600480360360208110156100fa57600080fd5b50357fffffffff0000000000000000000000000000000000000000000000000000000016610541565b604080519115158252519081900360200190f35b6101fd6004803603608081101561014d57600080fd5b6001600160a01b0382358116926020810135909116916040820135919081019060808101606082013564010000000081111561018857600080fd5b82018360208201111561019a57600080fd5b803590602001918460018302840111640100000000831117156101bc57600080fd5b91908080601f0160208091040260200160405190810160405280939291908181526020018383808284376000920191909152509295506105da945050505050565b604080517fffffffff000000000000000000000000000000000000000000000000000000009092168252519081900360200190f35b61023a610803565b604080516001600160a01b039092168252519081900360200190f35b61036a6004803603606081101561026c57600080fd5b81019060208101813564010000000081111561028757600080fd5b82018360208201111561029957600080fd5b803590602001918460208302840111640100000000831117156102bb57600080fd5b9193909290916020810190356401000000008111156102d957600080fd5b8201836020820111156102eb57600080fd5b8035906020019184602083028401116401000000008311171561030d57600080fd5b91939092909160208101903564010000000081111561032b57600080fd5b82018360208201111561033d57600080fd5b8035906020019184602083028401116401000000008311171561035f57600080fd5b509092509050610827565b005b610374610919565b60408051918252519081900360200190f35b61023a61091f565b61036a600480360360208110156103a457600080fd5b50356001600160a01b031661092e565b61036a610945565b610123600480360360208110156103d257600080fd5b50356001600160a01b03166109a3565b61036a600480360360608110156103f857600080fd5b81019060208101813564010000000081111561041357600080fd5b82018360208201111561042557600080fd5b8035906020019184602083028401116401000000008311171561044757600080fd5b91939092909160208101903564010000000081111561046557600080fd5b82018360208201111561047757600080fd5b8035906020019184602083028401116401000000008311171561049957600080fd5b9193909290916020810190356401000000008111156104b757600080fd5b8201836020820111156104c957600080fd5b803590602001918460208302840111640100000000831117156104eb57600080fd5b5090925090506109b8565b61023a610b00565b61036a6004803603602081101561051457600080fd5b5035610b24565b61036a6004803603602081101561053157600080fd5b50356001600160a01b0316610b6e565b60007fffffffff0000000000000000000000000000000000000000000000000000000082167f01ffc9a70000000000000000000000000000000000000000000000000000000014806105d457507fffffffff0000000000000000000000000000000000000000000000000000000082167f4fc3585900000000000000000000000000000000000000000000000000000000145b92915050565b6000336001600160a01b037f00000000000000000000000000000000000000000000000000000000000000001614610659576040805162461bcd60e51b815260206004820152601d60248201527f436174616c7973744275696c6465723a2077726f6e672073656e646572000000604482015290519081900360640190fd5b600254806106ae576040805162461bcd60e51b815260206004820152601d60248201527f436174616c7973744275696c6465723a2072617465206e6f7420736574000000604482015290519081900360640190fd5b7f00000000000000000000000000000000000000000000000000000000000000006001600160a01b03166342966c68856040518263ffffffff1660e01b815260040180828152602001915050602060405180830381600087803b15801561071457600080fd5b505af1158015610728573d6000803e3d6000fd5b505050506040513d602081101561073e57600080fd5b50506001600160a01b037f0000000000000000000000000000000000000000000000000000000000000000166340c10f198683878161077957fe5b046040518363ffffffff1660e01b815260040180836001600160a01b0316815260200182815260200192505050600060405180830381600087803b1580156107c057600080fd5b505af11580156107d4573d6000803e3d6000fd5b507f4fc35859000000000000000000000000000000000000000000000000000000009998505050505050505050565b7f000000000000000000000000000000000000000000000000000000000000000081565b610837610832610bdf565b610be3565b84838114801561084657508082145b610897576040805162461bcd60e51b815260206004820152601a60248201527f5265636f763a20696e636f6e73697374656e7420617272617973000000000000604482015290519081900360640190fd5b60005b81811461090f576109078888838181106108b057fe5b905060200201356001600160a01b03168585848181106108cc57fe5b905060200201358888858181106108df57fe5b905060200201356001600160a01b03166001600160a01b0316610ca79092919063ffffffff16565b60010161089a565b5050505050505050565b60025481565b6000546001600160a01b031690565b610939610832610bdf565b61094281610d2c565b50565b600061094f610bdf565b905061095a81610d7b565b6001600160a01b038116600081815260016020526040808220805460ff19169055517fe94479a9f7e1952cc78f2d6baab678adc1b772d936c6583def489e524cb666929190a250565b60016020526000908152604090205460ff1681565b6109c3610832610bdf565b8483811480156109d257508082145b610a23576040805162461bcd60e51b815260206004820152601a60248201527f5265636f763a20696e636f6e73697374656e7420617272617973000000000000604482015290519081900360640190fd5b60005b81811461090f57858582818110610a3957fe5b905060200201356001600160a01b03166001600160a01b03166323b872dd308a8a85818110610a6457fe5b905060200201356001600160a01b0316878786818110610a8057fe5b905060200201356040518463ffffffff1660e01b815260040180846001600160a01b03168152602001836001600160a01b031681526020018281526020019350505050600060405180830381600087803b158015610add57600080fd5b505af1158015610af1573d6000803e3d6000fd5b50505050806001019050610a26565b7f000000000000000000000000000000000000000000000000000000000000000081565b610b34610b2f610bdf565b610d7b565b60028190556040805182815290517eb22dee8d85ff5215d4c68cdb3f5864f9e51f23b5c76363187afaacab3906e79181900360200190a150565b610b79610832610bdf565b600080547fffffffffffffffffffffffff0000000000000000000000000000000000000000166001600160a01b0383811691821780845560405192939116917f8be0079c531659141344cd1fd0a4f28419497f9722a3daafe3b4186f6b6457e09190a350565b3390565b306001600160a01b0316638da5cb5b6040518163ffffffff1660e01b815260040160206040518083038186803b158015610c1c57600080fd5b505afa158015610c30573d6000803e3d6000fd5b505050506040513d6020811015610c4657600080fd5b50516001600160a01b03828116911614610942576040805162461bcd60e51b815260206004820152601660248201527f4f776e61626c653a206e6f7420746865206f776e657200000000000000000000604482015290519081900360640190fd5b604080516001600160a01b038416602482015260448082018490528251808303909101815260649091019091526020810180517bffffffffffffffffffffffffffffffffffffffffffffffffffffffff167fa9059cbb00000000000000000000000000000000000000000000000000000000179052610d27908490610de8565b505050565b6001600160a01b0381166000818152600160208190526040808320805460ff1916909217909155517f6ae172837ea30b801fbfcdd4108aa1d5bf8ff775444fd70256b44e6bf3dfc3f69190a250565b6001600160a01b03811660009081526001602052604090205460ff16610942576040805162461bcd60e51b815260206004820152601860248201527f4d696e746572526f6c653a206e6f742061204d696e7465720000000000000000604482015290519081900360640190fd5b81610dfb6001600160a01b038216610ff0565b610e4c576040805162461bcd60e51b815260206004820152601a60248201527f4552433230577261707065723a206e6f6e2d636f6e7472616374000000000000604482015290519081900360640190fd5b600080826001600160a01b0316846040518082805190602001908083835b60208310610ea757805182527fffffffffffffffffffffffffffffffffffffffffffffffffffffffffffffffe09092019160209182019101610e6a565b6001836020036101000a0380198251168184511680821785525050505050509050019150506000604051808303816000865af19150503d8060008114610f09576040519150601f19603f3d011682016040523d82523d6000602084013e610f0e565b606091505b50915091508115610f8d57805115610f8857808060200190516020811015610f3557600080fd5b5051610f88576040805162461bcd60e51b815260206004820152601e60248201527f4552433230577261707065723a206f7065726174696f6e206661696c65640000604482015290519081900360640190fd5b610fe9565b8051610fe0576040805162461bcd60e51b815260206004820152601e60248201527f4552433230577261707065723a206f7065726174696f6e206661696c65640000604482015290519081900360640190fd5b80518082602001fd5b5050505050565b3b15159056fea26469706673582212200653e6d2184ce32fb5928cfbd7226d99717bd0843b7fa3f28a4b9bd90b311a0664736f6c63430007060033",
  "linkReferences": {},
  "deployedLinkReferences": {}
}