{
  "_format": "hh-sol-artifact-1",
  "contractName": "FusionFacetMock",
  "sourceName": "contracts/mocks/token/fusion/FusionFacetMock.sol",
  "abi": [
    {
      "inputs": [
        {
          "internalType": "contract IForwarderRegistry",
          "name": "forwarderRegistry",
          "type": "address"
        }
      ],
      "stateMutability": "nonpayable",
      "type": "constructor"
    },
    {
      "inputs": [],
      "name": "__msgData",
      "outputs": [
        {
          "internalType": "bytes",
          "name": "",
          "type": "bytes"
        }
      ],
      "stateMutability": "view",
      "type": "function"
    },
    {
      "inputs": [
        {
          "internalType": "uint256",
          "name": "carModel",
          "type": "uint256"
        }
      ],
      "name": "chassisNumber",
      "outputs": [
        {
          "internalType": "uint256",
          "name": "",
          "type": "uint256"
        }
      ],
      "stateMutability": "view",
      "type": "function"
    },
    {
      "inputs": [
        {
          "internalType": "address",
          "name": "yard_",
          "type": "address"
        }
      ],
      "name": "initFusionStorage",
      "outputs": [],
      "stateMutability": "nonpayable",
      "type": "function"
    },
    {
      "inputs": [
        {
          "internalType": "address",
          "name": "yard_",
          "type": "address"
        }
      ],
      "name": "setYard",
      "outputs": [],
      "stateMutability": "nonpayable",
      "type": "function"
    },
    {
      "inputs": [],
      "name": "yard",
      "outputs": [
        {
          "internalType": "address",
          "name": "",
          "type": "address"
        }
      ],
      "stateMutability": "view",
      "type": "function"
    }
  ],
  "bytecode": "0x60a060405234801561001057600080fd5b5060405161097838038061097883398101604081905261002f91610040565b6001600160a01b0316608052610070565b60006020828403121561005257600080fd5b81516001600160a01b038116811461006957600080fd5b9392505050565b6080516108d86100a060003960008181610239015281816102a3015281816103e1015261048101526108d86000f3fe608060405234801561001057600080fd5b50600436106100675760003560e01c80639b098352116100505780639b098352146100a8578063dd03316a146100d5578063e8f1b543146100ea57600080fd5b806315f355151461006c57806331e66e1e14610092575b600080fd5b61007f61007a366004610775565b6100fd565b6040519081526020015b60405180910390f35b61009a610118565b60405161008992919061078e565b6100b061012b565b60405173ffffffffffffffffffffffffffffffffffffffff9091168152602001610089565b6100e86100e33660046107db565b610154565b005b6100e86100f83660046107db565b6101bf565b60006101076101ed565b600092835260205250604090205490565b366000610123610221565b915091509091565b60006101356101ed565b6001015473ffffffffffffffffffffffffffffffffffffffff16919050565b61016d61015f6103a5565b6101676104fd565b9061052b565b806101766101ed565b60010180547fffffffffffffffffffffffff00000000000000000000000000000000000000001673ffffffffffffffffffffffffffffffffffffffff9290921691909117905550565b6101d86101ca6103a5565b6101d26105b7565b906105e5565b6101ea816101e46101ed565b90610668565b50565b60008061021b60017ffdd1e5f90c72e791d4ca71fbea62cc3e8ef871745290759e9db5336acb7f8bb0610818565b92915050565b3660003332810361023757506000923692509050565b7f000000000000000000000000000000000000000000000000000000000000000073ffffffffffffffffffffffffffffffffffffffff168173ffffffffffffffffffffffffffffffffffffffff161480610384575073ffffffffffffffffffffffffffffffffffffffff7f00000000000000000000000000000000000000000000000000000000000000001663e60125d6367fffffffffffffffffffffffffffffffffffffffffffffffffffffffffffffffec013560601c6040517fffffffff0000000000000000000000000000000000000000000000000000000060e084901b16815273ffffffffffffffffffffffffffffffffffffffff91821660048201529084166024820152604401602060405180830381865afa158015610360573d6000803e3d6000fd5b505050506040513d601f19601f820116820180604052508101906103849190610856565b1561039a576103916106e7565b92509250509091565b506000923692509050565b6000333281036103b457919050565b6000367fffffffffffffffffffffffffffffffffffffffffffffffffffffffffffffffec013560601c90507f000000000000000000000000000000000000000000000000000000000000000073ffffffffffffffffffffffffffffffffffffffff168273ffffffffffffffffffffffffffffffffffffffff1614806104ec57506040517fe60125d600000000000000000000000000000000000000000000000000000000815273ffffffffffffffffffffffffffffffffffffffff828116600483015283811660248301527f0000000000000000000000000000000000000000000000000000000000000000169063e60125d690604401602060405180830381865afa1580156104c8573d6000803e3d6000fd5b505050506040513d601f19601f820116820180604052508101906104ec9190610856565b156104f75792915050565b50919050565b60008061021b60017fbbb5d9542f7a98b323b5aeba2ecddfa10d73251c23dd96dda0031c8675c64b98610818565b815473ffffffffffffffffffffffffffffffffffffffff8281169116146105b3576040517f08c379a000000000000000000000000000000000000000000000000000000000815260206004820152601860248201527f4f776e6572736869703a206e6f7420746865206f776e6572000000000000000060448201526064015b60405180910390fd5b5050565b60008061021b60017fb53127684a568b3173ae13b9f8a6016e243e63b6e8ee1178d6a717850b5d6104610818565b815473ffffffffffffffffffffffffffffffffffffffff8281169116146105b3576040517f08c379a000000000000000000000000000000000000000000000000000000000815260206004820152601960248201527f50726f787941646d696e3a206e6f74207468652061646d696e0000000000000060448201526064016105aa565b61069d61069660017f2ba8ea016bf634705b0a239ad8b508355b497cc7438b4c1509c358b665bd6ff4610818565b6001610705565b60019190910180547fffffffffffffffffffffffff00000000000000000000000000000000000000001673ffffffffffffffffffffffffffffffffffffffff909216919091179055565b3660008080836106f8601482610818565b9261012393929190610878565b815482908211610771576040517f08c379a000000000000000000000000000000000000000000000000000000000815260206004820152601860248201527f53746f726167653a2076657273696f6e2072656163686564000000000000000060448201526064016105aa565b5550565b60006020828403121561078757600080fd5b5035919050565b60208152816020820152818360408301376000818301604090810191909152601f9092017fffffffffffffffffffffffffffffffffffffffffffffffffffffffffffffffe0160101919050565b6000602082840312156107ed57600080fd5b813573ffffffffffffffffffffffffffffffffffffffff8116811461081157600080fd5b9392505050565b600082821015610851577f4e487b7100000000000000000000000000000000000000000000000000000000600052601160045260246000fd5b500390565b60006020828403121561086857600080fd5b8151801515811461081157600080fd5b6000808585111561088857600080fd5b8386111561089557600080fd5b505082019391909203915056fea26469706673582212204ca9f28d4d47332b28f7b719575c2f09e559894ce101b9142497fe6daeee170d64736f6c634300080e0033",
  "linkReferences": {},
  "deployedLinkReferences": {}
}