{
  "_format": "hh-sol-artifact-1",
  "contractName": "LibFusion",
  "sourceName": "contracts/token/fusion/libraries/LibFusion.sol",
  "abi": [
    {
      "inputs": [],
      "name": "FUSION_STORAGE_POSITION",
      "outputs": [
        {
          "internalType": "bytes32",
          "name": "",
          "type": "bytes32"
        }
      ],
      "stateMutability": "view",
      "type": "function"
    }
  ],
  "bytecode": "0x60aa610024600b82828239805160001a607314601757fe5b30600052607381538281f3fe730000000000000000000000000000000000000000301460806040526004361060335760003560e01c80637a54436b146038575b600080fd5b603e6050565b60408051918252519081900360200190f35b7f017c151499bd0a073c21e62300fb5d151700bdb9cadb076d36eb827db755ced68156fea26469706673582212201dd61bd523cfc636832221f66945fed580c9ecef5cfb3da144ed60c8b82a448a64736f6c63430007060033",
  "linkReferences": {},
  "deployedLinkReferences": {}
}